{"abi":[{"type":"constructor","inputs":[],"stateMutability":"nonpayable"},{"type":"function","name":"DOMAIN_SEPARATOR","inputs":[],"outputs":[{"name":"","type":"bytes32","internalType":"bytes32"}],"stateMutability":"view"},{"type":"function","name":"allowance","inputs":[{"name":"","type":"address","internalType":"address"},{"name":"","type":"address","internalType":"address"}],"outputs":[{"name":"","type":"uint256","internalType":"uint256"}],"stateMutability":"view"},{"type":"function","name":"approve","inputs":[{"name":"spender","type":"address","internalType":"address"},{"name":"amount","type":"uint256","internalType":"uint256"}],"outputs":[{"name":"","type":"bool","internalType":"bool"}],"stateMutability":"nonpayable"},{"type":"function","name":"balanceOf","inputs":[{"name":"","type":"address","internalType":"address"}],"outputs":[{"name":"","type":"uint256","internalType":"uint256"}],"stateMutability":"view"},{"type":"function","name":"decimals","inputs":[],"outputs":[{"name":"","type":"uint8","internalType":"uint8"}],"stateMutability":"view"},{"type":"function","name":"mint","inputs":[{"name":"to","type":"address","internalType":"address"},{"name":"amount","type":"uint256","internalType":"uint256"}],"outputs":[],"stateMutability":"nonpayable"},{"type":"function","name":"name","inputs":[],"outputs":[{"name":"","type":"string","internalType":"string"}],"stateMutability":"view"},{"type":"function","name":"nonces","inputs":[{"name":"","type":"address","internalType":"address"}],"outputs":[{"name":"","type":"uint256","internalType":"uint256"}],"stateMutability":"view"},{"type":"function","name":"permit","inputs":[{"name":"owner","type":"address","internalType":"address"},{"name":"spender","type":"address","internalType":"address"},{"name":"value","type":"uint256","internalType":"uint256"},{"name":"deadline","type":"uint256","internalType":"uint256"},{"name":"v","type":"uint8","internalType":"uint8"},{"name":"r","type":"bytes32","internalType":"bytes32"},{"name":"s","type":"bytes32","internalType":"bytes32"}],"outputs":[],"stateMutability":"nonpayable"},{"type":"function","name":"symbol","inputs":[],"outputs":[{"name":"","type":"string","internalType":"string"}],"stateMutability":"view"},{"type":"function","name":"totalSupply","inputs":[],"outputs":[{"name":"","type":"uint256","internalType":"uint256"}],"stateMutability":"view"},{"type":"function","name":"transfer","inputs":[{"name":"to","type":"address","internalType":"address"},{"name":"amount","type":"uint256","internalType":"uint256"}],"outputs":[{"name":"","type":"bool","internalType":"bool"}],"stateMutability":"nonpayable"},{"type":"function","name":"transferFrom","inputs":[{"name":"from","type":"address","internalType":"address"},{"name":"to","type":"address","internalType":"address"},{"name":"amount","type":"uint256","internalType":"uint256"}],"outputs":[{"name":"","type":"bool","internalType":"bool"}],"stateMutability":"nonpayable"},{"type":"event","name":"Approval","inputs":[{"name":"owner","type":"address","indexed":true,"internalType":"address"},{"name":"spender","type":"address","indexed":true,"internalType":"address"},{"name":"amount","type":"uint256","indexed":false,"internalType":"uint256"}],"anonymous":false},{"type":"event","name":"Transfer","inputs":[{"name":"from","type":"address","indexed":true,"internalType":"address"},{"name":"to","type":"address","indexed":true,"internalType":"address"},{"name":"amount","type":"uint256","indexed":false,"internalType":"uint256"}],"anonymous":false}],"bytecode":{"object":"0x60e060405234801561000f575f5ffd5b506040518060400160405280600a81526020016915195d1a195c881554d160b21b815250604051806040016040528060048152602001631554d11560e21b8152506006825f908161006091906101bd565b50600161006d83826101bd565b5060ff81166080524660a05261008161008d565b60c052506102e8915050565b5f7f8b73c3c69bb8fe3d512ecc4cf759cc79239f7b179b0ffacaa9a75d522b39400f5f6040516100bd9190610277565b6040805191829003822060208301939093528101919091527fc89efdaa54c0f20c7adf612882df0950f5a951637e0307cdcb4c672f298b8bc660608201524660808201523060a082015260c00160405160208183030381529060405280519060200120905090565b634e487b7160e01b5f52604160045260245ffd5b600181811c9082168061014d57607f821691505b60208210810361016b57634e487b7160e01b5f52602260045260245ffd5b50919050565b601f8211156101b857805f5260205f20601f840160051c810160208510156101965750805b601f840160051c820191505b818110156101b5575f81556001016101a2565b50505b505050565b81516001600160401b038111156101d6576101d6610125565b6101ea816101e48454610139565b84610171565b6020601f82116001811461021c575f83156102055750848201515b5f19600385901b1c1916600184901b1784556101b5565b5f84815260208120601f198516915b8281101561024b578785015182556020948501946001909201910161022b565b508482101561026857868401515f19600387901b60f8161c191681555b50505050600190811b01905550565b5f5f835461028481610139565b60018216801561029b57600181146102b0576102dd565b60ff19831686528115158202860193506102dd565b865f5260205f205f5b838110156102d5578154888201526001909101906020016102b9565b505081860193505b509195945050505050565b60805160a05160c051610aed6103125f395f61044201525f61040d01525f61013f0152610aed5ff3fe608060405234801561000f575f5ffd5b50600436106100cb575f3560e01c806340c10f191161008857806395d89b411161006357806395d89b41146101ce578063a9059cbb146101d6578063d505accf146101e9578063dd62ed3e146101fc575f5ffd5b806340c10f191461017b57806370a08231146101905780637ecebe00146101af575f5ffd5b806306fdde03146100cf578063095ea7b3146100ed57806318160ddd1461011057806323b872dd14610127578063313ce5671461013a5780633644e51514610173575b5f5ffd5b6100d7610226565b6040516100e49190610839565b60405180910390f35b6101006100fb366004610889565b6102b1565b60405190151581526020016100e4565b61011960025481565b6040519081526020016100e4565b6101006101353660046108b1565b61031d565b6101617f000000000000000000000000000000000000000000000000000000000000000081565b60405160ff90911681526020016100e4565b61011961040a565b61018e610189366004610889565b610464565b005b61011961019e3660046108eb565b60036020525f908152604090205481565b6101196101bd3660046108eb565b60056020525f908152604090205481565b6100d7610472565b6101006101e4366004610889565b61047f565b61018e6101f736600461090b565b6104f5565b61011961020a366004610978565b600460209081525f928352604080842090915290825290205481565b5f8054610232906109a9565b80601f016020809104026020016040519081016040528092919081815260200182805461025e906109a9565b80156102a95780601f10610280576101008083540402835291602001916102a9565b820191905f5260205f20905b81548152906001019060200180831161028c57829003601f168201915b505050505081565b335f8181526004602090815260408083206001600160a01b038716808552925280832085905551919290917f8c5be1e5ebec7d5bd14f71427d1e84f3dd0314c0f7b2291e5b200ac8c7c3b9259061030b9086815260200190565b60405180910390a35060015b92915050565b6001600160a01b0383165f9081526004602090815260408083203384529091528120545f1981146103765761035283826109f5565b6001600160a01b0386165f9081526004602090815260408083203384529091529020555b6001600160a01b0385165f908152600360205260408120805485929061039d9084906109f5565b90915550506001600160a01b038085165f81815260036020526040908190208054870190555190918716907fddf252ad1be2c89b69c2b068fc378daa952ba7f163c4a11628f55a4df523b3ef906103f79087815260200190565b60405180910390a3506001949350505050565b5f7f0000000000000000000000000000000000000000000000000000000000000000461461043f5761043a610738565b905090565b507f000000000000000000000000000000000000000000000000000000000000000090565b61046e82826107d0565b5050565b60018054610232906109a9565b335f9081526003602052604081208054839190839061049f9084906109f5565b90915550506001600160a01b0383165f81815260036020526040908190208054850190555133907fddf252ad1be2c89b69c2b068fc378daa952ba7f163c4a11628f55a4df523b3ef9061030b9086815260200190565b4284101561054a5760405162461bcd60e51b815260206004820152601760248201527f5045524d49545f444541444c494e455f4558504952454400000000000000000060448201526064015b60405180910390fd5b5f600161055561040a565b6001600160a01b038a81165f8181526005602090815260409182902080546001810190915582517f6e71edae12b1b97f4d1f60370fef10105fa2faae0126114a169c64845d6126c98184015280840194909452938d166060840152608083018c905260a083019390935260c08083018b90528151808403909101815260e08301909152805192019190912061190160f01b6101008301526101028201929092526101228101919091526101420160408051601f1981840301815282825280516020918201205f84529083018083525260ff871690820152606081018590526080810184905260a0016020604051602081039080840390855afa15801561065d573d5f5f3e3d5ffd5b5050604051601f1901519150506001600160a01b038116158015906106935750876001600160a01b0316816001600160a01b0316145b6106d05760405162461bcd60e51b815260206004820152600e60248201526d24a72b20a624a22fa9a4a3a722a960911b6044820152606401610541565b6001600160a01b039081165f9081526004602090815260408083208a8516808552908352928190208990555188815291928a16917f8c5be1e5ebec7d5bd14f71427d1e84f3dd0314c0f7b2291e5b200ac8c7c3b925910160405180910390a350505050505050565b5f7f8b73c3c69bb8fe3d512ecc4cf759cc79239f7b179b0ffacaa9a75d522b39400f5f6040516107689190610a08565b6040805191829003822060208301939093528101919091527fc89efdaa54c0f20c7adf612882df0950f5a951637e0307cdcb4c672f298b8bc660608201524660808201523060a082015260c00160405160208183030381529060405280519060200120905090565b8060025f8282546107e19190610aa4565b90915550506001600160a01b0382165f818152600360209081526040808320805486019055518481527fddf252ad1be2c89b69c2b068fc378daa952ba7f163c4a11628f55a4df523b3ef910160405180910390a35050565b602081525f82518060208401528060208501604085015e5f604082850101526040601f19601f83011684010191505092915050565b80356001600160a01b0381168114610884575f5ffd5b919050565b5f5f6040838503121561089a575f5ffd5b6108a38361086e565b946020939093013593505050565b5f5f5f606084860312156108c3575f5ffd5b6108cc8461086e565b92506108da6020850161086e565b929592945050506040919091013590565b5f602082840312156108fb575f5ffd5b6109048261086e565b9392505050565b5f5f5f5f5f5f5f60e0888a031215610921575f5ffd5b61092a8861086e565b96506109386020890161086e565b95506040880135945060608801359350608088013560ff8116811461095b575f5ffd5b9699959850939692959460a0840135945060c09093013592915050565b5f5f60408385031215610989575f5ffd5b6109928361086e565b91506109a06020840161086e565b90509250929050565b600181811c908216806109bd57607f821691505b6020821081036109db57634e487b7160e01b5f52602260045260245ffd5b50919050565b634e487b7160e01b5f52601160045260245ffd5b81810381811115610317576103176109e1565b5f5f83545f8160011c90506001821680610a2357607f821691505b602082108103610a4157634e487b7160e01b5f52602260045260245ffd5b808015610a555760018114610a6a57610a98565b60ff1984168752821515830287019450610a98565b5f888152602090205f5b84811015610a9057815489820152600190910190602001610a74565b505082870194505b50929695505050505050565b80820180821115610317576103176109e156fea2646970667358221220e319979bf3110061199b04c98245c384ec16850d24cdbf205dae38d487d6685664736f6c634300081b0033","linkReferences":{}},"methodIdentifiers":{"DOMAIN_SEPARATOR()":"3644e515","allowance(address,address)":"dd62ed3e","approve(address,uint256)":"095ea7b3","balanceOf(address)":"70a08231","decimals()":"313ce567","mint(address,uint256)":"40c10f19","name()":"06fdde03","nonces(address)":"7ecebe00","permit(address,address,uint256,uint256,uint8,bytes32,bytes32)":"d505accf","symbol()":"95d89b41","totalSupply()":"18160ddd","transfer(address,uint256)":"a9059cbb","transferFrom(address,address,uint256)":"23b872dd"},"storageLayout":{"storage":[{"astId":46707,"contract":"tests/MockUSDT.sol:MockUSDT","label":"name","offset":0,"slot":"0","type":"t_string_storage"},{"astId":46709,"contract":"tests/MockUSDT.sol:MockUSDT","label":"symbol","offset":0,"slot":"1","type":"t_string_storage"},{"astId":46713,"contract":"tests/MockUSDT.sol:MockUSDT","label":"totalSupply","offset":0,"slot":"2","type":"t_uint256"},{"astId":46717,"contract":"tests/MockUSDT.sol:MockUSDT","label":"balanceOf","offset":0,"slot":"3","type":"t_mapping(t_address,t_uint256)"},{"astId":46723,"contract":"tests/MockUSDT.sol:MockUSDT","label":"allowance","offset":0,"slot":"4","type":"t_mapping(t_address,t_mapping(t_address,t_uint256))"},{"astId":46731,"contract":"tests/MockUSDT.sol:MockUSDT","label":"nonces","offset":0,"slot":"5","type":"t_mapping(t_address,t_uint256)"}],"types":{"t_address":{"encoding":"inplace","label":"address","numberOfBytes":"20"},"t_mapping(t_address,t_mapping(t_address,t_uint256))":{"encoding":"mapping","key":"t_address","label":"mapping(address => mapping(address => uint256))","numberOfBytes":"32","value":"t_mapping(t_address,t_uint256)"},"t_mapping(t_address,t_uint256)":{"encoding":"mapping","key":"t_address","label":"mapping(address => uint256)","numberOfBytes":"32","value":"t_uint256"},"t_string_storage":{"encoding":"bytes","label":"string","numberOfBytes":"32"},"t_uint256":{"encoding":"inplace","label":"uint256","numberOfBytes":"32"}}},"id":36}