{"abi":[{"type":"constructor","inputs":[],"stateMutability":"nonpayable"},{"type":"function","name":"DOMAIN_SEPARATOR","inputs":[],"outputs":[{"name":"","type":"bytes32","internalType":"bytes32"}],"stateMutability":"view"},{"type":"function","name":"allowance","inputs":[{"name":"","type":"address","internalType":"address"},{"name":"","type":"address","internalType":"address"}],"outputs":[{"name":"","type":"uint256","internalType":"uint256"}],"stateMutability":"view"},{"type":"function","name":"approve","inputs":[{"name":"spender","type":"address","internalType":"address"},{"name":"amount","type":"uint256","internalType":"uint256"}],"outputs":[{"name":"","type":"bool","internalType":"bool"}],"stateMutability":"nonpayable"},{"type":"function","name":"balanceOf","inputs":[{"name":"","type":"address","internalType":"address"}],"outputs":[{"name":"","type":"uint256","internalType":"uint256"}],"stateMutability":"view"},{"type":"function","name":"decimals","inputs":[],"outputs":[{"name":"","type":"uint8","internalType":"uint8"}],"stateMutability":"view"},{"type":"function","name":"mint","inputs":[{"name":"to","type":"address","internalType":"address"},{"name":"amount","type":"uint256","internalType":"uint256"}],"outputs":[],"stateMutability":"nonpayable"},{"type":"function","name":"name","inputs":[],"outputs":[{"name":"","type":"string","internalType":"string"}],"stateMutability":"view"},{"type":"function","name":"nonces","inputs":[{"name":"","type":"address","internalType":"address"}],"outputs":[{"name":"","type":"uint256","internalType":"uint256"}],"stateMutability":"view"},{"type":"function","name":"permit","inputs":[{"name":"owner","type":"address","internalType":"address"},{"name":"spender","type":"address","internalType":"address"},{"name":"value","type":"uint256","internalType":"uint256"},{"name":"deadline","type":"uint256","internalType":"uint256"},{"name":"v","type":"uint8","internalType":"uint8"},{"name":"r","type":"bytes32","internalType":"bytes32"},{"name":"s","type":"bytes32","internalType":"bytes32"}],"outputs":[],"stateMutability":"nonpayable"},{"type":"function","name":"symbol","inputs":[],"outputs":[{"name":"","type":"string","internalType":"string"}],"stateMutability":"view"},{"type":"function","name":"totalSupply","inputs":[],"outputs":[{"name":"","type":"uint256","internalType":"uint256"}],"stateMutability":"view"},{"type":"function","name":"transfer","inputs":[{"name":"to","type":"address","internalType":"address"},{"name":"amount","type":"uint256","internalType":"uint256"}],"outputs":[{"name":"","type":"bool","internalType":"bool"}],"stateMutability":"nonpayable"},{"type":"function","name":"transferFrom","inputs":[{"name":"from","type":"address","internalType":"address"},{"name":"to","type":"address","internalType":"address"},{"name":"amount","type":"uint256","internalType":"uint256"}],"outputs":[{"name":"","type":"bool","internalType":"bool"}],"stateMutability":"nonpayable"},{"type":"event","name":"Approval","inputs":[{"name":"owner","type":"address","indexed":true,"internalType":"address"},{"name":"spender","type":"address","indexed":true,"internalType":"address"},{"name":"amount","type":"uint256","indexed":false,"internalType":"uint256"}],"anonymous":false},{"type":"event","name":"Transfer","inputs":[{"name":"from","type":"address","indexed":true,"internalType":"address"},{"name":"to","type":"address","indexed":true,"internalType":"address"},{"name":"amount","type":"uint256","indexed":false,"internalType":"uint256"}],"anonymous":false}],"bytecode":{"object":"0x60e0604052346103da576040516100176040826103de565b600a81526915195d1a195c881554d160b21b602082015260405161003c6040826103de565b60048152631554d11560e21b602082015281516001600160401b03811161030d576100675f54610401565b601f811161038b575b50602092601f821160011461032c57928192935f92610321575b50508160011b915f199060031b1c1916175f555b80516001600160401b03811161030d576100b9600154610401565b601f81116102aa575b50602091601f821160011461024a579181925f9261023f575b50508160011b915f199060031b1c1916176001555b60066080524660a0526040515f905f54918161010b84610401565b9182825260208201946001811690815f1461022357506001146101d9575b610135925003826103de565b51902060405160208101917f8b73c3c69bb8fe3d512ecc4cf759cc79239f7b179b0ffacaa9a75d522b39400f835260408201527fc89efdaa54c0f20c7adf612882df0950f5a951637e0307cdcb4c672f298b8bc660608201524660808201523060a082015260a081526101a960c0826103de565b51902060c052604051610a5e908161043a82396080518161059e015260a051816108b1015260c051816108d70152f35b505f80805290915f516020610e985f395f51905f525b81831061020757505090602061013592820101610129565b60209193508060019154838588010152019101909183926101ef565b60ff191686525061013592151560051b82016020019050610129565b015190505f806100db565b601f1982169260015f52805f20915f5b8581106102925750836001951061027a575b505050811b016001556100f0565b01515f1960f88460031b161c191690555f808061026c565b9192602060018192868501518155019401920161025a565b60015f527fb10e2d527612073b26eecdfd717e6a320cf44b4afac2b0732d9fcbe2b7fa0cf6601f830160051c81019160208410610303575b601f0160051c01905b8181106102f857506100c2565b5f81556001016102eb565b90915081906102e2565b634e487b7160e01b5f52604160045260245ffd5b015190505f8061008a565b601f198216935f8052805f20915f5b868110610373575083600195961061035b575b505050811b015f5561009e565b01515f1960f88460031b161c191690555f808061034e565b9192602060018192868501518155019401920161033b565b5f80525f516020610e985f395f51905f52601f830160051c810191602084106103d0575b601f0160051c01905b8181106103c55750610070565b5f81556001016103b8565b90915081906103af565b5f80fd5b601f909101601f19168101906001600160401b0382119082101761030d57604052565b90600182811c9216801561042f575b602083101461041b57565b634e487b7160e01b5f52602260045260245ffd5b91607f169161041056fe60806040526004361015610011575f80fd5b5f3560e01c806306fdde031461073b578063095ea7b3146106c257806318160ddd146106a557806323b872dd146105c2578063313ce567146105855780633644e5151461056357806340c10f19146104d857806370a08231146104a05780637ecebe001461046857806395d89b411461038e578063a9059cbb14610306578063d505accf146100fc5763dd62ed3e146100a8575f80fd5b346100f85760403660031901126100f8576100c1610875565b6100c961088b565b6001600160a01b039182165f908152600460209081526040808320949093168252928352819020549051908152f35b5f80fd5b346100f85760e03660031901126100f857610115610875565b61011d61088b565b6044356064359260843560ff81168091036100f8574285106102c15760805f916020936101486108ae565b9060018060a01b03169687855260058652604085209889549960018b01905560405190878201927f6e71edae12b1b97f4d1f60370fef10105fa2faae0126114a169c64845d6126c984528a604084015260018060a01b03169a8b6060840152898784015260a083015260c082015260c081526101c560e082610815565b519020604051908682019261190160f01b845260228301526042820152604281526101f1606282610815565b519020906040519182528482015260a435604082015260c435606082015282805260015afa156102b6575f516001600160a01b0316801515806102ad575b15610277577f8c5be1e5ebec7d5bd14f71427d1e84f3dd0314c0f7b2291e5b200ac8c7c3b925916020915f526004825260405f20855f5282528060405f2055604051908152a3005b60405162461bcd60e51b815260206004820152600e60248201526d24a72b20a624a22fa9a4a3a722a960911b6044820152606490fd5b5082811461022f565b6040513d5f823e3d90fd5b60405162461bcd60e51b815260206004820152601760248201527f5045524d49545f444541444c494e455f455850495245440000000000000000006044820152606490fd5b346100f85760403660031901126100f85761031f610875565b60243590335f52600360205260405f2061033a8382546108a1565b905560018060a01b031690815f52600360205260405f208181540190556040519081527fddf252ad1be2c89b69c2b068fc378daa952ba7f163c4a11628f55a4df523b3ef60203392a3602060405160018152f35b346100f8575f3660031901126100f8576040515f6001546103ae816107dd565b808452906001811690811561044457506001146103e6575b6103e2836103d681850382610815565b6040519182918261084b565b0390f35b60015f9081527fb10e2d527612073b26eecdfd717e6a320cf44b4afac2b0732d9fcbe2b7fa0cf6939250905b80821061042a575090915081016020016103d66103c6565b919260018160209254838588010152019101909291610412565b60ff191660208086019190915291151560051b840190910191506103d690506103c6565b346100f85760203660031901126100f8576001600160a01b03610489610875565b165f526005602052602060405f2054604051908152f35b346100f85760203660031901126100f8576001600160a01b036104c1610875565b165f526003602052602060405f2054604051908152f35b346100f85760403660031901126100f8576104f1610875565b602435906002549082820180921161054f5760207fddf252ad1be2c89b69c2b068fc378daa952ba7f163c4a11628f55a4df523b3ef915f9360025560018060a01b0316938484526003825260408420818154019055604051908152a3005b634e487b7160e01b5f52601160045260245ffd5b346100f8575f3660031901126100f857602061057d6108ae565b604051908152f35b346100f8575f3660031901126100f857602060405160ff7f0000000000000000000000000000000000000000000000000000000000000000168152f35b346100f85760603660031901126100f8576105db610875565b6105e361088b565b6001600160a01b039091165f818152600460209081526040808320338452825290912054604435937fddf252ad1be2c89b69c2b068fc378daa952ba7f163c4a11628f55a4df523b3ef92918560018201610680575b5050835f526003825260405f206106508682546108a1565b90556001600160a01b03165f818152600383526040908190208054870190555194855293a3602060405160018152f35b610689916108a1565b5f85815260048452604080822033835285529020558585610638565b346100f8575f3660031901126100f8576020600254604051908152f35b346100f85760403660031901126100f8576106db610875565b335f8181526004602090815260408083206001600160a01b03909516808452948252918290206024359081905591519182527f8c5be1e5ebec7d5bd14f71427d1e84f3dd0314c0f7b2291e5b200ac8c7c3b92591a3602060405160018152f35b346100f8575f3660031901126100f8576040515f5f5461075a816107dd565b80845290600181169081156104445750600114610781576103e2836103d681850382610815565b5f8080527f290decd9548b62a8d60345a988386fc84ba6bc95484008f6362f93160ef3e563939250905b8082106107c3575090915081016020016103d66103c6565b9192600181602092548385880101520191019092916107ab565b90600182811c9216801561080b575b60208310146107f757565b634e487b7160e01b5f52602260045260245ffd5b91607f16916107ec565b90601f8019910116810190811067ffffffffffffffff82111761083757604052565b634e487b7160e01b5f52604160045260245ffd5b602060409281835280519182918282860152018484015e5f828201840152601f01601f1916010190565b600435906001600160a01b03821682036100f857565b602435906001600160a01b03821682036100f857565b9190820391821161054f57565b467f0000000000000000000000000000000000000000000000000000000000000000036108f9577f000000000000000000000000000000000000000000000000000000000000000090565b6040515f905f54918161090b846107dd565b9182825260208201946001811690815f14610a0c57506001146109af575b61093592500382610815565b51902060405160208101917f8b73c3c69bb8fe3d512ecc4cf759cc79239f7b179b0ffacaa9a75d522b39400f835260408201527fc89efdaa54c0f20c7adf612882df0950f5a951637e0307cdcb4c672f298b8bc660608201524660808201523060a082015260a081526109a960c082610815565b51902090565b505f80805290917f290decd9548b62a8d60345a988386fc84ba6bc95484008f6362f93160ef3e5635b8183106109f057505090602061093592820101610929565b60209193508060019154838588010152019101909183926109d8565b60ff191686525061093592151560051b8201602001905061092956fea264697066735822122017245b8f5529010e2ce21bb4241802900195267dccb5e7c7c4df910cdbb1da0264736f6c634300081b0033290decd9548b62a8d60345a988386fc84ba6bc95484008f6362f93160ef3e563","linkReferences":{}},"methodIdentifiers":{"DOMAIN_SEPARATOR()":"3644e515","allowance(address,address)":"dd62ed3e","approve(address,uint256)":"095ea7b3","balanceOf(address)":"70a08231","decimals()":"313ce567","mint(address,uint256)":"40c10f19","name()":"06fdde03","nonces(address)":"7ecebe00","permit(address,address,uint256,uint256,uint8,bytes32,bytes32)":"d505accf","symbol()":"95d89b41","totalSupply()":"18160ddd","transfer(address,uint256)":"a9059cbb","transferFrom(address,address,uint256)":"23b872dd"},"storageLayout":{"storage":[{"astId":56400,"contract":"tests/MockUSDT.sol:MockUSDT","label":"name","offset":0,"slot":"0","type":"t_string_storage"},{"astId":56402,"contract":"tests/MockUSDT.sol:MockUSDT","label":"symbol","offset":0,"slot":"1","type":"t_string_storage"},{"astId":56406,"contract":"tests/MockUSDT.sol:MockUSDT","label":"totalSupply","offset":0,"slot":"2","type":"t_uint256"},{"astId":56410,"contract":"tests/MockUSDT.sol:MockUSDT","label":"balanceOf","offset":0,"slot":"3","type":"t_mapping(t_address,t_uint256)"},{"astId":56416,"contract":"tests/MockUSDT.sol:MockUSDT","label":"allowance","offset":0,"slot":"4","type":"t_mapping(t_address,t_mapping(t_address,t_uint256))"},{"astId":56424,"contract":"tests/MockUSDT.sol:MockUSDT","label":"nonces","offset":0,"slot":"5","type":"t_mapping(t_address,t_uint256)"}],"types":{"t_address":{"encoding":"inplace","label":"address","numberOfBytes":"20"},"t_mapping(t_address,t_mapping(t_address,t_uint256))":{"encoding":"mapping","key":"t_address","label":"mapping(address => mapping(address => uint256))","numberOfBytes":"32","value":"t_mapping(t_address,t_uint256)"},"t_mapping(t_address,t_uint256)":{"encoding":"mapping","key":"t_address","label":"mapping(address => uint256)","numberOfBytes":"32","value":"t_uint256"},"t_string_storage":{"encoding":"bytes","label":"string","numberOfBytes":"32"},"t_uint256":{"encoding":"inplace","label":"uint256","numberOfBytes":"32"}}},"id":69}