{"abi":[{"type":"constructor","inputs":[{"name":"initialCheckpointHeight","type":"uint256","internalType":"uint256"},{"name":"initialBlockHash","type":"bytes32","internalType":"bytes32"},{"name":"initialRetargetBlockHash","type":"bytes32","internalType":"bytes32"},{"name":"initialChainwork","type":"uint256","internalType":"uint256"},{"name":"verifierContractAddress","type":"address","internalType":"address"},{"name":"depositTokenAddress","type":"address","internalType":"address"},{"name":"_proverReward","type":"uint256","internalType":"uint256"},{"name":"_releaserReward","type":"uint256","internalType":"uint256"},{"name":"_protocolAddress","type":"address","internalType":"address payable"},{"name":"_owner","type":"address","internalType":"address"},{"name":"_circuitVerificationKey","type":"bytes32","internalType":"bytes32"},{"name":"minimumConfirmationDelta","type":"uint8","internalType":"uint8"}],"stateMutability":"nonpayable"},{"type":"function","name":"CHALLENGE_PERIOD","inputs":[],"outputs":[{"name":"","type":"uint32","internalType":"uint32"}],"stateMutability":"view"},{"type":"function","name":"DEPOSIT_TOKEN","inputs":[],"outputs":[{"name":"","type":"address","internalType":"contract IERC20"}],"stateMutability":"view"},{"type":"function","name":"MAX_DEPOSIT_OUTPUTS","inputs":[],"outputs":[{"name":"","type":"uint16","internalType":"uint16"}],"stateMutability":"view"},{"type":"function","name":"MIN_ORDER_GAS_MULTIPLIER","inputs":[],"outputs":[{"name":"","type":"uint256","internalType":"uint256"}],"stateMutability":"view"},{"type":"function","name":"PROOF_GAS_COST","inputs":[],"outputs":[{"name":"","type":"uint256","internalType":"uint256"}],"stateMutability":"view"},{"type":"function","name":"RELEASE_GAS_COST","inputs":[],"outputs":[{"name":"","type":"uint256","internalType":"uint256"}],"stateMutability":"view"},{"type":"function","name":"RESERVATION_LOCKUP_PERIOD","inputs":[],"outputs":[{"name":"","type":"uint32","internalType":"uint32"}],"stateMutability":"view"},{"type":"function","name":"SAMPLING_SIZE","inputs":[],"outputs":[{"name":"","type":"uint8","internalType":"uint8"}],"stateMutability":"view"},{"type":"function","name":"TOKEN_DECIMALS","inputs":[],"outputs":[{"name":"","type":"uint8","internalType":"uint8"}],"stateMutability":"view"},{"type":"function","name":"buildProofPublicInputs","inputs":[{"name":"inputs","type":"tuple","internalType":"struct RiftExchange.ProofPublicInputs","components":[{"name":"natural_txid","type":"bytes32","internalType":"bytes32"},{"name":"merkle_root","type":"bytes32","internalType":"bytes32"},{"name":"lp_reservation_hash","type":"bytes32","internalType":"bytes32"},{"name":"order_nonce","type":"bytes32","internalType":"bytes32"},{"name":"lp_count","type":"uint64","internalType":"uint64"},{"name":"retarget_block_hash","type":"bytes32","internalType":"bytes32"},{"name":"safe_block_height","type":"uint64","internalType":"uint64"},{"name":"safe_block_height_delta","type":"uint64","internalType":"uint64"},{"name":"confirmation_block_height_delta","type":"uint64","internalType":"uint64"},{"name":"block_hashes","type":"bytes32[]","internalType":"bytes32[]"},{"name":"block_chainworks","type":"uint256[]","internalType":"uint256[]"}]}],"outputs":[{"name":"","type":"bytes","internalType":"bytes"}],"stateMutability":"pure"},{"type":"function","name":"calculateRetargetHeight","inputs":[{"name":"blockHeight","type":"uint256","internalType":"uint256"}],"outputs":[{"name":"","type":"uint256","internalType":"uint256"}],"stateMutability":"pure"},{"type":"function","name":"circuitVerificationKey","inputs":[],"outputs":[{"name":"","type":"bytes32","internalType":"bytes32"}],"stateMutability":"view"},{"type":"function","name":"currentConfirmationHeight","inputs":[],"outputs":[{"name":"","type":"uint256","internalType":"uint256"}],"stateMutability":"view"},{"type":"function","name":"currentHeight","inputs":[],"outputs":[{"name":"","type":"uint256","internalType":"uint256"}],"stateMutability":"view"},{"type":"function","name":"depositLiquidity","inputs":[{"name":"depositAmount","type":"uint256","internalType":"uint256"},{"name":"exchangeRate","type":"uint64","internalType":"uint64"},{"name":"btcPayoutLockingScript","type":"bytes22","internalType":"bytes22"},{"name":"vaultIndexToOverwrite","type":"int256","internalType":"int256"},{"name":"vaultIndexWithSameExchangeRate","type":"int256","internalType":"int256"}],"outputs":[],"stateMutability":"nonpayable"},{"type":"function","name":"depositVaults","inputs":[{"name":"","type":"uint256","internalType":"uint256"}],"outputs":[{"name":"owner","type":"address","internalType":"address"},{"name":"initialBalance","type":"uint256","internalType":"uint256"},{"name":"unreservedBalance","type":"uint256","internalType":"uint256"},{"name":"withdrawnAmount","type":"uint256","internalType":"uint256"},{"name":"exchangeRate","type":"uint64","internalType":"uint64"},{"name":"btcPayoutLockingScript","type":"bytes22","internalType":"bytes22"}],"stateMutability":"view"},{"type":"function","name":"emptyDepositVault","inputs":[{"name":"vaultIndex","type":"uint256","internalType":"uint256"}],"outputs":[],"stateMutability":"nonpayable"},{"type":"function","name":"getAreDepositsPaused","inputs":[],"outputs":[{"name":"","type":"bool","internalType":"bool"}],"stateMutability":"view"},{"type":"function","name":"getBlockHash","inputs":[{"name":"blockHeight","type":"uint256","internalType":"uint256"}],"outputs":[{"name":"","type":"bytes32","internalType":"bytes32"}],"stateMutability":"view"},{"type":"function","name":"getChainwork","inputs":[{"name":"blockHeight","type":"uint256","internalType":"uint256"}],"outputs":[{"name":"","type":"uint256","internalType":"uint256"}],"stateMutability":"view"},{"type":"function","name":"getDepositVault","inputs":[{"name":"depositIndex","type":"uint256","internalType":"uint256"}],"outputs":[{"name":"","type":"tuple","internalType":"struct RiftExchange.DepositVault","components":[{"name":"owner","type":"address","internalType":"address"},{"name":"initialBalance","type":"uint256","internalType":"uint256"},{"name":"unreservedBalance","type":"uint256","internalType":"uint256"},{"name":"withdrawnAmount","type":"uint256","internalType":"uint256"},{"name":"exchangeRate","type":"uint64","internalType":"uint64"},{"name":"btcPayoutLockingScript","type":"bytes22","internalType":"bytes22"}]}],"stateMutability":"view"},{"type":"function","name":"getDepositVaultUnreservedBalance","inputs":[{"name":"depositIndex","type":"uint256","internalType":"uint256"}],"outputs":[{"name":"","type":"uint256","internalType":"uint256"}],"stateMutability":"view"},{"type":"function","name":"getDepositVaultsLength","inputs":[],"outputs":[{"name":"","type":"uint256","internalType":"uint256"}],"stateMutability":"view"},{"type":"function","name":"getLiquidityProvider","inputs":[{"name":"lpAddress","type":"address","internalType":"address"}],"outputs":[{"name":"","type":"tuple","internalType":"struct RiftExchange.LiquidityProvider","components":[{"name":"depositVaultIndexes","type":"uint256[]","internalType":"uint256[]"}]}],"stateMutability":"view"},{"type":"function","name":"getReservation","inputs":[{"name":"reservationIndex","type":"uint256","internalType":"uint256"}],"outputs":[{"name":"","type":"tuple","internalType":"struct RiftExchange.SwapReservation","components":[{"name":"owner","type":"address","internalType":"address"},{"name":"confirmationBlockHeight","type":"uint32","internalType":"uint32"},{"name":"reservationTimestamp","type":"uint32","internalType":"uint32"},{"name":"unlockTimestamp","type":"uint32","internalType":"uint32"},{"name":"state","type":"uint8","internalType":"enum RiftExchange.ReservationState"},{"name":"ethPayoutAddress","type":"address","internalType":"address"},{"name":"lpReservationHash","type":"bytes32","internalType":"bytes32"},{"name":"nonce","type":"bytes32","internalType":"bytes32"},{"name":"totalSatsInputInlcudingProxyFee","type":"uint256","internalType":"uint256"},{"name":"totalSwapOutputAmount","type":"uint256","internalType":"uint256"},{"name":"proposedBlockHeight","type":"uint256","internalType":"uint256"},{"name":"proposedBlockHash","type":"bytes32","internalType":"bytes32"},{"name":"vaultIndexes","type":"uint256[]","internalType":"uint256[]"},{"name":"amountsToReserve","type":"uint192[]","internalType":"uint192[]"},{"name":"expectedSatsOutput","type":"uint64[]","internalType":"uint64[]"}]}],"stateMutability":"view"},{"type":"function","name":"getReservationLength","inputs":[],"outputs":[{"name":"","type":"uint256","internalType":"uint256"}],"stateMutability":"view"},{"type":"function","name":"isDepositNewLiquidityPaused","inputs":[],"outputs":[{"name":"","type":"bool","internalType":"bool"}],"stateMutability":"view"},{"type":"function","name":"owner","inputs":[],"outputs":[{"name":"","type":"address","internalType":"address"}],"stateMutability":"view"},{"type":"function","name":"pauseDepositNewLiquidity","inputs":[],"outputs":[],"stateMutability":"nonpayable"},{"type":"function","name":"proposeTransactionProof","inputs":[{"name":"swapReservationIndex","type":"uint256","internalType":"uint256"},{"name":"bitcoinTxId","type":"bytes32","internalType":"bytes32"},{"name":"merkleRoot","type":"bytes32","internalType":"bytes32"},{"name":"safeBlockHeight","type":"uint32","internalType":"uint32"},{"name":"proposedBlockHeight","type":"uint64","internalType":"uint64"},{"name":"confirmationBlockHeight","type":"uint64","internalType":"uint64"},{"name":"blockHashes","type":"bytes32[]","internalType":"bytes32[]"},{"name":"blockChainworks","type":"uint256[]","internalType":"uint256[]"},{"name":"proof","type":"bytes","internalType":"bytes"}],"outputs":[],"stateMutability":"nonpayable"},{"type":"function","name":"protocolFeeBP","inputs":[],"outputs":[{"name":"","type":"uint8","internalType":"uint8"}],"stateMutability":"view"},{"type":"function","name":"proverReward","inputs":[],"outputs":[{"name":"","type":"uint256","internalType":"uint256"}],"stateMutability":"view"},{"type":"function","name":"refundAllLPs","inputs":[{"name":"depositVaultStartIndex","type":"uint256","internalType":"uint256"},{"name":"depositVaultEndIndex","type":"uint256","internalType":"uint256"},{"name":"expiredReservationIndexes","type":"uint256[]","internalType":"uint256[]"}],"outputs":[],"stateMutability":"nonpayable"},{"type":"function","name":"releaseLiquidity","inputs":[{"name":"swapReservationIndex","type":"uint256","internalType":"uint256"}],"outputs":[],"stateMutability":"nonpayable"},{"type":"function","name":"releaserReward","inputs":[],"outputs":[{"name":"","type":"uint256","internalType":"uint256"}],"stateMutability":"view"},{"type":"function","name":"reserveLiquidity","inputs":[{"name":"sender","type":"address","internalType":"address"},{"name":"vaultIndexesToReserve","type":"uint256[]","internalType":"uint256[]"},{"name":"amountsToReserve","type":"uint192[]","internalType":"uint192[]"},{"name":"ethPayoutAddress","type":"address","internalType":"address"},{"name":"totalSatsInputInlcudingProxyFee","type":"uint256","internalType":"uint256"},{"name":"expiredSwapReservationIndexes","type":"uint256[]","internalType":"uint256[]"}],"outputs":[],"stateMutability":"nonpayable"},{"type":"function","name":"setSwapReservationState","inputs":[{"name":"swapReservationIndex","type":"uint256","internalType":"uint256"},{"name":"state","type":"uint8","internalType":"enum RiftExchange.ReservationState"}],"outputs":[],"stateMutability":"nonpayable"},{"type":"function","name":"swapReservations","inputs":[{"name":"","type":"uint256","internalType":"uint256"}],"outputs":[{"name":"owner","type":"address","internalType":"address"},{"name":"confirmationBlockHeight","type":"uint32","internalType":"uint32"},{"name":"reservationTimestamp","type":"uint32","internalType":"uint32"},{"name":"unlockTimestamp","type":"uint32","internalType":"uint32"},{"name":"state","type":"uint8","internalType":"enum RiftExchange.ReservationState"},{"name":"ethPayoutAddress","type":"address","internalType":"address"},{"name":"lpReservationHash","type":"bytes32","internalType":"bytes32"},{"name":"nonce","type":"bytes32","internalType":"bytes32"},{"name":"totalSatsInputInlcudingProxyFee","type":"uint256","internalType":"uint256"},{"name":"totalSwapOutputAmount","type":"uint256","internalType":"uint256"},{"name":"proposedBlockHeight","type":"uint256","internalType":"uint256"},{"name":"proposedBlockHash","type":"bytes32","internalType":"bytes32"}],"stateMutability":"view"},{"type":"function","name":"transferOwnership","inputs":[{"name":"newOwner","type":"address","internalType":"address"}],"outputs":[],"stateMutability":"nonpayable"},{"type":"function","name":"unpauseDepositNewLiquidity","inputs":[],"outputs":[],"stateMutability":"nonpayable"},{"type":"function","name":"updateExchangeRate","inputs":[{"name":"globalVaultIndex","type":"uint256","internalType":"uint256"},{"name":"localVaultIndex","type":"uint256","internalType":"uint256"},{"name":"newexchangeRate","type":"uint64","internalType":"uint64"},{"name":"expiredReservationIndexes","type":"uint256[]","internalType":"uint256[]"}],"outputs":[],"stateMutability":"nonpayable"},{"type":"function","name":"updateProtocolAddress","inputs":[{"name":"newProtocolAddress","type":"address","internalType":"address payable"}],"outputs":[],"stateMutability":"nonpayable"},{"type":"function","name":"updateProtocolFee","inputs":[{"name":"newProtocolFeeBP","type":"uint8","internalType":"uint8"}],"outputs":[],"stateMutability":"nonpayable"},{"type":"function","name":"updateRewards","inputs":[{"name":"newProverReward","type":"uint256","internalType":"uint256"},{"name":"newReleaserReward","type":"uint256","internalType":"uint256"}],"outputs":[],"stateMutability":"nonpayable"},{"type":"function","name":"validateBlockExists","inputs":[{"name":"blockHeight","type":"uint256","internalType":"uint256"}],"outputs":[],"stateMutability":"view"},{"type":"function","name":"verifierContract","inputs":[],"outputs":[{"name":"","type":"address","internalType":"contract ISP1Verifier"}],"stateMutability":"view"},{"type":"function","name":"withdrawLiquidity","inputs":[{"name":"globalVaultIndex","type":"uint256","internalType":"uint256"},{"name":"localVaultIndex","type":"uint256","internalType":"uint256"},{"name":"amountToWithdraw","type":"uint192","internalType":"uint192"},{"name":"expiredReservationIndexes","type":"uint256[]","internalType":"uint256[]"}],"outputs":[],"stateMutability":"nonpayable"},{"type":"event","name":"BlocksAdded","inputs":[{"name":"startBlockHeight","type":"uint256","indexed":false,"internalType":"uint256"},{"name":"count","type":"uint256","indexed":false,"internalType":"uint256"}],"anonymous":false},{"type":"event","name":"LiquidityReserved","inputs":[{"name":"reserver","type":"address","indexed":true,"internalType":"address"},{"name":"swapReservationIndex","type":"uint256","indexed":false,"internalType":"uint256"},{"name":"orderNonce","type":"bytes32","indexed":false,"internalType":"bytes32"}],"anonymous":false},{"type":"event","name":"OwnershipTransferred","inputs":[{"name":"user","type":"address","indexed":true,"internalType":"address"},{"name":"newOwner","type":"address","indexed":true,"internalType":"address"}],"anonymous":false},{"type":"event","name":"ProofProposed","inputs":[{"name":"prover","type":"address","indexed":true,"internalType":"address"},{"name":"swapReservationIndex","type":"uint256","indexed":false,"internalType":"uint256"},{"name":"orderNonce","type":"bytes32","indexed":false,"internalType":"bytes32"}],"anonymous":false},{"type":"event","name":"SwapComplete","inputs":[{"name":"swapReservationIndex","type":"uint256","indexed":false,"internalType":"uint256"},{"name":"orderNonce","type":"bytes32","indexed":false,"internalType":"bytes32"}],"anonymous":false},{"type":"error","name":"BlockDoesNotExist","inputs":[]},{"type":"error","name":"InvaidSameExchangeRatevaultIndex","inputs":[]},{"type":"error","name":"InvalidConfirmationBlock","inputs":[]},{"type":"error","name":"InvalidProposedBlockOverwrite","inputs":[]},{"type":"error","name":"InvalidSafeBlock","inputs":[]},{"type":"error","name":"InvalidUpdateWithActiveReservations","inputs":[]},{"type":"error","name":"InvalidVaultIndex","inputs":[]},{"type":"error","name":"InvalidVaultUpdate","inputs":[]},{"type":"error","name":"NotEnoughLiquidity","inputs":[]},{"type":"error","name":"NotVaultOwner","inputs":[]},{"type":"error","name":"OverwrittenProposedBlock","inputs":[]},{"type":"error","name":"ReservationNotExpired","inputs":[]},{"type":"error","name":"ReservationNotUnlocked","inputs":[]},{"type":"error","name":"StillInChallengePeriod","inputs":[]},{"type":"error","name":"WithdrawalAmountError","inputs":[]},{"type":"error","name":"exchangeRateZero","inputs":[]}],"bytecode":{"object":"0x61012060405260048054600560a91b61ffff60a01b19909116179055600a80546001600160a01b03191673f39fd6e51aad88f6f4ce6ab8827279cfffb922661790553480156200004d575f80fd5b5060405162003e7938038062003e79833981016040819052620000709162000220565b60028c90555f8c81526001602090815260408083208c90559082905281208c905583908d908b908e908e908690829080620000ab88620001d1565b8152602081019190915260409081015f9081209290925560ff909216608052600480546001600160a01b0389166001600160a01b03199091168117909155915191955093507f8be0079c531659141344cd1fd0a4f28419497f9722a3daafe3b4186f6b6457e09250839150a3506101008290526001600160a01b0380891660e052871660a08190526040805163313ce56760e01b8152905163313ce567916004808201926020929091908290030181865afa1580156200016d573d5f803e3d5ffd5b505050506040513d601f19601f82011682018060405250810190620001939190620002dc565b60ff1660c052505050600592909255600655600a80546001600160a01b0319166001600160a01b03909216919091179055506200033f945050505050565b5f620001e06107e083620002ff565b620001ec90836200031f565b92915050565b6001600160a01b038116811462000207575f80fd5b50565b805160ff811681146200021b575f80fd5b919050565b5f805f805f805f805f805f806101808d8f0312156200023d575f80fd5b8c519b5060208d01519a5060408d0151995060608d0151985060808d01516200026681620001f2565b60a08e01519098506200027981620001f2565b8097505060c08d0151955060e08d015194506101008d01516200029c81620001f2565b6101208e0151909450620002b081620001f2565b6101408e01519093509150620002ca6101608e016200020a565b90509295989b509295989b509295989b565b5f60208284031215620002ed575f80fd5b620002f8826200020a565b9392505050565b5f826200031a57634e487b7160e01b5f52601260045260245ffd5b500690565b81810381811115620001ec57634e487b7160e01b5f52601160045260245ffd5b60805160a05160c05160e05161010051613aaf620003ca5f395f8181610383015261242801525f818161067601526123fb01525f81816103fe01528181611b55015261228e01525f81816102b201528181610d5c0152818161111b0152818161127b0152818161131e0152818161140901528181611735015261255c01525f6128920152613aaf5ff3fe608060405234801561000f575f80fd5b506004361061028c575f3560e01c80638da5cb5b11610161578063c5fba0b8116100ca578063eb6c752211610084578063eb6c7522146106d3578063ed8b2b32146106dd578063edd67b72146106f0578063ee82ac5e14610703578063f2fde38b14610722578063fba7816614610735575f80fd5b8063c5fba0b81461063e578063cda7d82c14610652578063cf69568814610671578063d57763c314610698578063d8418403146106b8578063ea6fe03e146106cb575f80fd5b80639cdb8e5a1161011b5780639cdb8e5a146105da578063ad062e55146105f5578063aeacb2e7146105fd578063b01c27d114610610578063b9b2a98214610622578063c3a079ed14610635575f80fd5b80638da5cb5b146105615780638f1546b41461057457806397e508181461059457806398f9e757146105a75780639a64279c146105c75780639cc7eab9146105d1575f80fd5b80635b7f415c1161020357806370c60e8f116101bd57806370c60e8f146104de57806377891907146104f15780637b93291f146105045780637dce55501461051757806389a11f7a1461051f5780638cc63cdd1461053d575f80fd5b80635b7f415c146103f95780635f4d0610146104325780635f5d5b6a1461048f5780636512d057146104975780636b994abb146104aa5780636dcc17c8146104d5575f80fd5b80633d7b22b3116102545780633d7b22b31461037e5780634491ba54146103a5578063490d4c5f146103ad57806351a7f1cd146103c057806356fe6f86146103d357806358e2b676146103e6575f80fd5b80630a7aa29314610290578063130d1392146102a557806313f66587146102ad578063163de0c5146102f1578063276d080e14610308575b5f80fd5b6102a361029e366004612d79565b61073e565b005b6102a3610791565b6102d47f000000000000000000000000000000000000000000000000000000000000000081565b6040516001600160a01b0390911681526020015b60405180910390f35b6102fa60025481565b6040519081526020016102e8565b61031b610316366004612d99565b610824565b6040516102e8919081516001600160a01b031681526020808301519082015260408083015190820152606080830151908201526080808301516001600160401b03169082015260a0918201516001600160501b0319169181019190915260c00190565b6102fa7f000000000000000000000000000000000000000000000000000000000000000081565b6102a36108e5565b6102a36103bb366004612d99565b610977565b6102a36103ce366004612dcb565b6109be565b6102a36103e1366004612f1e565b610dd7565b6102a36103f4366004612f8e565b610ec5565b6104207f000000000000000000000000000000000000000000000000000000000000000081565b60405160ff90911681526020016102e8565b610445610440366004612d99565b610f11565b604080516001600160a01b03909716875260208701959095529385019290925260608401526001600160401b031660808301526001600160501b03191660a082015260c0016102e8565b6102fa600281565b6102fa6104a5366004612d99565b610f6f565b6104bd6104b8366004612d99565b610f9a565b6040516102e89c9b9a99989796959493929190612fdd565b6102fa60055481565b6102a36104ec366004613057565b611027565b6102a36104ff366004612d99565b611199565b6102a36105123660046130a2565b6114cb565b6009546102fa565b61052861708081565b60405163ffffffff90911681526020016102e8565b60045461055190600160a01b900460ff1681565b60405190151581526020016102e8565b6004546102d4906001600160a01b031681565b6105876105823660046130d3565b611517565b6040516102e89190613228565b6102a36105a236600461323a565b611540565b6105ba6105b5366004612f8e565b611575565b6040516102e8919061329f565b6102fa6203345081565b6102fa60065481565b6105e2603281565b60405161ffff90911681526020016102e8565b610420600a81565b6102a361060b3660046132d7565b6115f5565b600454600160a01b900460ff16610551565b6102fa610630366004612d99565b61176c565b61052861025881565b60045461042090600160a81b900460ff1681565b6102fa610660366004612d99565b5f9081526001602052604090205490565b6102d47f000000000000000000000000000000000000000000000000000000000000000081565b6106ab6106a6366004612d99565b611789565b6040516102e89190613371565b6102a36106c63660046134a3565b611a5a565b6008546102fa565b6102fa620668a081565b6102a36106eb366004612d99565b612200565b6102a36106fe36600461362a565b61222e565b6102fa610711366004612d99565b5f9081526020819052604090205490565b6102a3610730366004612f8e565b61261f565b6102fa60035481565b6004546001600160a01b031633146107715760405162461bcd60e51b8152600401610768906136f8565b60405180910390fd5b6004805460ff909216600160a81b0260ff60a81b19909216919091179055565b6004546001600160a01b031633146107bb5760405162461bcd60e51b8152600401610768906136f8565b600454600160a01b900460ff161561080f5760405162461bcd60e51b81526020600482015260176024820152761b995dc819195c1bdcda5d1cc8185c99481c185d5cd959604a1b6044820152606401610768565b6004805460ff60a01b1916600160a01b179055565b6040805160c0810182525f80825260208201819052918101829052606081018290526080810182905260a0810191909152600982815481106108685761086861371e565b5f9182526020918290206040805160c081018252600590930290910180546001600160a01b03168352600181015493830193909352600283015490820152600382015460608201526004909101546001600160401b03811660808301526001600160501b0319600160401b90910460501b1660a082015292915050565b6004546001600160a01b0316331461090f5760405162461bcd60e51b8152600401610768906136f8565b600454600160a01b900460ff166109685760405162461bcd60e51b815260206004820152601b60248201527f6e6577206465706f7369747320617265206e6f742070617573656400000000006044820152606401610768565b6004805460ff60a01b19169055565b5f6009828154811061098b5761098b61371e565b5f918252602082206001600590920201908101829055600281019190915560040180546001600160f01b03191690555050565b600454600160a01b900460ff1615610a125760405162461bcd60e51b81526020600482015260176024820152761b995dc819195c1bdcda5d1cc8185c99481c185d5cd959604a1b6044820152606401610768565b836001600160401b03165f03610a3b57604051635c4ad48d60e11b815260040160405180910390fd5b335f908152600760205260408120549003610a8757604080515f602080830182815283850185528352338252600781529290208151805192939192610a839284920190612c1d565b5050505b805f1914610b0e575f8190505f60098281548110610aa757610aa761371e565b5f918252602090912060059091020160048101549091506001600160401b03878116911603610aee5786816002015f828254610ae39190613746565b90915550610b079050565b60405163927ce9e760e01b815260040160405180910390fd5b5050610d08565b815f1914610baf575f60098381548110610b2a57610b2a61371e565b905f5260205f209060050201905080600201545f14610b5c5760405163721e09df60e01b815260040160405180910390fd5b80546001600160a01b0319163317815560018101869055600281018690555f60038201556004018054605085901c600160401b026001600160f01b03199091166001600160401b03871617179055610d08565b6040805160c081018252338152602081018781529181018781525f606083018181526001600160401b03808a16608086019081526001600160501b03198a1660a08701908152600980546001810182559552955160059094027f6e1540171b6c0c960b71a7020d9f60077f6af931a8bbf590da0223dacf75c7af810180546001600160a01b03969096166001600160a01b03199096169590951790945595517f6e1540171b6c0c960b71a7020d9f60077f6af931a8bbf590da0223dacf75c7b084015592517f6e1540171b6c0c960b71a7020d9f60077f6af931a8bbf590da0223dacf75c7b1830155517f6e1540171b6c0c960b71a7020d9f60077f6af931a8bbf590da0223dacf75c7b282015592517f6e1540171b6c0c960b71a7020d9f60077f6af931a8bbf590da0223dacf75c7b39093018054925160501c600160401b026001600160f01b031990931693909116929092171790555b335f908152600760205260409020600954610d2590600190613759565b81546001810183555f9283526020909220909101556040516323b872dd60e01b8152336004820152306024820152604481018690527f00000000000000000000000000000000000000000000000000000000000000006001600160a01b0316906323b872dd906064015b6020604051808303815f875af1158015610dab573d5f803e3d5ffd5b505050506040513d601f19601f82011682018060405250810190610dcf919061376c565b505050505050565b335f908152600760205260409020805485919085908110610dfa57610dfa61371e565b905f5260205f20015414610e2157604051630e7fea9d60e01b815260040160405180910390fd5b816001600160401b03165f03610e4a57604051636e5a187760e11b815260040160405180910390fd5b5f60098581548110610e5e57610e5e61371e565b905f5260205f2090600502019050610e7582612694565b8060010154816002015414610e9d576040516391bc6cc360e01b815260040160405180910390fd5b600401805467ffffffffffffffff19166001600160401b039390931692909217909155505050565b6004546001600160a01b03163314610eef5760405162461bcd60e51b8152600401610768906136f8565b600a80546001600160a01b0319166001600160a01b0392909216919091179055565b60098181548110610f20575f80fd5b5f918252602090912060059091020180546001820154600283015460038401546004909401546001600160a01b039093169450909290916001600160401b03811690600160401b900460501b86565b5f60098281548110610f8357610f8361371e565b905f5260205f209060050201600201549050919050565b60088181548110610fa9575f80fd5b5f9182526020909120600b9091020180546001820154600283015460038401546004850154600586015460068701546007909701546001600160a01b03808816995063ffffffff600160a01b8904811699600160c01b8a04821699600160e01b90049091169760ff811697610100909104909216959194919391928c565b6004546001600160a01b031633146110515760405162461bcd60e51b8152600401610768906136f8565b60095483106110985760405162461bcd60e51b8152602060048201526013602482015272092dcecc2d8d2c840e6e8c2e4e840d2dcc8caf606b1b6044820152606401610768565b6110a181612694565b6009548211156110b15760095491505b825b82811015611193575f600982815481106110cf576110cf61371e565b905f5260205f20906005020190505f816002015490505f811115611189575f6002830155815460405163a9059cbb60e01b81526001600160a01b039182166004820152602481018390527f00000000000000000000000000000000000000000000000000000000000000009091169063a9059cbb906044016020604051808303815f875af1158015611163573d5f803e3d5ffd5b505050506040513d601f19601f82011682018060405250810190611187919061376c565b505b50506001016110b3565b50505050565b5f600882815481106111ad576111ad61371e565b5f9182526020909120600b9091020190506002600182015460ff1660048111156111d9576111d9612fa9565b146111f75760405163b38c767b60e01b815260040160405180910390fd5b8054600160e01b900463ffffffff1642101561122657604051632d5c37f560e21b815260040160405180910390fd5b600781015460068201545f908152602081905260409020540361125c5760405163c1f6fa5160e01b815260040160405180910390fd5b60065460405163a9059cbb60e01b8152336004820152602481018290527f00000000000000000000000000000000000000000000000000000000000000006001600160a01b03169063a9059cbb906044016020604051808303815f875af11580156112c9573d5f803e3d5ffd5b505050506040513d601f19601f820116820180604052508101906112ed919061376c565b5060045460058301545f916127109161131091600160a81b900460ff169061378b565b61131a91906137b6565b90507f00000000000000000000000000000000000000000000000000000000000000006001600160a01b031663a9059cbb8460010160019054906101000a90046001600160a01b03168386600501546113739190613759565b6040516001600160e01b031960e085901b1681526001600160a01b03909216600483015260248201526044016020604051808303815f875af11580156113bb573d5f803e3d5ffd5b505050506040513d601f19601f820116820180604052508101906113df919061376c565b50600a5460405163a9059cbb60e01b81526001600160a01b039182166004820152602481018390527f00000000000000000000000000000000000000000000000000000000000000009091169063a9059cbb906044016020604051808303815f875af1158015611451573d5f803e3d5ffd5b505050506040513d601f19601f82011682018060405250810190611475919061376c565b5060018301805460ff191660039081179091558301546040805186815260208101929092527f12245c00d428a4c558061d2f69fe154a203bd2fb4a65b6c3e73e95ccdc735d18910160405180910390a150505050565b80600883815481106114df576114df61371e565b905f5260205f2090600b02016001015f6101000a81548160ff0219169083600481111561150e5761150e612fa9565b02179055505050565b60608160405160200161152a91906137c9565b6040516020818303038152906040529050919050565b6004546001600160a01b0316331461156a5760405162461bcd60e51b8152600401610768906136f8565b600591909155600655565b6040805160208082018352606082526001600160a01b0384165f90815260078252839020835181548084028201860186529281018381529394909391928492918491908401828280156115e557602002820191905f5260205f20905b8154815260200190600101908083116115d1575b5050505050815250509050919050565b335f9081526007602052604090208054859190859081106116185761161861371e565b905f5260205f2001541461163f57604051630e7fea9d60e01b815260040160405180910390fd5b61164881612694565b600954841061166a5760405163721e09df60e01b815260040160405180910390fd5b5f6009858154811061167e5761167e61371e565b905f5260205f2090600502019050826001600160c01b03165f14806116af57508060020154836001600160c01b0316115b156116cd5760405163b4e3d41360e01b815260040160405180910390fd5b826001600160c01b0316816002015f8282546116e99190613759565b92505081905550826001600160c01b0316816003015f82825461170c9190613746565b909155505060405163a9059cbb60e01b81523360048201526001600160c01b03841660248201527f00000000000000000000000000000000000000000000000000000000000000006001600160a01b03169063a9059cbb90604401610d8f565b5f6117796107e0836138a7565b6117839083613759565b92915050565b604080516101e0810182525f8082526020820181905291810182905260608082018390526080820183905260a0820183905260c0820183905260e0820183905261010082018390526101208201839052610140820183905261016082019290925261018081018290526101a081018290526101c0810191909152600882815481106118165761181661371e565b5f918252602091829020604080516101e081018252600b90930290910180546001600160a01b038116845263ffffffff600160a01b8204811695850195909552600160c01b8104851692840192909252600160e01b90910490921660608201526001820154909190608083019060ff16600481111561189757611897612fa9565b60048111156118a8576118a8612fa9565b81526020016001820160019054906101000a90046001600160a01b03166001600160a01b03166001600160a01b031681526020016002820154815260200160038201548152602001600482015481526020016005820154815260200160068201548152602001600782015481526020016008820180548060200260200160405190810160405280929190818152602001828054801561196457602002820191905f5260205f20905b815481526020019060010190808311611950575b50505050508152602001600982018054806020026020016040519081016040528092919081815260200182805480156119c457602002820191905f5260205f20905b81546001600160c01b031681526001909101906020018083116119a6575b50505050508152602001600a82018054806020026020016040519081016040528092919081815260200182805480156115e557602002820191905f5260205f20905f905b82829054906101000a90046001600160401b03166001600160401b031681526020019060080190602082600701049283019260010382029150808411611a085790505050505050815250509050919050565b5f805f87516001600160401b03811115611a7657611a76612e23565b604051908082528060200260200182016040528015611a9f578160200160208202803683370190505b5090505f5b8751811015611bcb575f60098a8381518110611ac257611ac261371e565b602002602001015181548110611ada57611ada61371e565b5f91825260209091206004600590920201015489516001600160401b039091169150899083908110611b0e57611b0e61371e565b60200260200101516001600160c01b031685611b2a9190613746565b94505f611b798a8481518110611b4257611b4261371e565b60200260200101516001600160c01b03167f0000000000000000000000000000000000000000000000000000000000000000612797565b90505f611b8683836137b6565b9050611b928187613746565b955080858581518110611ba757611ba761371e565b6001600160401b039290921660209283029190910190910152505050600101611aa4565b50611bd5846127d2565b611bde84612694565b5f805b8951811015611d5f576002838281518110611bfe57611bfe61371e565b602002602001015160098c8481518110611c1a57611c1a61371e565b602002602001015181548110611c3257611c3261371e565b5f91825260209182902060046005909202010154604080516001600160401b03909416928401929092526001600160501b0319600160401b90910460501b16908201526060810184905260800160408051601f1981840301815290829052611c99916138ba565b602060405180830381855afa158015611cb4573d5f803e3d5ffd5b5050506040513d601f19601f82011682018060405250810190611cd791906138d5565b915060098a8281518110611ced57611ced61371e565b602002602001015181548110611d0557611d0561371e565b905f5260205f20906005020160020154898281518110611d2757611d2761371e565b60200260200101516001600160c01b03161115611d5757604051634323a55560e01b815260040160405180910390fd5b600101611be1565b50600854604080516001600160a01b038a1660208083019190915242828401524660608301526080820185905260a0808301949094528251808303909401845260c09091019091528151910120855115611ec9575f6008875f81518110611dc857611dc861371e565b602002602001015181548110611de057611de061371e565b5f9182526020909120600b9091020180546001600160a01b0319166001600160a01b038e1617815560018082018054929350909160ff191682800217905550600181018054610100600160a81b0319166101006001600160a01b038c160217905580546001600160c01b0316600160c01b4263ffffffff16026001600160e01b03161781556005810186905560038101829055600481018890558a51611e8f90600883019060208e0190612c1d565b508951611ea590600983019060208d0190612c66565b50600281018390558351611ec290600a8301906020870190612cb9565b5050612117565b6008604051806101e001604052808d6001600160a01b031681526020015f63ffffffff1681526020014263ffffffff1681526020015f63ffffffff16815260200160016004811115611f1d57611f1d612fa9565b81526020018a6001600160a01b031681526020018481526020018381526020018981526020018781526020015f81526020015f801b81526020018c81526020018b815260200185815250908060018154018082558091505060019003905f5260205f2090600b02015f909190919091505f820151815f015f6101000a8154816001600160a01b0302191690836001600160a01b031602179055506020820151815f0160146101000a81548163ffffffff021916908363ffffffff1602179055506040820151815f0160186101000a81548163ffffffff021916908363ffffffff1602179055506060820151815f01601c6101000a81548163ffffffff021916908363ffffffff1602179055506080820151816001015f6101000a81548160ff0219169083600481111561205257612052612fa9565b021790555060a0820151600182018054610100600160a81b0319166101006001600160a01b03909316830217905560c0830151600283015560e08301516003830155820151600482015561012082015160058201556101408201516006820155610160820151600782015561018082015180516120d9916008840191602090910190612c1d565b506101a082015180516120f6916009840191602090910190612c66565b506101c0820151805161211391600a840191602090910190612cb9565b5050505b5f5b8a5181101561219b578981815181106121345761213461371e565b60200260200101516001600160c01b031660098c83815181106121595761215961371e565b6020026020010151815481106121715761217161371e565b905f5260205f2090600502016002015f82825461218e9190613759565b9091555050600101612119565b508a6001600160a01b03167f5956135c9be999a50f7ff4ea49ddf1485bc321ab333dc7a0877633eeb475289360016121d260085490565b6121dc9190613759565b60408051918252602082018590520160405180910390a25050505050505050505050565b5f8181526020819052604090205461222b5760405163fa4a5e4560e01b815260040160405180910390fd5b50565b5f60088a815481106122425761224261371e565b905f5260205f2090600b020190505f805b6009830154811015612333575f6122b28460090183815481106122785761227861371e565b5f918252602090912001546001600160c01b03167f0000000000000000000000000000000000000000000000000000000000000000612797565b90505f60098560080184815481106122cc576122cc61371e565b905f5260205f200154815481106122e5576122e561371e565b5f91825260208220600460059092020101546001600160401b0316915061230c8383612860565b90506123188183612872565b6123229086613746565b945050600190920191506122539050565b505f6123e16040518061016001604052808d81526020018c8152602001856002015481526020018560030154815260200185600801805490506001600160401b0316815260200161238c6107118d63ffffffff1661176c565b815263ffffffff8c16602082018190526040909101906123ac908c6138ec565b6001600160401b031681526020016123c48b8b6138ec565b6001600160401b0316815260200188815260200187815250611517565b60405163020a49e360e51b81529091506001600160a01b037f000000000000000000000000000000000000000000000000000000000000000016906341493c6090612454907f00000000000000000000000000000000000000000000000000000000000000009085908990600401613913565b5f6040518083038186803b15801561246a575f80fd5b505afa15801561247c573d5f803e3d5ffd5b506124b39250505063ffffffff8a166001600160401b038a8116908a1689896124a5858f6138ec565b6001600160401b031661287d565b60018301805460ff191660021790556124ce6102584261393d565b83546001600160e01b0316600160e01b63ffffffff928316021784556001600160401b0389166006850155869060019061250a908c168b6138ec565b61251491906138ec565b6001600160401b03168151811061252d5761252d61371e565b6020908102919091010151600784015560055460405163a9059cbb60e01b8152336004820152602481018290527f00000000000000000000000000000000000000000000000000000000000000006001600160a01b03169063a9059cbb906044016020604051808303815f875af11580156125aa573d5f803e3d5ffd5b505050506040513d601f19601f820116820180604052508101906125ce919061376c565b506003840154604080518f8152602081019290925233917f184abe81dc2f02915b1cd93143dc1987a077040f7de69181dd5eaf9b37bb715c910160405180910390a250505050505050505050505050565b6004546001600160a01b031633146126495760405162461bcd60e51b8152600401610768906136f8565b600480546001600160a01b0319166001600160a01b03831690811790915560405133907f8be0079c531659141344cd1fd0a4f28419497f9722a3daafe3b4186f6b6457e0905f90a350565b5f5b8151811015612793576126a8826127d2565b5f60088383815181106126bd576126bd61371e565b6020026020010151815481106126d5576126d561371e565b905f5260205f2090600b020190505f5b600882015481101561277c575f60098360080183815481106127095761270961371e565b905f5260205f200154815481106127225761272261371e565b905f5260205f20906005020190508260090182815481106127455761274561371e565b5f9182526020822001546002830180546001600160c01b0390921692909161276e908490613746565b9091555050506001016126e5565b506001908101805460ff1916600417905501612696565b5050565b5f60128260ff1610156127cb576127af82601261395a565b6127ba90600a613a53565b6127c4908461378b565b9050611783565b5090919050565b5f5b81518110156127935761708063ffffffff1660088383815181106127fa576127fa61371e565b6020026020010151815481106128125761281261371e565b5f9182526020909120600b909102015461283990600160c01b900463ffffffff1642613759565b1015612858576040516326349d6b60e01b815260040160405180910390fd5b6001016127d4565b5f61286b82846137b6565b9392505050565b5f61286b828461378b565b6002545f8181526001602052604090205460ff7f0000000000000000000000000000000000000000000000000000000000000000166128bc8888613759565b1015612916575f86815260208190526040902054855186906128e090600190613759565b815181106128f0576128f061371e565b602002602001015114612916576040516341305f6360e01b815260040160405180910390fd5b818811156129375760405163575f3da360e01b815260040160405180910390fd5b8483815181106129495761294961371e565b60200260200101515f808981526020019081526020015f20540361296e575050610dcf565b5f87815260208190526040902054158015906129b0575083600185516129949190613759565b815181106129a4576129a461371e565b60200260200101518110155b156129ce576040516371e98f3d60e11b815260040160405180910390fd5b81871115612ad457818803612a3f578483815181106129ef576129ef61371e565b60200260200101515f808981526020019081526020015f2081905550838381518110612a1d57612a1d61371e565b602002602001015160015f8981526020019081526020015f2081905550612b3a565b81881015612acf57875b878111612acd5785612a5b8a83613759565b81518110612a6b57612a6b61371e565b6020908102919091018101515f8381529182905260409091205584612a908a83613759565b81518110612aa057612aa061371e565b6020908102919091018101515f838152600190925260409091205580612ac581613a61565b915050612a49565b505b612b3a565b81871015612b3a57848381518110612aee57612aee61371e565b60200260200101515f808981526020019081526020015f2081905550838381518110612b1c57612b1c61371e565b602002602001015160015f8981526020019081526020015f20819055505b600254871115612b4a5760028790555b5f612b548861176c565b90505f612b608861176c565b9050818114612bd5575f612b74828a613759565b9050878181518110612b8857612b8861371e565b60200260200101515f808481526020019081526020015f2081905550868181518110612bb657612bb661371e565b602002602001015160015f8481526020019081526020015f2081905550505b8651604080518c815260208101929092527fb68477c768bbb33b4f238a3dfd17c33c499268c59cd042b7936bbc23dc2bdd34910160405180910390a150505050505050505050565b828054828255905f5260205f20908101928215612c56579160200282015b82811115612c56578251825591602001919060010190612c3b565b50612c62929150612d65565b5090565b828054828255905f5260205f20908101928215612c56579160200282015b82811115612c5657825182546001600160c01b0319166001600160c01b03909116178255602090920191600190910190612c84565b828054828255905f5260205f2090600301600490048101928215612c56579160200282015f5b83821115612d2957835183826101000a8154816001600160401b0302191690836001600160401b031602179055509260200192600801602081600701049283019260010302612cdf565b8015612d5c5782816101000a8154906001600160401b030219169055600801602081600701049283019260010302612d29565b5050612c629291505b5b80821115612c62575f8155600101612d66565b5f60208284031215612d89575f80fd5b813560ff8116811461286b575f80fd5b5f60208284031215612da9575f80fd5b5035919050565b80356001600160401b0381168114612dc6575f80fd5b919050565b5f805f805f60a08688031215612ddf575f80fd5b85359450612def60208701612db0565b935060408601356001600160501b031981168114612e0b575f80fd5b94979396509394606081013594506080013592915050565b634e487b7160e01b5f52604160045260245ffd5b60405161016081016001600160401b0381118282101715612e5a57612e5a612e23565b60405290565b604051601f8201601f191681016001600160401b0381118282101715612e8857612e88612e23565b604052919050565b5f6001600160401b03821115612ea857612ea8612e23565b5060051b60200190565b5f82601f830112612ec1575f80fd5b81356020612ed6612ed183612e90565b612e60565b8083825260208201915060208460051b870101935086841115612ef7575f80fd5b602086015b84811015612f135780358352918301918301612efc565b509695505050505050565b5f805f8060808587031215612f31575f80fd5b8435935060208501359250612f4860408601612db0565b915060608501356001600160401b03811115612f62575f80fd5b612f6e87828801612eb2565b91505092959194509250565b6001600160a01b038116811461222b575f80fd5b5f60208284031215612f9e575f80fd5b813561286b81612f7a565b634e487b7160e01b5f52602160045260245ffd5b60058110612fd957634e487b7160e01b5f52602160045260245ffd5b9052565b6001600160a01b038d8116825263ffffffff8d811660208401528c811660408401528b166060830152610180820190613019608084018c612fbd565b9890981660a082015260c081019690965260e08601949094526101008501929092526101208401526101408301526101609091015295945050505050565b5f805f60608486031215613069575f80fd5b833592506020840135915060408401356001600160401b0381111561308c575f80fd5b61309886828701612eb2565b9150509250925092565b5f80604083850312156130b3575f80fd5b823591506020830135600581106130c8575f80fd5b809150509250929050565b5f602082840312156130e3575f80fd5b81356001600160401b03808211156130f9575f80fd5b90830190610160828603121561310d575f80fd5b613115612e37565b8235815260208301356020820152604083013560408201526060830135606082015261314360808401612db0565b608082015260a083013560a082015261315e60c08401612db0565b60c082015261316f60e08401612db0565b60e0820152610100613182818501612db0565b908201526101208381013583811115613199575f80fd5b6131a588828701612eb2565b82840152505061014080840135838111156131be575f80fd5b6131ca88828701612eb2565b918301919091525095945050505050565b5f5b838110156131f55781810151838201526020016131dd565b50505f910152565b5f81518084526132148160208601602086016131db565b601f01601f19169290920160200192915050565b602081525f61286b60208301846131fd565b5f806040838503121561324b575f80fd5b50508035926020909101359150565b8035612dc681612f7a565b5f815180845260208085019450602084015f5b8381101561329457815187529582019590820190600101613278565b509495945050505050565b602081525f82516020808401526132b96040840182613265565b949350505050565b80356001600160c01b0381168114612dc6575f80fd5b5f805f80608085870312156132ea575f80fd5b8435935060208501359250612f48604086016132c1565b5f815180845260208085019450602084015f5b838110156132945781516001600160c01b031687529582019590820190600101613314565b5f815180845260208085019450602084015f5b838110156132945781516001600160401b03168752958201959082019060010161334c565b6020815261338b6020820183516001600160a01b03169052565b5f60208301516133a3604084018263ffffffff169052565b50604083015163ffffffff8116606084015250606083015163ffffffff811660808401525060808301516133da60a0840182612fbd565b5060a08301516001600160a01b03811660c08401525060c083015160e08381019190915283015161010080840191909152830151610120808401919091528301516101408084019190915283015161016080840191909152830151610180808401919091528301516101e06101a080850182905261345c610200860184613265565b9250808601519050601f196101c081878603018188015261347d8584613301565b9088015187820390920184880152935090506134998382613339565b9695505050505050565b5f805f805f8060c087890312156134b8575f80fd5b86356134c381612f7a565b95506020878101356001600160401b03808211156134df575f80fd5b6134eb8b838c01612eb2565b975060408a0135915080821115613500575f80fd5b818a0191508a601f830112613513575f80fd5b8135613521612ed182612e90565b81815260059190911b8301840190848101908d83111561353f575f80fd5b938501935b8285101561356457613555856132c1565b82529385019390850190613544565b985061357591505060608b0161325a565b955060808a0135945060a08a0135925080831115613591575f80fd5b505061359f89828a01612eb2565b9150509295509295509295565b803563ffffffff81168114612dc6575f80fd5b5f82601f8301126135ce575f80fd5b81356001600160401b038111156135e7576135e7612e23565b6135fa601f8201601f1916602001612e60565b81815284602083860101111561360e575f80fd5b816020850160208301375f918101602001919091529392505050565b5f805f805f805f805f6101208a8c031215613643575f80fd5b8935985060208a0135975060408a0135965061366160608b016135ac565b955061366f60808b01612db0565b945061367d60a08b01612db0565b935060c08a01356001600160401b0380821115613698575f80fd5b6136a48d838e01612eb2565b945060e08c01359150808211156136b9575f80fd5b6136c58d838e01612eb2565b93506101008c01359150808211156136db575f80fd5b506136e88c828d016135bf565b9150509295985092959850929598565b6020808252600c908201526b15539055551213d49256915160a21b604082015260600190565b634e487b7160e01b5f52603260045260245ffd5b634e487b7160e01b5f52601160045260245ffd5b8082018082111561178357611783613732565b8181038181111561178357611783613732565b5f6020828403121561377c575f80fd5b8151801515811461286b575f80fd5b808202811582820484141761178357611783613732565b634e487b7160e01b5f52601260045260245ffd5b5f826137c4576137c46137a2565b500490565b60208152815160208201526020820151604082015260408201516060820152606082015160808201525f608083015161380d60a08401826001600160401b03169052565b5060a083015160c083015260c083015161383260e08401826001600160401b03169052565b5060e083015161010061384f818501836001600160401b03169052565b840151905061012061386b848201836001600160401b03169052565b80850151915050610160610140818186015261388b610180860184613265565b90860151858203601f1901838701529092506134998382613265565b5f826138b5576138b56137a2565b500690565b5f82516138cb8184602087016131db565b9190910192915050565b5f602082840312156138e5575f80fd5b5051919050565b6001600160401b0382811682821603908082111561390c5761390c613732565b5092915050565b838152606060208201525f61392b60608301856131fd565b828103604084015261349981856131fd565b63ffffffff81811683821601908082111561390c5761390c613732565b60ff828116828216039081111561178357611783613732565b600181815b808511156139ad57815f190482111561399357613993613732565b808516156139a057918102915b93841c9390800290613978565b509250929050565b5f826139c357506001611783565b816139cf57505f611783565b81600181146139e557600281146139ef57613a0b565b6001915050611783565b60ff841115613a0057613a00613732565b50506001821b611783565b5060208310610133831016604e8410600b8410161715613a2e575081810a611783565b613a388383613973565b805f1904821115613a4b57613a4b613732565b029392505050565b5f61286b60ff8416836139b5565b5f60018201613a7257613a72613732565b506001019056fea264697066735822122003dce685276cff2375af18fede1420f7b0e1b57d71f3b1dc64f740bd5eb558a564736f6c63430008180033","linkReferences":{}},"methodIdentifiers":{"CHALLENGE_PERIOD()":"c3a079ed","DEPOSIT_TOKEN()":"13f66587","MAX_DEPOSIT_OUTPUTS()":"9cdb8e5a","MIN_ORDER_GAS_MULTIPLIER()":"5f5d5b6a","PROOF_GAS_COST()":"eb6c7522","RELEASE_GAS_COST()":"9a64279c","RESERVATION_LOCKUP_PERIOD()":"89a11f7a","SAMPLING_SIZE()":"ad062e55","TOKEN_DECIMALS()":"5b7f415c","buildProofPublicInputs((bytes32,bytes32,bytes32,bytes32,uint64,bytes32,uint64,uint64,uint64,bytes32[],uint256[]))":"8f1546b4","calculateRetargetHeight(uint256)":"b9b2a982","circuitVerificationKey()":"3d7b22b3","currentConfirmationHeight()":"fba78166","currentHeight()":"163de0c5","depositLiquidity(uint256,uint64,bytes22,int256,int256)":"51a7f1cd","depositVaults(uint256)":"5f4d0610","emptyDepositVault(uint256)":"490d4c5f","getAreDepositsPaused()":"b01c27d1","getBlockHash(uint256)":"ee82ac5e","getChainwork(uint256)":"cda7d82c","getDepositVault(uint256)":"276d080e","getDepositVaultUnreservedBalance(uint256)":"6512d057","getDepositVaultsLength()":"7dce5550","getLiquidityProvider(address)":"98f9e757","getReservation(uint256)":"d57763c3","getReservationLength()":"ea6fe03e","isDepositNewLiquidityPaused()":"8cc63cdd","owner()":"8da5cb5b","pauseDepositNewLiquidity()":"130d1392","proposeTransactionProof(uint256,bytes32,bytes32,uint32,uint64,uint64,bytes32[],uint256[],bytes)":"edd67b72","protocolFeeBP()":"c5fba0b8","proverReward()":"6dcc17c8","refundAllLPs(uint256,uint256,uint256[])":"70c60e8f","releaseLiquidity(uint256)":"77891907","releaserReward()":"9cc7eab9","reserveLiquidity(address,uint256[],uint192[],address,uint256,uint256[])":"d8418403","setSwapReservationState(uint256,uint8)":"7b93291f","swapReservations(uint256)":"6b994abb","transferOwnership(address)":"f2fde38b","unpauseDepositNewLiquidity()":"4491ba54","updateExchangeRate(uint256,uint256,uint64,uint256[])":"56fe6f86","updateProtocolAddress(address)":"58e2b676","updateProtocolFee(uint8)":"0a7aa293","updateRewards(uint256,uint256)":"97e50818","validateBlockExists(uint256)":"ed8b2b32","verifierContract()":"cf695688","withdrawLiquidity(uint256,uint256,uint192,uint256[])":"aeacb2e7"},"storageLayout":{"storage":[{"astId":47958,"contract":"src/RiftExchange.sol:RiftExchange","label":"blockchain","offset":0,"slot":"0","type":"t_mapping(t_uint256,t_bytes32)"},{"astId":47962,"contract":"src/RiftExchange.sol:RiftExchange","label":"chainworks","offset":0,"slot":"1","type":"t_mapping(t_uint256,t_uint256)"},{"astId":47964,"contract":"src/RiftExchange.sol:RiftExchange","label":"currentHeight","offset":0,"slot":"2","type":"t_uint256"},{"astId":47966,"contract":"src/RiftExchange.sol:RiftExchange","label":"currentConfirmationHeight","offset":0,"slot":"3","type":"t_uint256"},{"astId":46637,"contract":"src/RiftExchange.sol:RiftExchange","label":"owner","offset":0,"slot":"4","type":"t_address"},{"astId":49315,"contract":"src/RiftExchange.sol:RiftExchange","label":"isDepositNewLiquidityPaused","offset":20,"slot":"4","type":"t_bool"},{"astId":49326,"contract":"src/RiftExchange.sol:RiftExchange","label":"protocolFeeBP","offset":21,"slot":"4","type":"t_uint8"},{"astId":49328,"contract":"src/RiftExchange.sol:RiftExchange","label":"proverReward","offset":0,"slot":"5","type":"t_uint256"},{"astId":49330,"contract":"src/RiftExchange.sol:RiftExchange","label":"releaserReward","offset":0,"slot":"6","type":"t_uint256"},{"astId":49420,"contract":"src/RiftExchange.sol:RiftExchange","label":"liquidityProviders","offset":0,"slot":"7","type":"t_mapping(t_address,t_struct(LiquidityProvider)49361_storage)"},{"astId":49424,"contract":"src/RiftExchange.sol:RiftExchange","label":"swapReservations","offset":0,"slot":"8","type":"t_array(t_struct(SwapReservation)49415_storage)dyn_storage"},{"astId":49428,"contract":"src/RiftExchange.sol:RiftExchange","label":"depositVaults","offset":0,"slot":"9","type":"t_array(t_struct(DepositVault)49374_storage)dyn_storage"},{"astId":49439,"contract":"src/RiftExchange.sol:RiftExchange","label":"protocolAddress","offset":0,"slot":"10","type":"t_address_payable"}],"types":{"t_address":{"encoding":"inplace","label":"address","numberOfBytes":"20"},"t_address_payable":{"encoding":"inplace","label":"address payable","numberOfBytes":"20"},"t_array(t_struct(DepositVault)49374_storage)dyn_storage":{"encoding":"dynamic_array","label":"struct RiftExchange.DepositVault[]","numberOfBytes":"32","base":"t_struct(DepositVault)49374_storage"},"t_array(t_struct(SwapReservation)49415_storage)dyn_storage":{"encoding":"dynamic_array","label":"struct RiftExchange.SwapReservation[]","numberOfBytes":"32","base":"t_struct(SwapReservation)49415_storage"},"t_array(t_uint192)dyn_storage":{"encoding":"dynamic_array","label":"uint192[]","numberOfBytes":"32","base":"t_uint192"},"t_array(t_uint256)dyn_storage":{"encoding":"dynamic_array","label":"uint256[]","numberOfBytes":"32","base":"t_uint256"},"t_array(t_uint64)dyn_storage":{"encoding":"dynamic_array","label":"uint64[]","numberOfBytes":"32","base":"t_uint64"},"t_bool":{"encoding":"inplace","label":"bool","numberOfBytes":"1"},"t_bytes22":{"encoding":"inplace","label":"bytes22","numberOfBytes":"22"},"t_bytes32":{"encoding":"inplace","label":"bytes32","numberOfBytes":"32"},"t_enum(ReservationState)49380":{"encoding":"inplace","label":"enum RiftExchange.ReservationState","numberOfBytes":"1"},"t_mapping(t_address,t_struct(LiquidityProvider)49361_storage)":{"encoding":"mapping","key":"t_address","label":"mapping(address => struct RiftExchange.LiquidityProvider)","numberOfBytes":"32","value":"t_struct(LiquidityProvider)49361_storage"},"t_mapping(t_uint256,t_bytes32)":{"encoding":"mapping","key":"t_uint256","label":"mapping(uint256 => bytes32)","numberOfBytes":"32","value":"t_bytes32"},"t_mapping(t_uint256,t_uint256)":{"encoding":"mapping","key":"t_uint256","label":"mapping(uint256 => uint256)","numberOfBytes":"32","value":"t_uint256"},"t_struct(DepositVault)49374_storage":{"encoding":"inplace","label":"struct RiftExchange.DepositVault","numberOfBytes":"160","members":[{"astId":49363,"contract":"src/RiftExchange.sol:RiftExchange","label":"owner","offset":0,"slot":"0","type":"t_address"},{"astId":49365,"contract":"src/RiftExchange.sol:RiftExchange","label":"initialBalance","offset":0,"slot":"1","type":"t_uint256"},{"astId":49367,"contract":"src/RiftExchange.sol:RiftExchange","label":"unreservedBalance","offset":0,"slot":"2","type":"t_uint256"},{"astId":49369,"contract":"src/RiftExchange.sol:RiftExchange","label":"withdrawnAmount","offset":0,"slot":"3","type":"t_uint256"},{"astId":49371,"contract":"src/RiftExchange.sol:RiftExchange","label":"exchangeRate","offset":0,"slot":"4","type":"t_uint64"},{"astId":49373,"contract":"src/RiftExchange.sol:RiftExchange","label":"btcPayoutLockingScript","offset":8,"slot":"4","type":"t_bytes22"}]},"t_struct(LiquidityProvider)49361_storage":{"encoding":"inplace","label":"struct RiftExchange.LiquidityProvider","numberOfBytes":"32","members":[{"astId":49360,"contract":"src/RiftExchange.sol:RiftExchange","label":"depositVaultIndexes","offset":0,"slot":"0","type":"t_array(t_uint256)dyn_storage"}]},"t_struct(SwapReservation)49415_storage":{"encoding":"inplace","label":"struct RiftExchange.SwapReservation","numberOfBytes":"352","members":[{"astId":49382,"contract":"src/RiftExchange.sol:RiftExchange","label":"owner","offset":0,"slot":"0","type":"t_address"},{"astId":49384,"contract":"src/RiftExchange.sol:RiftExchange","label":"confirmationBlockHeight","offset":20,"slot":"0","type":"t_uint32"},{"astId":49386,"contract":"src/RiftExchange.sol:RiftExchange","label":"reservationTimestamp","offset":24,"slot":"0","type":"t_uint32"},{"astId":49388,"contract":"src/RiftExchange.sol:RiftExchange","label":"unlockTimestamp","offset":28,"slot":"0","type":"t_uint32"},{"astId":49391,"contract":"src/RiftExchange.sol:RiftExchange","label":"state","offset":0,"slot":"1","type":"t_enum(ReservationState)49380"},{"astId":49393,"contract":"src/RiftExchange.sol:RiftExchange","label":"ethPayoutAddress","offset":1,"slot":"1","type":"t_address"},{"astId":49395,"contract":"src/RiftExchange.sol:RiftExchange","label":"lpReservationHash","offset":0,"slot":"2","type":"t_bytes32"},{"astId":49397,"contract":"src/RiftExchange.sol:RiftExchange","label":"nonce","offset":0,"slot":"3","type":"t_bytes32"},{"astId":49399,"contract":"src/RiftExchange.sol:RiftExchange","label":"totalSatsInputInlcudingProxyFee","offset":0,"slot":"4","type":"t_uint256"},{"astId":49401,"contract":"src/RiftExchange.sol:RiftExchange","label":"totalSwapOutputAmount","offset":0,"slot":"5","type":"t_uint256"},{"astId":49403,"contract":"src/RiftExchange.sol:RiftExchange","label":"proposedBlockHeight","offset":0,"slot":"6","type":"t_uint256"},{"astId":49405,"contract":"src/RiftExchange.sol:RiftExchange","label":"proposedBlockHash","offset":0,"slot":"7","type":"t_bytes32"},{"astId":49408,"contract":"src/RiftExchange.sol:RiftExchange","label":"vaultIndexes","offset":0,"slot":"8","type":"t_array(t_uint256)dyn_storage"},{"astId":49411,"contract":"src/RiftExchange.sol:RiftExchange","label":"amountsToReserve","offset":0,"slot":"9","type":"t_array(t_uint192)dyn_storage"},{"astId":49414,"contract":"src/RiftExchange.sol:RiftExchange","label":"expectedSatsOutput","offset":0,"slot":"10","type":"t_array(t_uint64)dyn_storage"}]},"t_uint192":{"encoding":"inplace","label":"uint192","numberOfBytes":"24"},"t_uint256":{"encoding":"inplace","label":"uint256","numberOfBytes":"32"},"t_uint32":{"encoding":"inplace","label":"uint32","numberOfBytes":"4"},"t_uint64":{"encoding":"inplace","label":"uint64","numberOfBytes":"8"},"t_uint8":{"encoding":"inplace","label":"uint8","numberOfBytes":"1"}}},"id":32}