{"abi":[{"type":"constructor","inputs":[{"name":"initialCheckpointHeight","type":"uint256","internalType":"uint256"},{"name":"initialBlockHash","type":"bytes32","internalType":"bytes32"},{"name":"initialRetargetBlockHash","type":"bytes32","internalType":"bytes32"},{"name":"initialChainwork","type":"uint256","internalType":"uint256"},{"name":"verifierContractAddress","type":"address","internalType":"address"},{"name":"depositTokenAddress","type":"address","internalType":"address"},{"name":"initialFeeRouterAddress","type":"address","internalType":"address"},{"name":"owner","type":"address","internalType":"address"},{"name":"circuitVerificationKey","type":"bytes32","internalType":"bytes32"},{"name":"minimumConfirmationDelta","type":"uint8","internalType":"uint8"}],"stateMutability":"nonpayable"},{"type":"function","name":"CHALLENGE_PERIOD","inputs":[],"outputs":[{"name":"","type":"uint32","internalType":"uint32"}],"stateMutability":"view"},{"type":"function","name":"CIRCUIT_VERIFICATION_KEY","inputs":[],"outputs":[{"name":"","type":"bytes32","internalType":"bytes32"}],"stateMutability":"view"},{"type":"function","name":"DEPOSIT_TOKEN","inputs":[],"outputs":[{"name":"","type":"address","internalType":"contract IERC20"}],"stateMutability":"view"},{"type":"function","name":"RESERVATION_LOCKUP_PERIOD","inputs":[],"outputs":[{"name":"","type":"uint32","internalType":"uint32"}],"stateMutability":"view"},{"type":"function","name":"TOKEN_DECIMALS","inputs":[],"outputs":[{"name":"","type":"uint8","internalType":"uint8"}],"stateMutability":"view"},{"type":"function","name":"VERIFIER_CONTRACT","inputs":[],"outputs":[{"name":"","type":"address","internalType":"contract ISP1Verifier"}],"stateMutability":"view"},{"type":"function","name":"calculateRetargetHeight","inputs":[{"name":"blockHeight","type":"uint256","internalType":"uint256"}],"outputs":[{"name":"","type":"uint256","internalType":"uint256"}],"stateMutability":"pure"},{"type":"function","name":"currentConfirmationHeight","inputs":[],"outputs":[{"name":"","type":"uint256","internalType":"uint256"}],"stateMutability":"view"},{"type":"function","name":"currentHeight","inputs":[],"outputs":[{"name":"","type":"uint256","internalType":"uint256"}],"stateMutability":"view"},{"type":"function","name":"depositLiquidity","inputs":[{"name":"depositAmount","type":"uint256","internalType":"uint256"},{"name":"exchangeRate","type":"uint64","internalType":"uint64"},{"name":"btcPayoutLockingScript","type":"bytes22","internalType":"bytes22"}],"outputs":[],"stateMutability":"nonpayable"},{"type":"function","name":"getAreDepositsPaused","inputs":[],"outputs":[{"name":"","type":"bool","internalType":"bool"}],"stateMutability":"view"},{"type":"function","name":"getBlockHash","inputs":[{"name":"blockHeight","type":"uint256","internalType":"uint256"}],"outputs":[{"name":"","type":"bytes32","internalType":"bytes32"}],"stateMutability":"view"},{"type":"function","name":"getChainwork","inputs":[{"name":"blockHeight","type":"uint256","internalType":"uint256"}],"outputs":[{"name":"","type":"uint256","internalType":"uint256"}],"stateMutability":"view"},{"type":"function","name":"getDepositVault","inputs":[{"name":"depositIndex","type":"uint256","internalType":"uint256"}],"outputs":[{"name":"","type":"tuple","internalType":"struct RiftExchange.DepositVault","components":[{"name":"owner","type":"address","internalType":"address"},{"name":"depositTimestamp","type":"uint64","internalType":"uint64"},{"name":"initialBalance","type":"uint256","internalType":"uint256"},{"name":"unreservedBalance","type":"uint256","internalType":"uint256"},{"name":"withdrawnAmount","type":"uint256","internalType":"uint256"},{"name":"exchangeRate","type":"uint64","internalType":"uint64"},{"name":"btcPayoutLockingScript","type":"bytes22","internalType":"bytes22"}]}],"stateMutability":"view"},{"type":"function","name":"getDepositVaultUnreservedBalance","inputs":[{"name":"depositIndex","type":"uint256","internalType":"uint256"}],"outputs":[{"name":"","type":"uint256","internalType":"uint256"}],"stateMutability":"view"},{"type":"function","name":"getDepositVaultsLength","inputs":[],"outputs":[{"name":"","type":"uint256","internalType":"uint256"}],"stateMutability":"view"},{"type":"function","name":"getLiquidityProvider","inputs":[{"name":"lpAddress","type":"address","internalType":"address"}],"outputs":[{"name":"","type":"tuple","internalType":"struct RiftExchange.LiquidityProvider","components":[{"name":"depositVaultIndexes","type":"uint256[]","internalType":"uint256[]"}]}],"stateMutability":"view"},{"type":"function","name":"getReservation","inputs":[{"name":"reservationIndex","type":"uint256","internalType":"uint256"}],"outputs":[{"name":"","type":"tuple","internalType":"struct RiftExchange.SwapReservation","components":[{"name":"owner","type":"address","internalType":"address"},{"name":"confirmationBlockHeight","type":"uint32","internalType":"uint32"},{"name":"reservationTimestamp","type":"uint64","internalType":"uint64"},{"name":"liquidityUnlockedTimestamp","type":"uint64","internalType":"uint64"},{"name":"state","type":"uint8","internalType":"enum RiftExchange.ReservationState"},{"name":"ethPayoutAddress","type":"address","internalType":"address"},{"name":"lpReservationHash","type":"bytes32","internalType":"bytes32"},{"name":"nonce","type":"bytes32","internalType":"bytes32"},{"name":"totalSatsInputIncludingProxyFee","type":"uint256","internalType":"uint256"},{"name":"totalSwapOutputAmount","type":"uint256","internalType":"uint256"},{"name":"proposedBlockHeight","type":"uint256","internalType":"uint256"},{"name":"proposedBlockHash","type":"bytes32","internalType":"bytes32"},{"name":"vaultIndexes","type":"uint256[]","internalType":"uint256[]"},{"name":"amountsToReserve","type":"uint192[]","internalType":"uint192[]"},{"name":"expectedSatsOutput","type":"uint64[]","internalType":"uint64[]"}]}],"stateMutability":"view"},{"type":"function","name":"getReservationLength","inputs":[],"outputs":[{"name":"","type":"uint256","internalType":"uint256"}],"stateMutability":"view"},{"type":"function","name":"isDepositNewLiquidityPaused","inputs":[],"outputs":[{"name":"","type":"bool","internalType":"bool"}],"stateMutability":"view"},{"type":"function","name":"owner","inputs":[],"outputs":[{"name":"","type":"address","internalType":"address"}],"stateMutability":"view"},{"type":"function","name":"protocolFeeBP","inputs":[],"outputs":[{"name":"","type":"uint8","internalType":"uint8"}],"stateMutability":"view"},{"type":"function","name":"releaseLiquidity","inputs":[{"name":"swapReservationIndex","type":"uint256","internalType":"uint256"}],"outputs":[],"stateMutability":"nonpayable"},{"type":"function","name":"reserveLiquidity","inputs":[{"name":"reservationOwner","type":"address","internalType":"address"},{"name":"vaultIndexesToReserve","type":"uint256[]","internalType":"uint256[]"},{"name":"amountsToReserve","type":"uint192[]","internalType":"uint192[]"},{"name":"ethPayoutAddress","type":"address","internalType":"address"},{"name":"totalSatsInputIncludingProxyFee","type":"uint256","internalType":"uint256"},{"name":"expiredSwapReservationIndexes","type":"uint256[]","internalType":"uint256[]"}],"outputs":[],"stateMutability":"nonpayable"},{"type":"function","name":"submitSwapProof","inputs":[{"name":"swapReservationIndex","type":"uint256","internalType":"uint256"},{"name":"bitcoinTxId","type":"bytes32","internalType":"bytes32"},{"name":"merkleRoot","type":"bytes32","internalType":"bytes32"},{"name":"safeBlockHeight","type":"uint32","internalType":"uint32"},{"name":"proposedBlockHeight","type":"uint64","internalType":"uint64"},{"name":"confirmationBlockHeight","type":"uint64","internalType":"uint64"},{"name":"blockHashes","type":"bytes32[]","internalType":"bytes32[]"},{"name":"blockChainworks","type":"uint256[]","internalType":"uint256[]"},{"name":"proof","type":"bytes","internalType":"bytes"}],"outputs":[],"stateMutability":"nonpayable"},{"type":"function","name":"transferOwnership","inputs":[{"name":"newOwner","type":"address","internalType":"address"}],"outputs":[],"stateMutability":"nonpayable"},{"type":"function","name":"updateExchangeRate","inputs":[{"name":"globalVaultIndex","type":"uint256","internalType":"uint256"},{"name":"localVaultIndex","type":"uint256","internalType":"uint256"},{"name":"newExchangeRate","type":"uint64","internalType":"uint64"},{"name":"expiredSwapReservationIndexes","type":"uint256[]","internalType":"uint256[]"}],"outputs":[],"stateMutability":"nonpayable"},{"type":"function","name":"updateFeeRouter","inputs":[{"name":"newProtocolAddress","type":"address","internalType":"address payable"}],"outputs":[],"stateMutability":"nonpayable"},{"type":"function","name":"updateNewLiquidityDepositsPaused","inputs":[{"name":"newPauseState","type":"bool","internalType":"bool"}],"outputs":[],"stateMutability":"nonpayable"},{"type":"function","name":"updateProtocolFee","inputs":[{"name":"newProtocolFeeBP","type":"uint8","internalType":"uint8"}],"outputs":[],"stateMutability":"nonpayable"},{"type":"function","name":"validateBlockExists","inputs":[{"name":"blockHeight","type":"uint256","internalType":"uint256"}],"outputs":[],"stateMutability":"view"},{"type":"function","name":"withdrawLiquidity","inputs":[{"name":"globalVaultIndex","type":"uint256","internalType":"uint256"},{"name":"localVaultIndex","type":"uint256","internalType":"uint256"},{"name":"amountToWithdraw","type":"uint192","internalType":"uint192"},{"name":"expiredSwapReservationIndexes","type":"uint256[]","internalType":"uint256[]"}],"outputs":[],"stateMutability":"nonpayable"},{"type":"event","name":"BlocksAdded","inputs":[{"name":"startBlockHeight","type":"uint256","indexed":false,"internalType":"uint256"},{"name":"count","type":"uint256","indexed":false,"internalType":"uint256"}],"anonymous":false},{"type":"event","name":"LiquidityDeposited","inputs":[{"name":"depositor","type":"address","indexed":true,"internalType":"address"},{"name":"depositVaultIndex","type":"uint256","indexed":false,"internalType":"uint256"},{"name":"amount","type":"uint256","indexed":false,"internalType":"uint256"},{"name":"exchangeRate","type":"uint64","indexed":false,"internalType":"uint64"}],"anonymous":false},{"type":"event","name":"LiquidityReserved","inputs":[{"name":"reserver","type":"address","indexed":true,"internalType":"address"},{"name":"swapReservationIndex","type":"uint256","indexed":false,"internalType":"uint256"},{"name":"orderNonce","type":"bytes32","indexed":false,"internalType":"bytes32"}],"anonymous":false},{"type":"event","name":"OwnershipTransferred","inputs":[{"name":"user","type":"address","indexed":true,"internalType":"address"},{"name":"newOwner","type":"address","indexed":true,"internalType":"address"}],"anonymous":false},{"type":"event","name":"ProofSubmitted","inputs":[{"name":"prover","type":"address","indexed":true,"internalType":"address"},{"name":"swapReservationIndex","type":"uint256","indexed":false,"internalType":"uint256"},{"name":"orderNonce","type":"bytes32","indexed":false,"internalType":"bytes32"}],"anonymous":false},{"type":"event","name":"SwapComplete","inputs":[{"name":"swapReservationIndex","type":"uint256","indexed":false,"internalType":"uint256"},{"name":"orderNonce","type":"bytes32","indexed":false,"internalType":"bytes32"}],"anonymous":false},{"type":"error","name":"AmountToReserveTooLow","inputs":[{"name":"index","type":"uint256","internalType":"uint256"}]},{"type":"error","name":"BlockDoesNotExist","inputs":[]},{"type":"error","name":"InvalidConfirmationBlock","inputs":[]},{"type":"error","name":"InvalidExchangeRate","inputs":[]},{"type":"error","name":"InvalidInputArrays","inputs":[]},{"type":"error","name":"InvalidProposedBlockOverwrite","inputs":[]},{"type":"error","name":"InvalidReservationState","inputs":[]},{"type":"error","name":"InvalidSafeBlock","inputs":[]},{"type":"error","name":"NewDepositsPaused","inputs":[]},{"type":"error","name":"NotEnoughLiquidity","inputs":[]},{"type":"error","name":"NotVaultOwner","inputs":[]},{"type":"error","name":"OverwrittenProposedBlock","inputs":[]},{"type":"error","name":"ReservationNotExpired","inputs":[]},{"type":"error","name":"ReservationNotProved","inputs":[]},{"type":"error","name":"StillInChallengePeriod","inputs":[]},{"type":"error","name":"WithdrawalAmountError","inputs":[]}],"bytecode":{"object":"0x6101206040526004805461ffff60a01b1916600560a91b17905534801562000025575f80fd5b50604051620035d6380380620035d68339810160408190526200004891620001f0565b60028a90555f8a81526001602090815260408083208a90559082905281208a905583908b9089908c908c9086908290806200008388620001a2565b8152602081019190915260409081015f9081209290925560ff909216608052600480546001600160a01b0389166001600160a01b03199091168117909155915191955093507f8be0079c531659141344cd1fd0a4f28419497f9722a3daafe3b4186f6b6457e09250839150a35060e08290526001600160a01b0380871661010052851660a08190526040805163313ce56760e01b8152905163313ce567916004808201926020929091908290030181865afa15801562000145573d5f803e3d5ffd5b505050506040513d601f19601f820116820180604052508101906200016b91906200028c565b60ff1660c0525050600580546001600160a01b0319166001600160a01b03939093169290921790915550620002ef95505050505050565b5f620001b16107e083620002af565b620001bd9083620002cf565b92915050565b80516001600160a01b0381168114620001da575f80fd5b919050565b805160ff81168114620001da575f80fd5b5f805f805f805f805f806101408b8d0312156200020b575f80fd5b8a51995060208b0151985060408b0151975060608b015196506200023260808c01620001c3565b95506200024260a08c01620001c3565b94506200025260c08c01620001c3565b93506200026260e08c01620001c3565b92506101008b015191506200027b6101208c01620001df565b90509295989b9194979a5092959850565b5f602082840312156200029d575f80fd5b620002a882620001df565b9392505050565b5f82620002ca57634e487b7160e01b5f52601260045260245ffd5b500690565b81810381811115620001bd57634e487b7160e01b5f52601160045260245ffd5b60805160a05160c05160e051610100516132786200035e5f395f818161045c0152611dbd01525f81816103dd0152611dea01525f81816102fb01526116da01525f818161020501528181610b6401528181610bd101528181610f8101526111f101525f6121cc01526132785ff3fe608060405234801561000f575f80fd5b50600436106101e7575f3560e01c806398f9e75711610109578063d57763c31161009e578063ed8b2b321161006e578063ed8b2b321461051b578063ee82ac5e1461052e578063f2fde38b1461054d578063fba7816614610560575f80fd5b8063d57763c3146104cd578063d8418403146104ed578063ea6fe03e14610500578063ecdea06f14610508575f80fd5b8063b9b2a982116100d9578063b9b2a9821461047e578063c3a079ed14610491578063c5fba0b81461049a578063cda7d82c146104ae575f80fd5b806398f9e75714610412578063aeacb2e714610432578063b01c27d114610445578063b8b2459214610457575f80fd5b8063778919071161017f57806389a11f7a1161014f57806389a11f7a146103965780638cc63cdd146103b45780638d5ca052146103d85780638da5cb5b146103ff575f80fd5b806377891907146103555780637a9059a2146103685780637dce55501461037b578063803d5f6214610383575f80fd5b806356fe6f86116101ba57806356fe6f86146102e35780635b7f415c146102f65780636512d0571461032f57806373e149e614610342575f80fd5b80630a7aa293146101eb57806313f6658714610200578063163de0c514610244578063276d080e1461025b575b5f80fd5b6101fe6101f9366004612764565b610569565b005b6102277f000000000000000000000000000000000000000000000000000000000000000081565b6040516001600160a01b0390911681526020015b60405180910390f35b61024d60025481565b60405190815260200161023b565b61026e61026936600461278b565b6105bc565b60405161023b919081516001600160a01b031681526020808301516001600160401b039081169183019190915260408084015190830152606080840151908301526080808401519083015260a0838101519091169082015260c0918201516001600160501b0319169181019190915260e00190565b6101fe6102f136600461288f565b610697565b61031d7f000000000000000000000000000000000000000000000000000000000000000081565b60405160ff909116815260200161023b565b61024d61033d36600461278b565b61091e565b6101fe6103503660046128ff565b610949565b6101fe61036336600461278b565b610995565b6101fe610376366004612927565b610cd7565b60065461024d565b6101fe610391366004612942565b610d1f565b61039f61708081565b60405163ffffffff909116815260200161023b565b6004546103c890600160a01b900460ff1681565b604051901515815260200161023b565b61024d7f000000000000000000000000000000000000000000000000000000000000000081565b600454610227906001600160a01b031681565b6104256104203660046128ff565b611053565b60405161023b91906129d0565b6101fe610440366004612a08565b6110d3565b600454600160a01b900460ff166103c8565b6102277f000000000000000000000000000000000000000000000000000000000000000081565b61024d61048c36600461278b565b611263565b61039f61012c81565b60045461031d90600160a81b900460ff1681565b61024d6104bc36600461278b565b5f9081526001602052604090205490565b6104e06104db36600461278b565b611280565b60405161023b9190612ad6565b6101fe6104fb366004612c0e565b611558565b60075461024d565b6101fe610516366004612d95565b611c7d565b6101fe61052936600461278b565b611f43565b61024d61053c36600461278b565b5f9081526020819052604090205490565b6101fe61055b3660046128ff565b611f71565b61024d60035481565b6004546001600160a01b0316331461059c5760405162461bcd60e51b815260040161059390612e63565b60405180910390fd5b6004805460ff909216600160a81b0260ff60a81b19909216919091179055565b6040805160e0810182525f80825260208201819052918101829052606081018290526080810182905260a0810182905260c08101919091526006828154811061060757610607612e89565b5f9182526020918290206040805160e08101825260059390930290910180546001600160a01b0381168452600160a01b90046001600160401b039081169484019490945260018101549183019190915260028101546060830152600381015460808301526004015491821660a0820152600160401b90910460501b6001600160501b03191660c082015292915050565b335f9081526008602052604090208054859190859081106106ba576106ba612e89565b905f5260205f200154146106e157604051630e7fea9d60e01b815260040160405180910390fd5b816001600160401b03165f0361070a5760405163a2ec3a5560e01b815260040160405180910390fd5b5f6006858154811061071e5761071e612e89565b905f5260205f20906005020190505f8160020154905061073d83611fe6565b8160010154810361076b5760048201805467ffffffffffffffff19166001600160401b038616179055610916565b6040805160e08101825283546001600160a01b0390811682526001600160401b0342811660208401908152938301858152606084018681525f608086018181528b851660a0880190815260048b01546001600160501b0319600160401b91829004605090811b9190911660c08b01908152600680546001810182559087529a516005909b027ff652222313e28459528d920b65115c16c04f3efc82aaedc97be59f3f377c0d3f810180549d518b16600160a01b026001600160e01b0319909e169c909b169b909b179b909b1790985594517ff652222313e28459528d920b65115c16c04f3efc82aaedc97be59f3f377c0d4089015592517ff652222313e28459528d920b65115c16c04f3efc82aaedc97be59f3f377c0d41880155517ff652222313e28459528d920b65115c16c04f3efc82aaedc97be59f3f377c0d4287015590517ff652222313e28459528d920b65115c16c04f3efc82aaedc97be59f3f377c0d439095018054965190941c9091026001600160f01b031990951693909116929092179290921790915560038301805483929061090a908490612eb1565b90915550505f60028301555b505050505050565b5f6006828154811061093257610932612e89565b905f5260205f209060050201600201549050919050565b6004546001600160a01b031633146109735760405162461bcd60e51b815260040161059390612e63565b600580546001600160a01b0319166001600160a01b0392909216919091179055565b5f600782815481106109a9576109a9612e89565b5f9182526020909120600b90910201905060026001820154600160401b900460ff1660048111156109dc576109dc612a32565b146109fa576040516320d55f6760e21b815260040160405180910390fd5b60018101546001600160401b0316421015610a2857604051632d5c37f560e21b815260040160405180910390fd5b610a5c604051806040016040528060138152602001721c1c9bdc1bdcd959109b1bd8dad2195a59da1d606a1b8152506120f4565b610a7d610a7882600601545f9081526020819052604090205490565b612137565b610aaf604051806040016040528060118152602001700e0e4dee0dee6cac884d8dec6d690c2e6d607b1b8152506120f4565b610abc8160070154612137565b600781015460068201545f9081526020819052604090205414610af25760405163c1f6fa5160e01b815260040160405180910390fd5b60018101805460ff60401b19166803000000000000000017905560045460058201545f9161271091610b2e91600160a81b900460ff1690612ec4565b610b389190612eef565b60055460405163a9059cbb60e01b81526001600160a01b039182166004820152602481018390529192507f0000000000000000000000000000000000000000000000000000000000000000169063a9059cbb906044016020604051808303815f875af1158015610baa573d5f803e3d5ffd5b505050506040513d601f19601f82011682018060405250810190610bce9190612f02565b507f00000000000000000000000000000000000000000000000000000000000000006001600160a01b031663a9059cbb8360010160099054906101000a90046001600160a01b0316838560050154610c269190612f1d565b6040516001600160e01b031960e085901b1681526001600160a01b03909216600483015260248201526044016020604051808303815f875af1158015610c6e573d5f803e3d5ffd5b505050506040513d601f19601f82011682018060405250810190610c929190612f02565b5060038201546040805185815260208101929092527f12245c00d428a4c558061d2f69fe154a203bd2fb4a65b6c3e73e95ccdc735d18910160405180910390a1505050565b6004546001600160a01b03163314610d015760405162461bcd60e51b815260040161059390612e63565b60048054911515600160a01b0260ff60a01b19909216919091179055565b600454600160a01b900460ff1615610d4a576040516348010c6560e11b815260040160405180910390fd5b816001600160401b03165f03610d735760405163a2ec3a5560e01b815260040160405180910390fd5b335f908152600860205260408120549003610dbf57604080515f602080830182815283850185528352338252600881529290208151805192939192610dbb9284920190612608565b5050505b6040805160e081018252338082526001600160401b034281166020808501918252848601898152606086018a81525f608088018181528b871660a08a019081526001600160501b03198c1660c08b0190815260068054600181810183558287529c5160059091027ff652222313e28459528d920b65115c16c04f3efc82aaedc97be59f3f377c0d3f810180549b518d16600160a01b026001600160e01b0319909c166001600160a01b0393909316929092179a909a17905595517ff652222313e28459528d920b65115c16c04f3efc82aaedc97be59f3f377c0d4089015593517ff652222313e28459528d920b65115c16c04f3efc82aaedc97be59f3f377c0d4188015590517ff652222313e28459528d920b65115c16c04f3efc82aaedc97be59f3f377c0d42870155517ff652222313e28459528d920b65115c16c04f3efc82aaedc97be59f3f377c0d439095018054925160501c600160401b026001600160f01b031990931695909616949094171790935592815260089092529290209154610f4a9190612f1d565b81546001810183555f9283526020909220909101556040516323b872dd60e01b8152336004820152306024820152604481018490527f00000000000000000000000000000000000000000000000000000000000000006001600160a01b0316906323b872dd906064016020604051808303815f875af1158015610fcf573d5f803e3d5ffd5b505050506040513d601f19601f82011682018060405250810190610ff39190612f02565b5060065433907ffd5ab8914e1dca355d18ae7fe50627d3afe042f323e1b0ae31f3a9d2cd19de379061102790600190612f1d565b60408051918252602082018790526001600160401b0386169082015260600160405180910390a2505050565b6040805160208082018352606082526001600160a01b0384165f90815260088252839020835181548084028201860186529281018381529394909391928492918491908401828280156110c357602002820191905f5260205f20905b8154815260200190600101908083116110af575b5050505050815250509050919050565b335f9081526008602052604090208054859190859081106110f6576110f6612e89565b905f5260205f2001541461111d57604051630e7fea9d60e01b815260040160405180910390fd5b61112681611fe6565b5f6006858154811061113a5761113a612e89565b905f5260205f2090600502019050826001600160c01b03165f148061116b57508060020154836001600160c01b0316115b156111895760405163b4e3d41360e01b815260040160405180910390fd5b826001600160c01b0316816002015f8282546111a59190612f1d565b92505081905550826001600160c01b0316816003015f8282546111c89190612eb1565b909155505060405163a9059cbb60e01b81523360048201526001600160c01b03841660248201527f00000000000000000000000000000000000000000000000000000000000000006001600160a01b03169063a9059cbb906044016020604051808303815f875af115801561123f573d5f803e3d5ffd5b505050506040513d601f19601f820116820180604052508101906109169190612f02565b5f6112706107e083612f30565b61127a9083612f1d565b92915050565b604080516101e0810182525f8082526020820181905291810182905260608082018390526080820183905260a0820183905260c0820183905260e0820183905261010082018390526101208201839052610140820183905261016082019290925261018081018290526101a081018290526101c08101919091526007828154811061130d5761130d612e89565b5f918252602091829020604080516101e081018252600b90930290910180546001600160a01b038116845263ffffffff600160a01b820416948401949094526001600160401b03600160c01b909404841691830191909152600181015492831660608301529091608083019060ff600160401b90910416600481111561139557611395612a32565b60048111156113a6576113a6612a32565b81526020016001820160099054906101000a90046001600160a01b03166001600160a01b03166001600160a01b031681526020016002820154815260200160038201548152602001600482015481526020016005820154815260200160068201548152602001600782015481526020016008820180548060200260200160405190810160405280929190818152602001828054801561146257602002820191905f5260205f20905b81548152602001906001019080831161144e575b50505050508152602001600982018054806020026020016040519081016040528092919081815260200182805480156114c257602002820191905f5260205f20905b81546001600160c01b031681526001909101906020018083116114a4575b50505050508152602001600a82018054806020026020016040519081016040528092919081815260200182805480156110c357602002820191905f5260205f20905f905b82829054906101000a90046001600160401b03166001600160401b0316815260200190600801906020826007010492830192600103820291508084116115065790505050505050815250509050919050565b8451158061156857508351855114155b156115865760405163744bba7b60e01b815260040160405180910390fd5b5f5b84518110156115de578481815181106115a3576115a3612e89565b60200260200101516001600160c01b03165f036115d657604051633143436b60e11b815260048101829052602401610593565b600101611588565b505f805f87516001600160401b038111156115fb576115fb6127bd565b604051908082528060200260200182016040528015611624578160200160208202803683370190505b5090505f5b8751811015611750575f60068a838151811061164757611647612e89565b60200260200101518154811061165f5761165f612e89565b5f91825260209091206004600590920201015489516001600160401b03909116915089908390811061169357611693612e89565b60200260200101516001600160c01b0316856116af9190612eb1565b94505f6116fe8a84815181106116c7576116c7612e89565b60200260200101516001600160c01b03167f000000000000000000000000000000000000000000000000000000000000000061217c565b90505f61170b8383612eef565b90506117178187612eb1565b95508085858151811061172c5761172c612e89565b6001600160401b039290921660209283029190910190910152505050600101611629565b5061175a84611fe6565b5f805b89518110156118db57600283828151811061177a5761177a612e89565b602002602001015160068c848151811061179657611796612e89565b6020026020010151815481106117ae576117ae612e89565b5f91825260209182902060046005909202010154604080516001600160401b03909416928401929092526001600160501b0319600160401b90910460501b16908201526060810184905260800160408051601f198184030181529082905261181591612f65565b602060405180830381855afa158015611830573d5f803e3d5ffd5b5050506040513d601f19601f820116820180604052508101906118539190612f80565b915060068a828151811061186957611869612e89565b60200260200101518154811061188157611881612e89565b905f5260205f209060050201600201548982815181106118a3576118a3612e89565b60200260200101516001600160c01b031611156118d357604051634323a55560e01b815260040160405180910390fd5b60010161175d565b50600754604080516001600160a01b038a16602082015242918101919091524660608201526080810183905260a08101919091525f9060c00160408051601f1981840301815282825280516020918201206101e0840183526001600160a01b038f1684525f9184018290526001600160401b034216928401929092526060830152915060079060808101600181526020018a6001600160a01b031681526020018481526020018381526020018981526020018781526020015f81526020015f801b81526020018c81526020018b815260200185815250908060018154018082558091505060019003905f5260205f2090600b02015f909190919091505f820151815f015f6101000a8154816001600160a01b0302191690836001600160a01b031602179055506020820151815f0160146101000a81548163ffffffff021916908363ffffffff1602179055506040820151815f0160186101000a8154816001600160401b0302191690836001600160401b031602179055506060820151816001015f6101000a8154816001600160401b0302191690836001600160401b0316021790555060808201518160010160086101000a81548160ff02191690836004811115611aa957611aa9612a32565b021790555060a08201516001820180546001600160a01b039092166901000000000000000000027fffffff0000000000000000000000000000000000000000ffffffffffffffffff90921691909117905560c0820151600282015560e0820151600382015561010082015160048201556101208201516005820155610140820151600682015561016082015160078201556101808201518051611b56916008840191602090910190612608565b506101a08201518051611b73916009840191602090910190612651565b506101c08201518051611b9091600a8401916020909101906126a4565b5050505f5b8a51811015611c1757898181518110611bb057611bb0612e89565b60200260200101516001600160c01b031660068c8381518110611bd557611bd5612e89565b602002602001015181548110611bed57611bed612e89565b905f5260205f2090600502016002015f828254611c0a9190612f1d565b9091555050600101611b95565b508a6001600160a01b03167f5956135c9be999a50f7ff4ea49ddf1485bc321ab333dc7a0877633eeb47528936001611c4e60075490565b611c589190612f1d565b6040805191825260208201859052015b60405180910390a25050505050505050505050565b5f60078a81548110611c9157611c91612e89565b5f9182526020909120600b909102019050600180820154600160401b900460ff166004811115611cc357611cc3612a32565b14611ce157604051639085371960e01b815260040160405180910390fd5b5f6040518061016001604052808b81526020018a8152602001836002015481526020018360030154815260200183600801805490506001600160401b03168152602001611d3661053c8b63ffffffff16611263565b815263ffffffff8a1660208201819052604090910190611d56908a612f97565b6001600160401b03168152602001611d6e8989612f97565b6001600160401b0316815260200186815260200185815250604051602001611d969190612fbe565b60408051601f198184030181529082905263020a49e360e51b825291506001600160a01b037f000000000000000000000000000000000000000000000000000000000000000016906341493c6090611e16907f000000000000000000000000000000000000000000000000000000000000000090859088906004016130c7565b5f6040518083038186803b158015611e2c575f80fd5b505afa158015611e3e573d5f803e3d5ffd5b50611e759250505063ffffffff89166001600160401b038981169089168888611e67858e612f97565b6001600160401b03166121b7565b60018201805460ff60401b191668020000000000000000179055611e9b61012c426130f1565b60018301805467ffffffffffffffff19166001600160401b039283161790558716600683015584611ed263ffffffff8a1689612f97565b6001600160401b031681518110611eeb57611eeb612e89565b60200260200101518260070181905550336001600160a01b03167f8bcdab581a6176f792fa96b0c57d32273bcd8621b0548c15a9c6379dc246e26c8c8460030154604051611c68929190918252602082015260400190565b5f81815260208190526040902054611f6e5760405163fa4a5e4560e01b815260040160405180910390fd5b50565b6004546001600160a01b03163314611f9b5760405162461bcd60e51b815260040161059390612e63565b600480546001600160a01b0319166001600160a01b03831690811790915560405133907f8be0079c531659141344cd1fd0a4f28419497f9722a3daafe3b4186f6b6457e0905f90a350565b611fef81612557565b5f5b81518110156120f0575f600783838151811061200f5761200f612e89565b60200260200101518154811061202757612027612e89565b905f5260205f2090600b020190505f5b60088201548110156120ce575f600683600801838154811061205b5761205b612e89565b905f5260205f2001548154811061207457612074612e89565b905f5260205f209060050201905082600901828154811061209757612097612e89565b5f9182526020822001546002830180546001600160c01b039092169290916120c0908490612eb1565b909155505050600101612037565b506001908101805460ff60401b19166804000000000000000017905501611ff1565b5050565b611f6e816040516024016121089190613111565b60408051601f198184030181529190526020810180516001600160e01b031663104c13eb60e21b1790526125e8565b611f6e8160405160240161214d91815260200190565b60408051601f198184030181529190526020810180516001600160e01b03166327b7cf8560e01b1790526125e8565b5f60128260ff1610156121b057612194826012613123565b61219f90600a61321c565b6121a99084612ec4565b905061127a565b5090919050565b6002545f8181526001602052604090205460ff7f0000000000000000000000000000000000000000000000000000000000000000166121f68888612f1d565b1015612250575f868152602081905260409020548551869061221a90600190612f1d565b8151811061222a5761222a612e89565b602002602001015114612250576040516341305f6360e01b815260040160405180910390fd5b818811156122715760405163575f3da360e01b815260040160405180910390fd5b84838151811061228357612283612e89565b60200260200101515f808981526020019081526020015f2054036122a8575050610916565b5f87815260208190526040902054158015906122ea575083600185516122ce9190612f1d565b815181106122de576122de612e89565b60200260200101518110155b15612308576040516371e98f3d60e11b815260040160405180910390fd5b8187111561240e578188036123795784838151811061232957612329612e89565b60200260200101515f808981526020019081526020015f208190555083838151811061235757612357612e89565b602002602001015160015f8981526020019081526020015f2081905550612474565b8188101561240957875b87811161240757856123958a83612f1d565b815181106123a5576123a5612e89565b6020908102919091018101515f83815291829052604090912055846123ca8a83612f1d565b815181106123da576123da612e89565b6020908102919091018101515f8381526001909252604090912055806123ff8161322a565b915050612383565b505b612474565b818710156124745784838151811061242857612428612e89565b60200260200101515f808981526020019081526020015f208190555083838151811061245657612456612e89565b602002602001015160015f8981526020019081526020015f20819055505b6002548711156124845760028790555b5f61248e88611263565b90505f61249a88611263565b905081811461250f575f6124ae828a612f1d565b90508781815181106124c2576124c2612e89565b60200260200101515f808481526020019081526020015f20819055508681815181106124f0576124f0612e89565b602002602001015160015f8481526020019081526020015f2081905550505b8651604080518c815260208101929092527fb68477c768bbb33b4f238a3dfd17c33c499268c59cd042b7936bbc23dc2bdd34910160405180910390a150505050505050505050565b5f5b81518110156120f05761708063ffffffff16600783838151811061257f5761257f612e89565b60200260200101518154811061259757612597612e89565b5f9182526020909120600b90910201546125c190600160c01b90046001600160401b031642612f1d565b10156125e0576040516326349d6b60e01b815260040160405180910390fd5b600101612559565b80516a636f6e736f6c652e6c6f67602083015f808483855afa5050505050565b828054828255905f5260205f20908101928215612641579160200282015b82811115612641578251825591602001919060010190612626565b5061264d929150612750565b5090565b828054828255905f5260205f20908101928215612641579160200282015b8281111561264157825182546001600160c01b0319166001600160c01b0390911617825560209092019160019091019061266f565b828054828255905f5260205f2090600301600490048101928215612641579160200282015f5b8382111561271457835183826101000a8154816001600160401b0302191690836001600160401b0316021790555092602001926008016020816007010492830192600103026126ca565b80156127475782816101000a8154906001600160401b030219169055600801602081600701049283019260010302612714565b505061264d9291505b5b8082111561264d575f8155600101612751565b5f60208284031215612774575f80fd5b813560ff81168114612784575f80fd5b9392505050565b5f6020828403121561279b575f80fd5b5035919050565b80356001600160401b03811681146127b8575f80fd5b919050565b634e487b7160e01b5f52604160045260245ffd5b604051601f8201601f191681016001600160401b03811182821017156127f9576127f96127bd565b604052919050565b5f6001600160401b03821115612819576128196127bd565b5060051b60200190565b5f82601f830112612832575f80fd5b8135602061284761284283612801565b6127d1565b8083825260208201915060208460051b870101935086841115612868575f80fd5b602086015b84811015612884578035835291830191830161286d565b509695505050505050565b5f805f80608085870312156128a2575f80fd5b84359350602085013592506128b9604086016127a2565b915060608501356001600160401b038111156128d3575f80fd5b6128df87828801612823565b91505092959194509250565b6001600160a01b0381168114611f6e575f80fd5b5f6020828403121561290f575f80fd5b8135612784816128eb565b8015158114611f6e575f80fd5b5f60208284031215612937575f80fd5b81356127848161291a565b5f805f60608486031215612954575f80fd5b83359250612964602085016127a2565b915060408401356001600160501b031981168114612980575f80fd5b809150509250925092565b80356127b8816128eb565b5f815180845260208085019450602084015f5b838110156129c5578151875295820195908201906001016129a9565b509495945050505050565b602081525f82516020808401526129ea6040840182612996565b949350505050565b80356001600160c01b03811681146127b8575f80fd5b5f805f8060808587031215612a1b575f80fd5b84359350602085013592506128b9604086016129f2565b634e487b7160e01b5f52602160045260245ffd5b60058110612a6257634e487b7160e01b5f52602160045260245ffd5b9052565b5f815180845260208085019450602084015f5b838110156129c55781516001600160c01b031687529582019590820190600101612a79565b5f815180845260208085019450602084015f5b838110156129c55781516001600160401b031687529582019590820190600101612ab1565b60208152612af06020820183516001600160a01b03169052565b5f6020830151612b08604084018263ffffffff169052565b5060408301516001600160401b03811660608401525060608301516001600160401b0381166080840152506080830151612b4560a0840182612a46565b5060a08301516001600160a01b03811660c08401525060c083015160e08381019190915283015161010080840191909152830151610120808401919091528301516101408084019190915283015161016080840191909152830151610180808401919091528301516101e06101a0808501829052612bc7610200860184612996565b9250808601519050601f196101c0818786030181880152612be88584612a66565b908801518782039092018488015293509050612c048382612a9e565b9695505050505050565b5f805f805f8060c08789031215612c23575f80fd5b8635612c2e816128eb565b95506020878101356001600160401b0380821115612c4a575f80fd5b612c568b838c01612823565b975060408a0135915080821115612c6b575f80fd5b818a0191508a601f830112612c7e575f80fd5b8135612c8c61284282612801565b81815260059190911b8301840190848101908d831115612caa575f80fd5b938501935b82851015612ccf57612cc0856129f2565b82529385019390850190612caf565b9850612ce091505060608b0161298b565b955060808a0135945060a08a0135925080831115612cfc575f80fd5b5050612d0a89828a01612823565b9150509295509295509295565b803563ffffffff811681146127b8575f80fd5b5f82601f830112612d39575f80fd5b81356001600160401b03811115612d5257612d526127bd565b612d65601f8201601f19166020016127d1565b818152846020838601011115612d79575f80fd5b816020850160208301375f918101602001919091529392505050565b5f805f805f805f805f6101208a8c031215612dae575f80fd5b8935985060208a0135975060408a01359650612dcc60608b01612d17565b9550612dda60808b016127a2565b9450612de860a08b016127a2565b935060c08a01356001600160401b0380821115612e03575f80fd5b612e0f8d838e01612823565b945060e08c0135915080821115612e24575f80fd5b612e308d838e01612823565b93506101008c0135915080821115612e46575f80fd5b50612e538c828d01612d2a565b9150509295985092959850929598565b6020808252600c908201526b15539055551213d49256915160a21b604082015260600190565b634e487b7160e01b5f52603260045260245ffd5b634e487b7160e01b5f52601160045260245ffd5b8082018082111561127a5761127a612e9d565b808202811582820484141761127a5761127a612e9d565b634e487b7160e01b5f52601260045260245ffd5b5f82612efd57612efd612edb565b500490565b5f60208284031215612f12575f80fd5b81516127848161291a565b8181038181111561127a5761127a612e9d565b5f82612f3e57612f3e612edb565b500690565b5f5b83811015612f5d578181015183820152602001612f45565b50505f910152565b5f8251612f76818460208701612f43565b9190910192915050565b5f60208284031215612f90575f80fd5b5051919050565b6001600160401b03828116828216039080821115612fb757612fb7612e9d565b5092915050565b60208152815160208201526020820151604082015260408201516060820152606082015160808201525f608083015161300260a08401826001600160401b03169052565b5060a083015160c083015260c083015161302760e08401826001600160401b03169052565b5060e0830151610100613044818501836001600160401b03169052565b8401519050610120613060848201836001600160401b03169052565b808501519150506101606101408181860152613080610180860184612996565b90860151858203601f190183870152909250612c048382612996565b5f81518084526130b3816020860160208601612f43565b601f01601f19169290920160200192915050565b838152606060208201525f6130df606083018561309c565b8281036040840152612c04818561309c565b6001600160401b03818116838216019080821115612fb757612fb7612e9d565b602081525f612784602083018461309c565b60ff828116828216039081111561127a5761127a612e9d565b600181815b8085111561317657815f190482111561315c5761315c612e9d565b8085161561316957918102915b93841c9390800290613141565b509250929050565b5f8261318c5750600161127a565b8161319857505f61127a565b81600181146131ae57600281146131b8576131d4565b600191505061127a565b60ff8411156131c9576131c9612e9d565b50506001821b61127a565b5060208310610133831016604e8410600b84101617156131f7575081810a61127a565b613201838361313c565b805f190482111561321457613214612e9d565b029392505050565b5f61278460ff84168361317e565b5f6001820161323b5761323b612e9d565b506001019056fea26469706673582212205df2639b7ed8c1d4d2feb296d23b3e1b6a608675c98867becb8b0163b0e2911564736f6c63430008180033","linkReferences":{}},"methodIdentifiers":{"CHALLENGE_PERIOD()":"c3a079ed","CIRCUIT_VERIFICATION_KEY()":"8d5ca052","DEPOSIT_TOKEN()":"13f66587","RESERVATION_LOCKUP_PERIOD()":"89a11f7a","TOKEN_DECIMALS()":"5b7f415c","VERIFIER_CONTRACT()":"b8b24592","calculateRetargetHeight(uint256)":"b9b2a982","currentConfirmationHeight()":"fba78166","currentHeight()":"163de0c5","depositLiquidity(uint256,uint64,bytes22)":"803d5f62","getAreDepositsPaused()":"b01c27d1","getBlockHash(uint256)":"ee82ac5e","getChainwork(uint256)":"cda7d82c","getDepositVault(uint256)":"276d080e","getDepositVaultUnreservedBalance(uint256)":"6512d057","getDepositVaultsLength()":"7dce5550","getLiquidityProvider(address)":"98f9e757","getReservation(uint256)":"d57763c3","getReservationLength()":"ea6fe03e","isDepositNewLiquidityPaused()":"8cc63cdd","owner()":"8da5cb5b","protocolFeeBP()":"c5fba0b8","releaseLiquidity(uint256)":"77891907","reserveLiquidity(address,uint256[],uint192[],address,uint256,uint256[])":"d8418403","submitSwapProof(uint256,bytes32,bytes32,uint32,uint64,uint64,bytes32[],uint256[],bytes)":"ecdea06f","transferOwnership(address)":"f2fde38b","updateExchangeRate(uint256,uint256,uint64,uint256[])":"56fe6f86","updateFeeRouter(address)":"73e149e6","updateNewLiquidityDepositsPaused(bool)":"7a9059a2","updateProtocolFee(uint8)":"0a7aa293","validateBlockExists(uint256)":"ed8b2b32","withdrawLiquidity(uint256,uint256,uint192,uint256[])":"aeacb2e7"},"storageLayout":{"storage":[{"astId":47993,"contract":"src/RiftExchange.sol:RiftExchange","label":"blockchain","offset":0,"slot":"0","type":"t_mapping(t_uint256,t_bytes32)"},{"astId":47997,"contract":"src/RiftExchange.sol:RiftExchange","label":"chainworks","offset":0,"slot":"1","type":"t_mapping(t_uint256,t_uint256)"},{"astId":47999,"contract":"src/RiftExchange.sol:RiftExchange","label":"currentHeight","offset":0,"slot":"2","type":"t_uint256"},{"astId":48001,"contract":"src/RiftExchange.sol:RiftExchange","label":"currentConfirmationHeight","offset":0,"slot":"3","type":"t_uint256"},{"astId":46637,"contract":"src/RiftExchange.sol:RiftExchange","label":"owner","offset":0,"slot":"4","type":"t_address"},{"astId":49398,"contract":"src/RiftExchange.sol:RiftExchange","label":"isDepositNewLiquidityPaused","offset":20,"slot":"4","type":"t_bool"},{"astId":49401,"contract":"src/RiftExchange.sol:RiftExchange","label":"protocolFeeBP","offset":21,"slot":"4","type":"t_uint8"},{"astId":49403,"contract":"src/RiftExchange.sol:RiftExchange","label":"feeRouterAddress","offset":0,"slot":"5","type":"t_address"},{"astId":49407,"contract":"src/RiftExchange.sol:RiftExchange","label":"depositVaults","offset":0,"slot":"6","type":"t_array(t_struct(DepositVault)49348_storage)dyn_storage"},{"astId":49411,"contract":"src/RiftExchange.sol:RiftExchange","label":"swapReservations","offset":0,"slot":"7","type":"t_array(t_struct(SwapReservation)49329_storage)dyn_storage"},{"astId":49416,"contract":"src/RiftExchange.sol:RiftExchange","label":"liquidityProviders","offset":0,"slot":"8","type":"t_mapping(t_address,t_struct(LiquidityProvider)49333_storage)"}],"types":{"t_address":{"encoding":"inplace","label":"address","numberOfBytes":"20"},"t_array(t_struct(DepositVault)49348_storage)dyn_storage":{"encoding":"dynamic_array","label":"struct RiftExchange.DepositVault[]","numberOfBytes":"32","base":"t_struct(DepositVault)49348_storage"},"t_array(t_struct(SwapReservation)49329_storage)dyn_storage":{"encoding":"dynamic_array","label":"struct RiftExchange.SwapReservation[]","numberOfBytes":"32","base":"t_struct(SwapReservation)49329_storage"},"t_array(t_uint192)dyn_storage":{"encoding":"dynamic_array","label":"uint192[]","numberOfBytes":"32","base":"t_uint192"},"t_array(t_uint256)dyn_storage":{"encoding":"dynamic_array","label":"uint256[]","numberOfBytes":"32","base":"t_uint256"},"t_array(t_uint64)dyn_storage":{"encoding":"dynamic_array","label":"uint64[]","numberOfBytes":"32","base":"t_uint64"},"t_bool":{"encoding":"inplace","label":"bool","numberOfBytes":"1"},"t_bytes22":{"encoding":"inplace","label":"bytes22","numberOfBytes":"22"},"t_bytes32":{"encoding":"inplace","label":"bytes32","numberOfBytes":"32"},"t_enum(ReservationState)49294":{"encoding":"inplace","label":"enum RiftExchange.ReservationState","numberOfBytes":"1"},"t_mapping(t_address,t_struct(LiquidityProvider)49333_storage)":{"encoding":"mapping","key":"t_address","label":"mapping(address => struct RiftExchange.LiquidityProvider)","numberOfBytes":"32","value":"t_struct(LiquidityProvider)49333_storage"},"t_mapping(t_uint256,t_bytes32)":{"encoding":"mapping","key":"t_uint256","label":"mapping(uint256 => bytes32)","numberOfBytes":"32","value":"t_bytes32"},"t_mapping(t_uint256,t_uint256)":{"encoding":"mapping","key":"t_uint256","label":"mapping(uint256 => uint256)","numberOfBytes":"32","value":"t_uint256"},"t_struct(DepositVault)49348_storage":{"encoding":"inplace","label":"struct RiftExchange.DepositVault","numberOfBytes":"160","members":[{"astId":49335,"contract":"src/RiftExchange.sol:RiftExchange","label":"owner","offset":0,"slot":"0","type":"t_address"},{"astId":49337,"contract":"src/RiftExchange.sol:RiftExchange","label":"depositTimestamp","offset":20,"slot":"0","type":"t_uint64"},{"astId":49339,"contract":"src/RiftExchange.sol:RiftExchange","label":"initialBalance","offset":0,"slot":"1","type":"t_uint256"},{"astId":49341,"contract":"src/RiftExchange.sol:RiftExchange","label":"unreservedBalance","offset":0,"slot":"2","type":"t_uint256"},{"astId":49343,"contract":"src/RiftExchange.sol:RiftExchange","label":"withdrawnAmount","offset":0,"slot":"3","type":"t_uint256"},{"astId":49345,"contract":"src/RiftExchange.sol:RiftExchange","label":"exchangeRate","offset":0,"slot":"4","type":"t_uint64"},{"astId":49347,"contract":"src/RiftExchange.sol:RiftExchange","label":"btcPayoutLockingScript","offset":8,"slot":"4","type":"t_bytes22"}]},"t_struct(LiquidityProvider)49333_storage":{"encoding":"inplace","label":"struct RiftExchange.LiquidityProvider","numberOfBytes":"32","members":[{"astId":49332,"contract":"src/RiftExchange.sol:RiftExchange","label":"depositVaultIndexes","offset":0,"slot":"0","type":"t_array(t_uint256)dyn_storage"}]},"t_struct(SwapReservation)49329_storage":{"encoding":"inplace","label":"struct RiftExchange.SwapReservation","numberOfBytes":"352","members":[{"astId":49296,"contract":"src/RiftExchange.sol:RiftExchange","label":"owner","offset":0,"slot":"0","type":"t_address"},{"astId":49298,"contract":"src/RiftExchange.sol:RiftExchange","label":"confirmationBlockHeight","offset":20,"slot":"0","type":"t_uint32"},{"astId":49300,"contract":"src/RiftExchange.sol:RiftExchange","label":"reservationTimestamp","offset":24,"slot":"0","type":"t_uint64"},{"astId":49302,"contract":"src/RiftExchange.sol:RiftExchange","label":"liquidityUnlockedTimestamp","offset":0,"slot":"1","type":"t_uint64"},{"astId":49305,"contract":"src/RiftExchange.sol:RiftExchange","label":"state","offset":8,"slot":"1","type":"t_enum(ReservationState)49294"},{"astId":49307,"contract":"src/RiftExchange.sol:RiftExchange","label":"ethPayoutAddress","offset":9,"slot":"1","type":"t_address"},{"astId":49309,"contract":"src/RiftExchange.sol:RiftExchange","label":"lpReservationHash","offset":0,"slot":"2","type":"t_bytes32"},{"astId":49311,"contract":"src/RiftExchange.sol:RiftExchange","label":"nonce","offset":0,"slot":"3","type":"t_bytes32"},{"astId":49313,"contract":"src/RiftExchange.sol:RiftExchange","label":"totalSatsInputIncludingProxyFee","offset":0,"slot":"4","type":"t_uint256"},{"astId":49315,"contract":"src/RiftExchange.sol:RiftExchange","label":"totalSwapOutputAmount","offset":0,"slot":"5","type":"t_uint256"},{"astId":49317,"contract":"src/RiftExchange.sol:RiftExchange","label":"proposedBlockHeight","offset":0,"slot":"6","type":"t_uint256"},{"astId":49319,"contract":"src/RiftExchange.sol:RiftExchange","label":"proposedBlockHash","offset":0,"slot":"7","type":"t_bytes32"},{"astId":49322,"contract":"src/RiftExchange.sol:RiftExchange","label":"vaultIndexes","offset":0,"slot":"8","type":"t_array(t_uint256)dyn_storage"},{"astId":49325,"contract":"src/RiftExchange.sol:RiftExchange","label":"amountsToReserve","offset":0,"slot":"9","type":"t_array(t_uint192)dyn_storage"},{"astId":49328,"contract":"src/RiftExchange.sol:RiftExchange","label":"expectedSatsOutput","offset":0,"slot":"10","type":"t_array(t_uint64)dyn_storage"}]},"t_uint192":{"encoding":"inplace","label":"uint192","numberOfBytes":"24"},"t_uint256":{"encoding":"inplace","label":"uint256","numberOfBytes":"32"},"t_uint32":{"encoding":"inplace","label":"uint32","numberOfBytes":"4"},"t_uint64":{"encoding":"inplace","label":"uint64","numberOfBytes":"8"},"t_uint8":{"encoding":"inplace","label":"uint8","numberOfBytes":"1"}}},"id":32}