{"abi":[{"type":"constructor","inputs":[{"name":"initialCheckpointHeight","type":"uint256","internalType":"uint256"},{"name":"initialBlockHash","type":"bytes32","internalType":"bytes32"},{"name":"initialRetargetBlockHash","type":"bytes32","internalType":"bytes32"},{"name":"initialChainwork","type":"uint256","internalType":"uint256"},{"name":"verifierContractAddress","type":"address","internalType":"address"},{"name":"depositTokenAddress","type":"address","internalType":"address"},{"name":"initialFeeRouterAddress","type":"address","internalType":"address"},{"name":"owner","type":"address","internalType":"address"},{"name":"circuitVerificationKey","type":"bytes32","internalType":"bytes32"},{"name":"minimumConfirmationDelta","type":"uint8","internalType":"uint8"}],"stateMutability":"nonpayable"},{"type":"function","name":"CHALLENGE_PERIOD","inputs":[],"outputs":[{"name":"","type":"uint32","internalType":"uint32"}],"stateMutability":"view"},{"type":"function","name":"CIRCUIT_VERIFICATION_KEY","inputs":[],"outputs":[{"name":"","type":"bytes32","internalType":"bytes32"}],"stateMutability":"view"},{"type":"function","name":"DEPOSIT_TOKEN","inputs":[],"outputs":[{"name":"","type":"address","internalType":"contract IERC20"}],"stateMutability":"view"},{"type":"function","name":"RESERVATION_LOCKUP_PERIOD","inputs":[],"outputs":[{"name":"","type":"uint32","internalType":"uint32"}],"stateMutability":"view"},{"type":"function","name":"TOKEN_DECIMALS","inputs":[],"outputs":[{"name":"","type":"uint8","internalType":"uint8"}],"stateMutability":"view"},{"type":"function","name":"VERIFIER_CONTRACT","inputs":[],"outputs":[{"name":"","type":"address","internalType":"contract ISP1Verifier"}],"stateMutability":"view"},{"type":"function","name":"buildPublicInputs","inputs":[{"name":"swapReservationIndex","type":"uint256","internalType":"uint256"},{"name":"bitcoinTxId","type":"bytes32","internalType":"bytes32"},{"name":"merkleRoot","type":"bytes32","internalType":"bytes32"},{"name":"safeBlockHeight","type":"uint32","internalType":"uint32"},{"name":"proposedBlockHeight","type":"uint64","internalType":"uint64"},{"name":"confirmationBlockHeight","type":"uint64","internalType":"uint64"},{"name":"blockHashes","type":"bytes32[]","internalType":"bytes32[]"},{"name":"blockChainworks","type":"uint256[]","internalType":"uint256[]"}],"outputs":[{"name":"","type":"tuple","internalType":"struct RiftExchange.ProofPublicInputs","components":[{"name":"natural_txid","type":"bytes32","internalType":"bytes32"},{"name":"merkle_root","type":"bytes32","internalType":"bytes32"},{"name":"lp_reservation_hash","type":"bytes32","internalType":"bytes32"},{"name":"order_nonce","type":"bytes32","internalType":"bytes32"},{"name":"lp_count","type":"uint64","internalType":"uint64"},{"name":"retarget_block_hash","type":"bytes32","internalType":"bytes32"},{"name":"safe_block_height","type":"uint64","internalType":"uint64"},{"name":"safe_block_height_delta","type":"uint64","internalType":"uint64"},{"name":"confirmation_block_height_delta","type":"uint64","internalType":"uint64"},{"name":"block_hashes","type":"bytes32[]","internalType":"bytes32[]"},{"name":"block_chainworks","type":"uint256[]","internalType":"uint256[]"}]}],"stateMutability":"view"},{"type":"function","name":"calculateRetargetHeight","inputs":[{"name":"blockHeight","type":"uint256","internalType":"uint256"}],"outputs":[{"name":"","type":"uint256","internalType":"uint256"}],"stateMutability":"pure"},{"type":"function","name":"currentConfirmationHeight","inputs":[],"outputs":[{"name":"","type":"uint256","internalType":"uint256"}],"stateMutability":"view"},{"type":"function","name":"currentHeight","inputs":[],"outputs":[{"name":"","type":"uint256","internalType":"uint256"}],"stateMutability":"view"},{"type":"function","name":"depositLiquidity","inputs":[{"name":"depositAmount","type":"uint256","internalType":"uint256"},{"name":"exchangeRate","type":"uint64","internalType":"uint64"},{"name":"btcPayoutLockingScript","type":"bytes22","internalType":"bytes22"}],"outputs":[],"stateMutability":"nonpayable"},{"type":"function","name":"depositVaults","inputs":[{"name":"","type":"uint256","internalType":"uint256"}],"outputs":[{"name":"owner","type":"address","internalType":"address"},{"name":"depositTimestamp","type":"uint64","internalType":"uint64"},{"name":"initialBalance","type":"uint256","internalType":"uint256"},{"name":"unreservedBalance","type":"uint256","internalType":"uint256"},{"name":"withdrawnAmount","type":"uint256","internalType":"uint256"},{"name":"exchangeRate","type":"uint64","internalType":"uint64"},{"name":"btcPayoutLockingScript","type":"bytes22","internalType":"bytes22"}],"stateMutability":"view"},{"type":"function","name":"getAreDepositsPaused","inputs":[],"outputs":[{"name":"","type":"bool","internalType":"bool"}],"stateMutability":"view"},{"type":"function","name":"getBlockHash","inputs":[{"name":"blockHeight","type":"uint256","internalType":"uint256"}],"outputs":[{"name":"","type":"bytes32","internalType":"bytes32"}],"stateMutability":"view"},{"type":"function","name":"getChainwork","inputs":[{"name":"blockHeight","type":"uint256","internalType":"uint256"}],"outputs":[{"name":"","type":"uint256","internalType":"uint256"}],"stateMutability":"view"},{"type":"function","name":"getDepositVault","inputs":[{"name":"depositIndex","type":"uint256","internalType":"uint256"}],"outputs":[{"name":"","type":"tuple","internalType":"struct RiftExchange.DepositVault","components":[{"name":"owner","type":"address","internalType":"address"},{"name":"depositTimestamp","type":"uint64","internalType":"uint64"},{"name":"initialBalance","type":"uint256","internalType":"uint256"},{"name":"unreservedBalance","type":"uint256","internalType":"uint256"},{"name":"withdrawnAmount","type":"uint256","internalType":"uint256"},{"name":"exchangeRate","type":"uint64","internalType":"uint64"},{"name":"btcPayoutLockingScript","type":"bytes22","internalType":"bytes22"}]}],"stateMutability":"view"},{"type":"function","name":"getDepositVaultUnreservedBalance","inputs":[{"name":"depositIndex","type":"uint256","internalType":"uint256"}],"outputs":[{"name":"","type":"uint256","internalType":"uint256"}],"stateMutability":"view"},{"type":"function","name":"getDepositVaultsLength","inputs":[],"outputs":[{"name":"","type":"uint256","internalType":"uint256"}],"stateMutability":"view"},{"type":"function","name":"getLiquidityProvider","inputs":[{"name":"lpAddress","type":"address","internalType":"address"}],"outputs":[{"name":"","type":"tuple","internalType":"struct RiftExchange.LiquidityProvider","components":[{"name":"depositVaultIndexes","type":"uint256[]","internalType":"uint256[]"}]}],"stateMutability":"view"},{"type":"function","name":"getReservation","inputs":[{"name":"reservationIndex","type":"uint256","internalType":"uint256"}],"outputs":[{"name":"","type":"tuple","internalType":"struct RiftExchange.SwapReservation","components":[{"name":"owner","type":"address","internalType":"address"},{"name":"confirmationBlockHeight","type":"uint32","internalType":"uint32"},{"name":"reservationTimestamp","type":"uint64","internalType":"uint64"},{"name":"liquidityUnlockedTimestamp","type":"uint64","internalType":"uint64"},{"name":"state","type":"uint8","internalType":"enum RiftExchange.ReservationState"},{"name":"ethPayoutAddress","type":"address","internalType":"address"},{"name":"lpReservationHash","type":"bytes32","internalType":"bytes32"},{"name":"nonce","type":"bytes32","internalType":"bytes32"},{"name":"totalSatsInputIncludingProxyFee","type":"uint256","internalType":"uint256"},{"name":"totalSwapOutputAmount","type":"uint256","internalType":"uint256"},{"name":"proposedBlockHeight","type":"uint256","internalType":"uint256"},{"name":"proposedBlockHash","type":"bytes32","internalType":"bytes32"},{"name":"vaultIndexes","type":"uint256[]","internalType":"uint256[]"},{"name":"amountsToReserve","type":"uint192[]","internalType":"uint192[]"},{"name":"expectedSatsOutput","type":"uint64[]","internalType":"uint64[]"}]}],"stateMutability":"view"},{"type":"function","name":"getReservationLength","inputs":[],"outputs":[{"name":"","type":"uint256","internalType":"uint256"}],"stateMutability":"view"},{"type":"function","name":"isDepositNewLiquidityPaused","inputs":[],"outputs":[{"name":"","type":"bool","internalType":"bool"}],"stateMutability":"view"},{"type":"function","name":"owner","inputs":[],"outputs":[{"name":"","type":"address","internalType":"address"}],"stateMutability":"view"},{"type":"function","name":"protocolFeeBP","inputs":[],"outputs":[{"name":"","type":"uint8","internalType":"uint8"}],"stateMutability":"view"},{"type":"function","name":"releaseLiquidity","inputs":[{"name":"swapReservationIndex","type":"uint256","internalType":"uint256"}],"outputs":[],"stateMutability":"nonpayable"},{"type":"function","name":"reserveLiquidity","inputs":[{"name":"reservationOwner","type":"address","internalType":"address"},{"name":"vaultIndexesToReserve","type":"uint256[]","internalType":"uint256[]"},{"name":"amountsToReserve","type":"uint192[]","internalType":"uint192[]"},{"name":"ethPayoutAddress","type":"address","internalType":"address"},{"name":"totalSatsInputIncludingProxyFee","type":"uint256","internalType":"uint256"},{"name":"expiredSwapReservationIndexes","type":"uint256[]","internalType":"uint256[]"}],"outputs":[],"stateMutability":"nonpayable"},{"type":"function","name":"submitSwapProof","inputs":[{"name":"swapReservationIndex","type":"uint256","internalType":"uint256"},{"name":"bitcoinTxId","type":"bytes32","internalType":"bytes32"},{"name":"merkleRoot","type":"bytes32","internalType":"bytes32"},{"name":"safeBlockHeight","type":"uint32","internalType":"uint32"},{"name":"proposedBlockHeight","type":"uint64","internalType":"uint64"},{"name":"confirmationBlockHeight","type":"uint64","internalType":"uint64"},{"name":"blockHashes","type":"bytes32[]","internalType":"bytes32[]"},{"name":"blockChainworks","type":"uint256[]","internalType":"uint256[]"},{"name":"proof","type":"bytes","internalType":"bytes"}],"outputs":[],"stateMutability":"nonpayable"},{"type":"function","name":"swapReservations","inputs":[{"name":"","type":"uint256","internalType":"uint256"}],"outputs":[{"name":"owner","type":"address","internalType":"address"},{"name":"confirmationBlockHeight","type":"uint32","internalType":"uint32"},{"name":"reservationTimestamp","type":"uint64","internalType":"uint64"},{"name":"liquidityUnlockedTimestamp","type":"uint64","internalType":"uint64"},{"name":"state","type":"uint8","internalType":"enum RiftExchange.ReservationState"},{"name":"ethPayoutAddress","type":"address","internalType":"address"},{"name":"lpReservationHash","type":"bytes32","internalType":"bytes32"},{"name":"nonce","type":"bytes32","internalType":"bytes32"},{"name":"totalSatsInputIncludingProxyFee","type":"uint256","internalType":"uint256"},{"name":"totalSwapOutputAmount","type":"uint256","internalType":"uint256"},{"name":"proposedBlockHeight","type":"uint256","internalType":"uint256"},{"name":"proposedBlockHash","type":"bytes32","internalType":"bytes32"}],"stateMutability":"view"},{"type":"function","name":"transferOwnership","inputs":[{"name":"newOwner","type":"address","internalType":"address"}],"outputs":[],"stateMutability":"nonpayable"},{"type":"function","name":"updateExchangeRate","inputs":[{"name":"globalVaultIndex","type":"uint256","internalType":"uint256"},{"name":"newExchangeRate","type":"uint64","internalType":"uint64"},{"name":"expiredSwapReservationIndexes","type":"uint256[]","internalType":"uint256[]"}],"outputs":[],"stateMutability":"nonpayable"},{"type":"function","name":"updateFeeRouter","inputs":[{"name":"newProtocolAddress","type":"address","internalType":"address payable"}],"outputs":[],"stateMutability":"nonpayable"},{"type":"function","name":"updateNewLiquidityDepositsPaused","inputs":[{"name":"newPauseState","type":"bool","internalType":"bool"}],"outputs":[],"stateMutability":"nonpayable"},{"type":"function","name":"updateProtocolFee","inputs":[{"name":"newProtocolFeeBP","type":"uint8","internalType":"uint8"}],"outputs":[],"stateMutability":"nonpayable"},{"type":"function","name":"validateBlockExists","inputs":[{"name":"blockHeight","type":"uint256","internalType":"uint256"}],"outputs":[],"stateMutability":"view"},{"type":"function","name":"withdrawLiquidity","inputs":[{"name":"globalVaultIndex","type":"uint256","internalType":"uint256"},{"name":"localVaultIndex","type":"uint256","internalType":"uint256"},{"name":"amountToWithdraw","type":"uint192","internalType":"uint192"},{"name":"expiredSwapReservationIndexes","type":"uint256[]","internalType":"uint256[]"}],"outputs":[],"stateMutability":"nonpayable"},{"type":"event","name":"BlocksAdded","inputs":[{"name":"startBlockHeight","type":"uint256","indexed":false,"internalType":"uint256"},{"name":"count","type":"uint256","indexed":false,"internalType":"uint256"}],"anonymous":false},{"type":"event","name":"LiquidityDeposited","inputs":[{"name":"depositor","type":"address","indexed":true,"internalType":"address"},{"name":"depositVaultIndex","type":"uint256","indexed":false,"internalType":"uint256"},{"name":"amount","type":"uint256","indexed":false,"internalType":"uint256"},{"name":"exchangeRate","type":"uint64","indexed":false,"internalType":"uint64"}],"anonymous":false},{"type":"event","name":"LiquidityReserved","inputs":[{"name":"reserver","type":"address","indexed":true,"internalType":"address"},{"name":"swapReservationIndex","type":"uint256","indexed":false,"internalType":"uint256"},{"name":"orderNonce","type":"bytes32","indexed":false,"internalType":"bytes32"}],"anonymous":false},{"type":"event","name":"OwnershipTransferred","inputs":[{"name":"user","type":"address","indexed":true,"internalType":"address"},{"name":"newOwner","type":"address","indexed":true,"internalType":"address"}],"anonymous":false},{"type":"event","name":"ProofSubmitted","inputs":[{"name":"prover","type":"address","indexed":true,"internalType":"address"},{"name":"swapReservationIndex","type":"uint256","indexed":false,"internalType":"uint256"},{"name":"orderNonce","type":"bytes32","indexed":false,"internalType":"bytes32"}],"anonymous":false},{"type":"event","name":"SwapComplete","inputs":[{"name":"swapReservationIndex","type":"uint256","indexed":false,"internalType":"uint256"},{"name":"orderNonce","type":"bytes32","indexed":false,"internalType":"bytes32"}],"anonymous":false},{"type":"error","name":"AmountToReserveTooLow","inputs":[{"name":"index","type":"uint256","internalType":"uint256"}]},{"type":"error","name":"BlockDoesNotExist","inputs":[]},{"type":"error","name":"InvalidConfirmationBlock","inputs":[]},{"type":"error","name":"InvalidExchangeRate","inputs":[]},{"type":"error","name":"InvalidInputArrays","inputs":[]},{"type":"error","name":"InvalidProposedBlockOverwrite","inputs":[]},{"type":"error","name":"InvalidReservationState","inputs":[]},{"type":"error","name":"InvalidSafeBlock","inputs":[]},{"type":"error","name":"NewDepositsPaused","inputs":[]},{"type":"error","name":"NotEnoughLiquidity","inputs":[]},{"type":"error","name":"NotVaultOwner","inputs":[]},{"type":"error","name":"OverwrittenProposedBlock","inputs":[]},{"type":"error","name":"ReservationNotExpired","inputs":[]},{"type":"error","name":"ReservationNotProved","inputs":[]},{"type":"error","name":"StillInChallengePeriod","inputs":[]},{"type":"error","name":"UpdateExchangeRateError","inputs":[]},{"type":"error","name":"WithdrawalAmountError","inputs":[]}],"bytecode":{"object":"0x6101206040526004805461ffff60a01b1916600560a91b17905534801562000025575f80fd5b5060405162003a4738038062003a478339810160408190526200004891620001f0565b60028a90555f8a81526001602090815260408083208a90559082905281208a905583908b9089908c908c9086908290806200008388620001a2565b8152602081019190915260409081015f9081209290925560ff909216608052600480546001600160a01b0389166001600160a01b03199091168117909155915191955093507f8be0079c531659141344cd1fd0a4f28419497f9722a3daafe3b4186f6b6457e09250839150a35060e08290526001600160a01b0380871661010052851660a08190526040805163313ce56760e01b8152905163313ce567916004808201926020929091908290030181865afa15801562000145573d5f803e3d5ffd5b505050506040513d601f19601f820116820180604052508101906200016b91906200028c565b60ff1660c0525050600580546001600160a01b0319166001600160a01b03939093169290921790915550620002ef95505050505050565b5f620001b16107e083620002af565b620001bd9083620002cf565b92915050565b80516001600160a01b0381168114620001da575f80fd5b919050565b805160ff81168114620001da575f80fd5b5f805f805f805f805f806101408b8d0312156200020b575f80fd5b8a51995060208b0151985060408b0151975060608b015196506200023260808c01620001c3565b95506200024260a08c01620001c3565b94506200025260c08c01620001c3565b93506200026260e08c01620001c3565b92506101008b015191506200027b6101208c01620001df565b90509295989b9194979a5092959850565b5f602082840312156200029d575f80fd5b620002a882620001df565b9392505050565b5f82620002ca57634e487b7160e01b5f52601260045260245ffd5b500690565b81810381811115620001bd57634e487b7160e01b5f52601160045260245ffd5b60805160a05160c05160e051610100516136e96200035e5f395f818161052f015261207501525f81816104b001526120a201525f818161033c0152611a2c01525f818161022601528181610ecb01528181610f38015281816112cb015261153b01525f61248401526136e95ff3fe608060405234801561000f575f80fd5b5060043610610208575f3560e01c80638d5ca0521161011f578063cda7d82c116100a9578063ecdea06f11610079578063ecdea06f146105db578063ed8b2b32146105ee578063ee82ac5e14610601578063f2fde38b14610620578063fba7816614610633575f80fd5b8063cda7d82c14610581578063d57763c3146105a0578063d8418403146105c0578063ea6fe03e146105d3575f80fd5b8063b01c27d1116100ef578063b01c27d114610518578063b8b245921461052a578063b9b2a98214610551578063c3a079ed14610564578063c5fba0b81461056d575f80fd5b80638d5ca052146104ab5780638da5cb5b146104d257806398f9e757146104e5578063aeacb2e714610505575f80fd5b80636512d057116101a05780637a9059a2116101705780637a9059a21461043b5780637dce55501461044e578063803d5f621461045657806389a11f7a146104695780638cc63cdd14610487575f80fd5b80636512d057146103d75780636b994abb146103ea57806373e149e6146104155780637789190714610428575f80fd5b8063276d080e116101db578063276d080e1461029c578063505675dd146103245780635b7f415c146103375780635f4d061014610370575f80fd5b80630a7aa2931461020c57806313f6658714610221578063163de0c5146102655780631753b4e11461027c575b5f80fd5b61021f61021a366004612a81565b61063c565b005b6102487f000000000000000000000000000000000000000000000000000000000000000081565b6040516001600160a01b0390911681526020015b60405180910390f35b61026e60025481565b60405190815260200161025c565b61028f61028a366004612ba8565b61068f565b60405161025c9190612c8d565b6102af6102aa366004612d75565b6107bd565b60405161025c919081516001600160a01b031681526020808301516001600160401b039081169183019190915260408084015190830152606080840151908301526080808401519083015260a0838101519091169082015260c0918201516001600160501b0319169181019190915260e00190565b61021f610332366004612d8c565b610898565b61035e7f000000000000000000000000000000000000000000000000000000000000000081565b60405160ff909116815260200161025c565b61038361037e366004612d75565b610b87565b604080516001600160a01b0390981688526001600160401b039687166020890152870194909452606086019290925260808501529190911660a08301526001600160501b03191660c082015260e00161025c565b61026e6103e5366004612d75565b610bf0565b6103fd6103f8366004612d75565b610c1b565b60405161025c9c9b9a99989796959493929190612e12565b61021f610423366004612ea7565b610cb0565b61021f610436366004612d75565b610cfc565b61021f610449366004612ecf565b61103e565b60065461026e565b61021f610464366004612eea565b611086565b61047261384081565b60405163ffffffff909116815260200161025c565b60045461049b90600160a01b900460ff1681565b604051901515815260200161025c565b61026e7f000000000000000000000000000000000000000000000000000000000000000081565b600454610248906001600160a01b031681565b6104f86104f3366004612ea7565b61139d565b60405161025c9190612f3e565b61021f610513366004612f76565b61141d565b600454600160a01b900460ff1661049b565b6102487f000000000000000000000000000000000000000000000000000000000000000081565b61026e61055f366004612d75565b6115b5565b61047261012c81565b60045461035e90600160a81b900460ff1681565b61026e61058f366004612d75565b5f9081526001602052604090205490565b6105b36105ae366004612d75565b6115d2565b60405161025c9190613042565b61021f6105ce366004613170565b6118aa565b60075461026e565b61021f6105e93660046132e4565b611fc9565b61021f6105fc366004612d75565b6121fb565b61026e61060f366004612d75565b5f9081526020819052604090205490565b61021f61062e366004612ea7565b612229565b61026e60035481565b6004546001600160a01b0316331461066f5760405162461bcd60e51b8152600401610666906133b2565b60405180910390fd5b6004805460ff909216600160a81b0260ff60a81b19909216919091179055565b60408051610160810182525f8082526020820181905291810182905260608082018390526080820183905260a0820183905260c0820183905260e0820183905261010082018390526101208201819052610140820152600780549192918b9081106106fc576106fc6133d8565b905f5260205f2090600b020190506040518061016001604052808a8152602001898152602001826002015481526020018260030154815260200182600801805490506001600160401b0316815260200161075e61060f8a63ffffffff166115b5565b815263ffffffff89166020820181905260409091019061077e9089613400565b6001600160401b031681526020016107968888613400565b6001600160401b031681526020018581526020018481525091505098975050505050505050565b6040805160e0810182525f80825260208201819052918101829052606081018290526080810182905260a0810182905260c081019190915260068281548110610808576108086133d8565b5f9182526020918290206040805160e08101825260059390930290910180546001600160a01b0381168452600160a01b90046001600160401b039081169484019490945260018101549183019190915260028101546060830152600381015460808301526004015491821660a0820152600160401b90910460501b6001600160501b03191660c082015292915050565b336001600160a01b0316600684815481106108b5576108b56133d8565b5f9182526020909120600590910201546001600160a01b0316146108ec57604051630e7fea9d60e01b815260040160405180910390fd5b816001600160401b03165f036109155760405163a2ec3a5560e01b815260040160405180910390fd5b5f60068481548110610929576109296133d8565b905f5260205f20906005020190505f816002015490506109488361229e565b816001015481036109765760048201805467ffffffffffffffff19166001600160401b038616179055610b80565b805f0361099657604051632b5daf8960e01b815260040160405180910390fd5b6040805160e08101825283546001600160a01b0390811682526001600160401b0342811660208401908152938301858152606084018681525f608086018181528b851660a0880190815260048b01546001600160501b0319600160401b91829004605090811b9190911660c08b01908152600680546001810182559087529a516005909b027ff652222313e28459528d920b65115c16c04f3efc82aaedc97be59f3f377c0d3f810180549d518b16600160a01b026001600160e01b0319909e169c909b169b909b179b909b1790985594517ff652222313e28459528d920b65115c16c04f3efc82aaedc97be59f3f377c0d4089015592517ff652222313e28459528d920b65115c16c04f3efc82aaedc97be59f3f377c0d41880155517ff652222313e28459528d920b65115c16c04f3efc82aaedc97be59f3f377c0d4287015590517ff652222313e28459528d920b65115c16c04f3efc82aaedc97be59f3f377c0d439095018054965190941c9091026001600160f01b0319909516939091169290921792909217909155600383018054839290610b35908490613427565b90915550505f6002830155600654610b80903390610b559060019061343a565b6001600160a01b039091165f9081526008602090815260408220805460018101825590835291200155565b5050505050565b60068181548110610b96575f80fd5b5f918252602090912060059091020180546001820154600283015460038401546004909401546001600160a01b03841695506001600160401b03600160a01b9094048416949293919291811690600160401b900460501b87565b5f60068281548110610c0457610c046133d8565b905f5260205f209060050201600201549050919050565b60078181548110610c2a575f80fd5b5f9182526020909120600b9091020180546001820154600283015460038401546004850154600586015460068701546007909701546001600160a01b03808816995063ffffffff600160a01b890416986001600160401b03600160c01b90990489169888169760ff600160401b82041697600160481b909104909216959194919391928c565b6004546001600160a01b03163314610cda5760405162461bcd60e51b8152600401610666906133b2565b600580546001600160a01b0319166001600160a01b0392909216919091179055565b5f60078281548110610d1057610d106133d8565b5f9182526020909120600b90910201905060026001820154600160401b900460ff166004811115610d4357610d43612dde565b14610d61576040516320d55f6760e21b815260040160405180910390fd5b60018101546001600160401b0316421015610d8f57604051632d5c37f560e21b815260040160405180910390fd5b610dc3604051806040016040528060138152602001721c1c9bdc1bdcd959109b1bd8dad2195a59da1d606a1b8152506123ac565b610de4610ddf82600601545f9081526020819052604090205490565b6123ef565b610e16604051806040016040528060118152602001700e0e4dee0dee6cac884d8dec6d690c2e6d607b1b8152506123ac565b610e2381600701546123ef565b600781015460068201545f9081526020819052604090205414610e595760405163c1f6fa5160e01b815260040160405180910390fd5b60018101805460ff60401b19166803000000000000000017905560045460058201545f9161271091610e9591600160a81b900460ff169061344d565b610e9f9190613478565b60055460405163a9059cbb60e01b81526001600160a01b039182166004820152602481018390529192507f0000000000000000000000000000000000000000000000000000000000000000169063a9059cbb906044016020604051808303815f875af1158015610f11573d5f803e3d5ffd5b505050506040513d601f19601f82011682018060405250810190610f35919061348b565b507f00000000000000000000000000000000000000000000000000000000000000006001600160a01b031663a9059cbb8360010160099054906101000a90046001600160a01b0316838560050154610f8d919061343a565b6040516001600160e01b031960e085901b1681526001600160a01b03909216600483015260248201526044016020604051808303815f875af1158015610fd5573d5f803e3d5ffd5b505050506040513d601f19601f82011682018060405250810190610ff9919061348b565b5060038201546040805185815260208101929092527f12245c00d428a4c558061d2f69fe154a203bd2fb4a65b6c3e73e95ccdc735d18910160405180910390a1505050565b6004546001600160a01b031633146110685760405162461bcd60e51b8152600401610666906133b2565b60048054911515600160a01b0260ff60a01b19909216919091179055565b600454600160a01b900460ff16156110b1576040516348010c6560e11b815260040160405180910390fd5b816001600160401b03165f036110da5760405163a2ec3a5560e01b815260040160405180910390fd5b335f90815260086020526040812054900361112657604080515f6020808301828152838501855283523382526008815292902081518051929391926111229284920190612925565b5050505b6040805160e081018252338082526001600160401b0342811660208401908152938301878152606084018881525f6080860181815289851660a088019081526001600160501b03198a1660c0890190815260068054600181810183559582905299516005909a027ff652222313e28459528d920b65115c16c04f3efc82aaedc97be59f3f377c0d3f810180549c518a16600160a01b026001600160e01b0319909d166001600160a01b039c909c169b909b179b909b1790995594517ff652222313e28459528d920b65115c16c04f3efc82aaedc97be59f3f377c0d408a015592517ff652222313e28459528d920b65115c16c04f3efc82aaedc97be59f3f377c0d41890155517ff652222313e28459528d920b65115c16c04f3efc82aaedc97be59f3f377c0d4288015590517ff652222313e28459528d920b65115c16c04f3efc82aaedc97be59f3f377c0d439096018054925160501c600160401b026001600160f01b0319909316969093169590951717905590546112a992610b559161343a565b6040516323b872dd60e01b8152336004820152306024820152604481018490527f00000000000000000000000000000000000000000000000000000000000000006001600160a01b0316906323b872dd906064016020604051808303815f875af1158015611319573d5f803e3d5ffd5b505050506040513d601f19601f8201168201806040525081019061133d919061348b565b5060065433907ffd5ab8914e1dca355d18ae7fe50627d3afe042f323e1b0ae31f3a9d2cd19de37906113719060019061343a565b60408051918252602082018790526001600160401b0386169082015260600160405180910390a2505050565b6040805160208082018352606082526001600160a01b0384165f908152600882528390208351815480840282018601865292810183815293949093919284929184919084018282801561140d57602002820191905f5260205f20905b8154815260200190600101908083116113f9575b5050505050815250509050919050565b335f908152600860205260409020805485919085908110611440576114406133d8565b905f5260205f2001541461146757604051630e7fea9d60e01b815260040160405180910390fd5b6114708161229e565b5f60068581548110611484576114846133d8565b905f5260205f2090600502019050826001600160c01b03165f14806114b557508060020154836001600160c01b0316115b156114d35760405163b4e3d41360e01b815260040160405180910390fd5b826001600160c01b0316816002015f8282546114ef919061343a565b92505081905550826001600160c01b0316816003015f8282546115129190613427565b909155505060405163a9059cbb60e01b81523360048201526001600160c01b03841660248201527f00000000000000000000000000000000000000000000000000000000000000006001600160a01b03169063a9059cbb906044016020604051808303815f875af1158015611589573d5f803e3d5ffd5b505050506040513d601f19601f820116820180604052508101906115ad919061348b565b505050505050565b5f6115c26107e0836134a6565b6115cc908361343a565b92915050565b604080516101e0810182525f8082526020820181905291810182905260608082018390526080820183905260a0820183905260c0820183905260e0820183905261010082018390526101208201839052610140820183905261016082019290925261018081018290526101a081018290526101c08101919091526007828154811061165f5761165f6133d8565b5f918252602091829020604080516101e081018252600b90930290910180546001600160a01b038116845263ffffffff600160a01b820416948401949094526001600160401b03600160c01b909404841691830191909152600181015492831660608301529091608083019060ff600160401b9091041660048111156116e7576116e7612dde565b60048111156116f8576116f8612dde565b81526020016001820160099054906101000a90046001600160a01b03166001600160a01b03166001600160a01b03168152602001600282015481526020016003820154815260200160048201548152602001600582015481526020016006820154815260200160078201548152602001600882018054806020026020016040519081016040528092919081815260200182805480156117b457602002820191905f5260205f20905b8154815260200190600101908083116117a0575b505050505081526020016009820180548060200260200160405190810160405280929190818152602001828054801561181457602002820191905f5260205f20905b81546001600160c01b031681526001909101906020018083116117f6575b50505050508152602001600a820180548060200260200160405190810160405280929190818152602001828054801561140d57602002820191905f5260205f20905f905b82829054906101000a90046001600160401b03166001600160401b0316815260200190600801906020826007010492830192600103820291508084116118585790505050505050815250509050919050565b845115806118ba57508351855114155b156118d85760405163744bba7b60e01b815260040160405180910390fd5b5f5b8451811015611930578481815181106118f5576118f56133d8565b60200260200101516001600160c01b03165f0361192857604051633143436b60e11b815260048101829052602401610666565b6001016118da565b505f805f87516001600160401b0381111561194d5761194d612ad6565b604051908082528060200260200182016040528015611976578160200160208202803683370190505b5090505f5b8751811015611aa2575f60068a8381518110611999576119996133d8565b6020026020010151815481106119b1576119b16133d8565b5f91825260209091206004600590920201015489516001600160401b0390911691508990839081106119e5576119e56133d8565b60200260200101516001600160c01b031685611a019190613427565b94505f611a508a8481518110611a1957611a196133d8565b60200260200101516001600160c01b03167f0000000000000000000000000000000000000000000000000000000000000000612434565b90505f611a5d8383613478565b9050611a698187613427565b955080858581518110611a7e57611a7e6133d8565b6001600160401b03929092166020928302919091019091015250505060010161197b565b50611aac8461229e565b5f805b8951811015611c2d576002838281518110611acc57611acc6133d8565b602002602001015160068c8481518110611ae857611ae86133d8565b602002602001015181548110611b0057611b006133d8565b5f91825260209182902060046005909202010154604080516001600160401b03909416928401929092526001600160501b0319600160401b90910460501b16908201526060810184905260800160408051601f1981840301815290829052611b67916134db565b602060405180830381855afa158015611b82573d5f803e3d5ffd5b5050506040513d601f19601f82011682018060405250810190611ba591906134f6565b915060068a8281518110611bbb57611bbb6133d8565b602002602001015181548110611bd357611bd36133d8565b905f5260205f20906005020160020154898281518110611bf557611bf56133d8565b60200260200101516001600160c01b03161115611c2557604051634323a55560e01b815260040160405180910390fd5b600101611aaf565b50600754604080516001600160a01b038a16602082015242918101919091524660608201526080810183905260a08101919091525f9060c00160408051601f1981840301815282825280516020918201206101e0840183526001600160a01b038f1684525f9184018290526001600160401b034216928401929092526060830152915060079060808101600181526020018a6001600160a01b031681526020018481526020018381526020018981526020018781526020015f81526020015f801b81526020018c81526020018b815260200185815250908060018154018082558091505060019003905f5260205f2090600b02015f909190919091505f820151815f015f6101000a8154816001600160a01b0302191690836001600160a01b031602179055506020820151815f0160146101000a81548163ffffffff021916908363ffffffff1602179055506040820151815f0160186101000a8154816001600160401b0302191690836001600160401b031602179055506060820151816001015f6101000a8154816001600160401b0302191690836001600160401b0316021790555060808201518160010160086101000a81548160ff02191690836004811115611dfb57611dfb612dde565b021790555060a08201516001820180546001600160a01b03909216600160481b027fffffff0000000000000000000000000000000000000000ffffffffffffffffff90921691909117905560c0820151600282015560e0820151600382015561010082015160048201556101208201516005820155610140820151600682015561016082015160078201556101808201518051611ea2916008840191602090910190612925565b506101a08201518051611ebf91600984019160209091019061296e565b506101c08201518051611edc91600a8401916020909101906129c1565b5050505f5b8a51811015611f6357898181518110611efc57611efc6133d8565b60200260200101516001600160c01b031660068c8381518110611f2157611f216133d8565b602002602001015181548110611f3957611f396133d8565b905f5260205f2090600502016002015f828254611f56919061343a565b9091555050600101611ee1565b508a6001600160a01b03167f5956135c9be999a50f7ff4ea49ddf1485bc321ab333dc7a0877633eeb47528936001611f9a60075490565b611fa4919061343a565b6040805191825260208201859052015b60405180910390a25050505050505050505050565b5f60078a81548110611fdd57611fdd6133d8565b5f9182526020909120600b909102019050600180820154600160401b900460ff16600481111561200f5761200f612dde565b1461202d57604051639085371960e01b815260040160405180910390fd5b5f61203e8b8b8b8b8b8b8b8b61068f565b60405160200161204e9190612c8d565b60408051601f198184030181529082905263020a49e360e51b825291506001600160a01b037f000000000000000000000000000000000000000000000000000000000000000016906341493c60906120ce907f00000000000000000000000000000000000000000000000000000000000000009085908890600401613538565b5f6040518083038186803b1580156120e4575f80fd5b505afa1580156120f6573d5f803e3d5ffd5b5061212d9250505063ffffffff89166001600160401b03898116908916888861211f858e613400565b6001600160401b031661246f565b60018201805460ff60401b19166802000000000000000017905561215361012c42613562565b60018301805467ffffffffffffffff19166001600160401b03928316179055871660068301558461218a63ffffffff8a1689613400565b6001600160401b0316815181106121a3576121a36133d8565b60200260200101518260070181905550336001600160a01b03167f8bcdab581a6176f792fa96b0c57d32273bcd8621b0548c15a9c6379dc246e26c8c8460030154604051611fb4929190918252602082015260400190565b5f818152602081905260409020546122265760405163fa4a5e4560e01b815260040160405180910390fd5b50565b6004546001600160a01b031633146122535760405162461bcd60e51b8152600401610666906133b2565b600480546001600160a01b0319166001600160a01b03831690811790915560405133907f8be0079c531659141344cd1fd0a4f28419497f9722a3daafe3b4186f6b6457e0905f90a350565b6122a78161280f565b5f5b81518110156123a8575f60078383815181106122c7576122c76133d8565b6020026020010151815481106122df576122df6133d8565b905f5260205f2090600b020190505f5b6008820154811015612386575f6006836008018381548110612313576123136133d8565b905f5260205f2001548154811061232c5761232c6133d8565b905f5260205f209060050201905082600901828154811061234f5761234f6133d8565b5f9182526020822001546002830180546001600160c01b03909216929091612378908490613427565b9091555050506001016122ef565b506001908101805460ff60401b191668040000000000000000179055016122a9565b5050565b612226816040516024016123c09190613582565b60408051601f198184030181529190526020810180516001600160e01b031663104c13eb60e21b179052612905565b6122268160405160240161240591815260200190565b60408051601f198184030181529190526020810180516001600160e01b03166327b7cf8560e01b179052612905565b5f60128260ff1610156124685761244c826012613594565b61245790600a61368d565b612461908461344d565b90506115cc565b5090919050565b6002545f8181526001602052604090205460ff7f0000000000000000000000000000000000000000000000000000000000000000166124ae888861343a565b1015612508575f86815260208190526040902054855186906124d29060019061343a565b815181106124e2576124e26133d8565b602002602001015114612508576040516341305f6360e01b815260040160405180910390fd5b818811156125295760405163575f3da360e01b815260040160405180910390fd5b84838151811061253b5761253b6133d8565b60200260200101515f808981526020019081526020015f2054036125605750506115ad565b5f87815260208190526040902054158015906125a257508360018551612586919061343a565b81518110612596576125966133d8565b60200260200101518110155b156125c0576040516371e98f3d60e11b815260040160405180910390fd5b818711156126c657818803612631578483815181106125e1576125e16133d8565b60200260200101515f808981526020019081526020015f208190555083838151811061260f5761260f6133d8565b602002602001015160015f8981526020019081526020015f208190555061272c565b818810156126c157875b8781116126bf578561264d8a8361343a565b8151811061265d5761265d6133d8565b6020908102919091018101515f83815291829052604090912055846126828a8361343a565b81518110612692576126926133d8565b6020908102919091018101515f8381526001909252604090912055806126b78161369b565b91505061263b565b505b61272c565b8187101561272c578483815181106126e0576126e06133d8565b60200260200101515f808981526020019081526020015f208190555083838151811061270e5761270e6133d8565b602002602001015160015f8981526020019081526020015f20819055505b60025487111561273c5760028790555b5f612746886115b5565b90505f612752886115b5565b90508181146127c7575f612766828a61343a565b905087818151811061277a5761277a6133d8565b60200260200101515f808481526020019081526020015f20819055508681815181106127a8576127a86133d8565b602002602001015160015f8481526020019081526020015f2081905550505b8651604080518c815260208101929092527fb68477c768bbb33b4f238a3dfd17c33c499268c59cd042b7936bbc23dc2bdd34910160405180910390a150505050505050505050565b5f5b81518110156123a85761384063ffffffff166007838381518110612837576128376133d8565b60200260200101518154811061284f5761284f6133d8565b5f9182526020909120600b909102015461287990600160c01b90046001600160401b03164261343a565b10806128df575060016007838381518110612896576128966133d8565b6020026020010151815481106128ae576128ae6133d8565b905f5260205f2090600b020160010160089054906101000a900460ff1660048111156128dc576128dc612dde565b14155b156128fd576040516326349d6b60e01b815260040160405180910390fd5b600101612811565b80516a636f6e736f6c652e6c6f67602083015f808483855afa5050505050565b828054828255905f5260205f2090810192821561295e579160200282015b8281111561295e578251825591602001919060010190612943565b5061296a929150612a6d565b5090565b828054828255905f5260205f2090810192821561295e579160200282015b8281111561295e57825182546001600160c01b0319166001600160c01b0390911617825560209092019160019091019061298c565b828054828255905f5260205f209060030160049004810192821561295e579160200282015f5b83821115612a3157835183826101000a8154816001600160401b0302191690836001600160401b0316021790555092602001926008016020816007010492830192600103026129e7565b8015612a645782816101000a8154906001600160401b030219169055600801602081600701049283019260010302612a31565b505061296a9291505b5b8082111561296a575f8155600101612a6e565b5f60208284031215612a91575f80fd5b813560ff81168114612aa1575f80fd5b9392505050565b803563ffffffff81168114612abb575f80fd5b919050565b80356001600160401b0381168114612abb575f80fd5b634e487b7160e01b5f52604160045260245ffd5b604051601f8201601f191681016001600160401b0381118282101715612b1257612b12612ad6565b604052919050565b5f6001600160401b03821115612b3257612b32612ad6565b5060051b60200190565b5f82601f830112612b4b575f80fd5b81356020612b60612b5b83612b1a565b612aea565b8083825260208201915060208460051b870101935086841115612b81575f80fd5b602086015b84811015612b9d5780358352918301918301612b86565b509695505050505050565b5f805f805f805f80610100898b031215612bc0575f80fd5b883597506020890135965060408901359550612bde60608a01612aa8565b9450612bec60808a01612ac0565b9350612bfa60a08a01612ac0565b925060c08901356001600160401b0380821115612c15575f80fd5b612c218c838d01612b3c565b935060e08b0135915080821115612c36575f80fd5b50612c438b828c01612b3c565b9150509295985092959890939650565b5f815180845260208085019450602084015f5b83811015612c8257815187529582019590820190600101612c66565b509495945050505050565b60208152815160208201526020820151604082015260408201516060820152606082015160808201525f6080830151612cd160a08401826001600160401b03169052565b5060a083015160c083015260c0830151612cf660e08401826001600160401b03169052565b5060e0830151610100612d13818501836001600160401b03169052565b8401519050610120612d2f848201836001600160401b03169052565b808501519150506101606101408181860152612d4f610180860184612c53565b90860151858203601f190183870152909250612d6b8382612c53565b9695505050505050565b5f60208284031215612d85575f80fd5b5035919050565b5f805f60608486031215612d9e575f80fd5b83359250612dae60208501612ac0565b915060408401356001600160401b03811115612dc8575f80fd5b612dd486828701612b3c565b9150509250925092565b634e487b7160e01b5f52602160045260245ffd5b60058110612e0e57634e487b7160e01b5f52602160045260245ffd5b9052565b6001600160a01b038d8116825263ffffffff8d1660208301526001600160401b038c811660408401528b166060830152610180820190612e55608084018c612df2565b9890981660a082015260c081019690965260e08601949094526101008501929092526101208401526101408301526101609091015295945050505050565b6001600160a01b0381168114612226575f80fd5b5f60208284031215612eb7575f80fd5b8135612aa181612e93565b8015158114612226575f80fd5b5f60208284031215612edf575f80fd5b8135612aa181612ec2565b5f805f60608486031215612efc575f80fd5b83359250612f0c60208501612ac0565b915060408401356001600160501b031981168114612f28575f80fd5b809150509250925092565b8035612abb81612e93565b602081525f8251602080840152612f586040840182612c53565b949350505050565b80356001600160c01b0381168114612abb575f80fd5b5f805f8060808587031215612f89575f80fd5b8435935060208501359250612fa060408601612f60565b915060608501356001600160401b03811115612fba575f80fd5b612fc687828801612b3c565b91505092959194509250565b5f815180845260208085019450602084015f5b83811015612c825781516001600160c01b031687529582019590820190600101612fe5565b5f815180845260208085019450602084015f5b83811015612c825781516001600160401b03168752958201959082019060010161301d565b6020815261305c6020820183516001600160a01b03169052565b5f6020830151613074604084018263ffffffff169052565b5060408301516001600160401b03811660608401525060608301516001600160401b03811660808401525060808301516130b160a0840182612df2565b5060a08301516001600160a01b03811660c08401525060c083015160e08381019190915283015161010080840191909152830151610120808401919091528301516101408084019190915283015161016080840191909152830151610180808401919091528301516101e06101a0808501829052613133610200860184612c53565b9250808601519050601f196101c08187860301818801526131548584612fd2565b908801518782039092018488015293509050612d6b838261300a565b5f805f805f8060c08789031215613185575f80fd5b863561319081612e93565b95506020878101356001600160401b03808211156131ac575f80fd5b6131b88b838c01612b3c565b975060408a01359150808211156131cd575f80fd5b818a0191508a601f8301126131e0575f80fd5b81356131ee612b5b82612b1a565b81815260059190911b8301840190848101908d83111561320c575f80fd5b938501935b828510156132315761322285612f60565b82529385019390850190613211565b985061324291505060608b01612f33565b955060808a0135945060a08a013592508083111561325e575f80fd5b505061326c89828a01612b3c565b9150509295509295509295565b5f82601f830112613288575f80fd5b81356001600160401b038111156132a1576132a1612ad6565b6132b4601f8201601f1916602001612aea565b8181528460208386010111156132c8575f80fd5b816020850160208301375f918101602001919091529392505050565b5f805f805f805f805f6101208a8c0312156132fd575f80fd5b8935985060208a0135975060408a0135965061331b60608b01612aa8565b955061332960808b01612ac0565b945061333760a08b01612ac0565b935060c08a01356001600160401b0380821115613352575f80fd5b61335e8d838e01612b3c565b945060e08c0135915080821115613373575f80fd5b61337f8d838e01612b3c565b93506101008c0135915080821115613395575f80fd5b506133a28c828d01613279565b9150509295985092959850929598565b6020808252600c908201526b15539055551213d49256915160a21b604082015260600190565b634e487b7160e01b5f52603260045260245ffd5b634e487b7160e01b5f52601160045260245ffd5b6001600160401b03828116828216039080821115613420576134206133ec565b5092915050565b808201808211156115cc576115cc6133ec565b818103818111156115cc576115cc6133ec565b80820281158282048414176115cc576115cc6133ec565b634e487b7160e01b5f52601260045260245ffd5b5f8261348657613486613464565b500490565b5f6020828403121561349b575f80fd5b8151612aa181612ec2565b5f826134b4576134b4613464565b500690565b5f5b838110156134d35781810151838201526020016134bb565b50505f910152565b5f82516134ec8184602087016134b9565b9190910192915050565b5f60208284031215613506575f80fd5b5051919050565b5f81518084526135248160208601602086016134b9565b601f01601f19169290920160200192915050565b838152606060208201525f613550606083018561350d565b8281036040840152612d6b818561350d565b6001600160401b03818116838216019080821115613420576134206133ec565b602081525f612aa1602083018461350d565b60ff82811682821603908111156115cc576115cc6133ec565b600181815b808511156135e757815f19048211156135cd576135cd6133ec565b808516156135da57918102915b93841c93908002906135b2565b509250929050565b5f826135fd575060016115cc565b8161360957505f6115cc565b816001811461361f576002811461362957613645565b60019150506115cc565b60ff84111561363a5761363a6133ec565b50506001821b6115cc565b5060208310610133831016604e8410600b8410161715613668575081810a6115cc565b61367283836135ad565b805f1904821115613685576136856133ec565b029392505050565b5f612aa160ff8416836135ef565b5f600182016136ac576136ac6133ec565b506001019056fea264697066735822122074f8f8709339081ebd0bca2f2392a854bbe95fa796185acb3ee274c9217a755264736f6c63430008180033","linkReferences":{}},"methodIdentifiers":{"CHALLENGE_PERIOD()":"c3a079ed","CIRCUIT_VERIFICATION_KEY()":"8d5ca052","DEPOSIT_TOKEN()":"13f66587","RESERVATION_LOCKUP_PERIOD()":"89a11f7a","TOKEN_DECIMALS()":"5b7f415c","VERIFIER_CONTRACT()":"b8b24592","buildPublicInputs(uint256,bytes32,bytes32,uint32,uint64,uint64,bytes32[],uint256[])":"1753b4e1","calculateRetargetHeight(uint256)":"b9b2a982","currentConfirmationHeight()":"fba78166","currentHeight()":"163de0c5","depositLiquidity(uint256,uint64,bytes22)":"803d5f62","depositVaults(uint256)":"5f4d0610","getAreDepositsPaused()":"b01c27d1","getBlockHash(uint256)":"ee82ac5e","getChainwork(uint256)":"cda7d82c","getDepositVault(uint256)":"276d080e","getDepositVaultUnreservedBalance(uint256)":"6512d057","getDepositVaultsLength()":"7dce5550","getLiquidityProvider(address)":"98f9e757","getReservation(uint256)":"d57763c3","getReservationLength()":"ea6fe03e","isDepositNewLiquidityPaused()":"8cc63cdd","owner()":"8da5cb5b","protocolFeeBP()":"c5fba0b8","releaseLiquidity(uint256)":"77891907","reserveLiquidity(address,uint256[],uint192[],address,uint256,uint256[])":"d8418403","submitSwapProof(uint256,bytes32,bytes32,uint32,uint64,uint64,bytes32[],uint256[],bytes)":"ecdea06f","swapReservations(uint256)":"6b994abb","transferOwnership(address)":"f2fde38b","updateExchangeRate(uint256,uint64,uint256[])":"505675dd","updateFeeRouter(address)":"73e149e6","updateNewLiquidityDepositsPaused(bool)":"7a9059a2","updateProtocolFee(uint8)":"0a7aa293","validateBlockExists(uint256)":"ed8b2b32","withdrawLiquidity(uint256,uint256,uint192,uint256[])":"aeacb2e7"},"storageLayout":{"storage":[{"astId":47993,"contract":"src/RiftExchange.sol:RiftExchange","label":"blockchain","offset":0,"slot":"0","type":"t_mapping(t_uint256,t_bytes32)"},{"astId":47997,"contract":"src/RiftExchange.sol:RiftExchange","label":"chainworks","offset":0,"slot":"1","type":"t_mapping(t_uint256,t_uint256)"},{"astId":47999,"contract":"src/RiftExchange.sol:RiftExchange","label":"currentHeight","offset":0,"slot":"2","type":"t_uint256"},{"astId":48001,"contract":"src/RiftExchange.sol:RiftExchange","label":"currentConfirmationHeight","offset":0,"slot":"3","type":"t_uint256"},{"astId":46637,"contract":"src/RiftExchange.sol:RiftExchange","label":"owner","offset":0,"slot":"4","type":"t_address"},{"astId":49400,"contract":"src/RiftExchange.sol:RiftExchange","label":"isDepositNewLiquidityPaused","offset":20,"slot":"4","type":"t_bool"},{"astId":49403,"contract":"src/RiftExchange.sol:RiftExchange","label":"protocolFeeBP","offset":21,"slot":"4","type":"t_uint8"},{"astId":49405,"contract":"src/RiftExchange.sol:RiftExchange","label":"feeRouterAddress","offset":0,"slot":"5","type":"t_address"},{"astId":49409,"contract":"src/RiftExchange.sol:RiftExchange","label":"depositVaults","offset":0,"slot":"6","type":"t_array(t_struct(DepositVault)49350_storage)dyn_storage"},{"astId":49413,"contract":"src/RiftExchange.sol:RiftExchange","label":"swapReservations","offset":0,"slot":"7","type":"t_array(t_struct(SwapReservation)49331_storage)dyn_storage"},{"astId":49418,"contract":"src/RiftExchange.sol:RiftExchange","label":"liquidityProviders","offset":0,"slot":"8","type":"t_mapping(t_address,t_struct(LiquidityProvider)49335_storage)"}],"types":{"t_address":{"encoding":"inplace","label":"address","numberOfBytes":"20"},"t_array(t_struct(DepositVault)49350_storage)dyn_storage":{"encoding":"dynamic_array","label":"struct RiftExchange.DepositVault[]","numberOfBytes":"32","base":"t_struct(DepositVault)49350_storage"},"t_array(t_struct(SwapReservation)49331_storage)dyn_storage":{"encoding":"dynamic_array","label":"struct RiftExchange.SwapReservation[]","numberOfBytes":"32","base":"t_struct(SwapReservation)49331_storage"},"t_array(t_uint192)dyn_storage":{"encoding":"dynamic_array","label":"uint192[]","numberOfBytes":"32","base":"t_uint192"},"t_array(t_uint256)dyn_storage":{"encoding":"dynamic_array","label":"uint256[]","numberOfBytes":"32","base":"t_uint256"},"t_array(t_uint64)dyn_storage":{"encoding":"dynamic_array","label":"uint64[]","numberOfBytes":"32","base":"t_uint64"},"t_bool":{"encoding":"inplace","label":"bool","numberOfBytes":"1"},"t_bytes22":{"encoding":"inplace","label":"bytes22","numberOfBytes":"22"},"t_bytes32":{"encoding":"inplace","label":"bytes32","numberOfBytes":"32"},"t_enum(ReservationState)49296":{"encoding":"inplace","label":"enum RiftExchange.ReservationState","numberOfBytes":"1"},"t_mapping(t_address,t_struct(LiquidityProvider)49335_storage)":{"encoding":"mapping","key":"t_address","label":"mapping(address => struct RiftExchange.LiquidityProvider)","numberOfBytes":"32","value":"t_struct(LiquidityProvider)49335_storage"},"t_mapping(t_uint256,t_bytes32)":{"encoding":"mapping","key":"t_uint256","label":"mapping(uint256 => bytes32)","numberOfBytes":"32","value":"t_bytes32"},"t_mapping(t_uint256,t_uint256)":{"encoding":"mapping","key":"t_uint256","label":"mapping(uint256 => uint256)","numberOfBytes":"32","value":"t_uint256"},"t_struct(DepositVault)49350_storage":{"encoding":"inplace","label":"struct RiftExchange.DepositVault","numberOfBytes":"160","members":[{"astId":49337,"contract":"src/RiftExchange.sol:RiftExchange","label":"owner","offset":0,"slot":"0","type":"t_address"},{"astId":49339,"contract":"src/RiftExchange.sol:RiftExchange","label":"depositTimestamp","offset":20,"slot":"0","type":"t_uint64"},{"astId":49341,"contract":"src/RiftExchange.sol:RiftExchange","label":"initialBalance","offset":0,"slot":"1","type":"t_uint256"},{"astId":49343,"contract":"src/RiftExchange.sol:RiftExchange","label":"unreservedBalance","offset":0,"slot":"2","type":"t_uint256"},{"astId":49345,"contract":"src/RiftExchange.sol:RiftExchange","label":"withdrawnAmount","offset":0,"slot":"3","type":"t_uint256"},{"astId":49347,"contract":"src/RiftExchange.sol:RiftExchange","label":"exchangeRate","offset":0,"slot":"4","type":"t_uint64"},{"astId":49349,"contract":"src/RiftExchange.sol:RiftExchange","label":"btcPayoutLockingScript","offset":8,"slot":"4","type":"t_bytes22"}]},"t_struct(LiquidityProvider)49335_storage":{"encoding":"inplace","label":"struct RiftExchange.LiquidityProvider","numberOfBytes":"32","members":[{"astId":49334,"contract":"src/RiftExchange.sol:RiftExchange","label":"depositVaultIndexes","offset":0,"slot":"0","type":"t_array(t_uint256)dyn_storage"}]},"t_struct(SwapReservation)49331_storage":{"encoding":"inplace","label":"struct RiftExchange.SwapReservation","numberOfBytes":"352","members":[{"astId":49298,"contract":"src/RiftExchange.sol:RiftExchange","label":"owner","offset":0,"slot":"0","type":"t_address"},{"astId":49300,"contract":"src/RiftExchange.sol:RiftExchange","label":"confirmationBlockHeight","offset":20,"slot":"0","type":"t_uint32"},{"astId":49302,"contract":"src/RiftExchange.sol:RiftExchange","label":"reservationTimestamp","offset":24,"slot":"0","type":"t_uint64"},{"astId":49304,"contract":"src/RiftExchange.sol:RiftExchange","label":"liquidityUnlockedTimestamp","offset":0,"slot":"1","type":"t_uint64"},{"astId":49307,"contract":"src/RiftExchange.sol:RiftExchange","label":"state","offset":8,"slot":"1","type":"t_enum(ReservationState)49296"},{"astId":49309,"contract":"src/RiftExchange.sol:RiftExchange","label":"ethPayoutAddress","offset":9,"slot":"1","type":"t_address"},{"astId":49311,"contract":"src/RiftExchange.sol:RiftExchange","label":"lpReservationHash","offset":0,"slot":"2","type":"t_bytes32"},{"astId":49313,"contract":"src/RiftExchange.sol:RiftExchange","label":"nonce","offset":0,"slot":"3","type":"t_bytes32"},{"astId":49315,"contract":"src/RiftExchange.sol:RiftExchange","label":"totalSatsInputIncludingProxyFee","offset":0,"slot":"4","type":"t_uint256"},{"astId":49317,"contract":"src/RiftExchange.sol:RiftExchange","label":"totalSwapOutputAmount","offset":0,"slot":"5","type":"t_uint256"},{"astId":49319,"contract":"src/RiftExchange.sol:RiftExchange","label":"proposedBlockHeight","offset":0,"slot":"6","type":"t_uint256"},{"astId":49321,"contract":"src/RiftExchange.sol:RiftExchange","label":"proposedBlockHash","offset":0,"slot":"7","type":"t_bytes32"},{"astId":49324,"contract":"src/RiftExchange.sol:RiftExchange","label":"vaultIndexes","offset":0,"slot":"8","type":"t_array(t_uint256)dyn_storage"},{"astId":49327,"contract":"src/RiftExchange.sol:RiftExchange","label":"amountsToReserve","offset":0,"slot":"9","type":"t_array(t_uint192)dyn_storage"},{"astId":49330,"contract":"src/RiftExchange.sol:RiftExchange","label":"expectedSatsOutput","offset":0,"slot":"10","type":"t_array(t_uint64)dyn_storage"}]},"t_uint192":{"encoding":"inplace","label":"uint192","numberOfBytes":"24"},"t_uint256":{"encoding":"inplace","label":"uint256","numberOfBytes":"32"},"t_uint32":{"encoding":"inplace","label":"uint32","numberOfBytes":"4"},"t_uint64":{"encoding":"inplace","label":"uint64","numberOfBytes":"8"},"t_uint8":{"encoding":"inplace","label":"uint8","numberOfBytes":"1"}}},"id":32}