{"abi":[{"type":"constructor","inputs":[{"name":"initialCheckpointHeight","type":"uint256","internalType":"uint256"},{"name":"initialBlockHash","type":"bytes32","internalType":"bytes32"},{"name":"initialRetargetBlockHash","type":"bytes32","internalType":"bytes32"},{"name":"verifierContractAddress","type":"address","internalType":"address"},{"name":"depositTokenAddress","type":"address","internalType":"address"},{"name":"_proverReward","type":"uint256","internalType":"uint256"},{"name":"_releaserReward","type":"uint256","internalType":"uint256"},{"name":"_protocolAddress","type":"address","internalType":"address payable"},{"name":"_owner","type":"address","internalType":"address"},{"name":"_circuitVerificationKey","type":"bytes32","internalType":"bytes32"}],"stateMutability":"nonpayable"},{"type":"function","name":"CHALLENGE_PERIOD","inputs":[],"outputs":[{"name":"","type":"uint256","internalType":"uint256"}],"stateMutability":"view"},{"type":"function","name":"DEPOSIT_TOKEN","inputs":[],"outputs":[{"name":"","type":"address","internalType":"contract IERC20"}],"stateMutability":"view"},{"type":"function","name":"MAX_DEPOSIT_OUTPUTS","inputs":[],"outputs":[{"name":"","type":"uint16","internalType":"uint16"}],"stateMutability":"view"},{"type":"function","name":"MIN_ORDER_GAS_MULTIPLIER","inputs":[],"outputs":[{"name":"","type":"uint256","internalType":"uint256"}],"stateMutability":"view"},{"type":"function","name":"PROOF_GAS_COST","inputs":[],"outputs":[{"name":"","type":"uint256","internalType":"uint256"}],"stateMutability":"view"},{"type":"function","name":"RELEASE_GAS_COST","inputs":[],"outputs":[{"name":"","type":"uint256","internalType":"uint256"}],"stateMutability":"view"},{"type":"function","name":"RESERVATION_LOCKUP_PERIOD","inputs":[],"outputs":[{"name":"","type":"uint256","internalType":"uint256"}],"stateMutability":"view"},{"type":"function","name":"SAMPLING_SIZE","inputs":[],"outputs":[{"name":"","type":"uint8","internalType":"uint8"}],"stateMutability":"view"},{"type":"function","name":"TOKEN_DECIMALS","inputs":[],"outputs":[{"name":"","type":"uint8","internalType":"uint8"}],"stateMutability":"view"},{"type":"function","name":"addBlock","inputs":[{"name":"safeBlockHeight","type":"uint256","internalType":"uint256"},{"name":"proposedBlockHeight","type":"uint256","internalType":"uint256"},{"name":"confirmationBlockHeight","type":"uint256","internalType":"uint256"},{"name":"blockHashes","type":"bytes32[]","internalType":"bytes32[]"},{"name":"proposedBlockIndex","type":"uint256","internalType":"uint256"}],"outputs":[],"stateMutability":"nonpayable"},{"type":"function","name":"buildProofPublicInputs","inputs":[{"name":"inputs","type":"tuple","internalType":"struct RiftExchange.ProofPublicInputs","components":[{"name":"natural_txid","type":"bytes32","internalType":"bytes32"},{"name":"lp_reservation_hash","type":"bytes32","internalType":"bytes32"},{"name":"order_nonce","type":"bytes32","internalType":"bytes32"},{"name":"expected_payout","type":"uint64","internalType":"uint64"},{"name":"lp_count","type":"uint64","internalType":"uint64"},{"name":"retarget_block_hash","type":"bytes32","internalType":"bytes32"},{"name":"safe_block_height","type":"uint64","internalType":"uint64"},{"name":"safe_block_height_delta","type":"uint64","internalType":"uint64"},{"name":"confirmation_block_height_delta","type":"uint64","internalType":"uint64"},{"name":"retarget_block_height","type":"uint64","internalType":"uint64"},{"name":"block_hashes","type":"bytes32[]","internalType":"bytes32[]"}]}],"outputs":[{"name":"","type":"bytes","internalType":"bytes"}],"stateMutability":"pure"},{"type":"function","name":"circuitVerificationKey","inputs":[],"outputs":[{"name":"","type":"bytes32","internalType":"bytes32"}],"stateMutability":"view"},{"type":"function","name":"currentConfirmationHeight","inputs":[],"outputs":[{"name":"","type":"uint256","internalType":"uint256"}],"stateMutability":"view"},{"type":"function","name":"currentHeight","inputs":[],"outputs":[{"name":"","type":"uint256","internalType":"uint256"}],"stateMutability":"view"},{"type":"function","name":"depositLiquidity","inputs":[{"name":"depositAmount","type":"uint256","internalType":"uint256"},{"name":"exchangeRate","type":"uint64","internalType":"uint64"},{"name":"btcPayoutLockingScript","type":"bytes22","internalType":"bytes22"},{"name":"vaultIndexToOverwrite","type":"int256","internalType":"int256"},{"name":"vaultIndexWithSameExchangeRate","type":"int256","internalType":"int256"}],"outputs":[],"stateMutability":"nonpayable"},{"type":"function","name":"depositVaults","inputs":[{"name":"","type":"uint256","internalType":"uint256"}],"outputs":[{"name":"initialBalance","type":"uint256","internalType":"uint256"},{"name":"unreservedBalance","type":"uint256","internalType":"uint256"},{"name":"withdrawnAmount","type":"uint256","internalType":"uint256"},{"name":"exchangeRate","type":"uint64","internalType":"uint64"},{"name":"btcPayoutLockingScript","type":"bytes22","internalType":"bytes22"}],"stateMutability":"view"},{"type":"function","name":"emptyDepositVault","inputs":[{"name":"vaultIndex","type":"uint256","internalType":"uint256"}],"outputs":[],"stateMutability":"nonpayable"},{"type":"function","name":"getBlockHash","inputs":[{"name":"blockHeight","type":"uint256","internalType":"uint256"}],"outputs":[{"name":"","type":"bytes32","internalType":"bytes32"}],"stateMutability":"view"},{"type":"function","name":"getDepositVault","inputs":[{"name":"depositIndex","type":"uint256","internalType":"uint256"}],"outputs":[{"name":"","type":"tuple","internalType":"struct RiftExchange.DepositVault","components":[{"name":"initialBalance","type":"uint256","internalType":"uint256"},{"name":"unreservedBalance","type":"uint256","internalType":"uint256"},{"name":"withdrawnAmount","type":"uint256","internalType":"uint256"},{"name":"exchangeRate","type":"uint64","internalType":"uint64"},{"name":"btcPayoutLockingScript","type":"bytes22","internalType":"bytes22"}]}],"stateMutability":"view"},{"type":"function","name":"getDepositVaultUnreservedBalance","inputs":[{"name":"depositIndex","type":"uint256","internalType":"uint256"}],"outputs":[{"name":"","type":"uint256","internalType":"uint256"}],"stateMutability":"view"},{"type":"function","name":"getDepositVaultsLength","inputs":[],"outputs":[{"name":"","type":"uint256","internalType":"uint256"}],"stateMutability":"view"},{"type":"function","name":"getLiquidityProvider","inputs":[{"name":"lpAddress","type":"address","internalType":"address"}],"outputs":[{"name":"","type":"tuple","internalType":"struct RiftExchange.LiquidityProvider","components":[{"name":"depositVaultIndexes","type":"uint256[]","internalType":"uint256[]"}]}],"stateMutability":"view"},{"type":"function","name":"getReservation","inputs":[{"name":"reservationIndex","type":"uint256","internalType":"uint256"}],"outputs":[{"name":"","type":"tuple","internalType":"struct RiftExchange.SwapReservation","components":[{"name":"confirmationBlockHeight","type":"uint32","internalType":"uint32"},{"name":"reservationTimestamp","type":"uint32","internalType":"uint32"},{"name":"unlockTimestamp","type":"uint32","internalType":"uint32"},{"name":"state","type":"uint8","internalType":"enum RiftExchange.ReservationState"},{"name":"ethPayoutAddress","type":"address","internalType":"address"},{"name":"lpReservationHash","type":"bytes32","internalType":"bytes32"},{"name":"nonce","type":"bytes32","internalType":"bytes32"},{"name":"totalSatsInputInlcudingProxyFee","type":"uint256","internalType":"uint256"},{"name":"totalSwapOutputAmount","type":"uint256","internalType":"uint256"},{"name":"prepaidFeeAmount","type":"int256","internalType":"int256"},{"name":"proposedBlockHeight","type":"uint256","internalType":"uint256"},{"name":"proposedBlockHash","type":"bytes32","internalType":"bytes32"},{"name":"vaultIndexes","type":"uint256[]","internalType":"uint256[]"},{"name":"amountsToReserve","type":"uint192[]","internalType":"uint192[]"}]}],"stateMutability":"view"},{"type":"function","name":"getReservationLength","inputs":[],"outputs":[{"name":"","type":"uint256","internalType":"uint256"}],"stateMutability":"view"},{"type":"function","name":"owner","inputs":[],"outputs":[{"name":"","type":"address","internalType":"address"}],"stateMutability":"view"},{"type":"function","name":"proposeTransactionProof","inputs":[{"name":"swapReservationIndex","type":"uint256","internalType":"uint256"},{"name":"bitcoinTxId","type":"bytes32","internalType":"bytes32"},{"name":"safeBlockHeight","type":"uint32","internalType":"uint32"},{"name":"proposedBlockHeight","type":"uint64","internalType":"uint64"},{"name":"confirmationBlockHeight","type":"uint64","internalType":"uint64"},{"name":"blockHashes","type":"bytes32[]","internalType":"bytes32[]"},{"name":"proof","type":"bytes","internalType":"bytes"}],"outputs":[],"stateMutability":"nonpayable"},{"type":"function","name":"protocolFeeBP","inputs":[],"outputs":[{"name":"","type":"uint8","internalType":"uint8"}],"stateMutability":"view"},{"type":"function","name":"proverReward","inputs":[],"outputs":[{"name":"","type":"uint256","internalType":"uint256"}],"stateMutability":"view"},{"type":"function","name":"releaseLiquidity","inputs":[{"name":"swapReservationIndex","type":"uint256","internalType":"uint256"}],"outputs":[],"stateMutability":"nonpayable"},{"type":"function","name":"releaserReward","inputs":[],"outputs":[{"name":"","type":"uint256","internalType":"uint256"}],"stateMutability":"view"},{"type":"function","name":"reserveLiquidity","inputs":[{"name":"vaultIndexesToReserve","type":"uint256[]","internalType":"uint256[]"},{"name":"amountsToReserve","type":"uint192[]","internalType":"uint192[]"},{"name":"ethPayoutAddress","type":"address","internalType":"address"},{"name":"totalSatsInputInlcudingProxyFee","type":"uint256","internalType":"uint256"},{"name":"expiredSwapReservationIndexes","type":"uint256[]","internalType":"uint256[]"}],"outputs":[],"stateMutability":"nonpayable"},{"type":"function","name":"swapReservations","inputs":[{"name":"","type":"uint256","internalType":"uint256"}],"outputs":[{"name":"confirmationBlockHeight","type":"uint32","internalType":"uint32"},{"name":"reservationTimestamp","type":"uint32","internalType":"uint32"},{"name":"unlockTimestamp","type":"uint32","internalType":"uint32"},{"name":"state","type":"uint8","internalType":"enum RiftExchange.ReservationState"},{"name":"ethPayoutAddress","type":"address","internalType":"address"},{"name":"lpReservationHash","type":"bytes32","internalType":"bytes32"},{"name":"nonce","type":"bytes32","internalType":"bytes32"},{"name":"totalSatsInputInlcudingProxyFee","type":"uint256","internalType":"uint256"},{"name":"totalSwapOutputAmount","type":"uint256","internalType":"uint256"},{"name":"prepaidFeeAmount","type":"int256","internalType":"int256"},{"name":"proposedBlockHeight","type":"uint256","internalType":"uint256"},{"name":"proposedBlockHash","type":"bytes32","internalType":"bytes32"}],"stateMutability":"view"},{"type":"function","name":"transferOwnership","inputs":[{"name":"newOwner","type":"address","internalType":"address"}],"outputs":[],"stateMutability":"nonpayable"},{"type":"function","name":"updateExchangeRate","inputs":[{"name":"globalVaultIndex","type":"uint256","internalType":"uint256"},{"name":"localVaultIndex","type":"uint256","internalType":"uint256"},{"name":"newexchangeRate","type":"uint64","internalType":"uint64"},{"name":"expiredReservationIndexes","type":"uint256[]","internalType":"uint256[]"}],"outputs":[],"stateMutability":"nonpayable"},{"type":"function","name":"updateProtocolAddress","inputs":[{"name":"newProtocolAddress","type":"address","internalType":"address payable"}],"outputs":[],"stateMutability":"nonpayable"},{"type":"function","name":"updateProtocolFee","inputs":[{"name":"newProtocolFeeBP","type":"uint8","internalType":"uint8"}],"outputs":[],"stateMutability":"nonpayable"},{"type":"function","name":"updateRewards","inputs":[{"name":"newProverReward","type":"uint256","internalType":"uint256"},{"name":"newReleaserReward","type":"uint256","internalType":"uint256"}],"outputs":[],"stateMutability":"nonpayable"},{"type":"function","name":"validateBlockExists","inputs":[{"name":"blockHeight","type":"uint256","internalType":"uint256"}],"outputs":[],"stateMutability":"view"},{"type":"function","name":"verifierContract","inputs":[],"outputs":[{"name":"","type":"address","internalType":"contract ISP1Verifier"}],"stateMutability":"view"},{"type":"function","name":"withdrawLiquidity","inputs":[{"name":"globalVaultIndex","type":"uint256","internalType":"uint256"},{"name":"localVaultIndex","type":"uint256","internalType":"uint256"},{"name":"amountToWithdraw","type":"uint192","internalType":"uint192"},{"name":"expiredReservationIndexes","type":"uint256[]","internalType":"uint256[]"}],"outputs":[],"stateMutability":"nonpayable"},{"type":"event","name":"BlocksAdded","inputs":[{"name":"startBlockHeight","type":"uint256","indexed":false,"internalType":"uint256"},{"name":"count","type":"uint256","indexed":false,"internalType":"uint256"}],"anonymous":false},{"type":"event","name":"LiquidityReserved","inputs":[{"name":"reserver","type":"address","indexed":true,"internalType":"address"},{"name":"swapReservationIndex","type":"uint256","indexed":false,"internalType":"uint256"},{"name":"orderNonce","type":"bytes32","indexed":false,"internalType":"bytes32"}],"anonymous":false},{"type":"event","name":"OwnershipTransferred","inputs":[{"name":"user","type":"address","indexed":true,"internalType":"address"},{"name":"newOwner","type":"address","indexed":true,"internalType":"address"}],"anonymous":false},{"type":"event","name":"ProofProposed","inputs":[{"name":"prover","type":"address","indexed":true,"internalType":"address"},{"name":"swapReservationIndex","type":"uint256","indexed":false,"internalType":"uint256"},{"name":"orderNonce","type":"bytes32","indexed":false,"internalType":"bytes32"}],"anonymous":false},{"type":"event","name":"SwapComplete","inputs":[{"name":"swapReservationIndex","type":"uint256","indexed":false,"internalType":"uint256"},{"name":"orderNonce","type":"bytes32","indexed":false,"internalType":"bytes32"}],"anonymous":false},{"type":"error","name":"BlockDoesNotExist","inputs":[]},{"type":"error","name":"InvaidSameExchangeRatevaultIndex","inputs":[]},{"type":"error","name":"InvalidConfirmationBlock","inputs":[]},{"type":"error","name":"InvalidProposedBlockOverwrite","inputs":[]},{"type":"error","name":"InvalidSafeBlock","inputs":[]},{"type":"error","name":"InvalidUpdateWithActiveReservations","inputs":[]},{"type":"error","name":"InvalidVaultIndex","inputs":[]},{"type":"error","name":"InvalidVaultUpdate","inputs":[]},{"type":"error","name":"NotEnoughLiquidity","inputs":[]},{"type":"error","name":"NotVaultOwner","inputs":[]},{"type":"error","name":"OverwrittenProposedBlock","inputs":[]},{"type":"error","name":"ReservationNotExpired","inputs":[]},{"type":"error","name":"ReservationNotUnlocked","inputs":[]},{"type":"error","name":"StillInChallengePeriod","inputs":[]},{"type":"error","name":"WithdrawalAmountError","inputs":[]},{"type":"error","name":"exchangeRateZero","inputs":[]}],"bytecode":{"object":"0x61010060405260038054600560a11b60ff60a01b19909116179055600980546001600160a01b03191673f39fd6e51aad88f6f4ce6ab8827279cfffb922661790553480156200004d57600080fd5b50604051620038db380380620038db833981016040819052620000709162000388565b60018a905560008a81526020819052604081208a905582908b908b908b908190806200009c8662000247565b6001600160401b0316815260208101919091526040908101600090812092909255600380546001600160a01b0319166001600160a01b03881690811790915590519094509092507f8be0079c531659141344cd1fd0a4f28419497f9722a3daafe3b4186f6b6457e091508290a35060e08190526001600160a01b0380881660c052861660805260408051808201909152600f81526e02222a827a9a4aa2faa27a5a2a71d1608d1b6020820152620001539062000269565b6080516200016190620002b7565b6080516001600160a01b031663313ce5676040518163ffffffff1660e01b8152600401602060405180830381865afa158015620001a2573d6000803e3d6000fd5b505050506040513d601f19601f82011682018060405250810190620001c891906200042f565b60ff1660a05260408051808201909152601081526f02a27a5a2a72fa222a1a4a6a0a6299d160851b6020820152620002009062000269565b60a051620002119060ff1662000305565b5050600492909255600555600980546001600160a01b0319166001600160a01b0390921691909117905550620005179350505050565b6000620002576107e0836200045b565b62000263908362000490565b92915050565b620002b481604051602401620002809190620004c6565b60408051601f198184030181529190526020810180516001600160e01b0390811663104c13eb60e21b179091526200035116565b50565b6040516001600160a01b0382166024820152620002b49060440160408051601f198184030181529190526020810180516001600160e01b0390811663161765e160e11b179091526200035116565b620002b4816040516024016200031d91815260200190565b60408051601f198184030181529190526020810180516001600160e01b0390811663f5b1bba960e01b179091526200035116565b80516a636f6e736f6c652e6c6f67602083016000808483855afa5050505050565b6001600160a01b0381168114620002b457600080fd5b6000806000806000806000806000806101408b8d031215620003a957600080fd5b8a51995060208b0151985060408b0151975060608b0151620003cb8162000372565b60808c0151909750620003de8162000372565b8096505060a08b0151945060c08b0151935060e08b0151620004008162000372565b6101008c0151909350620004148162000372565b809250506101208b015190509295989b9194979a5092959850565b6000602082840312156200044257600080fd5b815160ff811681146200045457600080fd5b9392505050565b60006001600160401b03838116806200048457634e487b7160e01b600052601260045260246000fd5b92169190910692915050565b6001600160401b03828116828216039080821115620004bf57634e487b7160e01b600052601160045260246000fd5b5092915050565b60006020808352835180602085015260005b81811015620004f657858101830151858201604001528201620004d8565b506000604082860101526040601f19601f8301168501019250505092915050565b60805160a05160c05160e05161334b620005906000396000818161034b0152611d020152600081816105770152611cd5015260006103be01526000818161027a01528181610d8101528181610e5f0152818161162a015281816119fd01528181611aef01528181611ddc01526120e6015261334b6000f3fe608060405234801561001057600080fd5b50600436106102485760003560e01c80638da5cb5b1161013b578063c5fba0b8116100b8578063eb6c75221161007c578063eb6c7522146105e1578063ed8b2b32146105eb578063ee82ac5e146105fe578063f2fde38b1461061e578063fba781661461063157600080fd5b8063c5fba0b81461055e578063cf69568814610572578063d57763c314610599578063e118f0e6146105b9578063ea6fe03e146105d957600080fd5b80639cc7eab9116100ff5780639cc7eab9146105165780639cdb8e5a1461051f578063ad062e551461053a578063aeacb2e714610542578063c3a079ed1461055557600080fd5b80638da5cb5b146104b35780638f805ac9146104c657806397e50818146104d957806398f9e757146104ec5780639a64279c1461050c57600080fd5b806358e2b676116101c95780636b994abb1161018d5780636b994abb1461045b5780636dcc17c814610486578063778919071461048f5780637dce5550146104a257806389a11f7a146104aa57600080fd5b806358e2b676146103a65780635b7f415c146103b95780635f4d0610146103f25780635f5d5b6a146104405780636512d0571461044857600080fd5b80632d908c02116102105780632d908c02146103335780633d7b22b314610346578063490d4c5f1461036d57806351a7f1cd1461038057806356fe6f861461039357600080fd5b80630140e1831461024d5780630a7aa2931461026257806313f6658714610275578063163de0c5146102b9578063276d080e146102d0575b600080fd5b61026061025b36600461287f565b61063a565b005b61026061027036600461297d565b610f58565b61029c7f000000000000000000000000000000000000000000000000000000000000000081565b6040516001600160a01b0390911681526020015b60405180910390f35b6102c260015481565b6040519081526020016102b0565b6102e36102de3660046129a7565b610fab565b6040516102b091908151815260208083015190820152604080830151908201526060808301516001600160401b0316908201526080918201516001600160501b0319169181019190915260a00190565b6102606103413660046129c0565b611054565b6102c27f000000000000000000000000000000000000000000000000000000000000000081565b61026061037b3660046129a7565b611286565b61026061038e366004612a38565b6112ca565b6102606103a1366004612a95565b6116a8565b6102606103b4366004612af5565b61179a565b6103e07f000000000000000000000000000000000000000000000000000000000000000081565b60405160ff90911681526020016102b0565b6104056104003660046129a7565b6117e6565b604080519586526020860194909452928401919091526001600160401b031660608301526001600160501b031916608082015260a0016102b0565b6102c2600281565b6102c26104563660046129a7565b611835565b61046e6104693660046129a7565b611863565b6040516102b09c9b9a99989796959493929190612b4a565b6102c260045481565b61026061049d3660046129a7565b6118eb565b6008546102c2565b6102c261708081565b60035461029c906001600160a01b031681565b6102606104d4366004612bc2565b611bb6565b6102606104e7366004612ccb565b611ee5565b6104ff6104fa366004612af5565b611f1a565b6040516102b09190612d29565b6102c26203345081565b6102c260055481565b610527603281565b60405161ffff90911681526020016102b0565b6103e0600a81565b610260610550366004612d4c565b611f9d565b6102c261025881565b6003546103e090600160a01b900460ff1681565b61029c7f000000000000000000000000000000000000000000000000000000000000000081565b6105ac6105a73660046129a7565b61211d565b6040516102b09190612db3565b6105cc6105c7366004612ebc565b61235c565b6040516102b0919061300d565b6007546102c2565b6102c2620668a081565b6102606105f93660046129a7565b612385565b6102c261060c3660046129a7565b60009081526020819052604090205490565b61026061062c366004612af5565b6123b4565b6102c260025481565b6000805b855181101561067f5785818151811061065957610659613020565b60200260200101516001600160c01b031682610675919061304c565b915060010161063e565b506106bf6040518060400160405280601a81526020017f636f6d62696e6564416d6f756e7473546f526573657276653a200000000000008152508261242a565b60006106d5670de0b6b3a764000061271061305f565b600354600160a01b900460ff166106f4670de0b6b3a76400008561305f565b6106fe919061305f565b610708919061308c565b90506107396040518060400160405280600d81526020016c0383937ba37b1b7b62332b29d1609d1b8152508261242a565b60045460408051808201909152600b81526a0383937bb32b92332b29d160ad1b6020820152610768908261242a565b60055460408051808201909152600d81526c03932b632b0b9b2b92332b29d1609d1b6020820152610799908261242a565b6107a285612473565b6107ab856124fe565b6000805b8a518110156109935760028a82815181106107cc576107cc613020565b602002602001015160088d84815181106107e8576107e8613020565b60200260200101518154811061080057610800613020565b906000526020600020906004020160030160009054906101000a90046001600160401b031660088e858151811061083957610839613020565b60200260200101518154811061085157610851613020565b600091825260209182902060036004909202010154604080516001600160c01b03909516928501929092526001600160401b03909216908301526001600160501b0319600160401b90910460501b1660608201526080810184905260a00160408051601f19818403018152908290526108c9916130a0565b602060405180830381855afa1580156108e6573d6000803e3d6000fd5b5050506040513d601f19601f8201168201806040525081019061090991906130bc565b915060088b828151811061091f5761091f613020565b60200260200101518154811061093757610937613020565b9060005260206000209060040201600101548a828151811061095b5761095b613020565b60200260200101516001600160c01b0316111561098b57604051634323a55560e01b815260040160405180910390fd5b6001016107af565b50855115610abe5760006007876000815181106109b2576109b2613020565b6020026020010151815481106109ca576109ca613020565b60009182526020909120600b9091020180546001820180546001600160a01b0319166001600160a01b038d16179055600160601b6cffffffffffffffffff00000000199091166401000000004263ffffffff16026bffffffff00000000000000001916171781559050610a3d838561304c565b600682015560058101869055600754604051610a64918b91429146918791906020016130d5565b60408051601f1981840301815291905280516020918201206003830155600482018990558b51610a9c916009840191908e019061268d565b508951610ab290600a83019060208d01906126d8565b50600201819055610cee565b604080516101c08101825260008082524263ffffffff1660208301529181019190915260079060608101600181526020018a6001600160a01b031681526020018381526020018a424686600780549050604051602001610b229594939291906130d5565b6040516020818303038152906040528051906020012081526020018981526020018781526020018486610b55919061304c565b8152602001600081526020016000801b81526020018c81526020018b81525090806001815401808255809150506001900390600052602060002090600b020160009091909190915060008201518160000160006101000a81548163ffffffff021916908363ffffffff16021790555060208201518160000160046101000a81548163ffffffff021916908363ffffffff16021790555060408201518160000160086101000a81548163ffffffff021916908363ffffffff160217905550606082015181600001600c6101000a81548160ff02191690836004811115610c3c57610c3c612b12565b021790555060808201516001820180546001600160a01b0319166001600160a01b0390921691909117905560a0820151600282015560c0820151600382015560e0820151600482015561010082015160058201556101208201516006820155610140820151600782015561016082015160088201556101808201518051610ccd91600984019160209091019061268d565b506101a08201518051610cea91600a8401916020909101906126d8565b5050505b60005b8a51811015610d7657898181518110610d0c57610d0c613020565b60200260200101516001600160c01b031660088c8381518110610d3157610d31613020565b602002602001015181548110610d4957610d49613020565b90600052602060002090600402016001016000828254610d699190613103565b9091555050600101610cf1565b506001600160a01b037f0000000000000000000000000000000000000000000000000000000000000000166323b872dd333085610db3898961304c565b610dbd919061304c565b6040516001600160e01b031960e086901b1681526001600160a01b03938416600482015292909116602483015260448201526064016020604051808303816000875af1158015610e11573d6000803e3d6000fd5b505050506040513d601f19601f82011682018060405250810190610e359190613116565b5060095460405163a9059cbb60e01b81526001600160a01b039182166004820152602481018690527f00000000000000000000000000000000000000000000000000000000000000009091169063a9059cbb906044016020604051808303816000875af1158015610eaa573d6000803e3d6000fd5b505050506040513d601f19601f82011682018060405250810190610ece9190613116565b50337f5956135c9be999a50f7ff4ea49ddf1485bc321ab333dc7a0877633eeb47528936001610efc60075490565b610f069190613103565b600754604051610f21918d91429146918991906020016130d5565b60408051601f198184030181528282528051602091820120938352820192909252015b60405180910390a250505050505050505050565b6003546001600160a01b03163314610f8b5760405162461bcd60e51b8152600401610f8290613138565b60405180910390fd5b6003805460ff909216600160a01b0260ff60a01b19909216919091179055565b6040805160a08101825260008082526020820181905291810182905260608101829052608081019190915260088281548110610fe957610fe9613020565b60009182526020918290206040805160a0810182526004909302909101805483526001810154938301939093526002830154908201526003909101546001600160401b03811660608301526001600160501b0319600160401b90910460501b16608082015292915050565b60015460056110638686613103565b10156110be576000848152602081905260409020548351849061108890600190613103565b8151811061109857611098613020565b6020026020010151146110be576040516341305f6360e01b815260040160405180910390fd5b808611156110df5760405163575f3da360e01b815260040160405180910390fd5b8282815181106110f1576110f1613020565b60200260200101516000808781526020019081526020016000205403611117575061127f565b6000858152602081905260409020541580159061113657508360025410155b15611154576040516371e98f3d60e11b815260040160405180910390fd5b808511156111f8578086036111985782828151811061117557611175613020565b602002602001015160008087815260200190815260200160002081905550611231565b808610156111f357855b8581116111f157836111b48883613103565b815181106111c4576111c4613020565b602090810291909101810151600083815291829052604090912055806111e98161315e565b9150506111a2565b505b611231565b808510156112315782828151811061121257611212613020565b6020026020010151600080878152602001908152602001600020819055505b6001548511156112415760018590555b82516040805188815260208101929092527fb68477c768bbb33b4f238a3dfd17c33c499268c59cd042b7936bbc23dc2bdd34910160405180910390a1505b5050505050565b60006008828154811061129b5761129b613020565b600091825260208220600490910201818155600181019190915560030180546001600160f01b03191690555050565b6112fb6040518060400160405280601081526020016f6465706f7369744c697175696469747960801b81525061260b565b61132c6040518060400160405280600f81526020016e02232b837b9b4ba20b6b7bab73a1d1608d1b8152508661242a565b836001600160401b031660000361135657604051635c4ad48d60e11b815260040160405180910390fd5b3360009081526006602052604081205490036113a4576040805160006020808301828152838501855283523382526006815292902081518051929391926113a0928492019061268d565b5050505b80600019146114305760008190506000600882815481106113c7576113c7613020565b6000918252602090912060049091020160038101549091506001600160401b038781169116036114105786816001016000828254611405919061304c565b909155506114299050565b60405163927ce9e760e01b815260040160405180910390fd5b50506115d4565b81600019146114c35760006008838154811061144e5761144e613020565b9060005260206000209060040201905080600101546000146114835760405163721e09df60e01b815260040160405180910390fd5b85815560018101869055600060028201556003018054605085901c600160401b026001600160f01b03199091166001600160401b038716171790556115d4565b6040805160a0810182528681526020810187815260009282018381526001600160401b03808916606085019081526001600160501b0319891660808601908152600880546001810182559752945160049096027ff3f7a9fe364faab93b216da50a3214154f22a0a2b415b23a84c8169e8b636ee381019690965592517ff3f7a9fe364faab93b216da50a3214154f22a0a2b415b23a84c8169e8b636ee486015590517ff3f7a9fe364faab93b216da50a3214154f22a0a2b415b23a84c8169e8b636ee585015590517ff3f7a9fe364faab93b216da50a3214154f22a0a2b415b23a84c8169e8b636ee69093018054925160501c600160401b026001600160f01b031990931693909116929092171790555b3360009081526006602052604090206008546115f290600190613103565b815460018101835560009283526020909220909101556040516323b872dd60e01b8152336004820152306024820152604481018690527f00000000000000000000000000000000000000000000000000000000000000006001600160a01b0316906323b872dd906064015b6020604051808303816000875af115801561167c573d6000803e3d6000fd5b505050506040513d601f19601f820116820180604052508101906116a09190613116565b505050505050565b3360009081526006602052604090208054859190859081106116cc576116cc613020565b9060005260206000200154146116f557604051630e7fea9d60e01b815260040160405180910390fd5b816001600160401b031660000361171f57604051636e5a187760e11b815260040160405180910390fd5b60006008858154811061173457611734613020565b9060005260206000209060040201905061174d826124fe565b8054600182015414611772576040516391bc6cc360e01b815260040160405180910390fd5b600301805467ffffffffffffffff19166001600160401b039390931692909217909155505050565b6003546001600160a01b031633146117c45760405162461bcd60e51b8152600401610f8290613138565b600980546001600160a01b0319166001600160a01b0392909216919091179055565b600881815481106117f657600080fd5b6000918252602090912060049091020180546001820154600283015460039093015491935091906001600160401b03811690600160401b900460501b85565b60006008828154811061184a5761184a613020565b9060005260206000209060040201600101549050919050565b6007818154811061187357600080fd5b60009182526020909120600b909102018054600182015460028301546003840154600485015460058601546006870154600788015460089098015463ffffffff8089169a506401000000008904811699600160401b8a0490911698600160601b900460ff16976001600160a01b03169695949392918c565b60006007828154811061190057611900613020565b60009182526020909120600b90910201905060028154600160601b900460ff16600481111561193157611931612b12565b1461194f5760405163b38c767b60e01b815260040160405180910390fd5b80546102589061196c90600160401b900463ffffffff1642613103565b101561198b57604051632d5c37f560e21b815260040160405180910390fd5b60088101546007820154600090815260208190526040902054036119c25760405163c1f6fa5160e01b815260040160405180910390fd5b60006119d1486203345061305f565b6005546119de919061304c565b60405163a9059cbb60e01b8152336004820152602481018290529091507f00000000000000000000000000000000000000000000000000000000000000006001600160a01b03169063a9059cbb906044016020604051808303816000875af1158015611a4e573d6000803e3d6000fd5b505050506040513d601f19601f82011682018060405250810190611a729190613116565b5080826006016000828254611a879190613177565b9091555050600682015460001315611abe578160060154826005016000828254611ab1919061304c565b9091555050600060068301555b6001820154600583015460405163a9059cbb60e01b81526001600160a01b03928316600482015260248101919091527f00000000000000000000000000000000000000000000000000000000000000009091169063a9059cbb906044016020604051808303816000875af1158015611b3a573d6000803e3d6000fd5b505050506040513d601f19601f82011682018060405250810190611b5e9190613116565b508154600160621b60ff60601b1990911617825560038201546040805185815260208101929092527f12245c00d428a4c558061d2f69fe154a203bd2fb4a65b6c3e73e95ccdc735d18910160405180910390a1505050565b600060078881548110611bcb57611bcb613020565b90600052602060002090600b020190506000611cbb6040518061016001604052808a8152602001846002015481526020018460030154815260200184600501546001600160401b0316815260200184600901805490506001600160401b03168152602001611c56611c3b8a61264e565b6001600160401b031660009081526020819052604090205490565b815263ffffffff8a1660208201819052604090910190611c76908a61319e565b6001600160401b03168152602001611c8e898961319e565b6001600160401b03168152602001611ca58961264e565b6001600160401b0316815260200186905261235c565b60405163020a49e360e51b81529091506001600160a01b037f000000000000000000000000000000000000000000000000000000000000000016906341493c6090611d2e907f000000000000000000000000000000000000000000000000000000000000000090859088906004016131be565b60006040518083038186803b158015611d4657600080fd5b505afa158015611d5a573d6000803e3d6000fd5b50611d909250505063ffffffff88166001600160401b0388811690881687611d82848c61319e565b6001600160401b0316611054565b815460ff60601b1916600160611b1782556000611db048620668a061305f565b600454611dbd919061304c565b60405163a9059cbb60e01b8152336004820152602481018290529091507f00000000000000000000000000000000000000000000000000000000000000006001600160a01b03169063a9059cbb906044016020604051808303816000875af1158015611e2d573d6000803e3d6000fd5b505050506040513d601f19601f82011682018060405250810190611e519190613116565b50611e7563ffffffff89166001600160401b03808a1690891688611d82848d61319e565b600083600601541215611ea7578260060154836005016000828254611e9a919061304c565b9091555050600060068401555b600383015460405133917f184abe81dc2f02915b1cd93143dc1987a077040f7de69181dd5eaf9b37bb715c91610f44918e8252602082015260400190565b6003546001600160a01b03163314611f0f5760405162461bcd60e51b8152600401610f8290613138565b600491909155600555565b6040805160208082018352606082526001600160a01b03841660009081526006825283902083518154808402820186018652928101838152939490939192849291849190840182828015611f8d57602002820191906000526020600020905b815481526020019060010190808311611f79575b5050505050815250509050919050565b336000908152600660205260409020805485919085908110611fc157611fc1613020565b906000526020600020015414611fea57604051630e7fea9d60e01b815260040160405180910390fd5b611ff3816124fe565b60085484106120155760405163721e09df60e01b815260040160405180910390fd5b60006008858154811061202a5761202a613020565b90600052602060002090600402019050826001600160c01b03166000148061205e57508060010154836001600160c01b0316115b1561207c5760405163b4e3d41360e01b815260040160405180910390fd5b826001600160c01b03168160010160008282546120999190613103565b92505081905550826001600160c01b03168160020160008282546120bd919061304c565b909155505060405163a9059cbb60e01b81523360048201526001600160c01b03841660248201527f00000000000000000000000000000000000000000000000000000000000000006001600160a01b03169063a9059cbb9060440161165d565b604080516101c08101825260008082526020820181905291810182905260608082018390526080820183905260a0820183905260c0820183905260e0820183905261010082018390526101208201839052610140820183905261016082019290925261018081018290526101a0810191909152600782815481106121a3576121a3613020565b6000918252602091829020604080516101c081018252600b909302909101805463ffffffff80821685526401000000008204811695850195909552600160401b8104909416918301919091529091606083019060ff600160601b90910416600481111561221257612212612b12565b600481111561222357612223612b12565b81526020016001820160009054906101000a90046001600160a01b03166001600160a01b03166001600160a01b0316815260200160028201548152602001600382015481526020016004820154815260200160058201548152602001600682015481526020016007820154815260200160088201548152602001600982018054806020026020016040519081016040528092919081815260200182805480156122eb57602002820191906000526020600020905b8154815260200190600101908083116122d7575b50505050508152602001600a8201805480602002602001604051908101604052809291908181526020018280548015611f8d57602002820191906000526020600020905b81546001600160c01b0316815260019091019060200180831161232f575050505050815250509050919050565b60608160405160200161236f91906131e9565b6040516020818303038152906040529050919050565b6000818152602081905260409020546123b15760405163fa4a5e4560e01b815260040160405180910390fd5b50565b6003546001600160a01b031633146123de5760405162461bcd60e51b8152600401610f8290613138565b600380546001600160a01b0319166001600160a01b03831690811790915560405133907f8be0079c531659141344cd1fd0a4f28419497f9722a3daafe3b4186f6b6457e090600090a350565b61246f82826040516024016124409291906132cd565b60408051601f198184030181529190526020810180516001600160e01b03166309710a9d60e41b17905261266c565b5050565b60005b815181101561246f57617080600783838151811061249657612496613020565b6020026020010151815481106124ae576124ae613020565b60009182526020909120600b90910201546124d790640100000000900463ffffffff1642613103565b10156124f6576040516326349d6b60e01b815260040160405180910390fd5b600101612476565b60005b815181101561246f5761251382612473565b6000600783838151811061252957612529613020565b60200260200101518154811061254157612541613020565b90600052602060002090600b0201905060005b60098201548110156125f1576000600883600901838154811061257957612579613020565b90600052602060002001548154811061259457612594613020565b9060005260206000209060040201905082600a0182815481106125b9576125b9613020565b60009182526020822001546001830180546001600160c01b039092169290916125e390849061304c565b909155505050600101612554565b50805460ff60601b1916600360601b179055600101612501565b6123b18160405160240161261f919061300d565b60408051601f198184030181529190526020810180516001600160e01b031663104c13eb60e21b17905261266c565b600061265c6107e0836132ef565b612666908361319e565b92915050565b80516a636f6e736f6c652e6c6f67602083016000808483855afa5050505050565b8280548282559060005260206000209081019282156126c8579160200282015b828111156126c85782518255916020019190600101906126ad565b506126d492915061272d565b5090565b8280548282559060005260206000209081019282156126c8579160200282015b828111156126c857825182546001600160c01b0319166001600160c01b039091161782556020909201916001909101906126f8565b5b808211156126d4576000815560010161272e565b634e487b7160e01b600052604160045260246000fd5b60405161016081016001600160401b038111828210171561277b5761277b612742565b60405290565b604051601f8201601f191681016001600160401b03811182821017156127a9576127a9612742565b604052919050565b60006001600160401b038211156127ca576127ca612742565b5060051b60200190565b600082601f8301126127e557600080fd5b813560206127fa6127f5836127b1565b612781565b8083825260208201915060208460051b87010193508684111561281c57600080fd5b602086015b848110156128385780358352918301918301612821565b509695505050505050565b80356001600160c01b038116811461285a57600080fd5b919050565b6001600160a01b03811681146123b157600080fd5b803561285a8161285f565b600080600080600060a0868803121561289757600080fd5b85356001600160401b03808211156128ae57600080fd5b6128ba89838a016127d4565b96506020915081880135818111156128d157600080fd5b8801601f81018a136128e257600080fd5b80356128f06127f5826127b1565b81815260059190911b8201840190848101908c83111561290f57600080fd5b928501925b828410156129345761292584612843565b82529285019290850190612914565b98506129469250505060408901612874565b945060608801359350608088013591508082111561296357600080fd5b50612970888289016127d4565b9150509295509295909350565b60006020828403121561298f57600080fd5b813560ff811681146129a057600080fd5b9392505050565b6000602082840312156129b957600080fd5b5035919050565b600080600080600060a086880312156129d857600080fd5b85359450602086013593506040860135925060608601356001600160401b03811115612a0357600080fd5b612a0f888289016127d4565b95989497509295608001359392505050565b80356001600160401b038116811461285a57600080fd5b600080600080600060a08688031215612a5057600080fd5b85359450612a6060208701612a21565b935060408601356001600160501b031981168114612a7d57600080fd5b94979396509394606081013594506080013592915050565b60008060008060808587031215612aab57600080fd5b8435935060208501359250612ac260408601612a21565b915060608501356001600160401b03811115612add57600080fd5b612ae9878288016127d4565b91505092959194509250565b600060208284031215612b0757600080fd5b81356129a08161285f565b634e487b7160e01b600052602160045260246000fd5b60058110612b4657634e487b7160e01b600052602160045260246000fd5b9052565b63ffffffff8d811682528c811660208301528b1660408201526101808101612b75606083018c612b28565b6001600160a01b0399909916608082015260a081019790975260c087019590955260e086019390935261010085019190915261012084015261014083015261016090910152949350505050565b600080600080600080600060e0888a031215612bdd57600080fd5b873596506020808901359650604089013563ffffffff81168114612c0057600080fd5b9550612c0e60608a01612a21565b9450612c1c60808a01612a21565b935060a08901356001600160401b0380821115612c3857600080fd5b612c448c838d016127d4565b945060c08b0135915080821115612c5a57600080fd5b818b0191508b601f830112612c6e57600080fd5b813581811115612c8057612c80612742565b612c92601f8201601f19168501612781565b91508082528c84828501011115612ca857600080fd5b808484018584013760008482840101525080935050505092959891949750929550565b60008060408385031215612cde57600080fd5b50508035926020909101359150565b60008151808452602080850194506020840160005b83811015612d1e57815187529582019590820190600101612d02565b509495945050505050565b6020815260008251602080840152612d446040840182612ced565b949350505050565b60008060008060808587031215612d6257600080fd5b8435935060208501359250612ac260408601612843565b60008151808452602080850194506020840160005b83811015612d1e5781516001600160c01b031687529582019590820190600101612d8e565b60208152612dca60208201835163ffffffff169052565b60006020830151612de3604084018263ffffffff169052565b50604083015163ffffffff81166060840152506060830151612e086080840182612b28565b5060808301516001600160a01b03811660a08401525060a083015160c08381019190915283015160e08084019190915283015161010080840191909152830151610120808401919091528301516101408084019190915283015161016080840191909152830151610180808401919091528301516101c06101a0808501829052612e966101e0860184612ced565b90860151858203601f190183870152909250612eb28382612d79565b9695505050505050565b600060208284031215612ece57600080fd5b81356001600160401b0380821115612ee557600080fd5b908301906101608286031215612efa57600080fd5b612f02612758565b823581526020830135602082015260408301356040820152612f2660608401612a21565b6060820152612f3760808401612a21565b608082015260a083013560a0820152612f5260c08401612a21565b60c0820152612f6360e08401612a21565b60e0820152610100612f76818501612a21565b90820152610120612f88848201612a21565b908201526101408381013583811115612fa057600080fd5b612fac888287016127d4565b918301919091525095945050505050565b60005b83811015612fd8578181015183820152602001612fc0565b50506000910152565b60008151808452612ff9816020860160208601612fbd565b601f01601f19169290920160200192915050565b6020815260006129a06020830184612fe1565b634e487b7160e01b600052603260045260246000fd5b634e487b7160e01b600052601160045260246000fd5b8082018082111561266657612666613036565b808202811582820484141761266657612666613036565b634e487b7160e01b600052601260045260246000fd5b60008261309b5761309b613076565b500490565b600082516130b2818460208701612fbd565b9190910192915050565b6000602082840312156130ce57600080fd5b5051919050565b6001600160a01b03959095168552602085019390935260408401919091526060830152608082015260a00190565b8181038181111561266657612666613036565b60006020828403121561312857600080fd5b815180151581146129a057600080fd5b6020808252600c908201526b15539055551213d49256915160a21b604082015260600190565b60006001820161317057613170613036565b5060010190565b818103600083128015838313168383128216171561319757613197613036565b5092915050565b6001600160401b0382811682821603908082111561319757613197613036565b8381526060602082015260006131d76060830185612fe1565b8281036040840152612eb28185612fe1565b602081528151602082015260208201516040820152604082015160608201526000606083015161322460808401826001600160401b03169052565b5060808301516001600160401b03811660a08401525060a083015160c083015260c083015161325e60e08401826001600160401b03169052565b5060e083015161010061327b818501836001600160401b03169052565b8401519050610120613297848201836001600160401b03169052565b84015190506101406132b3848201836001600160401b03169052565b840151610160848101529050612d44610180840182612ced565b6040815260006132e06040830185612fe1565b90508260208301529392505050565b60006001600160401b038084168061330957613309613076565b9216919091069291505056fea26469706673582212200e41ad7f0bd8ddc60c9c4b63045859ba63bd5b99ff995e1ed600f447feaa16c064736f6c63430008180033","linkReferences":{}},"methodIdentifiers":{"CHALLENGE_PERIOD()":"c3a079ed","DEPOSIT_TOKEN()":"13f66587","MAX_DEPOSIT_OUTPUTS()":"9cdb8e5a","MIN_ORDER_GAS_MULTIPLIER()":"5f5d5b6a","PROOF_GAS_COST()":"eb6c7522","RELEASE_GAS_COST()":"9a64279c","RESERVATION_LOCKUP_PERIOD()":"89a11f7a","SAMPLING_SIZE()":"ad062e55","TOKEN_DECIMALS()":"5b7f415c","addBlock(uint256,uint256,uint256,bytes32[],uint256)":"2d908c02","buildProofPublicInputs((bytes32,bytes32,bytes32,uint64,uint64,bytes32,uint64,uint64,uint64,uint64,bytes32[]))":"e118f0e6","circuitVerificationKey()":"3d7b22b3","currentConfirmationHeight()":"fba78166","currentHeight()":"163de0c5","depositLiquidity(uint256,uint64,bytes22,int256,int256)":"51a7f1cd","depositVaults(uint256)":"5f4d0610","emptyDepositVault(uint256)":"490d4c5f","getBlockHash(uint256)":"ee82ac5e","getDepositVault(uint256)":"276d080e","getDepositVaultUnreservedBalance(uint256)":"6512d057","getDepositVaultsLength()":"7dce5550","getLiquidityProvider(address)":"98f9e757","getReservation(uint256)":"d57763c3","getReservationLength()":"ea6fe03e","owner()":"8da5cb5b","proposeTransactionProof(uint256,bytes32,uint32,uint64,uint64,bytes32[],bytes)":"8f805ac9","protocolFeeBP()":"c5fba0b8","proverReward()":"6dcc17c8","releaseLiquidity(uint256)":"77891907","releaserReward()":"9cc7eab9","reserveLiquidity(uint256[],uint192[],address,uint256,uint256[])":"0140e183","swapReservations(uint256)":"6b994abb","transferOwnership(address)":"f2fde38b","updateExchangeRate(uint256,uint256,uint64,uint256[])":"56fe6f86","updateProtocolAddress(address)":"58e2b676","updateProtocolFee(uint8)":"0a7aa293","updateRewards(uint256,uint256)":"97e50818","validateBlockExists(uint256)":"ed8b2b32","verifierContract()":"cf695688","withdrawLiquidity(uint256,uint256,uint192,uint256[])":"aeacb2e7"},"storageLayout":{"storage":[{"astId":47835,"contract":"src/RiftExchange.sol:RiftExchange","label":"blockchain","offset":0,"slot":"0","type":"t_mapping(t_uint256,t_bytes32)"},{"astId":47837,"contract":"src/RiftExchange.sol:RiftExchange","label":"currentHeight","offset":0,"slot":"1","type":"t_uint256"},{"astId":47839,"contract":"src/RiftExchange.sol:RiftExchange","label":"currentConfirmationHeight","offset":0,"slot":"2","type":"t_uint256"},{"astId":46637,"contract":"src/RiftExchange.sol:RiftExchange","label":"owner","offset":0,"slot":"3","type":"t_address"},{"astId":48572,"contract":"src/RiftExchange.sol:RiftExchange","label":"protocolFeeBP","offset":20,"slot":"3","type":"t_uint8"},{"astId":48574,"contract":"src/RiftExchange.sol:RiftExchange","label":"proverReward","offset":0,"slot":"4","type":"t_uint256"},{"astId":48576,"contract":"src/RiftExchange.sol:RiftExchange","label":"releaserReward","offset":0,"slot":"5","type":"t_uint256"},{"astId":48661,"contract":"src/RiftExchange.sol:RiftExchange","label":"liquidityProviders","offset":0,"slot":"6","type":"t_mapping(t_address,t_struct(LiquidityProvider)48607_storage)"},{"astId":48665,"contract":"src/RiftExchange.sol:RiftExchange","label":"swapReservations","offset":0,"slot":"7","type":"t_array(t_struct(SwapReservation)48656_storage)dyn_storage"},{"astId":48669,"contract":"src/RiftExchange.sol:RiftExchange","label":"depositVaults","offset":0,"slot":"8","type":"t_array(t_struct(DepositVault)48618_storage)dyn_storage"},{"astId":48680,"contract":"src/RiftExchange.sol:RiftExchange","label":"protocolAddress","offset":0,"slot":"9","type":"t_address_payable"}],"types":{"t_address":{"encoding":"inplace","label":"address","numberOfBytes":"20"},"t_address_payable":{"encoding":"inplace","label":"address payable","numberOfBytes":"20"},"t_array(t_struct(DepositVault)48618_storage)dyn_storage":{"encoding":"dynamic_array","label":"struct RiftExchange.DepositVault[]","numberOfBytes":"32","base":"t_struct(DepositVault)48618_storage"},"t_array(t_struct(SwapReservation)48656_storage)dyn_storage":{"encoding":"dynamic_array","label":"struct RiftExchange.SwapReservation[]","numberOfBytes":"32","base":"t_struct(SwapReservation)48656_storage"},"t_array(t_uint192)dyn_storage":{"encoding":"dynamic_array","label":"uint192[]","numberOfBytes":"32","base":"t_uint192"},"t_array(t_uint256)dyn_storage":{"encoding":"dynamic_array","label":"uint256[]","numberOfBytes":"32","base":"t_uint256"},"t_bytes22":{"encoding":"inplace","label":"bytes22","numberOfBytes":"22"},"t_bytes32":{"encoding":"inplace","label":"bytes32","numberOfBytes":"32"},"t_enum(ReservationState)48624":{"encoding":"inplace","label":"enum RiftExchange.ReservationState","numberOfBytes":"1"},"t_int256":{"encoding":"inplace","label":"int256","numberOfBytes":"32"},"t_mapping(t_address,t_struct(LiquidityProvider)48607_storage)":{"encoding":"mapping","key":"t_address","label":"mapping(address => struct RiftExchange.LiquidityProvider)","numberOfBytes":"32","value":"t_struct(LiquidityProvider)48607_storage"},"t_mapping(t_uint256,t_bytes32)":{"encoding":"mapping","key":"t_uint256","label":"mapping(uint256 => bytes32)","numberOfBytes":"32","value":"t_bytes32"},"t_struct(DepositVault)48618_storage":{"encoding":"inplace","label":"struct RiftExchange.DepositVault","numberOfBytes":"128","members":[{"astId":48609,"contract":"src/RiftExchange.sol:RiftExchange","label":"initialBalance","offset":0,"slot":"0","type":"t_uint256"},{"astId":48611,"contract":"src/RiftExchange.sol:RiftExchange","label":"unreservedBalance","offset":0,"slot":"1","type":"t_uint256"},{"astId":48613,"contract":"src/RiftExchange.sol:RiftExchange","label":"withdrawnAmount","offset":0,"slot":"2","type":"t_uint256"},{"astId":48615,"contract":"src/RiftExchange.sol:RiftExchange","label":"exchangeRate","offset":0,"slot":"3","type":"t_uint64"},{"astId":48617,"contract":"src/RiftExchange.sol:RiftExchange","label":"btcPayoutLockingScript","offset":8,"slot":"3","type":"t_bytes22"}]},"t_struct(LiquidityProvider)48607_storage":{"encoding":"inplace","label":"struct RiftExchange.LiquidityProvider","numberOfBytes":"32","members":[{"astId":48606,"contract":"src/RiftExchange.sol:RiftExchange","label":"depositVaultIndexes","offset":0,"slot":"0","type":"t_array(t_uint256)dyn_storage"}]},"t_struct(SwapReservation)48656_storage":{"encoding":"inplace","label":"struct RiftExchange.SwapReservation","numberOfBytes":"352","members":[{"astId":48626,"contract":"src/RiftExchange.sol:RiftExchange","label":"confirmationBlockHeight","offset":0,"slot":"0","type":"t_uint32"},{"astId":48628,"contract":"src/RiftExchange.sol:RiftExchange","label":"reservationTimestamp","offset":4,"slot":"0","type":"t_uint32"},{"astId":48630,"contract":"src/RiftExchange.sol:RiftExchange","label":"unlockTimestamp","offset":8,"slot":"0","type":"t_uint32"},{"astId":48633,"contract":"src/RiftExchange.sol:RiftExchange","label":"state","offset":12,"slot":"0","type":"t_enum(ReservationState)48624"},{"astId":48635,"contract":"src/RiftExchange.sol:RiftExchange","label":"ethPayoutAddress","offset":0,"slot":"1","type":"t_address"},{"astId":48637,"contract":"src/RiftExchange.sol:RiftExchange","label":"lpReservationHash","offset":0,"slot":"2","type":"t_bytes32"},{"astId":48639,"contract":"src/RiftExchange.sol:RiftExchange","label":"nonce","offset":0,"slot":"3","type":"t_bytes32"},{"astId":48641,"contract":"src/RiftExchange.sol:RiftExchange","label":"totalSatsInputInlcudingProxyFee","offset":0,"slot":"4","type":"t_uint256"},{"astId":48643,"contract":"src/RiftExchange.sol:RiftExchange","label":"totalSwapOutputAmount","offset":0,"slot":"5","type":"t_uint256"},{"astId":48645,"contract":"src/RiftExchange.sol:RiftExchange","label":"prepaidFeeAmount","offset":0,"slot":"6","type":"t_int256"},{"astId":48647,"contract":"src/RiftExchange.sol:RiftExchange","label":"proposedBlockHeight","offset":0,"slot":"7","type":"t_uint256"},{"astId":48649,"contract":"src/RiftExchange.sol:RiftExchange","label":"proposedBlockHash","offset":0,"slot":"8","type":"t_bytes32"},{"astId":48652,"contract":"src/RiftExchange.sol:RiftExchange","label":"vaultIndexes","offset":0,"slot":"9","type":"t_array(t_uint256)dyn_storage"},{"astId":48655,"contract":"src/RiftExchange.sol:RiftExchange","label":"amountsToReserve","offset":0,"slot":"10","type":"t_array(t_uint192)dyn_storage"}]},"t_uint192":{"encoding":"inplace","label":"uint192","numberOfBytes":"24"},"t_uint256":{"encoding":"inplace","label":"uint256","numberOfBytes":"32"},"t_uint32":{"encoding":"inplace","label":"uint32","numberOfBytes":"4"},"t_uint64":{"encoding":"inplace","label":"uint64","numberOfBytes":"8"},"t_uint8":{"encoding":"inplace","label":"uint8","numberOfBytes":"1"}}},"id":32}