{"abi":[{"type":"constructor","inputs":[{"name":"initialCheckpointHeight","type":"uint256","internalType":"uint256"},{"name":"initialBlockHash","type":"bytes32","internalType":"bytes32"},{"name":"initialRetargetBlockHash","type":"bytes32","internalType":"bytes32"},{"name":"verifierContractAddress","type":"address","internalType":"address"},{"name":"depositTokenAddress","type":"address","internalType":"address"},{"name":"_proverReward","type":"uint256","internalType":"uint256"},{"name":"_releaserReward","type":"uint256","internalType":"uint256"},{"name":"_protocolAddress","type":"address","internalType":"address payable"},{"name":"_owner","type":"address","internalType":"address"},{"name":"_circuitVerificationKey","type":"bytes32","internalType":"bytes32"}],"stateMutability":"nonpayable"},{"type":"function","name":"CHALLENGE_PERIOD","inputs":[],"outputs":[{"name":"","type":"uint256","internalType":"uint256"}],"stateMutability":"view"},{"type":"function","name":"DEPOSIT_TOKEN","inputs":[],"outputs":[{"name":"","type":"address","internalType":"contract IERC20"}],"stateMutability":"view"},{"type":"function","name":"MAX_DEPOSIT_OUTPUTS","inputs":[],"outputs":[{"name":"","type":"uint16","internalType":"uint16"}],"stateMutability":"view"},{"type":"function","name":"MIN_ORDER_GAS_MULTIPLIER","inputs":[],"outputs":[{"name":"","type":"uint256","internalType":"uint256"}],"stateMutability":"view"},{"type":"function","name":"PROOF_GAS_COST","inputs":[],"outputs":[{"name":"","type":"uint256","internalType":"uint256"}],"stateMutability":"view"},{"type":"function","name":"RELEASE_GAS_COST","inputs":[],"outputs":[{"name":"","type":"uint256","internalType":"uint256"}],"stateMutability":"view"},{"type":"function","name":"RESERVATION_LOCKUP_PERIOD","inputs":[],"outputs":[{"name":"","type":"uint256","internalType":"uint256"}],"stateMutability":"view"},{"type":"function","name":"SAMPLING_SIZE","inputs":[],"outputs":[{"name":"","type":"uint8","internalType":"uint8"}],"stateMutability":"view"},{"type":"function","name":"TOKEN_DECIMALS","inputs":[],"outputs":[{"name":"","type":"uint8","internalType":"uint8"}],"stateMutability":"view"},{"type":"function","name":"addBlock","inputs":[{"name":"safeBlockHeight","type":"uint256","internalType":"uint256"},{"name":"proposedBlockHeight","type":"uint256","internalType":"uint256"},{"name":"confirmationBlockHeight","type":"uint256","internalType":"uint256"},{"name":"blockHashes","type":"bytes32[]","internalType":"bytes32[]"},{"name":"proposedBlockIndex","type":"uint256","internalType":"uint256"}],"outputs":[],"stateMutability":"nonpayable"},{"type":"function","name":"buildProofPublicInputs","inputs":[{"name":"inputs","type":"tuple","internalType":"struct RiftExchange.ProofPublicInputs","components":[{"name":"natural_txid","type":"bytes32","internalType":"bytes32"},{"name":"lp_reservation_hash","type":"bytes32","internalType":"bytes32"},{"name":"order_nonce","type":"bytes32","internalType":"bytes32"},{"name":"expected_payout","type":"uint64","internalType":"uint64"},{"name":"lp_count","type":"uint64","internalType":"uint64"},{"name":"retarget_block_hash","type":"bytes32","internalType":"bytes32"},{"name":"safe_block_height","type":"uint64","internalType":"uint64"},{"name":"safe_block_height_delta","type":"uint64","internalType":"uint64"},{"name":"confirmation_block_height_delta","type":"uint64","internalType":"uint64"},{"name":"retarget_block_height","type":"uint64","internalType":"uint64"},{"name":"block_hashes","type":"bytes32[]","internalType":"bytes32[]"}]}],"outputs":[{"name":"","type":"bytes","internalType":"bytes"}],"stateMutability":"pure"},{"type":"function","name":"circuitVerificationKey","inputs":[],"outputs":[{"name":"","type":"bytes32","internalType":"bytes32"}],"stateMutability":"view"},{"type":"function","name":"currentConfirmationHeight","inputs":[],"outputs":[{"name":"","type":"uint256","internalType":"uint256"}],"stateMutability":"view"},{"type":"function","name":"currentHeight","inputs":[],"outputs":[{"name":"","type":"uint256","internalType":"uint256"}],"stateMutability":"view"},{"type":"function","name":"depositLiquidity","inputs":[{"name":"depositAmount","type":"uint256","internalType":"uint256"},{"name":"exchangeRate","type":"uint64","internalType":"uint64"},{"name":"btcPayoutLockingScript","type":"bytes22","internalType":"bytes22"},{"name":"vaultIndexToOverwrite","type":"int256","internalType":"int256"},{"name":"vaultIndexWithSameExchangeRate","type":"int256","internalType":"int256"}],"outputs":[],"stateMutability":"nonpayable"},{"type":"function","name":"depositVaults","inputs":[{"name":"","type":"uint256","internalType":"uint256"}],"outputs":[{"name":"initialBalance","type":"uint256","internalType":"uint256"},{"name":"unreservedBalance","type":"uint256","internalType":"uint256"},{"name":"withdrawnAmount","type":"uint256","internalType":"uint256"},{"name":"exchangeRate","type":"uint64","internalType":"uint64"},{"name":"btcPayoutLockingScript","type":"bytes22","internalType":"bytes22"}],"stateMutability":"view"},{"type":"function","name":"emptyDepositVault","inputs":[{"name":"vaultIndex","type":"uint256","internalType":"uint256"}],"outputs":[],"stateMutability":"nonpayable"},{"type":"function","name":"getBlockHash","inputs":[{"name":"blockHeight","type":"uint256","internalType":"uint256"}],"outputs":[{"name":"","type":"bytes32","internalType":"bytes32"}],"stateMutability":"view"},{"type":"function","name":"getDepositVault","inputs":[{"name":"depositIndex","type":"uint256","internalType":"uint256"}],"outputs":[{"name":"","type":"tuple","internalType":"struct RiftExchange.DepositVault","components":[{"name":"initialBalance","type":"uint256","internalType":"uint256"},{"name":"unreservedBalance","type":"uint256","internalType":"uint256"},{"name":"withdrawnAmount","type":"uint256","internalType":"uint256"},{"name":"exchangeRate","type":"uint64","internalType":"uint64"},{"name":"btcPayoutLockingScript","type":"bytes22","internalType":"bytes22"}]}],"stateMutability":"view"},{"type":"function","name":"getDepositVaultUnreservedBalance","inputs":[{"name":"depositIndex","type":"uint256","internalType":"uint256"}],"outputs":[{"name":"","type":"uint256","internalType":"uint256"}],"stateMutability":"view"},{"type":"function","name":"getDepositVaultsLength","inputs":[],"outputs":[{"name":"","type":"uint256","internalType":"uint256"}],"stateMutability":"view"},{"type":"function","name":"getLiquidityProvider","inputs":[{"name":"lpAddress","type":"address","internalType":"address"}],"outputs":[{"name":"","type":"tuple","internalType":"struct RiftExchange.LiquidityProvider","components":[{"name":"depositVaultIndexes","type":"uint256[]","internalType":"uint256[]"}]}],"stateMutability":"view"},{"type":"function","name":"getReservation","inputs":[{"name":"reservationIndex","type":"uint256","internalType":"uint256"}],"outputs":[{"name":"","type":"tuple","internalType":"struct RiftExchange.SwapReservation","components":[{"name":"confirmationBlockHeight","type":"uint32","internalType":"uint32"},{"name":"reservationTimestamp","type":"uint32","internalType":"uint32"},{"name":"unlockTimestamp","type":"uint32","internalType":"uint32"},{"name":"state","type":"uint8","internalType":"enum RiftExchange.ReservationState"},{"name":"ethPayoutAddress","type":"address","internalType":"address"},{"name":"lpReservationHash","type":"bytes32","internalType":"bytes32"},{"name":"nonce","type":"bytes32","internalType":"bytes32"},{"name":"totalSwapAmount","type":"uint256","internalType":"uint256"},{"name":"prepaidFeeAmount","type":"int256","internalType":"int256"},{"name":"proposedBlockHeight","type":"uint256","internalType":"uint256"},{"name":"proposedBlockHash","type":"bytes32","internalType":"bytes32"},{"name":"vaultIndexes","type":"uint256[]","internalType":"uint256[]"},{"name":"amountsToReserve","type":"uint192[]","internalType":"uint192[]"}]}],"stateMutability":"view"},{"type":"function","name":"getReservationLength","inputs":[],"outputs":[{"name":"","type":"uint256","internalType":"uint256"}],"stateMutability":"view"},{"type":"function","name":"owner","inputs":[],"outputs":[{"name":"","type":"address","internalType":"address"}],"stateMutability":"view"},{"type":"function","name":"proposeTransactionProof","inputs":[{"name":"swapReservationIndex","type":"uint256","internalType":"uint256"},{"name":"bitcoinTxId","type":"bytes32","internalType":"bytes32"},{"name":"safeBlockHeight","type":"uint32","internalType":"uint32"},{"name":"proposedBlockHeight","type":"uint64","internalType":"uint64"},{"name":"confirmationBlockHeight","type":"uint64","internalType":"uint64"},{"name":"blockHashes","type":"bytes32[]","internalType":"bytes32[]"},{"name":"proof","type":"bytes","internalType":"bytes"}],"outputs":[],"stateMutability":"nonpayable"},{"type":"function","name":"protocolFeeBP","inputs":[],"outputs":[{"name":"","type":"uint8","internalType":"uint8"}],"stateMutability":"view"},{"type":"function","name":"proverReward","inputs":[],"outputs":[{"name":"","type":"uint256","internalType":"uint256"}],"stateMutability":"view"},{"type":"function","name":"releaseLiquidity","inputs":[{"name":"swapReservationIndex","type":"uint256","internalType":"uint256"}],"outputs":[],"stateMutability":"nonpayable"},{"type":"function","name":"releaserReward","inputs":[],"outputs":[{"name":"","type":"uint256","internalType":"uint256"}],"stateMutability":"view"},{"type":"function","name":"reserveLiquidity","inputs":[{"name":"vaultIndexesToReserve","type":"uint256[]","internalType":"uint256[]"},{"name":"amountsToReserve","type":"uint192[]","internalType":"uint192[]"},{"name":"ethPayoutAddress","type":"address","internalType":"address"},{"name":"expiredSwapReservationIndexes","type":"uint256[]","internalType":"uint256[]"}],"outputs":[],"stateMutability":"nonpayable"},{"type":"function","name":"swapReservations","inputs":[{"name":"","type":"uint256","internalType":"uint256"}],"outputs":[{"name":"confirmationBlockHeight","type":"uint32","internalType":"uint32"},{"name":"reservationTimestamp","type":"uint32","internalType":"uint32"},{"name":"unlockTimestamp","type":"uint32","internalType":"uint32"},{"name":"state","type":"uint8","internalType":"enum RiftExchange.ReservationState"},{"name":"ethPayoutAddress","type":"address","internalType":"address"},{"name":"lpReservationHash","type":"bytes32","internalType":"bytes32"},{"name":"nonce","type":"bytes32","internalType":"bytes32"},{"name":"totalSwapAmount","type":"uint256","internalType":"uint256"},{"name":"prepaidFeeAmount","type":"int256","internalType":"int256"},{"name":"proposedBlockHeight","type":"uint256","internalType":"uint256"},{"name":"proposedBlockHash","type":"bytes32","internalType":"bytes32"}],"stateMutability":"view"},{"type":"function","name":"transferOwnership","inputs":[{"name":"newOwner","type":"address","internalType":"address"}],"outputs":[],"stateMutability":"nonpayable"},{"type":"function","name":"updateExchangeRate","inputs":[{"name":"globalVaultIndex","type":"uint256","internalType":"uint256"},{"name":"localVaultIndex","type":"uint256","internalType":"uint256"},{"name":"newexchangeRate","type":"uint64","internalType":"uint64"},{"name":"expiredReservationIndexes","type":"uint256[]","internalType":"uint256[]"}],"outputs":[],"stateMutability":"nonpayable"},{"type":"function","name":"updateProtocolAddress","inputs":[{"name":"newProtocolAddress","type":"address","internalType":"address payable"}],"outputs":[],"stateMutability":"nonpayable"},{"type":"function","name":"updateProtocolFee","inputs":[{"name":"newProtocolFeeBP","type":"uint8","internalType":"uint8"}],"outputs":[],"stateMutability":"nonpayable"},{"type":"function","name":"updateRewards","inputs":[{"name":"newProverReward","type":"uint256","internalType":"uint256"},{"name":"newReleaserReward","type":"uint256","internalType":"uint256"}],"outputs":[],"stateMutability":"nonpayable"},{"type":"function","name":"validateBlockExists","inputs":[{"name":"blockHeight","type":"uint256","internalType":"uint256"}],"outputs":[],"stateMutability":"view"},{"type":"function","name":"verifierContract","inputs":[],"outputs":[{"name":"","type":"address","internalType":"contract ISP1Verifier"}],"stateMutability":"view"},{"type":"function","name":"withdrawLiquidity","inputs":[{"name":"globalVaultIndex","type":"uint256","internalType":"uint256"},{"name":"localVaultIndex","type":"uint256","internalType":"uint256"},{"name":"amountToWithdraw","type":"uint192","internalType":"uint192"},{"name":"expiredReservationIndexes","type":"uint256[]","internalType":"uint256[]"}],"outputs":[],"stateMutability":"nonpayable"},{"type":"event","name":"LiquidityReserved","inputs":[{"name":"reserver","type":"address","indexed":true,"internalType":"address"},{"name":"swapReservationIndex","type":"uint256","indexed":false,"internalType":"uint256"},{"name":"orderNonce","type":"bytes32","indexed":false,"internalType":"bytes32"}],"anonymous":false},{"type":"event","name":"OwnershipTransferred","inputs":[{"name":"user","type":"address","indexed":true,"internalType":"address"},{"name":"newOwner","type":"address","indexed":true,"internalType":"address"}],"anonymous":false},{"type":"event","name":"ProofProposed","inputs":[{"name":"prover","type":"address","indexed":true,"internalType":"address"},{"name":"swapReservationIndex","type":"uint256","indexed":false,"internalType":"uint256"},{"name":"orderNonce","type":"bytes32","indexed":false,"internalType":"bytes32"}],"anonymous":false},{"type":"event","name":"SwapComplete","inputs":[{"name":"swapReservationIndex","type":"uint256","indexed":false,"internalType":"uint256"},{"name":"orderNonce","type":"bytes32","indexed":false,"internalType":"bytes32"}],"anonymous":false},{"type":"error","name":"BlockDoesNotExist","inputs":[]},{"type":"error","name":"InvaidSameExchangeRatevaultIndex","inputs":[]},{"type":"error","name":"InvalidConfirmationBlock","inputs":[]},{"type":"error","name":"InvalidProposedBlockOverwrite","inputs":[]},{"type":"error","name":"InvalidSafeBlock","inputs":[]},{"type":"error","name":"InvalidUpdateWithActiveReservations","inputs":[]},{"type":"error","name":"InvalidVaultIndex","inputs":[]},{"type":"error","name":"InvalidVaultUpdate","inputs":[]},{"type":"error","name":"NotEnoughLiquidity","inputs":[]},{"type":"error","name":"NotVaultOwner","inputs":[]},{"type":"error","name":"OverwrittenProposedBlock","inputs":[]},{"type":"error","name":"ReservationNotExpired","inputs":[]},{"type":"error","name":"ReservationNotUnlocked","inputs":[]},{"type":"error","name":"StillInChallengePeriod","inputs":[]},{"type":"error","name":"WithdrawalAmountError","inputs":[]},{"type":"error","name":"exchangeRateZero","inputs":[]}],"bytecode":{"object":"0x61010060405260038054600560a11b60ff60a01b19909116179055600980546001600160a01b03191673f39fd6e51aad88f6f4ce6ab8827279cfffb922661790553480156200004d57600080fd5b506040516200384c3803806200384c833981016040819052620000709162000388565b60018a905560008a81526020819052604081208a905582908b908b908b908190806200009c8662000247565b6001600160401b0316815260208101919091526040908101600090812092909255600380546001600160a01b0319166001600160a01b03881690811790915590519094509092507f8be0079c531659141344cd1fd0a4f28419497f9722a3daafe3b4186f6b6457e091508290a35060e08190526001600160a01b0380881660c052861660805260408051808201909152600f81526e02222a827a9a4aa2faa27a5a2a71d1608d1b6020820152620001539062000269565b6080516200016190620002b7565b6080516001600160a01b031663313ce5676040518163ffffffff1660e01b8152600401602060405180830381865afa158015620001a2573d6000803e3d6000fd5b505050506040513d601f19601f82011682018060405250810190620001c891906200042f565b60ff1660a05260408051808201909152601081526f02a27a5a2a72fa222a1a4a6a0a6299d160851b6020820152620002009062000269565b60a051620002119060ff1662000305565b5050600492909255600555600980546001600160a01b0319166001600160a01b0390921691909117905550620005179350505050565b6000620002576107e0836200045b565b62000263908362000490565b92915050565b620002b481604051602401620002809190620004c6565b60408051601f198184030181529190526020810180516001600160e01b0390811663104c13eb60e21b179091526200035116565b50565b6040516001600160a01b0382166024820152620002b49060440160408051601f198184030181529190526020810180516001600160e01b0390811663161765e160e11b179091526200035116565b620002b4816040516024016200031d91815260200190565b60408051601f198184030181529190526020810180516001600160e01b0390811663f5b1bba960e01b179091526200035116565b80516a636f6e736f6c652e6c6f67602083016000808483855afa5050505050565b6001600160a01b0381168114620002b457600080fd5b6000806000806000806000806000806101408b8d031215620003a957600080fd5b8a51995060208b0151985060408b0151975060608b0151620003cb8162000372565b60808c0151909750620003de8162000372565b8096505060a08b0151945060c08b0151935060e08b0151620004008162000372565b6101008c0151909350620004148162000372565b809250506101208b015190509295989b9194979a5092959850565b6000602082840312156200044257600080fd5b815160ff811681146200045457600080fd5b9392505050565b60006001600160401b03838116806200048457634e487b7160e01b600052601260045260246000fd5b92169190910692915050565b6001600160401b03828116828216039080821115620004bf57634e487b7160e01b600052601160045260246000fd5b5092915050565b60006020808352835180602085015260005b81811015620004f657858101830151858201604001528201620004d8565b506000604082860101526040601f19601f8301168501019250505092915050565b60805160a05160c05160e0516132bc620005906000396000818161034b0152611c9d0152600081816105760152611c70015260006103be01526000818161026701528181610e6401528181610f42015281816115d30152818161199801528181611a8a01528181611d77015261209501526132bc6000f3fe608060405234801561001057600080fd5b50600436106102485760003560e01c80638da5cb5b1161013b578063c5fba0b8116100b8578063eb6c75221161007c578063eb6c7522146105e0578063ed8b2b32146105ea578063ee82ac5e146105fd578063f2fde38b1461061d578063fba781661461063057600080fd5b8063c5fba0b81461055d578063cf69568814610571578063d57763c314610598578063e118f0e6146105b8578063ea6fe03e146105d857600080fd5b80639cc7eab9116100ff5780639cc7eab9146105155780639cdb8e5a1461051e578063ad062e5514610539578063aeacb2e714610541578063c3a079ed1461055457600080fd5b80638da5cb5b146104b25780638f805ac9146104c557806397e50818146104d857806398f9e757146104eb5780639a64279c1461050b57600080fd5b806358e2b676116101c95780636b994abb1161018d5780636b994abb1461045b5780636dcc17c814610485578063778919071461048e5780637dce5550146104a157806389a11f7a146104a957600080fd5b806358e2b676146103a65780635b7f415c146103b95780635f4d0610146103f25780635f5d5b6a146104405780636512d0571461044857600080fd5b80632d908c02116102105780632d908c02146103335780633d7b22b314610346578063490d4c5f1461036d57806351a7f1cd1461038057806356fe6f861461039357600080fd5b80630a7aa2931461024d57806313f6658714610262578063163de0c5146102a6578063276d080e146102bd5780632d312a4a14610320575b600080fd5b61026061025b3660046126df565b610639565b005b6102897f000000000000000000000000000000000000000000000000000000000000000081565b6040516001600160a01b0390911681526020015b60405180910390f35b6102af60015481565b60405190815260200161029d565b6102d06102cb366004612709565b61068c565b60405161029d91908151815260208083015190820152604080830151908201526060808301516001600160401b0316908201526080918201516001600160501b0319169181019190915260a00190565b61026061032e36600461285f565b610735565b610260610341366004612953565b611039565b6102af7f000000000000000000000000000000000000000000000000000000000000000081565b61026061037b366004612709565b61122f565b61026061038e3660046129cb565b611273565b6102606103a1366004612a28565b611649565b6102606103b4366004612a7c565b61173b565b6103e07f000000000000000000000000000000000000000000000000000000000000000081565b60405160ff909116815260200161029d565b610405610400366004612709565b611787565b604080519586526020860194909452928401919091526001600160401b031660608301526001600160501b031916608082015260a00161029d565b6102af600281565b6102af610456366004612709565b6117d6565b61046e610469366004612709565b611804565b60405161029d9b9a99989796959493929190612ad1565b6102af60045481565b61026061049c366004612709565b611886565b6008546102af565b6102af61708081565b600354610289906001600160a01b031681565b6102606104d3366004612b40565b611b51565b6102606104e6366004612c49565b611e94565b6104fe6104f9366004612a7c565b611ec9565b60405161029d9190612ca7565b6102af6203345081565b6102af60055481565b610526603281565b60405161ffff909116815260200161029d565b6103e0600a81565b61026061054f366004612cca565b611f4c565b6102af61025881565b6003546103e090600160a01b900460ff1681565b6102897f000000000000000000000000000000000000000000000000000000000000000081565b6105ab6105a6366004612709565b6120cc565b60405161029d9190612d31565b6105cb6105c6366004612e2d565b6122f9565b60405161029d9190612f7e565b6007546102af565b6102af620668a081565b6102606105f8366004612709565b612322565b6102af61060b366004612709565b60009081526020819052604090205490565b61026061062b366004612a7c565b612351565b6102af60025481565b6003546001600160a01b0316331461066c5760405162461bcd60e51b815260040161066390612f91565b60405180910390fd5b6003805460ff909216600160a01b0260ff60a01b19909216919091179055565b6040805160a081018252600080825260208201819052918101829052606081018290526080810191909152600882815481106106ca576106ca612fb7565b60009182526020918290206040805160a0810182526004909302909101805483526001810154938301939093526002830154908201526003909101546001600160401b03811660608301526001600160501b0319600160401b90910460501b16608082015292915050565b6000805b845181101561077a5784818151811061075457610754612fb7565b60200260200101516001600160c01b0316826107709190612fe3565b9150600101610739565b506107ba6040518060400160405280601a81526020017f636f6d62696e6564416d6f756e7473546f526573657276653a20000000000000815250826123c7565b60006107d0670de0b6b3a7640000612710612ff6565b600354600160a01b900460ff166107ef670de0b6b3a764000085612ff6565b6107f99190612ff6565b6108039190613023565b90506108346040518060400160405280600d81526020016c0383937ba37b1b7b62332b29d1609d1b815250826123c7565b60045460408051808201909152600b81526a0383937bb32b92332b29d160ad1b602082015261086390826123c7565b60055460408051808201909152600d81526c03932b632b0b9b2b92332b29d1609d1b602082015261089490826123c7565b61089d85612410565b6108a68561249b565b6000805b8951811015610a8e5760028982815181106108c7576108c7612fb7565b602002602001015160088c84815181106108e3576108e3612fb7565b6020026020010151815481106108fb576108fb612fb7565b906000526020600020906004020160030160009054906101000a90046001600160401b031660088d858151811061093457610934612fb7565b60200260200101518154811061094c5761094c612fb7565b600091825260209182902060036004909202010154604080516001600160c01b03909516928501929092526001600160401b03909216908301526001600160501b0319600160401b90910460501b1660608201526080810184905260a00160408051601f19818403018152908290526109c491613037565b602060405180830381855afa1580156109e1573d6000803e3d6000fd5b5050506040513d601f19601f82011682018060405250810190610a049190613053565b915060088a8281518110610a1a57610a1a612fb7565b602002602001015181548110610a3257610a32612fb7565b906000526020600020906004020160010154898281518110610a5657610a56612fb7565b60200260200101516001600160c01b03161115610a8657604051634323a55560e01b815260040160405180910390fd5b6001016108aa565b50855115610bb2576000600787600081518110610aad57610aad612fb7565b602002602001015181548110610ac557610ac5612fb7565b60009182526020909120600a9091020180546001820180546001600160a01b0319166001600160a01b038c16179055600160601b6cffffffffffffffffff00000000199091166401000000004263ffffffff16026bffffffff00000000000000001916171781559050610b388385612fe3565b600582015560048101869055600754604051610b5f918a914291469187919060200161306c565b60408051601f19818403018152919052805160209182012060038301558a51610b90916008840191908d019061262a565b508851610ba690600983019060208c0190612675565b50600201819055610dd1565b604080516101a08101825260008082524263ffffffff166020830152918101919091526007906060810160018152602001896001600160a01b0316815260200183815260200189424686600780549050604051602001610c1695949392919061306c565b6040516020818303038152906040528051906020012081526020018781526020018486610c439190612fe3565b8152602001600081526020016000801b81526020018b81526020018a81525090806001815401808255809150506001900390600052602060002090600a020160009091909190915060008201518160000160006101000a81548163ffffffff021916908363ffffffff16021790555060208201518160000160046101000a81548163ffffffff021916908363ffffffff16021790555060408201518160000160086101000a81548163ffffffff021916908363ffffffff160217905550606082015181600001600c6101000a81548160ff02191690836004811115610d2a57610d2a612a99565b021790555060808201516001820180546001600160a01b0319166001600160a01b0390921691909117905560a0820151600282015560c0820151600382015560e082015160048201556101008201516005820155610120820151600682015561014082015160078201556101608201518051610db091600884019160209091019061262a565b506101808201518051610dcd916009840191602090910190612675565b5050505b60005b8951811015610e5957888181518110610def57610def612fb7565b60200260200101516001600160c01b031660088b8381518110610e1457610e14612fb7565b602002602001015181548110610e2c57610e2c612fb7565b90600052602060002090600402016001016000828254610e4c919061309a565b9091555050600101610dd4565b506001600160a01b037f0000000000000000000000000000000000000000000000000000000000000000166323b872dd333085610e968989612fe3565b610ea09190612fe3565b6040516001600160e01b031960e086901b1681526001600160a01b03938416600482015292909116602483015260448201526064016020604051808303816000875af1158015610ef4573d6000803e3d6000fd5b505050506040513d601f19601f82011682018060405250810190610f1891906130ad565b5060095460405163a9059cbb60e01b81526001600160a01b039182166004820152602481018690527f00000000000000000000000000000000000000000000000000000000000000009091169063a9059cbb906044016020604051808303816000875af1158015610f8d573d6000803e3d6000fd5b505050506040513d601f19601f82011682018060405250810190610fb191906130ad565b50337f5956135c9be999a50f7ff4ea49ddf1485bc321ab333dc7a0877633eeb47528936001610fdf60075490565b610fe9919061309a565b600754604051611004918c914291469189919060200161306c565b60408051601f1981840301815282825280516020918201209383528201929092520160405180910390a2505050505050505050565b6001546005611048868661309a565b10156110a3576000848152602081905260409020548351849061106d9060019061309a565b8151811061107d5761107d612fb7565b6020026020010151146110a3576040516341305f6360e01b815260040160405180910390fd5b808611156110c45760405163575f3da360e01b815260040160405180910390fd5b8282815181106110d6576110d6612fb7565b602002602001015160008087815260200190815260200160002054036110fc5750611228565b6000858152602081905260409020541580159061111b57508360025410155b15611139576040516371e98f3d60e11b815260040160405180910390fd5b808511156111dd5780860361117d5782828151811061115a5761115a612fb7565b602002602001015160008087815260200190815260200160002081905550611216565b808610156111d857855b8581116111d65783611199888361309a565b815181106111a9576111a9612fb7565b602090810291909101810151600083815291829052604090912055806111ce816130cf565b915050611187565b505b611216565b80851015611216578282815181106111f7576111f7612fb7565b6020026020010151600080878152602001908152602001600020819055505b6001548511156112265760018590555b505b5050505050565b60006008828154811061124457611244612fb7565b600091825260208220600490910201818155600181019190915560030180546001600160f01b03191690555050565b6112a46040518060400160405280601081526020016f6465706f7369744c697175696469747960801b8152506125a8565b6112d56040518060400160405280600f81526020016e02232b837b9b4ba20b6b7bab73a1d1608d1b815250866123c7565b836001600160401b03166000036112ff57604051635c4ad48d60e11b815260040160405180910390fd5b33600090815260066020526040812054900361134d57604080516000602080830182815283850185528352338252600681529290208151805192939192611349928492019061262a565b5050505b80600019146113d957600081905060006008828154811061137057611370612fb7565b6000918252602090912060049091020160038101549091506001600160401b038781169116036113b957868160010160008282546113ae9190612fe3565b909155506113d29050565b60405163927ce9e760e01b815260040160405180910390fd5b505061157d565b816000191461146c576000600883815481106113f7576113f7612fb7565b90600052602060002090600402019050806001015460001461142c5760405163721e09df60e01b815260040160405180910390fd5b85815560018101869055600060028201556003018054605085901c600160401b026001600160f01b03199091166001600160401b0387161717905561157d565b6040805160a0810182528681526020810187815260009282018381526001600160401b03808916606085019081526001600160501b0319891660808601908152600880546001810182559752945160049096027ff3f7a9fe364faab93b216da50a3214154f22a0a2b415b23a84c8169e8b636ee381019690965592517ff3f7a9fe364faab93b216da50a3214154f22a0a2b415b23a84c8169e8b636ee486015590517ff3f7a9fe364faab93b216da50a3214154f22a0a2b415b23a84c8169e8b636ee585015590517ff3f7a9fe364faab93b216da50a3214154f22a0a2b415b23a84c8169e8b636ee69093018054925160501c600160401b026001600160f01b031990931693909116929092171790555b33600090815260066020526040902060085461159b9060019061309a565b815460018101835560009283526020909220909101556040516323b872dd60e01b8152336004820152306024820152604481018690527f00000000000000000000000000000000000000000000000000000000000000006001600160a01b0316906323b872dd906064015b6020604051808303816000875af1158015611625573d6000803e3d6000fd5b505050506040513d601f19601f8201168201806040525081019061122691906130ad565b33600090815260066020526040902080548591908590811061166d5761166d612fb7565b90600052602060002001541461169657604051630e7fea9d60e01b815260040160405180910390fd5b816001600160401b03166000036116c057604051636e5a187760e11b815260040160405180910390fd5b6000600885815481106116d5576116d5612fb7565b906000526020600020906004020190506116ee8261249b565b8054600182015414611713576040516391bc6cc360e01b815260040160405180910390fd5b600301805467ffffffffffffffff19166001600160401b039390931692909217909155505050565b6003546001600160a01b031633146117655760405162461bcd60e51b815260040161066390612f91565b600980546001600160a01b0319166001600160a01b0392909216919091179055565b6008818154811061179757600080fd5b6000918252602090912060049091020180546001820154600283015460039093015491935091906001600160401b03811690600160401b900460501b85565b6000600882815481106117eb576117eb612fb7565b9060005260206000209060040201600101549050919050565b6007818154811061181457600080fd5b60009182526020909120600a90910201805460018201546002830154600384015460048501546005860154600687015460079097015463ffffffff80881699506401000000008804811698600160401b890490911697600160601b900460ff16966001600160a01b031695949392918b565b60006007828154811061189b5761189b612fb7565b60009182526020909120600a90910201905060028154600160601b900460ff1660048111156118cc576118cc612a99565b146118ea5760405163b38c767b60e01b815260040160405180910390fd5b80546102589061190790600160401b900463ffffffff164261309a565b101561192657604051632d5c37f560e21b815260040160405180910390fd5b600781015460068201546000908152602081905260409020540361195d5760405163c1f6fa5160e01b815260040160405180910390fd5b600061196c4862033450612ff6565b6005546119799190612fe3565b60405163a9059cbb60e01b8152336004820152602481018290529091507f00000000000000000000000000000000000000000000000000000000000000006001600160a01b03169063a9059cbb906044016020604051808303816000875af11580156119e9573d6000803e3d6000fd5b505050506040513d601f19601f82011682018060405250810190611a0d91906130ad565b5080826005016000828254611a2291906130e8565b9091555050600582015460001315611a59578160050154826004016000828254611a4c9190612fe3565b9091555050600060058301555b600182015460048084015460405163a9059cbb60e01b81526001600160a01b039384169281019290925260248201527f00000000000000000000000000000000000000000000000000000000000000009091169063a9059cbb906044016020604051808303816000875af1158015611ad5573d6000803e3d6000fd5b505050506040513d601f19601f82011682018060405250810190611af991906130ad565b508154600160621b60ff60601b1990911617825560038201546040805185815260208101929092527f12245c00d428a4c558061d2f69fe154a203bd2fb4a65b6c3e73e95ccdc735d18910160405180910390a1505050565b600060078881548110611b6657611b66612fb7565b90600052602060002090600a020190506000611c566040518061016001604052808a8152602001846002015481526020018460030154815260200184600401546001600160401b0316815260200184600801805490506001600160401b03168152602001611bf1611bd68a6125eb565b6001600160401b031660009081526020819052604090205490565b815263ffffffff8a1660208201819052604090910190611c11908a61310f565b6001600160401b03168152602001611c29898961310f565b6001600160401b03168152602001611c40896125eb565b6001600160401b031681526020018690526122f9565b60405163020a49e360e51b81529091506001600160a01b037f000000000000000000000000000000000000000000000000000000000000000016906341493c6090611cc9907f0000000000000000000000000000000000000000000000000000000000000000908590889060040161312f565b60006040518083038186803b158015611ce157600080fd5b505afa158015611cf5573d6000803e3d6000fd5b50611d2b9250505063ffffffff88166001600160401b0388811690881687611d1d848c61310f565b6001600160401b0316611039565b815460ff60601b1916600160611b1782556000611d4b48620668a0612ff6565b600454611d589190612fe3565b60405163a9059cbb60e01b8152336004820152602481018290529091507f00000000000000000000000000000000000000000000000000000000000000006001600160a01b03169063a9059cbb906044016020604051808303816000875af1158015611dc8573d6000803e3d6000fd5b505050506040513d601f19601f82011682018060405250810190611dec91906130ad565b50611e1063ffffffff89166001600160401b03808a1690891688611d1d848d61310f565b600083600501541215611e42578260050154836004016000828254611e359190612fe3565b9091555050600060058401555b600383015460405133917f184abe81dc2f02915b1cd93143dc1987a077040f7de69181dd5eaf9b37bb715c91611e80918e8252602082015260400190565b60405180910390a250505050505050505050565b6003546001600160a01b03163314611ebe5760405162461bcd60e51b815260040161066390612f91565b600491909155600555565b6040805160208082018352606082526001600160a01b03841660009081526006825283902083518154808402820186018652928101838152939490939192849291849190840182828015611f3c57602002820191906000526020600020905b815481526020019060010190808311611f28575b5050505050815250509050919050565b336000908152600660205260409020805485919085908110611f7057611f70612fb7565b906000526020600020015414611f9957604051630e7fea9d60e01b815260040160405180910390fd5b611fa28161249b565b6008548410611fc45760405163721e09df60e01b815260040160405180910390fd5b600060088581548110611fd957611fd9612fb7565b90600052602060002090600402019050826001600160c01b03166000148061200d57508060010154836001600160c01b0316115b1561202b5760405163b4e3d41360e01b815260040160405180910390fd5b826001600160c01b0316816001016000828254612048919061309a565b92505081905550826001600160c01b031681600201600082825461206c9190612fe3565b909155505060405163a9059cbb60e01b81523360048201526001600160c01b03841660248201527f00000000000000000000000000000000000000000000000000000000000000006001600160a01b03169063a9059cbb90604401611606565b604080516101a08101825260008082526020820181905291810182905260608082018390526080820183905260a0820183905260c0820183905260e082018390526101008201839052610120820183905261014082019290925261016081018290526101808101919091526007828154811061214a5761214a612fb7565b6000918252602091829020604080516101a081018252600a909302909101805463ffffffff80821685526401000000008204811695850195909552600160401b8104909416918301919091529091606083019060ff600160601b9091041660048111156121b9576121b9612a99565b60048111156121ca576121ca612a99565b81526020016001820160009054906101000a90046001600160a01b03166001600160a01b03166001600160a01b031681526020016002820154815260200160038201548152602001600482015481526020016005820154815260200160068201548152602001600782015481526020016008820180548060200260200160405190810160405280929190818152602001828054801561228857602002820191906000526020600020905b815481526020019060010190808311612274575b5050505050815260200160098201805480602002602001604051908101604052809291908181526020018280548015611f3c57602002820191906000526020600020905b81546001600160c01b031681526001909101906020018083116122cc575050505050815250509050919050565b60608160405160200161230c919061315a565b6040516020818303038152906040529050919050565b60008181526020819052604090205461234e5760405163fa4a5e4560e01b815260040160405180910390fd5b50565b6003546001600160a01b0316331461237b5760405162461bcd60e51b815260040161066390612f91565b600380546001600160a01b0319166001600160a01b03831690811790915560405133907f8be0079c531659141344cd1fd0a4f28419497f9722a3daafe3b4186f6b6457e090600090a350565b61240c82826040516024016123dd92919061323e565b60408051601f198184030181529190526020810180516001600160e01b03166309710a9d60e41b179052612609565b5050565b60005b815181101561240c57617080600783838151811061243357612433612fb7565b60200260200101518154811061244b5761244b612fb7565b60009182526020909120600a909102015461247490640100000000900463ffffffff164261309a565b1015612493576040516326349d6b60e01b815260040160405180910390fd5b600101612413565b60005b815181101561240c576124b082612410565b600060078383815181106124c6576124c6612fb7565b6020026020010151815481106124de576124de612fb7565b90600052602060002090600a0201905060005b600882015481101561258e576000600883600801838154811061251657612516612fb7565b90600052602060002001548154811061253157612531612fb7565b9060005260206000209060040201905082600901828154811061255657612556612fb7565b60009182526020822001546001830180546001600160c01b03909216929091612580908490612fe3565b9091555050506001016124f1565b50805460ff60601b1916600360601b17905560010161249e565b61234e816040516024016125bc9190612f7e565b60408051601f198184030181529190526020810180516001600160e01b031663104c13eb60e21b179052612609565b60006125f96107e083613260565b612603908361310f565b92915050565b80516a636f6e736f6c652e6c6f67602083016000808483855afa5050505050565b828054828255906000526020600020908101928215612665579160200282015b8281111561266557825182559160200191906001019061264a565b506126719291506126ca565b5090565b828054828255906000526020600020908101928215612665579160200282015b8281111561266557825182546001600160c01b0319166001600160c01b03909116178255602090920191600190910190612695565b5b8082111561267157600081556001016126cb565b6000602082840312156126f157600080fd5b813560ff8116811461270257600080fd5b9392505050565b60006020828403121561271b57600080fd5b5035919050565b634e487b7160e01b600052604160045260246000fd5b60405161016081016001600160401b038111828210171561275b5761275b612722565b60405290565b604051601f8201601f191681016001600160401b038111828210171561278957612789612722565b604052919050565b60006001600160401b038211156127aa576127aa612722565b5060051b60200190565b600082601f8301126127c557600080fd5b813560206127da6127d583612791565b612761565b8083825260208201915060208460051b8701019350868411156127fc57600080fd5b602086015b848110156128185780358352918301918301612801565b509695505050505050565b80356001600160c01b038116811461283a57600080fd5b919050565b6001600160a01b038116811461234e57600080fd5b803561283a8161283f565b6000806000806080858703121561287557600080fd5b84356001600160401b038082111561288c57600080fd5b612898888389016127b4565b95506020915081870135818111156128af57600080fd5b8701601f810189136128c057600080fd5b80356128ce6127d582612791565b81815260059190911b8201840190848101908b8311156128ed57600080fd5b928501925b828410156129125761290384612823565b825292850192908501906128f2565b97506129249250505060408801612854565b9350606087013591508082111561293a57600080fd5b50612947878288016127b4565b91505092959194509250565b600080600080600060a0868803121561296b57600080fd5b85359450602086013593506040860135925060608601356001600160401b0381111561299657600080fd5b6129a2888289016127b4565b95989497509295608001359392505050565b80356001600160401b038116811461283a57600080fd5b600080600080600060a086880312156129e357600080fd5b853594506129f3602087016129b4565b935060408601356001600160501b031981168114612a1057600080fd5b94979396509394606081013594506080013592915050565b60008060008060808587031215612a3e57600080fd5b8435935060208501359250612a55604086016129b4565b915060608501356001600160401b03811115612a7057600080fd5b612947878288016127b4565b600060208284031215612a8e57600080fd5b81356127028161283f565b634e487b7160e01b600052602160045260246000fd5b60058110612acd57634e487b7160e01b600052602160045260246000fd5b9052565b63ffffffff8c811682528b811660208301528a1660408201526101608101612afc606083018b612aaf565b6001600160a01b0398909816608082015260a081019690965260c086019490945260e085019290925261010084015261012083015261014090910152949350505050565b600080600080600080600060e0888a031215612b5b57600080fd5b873596506020808901359650604089013563ffffffff81168114612b7e57600080fd5b9550612b8c60608a016129b4565b9450612b9a60808a016129b4565b935060a08901356001600160401b0380821115612bb657600080fd5b612bc28c838d016127b4565b945060c08b0135915080821115612bd857600080fd5b818b0191508b601f830112612bec57600080fd5b813581811115612bfe57612bfe612722565b612c10601f8201601f19168501612761565b91508082528c84828501011115612c2657600080fd5b808484018584013760008482840101525080935050505092959891949750929550565b60008060408385031215612c5c57600080fd5b50508035926020909101359150565b60008151808452602080850194506020840160005b83811015612c9c57815187529582019590820190600101612c80565b509495945050505050565b6020815260008251602080840152612cc26040840182612c6b565b949350505050565b60008060008060808587031215612ce057600080fd5b8435935060208501359250612a5560408601612823565b60008151808452602080850194506020840160005b83811015612c9c5781516001600160c01b031687529582019590820190600101612d0c565b60208152612d4860208201835163ffffffff169052565b60006020830151612d61604084018263ffffffff169052565b50604083015163ffffffff81166060840152506060830151612d866080840182612aaf565b5060808301516001600160a01b03811660a08401525060a083015160c08381019190915283015160e080840191909152830151610100808401919091528301516101208084019190915283015161014080840191909152830151610160808401919091528301516101a0610180808501829052612e076101c0860184612c6b565b90860151858203601f190183870152909250612e238382612cf7565b9695505050505050565b600060208284031215612e3f57600080fd5b81356001600160401b0380821115612e5657600080fd5b908301906101608286031215612e6b57600080fd5b612e73612738565b823581526020830135602082015260408301356040820152612e97606084016129b4565b6060820152612ea8608084016129b4565b608082015260a083013560a0820152612ec360c084016129b4565b60c0820152612ed460e084016129b4565b60e0820152610100612ee78185016129b4565b90820152610120612ef98482016129b4565b908201526101408381013583811115612f1157600080fd5b612f1d888287016127b4565b918301919091525095945050505050565b60005b83811015612f49578181015183820152602001612f31565b50506000910152565b60008151808452612f6a816020860160208601612f2e565b601f01601f19169290920160200192915050565b6020815260006127026020830184612f52565b6020808252600c908201526b15539055551213d49256915160a21b604082015260600190565b634e487b7160e01b600052603260045260246000fd5b634e487b7160e01b600052601160045260246000fd5b8082018082111561260357612603612fcd565b808202811582820484141761260357612603612fcd565b634e487b7160e01b600052601260045260246000fd5b6000826130325761303261300d565b500490565b60008251613049818460208701612f2e565b9190910192915050565b60006020828403121561306557600080fd5b5051919050565b6001600160a01b03959095168552602085019390935260408401919091526060830152608082015260a00190565b8181038181111561260357612603612fcd565b6000602082840312156130bf57600080fd5b8151801515811461270257600080fd5b6000600182016130e1576130e1612fcd565b5060010190565b818103600083128015838313168383128216171561310857613108612fcd565b5092915050565b6001600160401b0382811682821603908082111561310857613108612fcd565b8381526060602082015260006131486060830185612f52565b8281036040840152612e238185612f52565b602081528151602082015260208201516040820152604082015160608201526000606083015161319560808401826001600160401b03169052565b5060808301516001600160401b03811660a08401525060a083015160c083015260c08301516131cf60e08401826001600160401b03169052565b5060e08301516101006131ec818501836001600160401b03169052565b8401519050610120613208848201836001600160401b03169052565b8401519050610140613224848201836001600160401b03169052565b840151610160848101529050612cc2610180840182612c6b565b6040815260006132516040830185612f52565b90508260208301529392505050565b60006001600160401b038084168061327a5761327a61300d565b9216919091069291505056fea2646970667358221220be5a8a90531145fc0d81f89047527df8faf1bbb5f0e23b45929e9aa63cb8ab0864736f6c63430008180033","linkReferences":{}},"methodIdentifiers":{"CHALLENGE_PERIOD()":"c3a079ed","DEPOSIT_TOKEN()":"13f66587","MAX_DEPOSIT_OUTPUTS()":"9cdb8e5a","MIN_ORDER_GAS_MULTIPLIER()":"5f5d5b6a","PROOF_GAS_COST()":"eb6c7522","RELEASE_GAS_COST()":"9a64279c","RESERVATION_LOCKUP_PERIOD()":"89a11f7a","SAMPLING_SIZE()":"ad062e55","TOKEN_DECIMALS()":"5b7f415c","addBlock(uint256,uint256,uint256,bytes32[],uint256)":"2d908c02","buildProofPublicInputs((bytes32,bytes32,bytes32,uint64,uint64,bytes32,uint64,uint64,uint64,uint64,bytes32[]))":"e118f0e6","circuitVerificationKey()":"3d7b22b3","currentConfirmationHeight()":"fba78166","currentHeight()":"163de0c5","depositLiquidity(uint256,uint64,bytes22,int256,int256)":"51a7f1cd","depositVaults(uint256)":"5f4d0610","emptyDepositVault(uint256)":"490d4c5f","getBlockHash(uint256)":"ee82ac5e","getDepositVault(uint256)":"276d080e","getDepositVaultUnreservedBalance(uint256)":"6512d057","getDepositVaultsLength()":"7dce5550","getLiquidityProvider(address)":"98f9e757","getReservation(uint256)":"d57763c3","getReservationLength()":"ea6fe03e","owner()":"8da5cb5b","proposeTransactionProof(uint256,bytes32,uint32,uint64,uint64,bytes32[],bytes)":"8f805ac9","protocolFeeBP()":"c5fba0b8","proverReward()":"6dcc17c8","releaseLiquidity(uint256)":"77891907","releaserReward()":"9cc7eab9","reserveLiquidity(uint256[],uint192[],address,uint256[])":"2d312a4a","swapReservations(uint256)":"6b994abb","transferOwnership(address)":"f2fde38b","updateExchangeRate(uint256,uint256,uint64,uint256[])":"56fe6f86","updateProtocolAddress(address)":"58e2b676","updateProtocolFee(uint8)":"0a7aa293","updateRewards(uint256,uint256)":"97e50818","validateBlockExists(uint256)":"ed8b2b32","verifierContract()":"cf695688","withdrawLiquidity(uint256,uint256,uint192,uint256[])":"aeacb2e7"},"storageLayout":{"storage":[{"astId":47499,"contract":"src/RiftExchange.sol:RiftExchange","label":"blockchain","offset":0,"slot":"0","type":"t_mapping(t_uint256,t_bytes32)"},{"astId":47501,"contract":"src/RiftExchange.sol:RiftExchange","label":"currentHeight","offset":0,"slot":"1","type":"t_uint256"},{"astId":47503,"contract":"src/RiftExchange.sol:RiftExchange","label":"currentConfirmationHeight","offset":0,"slot":"2","type":"t_uint256"},{"astId":46637,"contract":"src/RiftExchange.sol:RiftExchange","label":"owner","offset":0,"slot":"3","type":"t_address"},{"astId":48224,"contract":"src/RiftExchange.sol:RiftExchange","label":"protocolFeeBP","offset":20,"slot":"3","type":"t_uint8"},{"astId":48226,"contract":"src/RiftExchange.sol:RiftExchange","label":"proverReward","offset":0,"slot":"4","type":"t_uint256"},{"astId":48228,"contract":"src/RiftExchange.sol:RiftExchange","label":"releaserReward","offset":0,"slot":"5","type":"t_uint256"},{"astId":48311,"contract":"src/RiftExchange.sol:RiftExchange","label":"liquidityProviders","offset":0,"slot":"6","type":"t_mapping(t_address,t_struct(LiquidityProvider)48259_storage)"},{"astId":48315,"contract":"src/RiftExchange.sol:RiftExchange","label":"swapReservations","offset":0,"slot":"7","type":"t_array(t_struct(SwapReservation)48306_storage)dyn_storage"},{"astId":48319,"contract":"src/RiftExchange.sol:RiftExchange","label":"depositVaults","offset":0,"slot":"8","type":"t_array(t_struct(DepositVault)48270_storage)dyn_storage"},{"astId":48330,"contract":"src/RiftExchange.sol:RiftExchange","label":"protocolAddress","offset":0,"slot":"9","type":"t_address_payable"}],"types":{"t_address":{"encoding":"inplace","label":"address","numberOfBytes":"20"},"t_address_payable":{"encoding":"inplace","label":"address payable","numberOfBytes":"20"},"t_array(t_struct(DepositVault)48270_storage)dyn_storage":{"encoding":"dynamic_array","label":"struct RiftExchange.DepositVault[]","numberOfBytes":"32","base":"t_struct(DepositVault)48270_storage"},"t_array(t_struct(SwapReservation)48306_storage)dyn_storage":{"encoding":"dynamic_array","label":"struct RiftExchange.SwapReservation[]","numberOfBytes":"32","base":"t_struct(SwapReservation)48306_storage"},"t_array(t_uint192)dyn_storage":{"encoding":"dynamic_array","label":"uint192[]","numberOfBytes":"32","base":"t_uint192"},"t_array(t_uint256)dyn_storage":{"encoding":"dynamic_array","label":"uint256[]","numberOfBytes":"32","base":"t_uint256"},"t_bytes22":{"encoding":"inplace","label":"bytes22","numberOfBytes":"22"},"t_bytes32":{"encoding":"inplace","label":"bytes32","numberOfBytes":"32"},"t_enum(ReservationState)48276":{"encoding":"inplace","label":"enum RiftExchange.ReservationState","numberOfBytes":"1"},"t_int256":{"encoding":"inplace","label":"int256","numberOfBytes":"32"},"t_mapping(t_address,t_struct(LiquidityProvider)48259_storage)":{"encoding":"mapping","key":"t_address","label":"mapping(address => struct RiftExchange.LiquidityProvider)","numberOfBytes":"32","value":"t_struct(LiquidityProvider)48259_storage"},"t_mapping(t_uint256,t_bytes32)":{"encoding":"mapping","key":"t_uint256","label":"mapping(uint256 => bytes32)","numberOfBytes":"32","value":"t_bytes32"},"t_struct(DepositVault)48270_storage":{"encoding":"inplace","label":"struct RiftExchange.DepositVault","numberOfBytes":"128","members":[{"astId":48261,"contract":"src/RiftExchange.sol:RiftExchange","label":"initialBalance","offset":0,"slot":"0","type":"t_uint256"},{"astId":48263,"contract":"src/RiftExchange.sol:RiftExchange","label":"unreservedBalance","offset":0,"slot":"1","type":"t_uint256"},{"astId":48265,"contract":"src/RiftExchange.sol:RiftExchange","label":"withdrawnAmount","offset":0,"slot":"2","type":"t_uint256"},{"astId":48267,"contract":"src/RiftExchange.sol:RiftExchange","label":"exchangeRate","offset":0,"slot":"3","type":"t_uint64"},{"astId":48269,"contract":"src/RiftExchange.sol:RiftExchange","label":"btcPayoutLockingScript","offset":8,"slot":"3","type":"t_bytes22"}]},"t_struct(LiquidityProvider)48259_storage":{"encoding":"inplace","label":"struct RiftExchange.LiquidityProvider","numberOfBytes":"32","members":[{"astId":48258,"contract":"src/RiftExchange.sol:RiftExchange","label":"depositVaultIndexes","offset":0,"slot":"0","type":"t_array(t_uint256)dyn_storage"}]},"t_struct(SwapReservation)48306_storage":{"encoding":"inplace","label":"struct RiftExchange.SwapReservation","numberOfBytes":"320","members":[{"astId":48278,"contract":"src/RiftExchange.sol:RiftExchange","label":"confirmationBlockHeight","offset":0,"slot":"0","type":"t_uint32"},{"astId":48280,"contract":"src/RiftExchange.sol:RiftExchange","label":"reservationTimestamp","offset":4,"slot":"0","type":"t_uint32"},{"astId":48282,"contract":"src/RiftExchange.sol:RiftExchange","label":"unlockTimestamp","offset":8,"slot":"0","type":"t_uint32"},{"astId":48285,"contract":"src/RiftExchange.sol:RiftExchange","label":"state","offset":12,"slot":"0","type":"t_enum(ReservationState)48276"},{"astId":48287,"contract":"src/RiftExchange.sol:RiftExchange","label":"ethPayoutAddress","offset":0,"slot":"1","type":"t_address"},{"astId":48289,"contract":"src/RiftExchange.sol:RiftExchange","label":"lpReservationHash","offset":0,"slot":"2","type":"t_bytes32"},{"astId":48291,"contract":"src/RiftExchange.sol:RiftExchange","label":"nonce","offset":0,"slot":"3","type":"t_bytes32"},{"astId":48293,"contract":"src/RiftExchange.sol:RiftExchange","label":"totalSwapAmount","offset":0,"slot":"4","type":"t_uint256"},{"astId":48295,"contract":"src/RiftExchange.sol:RiftExchange","label":"prepaidFeeAmount","offset":0,"slot":"5","type":"t_int256"},{"astId":48297,"contract":"src/RiftExchange.sol:RiftExchange","label":"proposedBlockHeight","offset":0,"slot":"6","type":"t_uint256"},{"astId":48299,"contract":"src/RiftExchange.sol:RiftExchange","label":"proposedBlockHash","offset":0,"slot":"7","type":"t_bytes32"},{"astId":48302,"contract":"src/RiftExchange.sol:RiftExchange","label":"vaultIndexes","offset":0,"slot":"8","type":"t_array(t_uint256)dyn_storage"},{"astId":48305,"contract":"src/RiftExchange.sol:RiftExchange","label":"amountsToReserve","offset":0,"slot":"9","type":"t_array(t_uint192)dyn_storage"}]},"t_uint192":{"encoding":"inplace","label":"uint192","numberOfBytes":"24"},"t_uint256":{"encoding":"inplace","label":"uint256","numberOfBytes":"32"},"t_uint32":{"encoding":"inplace","label":"uint32","numberOfBytes":"4"},"t_uint64":{"encoding":"inplace","label":"uint64","numberOfBytes":"8"},"t_uint8":{"encoding":"inplace","label":"uint8","numberOfBytes":"1"}}},"id":32}