{"abi":[{"type":"constructor","inputs":[{"name":"initialCheckpointHeight","type":"uint256","internalType":"uint256"},{"name":"initialBlockHash","type":"bytes32","internalType":"bytes32"},{"name":"initialRetargetBlockHash","type":"bytes32","internalType":"bytes32"},{"name":"initialChainwork","type":"uint256","internalType":"uint256"},{"name":"verifierContractAddress","type":"address","internalType":"address"},{"name":"depositTokenAddress","type":"address","internalType":"address"},{"name":"_proverReward","type":"uint256","internalType":"uint256"},{"name":"_releaserReward","type":"uint256","internalType":"uint256"},{"name":"_protocolAddress","type":"address","internalType":"address payable"},{"name":"_owner","type":"address","internalType":"address"},{"name":"_circuitVerificationKey","type":"bytes32","internalType":"bytes32"},{"name":"minimumConfirmationDelta","type":"uint8","internalType":"uint8"}],"stateMutability":"nonpayable"},{"type":"function","name":"CHALLENGE_PERIOD","inputs":[],"outputs":[{"name":"","type":"uint32","internalType":"uint32"}],"stateMutability":"view"},{"type":"function","name":"DEPOSIT_TOKEN","inputs":[],"outputs":[{"name":"","type":"address","internalType":"contract IERC20"}],"stateMutability":"view"},{"type":"function","name":"MAX_DEPOSIT_OUTPUTS","inputs":[],"outputs":[{"name":"","type":"uint16","internalType":"uint16"}],"stateMutability":"view"},{"type":"function","name":"MIN_ORDER_GAS_MULTIPLIER","inputs":[],"outputs":[{"name":"","type":"uint256","internalType":"uint256"}],"stateMutability":"view"},{"type":"function","name":"PROOF_GAS_COST","inputs":[],"outputs":[{"name":"","type":"uint256","internalType":"uint256"}],"stateMutability":"view"},{"type":"function","name":"RELEASE_GAS_COST","inputs":[],"outputs":[{"name":"","type":"uint256","internalType":"uint256"}],"stateMutability":"view"},{"type":"function","name":"RESERVATION_LOCKUP_PERIOD","inputs":[],"outputs":[{"name":"","type":"uint32","internalType":"uint32"}],"stateMutability":"view"},{"type":"function","name":"SAMPLING_SIZE","inputs":[],"outputs":[{"name":"","type":"uint8","internalType":"uint8"}],"stateMutability":"view"},{"type":"function","name":"TOKEN_DECIMALS","inputs":[],"outputs":[{"name":"","type":"uint8","internalType":"uint8"}],"stateMutability":"view"},{"type":"function","name":"buildProofPublicInputs","inputs":[{"name":"inputs","type":"tuple","internalType":"struct RiftExchange.ProofPublicInputs","components":[{"name":"natural_txid","type":"bytes32","internalType":"bytes32"},{"name":"lp_reservation_hash","type":"bytes32","internalType":"bytes32"},{"name":"order_nonce","type":"bytes32","internalType":"bytes32"},{"name":"lp_count","type":"uint64","internalType":"uint64"},{"name":"retarget_block_hash","type":"bytes32","internalType":"bytes32"},{"name":"safe_block_height","type":"uint64","internalType":"uint64"},{"name":"safe_block_height_delta","type":"uint64","internalType":"uint64"},{"name":"confirmation_block_height_delta","type":"uint64","internalType":"uint64"},{"name":"confirmation_chainwork","type":"uint256","internalType":"uint256"},{"name":"retarget_block_height","type":"uint64","internalType":"uint64"},{"name":"block_hashes","type":"bytes32[]","internalType":"bytes32[]"}]}],"outputs":[{"name":"","type":"bytes","internalType":"bytes"}],"stateMutability":"pure"},{"type":"function","name":"calculateRetargetHeight","inputs":[{"name":"blockHeight","type":"uint64","internalType":"uint64"}],"outputs":[{"name":"","type":"uint64","internalType":"uint64"}],"stateMutability":"pure"},{"type":"function","name":"circuitVerificationKey","inputs":[],"outputs":[{"name":"","type":"bytes32","internalType":"bytes32"}],"stateMutability":"view"},{"type":"function","name":"currentChainwork","inputs":[],"outputs":[{"name":"","type":"uint256","internalType":"uint256"}],"stateMutability":"view"},{"type":"function","name":"currentConfirmationHeight","inputs":[],"outputs":[{"name":"","type":"uint256","internalType":"uint256"}],"stateMutability":"view"},{"type":"function","name":"currentHeight","inputs":[],"outputs":[{"name":"","type":"uint256","internalType":"uint256"}],"stateMutability":"view"},{"type":"function","name":"depositLiquidity","inputs":[{"name":"depositAmount","type":"uint256","internalType":"uint256"},{"name":"exchangeRate","type":"uint64","internalType":"uint64"},{"name":"btcPayoutLockingScript","type":"bytes22","internalType":"bytes22"},{"name":"vaultIndexToOverwrite","type":"int256","internalType":"int256"},{"name":"vaultIndexWithSameExchangeRate","type":"int256","internalType":"int256"}],"outputs":[],"stateMutability":"nonpayable"},{"type":"function","name":"depositVaults","inputs":[{"name":"","type":"uint256","internalType":"uint256"}],"outputs":[{"name":"owner","type":"address","internalType":"address"},{"name":"initialBalance","type":"uint256","internalType":"uint256"},{"name":"unreservedBalance","type":"uint256","internalType":"uint256"},{"name":"withdrawnAmount","type":"uint256","internalType":"uint256"},{"name":"exchangeRate","type":"uint64","internalType":"uint64"},{"name":"btcPayoutLockingScript","type":"bytes22","internalType":"bytes22"}],"stateMutability":"view"},{"type":"function","name":"emptyDepositVault","inputs":[{"name":"vaultIndex","type":"uint256","internalType":"uint256"}],"outputs":[],"stateMutability":"nonpayable"},{"type":"function","name":"getAreDepositsPaused","inputs":[],"outputs":[{"name":"","type":"bool","internalType":"bool"}],"stateMutability":"view"},{"type":"function","name":"getBlockHash","inputs":[{"name":"blockHeight","type":"uint256","internalType":"uint256"}],"outputs":[{"name":"","type":"bytes32","internalType":"bytes32"}],"stateMutability":"view"},{"type":"function","name":"getDepositVault","inputs":[{"name":"depositIndex","type":"uint256","internalType":"uint256"}],"outputs":[{"name":"","type":"tuple","internalType":"struct RiftExchange.DepositVault","components":[{"name":"owner","type":"address","internalType":"address"},{"name":"initialBalance","type":"uint256","internalType":"uint256"},{"name":"unreservedBalance","type":"uint256","internalType":"uint256"},{"name":"withdrawnAmount","type":"uint256","internalType":"uint256"},{"name":"exchangeRate","type":"uint64","internalType":"uint64"},{"name":"btcPayoutLockingScript","type":"bytes22","internalType":"bytes22"}]}],"stateMutability":"view"},{"type":"function","name":"getDepositVaultUnreservedBalance","inputs":[{"name":"depositIndex","type":"uint256","internalType":"uint256"}],"outputs":[{"name":"","type":"uint256","internalType":"uint256"}],"stateMutability":"view"},{"type":"function","name":"getDepositVaultsLength","inputs":[],"outputs":[{"name":"","type":"uint256","internalType":"uint256"}],"stateMutability":"view"},{"type":"function","name":"getLiquidityProvider","inputs":[{"name":"lpAddress","type":"address","internalType":"address"}],"outputs":[{"name":"","type":"tuple","internalType":"struct RiftExchange.LiquidityProvider","components":[{"name":"depositVaultIndexes","type":"uint256[]","internalType":"uint256[]"}]}],"stateMutability":"view"},{"type":"function","name":"getReservation","inputs":[{"name":"reservationIndex","type":"uint256","internalType":"uint256"}],"outputs":[{"name":"","type":"tuple","internalType":"struct RiftExchange.SwapReservation","components":[{"name":"owner","type":"address","internalType":"address"},{"name":"confirmationBlockHeight","type":"uint32","internalType":"uint32"},{"name":"reservationTimestamp","type":"uint32","internalType":"uint32"},{"name":"unlockTimestamp","type":"uint32","internalType":"uint32"},{"name":"state","type":"uint8","internalType":"enum RiftExchange.ReservationState"},{"name":"ethPayoutAddress","type":"address","internalType":"address"},{"name":"lpReservationHash","type":"bytes32","internalType":"bytes32"},{"name":"nonce","type":"bytes32","internalType":"bytes32"},{"name":"totalSatsInputInlcudingProxyFee","type":"uint256","internalType":"uint256"},{"name":"totalSwapOutputAmount","type":"uint256","internalType":"uint256"},{"name":"prepaidFeeAmount","type":"int256","internalType":"int256"},{"name":"proposedBlockHeight","type":"uint256","internalType":"uint256"},{"name":"proposedBlockHash","type":"bytes32","internalType":"bytes32"},{"name":"vaultIndexes","type":"uint256[]","internalType":"uint256[]"},{"name":"amountsToReserve","type":"uint192[]","internalType":"uint192[]"},{"name":"expectedSatsOutput","type":"uint64[]","internalType":"uint64[]"}]}],"stateMutability":"view"},{"type":"function","name":"getReservationLength","inputs":[],"outputs":[{"name":"","type":"uint256","internalType":"uint256"}],"stateMutability":"view"},{"type":"function","name":"isDepositNewLiquidityPaused","inputs":[],"outputs":[{"name":"","type":"bool","internalType":"bool"}],"stateMutability":"view"},{"type":"function","name":"owner","inputs":[],"outputs":[{"name":"","type":"address","internalType":"address"}],"stateMutability":"view"},{"type":"function","name":"pauseDepositNewLiquidity","inputs":[],"outputs":[],"stateMutability":"nonpayable"},{"type":"function","name":"proposeTransactionProof","inputs":[{"name":"swapReservationIndex","type":"uint256","internalType":"uint256"},{"name":"bitcoinTxId","type":"bytes32","internalType":"bytes32"},{"name":"safeBlockHeight","type":"uint32","internalType":"uint32"},{"name":"proposedBlockHeight","type":"uint64","internalType":"uint64"},{"name":"confirmationBlockHeight","type":"uint64","internalType":"uint64"},{"name":"confirmationChainwork","type":"uint256","internalType":"uint256"},{"name":"blockHashes","type":"bytes32[]","internalType":"bytes32[]"},{"name":"proof","type":"bytes","internalType":"bytes"}],"outputs":[],"stateMutability":"nonpayable"},{"type":"function","name":"protocolFeeBP","inputs":[],"outputs":[{"name":"","type":"uint8","internalType":"uint8"}],"stateMutability":"view"},{"type":"function","name":"proverReward","inputs":[],"outputs":[{"name":"","type":"uint256","internalType":"uint256"}],"stateMutability":"view"},{"type":"function","name":"refundAllLPs","inputs":[{"name":"depositVaultStartIndex","type":"uint256","internalType":"uint256"},{"name":"depositVaultEndIndex","type":"uint256","internalType":"uint256"},{"name":"expiredReservationIndexes","type":"uint256[]","internalType":"uint256[]"}],"outputs":[],"stateMutability":"nonpayable"},{"type":"function","name":"releaseLiquidity","inputs":[{"name":"swapReservationIndex","type":"uint256","internalType":"uint256"}],"outputs":[],"stateMutability":"nonpayable"},{"type":"function","name":"releaserReward","inputs":[],"outputs":[{"name":"","type":"uint256","internalType":"uint256"}],"stateMutability":"view"},{"type":"function","name":"reserveLiquidity","inputs":[{"name":"vaultIndexesToReserve","type":"uint256[]","internalType":"uint256[]"},{"name":"amountsToReserve","type":"uint192[]","internalType":"uint192[]"},{"name":"ethPayoutAddress","type":"address","internalType":"address"},{"name":"totalSatsInputInlcudingProxyFee","type":"uint256","internalType":"uint256"},{"name":"expiredSwapReservationIndexes","type":"uint256[]","internalType":"uint256[]"}],"outputs":[],"stateMutability":"nonpayable"},{"type":"function","name":"setSwapReservationState","inputs":[{"name":"swapReservationIndex","type":"uint256","internalType":"uint256"},{"name":"state","type":"uint8","internalType":"enum RiftExchange.ReservationState"}],"outputs":[],"stateMutability":"nonpayable"},{"type":"function","name":"swapReservations","inputs":[{"name":"","type":"uint256","internalType":"uint256"}],"outputs":[{"name":"owner","type":"address","internalType":"address"},{"name":"confirmationBlockHeight","type":"uint32","internalType":"uint32"},{"name":"reservationTimestamp","type":"uint32","internalType":"uint32"},{"name":"unlockTimestamp","type":"uint32","internalType":"uint32"},{"name":"state","type":"uint8","internalType":"enum RiftExchange.ReservationState"},{"name":"ethPayoutAddress","type":"address","internalType":"address"},{"name":"lpReservationHash","type":"bytes32","internalType":"bytes32"},{"name":"nonce","type":"bytes32","internalType":"bytes32"},{"name":"totalSatsInputInlcudingProxyFee","type":"uint256","internalType":"uint256"},{"name":"totalSwapOutputAmount","type":"uint256","internalType":"uint256"},{"name":"prepaidFeeAmount","type":"int256","internalType":"int256"},{"name":"proposedBlockHeight","type":"uint256","internalType":"uint256"},{"name":"proposedBlockHash","type":"bytes32","internalType":"bytes32"}],"stateMutability":"view"},{"type":"function","name":"transferOwnership","inputs":[{"name":"newOwner","type":"address","internalType":"address"}],"outputs":[],"stateMutability":"nonpayable"},{"type":"function","name":"unpauseDepositNewLiquidity","inputs":[],"outputs":[],"stateMutability":"nonpayable"},{"type":"function","name":"updateExchangeRate","inputs":[{"name":"globalVaultIndex","type":"uint256","internalType":"uint256"},{"name":"localVaultIndex","type":"uint256","internalType":"uint256"},{"name":"newexchangeRate","type":"uint64","internalType":"uint64"},{"name":"expiredReservationIndexes","type":"uint256[]","internalType":"uint256[]"}],"outputs":[],"stateMutability":"nonpayable"},{"type":"function","name":"updateProtocolAddress","inputs":[{"name":"newProtocolAddress","type":"address","internalType":"address payable"}],"outputs":[],"stateMutability":"nonpayable"},{"type":"function","name":"updateProtocolFee","inputs":[{"name":"newProtocolFeeBP","type":"uint8","internalType":"uint8"}],"outputs":[],"stateMutability":"nonpayable"},{"type":"function","name":"updateRewards","inputs":[{"name":"newProverReward","type":"uint256","internalType":"uint256"},{"name":"newReleaserReward","type":"uint256","internalType":"uint256"}],"outputs":[],"stateMutability":"nonpayable"},{"type":"function","name":"validateBlockExists","inputs":[{"name":"blockHeight","type":"uint256","internalType":"uint256"}],"outputs":[],"stateMutability":"view"},{"type":"function","name":"verifierContract","inputs":[],"outputs":[{"name":"","type":"address","internalType":"contract ISP1Verifier"}],"stateMutability":"view"},{"type":"function","name":"withdrawLiquidity","inputs":[{"name":"globalVaultIndex","type":"uint256","internalType":"uint256"},{"name":"localVaultIndex","type":"uint256","internalType":"uint256"},{"name":"amountToWithdraw","type":"uint192","internalType":"uint192"},{"name":"expiredReservationIndexes","type":"uint256[]","internalType":"uint256[]"}],"outputs":[],"stateMutability":"nonpayable"},{"type":"event","name":"BlocksAdded","inputs":[{"name":"startBlockHeight","type":"uint256","indexed":false,"internalType":"uint256"},{"name":"count","type":"uint256","indexed":false,"internalType":"uint256"}],"anonymous":false},{"type":"event","name":"LiquidityReserved","inputs":[{"name":"reserver","type":"address","indexed":true,"internalType":"address"},{"name":"swapReservationIndex","type":"uint256","indexed":false,"internalType":"uint256"},{"name":"orderNonce","type":"bytes32","indexed":false,"internalType":"bytes32"}],"anonymous":false},{"type":"event","name":"OwnershipTransferred","inputs":[{"name":"user","type":"address","indexed":true,"internalType":"address"},{"name":"newOwner","type":"address","indexed":true,"internalType":"address"}],"anonymous":false},{"type":"event","name":"ProofProposed","inputs":[{"name":"prover","type":"address","indexed":true,"internalType":"address"},{"name":"swapReservationIndex","type":"uint256","indexed":false,"internalType":"uint256"},{"name":"orderNonce","type":"bytes32","indexed":false,"internalType":"bytes32"}],"anonymous":false},{"type":"event","name":"SwapComplete","inputs":[{"name":"swapReservationIndex","type":"uint256","indexed":false,"internalType":"uint256"},{"name":"orderNonce","type":"bytes32","indexed":false,"internalType":"bytes32"}],"anonymous":false},{"type":"error","name":"BlockDoesNotExist","inputs":[]},{"type":"error","name":"InvaidSameExchangeRatevaultIndex","inputs":[]},{"type":"error","name":"InvalidConfirmationBlock","inputs":[]},{"type":"error","name":"InvalidProposedBlockOverwrite","inputs":[]},{"type":"error","name":"InvalidSafeBlock","inputs":[]},{"type":"error","name":"InvalidUpdateWithActiveReservations","inputs":[]},{"type":"error","name":"InvalidVaultIndex","inputs":[]},{"type":"error","name":"InvalidVaultUpdate","inputs":[]},{"type":"error","name":"NotEnoughLiquidity","inputs":[]},{"type":"error","name":"NotVaultOwner","inputs":[]},{"type":"error","name":"OverwrittenProposedBlock","inputs":[]},{"type":"error","name":"ReservationNotExpired","inputs":[]},{"type":"error","name":"ReservationNotUnlocked","inputs":[]},{"type":"error","name":"StillInChallengePeriod","inputs":[]},{"type":"error","name":"WithdrawalAmountError","inputs":[]},{"type":"error","name":"exchangeRateZero","inputs":[]}],"bytecode":{"object":"0x61012060405260048054600560a91b61ffff60a01b19909116179055600a80546001600160a01b03191673f39fd6e51aad88f6f4ce6ab8827279cfffb922661790553480156200004e57600080fd5b50604051620040313803806200403183398101604081905262000071916200022a565b60018c9055600389905560008c81526020819052604081208c905583908d908b908e908e908690829080620000a688620001d8565b6001600160401b031681526020810191909152604090810160009081209290925560ff909216608052600480546001600160a01b0389166001600160a01b03199091168117909155915191955093507f8be0079c531659141344cd1fd0a4f28419497f9722a3daafe3b4186f6b6457e09250839150a3506101008290526001600160a01b0380891660e052871660a08190526040805163313ce56760e01b8152905163313ce567916004808201926020929091908290030181865afa15801562000174573d6000803e3d6000fd5b505050506040513d601f19601f820116820180604052508101906200019a9190620002ed565b60ff1660c052505050600592909255600655600a80546001600160a01b0319166001600160a01b03909216919091179055506200037d945050505050565b6000620001e86107e08362000312565b620001f4908362000347565b92915050565b6001600160a01b03811681146200021057600080fd5b50565b805160ff811681146200022557600080fd5b919050565b6000806000806000806000806000806000806101808d8f0312156200024e57600080fd5b8c519b5060208d01519a5060408d0151995060608d0151985060808d01516200027781620001fa565b60a08e01519098506200028a81620001fa565b8097505060c08d0151955060e08d015194506101008d0151620002ad81620001fa565b6101208e0151909450620002c181620001fa565b6101408e01519093509150620002db6101608e0162000213565b90509295989b509295989b509295989b565b6000602082840312156200030057600080fd5b6200030b8262000213565b9392505050565b60006001600160401b03838116806200033b57634e487b7160e01b600052601260045260246000fd5b92169190910692915050565b6001600160401b038281168282160390808211156200037657634e487b7160e01b600052601160045260246000fd5b5092915050565b60805160a05160c05160e05161010051613c1b62000416600039600081816103c001526115a001526000818161067e015261157301526000818161044e0152818161084d01526113dc0152600081816102cf01528181610f1e01528181610ffc015281816116d801528181611b7e01528181611f5b015281816120c1015281816121b901526124cb01526000612ac30152613c1b6000f3fe608060405234801561001057600080fd5b50600436106102955760003560e01c80637dce555011610167578063c3a079ed116100ce578063ea6fe03e11610087578063ea6fe03e146106eb578063eb6c7522146106f3578063ed8b2b32146106fd578063ee82ac5e14610710578063f2fde38b14610730578063fba781661461074357600080fd5b8063c3a079ed14610653578063c5fba0b81461065c578063cc2e602214610670578063cf69568814610679578063d34bb7c1146106a0578063d57763c3146106cb57600080fd5b80639a64279c116101205780639a64279c146105f85780639cc7eab9146106025780639cdb8e5a1461060b578063ad062e5514610626578063aeacb2e71461062e578063b01c27d11461064157600080fd5b80637dce55501461056857806389a11f7a146105705780638cc63cdd1461058e5780638da5cb5b146105b257806397e50818146105c557806398f9e757146105d857600080fd5b806351a7f1cd1161020b5780636512d057116101c45780636512d057146104e75780636b994abb146104fa5780636dcc17c81461052657806370c60e8f1461052f57806377891907146105425780637b93291f1461055557600080fd5b806351a7f1cd1461041057806356fe6f861461042357806358e2b676146104365780635b7f415c146104495780635f4d0610146104825780635f5d5b6a146104df57600080fd5b80631f741bba1161025d5780631f741bba14610325578063276d080e146103455780633d7b22b3146103bb5780634491ba54146103e2578063490d4c5f146103ea5780634eaa08a2146103fd57600080fd5b80630140e1831461029a5780630a7aa293146102af578063130d1392146102c257806313f66587146102ca578063163de0c51461030e575b600080fd5b6102ad6102a8366004612fb1565b61074c565b005b6102ad6102bd3660046130af565b6110c9565b6102ad61111c565b6102f17f000000000000000000000000000000000000000000000000000000000000000081565b6040516001600160a01b0390911681526020015b60405180910390f35b61031760015481565b604051908152602001610305565b6103386103333660046130e9565b6111af565b6040516103059190613233565b610358610353366004613246565b6111d8565b604051610305919081516001600160a01b031681526020808301519082015260408083015190820152606080830151908201526080808301516001600160401b03169082015260a0918201516001600160501b0319169181019190915260c00190565b6103177f000000000000000000000000000000000000000000000000000000000000000081565b6102ad61129b565b6102ad6103f8366004613246565b61132d565b6102ad61040b3660046132ce565b611376565b6102ad61041e36600461338b565b6117cf565b6102ad6104313660046133e8565b611bfc565b6102ad610444366004613448565b611cf1565b6104707f000000000000000000000000000000000000000000000000000000000000000081565b60405160ff9091168152602001610305565b610495610490366004613246565b611d3d565b604080516001600160a01b03909716875260208701959095529385019290925260608401526001600160401b031660808301526001600160501b03191660a082015260c001610305565b610317600281565b6103176104f5366004613246565b611d9d565b61050d610508366004613246565b611dcb565b6040516103059d9c9b9a9998979695949392919061349d565b61031760055481565b6102ad61053d366004613526565b611e61565b6102ad610550366004613246565b611fdc565b6102ad610563366004613575565b61227b565b600954610317565b61057961708081565b60405163ffffffff9091168152602001610305565b6004546105a290600160a01b900460ff1681565b6040519015158152602001610305565b6004546102f1906001600160a01b031681565b6102ad6105d33660046135a9565b6122ca565b6105eb6105e6366004613448565b6122ff565b6040516103059190613607565b6103176203345081565b61031760065481565b610613603281565b60405161ffff9091168152602001610305565b610470600a81565b6102ad61063c36600461362a565b612382565b600454600160a01b900460ff166105a2565b61057961025881565b60045461047090600160a81b900460ff1681565b61031760035481565b6102f17f000000000000000000000000000000000000000000000000000000000000000081565b6106b36106ae366004613657565b612502565b6040516001600160401b039091168152602001610305565b6106de6106d9366004613246565b612520565b60405161030591906136e6565b600854610317565b610317620668a081565b6102ad61070b366004613246565b61281b565b61031761071e366004613246565b60009081526020819052604090205490565b6102ad61073e366004613448565b61284a565b61031760025481565b600080600087516001600160401b0381111561076a5761076a612e74565b604051908082528060200260200182016040528015610793578160200160208202803683370190505b50905060005b87518110156108c457600060098a83815181106107b8576107b8613826565b6020026020010151815481106107d0576107d0613826565b600091825260209091206004600590920201015489516001600160401b03909116915089908390811061080557610805613826565b60200260200101516001600160c01b0316856108219190613852565b945060006108718a848151811061083a5761083a613826565b60200260200101516001600160c01b03167f00000000000000000000000000000000000000000000000000000000000000006128c0565b9050600061087f838361387b565b905061088b8187613852565b9550808585815181106108a0576108a0613826565b6001600160401b039290921660209283029190910190910152505050600101610799565b5060006108db670de0b6b3a764000061271061388f565b600454600160a81b900460ff166108fa670de0b6b3a76400008761388f565b610904919061388f565b61090e919061387b565b60055460065491925090610921876128fc565b61092a87612990565b6000805b8c51811015610ab157600286828151811061094b5761094b613826565b602002602001015160098f848151811061096757610967613826565b60200260200101518154811061097f5761097f613826565b600091825260209182902060046005909202010154604080516001600160401b03909416928401929092526001600160501b0319600160401b90910460501b16908201526060810184905260800160408051601f19818403018152908290526109e7916138a6565b602060405180830381855afa158015610a04573d6000803e3d6000fd5b5050506040513d601f19601f82011682018060405250810190610a2791906138c2565b915060098d8281518110610a3d57610a3d613826565b602002602001015181548110610a5557610a55613826565b9060005260206000209060050201600201548c8281518110610a7957610a79613826565b60200260200101516001600160c01b03161115610aa957604051634323a55560e01b815260040160405180910390fd5b60010161092e565b50600854604080516001600160a01b038d1660208083019190915242828401524660608301526080820185905260a0808301949094528251808303909401845260c09091019091528151910120885115610c3357600060088a600081518110610b1c57610b1c613826565b602002602001015181548110610b3457610b34613826565b60009182526020909120600c9091020180546001600160a01b0319163317815560018082018054929350909160ff191682800217905550600181018054610100600160a81b0319166101006001600160a01b038f160217905580546001600160c01b0316600160c01b4263ffffffff16026001600160e01b0316178155610bbb8486613852565b81600601819055508881600501819055508181600301819055508a81600401819055508d816009019080519060200190610bf6929190612d10565b508c81600a019080519060200190610c0f929190612d5b565b50600281018390558651610c2c90600b83019060208a0190612db0565b5050610e8b565b60408051610200810182523381526000602082018190524263ffffffff1692820192909252606081019190915260089060808101600181526020018d6001600160a01b031681526020018481526020018381526020018c81526020018a81526020018587610ca19190613852565b8152602001600081526020016000801b81526020018f81526020018e81526020018881525090806001815401808255809150506001900390600052602060002090600c020160009091909190915060008201518160000160006101000a8154816001600160a01b0302191690836001600160a01b0316021790555060208201518160000160146101000a81548163ffffffff021916908363ffffffff16021790555060408201518160000160186101000a81548163ffffffff021916908363ffffffff160217905550606082015181600001601c6101000a81548163ffffffff021916908363ffffffff16021790555060808201518160010160006101000a81548160ff02191690836004811115610dbb57610dbb613465565b021790555060a0820151600182018054610100600160a81b0319166101006001600160a01b03909316830217905560c0830151600283015560e08301516003830155820151600482015561012082015160058201556101408201516006820155610160820151600782015561018082015160088201556101a08201518051610e4d916009840191602090910190612d10565b506101c08201518051610e6a91600a840191602090910190612d5b565b506101e08201518051610e8791600b840191602090910190612db0565b5050505b60005b8d51811015610f13578c8181518110610ea957610ea9613826565b60200260200101516001600160c01b031660098f8381518110610ece57610ece613826565b602002602001015181548110610ee657610ee6613826565b90600052602060002090600502016002016000828254610f0691906138db565b9091555050600101610e8e565b506001600160a01b037f0000000000000000000000000000000000000000000000000000000000000000166323b872dd333086610f508a8a613852565b610f5a9190613852565b6040516001600160e01b031960e086901b1681526001600160a01b03938416600482015292909116602483015260448201526064016020604051808303816000875af1158015610fae573d6000803e3d6000fd5b505050506040513d601f19601f82011682018060405250810190610fd291906138ee565b50600a5460405163a9059cbb60e01b81526001600160a01b039182166004820152602481018790527f00000000000000000000000000000000000000000000000000000000000000009091169063a9059cbb906044016020604051808303816000875af1158015611047573d6000803e3d6000fd5b505050506040513d601f19601f8201168201806040525081019061106b91906138ee565b50337f5956135c9be999a50f7ff4ea49ddf1485bc321ab333dc7a0877633eeb4752893600161109960085490565b6110a391906138db565b60408051918252602082018590520160405180910390a250505050505050505050505050565b6004546001600160a01b031633146110fc5760405162461bcd60e51b81526004016110f390613910565b60405180910390fd5b6004805460ff909216600160a81b0260ff60a81b19909216919091179055565b6004546001600160a01b031633146111465760405162461bcd60e51b81526004016110f390613910565b600454600160a01b900460ff161561119a5760405162461bcd60e51b81526020600482015260176024820152761b995dc819195c1bdcda5d1cc8185c99481c185d5cd959604a1b60448201526064016110f3565b6004805460ff60a01b1916600160a01b179055565b6060816040516020016111c29190613936565b6040516020818303038152906040529050919050565b6040805160c081018252600080825260208201819052918101829052606081018290526080810182905260a08101919091526009828154811061121d5761121d613826565b60009182526020918290206040805160c081018252600590930290910180546001600160a01b03168352600181015493830193909352600283015490820152600382015460608201526004909101546001600160401b03811660808301526001600160501b0319600160401b90910460501b1660a082015292915050565b6004546001600160a01b031633146112c55760405162461bcd60e51b81526004016110f390613910565b600454600160a01b900460ff1661131e5760405162461bcd60e51b815260206004820152601b60248201527f6e6577206465706f7369747320617265206e6f7420706175736564000000000060448201526064016110f3565b6004805460ff60a01b19169055565b60006009828154811061134257611342613826565b6000918252602082206001600590920201908101829055600281019190915560040180546001600160f01b03191690555050565b60006008898154811061138b5761138b613826565b90600052602060002090600c020190506000805b600a83015481101561148557600061140084600a0183815481106113c5576113c5613826565b6000918252602090912001546001600160c01b03167f00000000000000000000000000000000000000000000000000000000000000006128c0565b90506000600985600901848154811061141b5761141b613826565b90600052602060002001548154811061143657611436613826565b600091825260208220600460059092020101546001600160401b0316915061145e8383612a9a565b905061146a8183612aad565b6114749086613852565b9450506001909201915061139f9050565b5060006115596040518061016001604052808c8152602001856002015481526020018560030154815260200185600901805490506001600160401b031681526020016114ee6114d38c612502565b6001600160401b031660009081526020819052604090205490565b815263ffffffff8c166020820181905260409091019061150e908c613a0b565b6001600160401b031681526020016115268b8b613a0b565b6001600160401b031681526020018881526020016115438b612502565b6001600160401b031681526020018790526111af565b60405163020a49e360e51b81529091506001600160a01b037f000000000000000000000000000000000000000000000000000000000000000016906341493c60906115cc907f00000000000000000000000000000000000000000000000000000000000000009085908990600401613a32565b60006040518083038186803b1580156115e457600080fd5b505afa1580156115f8573d6000803e3d6000fd5b5061162f9250505063ffffffff8a166001600160401b038a8116908a168989611621858f613a0b565b6001600160401b0316612ab9565b60018301805460ff1916600217905561164a61025842613a5d565b83546001600160e01b0316600160e01b63ffffffff928316021784556001600160401b03891660078501558590600190611686908c168b613a0b565b6116909190613a0b565b6001600160401b0316815181106116a9576116a9613826565b6020908102919091010151600884015560055460405163a9059cbb60e01b8152336004820152602481018290527f00000000000000000000000000000000000000000000000000000000000000006001600160a01b03169063a9059cbb906044016020604051808303816000875af1158015611729573d6000803e3d6000fd5b505050506040513d601f19601f8201168201806040525081019061174d91906138ee565b506000846006015412156117805783600601548460050160008282546117739190613852565b9091555050600060068501555b6003840154604080518e8152602081019290925233917f184abe81dc2f02915b1cd93143dc1987a077040f7de69181dd5eaf9b37bb715c910160405180910390a2505050505050505050505050565b600454600160a01b900460ff16156118235760405162461bcd60e51b81526020600482015260176024820152761b995dc819195c1bdcda5d1cc8185c99481c185d5cd959604a1b60448201526064016110f3565b836001600160401b031660000361184d57604051635c4ad48d60e11b815260040160405180910390fd5b33600090815260076020526040812054900361189b576040805160006020808301828152838501855283523382526007815292902081518051929391926118979284920190612d10565b5050505b80600019146119275760008190506000600982815481106118be576118be613826565b6000918252602090912060059091020160048101549091506001600160401b0387811691160361190757868160020160008282546118fc9190613852565b909155506119209050565b60405163927ce9e760e01b815260040160405180910390fd5b5050611b28565b81600019146119ce5760006009838154811061194557611945613826565b90600052602060002090600502019050806002015460001461197a5760405163721e09df60e01b815260040160405180910390fd5b80546001600160a01b031916331781556001810186905560028101869055600060038201556004018054605085901c600160401b026001600160f01b03199091166001600160401b03871617179055611b28565b6040805160c081018252338152602081018781529181018781526000606083018181526001600160401b03808a16608086019081526001600160501b03198a1660a08701908152600980546001810182559552955160059094027f6e1540171b6c0c960b71a7020d9f60077f6af931a8bbf590da0223dacf75c7af810180546001600160a01b03969096166001600160a01b03199096169590951790945595517f6e1540171b6c0c960b71a7020d9f60077f6af931a8bbf590da0223dacf75c7b084015592517f6e1540171b6c0c960b71a7020d9f60077f6af931a8bbf590da0223dacf75c7b1830155517f6e1540171b6c0c960b71a7020d9f60077f6af931a8bbf590da0223dacf75c7b282015592517f6e1540171b6c0c960b71a7020d9f60077f6af931a8bbf590da0223dacf75c7b39093018054925160501c600160401b026001600160f01b031990931693909116929092171790555b336000908152600760205260409020600954611b46906001906138db565b815460018101835560009283526020909220909101556040516323b872dd60e01b8152336004820152306024820152604481018690527f00000000000000000000000000000000000000000000000000000000000000006001600160a01b0316906323b872dd906064015b6020604051808303816000875af1158015611bd0573d6000803e3d6000fd5b505050506040513d601f19601f82011682018060405250810190611bf491906138ee565b505050505050565b336000908152600760205260409020805485919085908110611c2057611c20613826565b906000526020600020015414611c4957604051630e7fea9d60e01b815260040160405180910390fd5b816001600160401b0316600003611c7357604051636e5a187760e11b815260040160405180910390fd5b600060098581548110611c8857611c88613826565b90600052602060002090600502019050611ca182612990565b8060010154816002015414611cc9576040516391bc6cc360e01b815260040160405180910390fd5b600401805467ffffffffffffffff19166001600160401b039390931692909217909155505050565b6004546001600160a01b03163314611d1b5760405162461bcd60e51b81526004016110f390613910565b600a80546001600160a01b0319166001600160a01b0392909216919091179055565b60098181548110611d4d57600080fd5b6000918252602090912060059091020180546001820154600283015460038401546004909401546001600160a01b039093169450909290916001600160401b03811690600160401b900460501b86565b600060098281548110611db257611db2613826565b9060005260206000209060050201600201549050919050565b60088181548110611ddb57600080fd5b60009182526020909120600c90910201805460018201546002830154600384015460048501546005860154600687015460078801546008909801546001600160a01b038089169a5063ffffffff600160a01b8a0481169a600160c01b8b0482169a600160e01b90049091169860ff8116986101009091049092169691959194919391928d565b6004546001600160a01b03163314611e8b5760405162461bcd60e51b81526004016110f390613910565b6009548310611ed25760405162461bcd60e51b8152602060048201526013602482015272092dcecc2d8d2c840e6e8c2e4e840d2dcc8caf606b1b60448201526064016110f3565b611edb81612990565b600954821115611eeb5760095491505b825b82811015611fd657600060098281548110611f0a57611f0a613826565b906000526020600020906005020190506000816002015490506000811115611fcc5760006002830155815460405163a9059cbb60e01b81526001600160a01b039182166004820152602481018390527f00000000000000000000000000000000000000000000000000000000000000009091169063a9059cbb906044016020604051808303816000875af1158015611fa6573d6000803e3d6000fd5b505050506040513d601f19601f82011682018060405250810190611fca91906138ee565b505b5050600101611eed565b50505050565b600060088281548110611ff157611ff1613826565b60009182526020909120600c9091020190506002600182015460ff16600481111561201e5761201e613465565b1461203c5760405163b38c767b60e01b815260040160405180910390fd5b8054600160e01b900463ffffffff1642101561206b57604051632d5c37f560e21b815260040160405180910390fd5b60088101546007820154600090815260208190526040902054036120a25760405163c1f6fa5160e01b815260040160405180910390fd5b60065460405163a9059cbb60e01b8152336004820152602481018290527f00000000000000000000000000000000000000000000000000000000000000006001600160a01b03169063a9059cbb906044016020604051808303816000875af1158015612112573d6000803e3d6000fd5b505050506040513d601f19601f8201168201806040525081019061213691906138ee565b508082600601600082825461214b9190613a7a565b90915550506006820154600013156121825781600601548260050160008282546121759190613852565b9091555050600060068301555b6001820154600583015460405163a9059cbb60e01b81526101009092046001600160a01b03908116600484015260248301919091527f0000000000000000000000000000000000000000000000000000000000000000169063a9059cbb906044016020604051808303816000875af1158015612202573d6000803e3d6000fd5b505050506040513d601f19601f8201168201806040525081019061222691906138ee565b5060018201805460ff191660039081179091558201546040805185815260208101929092527f12245c00d428a4c558061d2f69fe154a203bd2fb4a65b6c3e73e95ccdc735d18910160405180910390a1505050565b806008838154811061228f5761228f613826565b90600052602060002090600c020160010160006101000a81548160ff021916908360048111156122c1576122c1613465565b02179055505050565b6004546001600160a01b031633146122f45760405162461bcd60e51b81526004016110f390613910565b600591909155600655565b6040805160208082018352606082526001600160a01b0384166000908152600782528390208351815480840282018601865292810183815293949093919284929184919084018282801561237257602002820191906000526020600020905b81548152602001906001019080831161235e575b5050505050815250509050919050565b3360009081526007602052604090208054859190859081106123a6576123a6613826565b9060005260206000200154146123cf57604051630e7fea9d60e01b815260040160405180910390fd5b6123d881612990565b60095484106123fa5760405163721e09df60e01b815260040160405180910390fd5b60006009858154811061240f5761240f613826565b90600052602060002090600502019050826001600160c01b03166000148061244357508060020154836001600160c01b0316115b156124615760405163b4e3d41360e01b815260040160405180910390fd5b826001600160c01b031681600201600082825461247e91906138db565b92505081905550826001600160c01b03168160030160008282546124a29190613852565b909155505060405163a9059cbb60e01b81523360048201526001600160c01b03841660248201527f00000000000000000000000000000000000000000000000000000000000000006001600160a01b03169063a9059cbb90604401611bb1565b60006125106107e083613a9a565b61251a9083613a0b565b92915050565b6125b2604080516102008101825260008082526020820181905291810182905260608101829052906080820190815260200160006001600160a01b03168152602001600080191681526020016000801916815260200160008152602001600081526020016000815260200160008152602001600080191681526020016060815260200160608152602001606081525090565b600882815481106125c5576125c5613826565b60009182526020918290206040805161020081018252600c90930290910180546001600160a01b038116845263ffffffff600160a01b8204811695850195909552600160c01b8104851692840192909252600160e01b90910490921660608201526001820154909190608083019060ff16600481111561264757612647613465565b600481111561265857612658613465565b81526020016001820160019054906101000a90046001600160a01b03166001600160a01b03166001600160a01b03168152602001600282015481526020016003820154815260200160048201548152602001600582015481526020016006820154815260200160078201548152602001600882015481526020016009820180548060200260200160405190810160405280929190818152602001828054801561272057602002820191906000526020600020905b81548152602001906001019080831161270c575b50505050508152602001600a820180548060200260200160405190810160405280929190818152602001828054801561278257602002820191906000526020600020905b81546001600160c01b03168152600190910190602001808311612764575b50505050508152602001600b820180548060200260200160405190810160405280929190818152602001828054801561237257602002820191906000526020600020906000905b82829054906101000a90046001600160401b03166001600160401b0316815260200190600801906020826007010492830192600103820291508084116127c95790505050505050815250509050919050565b6000818152602081905260409020546128475760405163fa4a5e4560e01b815260040160405180910390fd5b50565b6004546001600160a01b031633146128745760405162461bcd60e51b81526004016110f390613910565b600480546001600160a01b0319166001600160a01b03831690811790915560405133907f8be0079c531659141344cd1fd0a4f28419497f9722a3daafe3b4186f6b6457e090600090a350565b600060128260ff1610156128f5576128d9826012613ac0565b6128e490600a613bbd565b6128ee908461388f565b905061251a565b5090919050565b60005b815181101561298c5761708063ffffffff16600883838151811061292557612925613826565b60200260200101518154811061293d5761293d613826565b60009182526020909120600c909102015461296590600160c01b900463ffffffff16426138db565b1015612984576040516326349d6b60e01b815260040160405180910390fd5b6001016128ff565b5050565b60005b815181101561298c576129a5826128fc565b600060088383815181106129bb576129bb613826565b6020026020010151815481106129d3576129d3613826565b90600052602060002090600c0201905060005b6009820154811015612a835760006009836009018381548110612a0b57612a0b613826565b906000526020600020015481548110612a2657612a26613826565b9060005260206000209060050201905082600a018281548110612a4b57612a4b613826565b60009182526020822001546002830180546001600160c01b03909216929091612a75908490613852565b9091555050506001016129e6565b506001908101805460ff1916600417905501612993565b6000612aa6828461387b565b9392505050565b6000612aa6828461388f565b60015460035460ff7f000000000000000000000000000000000000000000000000000000000000000016612aed88886138db565b1015612b485760008681526020819052604090205484518590612b12906001906138db565b81518110612b2257612b22613826565b602002602001015114612b48576040516341305f6360e01b815260040160405180910390fd5b81881115612b695760405163575f3da360e01b815260040160405180910390fd5b838381518110612b7b57612b7b613826565b60200260200101516000808981526020019081526020016000205403612ba2575050611bf4565b60008781526020819052604090205415801590612bbf5750848110155b15612bdd576040516371e98f3d60e11b815260040160405180910390fd5b81871115612c8157818803612c2157838381518110612bfe57612bfe613826565b602002602001015160008089815260200190815260200160002081905550612cba565b81881015612c7c57875b878111612c7a5784612c3d8a836138db565b81518110612c4d57612c4d613826565b60209081029190910181015160008381529182905260409091205580612c7281613bcc565b915050612c2b565b505b612cba565b81871015612cba57838381518110612c9b57612c9b613826565b6020026020010151600080898152602001908152602001600020819055505b600154871115612cca5760018790555b8351604080518a815260208101929092527fb68477c768bbb33b4f238a3dfd17c33c499268c59cd042b7936bbc23dc2bdd34910160405180910390a15050505050505050565b828054828255906000526020600020908101928215612d4b579160200282015b82811115612d4b578251825591602001919060010190612d30565b50612d57929150612e5f565b5090565b828054828255906000526020600020908101928215612d4b579160200282015b82811115612d4b57825182546001600160c01b0319166001600160c01b03909116178255602090920191600190910190612d7b565b82805482825590600052602060002090600301600490048101928215612d4b5791602002820160005b83821115612e2357835183826101000a8154816001600160401b0302191690836001600160401b031602179055509260200192600801602081600701049283019260010302612dd9565b8015612e565782816101000a8154906001600160401b030219169055600801602081600701049283019260010302612e23565b5050612d579291505b5b80821115612d575760008155600101612e60565b634e487b7160e01b600052604160045260246000fd5b60405161016081016001600160401b0381118282101715612ead57612ead612e74565b60405290565b604051601f8201601f191681016001600160401b0381118282101715612edb57612edb612e74565b604052919050565b60006001600160401b03821115612efc57612efc612e74565b5060051b60200190565b600082601f830112612f1757600080fd5b81356020612f2c612f2783612ee3565b612eb3565b8083825260208201915060208460051b870101935086841115612f4e57600080fd5b602086015b84811015612f6a5780358352918301918301612f53565b509695505050505050565b80356001600160c01b0381168114612f8c57600080fd5b919050565b6001600160a01b038116811461284757600080fd5b8035612f8c81612f91565b600080600080600060a08688031215612fc957600080fd5b85356001600160401b0380821115612fe057600080fd5b612fec89838a01612f06565b965060209150818801358181111561300357600080fd5b8801601f81018a1361301457600080fd5b8035613022612f2782612ee3565b81815260059190911b8201840190848101908c83111561304157600080fd5b928501925b828410156130665761305784612f75565b82529285019290850190613046565b98506130789250505060408901612fa6565b945060608801359350608088013591508082111561309557600080fd5b506130a288828901612f06565b9150509295509295909350565b6000602082840312156130c157600080fd5b813560ff81168114612aa657600080fd5b80356001600160401b0381168114612f8c57600080fd5b6000602082840312156130fb57600080fd5b81356001600160401b038082111561311257600080fd5b90830190610160828603121561312757600080fd5b61312f612e8a565b823581526020830135602082015260408301356040820152613153606084016130d2565b60608201526080830135608082015261316e60a084016130d2565b60a082015261317f60c084016130d2565b60c082015261319060e084016130d2565b60e082015261010083810135908201526101206131ae8185016130d2565b9082015261014083810135838111156131c657600080fd5b6131d288828701612f06565b918301919091525095945050505050565b60005b838110156131fe5781810151838201526020016131e6565b50506000910152565b6000815180845261321f8160208601602086016131e3565b601f01601f19169290920160200192915050565b602081526000612aa66020830184613207565b60006020828403121561325857600080fd5b5035919050565b600082601f83011261327057600080fd5b81356001600160401b0381111561328957613289612e74565b61329c601f8201601f1916602001612eb3565b8181528460208386010111156132b157600080fd5b816020850160208301376000918101602001919091529392505050565b600080600080600080600080610100898b0312156132eb57600080fd5b8835975060208901359650604089013563ffffffff8116811461330d57600080fd5b955061331b60608a016130d2565b945061332960808a016130d2565b935060a0890135925060c08901356001600160401b038082111561334c57600080fd5b6133588c838d01612f06565b935060e08b013591508082111561336e57600080fd5b5061337b8b828c0161325f565b9150509295985092959890939650565b600080600080600060a086880312156133a357600080fd5b853594506133b3602087016130d2565b935060408601356001600160501b0319811681146133d057600080fd5b94979396509394606081013594506080013592915050565b600080600080608085870312156133fe57600080fd5b8435935060208501359250613415604086016130d2565b915060608501356001600160401b0381111561343057600080fd5b61343c87828801612f06565b91505092959194509250565b60006020828403121561345a57600080fd5b8135612aa681612f91565b634e487b7160e01b600052602160045260246000fd5b6005811061349957634e487b7160e01b600052602160045260246000fd5b9052565b6001600160a01b038e16815263ffffffff8d811660208301528c811660408301528b1660608201526101a081016134d7608083018c61347b565b6001600160a01b039990991660a082015260c081019790975260e08701959095526101008601939093526101208501919091526101408401526101608301526101809091015295945050505050565b60008060006060848603121561353b57600080fd5b833592506020840135915060408401356001600160401b0381111561355f57600080fd5b61356b86828701612f06565b9150509250925092565b6000806040838503121561358857600080fd5b8235915060208301356005811061359e57600080fd5b809150509250929050565b600080604083850312156135bc57600080fd5b50508035926020909101359150565b60008151808452602080850194506020840160005b838110156135fc578151875295820195908201906001016135e0565b509495945050505050565b602081526000825160208084015261362260408401826135cb565b949350505050565b6000806000806080858703121561364057600080fd5b843593506020850135925061341560408601612f75565b60006020828403121561366957600080fd5b612aa6826130d2565b60008151808452602080850194506020840160005b838110156135fc5781516001600160c01b031687529582019590820190600101613687565b60008151808452602080850194506020840160005b838110156135fc5781516001600160401b0316875295820195908201906001016136c1565b602081526137006020820183516001600160a01b03169052565b60006020830151613719604084018263ffffffff169052565b50604083015163ffffffff8116606084015250606083015163ffffffff8116608084015250608083015161375060a084018261347b565b5060a08301516001600160a01b03811660c08401525060c083015160e08381019190915283015161010080840191909152830151610120808401919091528301516101408084019190915283015161016080840191909152830151610180808401919091528301516101a0808401919091528301516102006101c08085018290526137df6102208601846135cb565b9250808601519050601f196101e08187860301818801526138008584613672565b90880151878203909201848801529350905061381c83826136ac565b9695505050505050565b634e487b7160e01b600052603260045260246000fd5b634e487b7160e01b600052601160045260246000fd5b8082018082111561251a5761251a61383c565b634e487b7160e01b600052601260045260246000fd5b60008261388a5761388a613865565b500490565b808202811582820484141761251a5761251a61383c565b600082516138b88184602087016131e3565b9190910192915050565b6000602082840312156138d457600080fd5b5051919050565b8181038181111561251a5761251a61383c565b60006020828403121561390057600080fd5b81518015158114612aa657600080fd5b6020808252600c908201526b15539055551213d49256915160a21b604082015260600190565b602081528151602082015260208201516040820152604082015160608201526000606083015161397160808401826001600160401b03169052565b50608083015160a083015260a083015161399660c08401826001600160401b03169052565b5060c08301516001600160401b03811660e08401525060e08301516101006139c8818501836001600160401b03169052565b8401516101208481019190915284015190506101406139f1818501836001600160401b03169052565b8401516101608481015290506136226101808401826135cb565b6001600160401b03828116828216039080821115613a2b57613a2b61383c565b5092915050565b838152606060208201526000613a4b6060830185613207565b828103604084015261381c8185613207565b63ffffffff818116838216019080821115613a2b57613a2b61383c565b8181036000831280158383131683831282161715613a2b57613a2b61383c565b60006001600160401b0380841680613ab457613ab4613865565b92169190910692915050565b60ff828116828216039081111561251a5761251a61383c565b600181815b80851115613b14578160001904821115613afa57613afa61383c565b80851615613b0757918102915b93841c9390800290613ade565b509250929050565b600082613b2b5750600161251a565b81613b385750600061251a565b8160018114613b4e5760028114613b5857613b74565b600191505061251a565b60ff841115613b6957613b6961383c565b50506001821b61251a565b5060208310610133831016604e8410600b8410161715613b97575081810a61251a565b613ba18383613ad9565b8060001904821115613bb557613bb561383c565b029392505050565b6000612aa660ff841683613b1c565b600060018201613bde57613bde61383c565b506001019056fea264697066735822122043dcc3a5d3bf4e3629b5925afed5a250ba1398c31a8406eff562fee56ea1013764736f6c63430008180033","linkReferences":{}},"methodIdentifiers":{"CHALLENGE_PERIOD()":"c3a079ed","DEPOSIT_TOKEN()":"13f66587","MAX_DEPOSIT_OUTPUTS()":"9cdb8e5a","MIN_ORDER_GAS_MULTIPLIER()":"5f5d5b6a","PROOF_GAS_COST()":"eb6c7522","RELEASE_GAS_COST()":"9a64279c","RESERVATION_LOCKUP_PERIOD()":"89a11f7a","SAMPLING_SIZE()":"ad062e55","TOKEN_DECIMALS()":"5b7f415c","buildProofPublicInputs((bytes32,bytes32,bytes32,uint64,bytes32,uint64,uint64,uint64,uint256,uint64,bytes32[]))":"1f741bba","calculateRetargetHeight(uint64)":"d34bb7c1","circuitVerificationKey()":"3d7b22b3","currentChainwork()":"cc2e6022","currentConfirmationHeight()":"fba78166","currentHeight()":"163de0c5","depositLiquidity(uint256,uint64,bytes22,int256,int256)":"51a7f1cd","depositVaults(uint256)":"5f4d0610","emptyDepositVault(uint256)":"490d4c5f","getAreDepositsPaused()":"b01c27d1","getBlockHash(uint256)":"ee82ac5e","getDepositVault(uint256)":"276d080e","getDepositVaultUnreservedBalance(uint256)":"6512d057","getDepositVaultsLength()":"7dce5550","getLiquidityProvider(address)":"98f9e757","getReservation(uint256)":"d57763c3","getReservationLength()":"ea6fe03e","isDepositNewLiquidityPaused()":"8cc63cdd","owner()":"8da5cb5b","pauseDepositNewLiquidity()":"130d1392","proposeTransactionProof(uint256,bytes32,uint32,uint64,uint64,uint256,bytes32[],bytes)":"4eaa08a2","protocolFeeBP()":"c5fba0b8","proverReward()":"6dcc17c8","refundAllLPs(uint256,uint256,uint256[])":"70c60e8f","releaseLiquidity(uint256)":"77891907","releaserReward()":"9cc7eab9","reserveLiquidity(uint256[],uint192[],address,uint256,uint256[])":"0140e183","setSwapReservationState(uint256,uint8)":"7b93291f","swapReservations(uint256)":"6b994abb","transferOwnership(address)":"f2fde38b","unpauseDepositNewLiquidity()":"4491ba54","updateExchangeRate(uint256,uint256,uint64,uint256[])":"56fe6f86","updateProtocolAddress(address)":"58e2b676","updateProtocolFee(uint8)":"0a7aa293","updateRewards(uint256,uint256)":"97e50818","validateBlockExists(uint256)":"ed8b2b32","verifierContract()":"cf695688","withdrawLiquidity(uint256,uint256,uint192,uint256[])":"aeacb2e7"},"storageLayout":{"storage":[{"astId":47958,"contract":"src/RiftExchange.sol:RiftExchange","label":"blockchain","offset":0,"slot":"0","type":"t_mapping(t_uint256,t_bytes32)"},{"astId":47960,"contract":"src/RiftExchange.sol:RiftExchange","label":"currentHeight","offset":0,"slot":"1","type":"t_uint256"},{"astId":47962,"contract":"src/RiftExchange.sol:RiftExchange","label":"currentConfirmationHeight","offset":0,"slot":"2","type":"t_uint256"},{"astId":47964,"contract":"src/RiftExchange.sol:RiftExchange","label":"currentChainwork","offset":0,"slot":"3","type":"t_uint256"},{"astId":46637,"contract":"src/RiftExchange.sol:RiftExchange","label":"owner","offset":0,"slot":"4","type":"t_address"},{"astId":48361,"contract":"src/RiftExchange.sol:RiftExchange","label":"isDepositNewLiquidityPaused","offset":20,"slot":"4","type":"t_bool"},{"astId":48372,"contract":"src/RiftExchange.sol:RiftExchange","label":"protocolFeeBP","offset":21,"slot":"4","type":"t_uint8"},{"astId":48374,"contract":"src/RiftExchange.sol:RiftExchange","label":"proverReward","offset":0,"slot":"5","type":"t_uint256"},{"astId":48376,"contract":"src/RiftExchange.sol:RiftExchange","label":"releaserReward","offset":0,"slot":"6","type":"t_uint256"},{"astId":48468,"contract":"src/RiftExchange.sol:RiftExchange","label":"liquidityProviders","offset":0,"slot":"7","type":"t_mapping(t_address,t_struct(LiquidityProvider)48407_storage)"},{"astId":48472,"contract":"src/RiftExchange.sol:RiftExchange","label":"swapReservations","offset":0,"slot":"8","type":"t_array(t_struct(SwapReservation)48463_storage)dyn_storage"},{"astId":48476,"contract":"src/RiftExchange.sol:RiftExchange","label":"depositVaults","offset":0,"slot":"9","type":"t_array(t_struct(DepositVault)48420_storage)dyn_storage"},{"astId":48487,"contract":"src/RiftExchange.sol:RiftExchange","label":"protocolAddress","offset":0,"slot":"10","type":"t_address_payable"}],"types":{"t_address":{"encoding":"inplace","label":"address","numberOfBytes":"20"},"t_address_payable":{"encoding":"inplace","label":"address payable","numberOfBytes":"20"},"t_array(t_struct(DepositVault)48420_storage)dyn_storage":{"encoding":"dynamic_array","label":"struct RiftExchange.DepositVault[]","numberOfBytes":"32","base":"t_struct(DepositVault)48420_storage"},"t_array(t_struct(SwapReservation)48463_storage)dyn_storage":{"encoding":"dynamic_array","label":"struct RiftExchange.SwapReservation[]","numberOfBytes":"32","base":"t_struct(SwapReservation)48463_storage"},"t_array(t_uint192)dyn_storage":{"encoding":"dynamic_array","label":"uint192[]","numberOfBytes":"32","base":"t_uint192"},"t_array(t_uint256)dyn_storage":{"encoding":"dynamic_array","label":"uint256[]","numberOfBytes":"32","base":"t_uint256"},"t_array(t_uint64)dyn_storage":{"encoding":"dynamic_array","label":"uint64[]","numberOfBytes":"32","base":"t_uint64"},"t_bool":{"encoding":"inplace","label":"bool","numberOfBytes":"1"},"t_bytes22":{"encoding":"inplace","label":"bytes22","numberOfBytes":"22"},"t_bytes32":{"encoding":"inplace","label":"bytes32","numberOfBytes":"32"},"t_enum(ReservationState)48426":{"encoding":"inplace","label":"enum RiftExchange.ReservationState","numberOfBytes":"1"},"t_int256":{"encoding":"inplace","label":"int256","numberOfBytes":"32"},"t_mapping(t_address,t_struct(LiquidityProvider)48407_storage)":{"encoding":"mapping","key":"t_address","label":"mapping(address => struct RiftExchange.LiquidityProvider)","numberOfBytes":"32","value":"t_struct(LiquidityProvider)48407_storage"},"t_mapping(t_uint256,t_bytes32)":{"encoding":"mapping","key":"t_uint256","label":"mapping(uint256 => bytes32)","numberOfBytes":"32","value":"t_bytes32"},"t_struct(DepositVault)48420_storage":{"encoding":"inplace","label":"struct RiftExchange.DepositVault","numberOfBytes":"160","members":[{"astId":48409,"contract":"src/RiftExchange.sol:RiftExchange","label":"owner","offset":0,"slot":"0","type":"t_address"},{"astId":48411,"contract":"src/RiftExchange.sol:RiftExchange","label":"initialBalance","offset":0,"slot":"1","type":"t_uint256"},{"astId":48413,"contract":"src/RiftExchange.sol:RiftExchange","label":"unreservedBalance","offset":0,"slot":"2","type":"t_uint256"},{"astId":48415,"contract":"src/RiftExchange.sol:RiftExchange","label":"withdrawnAmount","offset":0,"slot":"3","type":"t_uint256"},{"astId":48417,"contract":"src/RiftExchange.sol:RiftExchange","label":"exchangeRate","offset":0,"slot":"4","type":"t_uint64"},{"astId":48419,"contract":"src/RiftExchange.sol:RiftExchange","label":"btcPayoutLockingScript","offset":8,"slot":"4","type":"t_bytes22"}]},"t_struct(LiquidityProvider)48407_storage":{"encoding":"inplace","label":"struct RiftExchange.LiquidityProvider","numberOfBytes":"32","members":[{"astId":48406,"contract":"src/RiftExchange.sol:RiftExchange","label":"depositVaultIndexes","offset":0,"slot":"0","type":"t_array(t_uint256)dyn_storage"}]},"t_struct(SwapReservation)48463_storage":{"encoding":"inplace","label":"struct RiftExchange.SwapReservation","numberOfBytes":"384","members":[{"astId":48428,"contract":"src/RiftExchange.sol:RiftExchange","label":"owner","offset":0,"slot":"0","type":"t_address"},{"astId":48430,"contract":"src/RiftExchange.sol:RiftExchange","label":"confirmationBlockHeight","offset":20,"slot":"0","type":"t_uint32"},{"astId":48432,"contract":"src/RiftExchange.sol:RiftExchange","label":"reservationTimestamp","offset":24,"slot":"0","type":"t_uint32"},{"astId":48434,"contract":"src/RiftExchange.sol:RiftExchange","label":"unlockTimestamp","offset":28,"slot":"0","type":"t_uint32"},{"astId":48437,"contract":"src/RiftExchange.sol:RiftExchange","label":"state","offset":0,"slot":"1","type":"t_enum(ReservationState)48426"},{"astId":48439,"contract":"src/RiftExchange.sol:RiftExchange","label":"ethPayoutAddress","offset":1,"slot":"1","type":"t_address"},{"astId":48441,"contract":"src/RiftExchange.sol:RiftExchange","label":"lpReservationHash","offset":0,"slot":"2","type":"t_bytes32"},{"astId":48443,"contract":"src/RiftExchange.sol:RiftExchange","label":"nonce","offset":0,"slot":"3","type":"t_bytes32"},{"astId":48445,"contract":"src/RiftExchange.sol:RiftExchange","label":"totalSatsInputInlcudingProxyFee","offset":0,"slot":"4","type":"t_uint256"},{"astId":48447,"contract":"src/RiftExchange.sol:RiftExchange","label":"totalSwapOutputAmount","offset":0,"slot":"5","type":"t_uint256"},{"astId":48449,"contract":"src/RiftExchange.sol:RiftExchange","label":"prepaidFeeAmount","offset":0,"slot":"6","type":"t_int256"},{"astId":48451,"contract":"src/RiftExchange.sol:RiftExchange","label":"proposedBlockHeight","offset":0,"slot":"7","type":"t_uint256"},{"astId":48453,"contract":"src/RiftExchange.sol:RiftExchange","label":"proposedBlockHash","offset":0,"slot":"8","type":"t_bytes32"},{"astId":48456,"contract":"src/RiftExchange.sol:RiftExchange","label":"vaultIndexes","offset":0,"slot":"9","type":"t_array(t_uint256)dyn_storage"},{"astId":48459,"contract":"src/RiftExchange.sol:RiftExchange","label":"amountsToReserve","offset":0,"slot":"10","type":"t_array(t_uint192)dyn_storage"},{"astId":48462,"contract":"src/RiftExchange.sol:RiftExchange","label":"expectedSatsOutput","offset":0,"slot":"11","type":"t_array(t_uint64)dyn_storage"}]},"t_uint192":{"encoding":"inplace","label":"uint192","numberOfBytes":"24"},"t_uint256":{"encoding":"inplace","label":"uint256","numberOfBytes":"32"},"t_uint32":{"encoding":"inplace","label":"uint32","numberOfBytes":"4"},"t_uint64":{"encoding":"inplace","label":"uint64","numberOfBytes":"8"},"t_uint8":{"encoding":"inplace","label":"uint8","numberOfBytes":"1"}}},"id":31}