{"abi":[{"type":"constructor","inputs":[],"stateMutability":"nonpayable"},{"type":"function","name":"UPGRADE_INTERFACE_VERSION","inputs":[],"outputs":[{"name":"","type":"string","internalType":"string"}],"stateMutability":"view"},{"type":"function","name":"addPermissionedHypernode","inputs":[{"name":"hypernode","type":"address","internalType":"address"}],"outputs":[],"stateMutability":"nonpayable"},{"type":"function","name":"bpScale","inputs":[],"outputs":[{"name":"","type":"uint256","internalType":"uint256"}],"stateMutability":"view"},{"type":"function","name":"buildPublicInputs","inputs":[{"name":"swapReservationIndex","type":"uint256","internalType":"uint256"},{"name":"bitcoinTxId","type":"bytes32","internalType":"bytes32"},{"name":"merkleRoot","type":"bytes32","internalType":"bytes32"},{"name":"safeBlockHeight","type":"uint32","internalType":"uint32"},{"name":"proposedBlockHeight","type":"uint64","internalType":"uint64"},{"name":"confirmationBlockHeight","type":"uint64","internalType":"uint64"},{"name":"blockHashes","type":"bytes32[]","internalType":"bytes32[]"},{"name":"blockChainworks","type":"uint256[]","internalType":"uint256[]"},{"name":"isTransactionProof","type":"bool","internalType":"bool"}],"outputs":[{"name":"","type":"tuple","internalType":"struct RiftExchange.ProofPublicInputs","components":[{"name":"natural_txid","type":"bytes32","internalType":"bytes32"},{"name":"merkle_root","type":"bytes32","internalType":"bytes32"},{"name":"lp_reservation_hash","type":"bytes32","internalType":"bytes32"},{"name":"order_nonce","type":"bytes32","internalType":"bytes32"},{"name":"lp_count","type":"uint64","internalType":"uint64"},{"name":"retarget_block_hash","type":"bytes32","internalType":"bytes32"},{"name":"safe_block_height","type":"uint64","internalType":"uint64"},{"name":"safe_block_height_delta","type":"uint64","internalType":"uint64"},{"name":"confirmation_block_height_delta","type":"uint64","internalType":"uint64"},{"name":"block_hashes","type":"bytes32[]","internalType":"bytes32[]"},{"name":"block_chainworks","type":"uint256[]","internalType":"uint256[]"},{"name":"is_transaction_proof","type":"bool","internalType":"bool"}]}],"stateMutability":"view"},{"type":"function","name":"calculateRetargetHeight","inputs":[{"name":"blockHeight","type":"uint256","internalType":"uint256"}],"outputs":[{"name":"","type":"uint256","internalType":"uint256"}],"stateMutability":"pure"},{"type":"function","name":"challengePeriod","inputs":[],"outputs":[{"name":"","type":"uint32","internalType":"uint32"}],"stateMutability":"view"},{"type":"function","name":"circuitVerificationKey","inputs":[],"outputs":[{"name":"","type":"bytes32","internalType":"bytes32"}],"stateMutability":"view"},{"type":"function","name":"currentHeight","inputs":[],"outputs":[{"name":"","type":"uint256","internalType":"uint256"}],"stateMutability":"view"},{"type":"function","name":"depositLiquidity","inputs":[{"name":"depositAmount","type":"uint256","internalType":"uint256"},{"name":"exchangeRate","type":"uint64","internalType":"uint64"},{"name":"btcPayoutLockingScript","type":"bytes22","internalType":"bytes22"}],"outputs":[],"stateMutability":"nonpayable"},{"type":"function","name":"depositToken","inputs":[],"outputs":[{"name":"","type":"address","internalType":"contract IERC20"}],"stateMutability":"view"},{"type":"function","name":"depositVaults","inputs":[{"name":"","type":"uint256","internalType":"uint256"}],"outputs":[{"name":"owner","type":"address","internalType":"address"},{"name":"depositTimestamp","type":"uint64","internalType":"uint64"},{"name":"initialBalance","type":"uint256","internalType":"uint256"},{"name":"unreservedBalance","type":"uint256","internalType":"uint256"},{"name":"withdrawnAmount","type":"uint256","internalType":"uint256"},{"name":"exchangeRate","type":"uint64","internalType":"uint64"},{"name":"btcPayoutLockingScript","type":"bytes22","internalType":"bytes22"}],"stateMutability":"view"},{"type":"function","name":"getAreDepositsPaused","inputs":[],"outputs":[{"name":"","type":"bool","internalType":"bool"}],"stateMutability":"view"},{"type":"function","name":"getBlockHash","inputs":[{"name":"blockHeight","type":"uint256","internalType":"uint256"}],"outputs":[{"name":"","type":"bytes32","internalType":"bytes32"}],"stateMutability":"view"},{"type":"function","name":"getChainwork","inputs":[{"name":"blockHeight","type":"uint256","internalType":"uint256"}],"outputs":[{"name":"","type":"uint256","internalType":"uint256"}],"stateMutability":"view"},{"type":"function","name":"getDepositVault","inputs":[{"name":"depositIndex","type":"uint256","internalType":"uint256"}],"outputs":[{"name":"","type":"tuple","internalType":"struct RiftExchange.DepositVault","components":[{"name":"owner","type":"address","internalType":"address"},{"name":"depositTimestamp","type":"uint64","internalType":"uint64"},{"name":"initialBalance","type":"uint256","internalType":"uint256"},{"name":"unreservedBalance","type":"uint256","internalType":"uint256"},{"name":"withdrawnAmount","type":"uint256","internalType":"uint256"},{"name":"exchangeRate","type":"uint64","internalType":"uint64"},{"name":"btcPayoutLockingScript","type":"bytes22","internalType":"bytes22"}]}],"stateMutability":"view"},{"type":"function","name":"getDepositVaultUnreservedBalance","inputs":[{"name":"depositIndex","type":"uint256","internalType":"uint256"}],"outputs":[{"name":"","type":"uint256","internalType":"uint256"}],"stateMutability":"view"},{"type":"function","name":"getDepositVaultsLength","inputs":[],"outputs":[{"name":"","type":"uint256","internalType":"uint256"}],"stateMutability":"view"},{"type":"function","name":"getLiquidityProvider","inputs":[{"name":"lpAddress","type":"address","internalType":"address"}],"outputs":[{"name":"","type":"tuple","internalType":"struct RiftExchange.LiquidityProvider","components":[{"name":"depositVaultIndexes","type":"uint256[]","internalType":"uint256[]"}]}],"stateMutability":"view"},{"type":"function","name":"getReservation","inputs":[{"name":"reservationIndex","type":"uint256","internalType":"uint256"}],"outputs":[{"name":"","type":"tuple","internalType":"struct RiftExchange.SwapReservation","components":[{"name":"owner","type":"address","internalType":"address"},{"name":"confirmationBlockHeight","type":"uint32","internalType":"uint32"},{"name":"reservationTimestamp","type":"uint64","internalType":"uint64"},{"name":"liquidityUnlockedTimestamp","type":"uint64","internalType":"uint64"},{"name":"state","type":"uint8","internalType":"enum RiftExchange.ReservationState"},{"name":"ethPayoutAddress","type":"address","internalType":"address"},{"name":"lpReservationHash","type":"bytes32","internalType":"bytes32"},{"name":"nonce","type":"bytes32","internalType":"bytes32"},{"name":"totalSatsInputIncludingProxyFee","type":"uint256","internalType":"uint256"},{"name":"totalSwapOutputAmount","type":"uint256","internalType":"uint256"},{"name":"proposedBlockHeight","type":"uint64","internalType":"uint64"},{"name":"proposedBlockHash","type":"bytes32","internalType":"bytes32"},{"name":"vaultIndexes","type":"uint256[]","internalType":"uint256[]"},{"name":"amountsToReserve","type":"uint192[]","internalType":"uint192[]"},{"name":"expectedSatsOutput","type":"uint64[]","internalType":"uint64[]"}]}],"stateMutability":"view"},{"type":"function","name":"getReservationLength","inputs":[],"outputs":[{"name":"","type":"uint256","internalType":"uint256"}],"stateMutability":"view"},{"type":"function","name":"initialize","inputs":[{"name":"initialCheckpointHeight","type":"uint256","internalType":"uint256"},{"name":"initialBlockHash","type":"bytes32","internalType":"bytes32"},{"name":"initialRetargetBlockHash","type":"bytes32","internalType":"bytes32"},{"name":"initialChainwork","type":"uint256","internalType":"uint256"},{"name":"verifierContractAddress","type":"address","internalType":"address"},{"name":"depositTokenAddress","type":"address","internalType":"address"},{"name":"initialFeeRouterAddress","type":"address","internalType":"address payable"},{"name":"initialOwner","type":"address","internalType":"address"},{"name":"verificationKeyHash","type":"bytes32","internalType":"bytes32"},{"name":"initialPermissionedHypernodes","type":"address[]","internalType":"address[]"}],"outputs":[],"stateMutability":"nonpayable"},{"type":"function","name":"isDepositNewLiquidityPaused","inputs":[],"outputs":[{"name":"","type":"bool","internalType":"bool"}],"stateMutability":"view"},{"type":"function","name":"owner","inputs":[],"outputs":[{"name":"","type":"address","internalType":"address"}],"stateMutability":"view"},{"type":"function","name":"permissionedHypernodes","inputs":[{"name":"","type":"address","internalType":"address"}],"outputs":[{"name":"","type":"bool","internalType":"bool"}],"stateMutability":"view"},{"type":"function","name":"protocolFeeBP","inputs":[],"outputs":[{"name":"","type":"uint8","internalType":"uint8"}],"stateMutability":"view"},{"type":"function","name":"proveBlocks","inputs":[{"name":"safeBlockHeight","type":"uint32","internalType":"uint32"},{"name":"proposedBlockHeight","type":"uint64","internalType":"uint64"},{"name":"confirmationBlockHeight","type":"uint64","internalType":"uint64"},{"name":"blockHashes","type":"bytes32[]","internalType":"bytes32[]"},{"name":"blockChainworks","type":"uint256[]","internalType":"uint256[]"},{"name":"proof","type":"bytes","internalType":"bytes"}],"outputs":[],"stateMutability":"nonpayable"},{"type":"function","name":"proxiableUUID","inputs":[],"outputs":[{"name":"","type":"bytes32","internalType":"bytes32"}],"stateMutability":"view"},{"type":"function","name":"releaseLiquidity","inputs":[{"name":"swapReservationIndex","type":"uint256","internalType":"uint256"}],"outputs":[],"stateMutability":"nonpayable"},{"type":"function","name":"removePermissionedHypernode","inputs":[{"name":"hypernode","type":"address","internalType":"address"}],"outputs":[],"stateMutability":"nonpayable"},{"type":"function","name":"renounceOwnership","inputs":[],"outputs":[],"stateMutability":"nonpayable"},{"type":"function","name":"reservationLockupPeriod","inputs":[],"outputs":[{"name":"","type":"uint32","internalType":"uint32"}],"stateMutability":"view"},{"type":"function","name":"reserveLiquidity","inputs":[{"name":"reservationOwner","type":"address","internalType":"address"},{"name":"vaultIndexesToReserve","type":"uint256[]","internalType":"uint256[]"},{"name":"amountsToReserve","type":"uint192[]","internalType":"uint192[]"},{"name":"ethPayoutAddress","type":"address","internalType":"address"},{"name":"totalSatsInputIncludingProxyFee","type":"uint256","internalType":"uint256"},{"name":"expiredSwapReservationIndexes","type":"uint256[]","internalType":"uint256[]"}],"outputs":[],"stateMutability":"nonpayable"},{"type":"function","name":"scale","inputs":[],"outputs":[{"name":"","type":"uint256","internalType":"uint256"}],"stateMutability":"view"},{"type":"function","name":"submitSwapProof","inputs":[{"name":"swapReservationIndex","type":"uint256","internalType":"uint256"},{"name":"bitcoinTxId","type":"bytes32","internalType":"bytes32"},{"name":"merkleRoot","type":"bytes32","internalType":"bytes32"},{"name":"safeBlockHeight","type":"uint32","internalType":"uint32"},{"name":"proposedBlockHeight","type":"uint64","internalType":"uint64"},{"name":"confirmationBlockHeight","type":"uint64","internalType":"uint64"},{"name":"blockHashes","type":"bytes32[]","internalType":"bytes32[]"},{"name":"blockChainworks","type":"uint256[]","internalType":"uint256[]"},{"name":"proof","type":"bytes","internalType":"bytes"}],"outputs":[],"stateMutability":"nonpayable"},{"type":"function","name":"swapReservations","inputs":[{"name":"","type":"uint256","internalType":"uint256"}],"outputs":[{"name":"owner","type":"address","internalType":"address"},{"name":"confirmationBlockHeight","type":"uint32","internalType":"uint32"},{"name":"reservationTimestamp","type":"uint64","internalType":"uint64"},{"name":"liquidityUnlockedTimestamp","type":"uint64","internalType":"uint64"},{"name":"state","type":"uint8","internalType":"enum RiftExchange.ReservationState"},{"name":"ethPayoutAddress","type":"address","internalType":"address"},{"name":"lpReservationHash","type":"bytes32","internalType":"bytes32"},{"name":"nonce","type":"bytes32","internalType":"bytes32"},{"name":"totalSatsInputIncludingProxyFee","type":"uint256","internalType":"uint256"},{"name":"totalSwapOutputAmount","type":"uint256","internalType":"uint256"},{"name":"proposedBlockHeight","type":"uint64","internalType":"uint64"},{"name":"proposedBlockHash","type":"bytes32","internalType":"bytes32"}],"stateMutability":"view"},{"type":"function","name":"tokenDecimals","inputs":[],"outputs":[{"name":"","type":"uint8","internalType":"uint8"}],"stateMutability":"view"},{"type":"function","name":"transferOwnership","inputs":[{"name":"newOwner","type":"address","internalType":"address"}],"outputs":[],"stateMutability":"nonpayable"},{"type":"function","name":"updateExchangeRate","inputs":[{"name":"globalVaultIndex","type":"uint256","internalType":"uint256"},{"name":"newExchangeRate","type":"uint64","internalType":"uint64"},{"name":"expiredSwapReservationIndexes","type":"uint256[]","internalType":"uint256[]"}],"outputs":[],"stateMutability":"nonpayable"},{"type":"function","name":"updateFeeRouter","inputs":[{"name":"newProtocolAddress","type":"address","internalType":"address payable"}],"outputs":[],"stateMutability":"nonpayable"},{"type":"function","name":"updateNewLiquidityDepositsPaused","inputs":[{"name":"newPauseState","type":"bool","internalType":"bool"}],"outputs":[],"stateMutability":"nonpayable"},{"type":"function","name":"updateProtocolFee","inputs":[{"name":"newProtocolFeeBP","type":"uint8","internalType":"uint8"}],"outputs":[],"stateMutability":"nonpayable"},{"type":"function","name":"upgradeToAndCall","inputs":[{"name":"newImplementation","type":"address","internalType":"address"},{"name":"data","type":"bytes","internalType":"bytes"}],"outputs":[],"stateMutability":"payable"},{"type":"function","name":"validateBlockExists","inputs":[{"name":"blockHeight","type":"uint256","internalType":"uint256"}],"outputs":[],"stateMutability":"view"},{"type":"function","name":"verifierContract","inputs":[],"outputs":[{"name":"","type":"address","internalType":"contract ISP1Verifier"}],"stateMutability":"view"},{"type":"function","name":"withdrawLiquidity","inputs":[{"name":"globalVaultIndex","type":"uint256","internalType":"uint256"},{"name":"amountToWithdraw","type":"uint192","internalType":"uint192"},{"name":"expiredSwapReservationIndexes","type":"uint256[]","internalType":"uint256[]"}],"outputs":[],"stateMutability":"nonpayable"},{"type":"event","name":"BlocksAdded","inputs":[{"name":"startBlockHeight","type":"uint256","indexed":false,"internalType":"uint256"},{"name":"count","type":"uint256","indexed":false,"internalType":"uint256"}],"anonymous":false},{"type":"event","name":"ExchangeRateUpdated","inputs":[{"name":"globalVaultIndex","type":"uint256","indexed":true,"internalType":"uint256"},{"name":"newExchangeRate","type":"uint64","indexed":false,"internalType":"uint64"},{"name":"unreservedBalance","type":"uint256","indexed":false,"internalType":"uint256"}],"anonymous":false},{"type":"event","name":"Initialized","inputs":[{"name":"version","type":"uint64","indexed":false,"internalType":"uint64"}],"anonymous":false},{"type":"event","name":"LiquidityDeposited","inputs":[{"name":"depositor","type":"address","indexed":true,"internalType":"address"},{"name":"depositVaultIndex","type":"uint256","indexed":false,"internalType":"uint256"},{"name":"amount","type":"uint256","indexed":false,"internalType":"uint256"},{"name":"exchangeRate","type":"uint64","indexed":false,"internalType":"uint64"}],"anonymous":false},{"type":"event","name":"LiquidityReserved","inputs":[{"name":"reserver","type":"address","indexed":true,"internalType":"address"},{"name":"swapReservationIndex","type":"uint256","indexed":false,"internalType":"uint256"},{"name":"orderNonce","type":"bytes32","indexed":false,"internalType":"bytes32"}],"anonymous":false},{"type":"event","name":"LiquidityWithdrawn","inputs":[{"name":"globalVaultIndex","type":"uint256","indexed":true,"internalType":"uint256"},{"name":"amountWithdrawn","type":"uint192","indexed":false,"internalType":"uint192"},{"name":"remainingBalance","type":"uint256","indexed":false,"internalType":"uint256"}],"anonymous":false},{"type":"event","name":"OwnershipTransferred","inputs":[{"name":"previousOwner","type":"address","indexed":true,"internalType":"address"},{"name":"newOwner","type":"address","indexed":true,"internalType":"address"}],"anonymous":false},{"type":"event","name":"ProofSubmitted","inputs":[{"name":"prover","type":"address","indexed":true,"internalType":"address"},{"name":"swapReservationIndex","type":"uint256","indexed":false,"internalType":"uint256"},{"name":"orderNonce","type":"bytes32","indexed":false,"internalType":"bytes32"}],"anonymous":false},{"type":"event","name":"SwapComplete","inputs":[{"name":"swapReservationIndex","type":"uint256","indexed":false,"internalType":"uint256"},{"name":"swapReservation","type":"tuple","indexed":false,"internalType":"struct RiftExchange.SwapReservation","components":[{"name":"owner","type":"address","internalType":"address"},{"name":"confirmationBlockHeight","type":"uint32","internalType":"uint32"},{"name":"reservationTimestamp","type":"uint64","internalType":"uint64"},{"name":"liquidityUnlockedTimestamp","type":"uint64","internalType":"uint64"},{"name":"state","type":"uint8","internalType":"enum RiftExchange.ReservationState"},{"name":"ethPayoutAddress","type":"address","internalType":"address"},{"name":"lpReservationHash","type":"bytes32","internalType":"bytes32"},{"name":"nonce","type":"bytes32","internalType":"bytes32"},{"name":"totalSatsInputIncludingProxyFee","type":"uint256","internalType":"uint256"},{"name":"totalSwapOutputAmount","type":"uint256","internalType":"uint256"},{"name":"proposedBlockHeight","type":"uint64","internalType":"uint64"},{"name":"proposedBlockHash","type":"bytes32","internalType":"bytes32"},{"name":"vaultIndexes","type":"uint256[]","internalType":"uint256[]"},{"name":"amountsToReserve","type":"uint192[]","internalType":"uint192[]"},{"name":"expectedSatsOutput","type":"uint64[]","internalType":"uint64[]"}]},{"name":"protocolFee","type":"uint256","indexed":false,"internalType":"uint256"}],"anonymous":false},{"type":"event","name":"Upgraded","inputs":[{"name":"implementation","type":"address","indexed":true,"internalType":"address"}],"anonymous":false},{"type":"error","name":"AddressEmptyCode","inputs":[{"name":"target","type":"address","internalType":"address"}]},{"type":"error","name":"AmountToReserveTooLow","inputs":[{"name":"index","type":"uint256","internalType":"uint256"}]},{"type":"error","name":"BlockArraysMismatch","inputs":[]},{"type":"error","name":"BlockDoesNotExist","inputs":[]},{"type":"error","name":"ERC1967InvalidImplementation","inputs":[{"name":"implementation","type":"address","internalType":"address"}]},{"type":"error","name":"ERC1967NonPayable","inputs":[]},{"type":"error","name":"FailedInnerCall","inputs":[]},{"type":"error","name":"InvalidBlockHeights","inputs":[]},{"type":"error","name":"InvalidChainwork","inputs":[]},{"type":"error","name":"InvalidConfirmationBlock","inputs":[]},{"type":"error","name":"InvalidExchangeRate","inputs":[]},{"type":"error","name":"InvalidInitialization","inputs":[]},{"type":"error","name":"InvalidInputArrays","inputs":[]},{"type":"error","name":"InvalidReservationState","inputs":[]},{"type":"error","name":"InvalidSafeBlock","inputs":[]},{"type":"error","name":"NewDepositsPaused","inputs":[]},{"type":"error","name":"NotApprovedHypernode","inputs":[]},{"type":"error","name":"NotEnoughLiquidity","inputs":[]},{"type":"error","name":"NotInitializing","inputs":[]},{"type":"error","name":"NotVaultOwner","inputs":[]},{"type":"error","name":"OverwrittenProposedBlock","inputs":[]},{"type":"error","name":"OwnableInvalidOwner","inputs":[{"name":"owner","type":"address","internalType":"address"}]},{"type":"error","name":"OwnableUnauthorizedAccount","inputs":[{"name":"account","type":"address","internalType":"address"}]},{"type":"error","name":"ReservationNotExpired","inputs":[]},{"type":"error","name":"ReservationNotProved","inputs":[]},{"type":"error","name":"StillInChallengePeriod","inputs":[]},{"type":"error","name":"UUPSUnauthorizedCallContext","inputs":[]},{"type":"error","name":"UUPSUnsupportedProxiableUUID","inputs":[{"name":"slot","type":"bytes32","internalType":"bytes32"}]},{"type":"error","name":"UpdateExchangeRateError","inputs":[]},{"type":"error","name":"WithdrawalAmountError","inputs":[]}],"bytecode":{"object":"0x60a06040523461003c57610011610040565b3060805261001d610040565b60405161386690816100d782396080518181816125be01526128180152f35b5f80fd5b5f51602061393d5f395f51905f525460ff8160401c166100c7576002600160401b03196001600160401b038216016100755750565b6001600160401b0319166001600160401b039081175f51602061393d5f395f51905f52556040519081527fc7f505b2f371ae2175ee4913f4499e1f2633a7b5936321eed1cdaeb6115181d290602090a1565b63f92ee8a960e01b5f5260045ffdfe60806040526004361015610011575f80fd5b5f5f3560e01c80630a7aa29314612b8f578063163de0c514612b72578063276d080e14612a6e57806335106fab14612a525780633b97e85614612a2f5780633d7b22b314612a125780634a8484ea146129d15780634f1ef286146127db578063505675dd1461261257806352d1902d146125ac5780635f4d0610146125165780636512d057146124eb5780636b994abb14612410578063715018a6146123a957806373e149e6146123665780637789190714611fe35780637a9059a214611f9e5780637dce555014611f81578063803d5f6214611d6d5780638cc63cdd14611ada5780638da5cb5b14611d3957806398f9e75714611cb8578063a3db99d914611b46578063ad3cb1cc14611aff578063b01c27d114611ada578063b9b2a98214611aae578063bff20f781461173e578063c5fba0b81461171b578063c7785af014611587578063c89039c51461155f578063cda7d82c14611535578063cf6956881461150d578063d57763c3146111f1578063d825a692146111b4578063d8418403146109c4578063e102f9c11461071c578063e5791596146106ff578063ea6fe03e146106e1578063ecdea06f1461031c578063ed8b2b32146102e5578063ee82ac5e146102bc578063f2fde38b1461028f578063f3f480d914610272578063f51e181a1461024f5763f53e31cf14610209575f80fd5b3461024c57602036600319011261024c57610222612bd4565b61022a6132b8565b6001600160a01b03168152600a60205260408120805460ff1916600117905580f35b80fd5b503461024c578060031936011261024c576020604051670de0b6b3a76400008152f35b503461024c578060031936011261024c57602060405161012c8152f35b503461024c57602036600319011261024c576102b96102ac612bd4565b6102b46132b8565b613247565b80f35b503461024c57602036600319011261024c57604060209160043581528083522054604051908152f35b503461024c57602036600319011261024c5760043581528060205260408120541561030d5780f35b63fa4a5e4560e01b8152600490fd5b503461024c5761012036600319011261024c5760043561033a612e40565b610342612cf0565b61034a612d06565b9160c4356001600160401b0381116106dd5761036a903690600401612d33565b9160e4356001600160401b0381116106d95761038a903690600401612d33565b93610104356001600160401b0381116106d5576103ab903690600401612c94565b90338852600a60205260ff604089205416156106c6576103ca87612dc0565b5095600187019260ff845460401c1660058110156106b2576001036106a357896040516103f681612c3c565b8181528160208201528160408201528160608201528160808201528160a08201528160c08201528160e08201528161010082015261012081016060905261014081016060905261016001528961044b8a612dc0565b50600281015490600381015490600801546001600160401b03169863ffffffff16986107e08a0661047c908b61306c565b84528360205260408420546104918b8b613227565b9161049c8b8a613227565b93604051956104aa87612c3c565b6024358752604435602088015260408701526060860152608085015260a08401528960c08401526001600160401b031660e08301526001600160401b031661010082015288610120820152836101408201526101608101600190526040518091602082019061051891612e53565b03601f198101825261052a9082612c58565b600554600454906001600160a01b0316803b1561069f578392610574926105866040519788958694859463020a49e360e51b86526004860152606060248601526064850190612e1c565b83810360031901604485015290612e1c565b03915afa918215610692578892610675575b50506001600160401b036105b793166001600160401b03861687613540565b506802000000000000000060ff60401b1982541617815561012c6001600160401b034216016001600160401b038111610661576106259360039695936001600160401b03938461061e94168519825416179055600687018482168519825416179055613227565b1690613213565b516007820155015460405191825260208201527f8bcdab581a6176f792fa96b0c57d32273bcd8621b0548c15a9c6379dc246e26c60403392a280f35b634e487b7160e01b88526011600452602488fd5b8192509061068291612c58565b61068e5785895f610598565b8880fd5b50604051903d90823e3d90fd5b8380fd5b639085371960e01b8a5260048afd5b634e487b7160e01b8b52602160045260248bfd5b63901924a360e01b8852600488fd5b8780fd5b8680fd5b8580fd5b503461024c578060031936011261024c576020600854604051908152f35b503461024c578060031936011261024c5760206040516138408152f35b50346109c05760c03660031901126109c0576004359063ffffffff82168092036109c057610748612cda565b91604435906001600160401b0382168083036109c0576064356001600160401b0381116109c05761077d903690600401612d33565b916084356001600160401b0381116109c05761079d903690600401612d33565b9360a435906001600160401b0382116109c057366023830112156109c0578160040135916001600160401b0383116109c05736602484830101116109c0576108fd896001600160401b036108ef945f6101606040516107fb81612c3c565b8281528260208201528260408201528260608201528260808201528260a08201528260c08201528260e0820152826101008201526060610120820152606061014082015201528161084b5f612dc0565b50918960028401549561088d846008600388015497015416916108726107e085068561306c565b5f525f60205261088760405f20549482613227565b94613227565b946040519761089b89612c3c565b5f89525f60208a015260408901526060880152608087015260a08601528960c08601521660e08401521661010082015287610120820152886101408201525f61016082015260405193849160208301612e53565b03601f198101845283612c58565b60018060a01b036005541660045492813b156109c05760205f946109489487602498604051998a988997889663020a49e360e51b885260048801526060838801526064870190612e1c565b8581036003190160448701528281529301858401378181018401889052601f01601f1916010301915afa80156109b557610996575b506001600160401b0361099295961690613540565b5080f35b61099295505f6109a591612c58565b6001600160401b035f955061097d565b6040513d5f823e3d90fd5b5f80fd5b346109c05760c03660031901126109c0576109dd612bd4565b6024356001600160401b0381116109c0576109fc903690600401612d33565b90604435906001600160401b0382116109c057366023830112156109c0578160040135610a2881612d1c565b92610a366040519485612c58565b8184526024602085019260051b820101903682116109c057602401915b818310611194575050506064356001600160a01b03811691908290036109c05760a4356001600160401b0381116109c057610a92903690600401612d33565b9380518015908115611188575b50611179575f5b8451811015610ae2576001600160c01b03610ac18287613213565b511615610ad057600101610aa6565b633143436b60e11b5f5260045260245ffd5b508492935f905f92805194610af686612d1c565b95610b046040519788612c58565b808752610b13601f1991612d1c565b013660208801375f9760ff60035460a01c16945b84518a1015610bd357610b6f6001600160401b036004610b50610b4a8e89613213565b51612d90565b50015416916001600160c01b03610b678d89613213565b511690613034565b99610b8d876001600160c01b03610b86848a613213565b51166134fb565b918015610bbf57610bab6001600160401b039160019404809a613034565b9816610bb7828b613213565b520198610b27565b634e487b7160e01b5f52601260045260245ffd5b9391908790610be18a613300565b5f92835b8651851015610cac575f6020916001600160401b03610c048888613213565b511690610c14610b4a898c613213565b5060046001600160501b031991015460101b1690604051918583019384526040830152606082015260608152610c4b608082612c58565b604051918291518091835e8101838152039060025afa156109b5575f51936001600160c01b03610c7b8288613213565b51166002610c8c610b4a848b613213565b50015410610c9d5760010193610be5565b634323a55560e01b5f5260045ffd5b86939450876008549160405160208101908682524260408201524660608201528260808201528460a082015260a08152610ce760c082612c58565b5190209660405194610cf886612c20565b60018060a01b03169586865260208601945f865260408701906001600160401b034216825260608801935f855260808901936001855260a08a015260c0890195865260e08901968c88526084356101008b01526101208a01525f6101408a01525f6101608a01528a6101808a01528c6101a08a01526101c0890152600160401b81101561110d57806001610d8f9201600855612dc0565b9690966111665787519051915160a09290921b63ffffffff60a01b166001600160a01b03919091161760c09190911b6001600160c01b031916178555905160018501805467ffffffffffffffff19166001600160401b03929092169190911781559051600581101561115257815460a087015168010000000000000000600160e81b031990911660409290921b60ff60401b169190911760489190911b6901000000000000000000600160e81b03161790555160028301555160038201556101008201516004820155610120820151600582015561014082015160068201805467ffffffffffffffff19166001600160401b039283161790556101608301516007830155610180830151805191600884019190831161110d57600160401b831161110d57602090610ec5848454818655856131f0565b01905f5260205f205f5b83811061113e5750505050600981016101a0830151908151916001600160401b03831161110d57600160401b831161110d57602090610f13848454818655856131f0565b01905f5260205f205f5b8381106111215750505050600a6101c091019101518051906001600160401b03821161110d57600160401b821161110d5760209083548385558084106110c1575b5001915f5260205f208160021c915f5b83811061107c57506003198116900380611024575b505050505f5b8251811015610fcd576001906001600160c01b03610fa78288613213565b5116610fc56002610fbb610b4a8589613213565b500191825461306c565b905501610f89565b506008545f1981019084908211611010577f5956135c9be999a50f7ff4ea49ddf1485bc321ab333dc7a0877633eeb47528939160409182519182526020820152a2005b634e487b7160e01b5f52601160045260245ffd5b925f935f5b81811061103e57505050015584808080610f83565b90919460206110726001926001600160401b03895116908560031b6001600160401b03809160031b9316831b921b19161790565b9601929101611029565b5f5f5b60048110611094575083820155600101610f6e565b86519096916001916020916001600160401b0360068b901b81811b199092169216901b179201960161107f565b6110ee90855f52835f20600380870160021c820192601888831b16806110f4575b500160021c01906131da565b88610f5e565b5f198501908154905f19908a03851b1c1690558d6110e2565b634e487b7160e01b5f52604160045260245ffd5b82516001600160c01b031681830155602090920191600101610f1d565b600190602084519401938184015501610ecf565b634e487b7160e01b5f52602160045260245ffd5b634e487b7160e01b5f525f60045260245ffd5b63744bba7b60e01b5f5260045ffd5b90508451141586610a9f565b82356001600160c01b03811681036109c057815260209283019201610a53565b346109c05760203660031901126109c0576001600160a01b036111d5612bd4565b165f52600a602052602060ff60405f2054166040519015158152f35b346109c05760203660031901126109c05760606101c060405161121381612c20565b5f81525f60208201525f60408201525f838201525f60808201525f60a08201525f60c08201525f60e08201525f6101008201525f6101208201525f6101408201525f61016082015282610180820152826101a08201520152611276600435612dc0565b506040519061128482612c20565b805460018060a01b0381168352602083019263ffffffff8260a01c168452604081019160c01c825260018301549160608201916001600160401b038416835260ff8460401c1692608082016005851015611152578695869582999895995260a0840190600160a01b600190039060481c168152600285015460c0850190815260038601549060e086019182526004870154926101008701938452600588015494610120880195865260068901546001600160401b031696610140890197885260078a0154986101608101998a52604051806008819d019061136491613079565b0361136f908c612c58565b61018081019a8b5260405180809e60098291019061138c916130b0565b0361139691612c58565b6101a081019c8d5260405180600a819e01906113b1916130f0565b036113bc908d612c58565b6101c081019b8c526040519e8f9e8f9260208452600160a01b6001900390511660208401525163ffffffff166040830152516001600160401b03169060600152516001600160401b031660808d01525160a08c0161141991612ddc565b516001600160a01b031660c08b01525160e08a0152516101008901525161012088015251610140870152516001600160401b031661016086015251610180850152516101e06101a085015261147390610200850190612de9565b915191601f19848203016101c085015282519081815260200192602001905f5b8181106114eb575050505190601f19838203016101e0840152602080835192838152019201905f5b8181106114c9575050500390f35b82516001600160401b03168452859450602093840193909201916001016114bb565b82516001600160c01b0316855286955060209485019490920191600101611493565b346109c0575f3660031901126109c0576005546040516001600160a01b039091168152602090f35b346109c05760203660031901126109c0576004355f526001602052602060405f2054604051908152f35b346109c0575f3660031901126109c0576003546040516001600160a01b039091168152602090f35b346109c0576101203660031901126109c0576115a1612e40565b6115a9612cf0565b6115b1612d06565b60c4356001600160401b0381116109c0576115d0903690600401612d33565b60e4356001600160401b0381116109c0576115ef903690600401612d33565b9061010435928315158094036109c057611717956001600160401b0380925f61016060405161161d81612c3c565b8281528260208201528260408201528260608201528260808201528260a08201528260c08201528260e08201528261010082015260606101208201526060610140820152015261166e600435612dc0565b509260028401549863ffffffff8460086003880154970154169216916116986107e084068461306c565b5f525f6020526116b760405f2054926116b18582613227565b95613227565b956040519b6116c58d612c3c565b6024358d528c602060443591015260408d015260608c015260808b015260a08a015260c08901521660e08701521661010085015261012084015261014083015261016082015260405191829182612e53565b0390f35b346109c0575f3660031901126109c057602060ff60055460a81c16604051908152f35b346109c0576101403660031901126109c0576004356084356001600160a01b038116908190036109c05760a4356001600160a01b03811691908290036109c05760c4356001600160a01b03811691908290036109c05760e435926001600160a01b03841684036109c05761012435936001600160401b0385116109c057366023860112156109c05784600401356117d481612d1c565b956117e26040519788612c58565b8187526024602088019260051b820101903682116109c057602401915b818310611a8e575050505f5160206138115f395f51905f52549560ff8760401c1615966001600160401b03811680159081611a86575b6001149081611a7c575b159081611a73575b50611a645767ffffffffffffffff1981166001175f5160206138115f395f51905f52556118c7926118919189611a38575b50611881613747565b611889613747565b6102b4613747565b611899613747565b80600255805f52600160205260643560405f2055805f525f60205260243560405f20556107e081069061306c565b5f525f60205260443560405f205560035490806bffffffffffffffffffffffff60a01b83161760035560405163313ce56760e01b8152602081600481855afa9081156109b5575f916119fc575b506001600160a81b03199092161760a09190911b60ff60a01b16176003556101043560045560058054600680546001600160a01b0319169094179093556001600160b01b031990921617600560a91b1790555f5b81518110156119a3576001906001600160a01b036119868285613213565b51165f52600a60205260405f208260ff1982541617905501611968565b826119aa57005b60ff60401b195f5160206138115f395f51905f5254165f5160206138115f395f51905f52557fc7f505b2f371ae2175ee4913f4499e1f2633a7b5936321eed1cdaeb6115181d2602060405160018152a1005b90506020813d602011611a30575b81611a1760209383612c58565b810103126109c0575160ff811681036109c05787611914565b3d9150611a0a565b68ffffffffffffffffff191668010000000000000001175f5160206138115f395f51905f525589611878565b63f92ee8a960e01b5f5260045ffd5b90501589611847565b303b15915061183f565b899150611835565b82356001600160a01b03811681036109c0578152602092830192016117ff565b346109c05760203660031901126109c0576020611ad26004356107e081069061306c565b604051908152f35b346109c0575f3660031901126109c057602060ff60055460a01c166040519015158152f35b346109c0575f3660031901126109c057611717604051611b20604082612c58565b60058152640352e302e360dc1b6020820152604051918291602083526020830190612e1c565b346109c05760603660031901126109c0576004356024356001600160c01b038116908190036109c0576044356001600160401b0381116109c057611b8e903690600401612d33565b611b9783612d90565b50546001600160a01b03163303611ca957611bb190613300565b611bba82612d90565b5081158015611c9c575b611c8d575f9160036002830192611bdc83855461306c565b845501611bea828254613034565b905560035460405163a9059cbb60e01b8152336004820152602481018390529360209185916044918391906001600160a01b03165af19182156109b5577f2da2870bb581d5fba8ee536c6bc0062e654302bcee5f5b108193a2c6d2f4a89993604093611c60575b505482519182526020820152a2005b611c819060203d602011611c86575b611c798183612c58565b810190613054565b611c51565b503d611c6f565b63b4e3d41360e01b5f5260045ffd5b5060028101548211611bc4565b630e7fea9d60e01b5f5260045ffd5b346109c05760203660031901126109c057611cd1612bd4565b6060604051611cdf81612c05565b5260018060a01b03165f52600960205261171760405f20611d15611d1c60405192611d0984612c05565b60405192838092613079565b0382612c58565b815260405191829160208352516020808401526040830190612de9565b346109c0575f3660031901126109c0575f5160206137d15f395f51905f52546040516001600160a01b039091168152602090f35b346109c05760603660031901126109c057600435611d89612cda565b604435906001600160501b031982168092036109c05760ff60055460a01c16611f72576001600160401b0316908115611f6357335f52600960205260405f205415611ed6575b604051611e1391611ddf82612bea565b3382526001600160401b03421660208301528460408301528460608301525f60808301528360a083015260c0820152612f46565b6007545f19810190811161101057611e2b903361343a565b6003546040516323b872dd60e01b81523360048201523060248201526044810184905290602090829060649082905f906001600160a01b03165af180156109b557611eb9575b506007545f1981019290831161101057604051928352602083015260408201527ffd5ab8914e1dca355d18ae7fe50627d3afe042f323e1b0ae31f3a9d2cd19de3760603392a2005b611ed19060203d602011611c8657611c798183612c58565b611e71565b6020604051611ee58282612c58565b5f81525f36813760405190611ef982612c05565b8152335f526009825260405f209051918251926001600160401b03841161110d57600160401b841161110d578190611f36858554818755866131f0565b01915f52805f20905f5b848110611f51575050505050611dcf565b83518382015592810192600101611f40565b63a2ec3a5560e01b5f5260045ffd5b6348010c6560e11b5f5260045ffd5b346109c0575f3660031901126109c0576020600754604051908152f35b346109c05760203660031901126109c0576004358015158091036109c057611fc46132b8565b6005805460ff60a01b191660a09290921b60ff60a01b16919091179055005b346109c05760203660031901126109c05760043561200081612dc0565b50906001820190815460ff8160401c16600581101561115257600203612357576001600160401b0316421061234857604061206f81516120408382612c58565b601881527f70726f706f736564426c6f636b486173682061637475616c00000000000000006020820152613484565b600684016001600160401b03815416805f525f602052612091835f20546134d2565b6120cf83516120a08582612c58565b601a81527f70726f706f736564426c6f636b486173682065787065637465640000000000006020820152613484565b60078601908154906120e0826134d2565b5f525f602052835f205403612339576803000000000000000060ff60401b198654161785556005860191612710612121845460ff60055460a81c1690613041565b600354600654875163a9059cbb60e01b81526001600160a01b0391821660048201529390920460248401819052959291602091839160449183915f91165af180156123125761231c575b50600354875482546121ca9260209260481c6001600160a01b039081169291169061219790899061306c565b895163a9059cbb60e01b81526001600160a01b0390931660048401526024830152909283919082905f9082906044820190565b03925af1801561231257926122ec94926001600160401b03927f2f5e870e987f384af7aa5a516b551286762ae20f2fbbf3b8df2bcb1a735111989b956122f5575b508751998a998a52606060208b0152855460018060a01b03811660608c015263ffffffff8160a01c1660808c015260c01c60a08b01525483811660c08b015261225c60e08b0160ff838c1c16612ddc565b60481c6001600160a01b03166101008a015260028501546101208a015260038501546101408a015260048501546101608a01525461018089015254166101a0870152546101c08601526101e080860152600a6122d86122c2610240880160088501613079565b878103605f1901610200890152600984016130b0565b868103605f190161022088015291016130f0565b918301520390a1005b61230d9060203d602011611c8657611c798183612c58565b61220b565b86513d5f823e3d90fd5b6123349060203d602011611c8657611c798183612c58565b61216b565b63c1f6fa5160e01b5f5260045ffd5b632d5c37f560e21b5f5260045ffd5b6320d55f6760e21b5f5260045ffd5b346109c05760203660031901126109c05761237f612bd4565b6123876132b8565b600680546001600160a01b0319166001600160a01b0392909216919091179055005b346109c0575f3660031901126109c0576123c16132b8565b5f5160206137d15f395f51905f5280546001600160a01b031981169091555f906001600160a01b03167f8be0079c531659141344cd1fd0a4f28419497f9722a3daafe3b4186f6b6457e08280a3005b346109c05760203660031901126109c0576004356008548110156109c05761243a61018091612dc0565b508054906001810154906002810154600382015460048301549060058401549260076001600160401b03600687015416950154956040519760018060a01b038116895263ffffffff8160a01c1660208a015260c01c60408901526001600160401b03811660608901526124b66080890160ff8360401c16612ddc565b60481c6001600160a01b031660a088015260c087015260e0860152610100850152610120840152610140830152610160820152f35b346109c05760203660031901126109c0576020600261250b600435612d90565b500154604051908152f35b346109c05760203660031901126109c0576004356007548110156109c05761253f60e091612d90565b50805490600181015490600281015460046003830154920154926001600160401b036040519560018060a01b038116875260a01c1660208601526040850152606084015260808301526001600160401b03811660a08301526001600160501b03199060101b1660c0820152f35b346109c0575f3660031901126109c0577f00000000000000000000000000000000000000000000000000000000000000006001600160a01b031630036126035760206040515f5160206137f15f395f51905f528152f35b63703e46dd60e11b5f5260045ffd5b346109c05760603660031901126109c05760043561262e612cda565b906044356001600160401b0381116109c05761264e903690600401612d33565b61265782612d90565b50546001600160a01b03163303611ca9576001600160401b038316928315611f635761268283612d90565b5060028101612692815494613300565b600182015484036126ff57509360047fbe7a3aef8ec470b9ef629744038f55b7557d10cd672e7a5982f0433e50866ae7949501906001600160401b03198254161790556126fa60405192839283602090939291936001600160401b0360408201951681520152565b0390a2005b93508261271557632b5daf8960e01b5f5260045ffd5b7fbe7a3aef8ec470b9ef629744038f55b7557d10cd672e7a5982f0433e50866ae79360035f9261279f6007549860018060a01b03835416906001600160501b0319600485015460101b16906040519261276d84612bea565b83526001600160401b034216602084015289604084015289606084015287608084015260a083015260c0820152612f46565b016127ab858254613034565b9055556127b8843361343a565b604080516001600160401b039092168252602082019290925290819081016126fa565b60403660031901126109c0576127ef612bd4565b6024356001600160401b0381116109c05761280e903690600401612c94565b6001600160a01b037f0000000000000000000000000000000000000000000000000000000000000000163081149081156129af575b50612603576128506132b8565b6040516352d1902d60e01b81526001600160a01b0383169290602081600481875afa5f918161297b575b506128925783634c9c8ce360e01b5f5260045260245ffd5b805f5160206137f15f395f51905f528592036129695750813b15612957575f5160206137f15f395f51905f5280546001600160a01b031916821790557fbc7cd75a20ee27fd9adebab32041f755214dbc6bffa90cc0225b39da2e5c2d3b5f80a281511561293f575f8083602061293595519101845af43d15612937573d9161291983612c79565b926129276040519485612c58565b83523d5f602085013e613772565b005b606091613772565b50503461294857005b63b398979f60e01b5f5260045ffd5b634c9c8ce360e01b5f5260045260245ffd5b632a87526960e21b5f5260045260245ffd5b9091506020813d6020116129a7575b8161299760209383612c58565b810103126109c05751908561287a565b3d915061298a565b5f5160206137f15f395f51905f52546001600160a01b03161415905083612843565b346109c05760203660031901126109c0576129ea612bd4565b6129f26132b8565b6001600160a01b03165f908152600a60205260409020805460ff19169055005b346109c0575f3660031901126109c0576020600454604051908152f35b346109c0575f3660031901126109c057602060ff60035460a01c16604051908152f35b346109c0575f3660031901126109c05760206040516127108152f35b346109c05760203660031901126109c0575f60c0604051612a8e81612bea565b8281528260208201528260408201528260608201528260808201528260a0820152015260e0612abe600435612d90565b50604051612acb81612bea565b6001600160401b0382549160018060a01b0383169384825282602083019460a01c168452600181015460408301908152600282015490606084019182528460046003850154946080870195865201549660c060a0870196838a16885201976001600160501b03199060101b16885260405198895251166020880152516040870152516060860152516080850152511660a08301526001600160501b031990511660c0820152f35b346109c0575f3660031901126109c0576020600254604051908152f35b346109c05760203660031901126109c05760043560ff811681036109c057612bb56132b8565b6005805460ff60a81b191660a89290921b60ff60a81b16919091179055005b600435906001600160a01b03821682036109c057565b60e081019081106001600160401b0382111761110d57604052565b602081019081106001600160401b0382111761110d57604052565b6101e081019081106001600160401b0382111761110d57604052565b61018081019081106001600160401b0382111761110d57604052565b90601f801991011681019081106001600160401b0382111761110d57604052565b6001600160401b03811161110d57601f01601f191660200190565b81601f820112156109c057803590612cab82612c79565b92612cb96040519485612c58565b828452602083830101116109c057815f926020809301838601378301015290565b602435906001600160401b03821682036109c057565b608435906001600160401b03821682036109c057565b60a435906001600160401b03821682036109c057565b6001600160401b03811161110d5760051b60200190565b9080601f830112156109c0578135612d4a81612d1c565b92612d586040519485612c58565b81845260208085019260051b8201019283116109c057602001905b828210612d805750505090565b8135815260209182019101612d73565b600754811015612dac5760075f52600560205f20910201905f90565b634e487b7160e01b5f52603260045260245ffd5b600854811015612dac5760085f52600b60205f20910201905f90565b9060058210156111525752565b90602080835192838152019201905f5b818110612e065750505090565b8251845260209384019390920191600101612df9565b805180835260209291819084018484015e5f828201840152601f01601f1916010190565b6064359063ffffffff821682036109c057565b602081526101a08101825160208301526020830151604083015260408301516060830152606083015160808301526001600160401b0360808401511660a083015260a083015160c08301526001600160401b0360c08401511660e08301526001600160401b0360e0840151166101008301526001600160401b036101008401511661012083015261012083015190610180610140840152815180915260206101c084019201905f5b818110612f3057505050610160612f2561018092610140860151601f198683030184870152612de9565b930151151591015290565b8251845260209384019390920191600101612efb565b600754600160401b81101561110d5760018101600755600754811015612dac5760075f526005027fa66cc928b5edb82af9bd49922954155ab7b0942694bea4ce44661d9a8736c688018151815460208401516001600160e01b03199091166001600160a01b03929092169190911760a091821b67ffffffffffffffff60a01b16178255604083015160018301556060830151600283015560808301516003830155820151600491909101805460c093909301516001600160f01b03199093166001600160401b03929092169190911760109290921c68010000000000000000600160f01b0316919091179055565b9190820180921161101057565b8181029291811591840414171561101057565b908160209103126109c0575180151581036109c05790565b9190820391821161101057565b90602082549182815201915f5260205f20905f5b81811061309a5750505090565b825484526020909301926001928301920161308d565b90602082549182815201915f5260205f20905f5b8181106130d15750505090565b82546001600160c01b03168452602090930192600192830192016130c4565b80548083525f91825260208083209301925b81600384011061318e575491818110613174575b818110613157575b81811061313a575b1061312f575090565b60c01c815260200190565b9260206001916001600160401b038560801c168152019301613126565b9260206001916001600160401b038560401c16815201930161311e565b9260206001916001600160401b0385168152019301613116565b926001608060049286546001600160401b03811682526001600160401b038160401c1660208301526001600160401b0381841c16604083015260c01c6060820152019401920191613102565b8181106131e5575050565b5f81556001016131da565b918181106131fd57505050565b613211925f5260205f2091820191016131da565b565b8051821015612dac5760209160051b010190565b906001600160401b03809116911603906001600160401b03821161101057565b6001600160a01b031680156132a5575f5160206137d15f395f51905f5280546001600160a01b0319811683179091556001600160a01b03167f8be0079c531659141344cd1fd0a4f28419497f9722a3daafe3b4186f6b6457e05f80a3565b631e4fbdf760e01b5f525f60045260245ffd5b5f5160206137d15f395f51905f52546001600160a01b031633036132d857565b63118cdaa760e01b5f523360045260245ffd5b8054821015612dac575f5260205f2001905f90565b5f5b815181101561338a5761331e6133188284613213565b51612dc0565b5060ff600182015460401c1690600582101561115257600482146133805761334d613840915460c01c4261306c565b10908115613374575b50613365576001905b01613302565b6326349d6b60e01b5f5260045ffd5b6001915014155f613356565b505060019061335f565b505f915b815183101561343557916133a56133188284613213565b5091600983019160088401915f5b835481101561340857806133d86133cc600193876132eb565b90549060031b1c612d90565b5061340060026133e8848a6132eb565b868060c01b0391549060031b1c169201918254613034565b9055016133b3565b506001948501805468ff0000000000000000191668040000000000000000179055930193915061338e9050565b915050565b6001600160a01b03165f9081526009602052604090208054600160401b81101561110d5761346d916001820181556132eb565b819291549060031b91821b915f19901b1916179055565b5f80916040516134bf816134b1602082019463104c13eb60e21b8652602060248401526044830190612e1c565b03601f198101835282612c58565b51906a636f6e736f6c652e6c6f675afa50565b5f809160405160208101916327b7cf8560e01b83526024820152602481526134bf604482612c58565b9060ff166012811061350b575090565b60120360ff81116110105760ff1690604d82116110105761352f91600a0a90613041565b90565b5f1981146110105760010190565b9360025491825f52600160205260405f20549080871080159061373d575b61372e57865f525f60205260405f20541561371f57855183518114908115916136ff575b506136f0576001613593828761306c565b106136e15785515f19810191908211611010576135b0888261306c565b905f525f6020526135c660405f20549188613213565b51146136d6576135d69083613213565b51116135eb57631f17929160e21b5f5260045ffd5b60018501808611611010575b83811115613687575050808210613644575b50916040917fb68477c768bbb33b4f238a3dfd17c33c499268c59cd042b7936bbc23dc2bdd34936002555182519182526020820152a1600190565b60018201808311611010575b8181111561365e5750613609565b80613682915f525f6020525f6040812055805f5260016020525f6040812055613532565b613650565b8061369e613698886136d19461306c565b87613213565b51815f525f60205260405f20556136be6136b8888361306c565b84613213565b51815f52600160205260405f2055613532565b6135f7565b505050505050505f90565b6341305f6360e01b5f5260045ffd5b63d4d34e9960e01b5f5260045ffd5b905061370b888761306c565b90600182018092116110105714155f613582565b63575f3da360e01b5f5260045ffd5b63f198a75d60e01b5f5260045ffd5b508481101561355e565b60ff5f5160206138115f395f51905f525460401c161561376357565b631afcd79f60e31b5f5260045ffd5b90613796575080511561378757805190602001fd5b630a12f52160e11b5f5260045ffd5b815115806137c7575b6137a7575090565b639996b31560e01b5f9081526001600160a01b0391909116600452602490fd5b50803b1561379f56fe9016d09d72d40fdae2fd8ceac6b6234c7706214fd39c1cd1e609a0528c199300360894a13ba1a3210667c828492db98dca3e2076cc3735a920a3ca505d382bbcf0c57e16840df040f15088dc2f81fe391c3923bec73e23a9662efc9c229c6a00a2646970667358221220690111389656e2a5bc333a16ec2adff10a8cdec92e7eeda78a6f881866b7a36064736f6c634300081b0033f0c57e16840df040f15088dc2f81fe391c3923bec73e23a9662efc9c229c6a00","linkReferences":{}},"methodIdentifiers":{"UPGRADE_INTERFACE_VERSION()":"ad3cb1cc","addPermissionedHypernode(address)":"f53e31cf","bpScale()":"35106fab","buildPublicInputs(uint256,bytes32,bytes32,uint32,uint64,uint64,bytes32[],uint256[],bool)":"c7785af0","calculateRetargetHeight(uint256)":"b9b2a982","challengePeriod()":"f3f480d9","circuitVerificationKey()":"3d7b22b3","currentHeight()":"163de0c5","depositLiquidity(uint256,uint64,bytes22)":"803d5f62","depositToken()":"c89039c5","depositVaults(uint256)":"5f4d0610","getAreDepositsPaused()":"b01c27d1","getBlockHash(uint256)":"ee82ac5e","getChainwork(uint256)":"cda7d82c","getDepositVault(uint256)":"276d080e","getDepositVaultUnreservedBalance(uint256)":"6512d057","getDepositVaultsLength()":"7dce5550","getLiquidityProvider(address)":"98f9e757","getReservation(uint256)":"d57763c3","getReservationLength()":"ea6fe03e","initialize(uint256,bytes32,bytes32,uint256,address,address,address,address,bytes32,address[])":"bff20f78","isDepositNewLiquidityPaused()":"8cc63cdd","owner()":"8da5cb5b","permissionedHypernodes(address)":"d825a692","protocolFeeBP()":"c5fba0b8","proveBlocks(uint32,uint64,uint64,bytes32[],uint256[],bytes)":"e102f9c1","proxiableUUID()":"52d1902d","releaseLiquidity(uint256)":"77891907","removePermissionedHypernode(address)":"4a8484ea","renounceOwnership()":"715018a6","reservationLockupPeriod()":"e5791596","reserveLiquidity(address,uint256[],uint192[],address,uint256,uint256[])":"d8418403","scale()":"f51e181a","submitSwapProof(uint256,bytes32,bytes32,uint32,uint64,uint64,bytes32[],uint256[],bytes)":"ecdea06f","swapReservations(uint256)":"6b994abb","tokenDecimals()":"3b97e856","transferOwnership(address)":"f2fde38b","updateExchangeRate(uint256,uint64,uint256[])":"505675dd","updateFeeRouter(address)":"73e149e6","updateNewLiquidityDepositsPaused(bool)":"7a9059a2","updateProtocolFee(uint8)":"0a7aa293","upgradeToAndCall(address,bytes)":"4f1ef286","validateBlockExists(uint256)":"ed8b2b32","verifierContract()":"cf695688","withdrawLiquidity(uint256,uint192,uint256[])":"a3db99d9"},"storageLayout":{"storage":[{"astId":57629,"contract":"src/RiftExchange.sol:RiftExchange","label":"blockchain","offset":0,"slot":"0","type":"t_mapping(t_uint256,t_bytes32)"},{"astId":57633,"contract":"src/RiftExchange.sol:RiftExchange","label":"chainworks","offset":0,"slot":"1","type":"t_mapping(t_uint256,t_uint256)"},{"astId":57635,"contract":"src/RiftExchange.sol:RiftExchange","label":"currentHeight","offset":0,"slot":"2","type":"t_uint256"},{"astId":59026,"contract":"src/RiftExchange.sol:RiftExchange","label":"depositToken","offset":0,"slot":"3","type":"t_contract(IERC20)58918"},{"astId":59028,"contract":"src/RiftExchange.sol:RiftExchange","label":"tokenDecimals","offset":20,"slot":"3","type":"t_uint8"},{"astId":59030,"contract":"src/RiftExchange.sol:RiftExchange","label":"circuitVerificationKey","offset":0,"slot":"4","type":"t_bytes32"},{"astId":59033,"contract":"src/RiftExchange.sol:RiftExchange","label":"verifierContract","offset":0,"slot":"5","type":"t_contract(ISP1Verifier)56945"},{"astId":59035,"contract":"src/RiftExchange.sol:RiftExchange","label":"isDepositNewLiquidityPaused","offset":20,"slot":"5","type":"t_bool"},{"astId":59037,"contract":"src/RiftExchange.sol:RiftExchange","label":"protocolFeeBP","offset":21,"slot":"5","type":"t_uint8"},{"astId":59039,"contract":"src/RiftExchange.sol:RiftExchange","label":"feeRouterAddress","offset":0,"slot":"6","type":"t_address"},{"astId":59043,"contract":"src/RiftExchange.sol:RiftExchange","label":"depositVaults","offset":0,"slot":"7","type":"t_array(t_struct(DepositVault)58984_storage)dyn_storage"},{"astId":59047,"contract":"src/RiftExchange.sol:RiftExchange","label":"swapReservations","offset":0,"slot":"8","type":"t_array(t_struct(SwapReservation)58965_storage)dyn_storage"},{"astId":59052,"contract":"src/RiftExchange.sol:RiftExchange","label":"liquidityProviders","offset":0,"slot":"9","type":"t_mapping(t_address,t_struct(LiquidityProvider)58969_storage)"},{"astId":59056,"contract":"src/RiftExchange.sol:RiftExchange","label":"permissionedHypernodes","offset":0,"slot":"10","type":"t_mapping(t_address,t_bool)"}],"types":{"t_address":{"encoding":"inplace","label":"address","numberOfBytes":"20"},"t_array(t_struct(DepositVault)58984_storage)dyn_storage":{"encoding":"dynamic_array","label":"struct RiftExchange.DepositVault[]","numberOfBytes":"32","base":"t_struct(DepositVault)58984_storage"},"t_array(t_struct(SwapReservation)58965_storage)dyn_storage":{"encoding":"dynamic_array","label":"struct RiftExchange.SwapReservation[]","numberOfBytes":"32","base":"t_struct(SwapReservation)58965_storage"},"t_array(t_uint192)dyn_storage":{"encoding":"dynamic_array","label":"uint192[]","numberOfBytes":"32","base":"t_uint192"},"t_array(t_uint256)dyn_storage":{"encoding":"dynamic_array","label":"uint256[]","numberOfBytes":"32","base":"t_uint256"},"t_array(t_uint64)dyn_storage":{"encoding":"dynamic_array","label":"uint64[]","numberOfBytes":"32","base":"t_uint64"},"t_bool":{"encoding":"inplace","label":"bool","numberOfBytes":"1"},"t_bytes22":{"encoding":"inplace","label":"bytes22","numberOfBytes":"22"},"t_bytes32":{"encoding":"inplace","label":"bytes32","numberOfBytes":"32"},"t_contract(IERC20)58918":{"encoding":"inplace","label":"contract IERC20","numberOfBytes":"20"},"t_contract(ISP1Verifier)56945":{"encoding":"inplace","label":"contract ISP1Verifier","numberOfBytes":"20"},"t_enum(ReservationState)58930":{"encoding":"inplace","label":"enum RiftExchange.ReservationState","numberOfBytes":"1"},"t_mapping(t_address,t_bool)":{"encoding":"mapping","key":"t_address","label":"mapping(address => bool)","numberOfBytes":"32","value":"t_bool"},"t_mapping(t_address,t_struct(LiquidityProvider)58969_storage)":{"encoding":"mapping","key":"t_address","label":"mapping(address => struct RiftExchange.LiquidityProvider)","numberOfBytes":"32","value":"t_struct(LiquidityProvider)58969_storage"},"t_mapping(t_uint256,t_bytes32)":{"encoding":"mapping","key":"t_uint256","label":"mapping(uint256 => bytes32)","numberOfBytes":"32","value":"t_bytes32"},"t_mapping(t_uint256,t_uint256)":{"encoding":"mapping","key":"t_uint256","label":"mapping(uint256 => uint256)","numberOfBytes":"32","value":"t_uint256"},"t_struct(DepositVault)58984_storage":{"encoding":"inplace","label":"struct RiftExchange.DepositVault","numberOfBytes":"160","members":[{"astId":58971,"contract":"src/RiftExchange.sol:RiftExchange","label":"owner","offset":0,"slot":"0","type":"t_address"},{"astId":58973,"contract":"src/RiftExchange.sol:RiftExchange","label":"depositTimestamp","offset":20,"slot":"0","type":"t_uint64"},{"astId":58975,"contract":"src/RiftExchange.sol:RiftExchange","label":"initialBalance","offset":0,"slot":"1","type":"t_uint256"},{"astId":58977,"contract":"src/RiftExchange.sol:RiftExchange","label":"unreservedBalance","offset":0,"slot":"2","type":"t_uint256"},{"astId":58979,"contract":"src/RiftExchange.sol:RiftExchange","label":"withdrawnAmount","offset":0,"slot":"3","type":"t_uint256"},{"astId":58981,"contract":"src/RiftExchange.sol:RiftExchange","label":"exchangeRate","offset":0,"slot":"4","type":"t_uint64"},{"astId":58983,"contract":"src/RiftExchange.sol:RiftExchange","label":"btcPayoutLockingScript","offset":8,"slot":"4","type":"t_bytes22"}]},"t_struct(LiquidityProvider)58969_storage":{"encoding":"inplace","label":"struct RiftExchange.LiquidityProvider","numberOfBytes":"32","members":[{"astId":58968,"contract":"src/RiftExchange.sol:RiftExchange","label":"depositVaultIndexes","offset":0,"slot":"0","type":"t_array(t_uint256)dyn_storage"}]},"t_struct(SwapReservation)58965_storage":{"encoding":"inplace","label":"struct RiftExchange.SwapReservation","numberOfBytes":"352","members":[{"astId":58932,"contract":"src/RiftExchange.sol:RiftExchange","label":"owner","offset":0,"slot":"0","type":"t_address"},{"astId":58934,"contract":"src/RiftExchange.sol:RiftExchange","label":"confirmationBlockHeight","offset":20,"slot":"0","type":"t_uint32"},{"astId":58936,"contract":"src/RiftExchange.sol:RiftExchange","label":"reservationTimestamp","offset":24,"slot":"0","type":"t_uint64"},{"astId":58938,"contract":"src/RiftExchange.sol:RiftExchange","label":"liquidityUnlockedTimestamp","offset":0,"slot":"1","type":"t_uint64"},{"astId":58941,"contract":"src/RiftExchange.sol:RiftExchange","label":"state","offset":8,"slot":"1","type":"t_enum(ReservationState)58930"},{"astId":58943,"contract":"src/RiftExchange.sol:RiftExchange","label":"ethPayoutAddress","offset":9,"slot":"1","type":"t_address"},{"astId":58945,"contract":"src/RiftExchange.sol:RiftExchange","label":"lpReservationHash","offset":0,"slot":"2","type":"t_bytes32"},{"astId":58947,"contract":"src/RiftExchange.sol:RiftExchange","label":"nonce","offset":0,"slot":"3","type":"t_bytes32"},{"astId":58949,"contract":"src/RiftExchange.sol:RiftExchange","label":"totalSatsInputIncludingProxyFee","offset":0,"slot":"4","type":"t_uint256"},{"astId":58951,"contract":"src/RiftExchange.sol:RiftExchange","label":"totalSwapOutputAmount","offset":0,"slot":"5","type":"t_uint256"},{"astId":58953,"contract":"src/RiftExchange.sol:RiftExchange","label":"proposedBlockHeight","offset":0,"slot":"6","type":"t_uint64"},{"astId":58955,"contract":"src/RiftExchange.sol:RiftExchange","label":"proposedBlockHash","offset":0,"slot":"7","type":"t_bytes32"},{"astId":58958,"contract":"src/RiftExchange.sol:RiftExchange","label":"vaultIndexes","offset":0,"slot":"8","type":"t_array(t_uint256)dyn_storage"},{"astId":58961,"contract":"src/RiftExchange.sol:RiftExchange","label":"amountsToReserve","offset":0,"slot":"9","type":"t_array(t_uint192)dyn_storage"},{"astId":58964,"contract":"src/RiftExchange.sol:RiftExchange","label":"expectedSatsOutput","offset":0,"slot":"10","type":"t_array(t_uint64)dyn_storage"}]},"t_uint192":{"encoding":"inplace","label":"uint192","numberOfBytes":"24"},"t_uint256":{"encoding":"inplace","label":"uint256","numberOfBytes":"32"},"t_uint32":{"encoding":"inplace","label":"uint32","numberOfBytes":"4"},"t_uint64":{"encoding":"inplace","label":"uint64","numberOfBytes":"8"},"t_uint8":{"encoding":"inplace","label":"uint8","numberOfBytes":"1"}}},"id":64}