{"abi":[{"type":"constructor","inputs":[{"name":"initialCheckpointHeight","type":"uint256","internalType":"uint256"},{"name":"initialBlockHash","type":"bytes32","internalType":"bytes32"},{"name":"initialRetargetBlockHash","type":"bytes32","internalType":"bytes32"},{"name":"initialChainwork","type":"uint256","internalType":"uint256"},{"name":"verifierContractAddress","type":"address","internalType":"address"},{"name":"depositTokenAddress","type":"address","internalType":"address"},{"name":"initialFeeRouterAddress","type":"address","internalType":"address"},{"name":"owner","type":"address","internalType":"address"},{"name":"circuitVerificationKey","type":"bytes32","internalType":"bytes32"},{"name":"minimumConfirmationDelta","type":"uint8","internalType":"uint8"}],"stateMutability":"nonpayable"},{"type":"function","name":"CHALLENGE_PERIOD","inputs":[],"outputs":[{"name":"","type":"uint32","internalType":"uint32"}],"stateMutability":"view"},{"type":"function","name":"CIRCUIT_VERIFICATION_KEY","inputs":[],"outputs":[{"name":"","type":"bytes32","internalType":"bytes32"}],"stateMutability":"view"},{"type":"function","name":"DEPOSIT_TOKEN","inputs":[],"outputs":[{"name":"","type":"address","internalType":"contract IERC20"}],"stateMutability":"view"},{"type":"function","name":"RESERVATION_LOCKUP_PERIOD","inputs":[],"outputs":[{"name":"","type":"uint32","internalType":"uint32"}],"stateMutability":"view"},{"type":"function","name":"TOKEN_DECIMALS","inputs":[],"outputs":[{"name":"","type":"uint8","internalType":"uint8"}],"stateMutability":"view"},{"type":"function","name":"VERIFIER_CONTRACT","inputs":[],"outputs":[{"name":"","type":"address","internalType":"contract ISP1Verifier"}],"stateMutability":"view"},{"type":"function","name":"calculateRetargetHeight","inputs":[{"name":"blockHeight","type":"uint256","internalType":"uint256"}],"outputs":[{"name":"","type":"uint256","internalType":"uint256"}],"stateMutability":"pure"},{"type":"function","name":"currentConfirmationHeight","inputs":[],"outputs":[{"name":"","type":"uint256","internalType":"uint256"}],"stateMutability":"view"},{"type":"function","name":"currentHeight","inputs":[],"outputs":[{"name":"","type":"uint256","internalType":"uint256"}],"stateMutability":"view"},{"type":"function","name":"depositLiquidity","inputs":[{"name":"depositAmount","type":"uint256","internalType":"uint256"},{"name":"exchangeRate","type":"uint64","internalType":"uint64"},{"name":"btcPayoutLockingScript","type":"bytes22","internalType":"bytes22"}],"outputs":[],"stateMutability":"nonpayable"},{"type":"function","name":"depositVaults","inputs":[{"name":"","type":"uint256","internalType":"uint256"}],"outputs":[{"name":"owner","type":"address","internalType":"address"},{"name":"depositTimestamp","type":"uint64","internalType":"uint64"},{"name":"initialBalance","type":"uint256","internalType":"uint256"},{"name":"unreservedBalance","type":"uint256","internalType":"uint256"},{"name":"withdrawnAmount","type":"uint256","internalType":"uint256"},{"name":"exchangeRate","type":"uint64","internalType":"uint64"},{"name":"btcPayoutLockingScript","type":"bytes22","internalType":"bytes22"}],"stateMutability":"view"},{"type":"function","name":"getAreDepositsPaused","inputs":[],"outputs":[{"name":"","type":"bool","internalType":"bool"}],"stateMutability":"view"},{"type":"function","name":"getBlockHash","inputs":[{"name":"blockHeight","type":"uint256","internalType":"uint256"}],"outputs":[{"name":"","type":"bytes32","internalType":"bytes32"}],"stateMutability":"view"},{"type":"function","name":"getChainwork","inputs":[{"name":"blockHeight","type":"uint256","internalType":"uint256"}],"outputs":[{"name":"","type":"uint256","internalType":"uint256"}],"stateMutability":"view"},{"type":"function","name":"getDepositVault","inputs":[{"name":"depositIndex","type":"uint256","internalType":"uint256"}],"outputs":[{"name":"","type":"tuple","internalType":"struct RiftExchange.DepositVault","components":[{"name":"owner","type":"address","internalType":"address"},{"name":"depositTimestamp","type":"uint64","internalType":"uint64"},{"name":"initialBalance","type":"uint256","internalType":"uint256"},{"name":"unreservedBalance","type":"uint256","internalType":"uint256"},{"name":"withdrawnAmount","type":"uint256","internalType":"uint256"},{"name":"exchangeRate","type":"uint64","internalType":"uint64"},{"name":"btcPayoutLockingScript","type":"bytes22","internalType":"bytes22"}]}],"stateMutability":"view"},{"type":"function","name":"getDepositVaultUnreservedBalance","inputs":[{"name":"depositIndex","type":"uint256","internalType":"uint256"}],"outputs":[{"name":"","type":"uint256","internalType":"uint256"}],"stateMutability":"view"},{"type":"function","name":"getDepositVaultsLength","inputs":[],"outputs":[{"name":"","type":"uint256","internalType":"uint256"}],"stateMutability":"view"},{"type":"function","name":"getLiquidityProvider","inputs":[{"name":"lpAddress","type":"address","internalType":"address"}],"outputs":[{"name":"","type":"tuple","internalType":"struct RiftExchange.LiquidityProvider","components":[{"name":"depositVaultIndexes","type":"uint256[]","internalType":"uint256[]"}]}],"stateMutability":"view"},{"type":"function","name":"getReservation","inputs":[{"name":"reservationIndex","type":"uint256","internalType":"uint256"}],"outputs":[{"name":"","type":"tuple","internalType":"struct RiftExchange.SwapReservation","components":[{"name":"owner","type":"address","internalType":"address"},{"name":"confirmationBlockHeight","type":"uint32","internalType":"uint32"},{"name":"reservationTimestamp","type":"uint64","internalType":"uint64"},{"name":"liquidityUnlockedTimestamp","type":"uint64","internalType":"uint64"},{"name":"state","type":"uint8","internalType":"enum RiftExchange.ReservationState"},{"name":"ethPayoutAddress","type":"address","internalType":"address"},{"name":"lpReservationHash","type":"bytes32","internalType":"bytes32"},{"name":"nonce","type":"bytes32","internalType":"bytes32"},{"name":"totalSatsInputIncludingProxyFee","type":"uint256","internalType":"uint256"},{"name":"totalSwapOutputAmount","type":"uint256","internalType":"uint256"},{"name":"proposedBlockHeight","type":"uint256","internalType":"uint256"},{"name":"proposedBlockHash","type":"bytes32","internalType":"bytes32"},{"name":"vaultIndexes","type":"uint256[]","internalType":"uint256[]"},{"name":"amountsToReserve","type":"uint192[]","internalType":"uint192[]"},{"name":"expectedSatsOutput","type":"uint64[]","internalType":"uint64[]"}]}],"stateMutability":"view"},{"type":"function","name":"getReservationLength","inputs":[],"outputs":[{"name":"","type":"uint256","internalType":"uint256"}],"stateMutability":"view"},{"type":"function","name":"isDepositNewLiquidityPaused","inputs":[],"outputs":[{"name":"","type":"bool","internalType":"bool"}],"stateMutability":"view"},{"type":"function","name":"owner","inputs":[],"outputs":[{"name":"","type":"address","internalType":"address"}],"stateMutability":"view"},{"type":"function","name":"protocolFeeBP","inputs":[],"outputs":[{"name":"","type":"uint8","internalType":"uint8"}],"stateMutability":"view"},{"type":"function","name":"releaseLiquidity","inputs":[{"name":"swapReservationIndex","type":"uint256","internalType":"uint256"}],"outputs":[],"stateMutability":"nonpayable"},{"type":"function","name":"reserveLiquidity","inputs":[{"name":"reservationOwner","type":"address","internalType":"address"},{"name":"vaultIndexesToReserve","type":"uint256[]","internalType":"uint256[]"},{"name":"amountsToReserve","type":"uint192[]","internalType":"uint192[]"},{"name":"ethPayoutAddress","type":"address","internalType":"address"},{"name":"totalSatsInputIncludingProxyFee","type":"uint256","internalType":"uint256"},{"name":"expiredSwapReservationIndexes","type":"uint256[]","internalType":"uint256[]"}],"outputs":[],"stateMutability":"nonpayable"},{"type":"function","name":"submitSwapProof","inputs":[{"name":"swapReservationIndex","type":"uint256","internalType":"uint256"},{"name":"bitcoinTxId","type":"bytes32","internalType":"bytes32"},{"name":"merkleRoot","type":"bytes32","internalType":"bytes32"},{"name":"safeBlockHeight","type":"uint32","internalType":"uint32"},{"name":"proposedBlockHeight","type":"uint64","internalType":"uint64"},{"name":"confirmationBlockHeight","type":"uint64","internalType":"uint64"},{"name":"blockHashes","type":"bytes32[]","internalType":"bytes32[]"},{"name":"blockChainworks","type":"uint256[]","internalType":"uint256[]"},{"name":"proof","type":"bytes","internalType":"bytes"}],"outputs":[],"stateMutability":"nonpayable"},{"type":"function","name":"swapReservations","inputs":[{"name":"","type":"uint256","internalType":"uint256"}],"outputs":[{"name":"owner","type":"address","internalType":"address"},{"name":"confirmationBlockHeight","type":"uint32","internalType":"uint32"},{"name":"reservationTimestamp","type":"uint64","internalType":"uint64"},{"name":"liquidityUnlockedTimestamp","type":"uint64","internalType":"uint64"},{"name":"state","type":"uint8","internalType":"enum RiftExchange.ReservationState"},{"name":"ethPayoutAddress","type":"address","internalType":"address"},{"name":"lpReservationHash","type":"bytes32","internalType":"bytes32"},{"name":"nonce","type":"bytes32","internalType":"bytes32"},{"name":"totalSatsInputIncludingProxyFee","type":"uint256","internalType":"uint256"},{"name":"totalSwapOutputAmount","type":"uint256","internalType":"uint256"},{"name":"proposedBlockHeight","type":"uint256","internalType":"uint256"},{"name":"proposedBlockHash","type":"bytes32","internalType":"bytes32"}],"stateMutability":"view"},{"type":"function","name":"transferOwnership","inputs":[{"name":"newOwner","type":"address","internalType":"address"}],"outputs":[],"stateMutability":"nonpayable"},{"type":"function","name":"updateExchangeRate","inputs":[{"name":"globalVaultIndex","type":"uint256","internalType":"uint256"},{"name":"newExchangeRate","type":"uint64","internalType":"uint64"},{"name":"expiredSwapReservationIndexes","type":"uint256[]","internalType":"uint256[]"}],"outputs":[],"stateMutability":"nonpayable"},{"type":"function","name":"updateFeeRouter","inputs":[{"name":"newProtocolAddress","type":"address","internalType":"address payable"}],"outputs":[],"stateMutability":"nonpayable"},{"type":"function","name":"updateNewLiquidityDepositsPaused","inputs":[{"name":"newPauseState","type":"bool","internalType":"bool"}],"outputs":[],"stateMutability":"nonpayable"},{"type":"function","name":"updateProtocolFee","inputs":[{"name":"newProtocolFeeBP","type":"uint8","internalType":"uint8"}],"outputs":[],"stateMutability":"nonpayable"},{"type":"function","name":"validateBlockExists","inputs":[{"name":"blockHeight","type":"uint256","internalType":"uint256"}],"outputs":[],"stateMutability":"view"},{"type":"function","name":"withdrawLiquidity","inputs":[{"name":"globalVaultIndex","type":"uint256","internalType":"uint256"},{"name":"localVaultIndex","type":"uint256","internalType":"uint256"},{"name":"amountToWithdraw","type":"uint192","internalType":"uint192"},{"name":"expiredSwapReservationIndexes","type":"uint256[]","internalType":"uint256[]"}],"outputs":[],"stateMutability":"nonpayable"},{"type":"event","name":"BlocksAdded","inputs":[{"name":"startBlockHeight","type":"uint256","indexed":false,"internalType":"uint256"},{"name":"count","type":"uint256","indexed":false,"internalType":"uint256"}],"anonymous":false},{"type":"event","name":"LiquidityDeposited","inputs":[{"name":"depositor","type":"address","indexed":true,"internalType":"address"},{"name":"depositVaultIndex","type":"uint256","indexed":false,"internalType":"uint256"},{"name":"amount","type":"uint256","indexed":false,"internalType":"uint256"},{"name":"exchangeRate","type":"uint64","indexed":false,"internalType":"uint64"}],"anonymous":false},{"type":"event","name":"LiquidityReserved","inputs":[{"name":"reserver","type":"address","indexed":true,"internalType":"address"},{"name":"swapReservationIndex","type":"uint256","indexed":false,"internalType":"uint256"},{"name":"orderNonce","type":"bytes32","indexed":false,"internalType":"bytes32"}],"anonymous":false},{"type":"event","name":"OwnershipTransferred","inputs":[{"name":"user","type":"address","indexed":true,"internalType":"address"},{"name":"newOwner","type":"address","indexed":true,"internalType":"address"}],"anonymous":false},{"type":"event","name":"ProofSubmitted","inputs":[{"name":"prover","type":"address","indexed":true,"internalType":"address"},{"name":"swapReservationIndex","type":"uint256","indexed":false,"internalType":"uint256"},{"name":"orderNonce","type":"bytes32","indexed":false,"internalType":"bytes32"}],"anonymous":false},{"type":"event","name":"SwapComplete","inputs":[{"name":"swapReservationIndex","type":"uint256","indexed":false,"internalType":"uint256"},{"name":"orderNonce","type":"bytes32","indexed":false,"internalType":"bytes32"}],"anonymous":false},{"type":"error","name":"AmountToReserveTooLow","inputs":[{"name":"index","type":"uint256","internalType":"uint256"}]},{"type":"error","name":"BlockDoesNotExist","inputs":[]},{"type":"error","name":"InvalidConfirmationBlock","inputs":[]},{"type":"error","name":"InvalidExchangeRate","inputs":[]},{"type":"error","name":"InvalidInputArrays","inputs":[]},{"type":"error","name":"InvalidProposedBlockOverwrite","inputs":[]},{"type":"error","name":"InvalidReservationState","inputs":[]},{"type":"error","name":"InvalidSafeBlock","inputs":[]},{"type":"error","name":"NewDepositsPaused","inputs":[]},{"type":"error","name":"NotEnoughLiquidity","inputs":[]},{"type":"error","name":"NotVaultOwner","inputs":[]},{"type":"error","name":"OverwrittenProposedBlock","inputs":[]},{"type":"error","name":"ReservationNotExpired","inputs":[]},{"type":"error","name":"ReservationNotProved","inputs":[]},{"type":"error","name":"StillInChallengePeriod","inputs":[]},{"type":"error","name":"UpdateExchangeRateError","inputs":[]},{"type":"error","name":"WithdrawalAmountError","inputs":[]}],"bytecode":{"object":"0x6101206040526004805461ffff60a01b1916600560a91b17905534801562000025575f80fd5b50604051620038b5380380620038b58339810160408190526200004891620001f0565b60028a90555f8a81526001602090815260408083208a90559082905281208a905583908b9089908c908c9086908290806200008388620001a2565b8152602081019190915260409081015f9081209290925560ff909216608052600480546001600160a01b0389166001600160a01b03199091168117909155915191955093507f8be0079c531659141344cd1fd0a4f28419497f9722a3daafe3b4186f6b6457e09250839150a35060e08290526001600160a01b0380871661010052851660a08190526040805163313ce56760e01b8152905163313ce567916004808201926020929091908290030181865afa15801562000145573d5f803e3d5ffd5b505050506040513d601f19601f820116820180604052508101906200016b91906200028c565b60ff1660c0525050600580546001600160a01b0319166001600160a01b03939093169290921790915550620002ef95505050505050565b5f620001b16107e083620002af565b620001bd9083620002cf565b92915050565b80516001600160a01b0381168114620001da575f80fd5b919050565b805160ff81168114620001da575f80fd5b5f805f805f805f805f806101408b8d0312156200020b575f80fd5b8a51995060208b0151985060408b0151975060608b015196506200023260808c01620001c3565b95506200024260a08c01620001c3565b94506200025260c08c01620001c3565b93506200026260e08c01620001c3565b92506101008b015191506200027b6101208c01620001df565b90509295989b9194979a5092959850565b5f602082840312156200029d575f80fd5b620002a882620001df565b9392505050565b5f82620002ca57634e487b7160e01b5f52601260045260245ffd5b500690565b81810381811115620001bd57634e487b7160e01b5f52601160045260245ffd5b60805160a05160c05160e051610100516135576200035e5f395f81816105040152611f8e01525f81816104850152611fbb01525f818161031101526118b101525f818161021b01528181610d3301528181610da00152818161115001526113c001525f61239d01526135575ff3fe608060405234801561000f575f80fd5b50600436106101fd575f3560e01c80638da5cb5b11610114578063cda7d82c116100a9578063ecdea06f11610079578063ecdea06f146105b0578063ed8b2b32146105c3578063ee82ac5e146105d6578063f2fde38b146105f5578063fba7816614610608575f80fd5b8063cda7d82c14610556578063d57763c314610575578063d841840314610595578063ea6fe03e146105a8575f80fd5b8063b8b24592116100e4578063b8b24592146104ff578063b9b2a98214610526578063c3a079ed14610539578063c5fba0b814610542575f80fd5b80638da5cb5b146104a757806398f9e757146104ba578063aeacb2e7146104da578063b01c27d1146104ed575f80fd5b80636b994abb116101955780637dce5550116101655780637dce555014610423578063803d5f621461042b57806389a11f7a1461043e5780638cc63cdd1461045c5780638d5ca05214610480575f80fd5b80636b994abb146103bf57806373e149e6146103ea57806377891907146103fd5780637a9059a214610410575f80fd5b8063505675dd116101d0578063505675dd146102f95780635b7f415c1461030c5780635f4d0610146103455780636512d057146103ac575f80fd5b80630a7aa2931461020157806313f6658714610216578063163de0c51461025a578063276d080e14610271575b5f80fd5b61021461020f36600461299a565b610611565b005b61023d7f000000000000000000000000000000000000000000000000000000000000000081565b6040516001600160a01b0390911681526020015b60405180910390f35b61026360025481565b604051908152602001610251565b61028461027f3660046129c1565b610664565b604051610251919081516001600160a01b031681526020808301516001600160401b039081169183019190915260408084015190830152606080840151908301526080808401519083015260a0838101519091169082015260c0918201516001600160501b0319169181019190915260e00190565b610214610307366004612ac5565b61073f565b6103337f000000000000000000000000000000000000000000000000000000000000000081565b60405160ff9091168152602001610251565b6103586103533660046129c1565b6109ef565b604080516001600160a01b0390981688526001600160401b039687166020890152870194909452606086019290925260808501529190911660a08301526001600160501b03191660c082015260e001610251565b6102636103ba3660046129c1565b610a58565b6103d26103cd3660046129c1565b610a83565b6040516102519c9b9a99989796959493929190612b4b565b6102146103f8366004612be0565b610b18565b61021461040b3660046129c1565b610b64565b61021461041e366004612c08565b610ea6565b600654610263565b610214610439366004612c23565b610eee565b61044761384081565b60405163ffffffff9091168152602001610251565b60045461047090600160a01b900460ff1681565b6040519015158152602001610251565b6102637f000000000000000000000000000000000000000000000000000000000000000081565b60045461023d906001600160a01b031681565b6104cd6104c8366004612be0565b611222565b6040516102519190612cb1565b6102146104e8366004612ce9565b6112a2565b600454600160a01b900460ff16610470565b61023d7f000000000000000000000000000000000000000000000000000000000000000081565b6102636105343660046129c1565b61143a565b61044761012c81565b60045461033390600160a81b900460ff1681565b6102636105643660046129c1565b5f9081526001602052604090205490565b6105886105833660046129c1565b611457565b6040516102519190612db5565b6102146105a3366004612eed565b61172f565b600754610263565b6102146105be366004613074565b611e4e565b6102146105d13660046129c1565b612114565b6102636105e43660046129c1565b5f9081526020819052604090205490565b610214610603366004612be0565b612142565b61026360035481565b6004546001600160a01b031633146106445760405162461bcd60e51b815260040161063b90613142565b60405180910390fd5b6004805460ff909216600160a81b0260ff60a81b19909216919091179055565b6040805160e0810182525f80825260208201819052918101829052606081018290526080810182905260a0810182905260c0810191909152600682815481106106af576106af613168565b5f9182526020918290206040805160e08101825260059390930290910180546001600160a01b0381168452600160a01b90046001600160401b039081169484019490945260018101549183019190915260028101546060830152600381015460808301526004015491821660a0820152600160401b90910460501b6001600160501b03191660c082015292915050565b336001600160a01b03166006848154811061075c5761075c613168565b5f9182526020909120600590910201546001600160a01b03161461079357604051630e7fea9d60e01b815260040160405180910390fd5b816001600160401b03165f036107bc5760405163a2ec3a5560e01b815260040160405180910390fd5b5f600684815481106107d0576107d0613168565b905f5260205f20906005020190505f816002015490506107ef836121b7565b8160010154810361081d5760048201805467ffffffffffffffff19166001600160401b0386161790556109e8565b805f0361083d57604051632b5daf8960e01b815260040160405180910390fd5b6040805160e08101825283546001600160a01b0390811682526001600160401b0342811660208401908152938301858152606084018681525f608086018181528b851660a0880190815260048b01546001600160501b0319600160401b91829004605090811b9190911660c08b01908152600680546001810182559087529a516005909b027ff652222313e28459528d920b65115c16c04f3efc82aaedc97be59f3f377c0d3f810180549d518b16600160a01b026001600160e01b0319909e169c909b169b909b179b909b1790985594517ff652222313e28459528d920b65115c16c04f3efc82aaedc97be59f3f377c0d4089015592517ff652222313e28459528d920b65115c16c04f3efc82aaedc97be59f3f377c0d41880155517ff652222313e28459528d920b65115c16c04f3efc82aaedc97be59f3f377c0d4287015590517ff652222313e28459528d920b65115c16c04f3efc82aaedc97be59f3f377c0d439095018054965190941c9091026001600160f01b03199095169390911692909217929092179091556003830180548392906109dc908490613190565b90915550505f60028301555b5050505050565b600681815481106109fe575f80fd5b5f918252602090912060059091020180546001820154600283015460038401546004909401546001600160a01b03841695506001600160401b03600160a01b9094048416949293919291811690600160401b900460501b87565b5f60068281548110610a6c57610a6c613168565b905f5260205f209060050201600201549050919050565b60078181548110610a92575f80fd5b5f9182526020909120600b9091020180546001820154600283015460038401546004850154600586015460068701546007909701546001600160a01b03808816995063ffffffff600160a01b890416986001600160401b03600160c01b90990489169888169760ff600160401b82041697600160481b909104909216959194919391928c565b6004546001600160a01b03163314610b425760405162461bcd60e51b815260040161063b90613142565b600580546001600160a01b0319166001600160a01b0392909216919091179055565b5f60078281548110610b7857610b78613168565b5f9182526020909120600b90910201905060026001820154600160401b900460ff166004811115610bab57610bab612b17565b14610bc9576040516320d55f6760e21b815260040160405180910390fd5b60018101546001600160401b0316421015610bf757604051632d5c37f560e21b815260040160405180910390fd5b610c2b604051806040016040528060138152602001721c1c9bdc1bdcd959109b1bd8dad2195a59da1d606a1b8152506122c5565b610c4c610c4782600601545f9081526020819052604090205490565b612308565b610c7e604051806040016040528060118152602001700e0e4dee0dee6cac884d8dec6d690c2e6d607b1b8152506122c5565b610c8b8160070154612308565b600781015460068201545f9081526020819052604090205414610cc15760405163c1f6fa5160e01b815260040160405180910390fd5b60018101805460ff60401b19166803000000000000000017905560045460058201545f9161271091610cfd91600160a81b900460ff16906131a3565b610d0791906131ce565b60055460405163a9059cbb60e01b81526001600160a01b039182166004820152602481018390529192507f0000000000000000000000000000000000000000000000000000000000000000169063a9059cbb906044016020604051808303815f875af1158015610d79573d5f803e3d5ffd5b505050506040513d601f19601f82011682018060405250810190610d9d91906131e1565b507f00000000000000000000000000000000000000000000000000000000000000006001600160a01b031663a9059cbb8360010160099054906101000a90046001600160a01b0316838560050154610df591906131fc565b6040516001600160e01b031960e085901b1681526001600160a01b03909216600483015260248201526044016020604051808303815f875af1158015610e3d573d5f803e3d5ffd5b505050506040513d601f19601f82011682018060405250810190610e6191906131e1565b5060038201546040805185815260208101929092527f12245c00d428a4c558061d2f69fe154a203bd2fb4a65b6c3e73e95ccdc735d18910160405180910390a1505050565b6004546001600160a01b03163314610ed05760405162461bcd60e51b815260040161063b90613142565b60048054911515600160a01b0260ff60a01b19909216919091179055565b600454600160a01b900460ff1615610f19576040516348010c6560e11b815260040160405180910390fd5b816001600160401b03165f03610f425760405163a2ec3a5560e01b815260040160405180910390fd5b335f908152600860205260408120549003610f8e57604080515f602080830182815283850185528352338252600881529290208151805192939192610f8a928492019061283e565b5050505b6040805160e081018252338082526001600160401b034281166020808501918252848601898152606086018a81525f608088018181528b871660a08a019081526001600160501b03198c1660c08b0190815260068054600181810183558287529c5160059091027ff652222313e28459528d920b65115c16c04f3efc82aaedc97be59f3f377c0d3f810180549b518d16600160a01b026001600160e01b0319909c166001600160a01b0393909316929092179a909a17905595517ff652222313e28459528d920b65115c16c04f3efc82aaedc97be59f3f377c0d4089015593517ff652222313e28459528d920b65115c16c04f3efc82aaedc97be59f3f377c0d4188015590517ff652222313e28459528d920b65115c16c04f3efc82aaedc97be59f3f377c0d42870155517ff652222313e28459528d920b65115c16c04f3efc82aaedc97be59f3f377c0d439095018054925160501c600160401b026001600160f01b03199093169590961694909417179093559281526008909252929020915461111991906131fc565b81546001810183555f9283526020909220909101556040516323b872dd60e01b8152336004820152306024820152604481018490527f00000000000000000000000000000000000000000000000000000000000000006001600160a01b0316906323b872dd906064016020604051808303815f875af115801561119e573d5f803e3d5ffd5b505050506040513d601f19601f820116820180604052508101906111c291906131e1565b5060065433907ffd5ab8914e1dca355d18ae7fe50627d3afe042f323e1b0ae31f3a9d2cd19de37906111f6906001906131fc565b60408051918252602082018790526001600160401b0386169082015260600160405180910390a2505050565b6040805160208082018352606082526001600160a01b0384165f908152600882528390208351815480840282018601865292810183815293949093919284929184919084018282801561129257602002820191905f5260205f20905b81548152602001906001019080831161127e575b5050505050815250509050919050565b335f9081526008602052604090208054859190859081106112c5576112c5613168565b905f5260205f200154146112ec57604051630e7fea9d60e01b815260040160405180910390fd5b6112f5816121b7565b5f6006858154811061130957611309613168565b905f5260205f2090600502019050826001600160c01b03165f148061133a57508060020154836001600160c01b0316115b156113585760405163b4e3d41360e01b815260040160405180910390fd5b826001600160c01b0316816002015f82825461137491906131fc565b92505081905550826001600160c01b0316816003015f8282546113979190613190565b909155505060405163a9059cbb60e01b81523360048201526001600160c01b03841660248201527f00000000000000000000000000000000000000000000000000000000000000006001600160a01b03169063a9059cbb906044016020604051808303815f875af115801561140e573d5f803e3d5ffd5b505050506040513d601f19601f8201168201806040525081019061143291906131e1565b505050505050565b5f6114476107e08361320f565b61145190836131fc565b92915050565b604080516101e0810182525f8082526020820181905291810182905260608082018390526080820183905260a0820183905260c0820183905260e0820183905261010082018390526101208201839052610140820183905261016082019290925261018081018290526101a081018290526101c0810191909152600782815481106114e4576114e4613168565b5f918252602091829020604080516101e081018252600b90930290910180546001600160a01b038116845263ffffffff600160a01b820416948401949094526001600160401b03600160c01b909404841691830191909152600181015492831660608301529091608083019060ff600160401b90910416600481111561156c5761156c612b17565b600481111561157d5761157d612b17565b81526020016001820160099054906101000a90046001600160a01b03166001600160a01b03166001600160a01b031681526020016002820154815260200160038201548152602001600482015481526020016005820154815260200160068201548152602001600782015481526020016008820180548060200260200160405190810160405280929190818152602001828054801561163957602002820191905f5260205f20905b815481526020019060010190808311611625575b505050505081526020016009820180548060200260200160405190810160405280929190818152602001828054801561169957602002820191905f5260205f20905b81546001600160c01b0316815260019091019060200180831161167b575b50505050508152602001600a820180548060200260200160405190810160405280929190818152602001828054801561129257602002820191905f5260205f20905f905b82829054906101000a90046001600160401b03166001600160401b0316815260200190600801906020826007010492830192600103820291508084116116dd5790505050505050815250509050919050565b8451158061173f57508351855114155b1561175d5760405163744bba7b60e01b815260040160405180910390fd5b5f5b84518110156117b55784818151811061177a5761177a613168565b60200260200101516001600160c01b03165f036117ad57604051633143436b60e11b81526004810182905260240161063b565b60010161175f565b505f805f87516001600160401b038111156117d2576117d26129f3565b6040519080825280602002602001820160405280156117fb578160200160208202803683370190505b5090505f5b8751811015611927575f60068a838151811061181e5761181e613168565b60200260200101518154811061183657611836613168565b5f91825260209091206004600590920201015489516001600160401b03909116915089908390811061186a5761186a613168565b60200260200101516001600160c01b0316856118869190613190565b94505f6118d58a848151811061189e5761189e613168565b60200260200101516001600160c01b03167f000000000000000000000000000000000000000000000000000000000000000061234d565b90505f6118e283836131ce565b90506118ee8187613190565b95508085858151811061190357611903613168565b6001600160401b039290921660209283029190910190910152505050600101611800565b50611931846121b7565b5f805b8951811015611ab257600283828151811061195157611951613168565b602002602001015160068c848151811061196d5761196d613168565b60200260200101518154811061198557611985613168565b5f91825260209182902060046005909202010154604080516001600160401b03909416928401929092526001600160501b0319600160401b90910460501b16908201526060810184905260800160408051601f19818403018152908290526119ec91613244565b602060405180830381855afa158015611a07573d5f803e3d5ffd5b5050506040513d601f19601f82011682018060405250810190611a2a919061325f565b915060068a8281518110611a4057611a40613168565b602002602001015181548110611a5857611a58613168565b905f5260205f20906005020160020154898281518110611a7a57611a7a613168565b60200260200101516001600160c01b03161115611aaa57604051634323a55560e01b815260040160405180910390fd5b600101611934565b50600754604080516001600160a01b038a16602082015242918101919091524660608201526080810183905260a08101919091525f9060c00160408051601f1981840301815282825280516020918201206101e0840183526001600160a01b038f1684525f9184018290526001600160401b034216928401929092526060830152915060079060808101600181526020018a6001600160a01b031681526020018481526020018381526020018981526020018781526020015f81526020015f801b81526020018c81526020018b815260200185815250908060018154018082558091505060019003905f5260205f2090600b02015f909190919091505f820151815f015f6101000a8154816001600160a01b0302191690836001600160a01b031602179055506020820151815f0160146101000a81548163ffffffff021916908363ffffffff1602179055506040820151815f0160186101000a8154816001600160401b0302191690836001600160401b031602179055506060820151816001015f6101000a8154816001600160401b0302191690836001600160401b0316021790555060808201518160010160086101000a81548160ff02191690836004811115611c8057611c80612b17565b021790555060a08201516001820180546001600160a01b03909216600160481b027fffffff0000000000000000000000000000000000000000ffffffffffffffffff90921691909117905560c0820151600282015560e0820151600382015561010082015160048201556101208201516005820155610140820151600682015561016082015160078201556101808201518051611d2791600884019160209091019061283e565b506101a08201518051611d44916009840191602090910190612887565b506101c08201518051611d6191600a8401916020909101906128da565b5050505f5b8a51811015611de857898181518110611d8157611d81613168565b60200260200101516001600160c01b031660068c8381518110611da657611da6613168565b602002602001015181548110611dbe57611dbe613168565b905f5260205f2090600502016002015f828254611ddb91906131fc565b9091555050600101611d66565b508a6001600160a01b03167f5956135c9be999a50f7ff4ea49ddf1485bc321ab333dc7a0877633eeb47528936001611e1f60075490565b611e2991906131fc565b6040805191825260208201859052015b60405180910390a25050505050505050505050565b5f60078a81548110611e6257611e62613168565b5f9182526020909120600b909102019050600180820154600160401b900460ff166004811115611e9457611e94612b17565b14611eb257604051639085371960e01b815260040160405180910390fd5b5f6040518061016001604052808b81526020018a8152602001836002015481526020018360030154815260200183600801805490506001600160401b03168152602001611f076105e48b63ffffffff1661143a565b815263ffffffff8a1660208201819052604090910190611f27908a613276565b6001600160401b03168152602001611f3f8989613276565b6001600160401b0316815260200186815260200185815250604051602001611f67919061329d565b60408051601f198184030181529082905263020a49e360e51b825291506001600160a01b037f000000000000000000000000000000000000000000000000000000000000000016906341493c6090611fe7907f000000000000000000000000000000000000000000000000000000000000000090859088906004016133a6565b5f6040518083038186803b158015611ffd575f80fd5b505afa15801561200f573d5f803e3d5ffd5b506120469250505063ffffffff89166001600160401b038981169089168888612038858e613276565b6001600160401b0316612388565b60018201805460ff60401b19166802000000000000000017905561206c61012c426133d0565b60018301805467ffffffffffffffff19166001600160401b0392831617905587166006830155846120a363ffffffff8a1689613276565b6001600160401b0316815181106120bc576120bc613168565b60200260200101518260070181905550336001600160a01b03167f8bcdab581a6176f792fa96b0c57d32273bcd8621b0548c15a9c6379dc246e26c8c8460030154604051611e39929190918252602082015260400190565b5f8181526020819052604090205461213f5760405163fa4a5e4560e01b815260040160405180910390fd5b50565b6004546001600160a01b0316331461216c5760405162461bcd60e51b815260040161063b90613142565b600480546001600160a01b0319166001600160a01b03831690811790915560405133907f8be0079c531659141344cd1fd0a4f28419497f9722a3daafe3b4186f6b6457e0905f90a350565b6121c081612728565b5f5b81518110156122c1575f60078383815181106121e0576121e0613168565b6020026020010151815481106121f8576121f8613168565b905f5260205f2090600b020190505f5b600882015481101561229f575f600683600801838154811061222c5761222c613168565b905f5260205f2001548154811061224557612245613168565b905f5260205f209060050201905082600901828154811061226857612268613168565b5f9182526020822001546002830180546001600160c01b03909216929091612291908490613190565b909155505050600101612208565b506001908101805460ff60401b191668040000000000000000179055016121c2565b5050565b61213f816040516024016122d991906133f0565b60408051601f198184030181529190526020810180516001600160e01b031663104c13eb60e21b17905261281e565b61213f8160405160240161231e91815260200190565b60408051601f198184030181529190526020810180516001600160e01b03166327b7cf8560e01b17905261281e565b5f60128260ff16101561238157612365826012613402565b61237090600a6134fb565b61237a90846131a3565b9050611451565b5090919050565b6002545f8181526001602052604090205460ff7f0000000000000000000000000000000000000000000000000000000000000000166123c788886131fc565b1015612421575f86815260208190526040902054855186906123eb906001906131fc565b815181106123fb576123fb613168565b602002602001015114612421576040516341305f6360e01b815260040160405180910390fd5b818811156124425760405163575f3da360e01b815260040160405180910390fd5b84838151811061245457612454613168565b60200260200101515f808981526020019081526020015f205403612479575050611432565b5f87815260208190526040902054158015906124bb5750836001855161249f91906131fc565b815181106124af576124af613168565b60200260200101518110155b156124d9576040516371e98f3d60e11b815260040160405180910390fd5b818711156125df5781880361254a578483815181106124fa576124fa613168565b60200260200101515f808981526020019081526020015f208190555083838151811061252857612528613168565b602002602001015160015f8981526020019081526020015f2081905550612645565b818810156125da57875b8781116125d857856125668a836131fc565b8151811061257657612576613168565b6020908102919091018101515f838152918290526040909120558461259b8a836131fc565b815181106125ab576125ab613168565b6020908102919091018101515f8381526001909252604090912055806125d081613509565b915050612554565b505b612645565b81871015612645578483815181106125f9576125f9613168565b60200260200101515f808981526020019081526020015f208190555083838151811061262757612627613168565b602002602001015160015f8981526020019081526020015f20819055505b6002548711156126555760028790555b5f61265f8861143a565b90505f61266b8861143a565b90508181146126e0575f61267f828a6131fc565b905087818151811061269357612693613168565b60200260200101515f808481526020019081526020015f20819055508681815181106126c1576126c1613168565b602002602001015160015f8481526020019081526020015f2081905550505b8651604080518c815260208101929092527fb68477c768bbb33b4f238a3dfd17c33c499268c59cd042b7936bbc23dc2bdd34910160405180910390a150505050505050505050565b5f5b81518110156122c15761384063ffffffff16600783838151811061275057612750613168565b60200260200101518154811061276857612768613168565b5f9182526020909120600b909102015461279290600160c01b90046001600160401b0316426131fc565b10806127f85750600160078383815181106127af576127af613168565b6020026020010151815481106127c7576127c7613168565b905f5260205f2090600b020160010160089054906101000a900460ff1660048111156127f5576127f5612b17565b14155b15612816576040516326349d6b60e01b815260040160405180910390fd5b60010161272a565b80516a636f6e736f6c652e6c6f67602083015f808483855afa5050505050565b828054828255905f5260205f20908101928215612877579160200282015b8281111561287757825182559160200191906001019061285c565b50612883929150612986565b5090565b828054828255905f5260205f20908101928215612877579160200282015b8281111561287757825182546001600160c01b0319166001600160c01b039091161782556020909201916001909101906128a5565b828054828255905f5260205f2090600301600490048101928215612877579160200282015f5b8382111561294a57835183826101000a8154816001600160401b0302191690836001600160401b031602179055509260200192600801602081600701049283019260010302612900565b801561297d5782816101000a8154906001600160401b03021916905560080160208160070104928301926001030261294a565b50506128839291505b5b80821115612883575f8155600101612987565b5f602082840312156129aa575f80fd5b813560ff811681146129ba575f80fd5b9392505050565b5f602082840312156129d1575f80fd5b5035919050565b80356001600160401b03811681146129ee575f80fd5b919050565b634e487b7160e01b5f52604160045260245ffd5b604051601f8201601f191681016001600160401b0381118282101715612a2f57612a2f6129f3565b604052919050565b5f6001600160401b03821115612a4f57612a4f6129f3565b5060051b60200190565b5f82601f830112612a68575f80fd5b81356020612a7d612a7883612a37565b612a07565b8083825260208201915060208460051b870101935086841115612a9e575f80fd5b602086015b84811015612aba5780358352918301918301612aa3565b509695505050505050565b5f805f60608486031215612ad7575f80fd5b83359250612ae7602085016129d8565b915060408401356001600160401b03811115612b01575f80fd5b612b0d86828701612a59565b9150509250925092565b634e487b7160e01b5f52602160045260245ffd5b60058110612b4757634e487b7160e01b5f52602160045260245ffd5b9052565b6001600160a01b038d8116825263ffffffff8d1660208301526001600160401b038c811660408401528b166060830152610180820190612b8e608084018c612b2b565b9890981660a082015260c081019690965260e08601949094526101008501929092526101208401526101408301526101609091015295945050505050565b6001600160a01b038116811461213f575f80fd5b5f60208284031215612bf0575f80fd5b81356129ba81612bcc565b801515811461213f575f80fd5b5f60208284031215612c18575f80fd5b81356129ba81612bfb565b5f805f60608486031215612c35575f80fd5b83359250612c45602085016129d8565b915060408401356001600160501b031981168114612c61575f80fd5b809150509250925092565b80356129ee81612bcc565b5f815180845260208085019450602084015f5b83811015612ca657815187529582019590820190600101612c8a565b509495945050505050565b602081525f8251602080840152612ccb6040840182612c77565b949350505050565b80356001600160c01b03811681146129ee575f80fd5b5f805f8060808587031215612cfc575f80fd5b8435935060208501359250612d1360408601612cd3565b915060608501356001600160401b03811115612d2d575f80fd5b612d3987828801612a59565b91505092959194509250565b5f815180845260208085019450602084015f5b83811015612ca65781516001600160c01b031687529582019590820190600101612d58565b5f815180845260208085019450602084015f5b83811015612ca65781516001600160401b031687529582019590820190600101612d90565b60208152612dcf6020820183516001600160a01b03169052565b5f6020830151612de7604084018263ffffffff169052565b5060408301516001600160401b03811660608401525060608301516001600160401b0381166080840152506080830151612e2460a0840182612b2b565b5060a08301516001600160a01b03811660c08401525060c083015160e08381019190915283015161010080840191909152830151610120808401919091528301516101408084019190915283015161016080840191909152830151610180808401919091528301516101e06101a0808501829052612ea6610200860184612c77565b9250808601519050601f196101c0818786030181880152612ec78584612d45565b908801518782039092018488015293509050612ee38382612d7d565b9695505050505050565b5f805f805f8060c08789031215612f02575f80fd5b8635612f0d81612bcc565b95506020878101356001600160401b0380821115612f29575f80fd5b612f358b838c01612a59565b975060408a0135915080821115612f4a575f80fd5b818a0191508a601f830112612f5d575f80fd5b8135612f6b612a7882612a37565b81815260059190911b8301840190848101908d831115612f89575f80fd5b938501935b82851015612fae57612f9f85612cd3565b82529385019390850190612f8e565b9850612fbf91505060608b01612c6c565b955060808a0135945060a08a0135925080831115612fdb575f80fd5b5050612fe989828a01612a59565b9150509295509295509295565b803563ffffffff811681146129ee575f80fd5b5f82601f830112613018575f80fd5b81356001600160401b03811115613031576130316129f3565b613044601f8201601f1916602001612a07565b818152846020838601011115613058575f80fd5b816020850160208301375f918101602001919091529392505050565b5f805f805f805f805f6101208a8c03121561308d575f80fd5b8935985060208a0135975060408a013596506130ab60608b01612ff6565b95506130b960808b016129d8565b94506130c760a08b016129d8565b935060c08a01356001600160401b03808211156130e2575f80fd5b6130ee8d838e01612a59565b945060e08c0135915080821115613103575f80fd5b61310f8d838e01612a59565b93506101008c0135915080821115613125575f80fd5b506131328c828d01613009565b9150509295985092959850929598565b6020808252600c908201526b15539055551213d49256915160a21b604082015260600190565b634e487b7160e01b5f52603260045260245ffd5b634e487b7160e01b5f52601160045260245ffd5b808201808211156114515761145161317c565b80820281158282048414176114515761145161317c565b634e487b7160e01b5f52601260045260245ffd5b5f826131dc576131dc6131ba565b500490565b5f602082840312156131f1575f80fd5b81516129ba81612bfb565b818103818111156114515761145161317c565b5f8261321d5761321d6131ba565b500690565b5f5b8381101561323c578181015183820152602001613224565b50505f910152565b5f8251613255818460208701613222565b9190910192915050565b5f6020828403121561326f575f80fd5b5051919050565b6001600160401b038281168282160390808211156132965761329661317c565b5092915050565b60208152815160208201526020820151604082015260408201516060820152606082015160808201525f60808301516132e160a08401826001600160401b03169052565b5060a083015160c083015260c083015161330660e08401826001600160401b03169052565b5060e0830151610100613323818501836001600160401b03169052565b840151905061012061333f848201836001600160401b03169052565b80850151915050610160610140818186015261335f610180860184612c77565b90860151858203601f190183870152909250612ee38382612c77565b5f8151808452613392816020860160208601613222565b601f01601f19169290920160200192915050565b838152606060208201525f6133be606083018561337b565b8281036040840152612ee3818561337b565b6001600160401b038181168382160190808211156132965761329661317c565b602081525f6129ba602083018461337b565b60ff82811682821603908111156114515761145161317c565b600181815b8085111561345557815f190482111561343b5761343b61317c565b8085161561344857918102915b93841c9390800290613420565b509250929050565b5f8261346b57506001611451565b8161347757505f611451565b816001811461348d5760028114613497576134b3565b6001915050611451565b60ff8411156134a8576134a861317c565b50506001821b611451565b5060208310610133831016604e8410600b84101617156134d6575081810a611451565b6134e0838361341b565b805f19048211156134f3576134f361317c565b029392505050565b5f6129ba60ff84168361345d565b5f6001820161351a5761351a61317c565b506001019056fea26469706673582212203b1f8f8a64e3444bb93627b1211121c385777a31dbe1fbeb6a6ba31911e31f4264736f6c63430008180033","linkReferences":{}},"methodIdentifiers":{"CHALLENGE_PERIOD()":"c3a079ed","CIRCUIT_VERIFICATION_KEY()":"8d5ca052","DEPOSIT_TOKEN()":"13f66587","RESERVATION_LOCKUP_PERIOD()":"89a11f7a","TOKEN_DECIMALS()":"5b7f415c","VERIFIER_CONTRACT()":"b8b24592","calculateRetargetHeight(uint256)":"b9b2a982","currentConfirmationHeight()":"fba78166","currentHeight()":"163de0c5","depositLiquidity(uint256,uint64,bytes22)":"803d5f62","depositVaults(uint256)":"5f4d0610","getAreDepositsPaused()":"b01c27d1","getBlockHash(uint256)":"ee82ac5e","getChainwork(uint256)":"cda7d82c","getDepositVault(uint256)":"276d080e","getDepositVaultUnreservedBalance(uint256)":"6512d057","getDepositVaultsLength()":"7dce5550","getLiquidityProvider(address)":"98f9e757","getReservation(uint256)":"d57763c3","getReservationLength()":"ea6fe03e","isDepositNewLiquidityPaused()":"8cc63cdd","owner()":"8da5cb5b","protocolFeeBP()":"c5fba0b8","releaseLiquidity(uint256)":"77891907","reserveLiquidity(address,uint256[],uint192[],address,uint256,uint256[])":"d8418403","submitSwapProof(uint256,bytes32,bytes32,uint32,uint64,uint64,bytes32[],uint256[],bytes)":"ecdea06f","swapReservations(uint256)":"6b994abb","transferOwnership(address)":"f2fde38b","updateExchangeRate(uint256,uint64,uint256[])":"505675dd","updateFeeRouter(address)":"73e149e6","updateNewLiquidityDepositsPaused(bool)":"7a9059a2","updateProtocolFee(uint8)":"0a7aa293","validateBlockExists(uint256)":"ed8b2b32","withdrawLiquidity(uint256,uint256,uint192,uint256[])":"aeacb2e7"},"storageLayout":{"storage":[{"astId":47993,"contract":"src/RiftExchange.sol:RiftExchange","label":"blockchain","offset":0,"slot":"0","type":"t_mapping(t_uint256,t_bytes32)"},{"astId":47997,"contract":"src/RiftExchange.sol:RiftExchange","label":"chainworks","offset":0,"slot":"1","type":"t_mapping(t_uint256,t_uint256)"},{"astId":47999,"contract":"src/RiftExchange.sol:RiftExchange","label":"currentHeight","offset":0,"slot":"2","type":"t_uint256"},{"astId":48001,"contract":"src/RiftExchange.sol:RiftExchange","label":"currentConfirmationHeight","offset":0,"slot":"3","type":"t_uint256"},{"astId":46637,"contract":"src/RiftExchange.sol:RiftExchange","label":"owner","offset":0,"slot":"4","type":"t_address"},{"astId":49400,"contract":"src/RiftExchange.sol:RiftExchange","label":"isDepositNewLiquidityPaused","offset":20,"slot":"4","type":"t_bool"},{"astId":49403,"contract":"src/RiftExchange.sol:RiftExchange","label":"protocolFeeBP","offset":21,"slot":"4","type":"t_uint8"},{"astId":49405,"contract":"src/RiftExchange.sol:RiftExchange","label":"feeRouterAddress","offset":0,"slot":"5","type":"t_address"},{"astId":49409,"contract":"src/RiftExchange.sol:RiftExchange","label":"depositVaults","offset":0,"slot":"6","type":"t_array(t_struct(DepositVault)49350_storage)dyn_storage"},{"astId":49413,"contract":"src/RiftExchange.sol:RiftExchange","label":"swapReservations","offset":0,"slot":"7","type":"t_array(t_struct(SwapReservation)49331_storage)dyn_storage"},{"astId":49418,"contract":"src/RiftExchange.sol:RiftExchange","label":"liquidityProviders","offset":0,"slot":"8","type":"t_mapping(t_address,t_struct(LiquidityProvider)49335_storage)"}],"types":{"t_address":{"encoding":"inplace","label":"address","numberOfBytes":"20"},"t_array(t_struct(DepositVault)49350_storage)dyn_storage":{"encoding":"dynamic_array","label":"struct RiftExchange.DepositVault[]","numberOfBytes":"32","base":"t_struct(DepositVault)49350_storage"},"t_array(t_struct(SwapReservation)49331_storage)dyn_storage":{"encoding":"dynamic_array","label":"struct RiftExchange.SwapReservation[]","numberOfBytes":"32","base":"t_struct(SwapReservation)49331_storage"},"t_array(t_uint192)dyn_storage":{"encoding":"dynamic_array","label":"uint192[]","numberOfBytes":"32","base":"t_uint192"},"t_array(t_uint256)dyn_storage":{"encoding":"dynamic_array","label":"uint256[]","numberOfBytes":"32","base":"t_uint256"},"t_array(t_uint64)dyn_storage":{"encoding":"dynamic_array","label":"uint64[]","numberOfBytes":"32","base":"t_uint64"},"t_bool":{"encoding":"inplace","label":"bool","numberOfBytes":"1"},"t_bytes22":{"encoding":"inplace","label":"bytes22","numberOfBytes":"22"},"t_bytes32":{"encoding":"inplace","label":"bytes32","numberOfBytes":"32"},"t_enum(ReservationState)49296":{"encoding":"inplace","label":"enum RiftExchange.ReservationState","numberOfBytes":"1"},"t_mapping(t_address,t_struct(LiquidityProvider)49335_storage)":{"encoding":"mapping","key":"t_address","label":"mapping(address => struct RiftExchange.LiquidityProvider)","numberOfBytes":"32","value":"t_struct(LiquidityProvider)49335_storage"},"t_mapping(t_uint256,t_bytes32)":{"encoding":"mapping","key":"t_uint256","label":"mapping(uint256 => bytes32)","numberOfBytes":"32","value":"t_bytes32"},"t_mapping(t_uint256,t_uint256)":{"encoding":"mapping","key":"t_uint256","label":"mapping(uint256 => uint256)","numberOfBytes":"32","value":"t_uint256"},"t_struct(DepositVault)49350_storage":{"encoding":"inplace","label":"struct RiftExchange.DepositVault","numberOfBytes":"160","members":[{"astId":49337,"contract":"src/RiftExchange.sol:RiftExchange","label":"owner","offset":0,"slot":"0","type":"t_address"},{"astId":49339,"contract":"src/RiftExchange.sol:RiftExchange","label":"depositTimestamp","offset":20,"slot":"0","type":"t_uint64"},{"astId":49341,"contract":"src/RiftExchange.sol:RiftExchange","label":"initialBalance","offset":0,"slot":"1","type":"t_uint256"},{"astId":49343,"contract":"src/RiftExchange.sol:RiftExchange","label":"unreservedBalance","offset":0,"slot":"2","type":"t_uint256"},{"astId":49345,"contract":"src/RiftExchange.sol:RiftExchange","label":"withdrawnAmount","offset":0,"slot":"3","type":"t_uint256"},{"astId":49347,"contract":"src/RiftExchange.sol:RiftExchange","label":"exchangeRate","offset":0,"slot":"4","type":"t_uint64"},{"astId":49349,"contract":"src/RiftExchange.sol:RiftExchange","label":"btcPayoutLockingScript","offset":8,"slot":"4","type":"t_bytes22"}]},"t_struct(LiquidityProvider)49335_storage":{"encoding":"inplace","label":"struct RiftExchange.LiquidityProvider","numberOfBytes":"32","members":[{"astId":49334,"contract":"src/RiftExchange.sol:RiftExchange","label":"depositVaultIndexes","offset":0,"slot":"0","type":"t_array(t_uint256)dyn_storage"}]},"t_struct(SwapReservation)49331_storage":{"encoding":"inplace","label":"struct RiftExchange.SwapReservation","numberOfBytes":"352","members":[{"astId":49298,"contract":"src/RiftExchange.sol:RiftExchange","label":"owner","offset":0,"slot":"0","type":"t_address"},{"astId":49300,"contract":"src/RiftExchange.sol:RiftExchange","label":"confirmationBlockHeight","offset":20,"slot":"0","type":"t_uint32"},{"astId":49302,"contract":"src/RiftExchange.sol:RiftExchange","label":"reservationTimestamp","offset":24,"slot":"0","type":"t_uint64"},{"astId":49304,"contract":"src/RiftExchange.sol:RiftExchange","label":"liquidityUnlockedTimestamp","offset":0,"slot":"1","type":"t_uint64"},{"astId":49307,"contract":"src/RiftExchange.sol:RiftExchange","label":"state","offset":8,"slot":"1","type":"t_enum(ReservationState)49296"},{"astId":49309,"contract":"src/RiftExchange.sol:RiftExchange","label":"ethPayoutAddress","offset":9,"slot":"1","type":"t_address"},{"astId":49311,"contract":"src/RiftExchange.sol:RiftExchange","label":"lpReservationHash","offset":0,"slot":"2","type":"t_bytes32"},{"astId":49313,"contract":"src/RiftExchange.sol:RiftExchange","label":"nonce","offset":0,"slot":"3","type":"t_bytes32"},{"astId":49315,"contract":"src/RiftExchange.sol:RiftExchange","label":"totalSatsInputIncludingProxyFee","offset":0,"slot":"4","type":"t_uint256"},{"astId":49317,"contract":"src/RiftExchange.sol:RiftExchange","label":"totalSwapOutputAmount","offset":0,"slot":"5","type":"t_uint256"},{"astId":49319,"contract":"src/RiftExchange.sol:RiftExchange","label":"proposedBlockHeight","offset":0,"slot":"6","type":"t_uint256"},{"astId":49321,"contract":"src/RiftExchange.sol:RiftExchange","label":"proposedBlockHash","offset":0,"slot":"7","type":"t_bytes32"},{"astId":49324,"contract":"src/RiftExchange.sol:RiftExchange","label":"vaultIndexes","offset":0,"slot":"8","type":"t_array(t_uint256)dyn_storage"},{"astId":49327,"contract":"src/RiftExchange.sol:RiftExchange","label":"amountsToReserve","offset":0,"slot":"9","type":"t_array(t_uint192)dyn_storage"},{"astId":49330,"contract":"src/RiftExchange.sol:RiftExchange","label":"expectedSatsOutput","offset":0,"slot":"10","type":"t_array(t_uint64)dyn_storage"}]},"t_uint192":{"encoding":"inplace","label":"uint192","numberOfBytes":"24"},"t_uint256":{"encoding":"inplace","label":"uint256","numberOfBytes":"32"},"t_uint32":{"encoding":"inplace","label":"uint32","numberOfBytes":"4"},"t_uint64":{"encoding":"inplace","label":"uint64","numberOfBytes":"8"},"t_uint8":{"encoding":"inplace","label":"uint8","numberOfBytes":"1"}}},"id":32}