{"abi":[{"type":"constructor","inputs":[{"name":"initialCheckpointHeight","type":"uint256","internalType":"uint256"},{"name":"initialBlockHash","type":"bytes32","internalType":"bytes32"},{"name":"initialRetargetBlockHash","type":"bytes32","internalType":"bytes32"},{"name":"initialChainwork","type":"uint256","internalType":"uint256"},{"name":"verifierContractAddress","type":"address","internalType":"address"},{"name":"depositTokenAddress","type":"address","internalType":"address"},{"name":"initialFeeRouterAddress","type":"address","internalType":"address"},{"name":"owner","type":"address","internalType":"address"},{"name":"circuitVerificationKey","type":"bytes32","internalType":"bytes32"},{"name":"minimumConfirmationDelta","type":"uint8","internalType":"uint8"}],"stateMutability":"nonpayable"},{"type":"function","name":"CHALLENGE_PERIOD","inputs":[],"outputs":[{"name":"","type":"uint32","internalType":"uint32"}],"stateMutability":"view"},{"type":"function","name":"CIRCUIT_VERIFICATION_KEY","inputs":[],"outputs":[{"name":"","type":"bytes32","internalType":"bytes32"}],"stateMutability":"view"},{"type":"function","name":"DEPOSIT_TOKEN","inputs":[],"outputs":[{"name":"","type":"address","internalType":"contract IERC20"}],"stateMutability":"view"},{"type":"function","name":"RESERVATION_LOCKUP_PERIOD","inputs":[],"outputs":[{"name":"","type":"uint32","internalType":"uint32"}],"stateMutability":"view"},{"type":"function","name":"TOKEN_DECIMALS","inputs":[],"outputs":[{"name":"","type":"uint8","internalType":"uint8"}],"stateMutability":"view"},{"type":"function","name":"VERIFIER_CONTRACT","inputs":[],"outputs":[{"name":"","type":"address","internalType":"contract ISP1Verifier"}],"stateMutability":"view"},{"type":"function","name":"buildPublicInputs","inputs":[{"name":"swapReservationIndex","type":"uint256","internalType":"uint256"},{"name":"bitcoinTxId","type":"bytes32","internalType":"bytes32"},{"name":"merkleRoot","type":"bytes32","internalType":"bytes32"},{"name":"safeBlockHeight","type":"uint32","internalType":"uint32"},{"name":"proposedBlockHeight","type":"uint64","internalType":"uint64"},{"name":"confirmationBlockHeight","type":"uint64","internalType":"uint64"},{"name":"blockHashes","type":"bytes32[]","internalType":"bytes32[]"},{"name":"blockChainworks","type":"uint256[]","internalType":"uint256[]"}],"outputs":[{"name":"","type":"bytes","internalType":"bytes"}],"stateMutability":"view"},{"type":"function","name":"calculateRetargetHeight","inputs":[{"name":"blockHeight","type":"uint256","internalType":"uint256"}],"outputs":[{"name":"","type":"uint256","internalType":"uint256"}],"stateMutability":"pure"},{"type":"function","name":"currentConfirmationHeight","inputs":[],"outputs":[{"name":"","type":"uint256","internalType":"uint256"}],"stateMutability":"view"},{"type":"function","name":"currentHeight","inputs":[],"outputs":[{"name":"","type":"uint256","internalType":"uint256"}],"stateMutability":"view"},{"type":"function","name":"depositLiquidity","inputs":[{"name":"depositAmount","type":"uint256","internalType":"uint256"},{"name":"exchangeRate","type":"uint64","internalType":"uint64"},{"name":"btcPayoutLockingScript","type":"bytes22","internalType":"bytes22"}],"outputs":[],"stateMutability":"nonpayable"},{"type":"function","name":"depositVaults","inputs":[{"name":"","type":"uint256","internalType":"uint256"}],"outputs":[{"name":"owner","type":"address","internalType":"address"},{"name":"depositTimestamp","type":"uint64","internalType":"uint64"},{"name":"initialBalance","type":"uint256","internalType":"uint256"},{"name":"unreservedBalance","type":"uint256","internalType":"uint256"},{"name":"withdrawnAmount","type":"uint256","internalType":"uint256"},{"name":"exchangeRate","type":"uint64","internalType":"uint64"},{"name":"btcPayoutLockingScript","type":"bytes22","internalType":"bytes22"}],"stateMutability":"view"},{"type":"function","name":"getAreDepositsPaused","inputs":[],"outputs":[{"name":"","type":"bool","internalType":"bool"}],"stateMutability":"view"},{"type":"function","name":"getBlockHash","inputs":[{"name":"blockHeight","type":"uint256","internalType":"uint256"}],"outputs":[{"name":"","type":"bytes32","internalType":"bytes32"}],"stateMutability":"view"},{"type":"function","name":"getChainwork","inputs":[{"name":"blockHeight","type":"uint256","internalType":"uint256"}],"outputs":[{"name":"","type":"uint256","internalType":"uint256"}],"stateMutability":"view"},{"type":"function","name":"getDepositVault","inputs":[{"name":"depositIndex","type":"uint256","internalType":"uint256"}],"outputs":[{"name":"","type":"tuple","internalType":"struct RiftExchange.DepositVault","components":[{"name":"owner","type":"address","internalType":"address"},{"name":"depositTimestamp","type":"uint64","internalType":"uint64"},{"name":"initialBalance","type":"uint256","internalType":"uint256"},{"name":"unreservedBalance","type":"uint256","internalType":"uint256"},{"name":"withdrawnAmount","type":"uint256","internalType":"uint256"},{"name":"exchangeRate","type":"uint64","internalType":"uint64"},{"name":"btcPayoutLockingScript","type":"bytes22","internalType":"bytes22"}]}],"stateMutability":"view"},{"type":"function","name":"getDepositVaultUnreservedBalance","inputs":[{"name":"depositIndex","type":"uint256","internalType":"uint256"}],"outputs":[{"name":"","type":"uint256","internalType":"uint256"}],"stateMutability":"view"},{"type":"function","name":"getDepositVaultsLength","inputs":[],"outputs":[{"name":"","type":"uint256","internalType":"uint256"}],"stateMutability":"view"},{"type":"function","name":"getLiquidityProvider","inputs":[{"name":"lpAddress","type":"address","internalType":"address"}],"outputs":[{"name":"","type":"tuple","internalType":"struct RiftExchange.LiquidityProvider","components":[{"name":"depositVaultIndexes","type":"uint256[]","internalType":"uint256[]"}]}],"stateMutability":"view"},{"type":"function","name":"getReservation","inputs":[{"name":"reservationIndex","type":"uint256","internalType":"uint256"}],"outputs":[{"name":"","type":"tuple","internalType":"struct RiftExchange.SwapReservation","components":[{"name":"owner","type":"address","internalType":"address"},{"name":"confirmationBlockHeight","type":"uint32","internalType":"uint32"},{"name":"reservationTimestamp","type":"uint64","internalType":"uint64"},{"name":"liquidityUnlockedTimestamp","type":"uint64","internalType":"uint64"},{"name":"state","type":"uint8","internalType":"enum RiftExchange.ReservationState"},{"name":"ethPayoutAddress","type":"address","internalType":"address"},{"name":"lpReservationHash","type":"bytes32","internalType":"bytes32"},{"name":"nonce","type":"bytes32","internalType":"bytes32"},{"name":"totalSatsInputIncludingProxyFee","type":"uint256","internalType":"uint256"},{"name":"totalSwapOutputAmount","type":"uint256","internalType":"uint256"},{"name":"proposedBlockHeight","type":"uint256","internalType":"uint256"},{"name":"proposedBlockHash","type":"bytes32","internalType":"bytes32"},{"name":"vaultIndexes","type":"uint256[]","internalType":"uint256[]"},{"name":"amountsToReserve","type":"uint192[]","internalType":"uint192[]"},{"name":"expectedSatsOutput","type":"uint64[]","internalType":"uint64[]"}]}],"stateMutability":"view"},{"type":"function","name":"getReservationLength","inputs":[],"outputs":[{"name":"","type":"uint256","internalType":"uint256"}],"stateMutability":"view"},{"type":"function","name":"isDepositNewLiquidityPaused","inputs":[],"outputs":[{"name":"","type":"bool","internalType":"bool"}],"stateMutability":"view"},{"type":"function","name":"owner","inputs":[],"outputs":[{"name":"","type":"address","internalType":"address"}],"stateMutability":"view"},{"type":"function","name":"protocolFeeBP","inputs":[],"outputs":[{"name":"","type":"uint8","internalType":"uint8"}],"stateMutability":"view"},{"type":"function","name":"releaseLiquidity","inputs":[{"name":"swapReservationIndex","type":"uint256","internalType":"uint256"}],"outputs":[],"stateMutability":"nonpayable"},{"type":"function","name":"reserveLiquidity","inputs":[{"name":"reservationOwner","type":"address","internalType":"address"},{"name":"vaultIndexesToReserve","type":"uint256[]","internalType":"uint256[]"},{"name":"amountsToReserve","type":"uint192[]","internalType":"uint192[]"},{"name":"ethPayoutAddress","type":"address","internalType":"address"},{"name":"totalSatsInputIncludingProxyFee","type":"uint256","internalType":"uint256"},{"name":"expiredSwapReservationIndexes","type":"uint256[]","internalType":"uint256[]"}],"outputs":[],"stateMutability":"nonpayable"},{"type":"function","name":"submitSwapProof","inputs":[{"name":"swapReservationIndex","type":"uint256","internalType":"uint256"},{"name":"bitcoinTxId","type":"bytes32","internalType":"bytes32"},{"name":"merkleRoot","type":"bytes32","internalType":"bytes32"},{"name":"safeBlockHeight","type":"uint32","internalType":"uint32"},{"name":"proposedBlockHeight","type":"uint64","internalType":"uint64"},{"name":"confirmationBlockHeight","type":"uint64","internalType":"uint64"},{"name":"blockHashes","type":"bytes32[]","internalType":"bytes32[]"},{"name":"blockChainworks","type":"uint256[]","internalType":"uint256[]"},{"name":"proof","type":"bytes","internalType":"bytes"}],"outputs":[],"stateMutability":"nonpayable"},{"type":"function","name":"swapReservations","inputs":[{"name":"","type":"uint256","internalType":"uint256"}],"outputs":[{"name":"owner","type":"address","internalType":"address"},{"name":"confirmationBlockHeight","type":"uint32","internalType":"uint32"},{"name":"reservationTimestamp","type":"uint64","internalType":"uint64"},{"name":"liquidityUnlockedTimestamp","type":"uint64","internalType":"uint64"},{"name":"state","type":"uint8","internalType":"enum RiftExchange.ReservationState"},{"name":"ethPayoutAddress","type":"address","internalType":"address"},{"name":"lpReservationHash","type":"bytes32","internalType":"bytes32"},{"name":"nonce","type":"bytes32","internalType":"bytes32"},{"name":"totalSatsInputIncludingProxyFee","type":"uint256","internalType":"uint256"},{"name":"totalSwapOutputAmount","type":"uint256","internalType":"uint256"},{"name":"proposedBlockHeight","type":"uint256","internalType":"uint256"},{"name":"proposedBlockHash","type":"bytes32","internalType":"bytes32"}],"stateMutability":"view"},{"type":"function","name":"transferOwnership","inputs":[{"name":"newOwner","type":"address","internalType":"address"}],"outputs":[],"stateMutability":"nonpayable"},{"type":"function","name":"updateExchangeRate","inputs":[{"name":"globalVaultIndex","type":"uint256","internalType":"uint256"},{"name":"newExchangeRate","type":"uint64","internalType":"uint64"},{"name":"expiredSwapReservationIndexes","type":"uint256[]","internalType":"uint256[]"}],"outputs":[],"stateMutability":"nonpayable"},{"type":"function","name":"updateFeeRouter","inputs":[{"name":"newProtocolAddress","type":"address","internalType":"address payable"}],"outputs":[],"stateMutability":"nonpayable"},{"type":"function","name":"updateNewLiquidityDepositsPaused","inputs":[{"name":"newPauseState","type":"bool","internalType":"bool"}],"outputs":[],"stateMutability":"nonpayable"},{"type":"function","name":"updateProtocolFee","inputs":[{"name":"newProtocolFeeBP","type":"uint8","internalType":"uint8"}],"outputs":[],"stateMutability":"nonpayable"},{"type":"function","name":"validateBlockExists","inputs":[{"name":"blockHeight","type":"uint256","internalType":"uint256"}],"outputs":[],"stateMutability":"view"},{"type":"function","name":"withdrawLiquidity","inputs":[{"name":"globalVaultIndex","type":"uint256","internalType":"uint256"},{"name":"localVaultIndex","type":"uint256","internalType":"uint256"},{"name":"amountToWithdraw","type":"uint192","internalType":"uint192"},{"name":"expiredSwapReservationIndexes","type":"uint256[]","internalType":"uint256[]"}],"outputs":[],"stateMutability":"nonpayable"},{"type":"event","name":"BlocksAdded","inputs":[{"name":"startBlockHeight","type":"uint256","indexed":false,"internalType":"uint256"},{"name":"count","type":"uint256","indexed":false,"internalType":"uint256"}],"anonymous":false},{"type":"event","name":"LiquidityDeposited","inputs":[{"name":"depositor","type":"address","indexed":true,"internalType":"address"},{"name":"depositVaultIndex","type":"uint256","indexed":false,"internalType":"uint256"},{"name":"amount","type":"uint256","indexed":false,"internalType":"uint256"},{"name":"exchangeRate","type":"uint64","indexed":false,"internalType":"uint64"}],"anonymous":false},{"type":"event","name":"LiquidityReserved","inputs":[{"name":"reserver","type":"address","indexed":true,"internalType":"address"},{"name":"swapReservationIndex","type":"uint256","indexed":false,"internalType":"uint256"},{"name":"orderNonce","type":"bytes32","indexed":false,"internalType":"bytes32"}],"anonymous":false},{"type":"event","name":"OwnershipTransferred","inputs":[{"name":"user","type":"address","indexed":true,"internalType":"address"},{"name":"newOwner","type":"address","indexed":true,"internalType":"address"}],"anonymous":false},{"type":"event","name":"ProofSubmitted","inputs":[{"name":"prover","type":"address","indexed":true,"internalType":"address"},{"name":"swapReservationIndex","type":"uint256","indexed":false,"internalType":"uint256"},{"name":"orderNonce","type":"bytes32","indexed":false,"internalType":"bytes32"}],"anonymous":false},{"type":"event","name":"SwapComplete","inputs":[{"name":"swapReservationIndex","type":"uint256","indexed":false,"internalType":"uint256"},{"name":"orderNonce","type":"bytes32","indexed":false,"internalType":"bytes32"}],"anonymous":false},{"type":"error","name":"AmountToReserveTooLow","inputs":[{"name":"index","type":"uint256","internalType":"uint256"}]},{"type":"error","name":"BlockDoesNotExist","inputs":[]},{"type":"error","name":"InvalidConfirmationBlock","inputs":[]},{"type":"error","name":"InvalidExchangeRate","inputs":[]},{"type":"error","name":"InvalidInputArrays","inputs":[]},{"type":"error","name":"InvalidProposedBlockOverwrite","inputs":[]},{"type":"error","name":"InvalidReservationState","inputs":[]},{"type":"error","name":"InvalidSafeBlock","inputs":[]},{"type":"error","name":"NewDepositsPaused","inputs":[]},{"type":"error","name":"NotEnoughLiquidity","inputs":[]},{"type":"error","name":"NotVaultOwner","inputs":[]},{"type":"error","name":"OverwrittenProposedBlock","inputs":[]},{"type":"error","name":"ReservationNotExpired","inputs":[]},{"type":"error","name":"ReservationNotProved","inputs":[]},{"type":"error","name":"StillInChallengePeriod","inputs":[]},{"type":"error","name":"UpdateExchangeRateError","inputs":[]},{"type":"error","name":"WithdrawalAmountError","inputs":[]}],"bytecode":{"object":"0x6101206040526004805461ffff60a01b1916600560a91b17905534801562000025575f80fd5b50604051620039d0380380620039d08339810160408190526200004891620001f0565b60028a90555f8a81526001602090815260408083208a90559082905281208a905583908b9089908c908c9086908290806200008388620001a2565b8152602081019190915260409081015f9081209290925560ff909216608052600480546001600160a01b0389166001600160a01b03199091168117909155915191955093507f8be0079c531659141344cd1fd0a4f28419497f9722a3daafe3b4186f6b6457e09250839150a35060e08290526001600160a01b0380871661010052851660a08190526040805163313ce56760e01b8152905163313ce567916004808201926020929091908290030181865afa15801562000145573d5f803e3d5ffd5b505050506040513d601f19601f820116820180604052508101906200016b91906200028c565b60ff1660c0525050600580546001600160a01b0319166001600160a01b03939093169290921790915550620002ef95505050505050565b5f620001b16107e083620002af565b620001bd9083620002cf565b92915050565b80516001600160a01b0381168114620001da575f80fd5b919050565b805160ff81168114620001da575f80fd5b5f805f805f805f805f806101408b8d0312156200020b575f80fd5b8a51995060208b0151985060408b0151975060608b015196506200023260808c01620001c3565b95506200024260a08c01620001c3565b94506200025260c08c01620001c3565b93506200026260e08c01620001c3565b92506101008b015191506200027b6101208c01620001df565b90509295989b9194979a5092959850565b5f602082840312156200029d575f80fd5b620002a882620001df565b9392505050565b5f82620002ca57634e487b7160e01b5f52601260045260245ffd5b500690565b81810381811115620001bd57634e487b7160e01b5f52601160045260245ffd5b60805160a05160c05160e051610100516136726200035e5f395f818161052f0152611ffe01525f81816104b0015261202b01525f818161033c01526119d201525f818161022601528181610e5401528181610ec10152818161127101526114e101525f61240d01526136725ff3fe608060405234801561000f575f80fd5b5060043610610208575f3560e01c80638d5ca0521161011f578063cda7d82c116100a9578063ecdea06f11610079578063ecdea06f146105db578063ed8b2b32146105ee578063ee82ac5e14610601578063f2fde38b14610620578063fba7816614610633575f80fd5b8063cda7d82c14610581578063d57763c3146105a0578063d8418403146105c0578063ea6fe03e146105d3575f80fd5b8063b01c27d1116100ef578063b01c27d114610518578063b8b245921461052a578063b9b2a98214610551578063c3a079ed14610564578063c5fba0b81461056d575f80fd5b80638d5ca052146104ab5780638da5cb5b146104d257806398f9e757146104e5578063aeacb2e714610505575f80fd5b80636512d057116101a05780637a9059a2116101705780637a9059a21461043b5780637dce55501461044e578063803d5f621461045657806389a11f7a146104695780638cc63cdd14610487575f80fd5b80636512d057146103d75780636b994abb146103ea57806373e149e6146104155780637789190714610428575f80fd5b8063276d080e116101db578063276d080e1461029c578063505675dd146103245780635b7f415c146103375780635f4d061014610370575f80fd5b80630a7aa2931461020c57806313f6658714610221578063163de0c5146102655780631753b4e11461027c575b5f80fd5b61021f61021a366004612a0a565b61063c565b005b6102487f000000000000000000000000000000000000000000000000000000000000000081565b6040516001600160a01b0390911681526020015b60405180910390f35b61026e60025481565b60405190815260200161025c565b61028f61028a366004612b31565b61068f565b60405161025c9190612c29565b6102af6102aa366004612c3b565b610785565b60405161025c919081516001600160a01b031681526020808301516001600160401b039081169183019190915260408084015190830152606080840151908301526080808401519083015260a0838101519091169082015260c0918201516001600160501b0319169181019190915260e00190565b61021f610332366004612c52565b610860565b61035e7f000000000000000000000000000000000000000000000000000000000000000081565b60405160ff909116815260200161025c565b61038361037e366004612c3b565b610b10565b604080516001600160a01b0390981688526001600160401b039687166020890152870194909452606086019290925260808501529190911660a08301526001600160501b03191660c082015260e00161025c565b61026e6103e5366004612c3b565b610b79565b6103fd6103f8366004612c3b565b610ba4565b60405161025c9c9b9a99989796959493929190612cd8565b61021f610423366004612d6d565b610c39565b61021f610436366004612c3b565b610c85565b61021f610449366004612d95565b610fc7565b60065461026e565b61021f610464366004612db0565b61100f565b61047261384081565b60405163ffffffff909116815260200161025c565b60045461049b90600160a01b900460ff1681565b604051901515815260200161025c565b61026e7f000000000000000000000000000000000000000000000000000000000000000081565b600454610248906001600160a01b031681565b6104f86104f3366004612d6d565b611343565b60405161025c9190612e3e565b61021f610513366004612e76565b6113c3565b600454600160a01b900460ff1661049b565b6102487f000000000000000000000000000000000000000000000000000000000000000081565b61026e61055f366004612c3b565b61155b565b61047261012c81565b60045461035e90600160a81b900460ff1681565b61026e61058f366004612c3b565b5f9081526001602052604090205490565b6105b36105ae366004612c3b565b611578565b60405161025c9190612f42565b61021f6105ce36600461307a565b611850565b60075461026e565b61021f6105e93660046131ee565b611f6f565b61021f6105fc366004612c3b565b612184565b61026e61060f366004612c3b565b5f9081526020819052604090205490565b61021f61062e366004612d6d565b6121b2565b61026e60035481565b6004546001600160a01b0316331461066f5760405162461bcd60e51b8152600401610666906132bc565b60405180910390fd5b6004805460ff909216600160a81b0260ff60a81b19909216919091179055565b60605f60078a815481106106a5576106a56132e2565b905f5260205f2090600b020190506040518061016001604052808a8152602001898152602001826002015481526020018260030154815260200182600801805490506001600160401b0316815260200161070761060f8a63ffffffff1661155b565b815263ffffffff891660208201819052604090910190610727908961330a565b6001600160401b0316815260200161073f888861330a565b6001600160401b03168152602001858152602001848152506040516020016107679190613331565b60405160208183030381529060405291505098975050505050505050565b6040805160e0810182525f80825260208201819052918101829052606081018290526080810182905260a0810182905260c0810191909152600682815481106107d0576107d06132e2565b5f9182526020918290206040805160e08101825260059390930290910180546001600160a01b0381168452600160a01b90046001600160401b039081169484019490945260018101549183019190915260028101546060830152600381015460808301526004015491821660a0820152600160401b90910460501b6001600160501b03191660c082015292915050565b336001600160a01b03166006848154811061087d5761087d6132e2565b5f9182526020909120600590910201546001600160a01b0316146108b457604051630e7fea9d60e01b815260040160405180910390fd5b816001600160401b03165f036108dd5760405163a2ec3a5560e01b815260040160405180910390fd5b5f600684815481106108f1576108f16132e2565b905f5260205f20906005020190505f8160020154905061091083612227565b8160010154810361093e5760048201805467ffffffffffffffff19166001600160401b038616179055610b09565b805f0361095e57604051632b5daf8960e01b815260040160405180910390fd5b6040805160e08101825283546001600160a01b0390811682526001600160401b0342811660208401908152938301858152606084018681525f608086018181528b851660a0880190815260048b01546001600160501b0319600160401b91829004605090811b9190911660c08b01908152600680546001810182559087529a516005909b027ff652222313e28459528d920b65115c16c04f3efc82aaedc97be59f3f377c0d3f810180549d518b16600160a01b026001600160e01b0319909e169c909b169b909b179b909b1790985594517ff652222313e28459528d920b65115c16c04f3efc82aaedc97be59f3f377c0d4089015592517ff652222313e28459528d920b65115c16c04f3efc82aaedc97be59f3f377c0d41880155517ff652222313e28459528d920b65115c16c04f3efc82aaedc97be59f3f377c0d4287015590517ff652222313e28459528d920b65115c16c04f3efc82aaedc97be59f3f377c0d439095018054965190941c9091026001600160f01b0319909516939091169290921792909217909155600383018054839290610afd90849061340f565b90915550505f60028301555b5050505050565b60068181548110610b1f575f80fd5b5f918252602090912060059091020180546001820154600283015460038401546004909401546001600160a01b03841695506001600160401b03600160a01b9094048416949293919291811690600160401b900460501b87565b5f60068281548110610b8d57610b8d6132e2565b905f5260205f209060050201600201549050919050565b60078181548110610bb3575f80fd5b5f9182526020909120600b9091020180546001820154600283015460038401546004850154600586015460068701546007909701546001600160a01b03808816995063ffffffff600160a01b890416986001600160401b03600160c01b90990489169888169760ff600160401b82041697600160481b909104909216959194919391928c565b6004546001600160a01b03163314610c635760405162461bcd60e51b8152600401610666906132bc565b600580546001600160a01b0319166001600160a01b0392909216919091179055565b5f60078281548110610c9957610c996132e2565b5f9182526020909120600b90910201905060026001820154600160401b900460ff166004811115610ccc57610ccc612ca4565b14610cea576040516320d55f6760e21b815260040160405180910390fd5b60018101546001600160401b0316421015610d1857604051632d5c37f560e21b815260040160405180910390fd5b610d4c604051806040016040528060138152602001721c1c9bdc1bdcd959109b1bd8dad2195a59da1d606a1b815250612335565b610d6d610d6882600601545f9081526020819052604090205490565b612378565b610d9f604051806040016040528060118152602001700e0e4dee0dee6cac884d8dec6d690c2e6d607b1b815250612335565b610dac8160070154612378565b600781015460068201545f9081526020819052604090205414610de25760405163c1f6fa5160e01b815260040160405180910390fd5b60018101805460ff60401b19166803000000000000000017905560045460058201545f9161271091610e1e91600160a81b900460ff1690613422565b610e28919061344d565b60055460405163a9059cbb60e01b81526001600160a01b039182166004820152602481018390529192507f0000000000000000000000000000000000000000000000000000000000000000169063a9059cbb906044016020604051808303815f875af1158015610e9a573d5f803e3d5ffd5b505050506040513d601f19601f82011682018060405250810190610ebe9190613460565b507f00000000000000000000000000000000000000000000000000000000000000006001600160a01b031663a9059cbb8360010160099054906101000a90046001600160a01b0316838560050154610f16919061347b565b6040516001600160e01b031960e085901b1681526001600160a01b03909216600483015260248201526044016020604051808303815f875af1158015610f5e573d5f803e3d5ffd5b505050506040513d601f19601f82011682018060405250810190610f829190613460565b5060038201546040805185815260208101929092527f12245c00d428a4c558061d2f69fe154a203bd2fb4a65b6c3e73e95ccdc735d18910160405180910390a1505050565b6004546001600160a01b03163314610ff15760405162461bcd60e51b8152600401610666906132bc565b60048054911515600160a01b0260ff60a01b19909216919091179055565b600454600160a01b900460ff161561103a576040516348010c6560e11b815260040160405180910390fd5b816001600160401b03165f036110635760405163a2ec3a5560e01b815260040160405180910390fd5b335f9081526008602052604081205490036110af57604080515f6020808301828152838501855283523382526008815292902081518051929391926110ab92849201906128ae565b5050505b6040805160e081018252338082526001600160401b034281166020808501918252848601898152606086018a81525f608088018181528b871660a08a019081526001600160501b03198c1660c08b0190815260068054600181810183558287529c5160059091027ff652222313e28459528d920b65115c16c04f3efc82aaedc97be59f3f377c0d3f810180549b518d16600160a01b026001600160e01b0319909c166001600160a01b0393909316929092179a909a17905595517ff652222313e28459528d920b65115c16c04f3efc82aaedc97be59f3f377c0d4089015593517ff652222313e28459528d920b65115c16c04f3efc82aaedc97be59f3f377c0d4188015590517ff652222313e28459528d920b65115c16c04f3efc82aaedc97be59f3f377c0d42870155517ff652222313e28459528d920b65115c16c04f3efc82aaedc97be59f3f377c0d439095018054925160501c600160401b026001600160f01b03199093169590961694909417179093559281526008909252929020915461123a919061347b565b81546001810183555f9283526020909220909101556040516323b872dd60e01b8152336004820152306024820152604481018490527f00000000000000000000000000000000000000000000000000000000000000006001600160a01b0316906323b872dd906064016020604051808303815f875af11580156112bf573d5f803e3d5ffd5b505050506040513d601f19601f820116820180604052508101906112e39190613460565b5060065433907ffd5ab8914e1dca355d18ae7fe50627d3afe042f323e1b0ae31f3a9d2cd19de37906113179060019061347b565b60408051918252602082018790526001600160401b0386169082015260600160405180910390a2505050565b6040805160208082018352606082526001600160a01b0384165f90815260088252839020835181548084028201860186529281018381529394909391928492918491908401828280156113b357602002820191905f5260205f20905b81548152602001906001019080831161139f575b5050505050815250509050919050565b335f9081526008602052604090208054859190859081106113e6576113e66132e2565b905f5260205f2001541461140d57604051630e7fea9d60e01b815260040160405180910390fd5b61141681612227565b5f6006858154811061142a5761142a6132e2565b905f5260205f2090600502019050826001600160c01b03165f148061145b57508060020154836001600160c01b0316115b156114795760405163b4e3d41360e01b815260040160405180910390fd5b826001600160c01b0316816002015f828254611495919061347b565b92505081905550826001600160c01b0316816003015f8282546114b8919061340f565b909155505060405163a9059cbb60e01b81523360048201526001600160c01b03841660248201527f00000000000000000000000000000000000000000000000000000000000000006001600160a01b03169063a9059cbb906044016020604051808303815f875af115801561152f573d5f803e3d5ffd5b505050506040513d601f19601f820116820180604052508101906115539190613460565b505050505050565b5f6115686107e08361348e565b611572908361347b565b92915050565b604080516101e0810182525f8082526020820181905291810182905260608082018390526080820183905260a0820183905260c0820183905260e0820183905261010082018390526101208201839052610140820183905261016082019290925261018081018290526101a081018290526101c081019190915260078281548110611605576116056132e2565b5f918252602091829020604080516101e081018252600b90930290910180546001600160a01b038116845263ffffffff600160a01b820416948401949094526001600160401b03600160c01b909404841691830191909152600181015492831660608301529091608083019060ff600160401b90910416600481111561168d5761168d612ca4565b600481111561169e5761169e612ca4565b81526020016001820160099054906101000a90046001600160a01b03166001600160a01b03166001600160a01b031681526020016002820154815260200160038201548152602001600482015481526020016005820154815260200160068201548152602001600782015481526020016008820180548060200260200160405190810160405280929190818152602001828054801561175a57602002820191905f5260205f20905b815481526020019060010190808311611746575b50505050508152602001600982018054806020026020016040519081016040528092919081815260200182805480156117ba57602002820191905f5260205f20905b81546001600160c01b0316815260019091019060200180831161179c575b50505050508152602001600a82018054806020026020016040519081016040528092919081815260200182805480156113b357602002820191905f5260205f20905f905b82829054906101000a90046001600160401b03166001600160401b0316815260200190600801906020826007010492830192600103820291508084116117fe5790505050505050815250509050919050565b8451158061186057508351855114155b1561187e5760405163744bba7b60e01b815260040160405180910390fd5b5f5b84518110156118d65784818151811061189b5761189b6132e2565b60200260200101516001600160c01b03165f036118ce57604051633143436b60e11b815260048101829052602401610666565b600101611880565b505f805f87516001600160401b038111156118f3576118f3612a5f565b60405190808252806020026020018201604052801561191c578160200160208202803683370190505b5090505f5b8751811015611a48575f60068a838151811061193f5761193f6132e2565b602002602001015181548110611957576119576132e2565b5f91825260209091206004600590920201015489516001600160401b03909116915089908390811061198b5761198b6132e2565b60200260200101516001600160c01b0316856119a7919061340f565b94505f6119f68a84815181106119bf576119bf6132e2565b60200260200101516001600160c01b03167f00000000000000000000000000000000000000000000000000000000000000006123bd565b90505f611a03838361344d565b9050611a0f818761340f565b955080858581518110611a2457611a246132e2565b6001600160401b039290921660209283029190910190910152505050600101611921565b50611a5284612227565b5f805b8951811015611bd3576002838281518110611a7257611a726132e2565b602002602001015160068c8481518110611a8e57611a8e6132e2565b602002602001015181548110611aa657611aa66132e2565b5f91825260209182902060046005909202010154604080516001600160401b03909416928401929092526001600160501b0319600160401b90910460501b16908201526060810184905260800160408051601f1981840301815290829052611b0d916134a1565b602060405180830381855afa158015611b28573d5f803e3d5ffd5b5050506040513d601f19601f82011682018060405250810190611b4b91906134bc565b915060068a8281518110611b6157611b616132e2565b602002602001015181548110611b7957611b796132e2565b905f5260205f20906005020160020154898281518110611b9b57611b9b6132e2565b60200260200101516001600160c01b03161115611bcb57604051634323a55560e01b815260040160405180910390fd5b600101611a55565b50600754604080516001600160a01b038a16602082015242918101919091524660608201526080810183905260a08101919091525f9060c00160408051601f1981840301815282825280516020918201206101e0840183526001600160a01b038f1684525f9184018290526001600160401b034216928401929092526060830152915060079060808101600181526020018a6001600160a01b031681526020018481526020018381526020018981526020018781526020015f81526020015f801b81526020018c81526020018b815260200185815250908060018154018082558091505060019003905f5260205f2090600b02015f909190919091505f820151815f015f6101000a8154816001600160a01b0302191690836001600160a01b031602179055506020820151815f0160146101000a81548163ffffffff021916908363ffffffff1602179055506040820151815f0160186101000a8154816001600160401b0302191690836001600160401b031602179055506060820151816001015f6101000a8154816001600160401b0302191690836001600160401b0316021790555060808201518160010160086101000a81548160ff02191690836004811115611da157611da1612ca4565b021790555060a08201516001820180546001600160a01b03909216600160481b027fffffff0000000000000000000000000000000000000000ffffffffffffffffff90921691909117905560c0820151600282015560e0820151600382015561010082015160048201556101208201516005820155610140820151600682015561016082015160078201556101808201518051611e489160088401916020909101906128ae565b506101a08201518051611e659160098401916020909101906128f7565b506101c08201518051611e8291600a84019160209091019061294a565b5050505f5b8a51811015611f0957898181518110611ea257611ea26132e2565b60200260200101516001600160c01b031660068c8381518110611ec757611ec76132e2565b602002602001015181548110611edf57611edf6132e2565b905f5260205f2090600502016002015f828254611efc919061347b565b9091555050600101611e87565b508a6001600160a01b03167f5956135c9be999a50f7ff4ea49ddf1485bc321ab333dc7a0877633eeb47528936001611f4060075490565b611f4a919061347b565b6040805191825260208201859052015b60405180910390a25050505050505050505050565b5f60078a81548110611f8357611f836132e2565b5f9182526020909120600b909102019050600180820154600160401b900460ff166004811115611fb557611fb5612ca4565b14611fd357604051639085371960e01b815260040160405180910390fd5b5f611fe48b8b8b8b8b8b8b8b61068f565b60405163020a49e360e51b81529091506001600160a01b037f000000000000000000000000000000000000000000000000000000000000000016906341493c6090612057907f000000000000000000000000000000000000000000000000000000000000000090859088906004016134d3565b5f6040518083038186803b15801561206d575f80fd5b505afa15801561207f573d5f803e3d5ffd5b506120b69250505063ffffffff89166001600160401b0389811690891688886120a8858e61330a565b6001600160401b03166123f8565b60018201805460ff60401b1916680200000000000000001790556120dc61012c426134fd565b60018301805467ffffffffffffffff19166001600160401b03928316179055871660068301558461211363ffffffff8a168961330a565b6001600160401b03168151811061212c5761212c6132e2565b60200260200101518260070181905550336001600160a01b03167f8bcdab581a6176f792fa96b0c57d32273bcd8621b0548c15a9c6379dc246e26c8c8460030154604051611f5a929190918252602082015260400190565b5f818152602081905260409020546121af5760405163fa4a5e4560e01b815260040160405180910390fd5b50565b6004546001600160a01b031633146121dc5760405162461bcd60e51b8152600401610666906132bc565b600480546001600160a01b0319166001600160a01b03831690811790915560405133907f8be0079c531659141344cd1fd0a4f28419497f9722a3daafe3b4186f6b6457e0905f90a350565b61223081612798565b5f5b8151811015612331575f6007838381518110612250576122506132e2565b602002602001015181548110612268576122686132e2565b905f5260205f2090600b020190505f5b600882015481101561230f575f600683600801838154811061229c5761229c6132e2565b905f5260205f200154815481106122b5576122b56132e2565b905f5260205f20906005020190508260090182815481106122d8576122d86132e2565b5f9182526020822001546002830180546001600160c01b0390921692909161230190849061340f565b909155505050600101612278565b506001908101805460ff60401b19166804000000000000000017905501612232565b5050565b6121af816040516024016123499190612c29565b60408051601f198184030181529190526020810180516001600160e01b031663104c13eb60e21b17905261288e565b6121af8160405160240161238e91815260200190565b60408051601f198184030181529190526020810180516001600160e01b03166327b7cf8560e01b17905261288e565b5f60128260ff1610156123f1576123d582601261351d565b6123e090600a613616565b6123ea9084613422565b9050611572565b5090919050565b6002545f8181526001602052604090205460ff7f000000000000000000000000000000000000000000000000000000000000000016612437888861347b565b1015612491575f868152602081905260409020548551869061245b9060019061347b565b8151811061246b5761246b6132e2565b602002602001015114612491576040516341305f6360e01b815260040160405180910390fd5b818811156124b25760405163575f3da360e01b815260040160405180910390fd5b8483815181106124c4576124c46132e2565b60200260200101515f808981526020019081526020015f2054036124e9575050611553565b5f878152602081905260409020541580159061252b5750836001855161250f919061347b565b8151811061251f5761251f6132e2565b60200260200101518110155b15612549576040516371e98f3d60e11b815260040160405180910390fd5b8187111561264f578188036125ba5784838151811061256a5761256a6132e2565b60200260200101515f808981526020019081526020015f2081905550838381518110612598576125986132e2565b602002602001015160015f8981526020019081526020015f20819055506126b5565b8188101561264a57875b87811161264857856125d68a8361347b565b815181106125e6576125e66132e2565b6020908102919091018101515f838152918290526040909120558461260b8a8361347b565b8151811061261b5761261b6132e2565b6020908102919091018101515f83815260019092526040909120558061264081613624565b9150506125c4565b505b6126b5565b818710156126b557848381518110612669576126696132e2565b60200260200101515f808981526020019081526020015f2081905550838381518110612697576126976132e2565b602002602001015160015f8981526020019081526020015f20819055505b6002548711156126c55760028790555b5f6126cf8861155b565b90505f6126db8861155b565b9050818114612750575f6126ef828a61347b565b9050878181518110612703576127036132e2565b60200260200101515f808481526020019081526020015f2081905550868181518110612731576127316132e2565b602002602001015160015f8481526020019081526020015f2081905550505b8651604080518c815260208101929092527fb68477c768bbb33b4f238a3dfd17c33c499268c59cd042b7936bbc23dc2bdd34910160405180910390a150505050505050505050565b5f5b81518110156123315761384063ffffffff1660078383815181106127c0576127c06132e2565b6020026020010151815481106127d8576127d86132e2565b5f9182526020909120600b909102015461280290600160c01b90046001600160401b03164261347b565b108061286857506001600783838151811061281f5761281f6132e2565b602002602001015181548110612837576128376132e2565b905f5260205f2090600b020160010160089054906101000a900460ff16600481111561286557612865612ca4565b14155b15612886576040516326349d6b60e01b815260040160405180910390fd5b60010161279a565b80516a636f6e736f6c652e6c6f67602083015f808483855afa5050505050565b828054828255905f5260205f209081019282156128e7579160200282015b828111156128e75782518255916020019190600101906128cc565b506128f39291506129f6565b5090565b828054828255905f5260205f209081019282156128e7579160200282015b828111156128e757825182546001600160c01b0319166001600160c01b03909116178255602090920191600190910190612915565b828054828255905f5260205f20906003016004900481019282156128e7579160200282015f5b838211156129ba57835183826101000a8154816001600160401b0302191690836001600160401b031602179055509260200192600801602081600701049283019260010302612970565b80156129ed5782816101000a8154906001600160401b0302191690556008016020816007010492830192600103026129ba565b50506128f39291505b5b808211156128f3575f81556001016129f7565b5f60208284031215612a1a575f80fd5b813560ff81168114612a2a575f80fd5b9392505050565b803563ffffffff81168114612a44575f80fd5b919050565b80356001600160401b0381168114612a44575f80fd5b634e487b7160e01b5f52604160045260245ffd5b604051601f8201601f191681016001600160401b0381118282101715612a9b57612a9b612a5f565b604052919050565b5f6001600160401b03821115612abb57612abb612a5f565b5060051b60200190565b5f82601f830112612ad4575f80fd5b81356020612ae9612ae483612aa3565b612a73565b8083825260208201915060208460051b870101935086841115612b0a575f80fd5b602086015b84811015612b265780358352918301918301612b0f565b509695505050505050565b5f805f805f805f80610100898b031215612b49575f80fd5b883597506020890135965060408901359550612b6760608a01612a31565b9450612b7560808a01612a49565b9350612b8360a08a01612a49565b925060c08901356001600160401b0380821115612b9e575f80fd5b612baa8c838d01612ac5565b935060e08b0135915080821115612bbf575f80fd5b50612bcc8b828c01612ac5565b9150509295985092959890939650565b5f5b83811015612bf6578181015183820152602001612bde565b50505f910152565b5f8151808452612c15816020860160208601612bdc565b601f01601f19169290920160200192915050565b602081525f612a2a6020830184612bfe565b5f60208284031215612c4b575f80fd5b5035919050565b5f805f60608486031215612c64575f80fd5b83359250612c7460208501612a49565b915060408401356001600160401b03811115612c8e575f80fd5b612c9a86828701612ac5565b9150509250925092565b634e487b7160e01b5f52602160045260245ffd5b60058110612cd457634e487b7160e01b5f52602160045260245ffd5b9052565b6001600160a01b038d8116825263ffffffff8d1660208301526001600160401b038c811660408401528b166060830152610180820190612d1b608084018c612cb8565b9890981660a082015260c081019690965260e08601949094526101008501929092526101208401526101408301526101609091015295945050505050565b6001600160a01b03811681146121af575f80fd5b5f60208284031215612d7d575f80fd5b8135612a2a81612d59565b80151581146121af575f80fd5b5f60208284031215612da5575f80fd5b8135612a2a81612d88565b5f805f60608486031215612dc2575f80fd5b83359250612dd260208501612a49565b915060408401356001600160501b031981168114612dee575f80fd5b809150509250925092565b8035612a4481612d59565b5f815180845260208085019450602084015f5b83811015612e3357815187529582019590820190600101612e17565b509495945050505050565b602081525f8251602080840152612e586040840182612e04565b949350505050565b80356001600160c01b0381168114612a44575f80fd5b5f805f8060808587031215612e89575f80fd5b8435935060208501359250612ea060408601612e60565b915060608501356001600160401b03811115612eba575f80fd5b612ec687828801612ac5565b91505092959194509250565b5f815180845260208085019450602084015f5b83811015612e335781516001600160c01b031687529582019590820190600101612ee5565b5f815180845260208085019450602084015f5b83811015612e335781516001600160401b031687529582019590820190600101612f1d565b60208152612f5c6020820183516001600160a01b03169052565b5f6020830151612f74604084018263ffffffff169052565b5060408301516001600160401b03811660608401525060608301516001600160401b0381166080840152506080830151612fb160a0840182612cb8565b5060a08301516001600160a01b03811660c08401525060c083015160e08381019190915283015161010080840191909152830151610120808401919091528301516101408084019190915283015161016080840191909152830151610180808401919091528301516101e06101a0808501829052613033610200860184612e04565b9250808601519050601f196101c08187860301818801526130548584612ed2565b9088015187820390920184880152935090506130708382612f0a565b9695505050505050565b5f805f805f8060c0878903121561308f575f80fd5b863561309a81612d59565b95506020878101356001600160401b03808211156130b6575f80fd5b6130c28b838c01612ac5565b975060408a01359150808211156130d7575f80fd5b818a0191508a601f8301126130ea575f80fd5b81356130f8612ae482612aa3565b81815260059190911b8301840190848101908d831115613116575f80fd5b938501935b8285101561313b5761312c85612e60565b8252938501939085019061311b565b985061314c91505060608b01612df9565b955060808a0135945060a08a0135925080831115613168575f80fd5b505061317689828a01612ac5565b9150509295509295509295565b5f82601f830112613192575f80fd5b81356001600160401b038111156131ab576131ab612a5f565b6131be601f8201601f1916602001612a73565b8181528460208386010111156131d2575f80fd5b816020850160208301375f918101602001919091529392505050565b5f805f805f805f805f6101208a8c031215613207575f80fd5b8935985060208a0135975060408a0135965061322560608b01612a31565b955061323360808b01612a49565b945061324160a08b01612a49565b935060c08a01356001600160401b038082111561325c575f80fd5b6132688d838e01612ac5565b945060e08c013591508082111561327d575f80fd5b6132898d838e01612ac5565b93506101008c013591508082111561329f575f80fd5b506132ac8c828d01613183565b9150509295985092959850929598565b6020808252600c908201526b15539055551213d49256915160a21b604082015260600190565b634e487b7160e01b5f52603260045260245ffd5b634e487b7160e01b5f52601160045260245ffd5b6001600160401b0382811682821603908082111561332a5761332a6132f6565b5092915050565b60208152815160208201526020820151604082015260408201516060820152606082015160808201525f608083015161337560a08401826001600160401b03169052565b5060a083015160c083015260c083015161339a60e08401826001600160401b03169052565b5060e08301516101006133b7818501836001600160401b03169052565b84015190506101206133d3848201836001600160401b03169052565b8085015191505061016061014081818601526133f3610180860184612e04565b90860151858203601f1901838701529092506130708382612e04565b80820180821115611572576115726132f6565b8082028115828204841417611572576115726132f6565b634e487b7160e01b5f52601260045260245ffd5b5f8261345b5761345b613439565b500490565b5f60208284031215613470575f80fd5b8151612a2a81612d88565b81810381811115611572576115726132f6565b5f8261349c5761349c613439565b500690565b5f82516134b2818460208701612bdc565b9190910192915050565b5f602082840312156134cc575f80fd5b5051919050565b838152606060208201525f6134eb6060830185612bfe565b82810360408401526130708185612bfe565b6001600160401b0381811683821601908082111561332a5761332a6132f6565b60ff8281168282160390811115611572576115726132f6565b600181815b8085111561357057815f1904821115613556576135566132f6565b8085161561356357918102915b93841c939080029061353b565b509250929050565b5f8261358657506001611572565b8161359257505f611572565b81600181146135a857600281146135b2576135ce565b6001915050611572565b60ff8411156135c3576135c36132f6565b50506001821b611572565b5060208310610133831016604e8410600b84101617156135f1575081810a611572565b6135fb8383613536565b805f190482111561360e5761360e6132f6565b029392505050565b5f612a2a60ff841683613578565b5f60018201613635576136356132f6565b506001019056fea2646970667358221220265522b2f67996903bae508a707d3928429d6c724124da5ab6e169984c53e66464736f6c63430008180033","linkReferences":{}},"methodIdentifiers":{"CHALLENGE_PERIOD()":"c3a079ed","CIRCUIT_VERIFICATION_KEY()":"8d5ca052","DEPOSIT_TOKEN()":"13f66587","RESERVATION_LOCKUP_PERIOD()":"89a11f7a","TOKEN_DECIMALS()":"5b7f415c","VERIFIER_CONTRACT()":"b8b24592","buildPublicInputs(uint256,bytes32,bytes32,uint32,uint64,uint64,bytes32[],uint256[])":"1753b4e1","calculateRetargetHeight(uint256)":"b9b2a982","currentConfirmationHeight()":"fba78166","currentHeight()":"163de0c5","depositLiquidity(uint256,uint64,bytes22)":"803d5f62","depositVaults(uint256)":"5f4d0610","getAreDepositsPaused()":"b01c27d1","getBlockHash(uint256)":"ee82ac5e","getChainwork(uint256)":"cda7d82c","getDepositVault(uint256)":"276d080e","getDepositVaultUnreservedBalance(uint256)":"6512d057","getDepositVaultsLength()":"7dce5550","getLiquidityProvider(address)":"98f9e757","getReservation(uint256)":"d57763c3","getReservationLength()":"ea6fe03e","isDepositNewLiquidityPaused()":"8cc63cdd","owner()":"8da5cb5b","protocolFeeBP()":"c5fba0b8","releaseLiquidity(uint256)":"77891907","reserveLiquidity(address,uint256[],uint192[],address,uint256,uint256[])":"d8418403","submitSwapProof(uint256,bytes32,bytes32,uint32,uint64,uint64,bytes32[],uint256[],bytes)":"ecdea06f","swapReservations(uint256)":"6b994abb","transferOwnership(address)":"f2fde38b","updateExchangeRate(uint256,uint64,uint256[])":"505675dd","updateFeeRouter(address)":"73e149e6","updateNewLiquidityDepositsPaused(bool)":"7a9059a2","updateProtocolFee(uint8)":"0a7aa293","validateBlockExists(uint256)":"ed8b2b32","withdrawLiquidity(uint256,uint256,uint192,uint256[])":"aeacb2e7"},"storageLayout":{"storage":[{"astId":47993,"contract":"src/RiftExchange.sol:RiftExchange","label":"blockchain","offset":0,"slot":"0","type":"t_mapping(t_uint256,t_bytes32)"},{"astId":47997,"contract":"src/RiftExchange.sol:RiftExchange","label":"chainworks","offset":0,"slot":"1","type":"t_mapping(t_uint256,t_uint256)"},{"astId":47999,"contract":"src/RiftExchange.sol:RiftExchange","label":"currentHeight","offset":0,"slot":"2","type":"t_uint256"},{"astId":48001,"contract":"src/RiftExchange.sol:RiftExchange","label":"currentConfirmationHeight","offset":0,"slot":"3","type":"t_uint256"},{"astId":46637,"contract":"src/RiftExchange.sol:RiftExchange","label":"owner","offset":0,"slot":"4","type":"t_address"},{"astId":49400,"contract":"src/RiftExchange.sol:RiftExchange","label":"isDepositNewLiquidityPaused","offset":20,"slot":"4","type":"t_bool"},{"astId":49403,"contract":"src/RiftExchange.sol:RiftExchange","label":"protocolFeeBP","offset":21,"slot":"4","type":"t_uint8"},{"astId":49405,"contract":"src/RiftExchange.sol:RiftExchange","label":"feeRouterAddress","offset":0,"slot":"5","type":"t_address"},{"astId":49409,"contract":"src/RiftExchange.sol:RiftExchange","label":"depositVaults","offset":0,"slot":"6","type":"t_array(t_struct(DepositVault)49350_storage)dyn_storage"},{"astId":49413,"contract":"src/RiftExchange.sol:RiftExchange","label":"swapReservations","offset":0,"slot":"7","type":"t_array(t_struct(SwapReservation)49331_storage)dyn_storage"},{"astId":49418,"contract":"src/RiftExchange.sol:RiftExchange","label":"liquidityProviders","offset":0,"slot":"8","type":"t_mapping(t_address,t_struct(LiquidityProvider)49335_storage)"}],"types":{"t_address":{"encoding":"inplace","label":"address","numberOfBytes":"20"},"t_array(t_struct(DepositVault)49350_storage)dyn_storage":{"encoding":"dynamic_array","label":"struct RiftExchange.DepositVault[]","numberOfBytes":"32","base":"t_struct(DepositVault)49350_storage"},"t_array(t_struct(SwapReservation)49331_storage)dyn_storage":{"encoding":"dynamic_array","label":"struct RiftExchange.SwapReservation[]","numberOfBytes":"32","base":"t_struct(SwapReservation)49331_storage"},"t_array(t_uint192)dyn_storage":{"encoding":"dynamic_array","label":"uint192[]","numberOfBytes":"32","base":"t_uint192"},"t_array(t_uint256)dyn_storage":{"encoding":"dynamic_array","label":"uint256[]","numberOfBytes":"32","base":"t_uint256"},"t_array(t_uint64)dyn_storage":{"encoding":"dynamic_array","label":"uint64[]","numberOfBytes":"32","base":"t_uint64"},"t_bool":{"encoding":"inplace","label":"bool","numberOfBytes":"1"},"t_bytes22":{"encoding":"inplace","label":"bytes22","numberOfBytes":"22"},"t_bytes32":{"encoding":"inplace","label":"bytes32","numberOfBytes":"32"},"t_enum(ReservationState)49296":{"encoding":"inplace","label":"enum RiftExchange.ReservationState","numberOfBytes":"1"},"t_mapping(t_address,t_struct(LiquidityProvider)49335_storage)":{"encoding":"mapping","key":"t_address","label":"mapping(address => struct RiftExchange.LiquidityProvider)","numberOfBytes":"32","value":"t_struct(LiquidityProvider)49335_storage"},"t_mapping(t_uint256,t_bytes32)":{"encoding":"mapping","key":"t_uint256","label":"mapping(uint256 => bytes32)","numberOfBytes":"32","value":"t_bytes32"},"t_mapping(t_uint256,t_uint256)":{"encoding":"mapping","key":"t_uint256","label":"mapping(uint256 => uint256)","numberOfBytes":"32","value":"t_uint256"},"t_struct(DepositVault)49350_storage":{"encoding":"inplace","label":"struct RiftExchange.DepositVault","numberOfBytes":"160","members":[{"astId":49337,"contract":"src/RiftExchange.sol:RiftExchange","label":"owner","offset":0,"slot":"0","type":"t_address"},{"astId":49339,"contract":"src/RiftExchange.sol:RiftExchange","label":"depositTimestamp","offset":20,"slot":"0","type":"t_uint64"},{"astId":49341,"contract":"src/RiftExchange.sol:RiftExchange","label":"initialBalance","offset":0,"slot":"1","type":"t_uint256"},{"astId":49343,"contract":"src/RiftExchange.sol:RiftExchange","label":"unreservedBalance","offset":0,"slot":"2","type":"t_uint256"},{"astId":49345,"contract":"src/RiftExchange.sol:RiftExchange","label":"withdrawnAmount","offset":0,"slot":"3","type":"t_uint256"},{"astId":49347,"contract":"src/RiftExchange.sol:RiftExchange","label":"exchangeRate","offset":0,"slot":"4","type":"t_uint64"},{"astId":49349,"contract":"src/RiftExchange.sol:RiftExchange","label":"btcPayoutLockingScript","offset":8,"slot":"4","type":"t_bytes22"}]},"t_struct(LiquidityProvider)49335_storage":{"encoding":"inplace","label":"struct RiftExchange.LiquidityProvider","numberOfBytes":"32","members":[{"astId":49334,"contract":"src/RiftExchange.sol:RiftExchange","label":"depositVaultIndexes","offset":0,"slot":"0","type":"t_array(t_uint256)dyn_storage"}]},"t_struct(SwapReservation)49331_storage":{"encoding":"inplace","label":"struct RiftExchange.SwapReservation","numberOfBytes":"352","members":[{"astId":49298,"contract":"src/RiftExchange.sol:RiftExchange","label":"owner","offset":0,"slot":"0","type":"t_address"},{"astId":49300,"contract":"src/RiftExchange.sol:RiftExchange","label":"confirmationBlockHeight","offset":20,"slot":"0","type":"t_uint32"},{"astId":49302,"contract":"src/RiftExchange.sol:RiftExchange","label":"reservationTimestamp","offset":24,"slot":"0","type":"t_uint64"},{"astId":49304,"contract":"src/RiftExchange.sol:RiftExchange","label":"liquidityUnlockedTimestamp","offset":0,"slot":"1","type":"t_uint64"},{"astId":49307,"contract":"src/RiftExchange.sol:RiftExchange","label":"state","offset":8,"slot":"1","type":"t_enum(ReservationState)49296"},{"astId":49309,"contract":"src/RiftExchange.sol:RiftExchange","label":"ethPayoutAddress","offset":9,"slot":"1","type":"t_address"},{"astId":49311,"contract":"src/RiftExchange.sol:RiftExchange","label":"lpReservationHash","offset":0,"slot":"2","type":"t_bytes32"},{"astId":49313,"contract":"src/RiftExchange.sol:RiftExchange","label":"nonce","offset":0,"slot":"3","type":"t_bytes32"},{"astId":49315,"contract":"src/RiftExchange.sol:RiftExchange","label":"totalSatsInputIncludingProxyFee","offset":0,"slot":"4","type":"t_uint256"},{"astId":49317,"contract":"src/RiftExchange.sol:RiftExchange","label":"totalSwapOutputAmount","offset":0,"slot":"5","type":"t_uint256"},{"astId":49319,"contract":"src/RiftExchange.sol:RiftExchange","label":"proposedBlockHeight","offset":0,"slot":"6","type":"t_uint256"},{"astId":49321,"contract":"src/RiftExchange.sol:RiftExchange","label":"proposedBlockHash","offset":0,"slot":"7","type":"t_bytes32"},{"astId":49324,"contract":"src/RiftExchange.sol:RiftExchange","label":"vaultIndexes","offset":0,"slot":"8","type":"t_array(t_uint256)dyn_storage"},{"astId":49327,"contract":"src/RiftExchange.sol:RiftExchange","label":"amountsToReserve","offset":0,"slot":"9","type":"t_array(t_uint192)dyn_storage"},{"astId":49330,"contract":"src/RiftExchange.sol:RiftExchange","label":"expectedSatsOutput","offset":0,"slot":"10","type":"t_array(t_uint64)dyn_storage"}]},"t_uint192":{"encoding":"inplace","label":"uint192","numberOfBytes":"24"},"t_uint256":{"encoding":"inplace","label":"uint256","numberOfBytes":"32"},"t_uint32":{"encoding":"inplace","label":"uint32","numberOfBytes":"4"},"t_uint64":{"encoding":"inplace","label":"uint64","numberOfBytes":"8"},"t_uint8":{"encoding":"inplace","label":"uint8","numberOfBytes":"1"}}},"id":32}