{"abi":[{"type":"constructor","inputs":[{"name":"initialCheckpointHeight","type":"uint256","internalType":"uint256"},{"name":"initialBlockHash","type":"bytes32","internalType":"bytes32"},{"name":"initialRetargetBlockHash","type":"bytes32","internalType":"bytes32"},{"name":"initialChainwork","type":"uint256","internalType":"uint256"},{"name":"verifierContractAddress","type":"address","internalType":"address"},{"name":"depositTokenAddress","type":"address","internalType":"address"},{"name":"initialFeeRouterAddress","type":"address","internalType":"address"},{"name":"owner","type":"address","internalType":"address"},{"name":"circuitVerificationKey","type":"bytes32","internalType":"bytes32"},{"name":"minimumConfirmationDelta","type":"uint8","internalType":"uint8"}],"stateMutability":"nonpayable"},{"type":"function","name":"CHALLENGE_PERIOD","inputs":[],"outputs":[{"name":"","type":"uint32","internalType":"uint32"}],"stateMutability":"view"},{"type":"function","name":"CIRCUIT_VERIFICATION_KEY","inputs":[],"outputs":[{"name":"","type":"bytes32","internalType":"bytes32"}],"stateMutability":"view"},{"type":"function","name":"DEPOSIT_TOKEN","inputs":[],"outputs":[{"name":"","type":"address","internalType":"contract IERC20"}],"stateMutability":"view"},{"type":"function","name":"RESERVATION_LOCKUP_PERIOD","inputs":[],"outputs":[{"name":"","type":"uint32","internalType":"uint32"}],"stateMutability":"view"},{"type":"function","name":"TOKEN_DECIMALS","inputs":[],"outputs":[{"name":"","type":"uint8","internalType":"uint8"}],"stateMutability":"view"},{"type":"function","name":"VERIFIER_CONTRACT","inputs":[],"outputs":[{"name":"","type":"address","internalType":"contract ISP1Verifier"}],"stateMutability":"view"},{"type":"function","name":"calculateRetargetHeight","inputs":[{"name":"blockHeight","type":"uint256","internalType":"uint256"}],"outputs":[{"name":"","type":"uint256","internalType":"uint256"}],"stateMutability":"pure"},{"type":"function","name":"currentConfirmationHeight","inputs":[],"outputs":[{"name":"","type":"uint256","internalType":"uint256"}],"stateMutability":"view"},{"type":"function","name":"currentHeight","inputs":[],"outputs":[{"name":"","type":"uint256","internalType":"uint256"}],"stateMutability":"view"},{"type":"function","name":"depositLiquidity","inputs":[{"name":"depositAmount","type":"uint256","internalType":"uint256"},{"name":"exchangeRate","type":"uint64","internalType":"uint64"},{"name":"btcPayoutLockingScript","type":"bytes22","internalType":"bytes22"}],"outputs":[],"stateMutability":"nonpayable"},{"type":"function","name":"getAreDepositsPaused","inputs":[],"outputs":[{"name":"","type":"bool","internalType":"bool"}],"stateMutability":"view"},{"type":"function","name":"getBlockHash","inputs":[{"name":"blockHeight","type":"uint256","internalType":"uint256"}],"outputs":[{"name":"","type":"bytes32","internalType":"bytes32"}],"stateMutability":"view"},{"type":"function","name":"getChainwork","inputs":[{"name":"blockHeight","type":"uint256","internalType":"uint256"}],"outputs":[{"name":"","type":"uint256","internalType":"uint256"}],"stateMutability":"view"},{"type":"function","name":"getDepositVault","inputs":[{"name":"depositIndex","type":"uint256","internalType":"uint256"}],"outputs":[{"name":"","type":"tuple","internalType":"struct RiftExchange.DepositVault","components":[{"name":"owner","type":"address","internalType":"address"},{"name":"initialBalance","type":"uint256","internalType":"uint256"},{"name":"unreservedBalance","type":"uint256","internalType":"uint256"},{"name":"withdrawnAmount","type":"uint256","internalType":"uint256"},{"name":"exchangeRate","type":"uint64","internalType":"uint64"},{"name":"btcPayoutLockingScript","type":"bytes22","internalType":"bytes22"}]}],"stateMutability":"view"},{"type":"function","name":"getDepositVaultUnreservedBalance","inputs":[{"name":"depositIndex","type":"uint256","internalType":"uint256"}],"outputs":[{"name":"","type":"uint256","internalType":"uint256"}],"stateMutability":"view"},{"type":"function","name":"getDepositVaultsLength","inputs":[],"outputs":[{"name":"","type":"uint256","internalType":"uint256"}],"stateMutability":"view"},{"type":"function","name":"getLiquidityProvider","inputs":[{"name":"lpAddress","type":"address","internalType":"address"}],"outputs":[{"name":"","type":"tuple","internalType":"struct RiftExchange.LiquidityProvider","components":[{"name":"depositVaultIndexes","type":"uint256[]","internalType":"uint256[]"}]}],"stateMutability":"view"},{"type":"function","name":"getReservation","inputs":[{"name":"reservationIndex","type":"uint256","internalType":"uint256"}],"outputs":[{"name":"","type":"tuple","internalType":"struct RiftExchange.SwapReservation","components":[{"name":"owner","type":"address","internalType":"address"},{"name":"confirmationBlockHeight","type":"uint32","internalType":"uint32"},{"name":"reservationTimestamp","type":"uint64","internalType":"uint64"},{"name":"liquidityUnlockedTimestamp","type":"uint64","internalType":"uint64"},{"name":"state","type":"uint8","internalType":"enum RiftExchange.ReservationState"},{"name":"ethPayoutAddress","type":"address","internalType":"address"},{"name":"lpReservationHash","type":"bytes32","internalType":"bytes32"},{"name":"nonce","type":"bytes32","internalType":"bytes32"},{"name":"totalSatsInputIncludingProxyFee","type":"uint256","internalType":"uint256"},{"name":"totalSwapOutputAmount","type":"uint256","internalType":"uint256"},{"name":"proposedBlockHeight","type":"uint256","internalType":"uint256"},{"name":"proposedBlockHash","type":"bytes32","internalType":"bytes32"},{"name":"vaultIndexes","type":"uint256[]","internalType":"uint256[]"},{"name":"amountsToReserve","type":"uint192[]","internalType":"uint192[]"},{"name":"expectedSatsOutput","type":"uint64[]","internalType":"uint64[]"}]}],"stateMutability":"view"},{"type":"function","name":"getReservationLength","inputs":[],"outputs":[{"name":"","type":"uint256","internalType":"uint256"}],"stateMutability":"view"},{"type":"function","name":"isDepositNewLiquidityPaused","inputs":[],"outputs":[{"name":"","type":"bool","internalType":"bool"}],"stateMutability":"view"},{"type":"function","name":"owner","inputs":[],"outputs":[{"name":"","type":"address","internalType":"address"}],"stateMutability":"view"},{"type":"function","name":"protocolFeeBP","inputs":[],"outputs":[{"name":"","type":"uint8","internalType":"uint8"}],"stateMutability":"view"},{"type":"function","name":"releaseLiquidity","inputs":[{"name":"swapReservationIndex","type":"uint256","internalType":"uint256"}],"outputs":[],"stateMutability":"nonpayable"},{"type":"function","name":"reserveLiquidity","inputs":[{"name":"reservationOwner","type":"address","internalType":"address"},{"name":"vaultIndexesToReserve","type":"uint256[]","internalType":"uint256[]"},{"name":"amountsToReserve","type":"uint192[]","internalType":"uint192[]"},{"name":"ethPayoutAddress","type":"address","internalType":"address"},{"name":"totalSatsInputIncludingProxyFee","type":"uint256","internalType":"uint256"},{"name":"expiredSwapReservationIndexes","type":"uint256[]","internalType":"uint256[]"}],"outputs":[],"stateMutability":"nonpayable"},{"type":"function","name":"submitSwapProof","inputs":[{"name":"swapReservationIndex","type":"uint256","internalType":"uint256"},{"name":"bitcoinTxId","type":"bytes32","internalType":"bytes32"},{"name":"merkleRoot","type":"bytes32","internalType":"bytes32"},{"name":"safeBlockHeight","type":"uint32","internalType":"uint32"},{"name":"proposedBlockHeight","type":"uint64","internalType":"uint64"},{"name":"confirmationBlockHeight","type":"uint64","internalType":"uint64"},{"name":"blockHashes","type":"bytes32[]","internalType":"bytes32[]"},{"name":"blockChainworks","type":"uint256[]","internalType":"uint256[]"},{"name":"proof","type":"bytes","internalType":"bytes"}],"outputs":[],"stateMutability":"nonpayable"},{"type":"function","name":"transferOwnership","inputs":[{"name":"newOwner","type":"address","internalType":"address"}],"outputs":[],"stateMutability":"nonpayable"},{"type":"function","name":"updateExchangeRate","inputs":[{"name":"globalVaultIndex","type":"uint256","internalType":"uint256"},{"name":"localVaultIndex","type":"uint256","internalType":"uint256"},{"name":"newExchangeRate","type":"uint64","internalType":"uint64"},{"name":"expiredSwapReservationIndexes","type":"uint256[]","internalType":"uint256[]"}],"outputs":[],"stateMutability":"nonpayable"},{"type":"function","name":"updateFeeRouter","inputs":[{"name":"newProtocolAddress","type":"address","internalType":"address payable"}],"outputs":[],"stateMutability":"nonpayable"},{"type":"function","name":"updateNewLiquidityDepositsPaused","inputs":[{"name":"newPauseState","type":"bool","internalType":"bool"}],"outputs":[],"stateMutability":"nonpayable"},{"type":"function","name":"updateProtocolFee","inputs":[{"name":"newProtocolFeeBP","type":"uint8","internalType":"uint8"}],"outputs":[],"stateMutability":"nonpayable"},{"type":"function","name":"validateBlockExists","inputs":[{"name":"blockHeight","type":"uint256","internalType":"uint256"}],"outputs":[],"stateMutability":"view"},{"type":"function","name":"withdrawLiquidity","inputs":[{"name":"globalVaultIndex","type":"uint256","internalType":"uint256"},{"name":"localVaultIndex","type":"uint256","internalType":"uint256"},{"name":"amountToWithdraw","type":"uint192","internalType":"uint192"},{"name":"expiredSwapReservationIndexes","type":"uint256[]","internalType":"uint256[]"}],"outputs":[],"stateMutability":"nonpayable"},{"type":"event","name":"BlocksAdded","inputs":[{"name":"startBlockHeight","type":"uint256","indexed":false,"internalType":"uint256"},{"name":"count","type":"uint256","indexed":false,"internalType":"uint256"}],"anonymous":false},{"type":"event","name":"LiquidityDeposited","inputs":[{"name":"depositor","type":"address","indexed":true,"internalType":"address"},{"name":"depositVaultIndex","type":"uint256","indexed":false,"internalType":"uint256"},{"name":"amount","type":"uint256","indexed":false,"internalType":"uint256"},{"name":"exchangeRate","type":"uint64","indexed":false,"internalType":"uint64"}],"anonymous":false},{"type":"event","name":"LiquidityReserved","inputs":[{"name":"reserver","type":"address","indexed":true,"internalType":"address"},{"name":"swapReservationIndex","type":"uint256","indexed":false,"internalType":"uint256"},{"name":"orderNonce","type":"bytes32","indexed":false,"internalType":"bytes32"}],"anonymous":false},{"type":"event","name":"OwnershipTransferred","inputs":[{"name":"user","type":"address","indexed":true,"internalType":"address"},{"name":"newOwner","type":"address","indexed":true,"internalType":"address"}],"anonymous":false},{"type":"event","name":"ProofSubmitted","inputs":[{"name":"prover","type":"address","indexed":true,"internalType":"address"},{"name":"swapReservationIndex","type":"uint256","indexed":false,"internalType":"uint256"},{"name":"orderNonce","type":"bytes32","indexed":false,"internalType":"bytes32"}],"anonymous":false},{"type":"event","name":"SwapComplete","inputs":[{"name":"swapReservationIndex","type":"uint256","indexed":false,"internalType":"uint256"},{"name":"orderNonce","type":"bytes32","indexed":false,"internalType":"bytes32"}],"anonymous":false},{"type":"error","name":"AmountToReserveTooLow","inputs":[{"name":"index","type":"uint256","internalType":"uint256"}]},{"type":"error","name":"BlockDoesNotExist","inputs":[]},{"type":"error","name":"InvalidConfirmationBlock","inputs":[]},{"type":"error","name":"InvalidExchangeRate","inputs":[]},{"type":"error","name":"InvalidInputArrays","inputs":[]},{"type":"error","name":"InvalidProposedBlockOverwrite","inputs":[]},{"type":"error","name":"InvalidReservationState","inputs":[]},{"type":"error","name":"InvalidSafeBlock","inputs":[]},{"type":"error","name":"NewDepositsPaused","inputs":[]},{"type":"error","name":"NotEnoughLiquidity","inputs":[]},{"type":"error","name":"NotVaultOwner","inputs":[]},{"type":"error","name":"OverwrittenProposedBlock","inputs":[]},{"type":"error","name":"ReservationNotExpired","inputs":[]},{"type":"error","name":"ReservationNotProved","inputs":[]},{"type":"error","name":"StillInChallengePeriod","inputs":[]},{"type":"error","name":"WithdrawalAmountError","inputs":[]}],"bytecode":{"object":"0x6101206040526004805461ffff60a01b1916600560a91b17905534801562000025575f80fd5b5060405162003574380380620035748339810160408190526200004891620001f0565b60028a90555f8a81526001602090815260408083208a90559082905281208a905583908b9089908c908c9086908290806200008388620001a2565b8152602081019190915260409081015f9081209290925560ff909216608052600480546001600160a01b0389166001600160a01b03199091168117909155915191955093507f8be0079c531659141344cd1fd0a4f28419497f9722a3daafe3b4186f6b6457e09250839150a35060e08290526001600160a01b0380871661010052851660a08190526040805163313ce56760e01b8152905163313ce567916004808201926020929091908290030181865afa15801562000145573d5f803e3d5ffd5b505050506040513d601f19601f820116820180604052508101906200016b91906200028c565b60ff1660c0525050600580546001600160a01b0319166001600160a01b03939093169290921790915550620002ef95505050505050565b5f620001b16107e083620002af565b620001bd9083620002cf565b92915050565b80516001600160a01b0381168114620001da575f80fd5b919050565b805160ff81168114620001da575f80fd5b5f805f805f805f805f806101408b8d0312156200020b575f80fd5b8a51995060208b0151985060408b0151975060608b015196506200023260808c01620001c3565b95506200024260a08c01620001c3565b94506200025260c08c01620001c3565b93506200026260e08c01620001c3565b92506101008b015191506200027b6101208c01620001df565b90509295989b9194979a5092959850565b5f602082840312156200029d575f80fd5b620002a882620001df565b9392505050565b5f82620002ca57634e487b7160e01b5f52601260045260245ffd5b500690565b81810381811115620001bd57634e487b7160e01b5f52601160045260245ffd5b60805160a05160c05160e051610100516132166200035e5f395f818161044a0152611d5b01525f81816103cb0152611d8801525f81816102e9015261167801525f818161020501528181610b1801528181610b8501528181610f1f015261118f01525f61216a01526132165ff3fe608060405234801561000f575f80fd5b50600436106101e7575f3560e01c806398f9e75711610109578063d57763c31161009e578063ed8b2b321161006e578063ed8b2b3214610509578063ee82ac5e1461051c578063f2fde38b1461053b578063fba781661461054e575f80fd5b8063d57763c3146104bb578063d8418403146104db578063ea6fe03e146104ee578063ecdea06f146104f6575f80fd5b8063b9b2a982116100d9578063b9b2a9821461046c578063c3a079ed1461047f578063c5fba0b814610488578063cda7d82c1461049c575f80fd5b806398f9e75714610400578063aeacb2e714610420578063b01c27d114610433578063b8b2459214610445575f80fd5b8063778919071161017f57806389a11f7a1161014f57806389a11f7a146103845780638cc63cdd146103a25780638d5ca052146103c65780638da5cb5b146103ed575f80fd5b806377891907146103435780637a9059a2146103565780637dce555014610369578063803d5f6214610371575f80fd5b806356fe6f86116101ba57806356fe6f86146102d15780635b7f415c146102e45780636512d0571461031d57806373e149e614610330575f80fd5b80630a7aa293146101eb57806313f6658714610200578063163de0c514610244578063276d080e1461025b575b5f80fd5b6101fe6101f9366004612702565b610557565b005b6102277f000000000000000000000000000000000000000000000000000000000000000081565b6040516001600160a01b0390911681526020015b60405180910390f35b61024d60025481565b60405190815260200161023b565b61026e610269366004612729565b6105aa565b60405161023b919081516001600160a01b031681526020808301519082015260408083015190820152606080830151908201526080808301516001600160401b03169082015260a0918201516001600160501b0319169181019190915260c00190565b6101fe6102df36600461282d565b61066b565b61030b7f000000000000000000000000000000000000000000000000000000000000000081565b60405160ff909116815260200161023b565b61024d61032b366004612729565b6108d2565b6101fe61033e36600461289d565b6108fd565b6101fe610351366004612729565b610949565b6101fe6103643660046128c5565b610c8b565b60065461024d565b6101fe61037f3660046128e0565b610cd3565b61038d61708081565b60405163ffffffff909116815260200161023b565b6004546103b690600160a01b900460ff1681565b604051901515815260200161023b565b61024d7f000000000000000000000000000000000000000000000000000000000000000081565b600454610227906001600160a01b031681565b61041361040e36600461289d565b610ff1565b60405161023b919061296e565b6101fe61042e3660046129a6565b611071565b600454600160a01b900460ff166103b6565b6102277f000000000000000000000000000000000000000000000000000000000000000081565b61024d61047a366004612729565b611201565b61038d61012c81565b60045461030b90600160a81b900460ff1681565b61024d6104aa366004612729565b5f9081526001602052604090205490565b6104ce6104c9366004612729565b61121e565b60405161023b9190612a74565b6101fe6104e9366004612bac565b6114f6565b60075461024d565b6101fe610504366004612d33565b611c1b565b6101fe610517366004612729565b611ee1565b61024d61052a366004612729565b5f9081526020819052604090205490565b6101fe61054936600461289d565b611f0f565b61024d60035481565b6004546001600160a01b0316331461058a5760405162461bcd60e51b815260040161058190612e01565b60405180910390fd5b6004805460ff909216600160a81b0260ff60a81b19909216919091179055565b6040805160c0810182525f80825260208201819052918101829052606081018290526080810182905260a0810191909152600682815481106105ee576105ee612e27565b5f9182526020918290206040805160c081018252600590930290910180546001600160a01b03168352600181015493830193909352600283015490820152600382015460608201526004909101546001600160401b03811660808301526001600160501b0319600160401b90910460501b1660a082015292915050565b335f90815260086020526040902080548591908590811061068e5761068e612e27565b905f5260205f200154146106b557604051630e7fea9d60e01b815260040160405180910390fd5b816001600160401b03165f036106de5760405163a2ec3a5560e01b815260040160405180910390fd5b5f600685815481106106f2576106f2612e27565b905f5260205f20906005020190505f8160020154905061071183611f84565b8160010154810361073f5760048201805467ffffffffffffffff19166001600160401b0386161790556108ca565b6040805160c08101825283546001600160a01b039081168252602082018481529282018481525f606084018181526001600160401b038a81166080870190815260048a0154600160401b90819004605090811b6001600160501b03191660a08a019081526006805460018101825590885299517ff652222313e28459528d920b65115c16c04f3efc82aaedc97be59f3f377c0d3f6005909b029a8b0180546001600160a01b03191691909a161790985598517ff652222313e28459528d920b65115c16c04f3efc82aaedc97be59f3f377c0d4089015594517ff652222313e28459528d920b65115c16c04f3efc82aaedc97be59f3f377c0d4188015591517ff652222313e28459528d920b65115c16c04f3efc82aaedc97be59f3f377c0d4287015590517ff652222313e28459528d920b65115c16c04f3efc82aaedc97be59f3f377c0d4390950180549451959091166001600160f01b0319909416939093179390941c029190911790556003830180548392906108be908490612e4f565b90915550505f60028301555b505050505050565b5f600682815481106108e6576108e6612e27565b905f5260205f209060050201600201549050919050565b6004546001600160a01b031633146109275760405162461bcd60e51b815260040161058190612e01565b600580546001600160a01b0319166001600160a01b0392909216919091179055565b5f6007828154811061095d5761095d612e27565b5f9182526020909120600b90910201905060026001820154600160401b900460ff166004811115610990576109906129d0565b146109ae576040516320d55f6760e21b815260040160405180910390fd5b60018101546001600160401b03164210156109dc57604051632d5c37f560e21b815260040160405180910390fd5b610a10604051806040016040528060138152602001721c1c9bdc1bdcd959109b1bd8dad2195a59da1d606a1b815250612092565b610a31610a2c82600601545f9081526020819052604090205490565b6120d5565b610a63604051806040016040528060118152602001700e0e4dee0dee6cac884d8dec6d690c2e6d607b1b815250612092565b610a7081600701546120d5565b600781015460068201545f9081526020819052604090205414610aa65760405163c1f6fa5160e01b815260040160405180910390fd5b60018101805460ff60401b19166803000000000000000017905560045460058201545f9161271091610ae291600160a81b900460ff1690612e62565b610aec9190612e8d565b60055460405163a9059cbb60e01b81526001600160a01b039182166004820152602481018390529192507f0000000000000000000000000000000000000000000000000000000000000000169063a9059cbb906044016020604051808303815f875af1158015610b5e573d5f803e3d5ffd5b505050506040513d601f19601f82011682018060405250810190610b829190612ea0565b507f00000000000000000000000000000000000000000000000000000000000000006001600160a01b031663a9059cbb8360010160099054906101000a90046001600160a01b0316838560050154610bda9190612ebb565b6040516001600160e01b031960e085901b1681526001600160a01b03909216600483015260248201526044016020604051808303815f875af1158015610c22573d5f803e3d5ffd5b505050506040513d601f19601f82011682018060405250810190610c469190612ea0565b5060038201546040805185815260208101929092527f12245c00d428a4c558061d2f69fe154a203bd2fb4a65b6c3e73e95ccdc735d18910160405180910390a1505050565b6004546001600160a01b03163314610cb55760405162461bcd60e51b815260040161058190612e01565b60048054911515600160a01b0260ff60a01b19909216919091179055565b600454600160a01b900460ff1615610cfe576040516348010c6560e11b815260040160405180910390fd5b816001600160401b03165f03610d275760405163a2ec3a5560e01b815260040160405180910390fd5b335f908152600860205260408120549003610d7357604080515f602080830182815283850185528352338252600881529290208151805192939192610d6f92849201906125a6565b5050505b6040805160c0810182523380825260208083018781528385018881525f606086018181526001600160401b03808b16608089019081526001600160501b03198b1660a08a0190815260068054600181810183558288529b5160059091027ff652222313e28459528d920b65115c16c04f3efc82aaedc97be59f3f377c0d3f810180546001600160a01b03939093166001600160a01b03199093169290921790915597517ff652222313e28459528d920b65115c16c04f3efc82aaedc97be59f3f377c0d4089015595517ff652222313e28459528d920b65115c16c04f3efc82aaedc97be59f3f377c0d4188015592517ff652222313e28459528d920b65115c16c04f3efc82aaedc97be59f3f377c0d42870155517ff652222313e28459528d920b65115c16c04f3efc82aaedc97be59f3f377c0d439095018054925160501c600160401b026001600160f01b03199093169590911694909417179092559281526008909152929092209154610ee89190612ebb565b81546001810183555f9283526020909220909101556040516323b872dd60e01b8152336004820152306024820152604481018490527f00000000000000000000000000000000000000000000000000000000000000006001600160a01b0316906323b872dd906064016020604051808303815f875af1158015610f6d573d5f803e3d5ffd5b505050506040513d601f19601f82011682018060405250810190610f919190612ea0565b5060065433907ffd5ab8914e1dca355d18ae7fe50627d3afe042f323e1b0ae31f3a9d2cd19de3790610fc590600190612ebb565b60408051918252602082018790526001600160401b0386169082015260600160405180910390a2505050565b6040805160208082018352606082526001600160a01b0384165f908152600882528390208351815480840282018601865292810183815293949093919284929184919084018282801561106157602002820191905f5260205f20905b81548152602001906001019080831161104d575b5050505050815250509050919050565b335f90815260086020526040902080548591908590811061109457611094612e27565b905f5260205f200154146110bb57604051630e7fea9d60e01b815260040160405180910390fd5b6110c481611f84565b5f600685815481106110d8576110d8612e27565b905f5260205f2090600502019050826001600160c01b03165f148061110957508060020154836001600160c01b0316115b156111275760405163b4e3d41360e01b815260040160405180910390fd5b826001600160c01b0316816002015f8282546111439190612ebb565b92505081905550826001600160c01b0316816003015f8282546111669190612e4f565b909155505060405163a9059cbb60e01b81523360048201526001600160c01b03841660248201527f00000000000000000000000000000000000000000000000000000000000000006001600160a01b03169063a9059cbb906044016020604051808303815f875af11580156111dd573d5f803e3d5ffd5b505050506040513d601f19601f820116820180604052508101906108ca9190612ea0565b5f61120e6107e083612ece565b6112189083612ebb565b92915050565b604080516101e0810182525f8082526020820181905291810182905260608082018390526080820183905260a0820183905260c0820183905260e0820183905261010082018390526101208201839052610140820183905261016082019290925261018081018290526101a081018290526101c0810191909152600782815481106112ab576112ab612e27565b5f918252602091829020604080516101e081018252600b90930290910180546001600160a01b038116845263ffffffff600160a01b820416948401949094526001600160401b03600160c01b909404841691830191909152600181015492831660608301529091608083019060ff600160401b909104166004811115611333576113336129d0565b6004811115611344576113446129d0565b81526020016001820160099054906101000a90046001600160a01b03166001600160a01b03166001600160a01b031681526020016002820154815260200160038201548152602001600482015481526020016005820154815260200160068201548152602001600782015481526020016008820180548060200260200160405190810160405280929190818152602001828054801561140057602002820191905f5260205f20905b8154815260200190600101908083116113ec575b505050505081526020016009820180548060200260200160405190810160405280929190818152602001828054801561146057602002820191905f5260205f20905b81546001600160c01b03168152600190910190602001808311611442575b50505050508152602001600a820180548060200260200160405190810160405280929190818152602001828054801561106157602002820191905f5260205f20905f905b82829054906101000a90046001600160401b03166001600160401b0316815260200190600801906020826007010492830192600103820291508084116114a45790505050505050815250509050919050565b8451158061150657508351855114155b156115245760405163744bba7b60e01b815260040160405180910390fd5b5f5b845181101561157c5784818151811061154157611541612e27565b60200260200101516001600160c01b03165f0361157457604051633143436b60e11b815260048101829052602401610581565b600101611526565b505f805f87516001600160401b038111156115995761159961275b565b6040519080825280602002602001820160405280156115c2578160200160208202803683370190505b5090505f5b87518110156116ee575f60068a83815181106115e5576115e5612e27565b6020026020010151815481106115fd576115fd612e27565b5f91825260209091206004600590920201015489516001600160401b03909116915089908390811061163157611631612e27565b60200260200101516001600160c01b03168561164d9190612e4f565b94505f61169c8a848151811061166557611665612e27565b60200260200101516001600160c01b03167f000000000000000000000000000000000000000000000000000000000000000061211a565b90505f6116a98383612e8d565b90506116b58187612e4f565b9550808585815181106116ca576116ca612e27565b6001600160401b0392909216602092830291909101909101525050506001016115c7565b506116f884611f84565b5f805b895181101561187957600283828151811061171857611718612e27565b602002602001015160068c848151811061173457611734612e27565b60200260200101518154811061174c5761174c612e27565b5f91825260209182902060046005909202010154604080516001600160401b03909416928401929092526001600160501b0319600160401b90910460501b16908201526060810184905260800160408051601f19818403018152908290526117b391612f03565b602060405180830381855afa1580156117ce573d5f803e3d5ffd5b5050506040513d601f19601f820116820180604052508101906117f19190612f1e565b915060068a828151811061180757611807612e27565b60200260200101518154811061181f5761181f612e27565b905f5260205f2090600502016002015489828151811061184157611841612e27565b60200260200101516001600160c01b0316111561187157604051634323a55560e01b815260040160405180910390fd5b6001016116fb565b50600754604080516001600160a01b038a16602082015242918101919091524660608201526080810183905260a08101919091525f9060c00160408051601f1981840301815282825280516020918201206101e0840183526001600160a01b038f1684525f9184018290526001600160401b034216928401929092526060830152915060079060808101600181526020018a6001600160a01b031681526020018481526020018381526020018981526020018781526020015f81526020015f801b81526020018c81526020018b815260200185815250908060018154018082558091505060019003905f5260205f2090600b02015f909190919091505f820151815f015f6101000a8154816001600160a01b0302191690836001600160a01b031602179055506020820151815f0160146101000a81548163ffffffff021916908363ffffffff1602179055506040820151815f0160186101000a8154816001600160401b0302191690836001600160401b031602179055506060820151816001015f6101000a8154816001600160401b0302191690836001600160401b0316021790555060808201518160010160086101000a81548160ff02191690836004811115611a4757611a476129d0565b021790555060a08201516001820180546001600160a01b039092166901000000000000000000027fffffff0000000000000000000000000000000000000000ffffffffffffffffff90921691909117905560c0820151600282015560e0820151600382015561010082015160048201556101208201516005820155610140820151600682015561016082015160078201556101808201518051611af49160088401916020909101906125a6565b506101a08201518051611b119160098401916020909101906125ef565b506101c08201518051611b2e91600a840191602090910190612642565b5050505f5b8a51811015611bb557898181518110611b4e57611b4e612e27565b60200260200101516001600160c01b031660068c8381518110611b7357611b73612e27565b602002602001015181548110611b8b57611b8b612e27565b905f5260205f2090600502016002015f828254611ba89190612ebb565b9091555050600101611b33565b508a6001600160a01b03167f5956135c9be999a50f7ff4ea49ddf1485bc321ab333dc7a0877633eeb47528936001611bec60075490565b611bf69190612ebb565b6040805191825260208201859052015b60405180910390a25050505050505050505050565b5f60078a81548110611c2f57611c2f612e27565b5f9182526020909120600b909102019050600180820154600160401b900460ff166004811115611c6157611c616129d0565b14611c7f57604051639085371960e01b815260040160405180910390fd5b5f6040518061016001604052808b81526020018a8152602001836002015481526020018360030154815260200183600801805490506001600160401b03168152602001611cd461052a8b63ffffffff16611201565b815263ffffffff8a1660208201819052604090910190611cf4908a612f35565b6001600160401b03168152602001611d0c8989612f35565b6001600160401b0316815260200186815260200185815250604051602001611d349190612f5c565b60408051601f198184030181529082905263020a49e360e51b825291506001600160a01b037f000000000000000000000000000000000000000000000000000000000000000016906341493c6090611db4907f00000000000000000000000000000000000000000000000000000000000000009085908890600401613065565b5f6040518083038186803b158015611dca575f80fd5b505afa158015611ddc573d5f803e3d5ffd5b50611e139250505063ffffffff89166001600160401b038981169089168888611e05858e612f35565b6001600160401b0316612155565b60018201805460ff60401b191668020000000000000000179055611e3961012c4261308f565b60018301805467ffffffffffffffff19166001600160401b039283161790558716600683015584611e7063ffffffff8a1689612f35565b6001600160401b031681518110611e8957611e89612e27565b60200260200101518260070181905550336001600160a01b03167f8bcdab581a6176f792fa96b0c57d32273bcd8621b0548c15a9c6379dc246e26c8c8460030154604051611c06929190918252602082015260400190565b5f81815260208190526040902054611f0c5760405163fa4a5e4560e01b815260040160405180910390fd5b50565b6004546001600160a01b03163314611f395760405162461bcd60e51b815260040161058190612e01565b600480546001600160a01b0319166001600160a01b03831690811790915560405133907f8be0079c531659141344cd1fd0a4f28419497f9722a3daafe3b4186f6b6457e0905f90a350565b611f8d816124f5565b5f5b815181101561208e575f6007838381518110611fad57611fad612e27565b602002602001015181548110611fc557611fc5612e27565b905f5260205f2090600b020190505f5b600882015481101561206c575f6006836008018381548110611ff957611ff9612e27565b905f5260205f2001548154811061201257612012612e27565b905f5260205f209060050201905082600901828154811061203557612035612e27565b5f9182526020822001546002830180546001600160c01b0390921692909161205e908490612e4f565b909155505050600101611fd5565b506001908101805460ff60401b19166804000000000000000017905501611f8f565b5050565b611f0c816040516024016120a691906130af565b60408051601f198184030181529190526020810180516001600160e01b031663104c13eb60e21b179052612586565b611f0c816040516024016120eb91815260200190565b60408051601f198184030181529190526020810180516001600160e01b03166327b7cf8560e01b179052612586565b5f60128260ff16101561214e576121328260126130c1565b61213d90600a6131ba565b6121479084612e62565b9050611218565b5090919050565b6002545f8181526001602052604090205460ff7f0000000000000000000000000000000000000000000000000000000000000000166121948888612ebb565b10156121ee575f86815260208190526040902054855186906121b890600190612ebb565b815181106121c8576121c8612e27565b6020026020010151146121ee576040516341305f6360e01b815260040160405180910390fd5b8188111561220f5760405163575f3da360e01b815260040160405180910390fd5b84838151811061222157612221612e27565b60200260200101515f808981526020019081526020015f2054036122465750506108ca565b5f87815260208190526040902054158015906122885750836001855161226c9190612ebb565b8151811061227c5761227c612e27565b60200260200101518110155b156122a6576040516371e98f3d60e11b815260040160405180910390fd5b818711156123ac57818803612317578483815181106122c7576122c7612e27565b60200260200101515f808981526020019081526020015f20819055508383815181106122f5576122f5612e27565b602002602001015160015f8981526020019081526020015f2081905550612412565b818810156123a757875b8781116123a557856123338a83612ebb565b8151811061234357612343612e27565b6020908102919091018101515f83815291829052604090912055846123688a83612ebb565b8151811061237857612378612e27565b6020908102919091018101515f83815260019092526040909120558061239d816131c8565b915050612321565b505b612412565b81871015612412578483815181106123c6576123c6612e27565b60200260200101515f808981526020019081526020015f20819055508383815181106123f4576123f4612e27565b602002602001015160015f8981526020019081526020015f20819055505b6002548711156124225760028790555b5f61242c88611201565b90505f61243888611201565b90508181146124ad575f61244c828a612ebb565b905087818151811061246057612460612e27565b60200260200101515f808481526020019081526020015f208190555086818151811061248e5761248e612e27565b602002602001015160015f8481526020019081526020015f2081905550505b8651604080518c815260208101929092527fb68477c768bbb33b4f238a3dfd17c33c499268c59cd042b7936bbc23dc2bdd34910160405180910390a150505050505050505050565b5f5b815181101561208e5761708063ffffffff16600783838151811061251d5761251d612e27565b60200260200101518154811061253557612535612e27565b5f9182526020909120600b909102015461255f90600160c01b90046001600160401b031642612ebb565b101561257e576040516326349d6b60e01b815260040160405180910390fd5b6001016124f7565b80516a636f6e736f6c652e6c6f67602083015f808483855afa5050505050565b828054828255905f5260205f209081019282156125df579160200282015b828111156125df5782518255916020019190600101906125c4565b506125eb9291506126ee565b5090565b828054828255905f5260205f209081019282156125df579160200282015b828111156125df57825182546001600160c01b0319166001600160c01b0390911617825560209092019160019091019061260d565b828054828255905f5260205f20906003016004900481019282156125df579160200282015f5b838211156126b257835183826101000a8154816001600160401b0302191690836001600160401b031602179055509260200192600801602081600701049283019260010302612668565b80156126e55782816101000a8154906001600160401b0302191690556008016020816007010492830192600103026126b2565b50506125eb9291505b5b808211156125eb575f81556001016126ef565b5f60208284031215612712575f80fd5b813560ff81168114612722575f80fd5b9392505050565b5f60208284031215612739575f80fd5b5035919050565b80356001600160401b0381168114612756575f80fd5b919050565b634e487b7160e01b5f52604160045260245ffd5b604051601f8201601f191681016001600160401b03811182821017156127975761279761275b565b604052919050565b5f6001600160401b038211156127b7576127b761275b565b5060051b60200190565b5f82601f8301126127d0575f80fd5b813560206127e56127e08361279f565b61276f565b8083825260208201915060208460051b870101935086841115612806575f80fd5b602086015b84811015612822578035835291830191830161280b565b509695505050505050565b5f805f8060808587031215612840575f80fd5b843593506020850135925061285760408601612740565b915060608501356001600160401b03811115612871575f80fd5b61287d878288016127c1565b91505092959194509250565b6001600160a01b0381168114611f0c575f80fd5b5f602082840312156128ad575f80fd5b813561272281612889565b8015158114611f0c575f80fd5b5f602082840312156128d5575f80fd5b8135612722816128b8565b5f805f606084860312156128f2575f80fd5b8335925061290260208501612740565b915060408401356001600160501b03198116811461291e575f80fd5b809150509250925092565b803561275681612889565b5f815180845260208085019450602084015f5b8381101561296357815187529582019590820190600101612947565b509495945050505050565b602081525f82516020808401526129886040840182612934565b949350505050565b80356001600160c01b0381168114612756575f80fd5b5f805f80608085870312156129b9575f80fd5b843593506020850135925061285760408601612990565b634e487b7160e01b5f52602160045260245ffd5b60058110612a0057634e487b7160e01b5f52602160045260245ffd5b9052565b5f815180845260208085019450602084015f5b838110156129635781516001600160c01b031687529582019590820190600101612a17565b5f815180845260208085019450602084015f5b838110156129635781516001600160401b031687529582019590820190600101612a4f565b60208152612a8e6020820183516001600160a01b03169052565b5f6020830151612aa6604084018263ffffffff169052565b5060408301516001600160401b03811660608401525060608301516001600160401b0381166080840152506080830151612ae360a08401826129e4565b5060a08301516001600160a01b03811660c08401525060c083015160e08381019190915283015161010080840191909152830151610120808401919091528301516101408084019190915283015161016080840191909152830151610180808401919091528301516101e06101a0808501829052612b65610200860184612934565b9250808601519050601f196101c0818786030181880152612b868584612a04565b908801518782039092018488015293509050612ba28382612a3c565b9695505050505050565b5f805f805f8060c08789031215612bc1575f80fd5b8635612bcc81612889565b95506020878101356001600160401b0380821115612be8575f80fd5b612bf48b838c016127c1565b975060408a0135915080821115612c09575f80fd5b818a0191508a601f830112612c1c575f80fd5b8135612c2a6127e08261279f565b81815260059190911b8301840190848101908d831115612c48575f80fd5b938501935b82851015612c6d57612c5e85612990565b82529385019390850190612c4d565b9850612c7e91505060608b01612929565b955060808a0135945060a08a0135925080831115612c9a575f80fd5b5050612ca889828a016127c1565b9150509295509295509295565b803563ffffffff81168114612756575f80fd5b5f82601f830112612cd7575f80fd5b81356001600160401b03811115612cf057612cf061275b565b612d03601f8201601f191660200161276f565b818152846020838601011115612d17575f80fd5b816020850160208301375f918101602001919091529392505050565b5f805f805f805f805f6101208a8c031215612d4c575f80fd5b8935985060208a0135975060408a01359650612d6a60608b01612cb5565b9550612d7860808b01612740565b9450612d8660a08b01612740565b935060c08a01356001600160401b0380821115612da1575f80fd5b612dad8d838e016127c1565b945060e08c0135915080821115612dc2575f80fd5b612dce8d838e016127c1565b93506101008c0135915080821115612de4575f80fd5b50612df18c828d01612cc8565b9150509295985092959850929598565b6020808252600c908201526b15539055551213d49256915160a21b604082015260600190565b634e487b7160e01b5f52603260045260245ffd5b634e487b7160e01b5f52601160045260245ffd5b8082018082111561121857611218612e3b565b808202811582820484141761121857611218612e3b565b634e487b7160e01b5f52601260045260245ffd5b5f82612e9b57612e9b612e79565b500490565b5f60208284031215612eb0575f80fd5b8151612722816128b8565b8181038181111561121857611218612e3b565b5f82612edc57612edc612e79565b500690565b5f5b83811015612efb578181015183820152602001612ee3565b50505f910152565b5f8251612f14818460208701612ee1565b9190910192915050565b5f60208284031215612f2e575f80fd5b5051919050565b6001600160401b03828116828216039080821115612f5557612f55612e3b565b5092915050565b60208152815160208201526020820151604082015260408201516060820152606082015160808201525f6080830151612fa060a08401826001600160401b03169052565b5060a083015160c083015260c0830151612fc560e08401826001600160401b03169052565b5060e0830151610100612fe2818501836001600160401b03169052565b8401519050610120612ffe848201836001600160401b03169052565b80850151915050610160610140818186015261301e610180860184612934565b90860151858203601f190183870152909250612ba28382612934565b5f8151808452613051816020860160208601612ee1565b601f01601f19169290920160200192915050565b838152606060208201525f61307d606083018561303a565b8281036040840152612ba2818561303a565b6001600160401b03818116838216019080821115612f5557612f55612e3b565b602081525f612722602083018461303a565b60ff828116828216039081111561121857611218612e3b565b600181815b8085111561311457815f19048211156130fa576130fa612e3b565b8085161561310757918102915b93841c93908002906130df565b509250929050565b5f8261312a57506001611218565b8161313657505f611218565b816001811461314c576002811461315657613172565b6001915050611218565b60ff84111561316757613167612e3b565b50506001821b611218565b5060208310610133831016604e8410600b8410161715613195575081810a611218565b61319f83836130da565b805f19048211156131b2576131b2612e3b565b029392505050565b5f61272260ff84168361311c565b5f600182016131d9576131d9612e3b565b506001019056fea2646970667358221220dd71364c192c718f71b9ad5a159aeacdc6127ddf6618a03e31455f14811fa2c164736f6c63430008180033","linkReferences":{}},"methodIdentifiers":{"CHALLENGE_PERIOD()":"c3a079ed","CIRCUIT_VERIFICATION_KEY()":"8d5ca052","DEPOSIT_TOKEN()":"13f66587","RESERVATION_LOCKUP_PERIOD()":"89a11f7a","TOKEN_DECIMALS()":"5b7f415c","VERIFIER_CONTRACT()":"b8b24592","calculateRetargetHeight(uint256)":"b9b2a982","currentConfirmationHeight()":"fba78166","currentHeight()":"163de0c5","depositLiquidity(uint256,uint64,bytes22)":"803d5f62","getAreDepositsPaused()":"b01c27d1","getBlockHash(uint256)":"ee82ac5e","getChainwork(uint256)":"cda7d82c","getDepositVault(uint256)":"276d080e","getDepositVaultUnreservedBalance(uint256)":"6512d057","getDepositVaultsLength()":"7dce5550","getLiquidityProvider(address)":"98f9e757","getReservation(uint256)":"d57763c3","getReservationLength()":"ea6fe03e","isDepositNewLiquidityPaused()":"8cc63cdd","owner()":"8da5cb5b","protocolFeeBP()":"c5fba0b8","releaseLiquidity(uint256)":"77891907","reserveLiquidity(address,uint256[],uint192[],address,uint256,uint256[])":"d8418403","submitSwapProof(uint256,bytes32,bytes32,uint32,uint64,uint64,bytes32[],uint256[],bytes)":"ecdea06f","transferOwnership(address)":"f2fde38b","updateExchangeRate(uint256,uint256,uint64,uint256[])":"56fe6f86","updateFeeRouter(address)":"73e149e6","updateNewLiquidityDepositsPaused(bool)":"7a9059a2","updateProtocolFee(uint8)":"0a7aa293","validateBlockExists(uint256)":"ed8b2b32","withdrawLiquidity(uint256,uint256,uint192,uint256[])":"aeacb2e7"},"storageLayout":{"storage":[{"astId":47993,"contract":"src/RiftExchange.sol:RiftExchange","label":"blockchain","offset":0,"slot":"0","type":"t_mapping(t_uint256,t_bytes32)"},{"astId":47997,"contract":"src/RiftExchange.sol:RiftExchange","label":"chainworks","offset":0,"slot":"1","type":"t_mapping(t_uint256,t_uint256)"},{"astId":47999,"contract":"src/RiftExchange.sol:RiftExchange","label":"currentHeight","offset":0,"slot":"2","type":"t_uint256"},{"astId":48001,"contract":"src/RiftExchange.sol:RiftExchange","label":"currentConfirmationHeight","offset":0,"slot":"3","type":"t_uint256"},{"astId":46637,"contract":"src/RiftExchange.sol:RiftExchange","label":"owner","offset":0,"slot":"4","type":"t_address"},{"astId":49396,"contract":"src/RiftExchange.sol:RiftExchange","label":"isDepositNewLiquidityPaused","offset":20,"slot":"4","type":"t_bool"},{"astId":49399,"contract":"src/RiftExchange.sol:RiftExchange","label":"protocolFeeBP","offset":21,"slot":"4","type":"t_uint8"},{"astId":49401,"contract":"src/RiftExchange.sol:RiftExchange","label":"feeRouterAddress","offset":0,"slot":"5","type":"t_address"},{"astId":49405,"contract":"src/RiftExchange.sol:RiftExchange","label":"depositVaults","offset":0,"slot":"6","type":"t_array(t_struct(DepositVault)49346_storage)dyn_storage"},{"astId":49409,"contract":"src/RiftExchange.sol:RiftExchange","label":"swapReservations","offset":0,"slot":"7","type":"t_array(t_struct(SwapReservation)49329_storage)dyn_storage"},{"astId":49414,"contract":"src/RiftExchange.sol:RiftExchange","label":"liquidityProviders","offset":0,"slot":"8","type":"t_mapping(t_address,t_struct(LiquidityProvider)49333_storage)"}],"types":{"t_address":{"encoding":"inplace","label":"address","numberOfBytes":"20"},"t_array(t_struct(DepositVault)49346_storage)dyn_storage":{"encoding":"dynamic_array","label":"struct RiftExchange.DepositVault[]","numberOfBytes":"32","base":"t_struct(DepositVault)49346_storage"},"t_array(t_struct(SwapReservation)49329_storage)dyn_storage":{"encoding":"dynamic_array","label":"struct RiftExchange.SwapReservation[]","numberOfBytes":"32","base":"t_struct(SwapReservation)49329_storage"},"t_array(t_uint192)dyn_storage":{"encoding":"dynamic_array","label":"uint192[]","numberOfBytes":"32","base":"t_uint192"},"t_array(t_uint256)dyn_storage":{"encoding":"dynamic_array","label":"uint256[]","numberOfBytes":"32","base":"t_uint256"},"t_array(t_uint64)dyn_storage":{"encoding":"dynamic_array","label":"uint64[]","numberOfBytes":"32","base":"t_uint64"},"t_bool":{"encoding":"inplace","label":"bool","numberOfBytes":"1"},"t_bytes22":{"encoding":"inplace","label":"bytes22","numberOfBytes":"22"},"t_bytes32":{"encoding":"inplace","label":"bytes32","numberOfBytes":"32"},"t_enum(ReservationState)49294":{"encoding":"inplace","label":"enum RiftExchange.ReservationState","numberOfBytes":"1"},"t_mapping(t_address,t_struct(LiquidityProvider)49333_storage)":{"encoding":"mapping","key":"t_address","label":"mapping(address => struct RiftExchange.LiquidityProvider)","numberOfBytes":"32","value":"t_struct(LiquidityProvider)49333_storage"},"t_mapping(t_uint256,t_bytes32)":{"encoding":"mapping","key":"t_uint256","label":"mapping(uint256 => bytes32)","numberOfBytes":"32","value":"t_bytes32"},"t_mapping(t_uint256,t_uint256)":{"encoding":"mapping","key":"t_uint256","label":"mapping(uint256 => uint256)","numberOfBytes":"32","value":"t_uint256"},"t_struct(DepositVault)49346_storage":{"encoding":"inplace","label":"struct RiftExchange.DepositVault","numberOfBytes":"160","members":[{"astId":49335,"contract":"src/RiftExchange.sol:RiftExchange","label":"owner","offset":0,"slot":"0","type":"t_address"},{"astId":49337,"contract":"src/RiftExchange.sol:RiftExchange","label":"initialBalance","offset":0,"slot":"1","type":"t_uint256"},{"astId":49339,"contract":"src/RiftExchange.sol:RiftExchange","label":"unreservedBalance","offset":0,"slot":"2","type":"t_uint256"},{"astId":49341,"contract":"src/RiftExchange.sol:RiftExchange","label":"withdrawnAmount","offset":0,"slot":"3","type":"t_uint256"},{"astId":49343,"contract":"src/RiftExchange.sol:RiftExchange","label":"exchangeRate","offset":0,"slot":"4","type":"t_uint64"},{"astId":49345,"contract":"src/RiftExchange.sol:RiftExchange","label":"btcPayoutLockingScript","offset":8,"slot":"4","type":"t_bytes22"}]},"t_struct(LiquidityProvider)49333_storage":{"encoding":"inplace","label":"struct RiftExchange.LiquidityProvider","numberOfBytes":"32","members":[{"astId":49332,"contract":"src/RiftExchange.sol:RiftExchange","label":"depositVaultIndexes","offset":0,"slot":"0","type":"t_array(t_uint256)dyn_storage"}]},"t_struct(SwapReservation)49329_storage":{"encoding":"inplace","label":"struct RiftExchange.SwapReservation","numberOfBytes":"352","members":[{"astId":49296,"contract":"src/RiftExchange.sol:RiftExchange","label":"owner","offset":0,"slot":"0","type":"t_address"},{"astId":49298,"contract":"src/RiftExchange.sol:RiftExchange","label":"confirmationBlockHeight","offset":20,"slot":"0","type":"t_uint32"},{"astId":49300,"contract":"src/RiftExchange.sol:RiftExchange","label":"reservationTimestamp","offset":24,"slot":"0","type":"t_uint64"},{"astId":49302,"contract":"src/RiftExchange.sol:RiftExchange","label":"liquidityUnlockedTimestamp","offset":0,"slot":"1","type":"t_uint64"},{"astId":49305,"contract":"src/RiftExchange.sol:RiftExchange","label":"state","offset":8,"slot":"1","type":"t_enum(ReservationState)49294"},{"astId":49307,"contract":"src/RiftExchange.sol:RiftExchange","label":"ethPayoutAddress","offset":9,"slot":"1","type":"t_address"},{"astId":49309,"contract":"src/RiftExchange.sol:RiftExchange","label":"lpReservationHash","offset":0,"slot":"2","type":"t_bytes32"},{"astId":49311,"contract":"src/RiftExchange.sol:RiftExchange","label":"nonce","offset":0,"slot":"3","type":"t_bytes32"},{"astId":49313,"contract":"src/RiftExchange.sol:RiftExchange","label":"totalSatsInputIncludingProxyFee","offset":0,"slot":"4","type":"t_uint256"},{"astId":49315,"contract":"src/RiftExchange.sol:RiftExchange","label":"totalSwapOutputAmount","offset":0,"slot":"5","type":"t_uint256"},{"astId":49317,"contract":"src/RiftExchange.sol:RiftExchange","label":"proposedBlockHeight","offset":0,"slot":"6","type":"t_uint256"},{"astId":49319,"contract":"src/RiftExchange.sol:RiftExchange","label":"proposedBlockHash","offset":0,"slot":"7","type":"t_bytes32"},{"astId":49322,"contract":"src/RiftExchange.sol:RiftExchange","label":"vaultIndexes","offset":0,"slot":"8","type":"t_array(t_uint256)dyn_storage"},{"astId":49325,"contract":"src/RiftExchange.sol:RiftExchange","label":"amountsToReserve","offset":0,"slot":"9","type":"t_array(t_uint192)dyn_storage"},{"astId":49328,"contract":"src/RiftExchange.sol:RiftExchange","label":"expectedSatsOutput","offset":0,"slot":"10","type":"t_array(t_uint64)dyn_storage"}]},"t_uint192":{"encoding":"inplace","label":"uint192","numberOfBytes":"24"},"t_uint256":{"encoding":"inplace","label":"uint256","numberOfBytes":"32"},"t_uint32":{"encoding":"inplace","label":"uint32","numberOfBytes":"4"},"t_uint64":{"encoding":"inplace","label":"uint64","numberOfBytes":"8"},"t_uint8":{"encoding":"inplace","label":"uint8","numberOfBytes":"1"}}},"id":32}