{"abi":[{"type":"constructor","inputs":[{"name":"initialCheckpointHeight","type":"uint256","internalType":"uint256"},{"name":"initialBlockHash","type":"bytes32","internalType":"bytes32"},{"name":"initialRetargetBlockHash","type":"bytes32","internalType":"bytes32"},{"name":"verifierContractAddress","type":"address","internalType":"address"},{"name":"depositTokenAddress","type":"address","internalType":"address"},{"name":"_proverReward","type":"uint256","internalType":"uint256"},{"name":"_releaserReward","type":"uint256","internalType":"uint256"},{"name":"_protocolAddress","type":"address","internalType":"address payable"},{"name":"_owner","type":"address","internalType":"address"},{"name":"_circuitVerificationKey","type":"bytes32","internalType":"bytes32"}],"stateMutability":"nonpayable"},{"type":"function","name":"CHALLENGE_PERIOD","inputs":[],"outputs":[{"name":"","type":"uint256","internalType":"uint256"}],"stateMutability":"view"},{"type":"function","name":"DEPOSIT_TOKEN","inputs":[],"outputs":[{"name":"","type":"address","internalType":"contract IERC20"}],"stateMutability":"view"},{"type":"function","name":"MAX_DEPOSIT_OUTPUTS","inputs":[],"outputs":[{"name":"","type":"uint16","internalType":"uint16"}],"stateMutability":"view"},{"type":"function","name":"MIN_ORDER_GAS_MULTIPLIER","inputs":[],"outputs":[{"name":"","type":"uint256","internalType":"uint256"}],"stateMutability":"view"},{"type":"function","name":"PROOF_GAS_COST","inputs":[],"outputs":[{"name":"","type":"uint256","internalType":"uint256"}],"stateMutability":"view"},{"type":"function","name":"RELEASE_GAS_COST","inputs":[],"outputs":[{"name":"","type":"uint256","internalType":"uint256"}],"stateMutability":"view"},{"type":"function","name":"RESERVATION_LOCKUP_PERIOD","inputs":[],"outputs":[{"name":"","type":"uint256","internalType":"uint256"}],"stateMutability":"view"},{"type":"function","name":"SAMPLING_SIZE","inputs":[],"outputs":[{"name":"","type":"uint8","internalType":"uint8"}],"stateMutability":"view"},{"type":"function","name":"TOKEN_DECIMALS","inputs":[],"outputs":[{"name":"","type":"uint8","internalType":"uint8"}],"stateMutability":"view"},{"type":"function","name":"addBlock","inputs":[{"name":"safeBlockHeight","type":"uint256","internalType":"uint256"},{"name":"proposedBlockHeight","type":"uint256","internalType":"uint256"},{"name":"confirmationBlockHeight","type":"uint256","internalType":"uint256"},{"name":"blockHashes","type":"bytes32[]","internalType":"bytes32[]"},{"name":"proposedBlockIndex","type":"uint256","internalType":"uint256"}],"outputs":[],"stateMutability":"nonpayable"},{"type":"function","name":"buildProofPublicInputs","inputs":[{"name":"inputs","type":"tuple","internalType":"struct RiftExchange.ProofPublicInputs","components":[{"name":"natural_txid","type":"bytes32","internalType":"bytes32"},{"name":"lp_reservation_hash","type":"bytes32","internalType":"bytes32"},{"name":"order_nonce","type":"bytes32","internalType":"bytes32"},{"name":"expected_payout","type":"uint64","internalType":"uint64"},{"name":"lp_count","type":"uint64","internalType":"uint64"},{"name":"retarget_block_hash","type":"bytes32","internalType":"bytes32"},{"name":"safe_block_height","type":"uint64","internalType":"uint64"},{"name":"safe_block_height_delta","type":"uint64","internalType":"uint64"},{"name":"confirmation_block_height_delta","type":"uint64","internalType":"uint64"},{"name":"retarget_block_height","type":"uint64","internalType":"uint64"},{"name":"block_hashes","type":"bytes32[]","internalType":"bytes32[]"}]}],"outputs":[{"name":"","type":"bytes","internalType":"bytes"}],"stateMutability":"pure"},{"type":"function","name":"circuitVerificationKey","inputs":[],"outputs":[{"name":"","type":"bytes32","internalType":"bytes32"}],"stateMutability":"view"},{"type":"function","name":"currentConfirmationHeight","inputs":[],"outputs":[{"name":"","type":"uint256","internalType":"uint256"}],"stateMutability":"view"},{"type":"function","name":"currentHeight","inputs":[],"outputs":[{"name":"","type":"uint256","internalType":"uint256"}],"stateMutability":"view"},{"type":"function","name":"depositLiquidity","inputs":[{"name":"depositAmount","type":"uint256","internalType":"uint256"},{"name":"exchangeRate","type":"uint64","internalType":"uint64"},{"name":"btcPayoutLockingScript","type":"bytes22","internalType":"bytes22"},{"name":"vaultIndexToOverwrite","type":"int256","internalType":"int256"},{"name":"vaultIndexWithSameExchangeRate","type":"int256","internalType":"int256"}],"outputs":[],"stateMutability":"nonpayable"},{"type":"function","name":"depositVaults","inputs":[{"name":"","type":"uint256","internalType":"uint256"}],"outputs":[{"name":"initialBalance","type":"uint256","internalType":"uint256"},{"name":"unreservedBalance","type":"uint256","internalType":"uint256"},{"name":"withdrawnAmount","type":"uint256","internalType":"uint256"},{"name":"exchangeRate","type":"uint64","internalType":"uint64"},{"name":"btcPayoutLockingScript","type":"bytes22","internalType":"bytes22"}],"stateMutability":"view"},{"type":"function","name":"emptyDepositVault","inputs":[{"name":"vaultIndex","type":"uint256","internalType":"uint256"}],"outputs":[],"stateMutability":"nonpayable"},{"type":"function","name":"getBlockHash","inputs":[{"name":"blockHeight","type":"uint256","internalType":"uint256"}],"outputs":[{"name":"","type":"bytes32","internalType":"bytes32"}],"stateMutability":"view"},{"type":"function","name":"getDepositVault","inputs":[{"name":"depositIndex","type":"uint256","internalType":"uint256"}],"outputs":[{"name":"","type":"tuple","internalType":"struct RiftExchange.DepositVault","components":[{"name":"initialBalance","type":"uint256","internalType":"uint256"},{"name":"unreservedBalance","type":"uint256","internalType":"uint256"},{"name":"withdrawnAmount","type":"uint256","internalType":"uint256"},{"name":"exchangeRate","type":"uint64","internalType":"uint64"},{"name":"btcPayoutLockingScript","type":"bytes22","internalType":"bytes22"}]}],"stateMutability":"view"},{"type":"function","name":"getDepositVaultUnreservedBalance","inputs":[{"name":"depositIndex","type":"uint256","internalType":"uint256"}],"outputs":[{"name":"","type":"uint256","internalType":"uint256"}],"stateMutability":"view"},{"type":"function","name":"getDepositVaultsLength","inputs":[],"outputs":[{"name":"","type":"uint256","internalType":"uint256"}],"stateMutability":"view"},{"type":"function","name":"getLiquidityProvider","inputs":[{"name":"lpAddress","type":"address","internalType":"address"}],"outputs":[{"name":"","type":"tuple","internalType":"struct RiftExchange.LiquidityProvider","components":[{"name":"depositVaultIndexes","type":"uint256[]","internalType":"uint256[]"}]}],"stateMutability":"view"},{"type":"function","name":"getReservation","inputs":[{"name":"reservationIndex","type":"uint256","internalType":"uint256"}],"outputs":[{"name":"","type":"tuple","internalType":"struct RiftExchange.SwapReservation","components":[{"name":"confirmationBlockHeight","type":"uint32","internalType":"uint32"},{"name":"reservationTimestamp","type":"uint32","internalType":"uint32"},{"name":"unlockTimestamp","type":"uint32","internalType":"uint32"},{"name":"state","type":"uint8","internalType":"enum RiftExchange.ReservationState"},{"name":"ethPayoutAddress","type":"address","internalType":"address"},{"name":"lpReservationHash","type":"bytes32","internalType":"bytes32"},{"name":"nonce","type":"bytes32","internalType":"bytes32"},{"name":"totalSatsInputInlcudingProxyFee","type":"uint256","internalType":"uint256"},{"name":"totalSwapOutputAmount","type":"uint256","internalType":"uint256"},{"name":"prepaidFeeAmount","type":"int256","internalType":"int256"},{"name":"proposedBlockHeight","type":"uint256","internalType":"uint256"},{"name":"proposedBlockHash","type":"bytes32","internalType":"bytes32"},{"name":"vaultIndexes","type":"uint256[]","internalType":"uint256[]"},{"name":"amountsToReserve","type":"uint192[]","internalType":"uint192[]"}]}],"stateMutability":"view"},{"type":"function","name":"getReservationLength","inputs":[],"outputs":[{"name":"","type":"uint256","internalType":"uint256"}],"stateMutability":"view"},{"type":"function","name":"owner","inputs":[],"outputs":[{"name":"","type":"address","internalType":"address"}],"stateMutability":"view"},{"type":"function","name":"proposeTransactionProof","inputs":[{"name":"swapReservationIndex","type":"uint256","internalType":"uint256"},{"name":"bitcoinTxId","type":"bytes32","internalType":"bytes32"},{"name":"safeBlockHeight","type":"uint32","internalType":"uint32"},{"name":"proposedBlockHeight","type":"uint64","internalType":"uint64"},{"name":"confirmationBlockHeight","type":"uint64","internalType":"uint64"},{"name":"blockHashes","type":"bytes32[]","internalType":"bytes32[]"},{"name":"proof","type":"bytes","internalType":"bytes"}],"outputs":[],"stateMutability":"nonpayable"},{"type":"function","name":"protocolFeeBP","inputs":[],"outputs":[{"name":"","type":"uint8","internalType":"uint8"}],"stateMutability":"view"},{"type":"function","name":"proverReward","inputs":[],"outputs":[{"name":"","type":"uint256","internalType":"uint256"}],"stateMutability":"view"},{"type":"function","name":"releaseLiquidity","inputs":[{"name":"swapReservationIndex","type":"uint256","internalType":"uint256"}],"outputs":[],"stateMutability":"nonpayable"},{"type":"function","name":"releaserReward","inputs":[],"outputs":[{"name":"","type":"uint256","internalType":"uint256"}],"stateMutability":"view"},{"type":"function","name":"reserveLiquidity","inputs":[{"name":"vaultIndexesToReserve","type":"uint256[]","internalType":"uint256[]"},{"name":"amountsToReserve","type":"uint192[]","internalType":"uint192[]"},{"name":"ethPayoutAddress","type":"address","internalType":"address"},{"name":"totalSatsInputInlcudingProxyFee","type":"uint256","internalType":"uint256"},{"name":"expiredSwapReservationIndexes","type":"uint256[]","internalType":"uint256[]"}],"outputs":[],"stateMutability":"nonpayable"},{"type":"function","name":"swapReservations","inputs":[{"name":"","type":"uint256","internalType":"uint256"}],"outputs":[{"name":"confirmationBlockHeight","type":"uint32","internalType":"uint32"},{"name":"reservationTimestamp","type":"uint32","internalType":"uint32"},{"name":"unlockTimestamp","type":"uint32","internalType":"uint32"},{"name":"state","type":"uint8","internalType":"enum RiftExchange.ReservationState"},{"name":"ethPayoutAddress","type":"address","internalType":"address"},{"name":"lpReservationHash","type":"bytes32","internalType":"bytes32"},{"name":"nonce","type":"bytes32","internalType":"bytes32"},{"name":"totalSatsInputInlcudingProxyFee","type":"uint256","internalType":"uint256"},{"name":"totalSwapOutputAmount","type":"uint256","internalType":"uint256"},{"name":"prepaidFeeAmount","type":"int256","internalType":"int256"},{"name":"proposedBlockHeight","type":"uint256","internalType":"uint256"},{"name":"proposedBlockHash","type":"bytes32","internalType":"bytes32"}],"stateMutability":"view"},{"type":"function","name":"transferOwnership","inputs":[{"name":"newOwner","type":"address","internalType":"address"}],"outputs":[],"stateMutability":"nonpayable"},{"type":"function","name":"updateExchangeRate","inputs":[{"name":"globalVaultIndex","type":"uint256","internalType":"uint256"},{"name":"localVaultIndex","type":"uint256","internalType":"uint256"},{"name":"newexchangeRate","type":"uint64","internalType":"uint64"},{"name":"expiredReservationIndexes","type":"uint256[]","internalType":"uint256[]"}],"outputs":[],"stateMutability":"nonpayable"},{"type":"function","name":"updateProtocolAddress","inputs":[{"name":"newProtocolAddress","type":"address","internalType":"address payable"}],"outputs":[],"stateMutability":"nonpayable"},{"type":"function","name":"updateProtocolFee","inputs":[{"name":"newProtocolFeeBP","type":"uint8","internalType":"uint8"}],"outputs":[],"stateMutability":"nonpayable"},{"type":"function","name":"updateRewards","inputs":[{"name":"newProverReward","type":"uint256","internalType":"uint256"},{"name":"newReleaserReward","type":"uint256","internalType":"uint256"}],"outputs":[],"stateMutability":"nonpayable"},{"type":"function","name":"validateBlockExists","inputs":[{"name":"blockHeight","type":"uint256","internalType":"uint256"}],"outputs":[],"stateMutability":"view"},{"type":"function","name":"verifierContract","inputs":[],"outputs":[{"name":"","type":"address","internalType":"contract ISP1Verifier"}],"stateMutability":"view"},{"type":"function","name":"withdrawLiquidity","inputs":[{"name":"globalVaultIndex","type":"uint256","internalType":"uint256"},{"name":"localVaultIndex","type":"uint256","internalType":"uint256"},{"name":"amountToWithdraw","type":"uint192","internalType":"uint192"},{"name":"expiredReservationIndexes","type":"uint256[]","internalType":"uint256[]"}],"outputs":[],"stateMutability":"nonpayable"},{"type":"event","name":"BlocksAdded","inputs":[{"name":"startBlockHeight","type":"uint256","indexed":false,"internalType":"uint256"},{"name":"count","type":"uint256","indexed":false,"internalType":"uint256"}],"anonymous":false},{"type":"event","name":"LiquidityReserved","inputs":[{"name":"reserver","type":"address","indexed":true,"internalType":"address"},{"name":"swapReservationIndex","type":"uint256","indexed":false,"internalType":"uint256"},{"name":"orderNonce","type":"bytes32","indexed":false,"internalType":"bytes32"}],"anonymous":false},{"type":"event","name":"OwnershipTransferred","inputs":[{"name":"user","type":"address","indexed":true,"internalType":"address"},{"name":"newOwner","type":"address","indexed":true,"internalType":"address"}],"anonymous":false},{"type":"event","name":"ProofProposed","inputs":[{"name":"prover","type":"address","indexed":true,"internalType":"address"},{"name":"swapReservationIndex","type":"uint256","indexed":false,"internalType":"uint256"},{"name":"orderNonce","type":"bytes32","indexed":false,"internalType":"bytes32"}],"anonymous":false},{"type":"event","name":"SwapComplete","inputs":[{"name":"swapReservationIndex","type":"uint256","indexed":false,"internalType":"uint256"},{"name":"orderNonce","type":"bytes32","indexed":false,"internalType":"bytes32"}],"anonymous":false},{"type":"error","name":"BlockDoesNotExist","inputs":[]},{"type":"error","name":"InvaidSameExchangeRatevaultIndex","inputs":[]},{"type":"error","name":"InvalidConfirmationBlock","inputs":[]},{"type":"error","name":"InvalidProposedBlockOverwrite","inputs":[]},{"type":"error","name":"InvalidSafeBlock","inputs":[]},{"type":"error","name":"InvalidUpdateWithActiveReservations","inputs":[]},{"type":"error","name":"InvalidVaultIndex","inputs":[]},{"type":"error","name":"InvalidVaultUpdate","inputs":[]},{"type":"error","name":"NotEnoughLiquidity","inputs":[]},{"type":"error","name":"NotVaultOwner","inputs":[]},{"type":"error","name":"OverwrittenProposedBlock","inputs":[]},{"type":"error","name":"ReservationNotExpired","inputs":[]},{"type":"error","name":"ReservationNotUnlocked","inputs":[]},{"type":"error","name":"StillInChallengePeriod","inputs":[]},{"type":"error","name":"WithdrawalAmountError","inputs":[]},{"type":"error","name":"exchangeRateZero","inputs":[]}],"bytecode":{"object":"0x61010060405260038054600560a11b60ff60a01b19909116179055600980546001600160a01b03191673f39fd6e51aad88f6f4ce6ab8827279cfffb922661790553480156200004d57600080fd5b50604051620039f7380380620039f7833981016040819052620000709162000388565b60018a905560008a81526020819052604081208a905582908b908b908b908190806200009c8662000247565b6001600160401b0316815260208101919091526040908101600090812092909255600380546001600160a01b0319166001600160a01b03881690811790915590519094509092507f8be0079c531659141344cd1fd0a4f28419497f9722a3daafe3b4186f6b6457e091508290a35060e08190526001600160a01b0380881660c052861660805260408051808201909152600f81526e02222a827a9a4aa2faa27a5a2a71d1608d1b6020820152620001539062000269565b6080516200016190620002b7565b6080516001600160a01b031663313ce5676040518163ffffffff1660e01b8152600401602060405180830381865afa158015620001a2573d6000803e3d6000fd5b505050506040513d601f19601f82011682018060405250810190620001c891906200042f565b60ff1660a05260408051808201909152601081526f02a27a5a2a72fa222a1a4a6a0a6299d160851b6020820152620002009062000269565b60a051620002119060ff1662000305565b5050600492909255600555600980546001600160a01b0319166001600160a01b0390921691909117905550620005179350505050565b6000620002576107e0836200045b565b62000263908362000490565b92915050565b620002b481604051602401620002809190620004c6565b60408051601f198184030181529190526020810180516001600160e01b0390811663104c13eb60e21b179091526200035116565b50565b6040516001600160a01b0382166024820152620002b49060440160408051601f198184030181529190526020810180516001600160e01b0390811663161765e160e11b179091526200035116565b620002b4816040516024016200031d91815260200190565b60408051601f198184030181529190526020810180516001600160e01b0390811663f5b1bba960e01b179091526200035116565b80516a636f6e736f6c652e6c6f67602083016000808483855afa5050505050565b6001600160a01b0381168114620002b457600080fd5b6000806000806000806000806000806101408b8d031215620003a957600080fd5b8a51995060208b0151985060408b0151975060608b0151620003cb8162000372565b60808c0151909750620003de8162000372565b8096505060a08b0151945060c08b0151935060e08b0151620004008162000372565b6101008c0151909350620004148162000372565b809250506101208b015190509295989b9194979a5092959850565b6000602082840312156200044257600080fd5b815160ff811681146200045457600080fd5b9392505050565b60006001600160401b03838116806200048457634e487b7160e01b600052601260045260246000fd5b92169190910692915050565b6001600160401b03828116828216039080821115620004bf57634e487b7160e01b600052601160045260246000fd5b5092915050565b60006020808352835180602085015260005b81811015620004f657858101830151858201604001528201620004d8565b506000604082860101526040601f19601f8301168501019250505092915050565b60805160a05160c05160e051613460620005976000396000818161034b0152611ced0152600081816105770152611cc00152600081816103be01526107e201526000818161027a01528181610d9a01528181610e7801528181611615015281816119e801528181611ada01528181611dc701526120e501526134606000f3fe608060405234801561001057600080fd5b50600436106102485760003560e01c80638da5cb5b1161013b578063c5fba0b8116100b8578063eb6c75221161007c578063eb6c7522146105e1578063ed8b2b32146105eb578063ee82ac5e146105fe578063f2fde38b1461061e578063fba781661461063157600080fd5b8063c5fba0b81461055e578063cf69568814610572578063d57763c314610599578063e118f0e6146105b9578063ea6fe03e146105d957600080fd5b80639cc7eab9116100ff5780639cc7eab9146105165780639cdb8e5a1461051f578063ad062e551461053a578063aeacb2e714610542578063c3a079ed1461055557600080fd5b80638da5cb5b146104b35780638f805ac9146104c657806397e50818146104d957806398f9e757146104ec5780639a64279c1461050c57600080fd5b806358e2b676116101c95780636b994abb1161018d5780636b994abb1461045b5780636dcc17c814610486578063778919071461048f5780637dce5550146104a257806389a11f7a146104aa57600080fd5b806358e2b676146103a65780635b7f415c146103b95780635f4d0610146103f25780635f5d5b6a146104405780636512d0571461044857600080fd5b80632d908c02116102105780632d908c02146103335780633d7b22b314610346578063490d4c5f1461036d57806351a7f1cd1461038057806356fe6f861461039357600080fd5b80630140e1831461024d5780630a7aa2931461026257806313f6658714610275578063163de0c5146102b9578063276d080e146102d0575b600080fd5b61026061025b3660046128b6565b61063a565b005b6102606102703660046129b4565b610f43565b61029c7f000000000000000000000000000000000000000000000000000000000000000081565b6040516001600160a01b0390911681526020015b60405180910390f35b6102c260015481565b6040519081526020016102b0565b6102e36102de3660046129de565b610f96565b6040516102b091908151815260208083015190820152604080830151908201526060808301516001600160401b0316908201526080918201516001600160501b0319169181019190915260a00190565b6102606103413660046129f7565b61103f565b6102c27f000000000000000000000000000000000000000000000000000000000000000081565b61026061037b3660046129de565b611271565b61026061038e366004612a6f565b6112b5565b6102606103a1366004612acc565b611693565b6102606103b4366004612b2c565b611785565b6103e07f000000000000000000000000000000000000000000000000000000000000000081565b60405160ff90911681526020016102b0565b6104056104003660046129de565b6117d1565b604080519586526020860194909452928401919091526001600160401b031660608301526001600160501b031916608082015260a0016102b0565b6102c2600281565b6102c26104563660046129de565b611820565b61046e6104693660046129de565b61184e565b6040516102b09c9b9a99989796959493929190612b81565b6102c260045481565b61026061049d3660046129de565b6118d6565b6008546102c2565b6102c261708081565b60035461029c906001600160a01b031681565b6102606104d4366004612bf9565b611ba1565b6102606104e7366004612d02565b611ee4565b6104ff6104fa366004612b2c565b611f19565b6040516102b09190612d60565b6102c26203345081565b6102c260055481565b610527603281565b60405161ffff90911681526020016102b0565b6103e0600a81565b610260610550366004612d83565b611f9c565b6102c261025881565b6003546103e090600160a01b900460ff1681565b61029c7f000000000000000000000000000000000000000000000000000000000000000081565b6105ac6105a73660046129de565b61211c565b6040516102b09190612dea565b6105cc6105c7366004612ef3565b61235b565b6040516102b09190613044565b6007546102c2565b6102c2620668a081565b6102606105f93660046129de565b612384565b6102c261060c3660046129de565b60009081526020819052604090205490565b61026061062c366004612b2c565b6123b3565b6102c260025481565b6000805b855181101561067f5785818151811061065957610659613057565b60200260200101516001600160c01b0316826106759190613083565b915060010161063e565b506106bf6040518060400160405280601a81526020017f636f6d62696e6564416d6f756e7473546f526573657276653a2000000000000081525082612429565b60006106d5670de0b6b3a7640000612710613096565b600354600160a01b900460ff166106f4670de0b6b3a764000085613096565b6106fe9190613096565b61070891906130c3565b90506107396040518060400160405280600d81526020016c0383937ba37b1b7b62332b29d1609d1b81525082612429565b60045460408051808201909152600b81526a0383937bb32b92332b29d160ad1b60208201526107689082612429565b60055460408051808201909152600d81526c03932b632b0b9b2b92332b29d1609d1b60208201526107999082612429565b6107a285612472565b6107ab856124fd565b6000805b8a518110156109c35760026108068b83815181106107cf576107cf613057565b60200260200101516001600160c01b03167f000000000000000000000000000000000000000000000000000000000000000061260a565b60088d848151811061081a5761081a613057565b60200260200101518154811061083257610832613057565b906000526020600020906004020160030160009054906101000a90046001600160401b031660088e858151811061086b5761086b613057565b60200260200101518154811061088357610883613057565b906000526020600020906004020160030160089054906101000a900460501b856040516020016108df94939291909384526001600160401b039290921660208401526001600160501b0319166040830152606082015260800190565b60408051601f19818403018152908290526108f9916130d7565b602060405180830381855afa158015610916573d6000803e3d6000fd5b5050506040513d601f19601f8201168201806040525081019061093991906130f3565b915060088b828151811061094f5761094f613057565b60200260200101518154811061096757610967613057565b9060005260206000209060040201600101548a828151811061098b5761098b613057565b60200260200101516001600160c01b031611156109bb57604051634323a55560e01b815260040160405180910390fd5b6001016107af565b50600754604080516001600160a01b038b1660208083019190915242828401524660608301526080820185905260a0808301949094528251808303909401845260c09091019091528151910120865115610b0a576000600788600081518110610a2e57610a2e613057565b602002602001015181548110610a4657610a46613057565b60009182526020909120600b9091020180546001820180546001600160a01b0319166001600160a01b038e16179055600160601b6cffffffffffffffffff00000000199091166401000000004263ffffffff16026bffffffff00000000000000001916171781559050610ab98486613083565b60068201556005810187905560038101829055600481018990558b51610ae890600983019060208f01906126c4565b508a51610afe90600a83019060208e019061270f565b50600201829055610d07565b604080516101c08101825260008082524263ffffffff1660208301529181019190915260079060608101600181526020018b6001600160a01b031681526020018481526020018381526020018a81526020018881526020018587610b6e9190613083565b8152602001600081526020016000801b81526020018d81526020018c81525090806001815401808255809150506001900390600052602060002090600b020160009091909190915060008201518160000160006101000a81548163ffffffff021916908363ffffffff16021790555060208201518160000160046101000a81548163ffffffff021916908363ffffffff16021790555060408201518160000160086101000a81548163ffffffff021916908363ffffffff160217905550606082015181600001600c6101000a81548160ff02191690836004811115610c5557610c55612b49565b021790555060808201516001820180546001600160a01b0319166001600160a01b0390921691909117905560a0820151600282015560c0820151600382015560e0820151600482015561010082015160058201556101208201516006820155610140820151600782015561016082015160088201556101808201518051610ce69160098401916020909101906126c4565b506101a08201518051610d0391600a84019160209091019061270f565b5050505b60005b8b51811015610d8f578a8181518110610d2557610d25613057565b60200260200101516001600160c01b031660088d8381518110610d4a57610d4a613057565b602002602001015181548110610d6257610d62613057565b90600052602060002090600402016001016000828254610d82919061310c565b9091555050600101610d0a565b506001600160a01b037f0000000000000000000000000000000000000000000000000000000000000000166323b872dd333086610dcc8a8a613083565b610dd69190613083565b6040516001600160e01b031960e086901b1681526001600160a01b03938416600482015292909116602483015260448201526064016020604051808303816000875af1158015610e2a573d6000803e3d6000fd5b505050506040513d601f19601f82011682018060405250810190610e4e919061311f565b5060095460405163a9059cbb60e01b81526001600160a01b039182166004820152602481018790527f00000000000000000000000000000000000000000000000000000000000000009091169063a9059cbb906044016020604051808303816000875af1158015610ec3573d6000803e3d6000fd5b505050506040513d601f19601f82011682018060405250810190610ee7919061311f565b50337f5956135c9be999a50f7ff4ea49ddf1485bc321ab333dc7a0877633eeb47528936001610f1560075490565b610f1f919061310c565b60408051918252602082018590520160405180910390a25050505050505050505050565b6003546001600160a01b03163314610f765760405162461bcd60e51b8152600401610f6d90613141565b60405180910390fd5b6003805460ff909216600160a01b0260ff60a01b19909216919091179055565b6040805160a08101825260008082526020820181905291810182905260608101829052608081019190915260088281548110610fd457610fd4613057565b60009182526020918290206040805160a0810182526004909302909101805483526001810154938301939093526002830154908201526003909101546001600160401b03811660608301526001600160501b0319600160401b90910460501b16608082015292915050565b600154600561104e868661310c565b10156110a957600084815260208190526040902054835184906110739060019061310c565b8151811061108357611083613057565b6020026020010151146110a9576040516341305f6360e01b815260040160405180910390fd5b808611156110ca5760405163575f3da360e01b815260040160405180910390fd5b8282815181106110dc576110dc613057565b60200260200101516000808781526020019081526020016000205403611102575061126a565b6000858152602081905260409020541580159061112157508360025410155b1561113f576040516371e98f3d60e11b815260040160405180910390fd5b808511156111e3578086036111835782828151811061116057611160613057565b60200260200101516000808781526020019081526020016000208190555061121c565b808610156111de57855b8581116111dc578361119f888361310c565b815181106111af576111af613057565b602090810291909101810151600083815291829052604090912055806111d481613167565b91505061118d565b505b61121c565b8085101561121c578282815181106111fd576111fd613057565b6020026020010151600080878152602001908152602001600020819055505b60015485111561122c5760018590555b82516040805188815260208101929092527fb68477c768bbb33b4f238a3dfd17c33c499268c59cd042b7936bbc23dc2bdd34910160405180910390a1505b5050505050565b60006008828154811061128657611286613057565b600091825260208220600490910201818155600181019190915560030180546001600160f01b03191690555050565b6112e66040518060400160405280601081526020016f6465706f7369744c697175696469747960801b815250612648565b6113176040518060400160405280600f81526020016e02232b837b9b4ba20b6b7bab73a1d1608d1b81525086612429565b836001600160401b031660000361134157604051635c4ad48d60e11b815260040160405180910390fd5b33600090815260066020526040812054900361138f5760408051600060208083018281528385018552835233825260068152929020815180519293919261138b92849201906126c4565b5050505b806000191461141b5760008190506000600882815481106113b2576113b2613057565b6000918252602090912060049091020160038101549091506001600160401b038781169116036113fb57868160010160008282546113f09190613083565b909155506114149050565b60405163927ce9e760e01b815260040160405180910390fd5b50506115bf565b81600019146114ae5760006008838154811061143957611439613057565b90600052602060002090600402019050806001015460001461146e5760405163721e09df60e01b815260040160405180910390fd5b85815560018101869055600060028201556003018054605085901c600160401b026001600160f01b03199091166001600160401b038716171790556115bf565b6040805160a0810182528681526020810187815260009282018381526001600160401b03808916606085019081526001600160501b0319891660808601908152600880546001810182559752945160049096027ff3f7a9fe364faab93b216da50a3214154f22a0a2b415b23a84c8169e8b636ee381019690965592517ff3f7a9fe364faab93b216da50a3214154f22a0a2b415b23a84c8169e8b636ee486015590517ff3f7a9fe364faab93b216da50a3214154f22a0a2b415b23a84c8169e8b636ee585015590517ff3f7a9fe364faab93b216da50a3214154f22a0a2b415b23a84c8169e8b636ee69093018054925160501c600160401b026001600160f01b031990931693909116929092171790555b3360009081526006602052604090206008546115dd9060019061310c565b815460018101835560009283526020909220909101556040516323b872dd60e01b8152336004820152306024820152604481018690527f00000000000000000000000000000000000000000000000000000000000000006001600160a01b0316906323b872dd906064015b6020604051808303816000875af1158015611667573d6000803e3d6000fd5b505050506040513d601f19601f8201168201806040525081019061168b919061311f565b505050505050565b3360009081526006602052604090208054859190859081106116b7576116b7613057565b9060005260206000200154146116e057604051630e7fea9d60e01b815260040160405180910390fd5b816001600160401b031660000361170a57604051636e5a187760e11b815260040160405180910390fd5b60006008858154811061171f5761171f613057565b90600052602060002090600402019050611738826124fd565b805460018201541461175d576040516391bc6cc360e01b815260040160405180910390fd5b600301805467ffffffffffffffff19166001600160401b039390931692909217909155505050565b6003546001600160a01b031633146117af5760405162461bcd60e51b8152600401610f6d90613141565b600980546001600160a01b0319166001600160a01b0392909216919091179055565b600881815481106117e157600080fd5b6000918252602090912060049091020180546001820154600283015460039093015491935091906001600160401b03811690600160401b900460501b85565b60006008828154811061183557611835613057565b9060005260206000209060040201600101549050919050565b6007818154811061185e57600080fd5b60009182526020909120600b909102018054600182015460028301546003840154600485015460058601546006870154600788015460089098015463ffffffff8089169a506401000000008904811699600160401b8a0490911698600160601b900460ff16976001600160a01b03169695949392918c565b6000600782815481106118eb576118eb613057565b60009182526020909120600b90910201905060028154600160601b900460ff16600481111561191c5761191c612b49565b1461193a5760405163b38c767b60e01b815260040160405180910390fd5b80546102589061195790600160401b900463ffffffff164261310c565b101561197657604051632d5c37f560e21b815260040160405180910390fd5b60088101546007820154600090815260208190526040902054036119ad5760405163c1f6fa5160e01b815260040160405180910390fd5b60006119bc4862033450613096565b6005546119c99190613083565b60405163a9059cbb60e01b8152336004820152602481018290529091507f00000000000000000000000000000000000000000000000000000000000000006001600160a01b03169063a9059cbb906044016020604051808303816000875af1158015611a39573d6000803e3d6000fd5b505050506040513d601f19601f82011682018060405250810190611a5d919061311f565b5080826006016000828254611a729190613180565b9091555050600682015460001315611aa9578160060154826005016000828254611a9c9190613083565b9091555050600060068301555b6001820154600583015460405163a9059cbb60e01b81526001600160a01b03928316600482015260248101919091527f00000000000000000000000000000000000000000000000000000000000000009091169063a9059cbb906044016020604051808303816000875af1158015611b25573d6000803e3d6000fd5b505050506040513d601f19601f82011682018060405250810190611b49919061311f565b508154600160621b60ff60601b1990911617825560038201546040805185815260208101929092527f12245c00d428a4c558061d2f69fe154a203bd2fb4a65b6c3e73e95ccdc735d18910160405180910390a1505050565b600060078881548110611bb657611bb6613057565b90600052602060002090600b020190506000611ca66040518061016001604052808a8152602001846002015481526020018460030154815260200184600501546001600160401b0316815260200184600901805490506001600160401b03168152602001611c41611c268a61268b565b6001600160401b031660009081526020819052604090205490565b815263ffffffff8a1660208201819052604090910190611c61908a6131a7565b6001600160401b03168152602001611c7989896131a7565b6001600160401b03168152602001611c908961268b565b6001600160401b0316815260200186905261235b565b60405163020a49e360e51b81529091506001600160a01b037f000000000000000000000000000000000000000000000000000000000000000016906341493c6090611d19907f000000000000000000000000000000000000000000000000000000000000000090859088906004016131c7565b60006040518083038186803b158015611d3157600080fd5b505afa158015611d45573d6000803e3d6000fd5b50611d7b9250505063ffffffff88166001600160401b0388811690881687611d6d848c6131a7565b6001600160401b031661103f565b815460ff60601b1916600160611b1782556000611d9b48620668a0613096565b600454611da89190613083565b60405163a9059cbb60e01b8152336004820152602481018290529091507f00000000000000000000000000000000000000000000000000000000000000006001600160a01b03169063a9059cbb906044016020604051808303816000875af1158015611e18573d6000803e3d6000fd5b505050506040513d601f19601f82011682018060405250810190611e3c919061311f565b50611e6063ffffffff89166001600160401b03808a1690891688611d6d848d6131a7565b600083600601541215611e92578260060154836005016000828254611e859190613083565b9091555050600060068401555b600383015460405133917f184abe81dc2f02915b1cd93143dc1987a077040f7de69181dd5eaf9b37bb715c91611ed0918e8252602082015260400190565b60405180910390a250505050505050505050565b6003546001600160a01b03163314611f0e5760405162461bcd60e51b8152600401610f6d90613141565b600491909155600555565b6040805160208082018352606082526001600160a01b03841660009081526006825283902083518154808402820186018652928101838152939490939192849291849190840182828015611f8c57602002820191906000526020600020905b815481526020019060010190808311611f78575b5050505050815250509050919050565b336000908152600660205260409020805485919085908110611fc057611fc0613057565b906000526020600020015414611fe957604051630e7fea9d60e01b815260040160405180910390fd5b611ff2816124fd565b60085484106120145760405163721e09df60e01b815260040160405180910390fd5b60006008858154811061202957612029613057565b90600052602060002090600402019050826001600160c01b03166000148061205d57508060010154836001600160c01b0316115b1561207b5760405163b4e3d41360e01b815260040160405180910390fd5b826001600160c01b0316816001016000828254612098919061310c565b92505081905550826001600160c01b03168160020160008282546120bc9190613083565b909155505060405163a9059cbb60e01b81523360048201526001600160c01b03841660248201527f00000000000000000000000000000000000000000000000000000000000000006001600160a01b03169063a9059cbb90604401611648565b604080516101c08101825260008082526020820181905291810182905260608082018390526080820183905260a0820183905260c0820183905260e0820183905261010082018390526101208201839052610140820183905261016082019290925261018081018290526101a0810191909152600782815481106121a2576121a2613057565b6000918252602091829020604080516101c081018252600b909302909101805463ffffffff80821685526401000000008204811695850195909552600160401b8104909416918301919091529091606083019060ff600160601b90910416600481111561221157612211612b49565b600481111561222257612222612b49565b81526020016001820160009054906101000a90046001600160a01b03166001600160a01b03166001600160a01b0316815260200160028201548152602001600382015481526020016004820154815260200160058201548152602001600682015481526020016007820154815260200160088201548152602001600982018054806020026020016040519081016040528092919081815260200182805480156122ea57602002820191906000526020600020905b8154815260200190600101908083116122d6575b50505050508152602001600a8201805480602002602001604051908101604052809291908181526020018280548015611f8c57602002820191906000526020600020905b81546001600160c01b0316815260019091019060200180831161232e575050505050815250509050919050565b60608160405160200161236e91906131f2565b6040516020818303038152906040529050919050565b6000818152602081905260409020546123b05760405163fa4a5e4560e01b815260040160405180910390fd5b50565b6003546001600160a01b031633146123dd5760405162461bcd60e51b8152600401610f6d90613141565b600380546001600160a01b0319166001600160a01b03831690811790915560405133907f8be0079c531659141344cd1fd0a4f28419497f9722a3daafe3b4186f6b6457e090600090a350565b61246e828260405160240161243f9291906132d6565b60408051601f198184030181529190526020810180516001600160e01b03166309710a9d60e41b1790526126a3565b5050565b60005b815181101561246e57617080600783838151811061249557612495613057565b6020026020010151815481106124ad576124ad613057565b60009182526020909120600b90910201546124d690640100000000900463ffffffff164261310c565b10156124f5576040516326349d6b60e01b815260040160405180910390fd5b600101612475565b60005b815181101561246e5761251282612472565b6000600783838151811061252857612528613057565b60200260200101518154811061254057612540613057565b90600052602060002090600b0201905060005b60098201548110156125f0576000600883600901838154811061257857612578613057565b90600052602060002001548154811061259357612593613057565b9060005260206000209060040201905082600a0182815481106125b8576125b8613057565b60009182526020822001546001830180546001600160c01b039092169290916125e2908490613083565b909155505050600101612553565b50805460ff60601b1916600360601b179055600101612500565b600060128260ff16101561263f576126238260126132f8565b61262e90600a6133f5565b6126389084613096565b9050612642565b50815b92915050565b6123b08160405160240161265c9190613044565b60408051601f198184030181529190526020810180516001600160e01b031663104c13eb60e21b1790526126a3565b60006126996107e083613404565b61264290836131a7565b80516a636f6e736f6c652e6c6f67602083016000808483855afa5050505050565b8280548282559060005260206000209081019282156126ff579160200282015b828111156126ff5782518255916020019190600101906126e4565b5061270b929150612764565b5090565b8280548282559060005260206000209081019282156126ff579160200282015b828111156126ff57825182546001600160c01b0319166001600160c01b0390911617825560209092019160019091019061272f565b5b8082111561270b5760008155600101612765565b634e487b7160e01b600052604160045260246000fd5b60405161016081016001600160401b03811182821017156127b2576127b2612779565b60405290565b604051601f8201601f191681016001600160401b03811182821017156127e0576127e0612779565b604052919050565b60006001600160401b0382111561280157612801612779565b5060051b60200190565b600082601f83011261281c57600080fd5b8135602061283161282c836127e8565b6127b8565b8083825260208201915060208460051b87010193508684111561285357600080fd5b602086015b8481101561286f5780358352918301918301612858565b509695505050505050565b80356001600160c01b038116811461289157600080fd5b919050565b6001600160a01b03811681146123b057600080fd5b803561289181612896565b600080600080600060a086880312156128ce57600080fd5b85356001600160401b03808211156128e557600080fd5b6128f189838a0161280b565b965060209150818801358181111561290857600080fd5b8801601f81018a1361291957600080fd5b803561292761282c826127e8565b81815260059190911b8201840190848101908c83111561294657600080fd5b928501925b8284101561296b5761295c8461287a565b8252928501929085019061294b565b985061297d92505050604089016128ab565b945060608801359350608088013591508082111561299a57600080fd5b506129a78882890161280b565b9150509295509295909350565b6000602082840312156129c657600080fd5b813560ff811681146129d757600080fd5b9392505050565b6000602082840312156129f057600080fd5b5035919050565b600080600080600060a08688031215612a0f57600080fd5b85359450602086013593506040860135925060608601356001600160401b03811115612a3a57600080fd5b612a468882890161280b565b95989497509295608001359392505050565b80356001600160401b038116811461289157600080fd5b600080600080600060a08688031215612a8757600080fd5b85359450612a9760208701612a58565b935060408601356001600160501b031981168114612ab457600080fd5b94979396509394606081013594506080013592915050565b60008060008060808587031215612ae257600080fd5b8435935060208501359250612af960408601612a58565b915060608501356001600160401b03811115612b1457600080fd5b612b208782880161280b565b91505092959194509250565b600060208284031215612b3e57600080fd5b81356129d781612896565b634e487b7160e01b600052602160045260246000fd5b60058110612b7d57634e487b7160e01b600052602160045260246000fd5b9052565b63ffffffff8d811682528c811660208301528b1660408201526101808101612bac606083018c612b5f565b6001600160a01b0399909916608082015260a081019790975260c087019590955260e086019390935261010085019190915261012084015261014083015261016090910152949350505050565b600080600080600080600060e0888a031215612c1457600080fd5b873596506020808901359650604089013563ffffffff81168114612c3757600080fd5b9550612c4560608a01612a58565b9450612c5360808a01612a58565b935060a08901356001600160401b0380821115612c6f57600080fd5b612c7b8c838d0161280b565b945060c08b0135915080821115612c9157600080fd5b818b0191508b601f830112612ca557600080fd5b813581811115612cb757612cb7612779565b612cc9601f8201601f191685016127b8565b91508082528c84828501011115612cdf57600080fd5b808484018584013760008482840101525080935050505092959891949750929550565b60008060408385031215612d1557600080fd5b50508035926020909101359150565b60008151808452602080850194506020840160005b83811015612d5557815187529582019590820190600101612d39565b509495945050505050565b6020815260008251602080840152612d7b6040840182612d24565b949350505050565b60008060008060808587031215612d9957600080fd5b8435935060208501359250612af96040860161287a565b60008151808452602080850194506020840160005b83811015612d555781516001600160c01b031687529582019590820190600101612dc5565b60208152612e0160208201835163ffffffff169052565b60006020830151612e1a604084018263ffffffff169052565b50604083015163ffffffff81166060840152506060830151612e3f6080840182612b5f565b5060808301516001600160a01b03811660a08401525060a083015160c08381019190915283015160e08084019190915283015161010080840191909152830151610120808401919091528301516101408084019190915283015161016080840191909152830151610180808401919091528301516101c06101a0808501829052612ecd6101e0860184612d24565b90860151858203601f190183870152909250612ee98382612db0565b9695505050505050565b600060208284031215612f0557600080fd5b81356001600160401b0380821115612f1c57600080fd5b908301906101608286031215612f3157600080fd5b612f3961278f565b823581526020830135602082015260408301356040820152612f5d60608401612a58565b6060820152612f6e60808401612a58565b608082015260a083013560a0820152612f8960c08401612a58565b60c0820152612f9a60e08401612a58565b60e0820152610100612fad818501612a58565b90820152610120612fbf848201612a58565b908201526101408381013583811115612fd757600080fd5b612fe38882870161280b565b918301919091525095945050505050565b60005b8381101561300f578181015183820152602001612ff7565b50506000910152565b60008151808452613030816020860160208601612ff4565b601f01601f19169290920160200192915050565b6020815260006129d76020830184613018565b634e487b7160e01b600052603260045260246000fd5b634e487b7160e01b600052601160045260246000fd5b808201808211156126425761264261306d565b80820281158282048414176126425761264261306d565b634e487b7160e01b600052601260045260246000fd5b6000826130d2576130d26130ad565b500490565b600082516130e9818460208701612ff4565b9190910192915050565b60006020828403121561310557600080fd5b5051919050565b818103818111156126425761264261306d565b60006020828403121561313157600080fd5b815180151581146129d757600080fd5b6020808252600c908201526b15539055551213d49256915160a21b604082015260600190565b6000600182016131795761317961306d565b5060010190565b81810360008312801583831316838312821617156131a0576131a061306d565b5092915050565b6001600160401b038281168282160390808211156131a0576131a061306d565b8381526060602082015260006131e06060830185613018565b8281036040840152612ee98185613018565b602081528151602082015260208201516040820152604082015160608201526000606083015161322d60808401826001600160401b03169052565b5060808301516001600160401b03811660a08401525060a083015160c083015260c083015161326760e08401826001600160401b03169052565b5060e0830151610100613284818501836001600160401b03169052565b84015190506101206132a0848201836001600160401b03169052565b84015190506101406132bc848201836001600160401b03169052565b840151610160848101529050612d7b610180840182612d24565b6040815260006132e96040830185613018565b90508260208301529392505050565b60ff82811682821603908111156126425761264261306d565b600181815b8085111561334c5781600019048211156133325761333261306d565b8085161561333f57918102915b93841c9390800290613316565b509250929050565b60008261336357506001612642565b8161337057506000612642565b81600181146133865760028114613390576133ac565b6001915050612642565b60ff8411156133a1576133a161306d565b50506001821b612642565b5060208310610133831016604e8410600b84101617156133cf575081810a612642565b6133d98383613311565b80600019048211156133ed576133ed61306d565b029392505050565b60006129d760ff841683613354565b60006001600160401b038084168061341e5761341e6130ad565b9216919091069291505056fea26469706673582212206e62950cc869e75dc75da31330d8170ab0a87406adf39bc6f1bd237a9a32ec9b64736f6c63430008180033","linkReferences":{}},"methodIdentifiers":{"CHALLENGE_PERIOD()":"c3a079ed","DEPOSIT_TOKEN()":"13f66587","MAX_DEPOSIT_OUTPUTS()":"9cdb8e5a","MIN_ORDER_GAS_MULTIPLIER()":"5f5d5b6a","PROOF_GAS_COST()":"eb6c7522","RELEASE_GAS_COST()":"9a64279c","RESERVATION_LOCKUP_PERIOD()":"89a11f7a","SAMPLING_SIZE()":"ad062e55","TOKEN_DECIMALS()":"5b7f415c","addBlock(uint256,uint256,uint256,bytes32[],uint256)":"2d908c02","buildProofPublicInputs((bytes32,bytes32,bytes32,uint64,uint64,bytes32,uint64,uint64,uint64,uint64,bytes32[]))":"e118f0e6","circuitVerificationKey()":"3d7b22b3","currentConfirmationHeight()":"fba78166","currentHeight()":"163de0c5","depositLiquidity(uint256,uint64,bytes22,int256,int256)":"51a7f1cd","depositVaults(uint256)":"5f4d0610","emptyDepositVault(uint256)":"490d4c5f","getBlockHash(uint256)":"ee82ac5e","getDepositVault(uint256)":"276d080e","getDepositVaultUnreservedBalance(uint256)":"6512d057","getDepositVaultsLength()":"7dce5550","getLiquidityProvider(address)":"98f9e757","getReservation(uint256)":"d57763c3","getReservationLength()":"ea6fe03e","owner()":"8da5cb5b","proposeTransactionProof(uint256,bytes32,uint32,uint64,uint64,bytes32[],bytes)":"8f805ac9","protocolFeeBP()":"c5fba0b8","proverReward()":"6dcc17c8","releaseLiquidity(uint256)":"77891907","releaserReward()":"9cc7eab9","reserveLiquidity(uint256[],uint192[],address,uint256,uint256[])":"0140e183","swapReservations(uint256)":"6b994abb","transferOwnership(address)":"f2fde38b","updateExchangeRate(uint256,uint256,uint64,uint256[])":"56fe6f86","updateProtocolAddress(address)":"58e2b676","updateProtocolFee(uint8)":"0a7aa293","updateRewards(uint256,uint256)":"97e50818","validateBlockExists(uint256)":"ed8b2b32","verifierContract()":"cf695688","withdrawLiquidity(uint256,uint256,uint192,uint256[])":"aeacb2e7"},"storageLayout":{"storage":[{"astId":47835,"contract":"src/RiftExchange.sol:RiftExchange","label":"blockchain","offset":0,"slot":"0","type":"t_mapping(t_uint256,t_bytes32)"},{"astId":47837,"contract":"src/RiftExchange.sol:RiftExchange","label":"currentHeight","offset":0,"slot":"1","type":"t_uint256"},{"astId":47839,"contract":"src/RiftExchange.sol:RiftExchange","label":"currentConfirmationHeight","offset":0,"slot":"2","type":"t_uint256"},{"astId":46637,"contract":"src/RiftExchange.sol:RiftExchange","label":"owner","offset":0,"slot":"3","type":"t_address"},{"astId":48572,"contract":"src/RiftExchange.sol:RiftExchange","label":"protocolFeeBP","offset":20,"slot":"3","type":"t_uint8"},{"astId":48574,"contract":"src/RiftExchange.sol:RiftExchange","label":"proverReward","offset":0,"slot":"4","type":"t_uint256"},{"astId":48576,"contract":"src/RiftExchange.sol:RiftExchange","label":"releaserReward","offset":0,"slot":"5","type":"t_uint256"},{"astId":48661,"contract":"src/RiftExchange.sol:RiftExchange","label":"liquidityProviders","offset":0,"slot":"6","type":"t_mapping(t_address,t_struct(LiquidityProvider)48607_storage)"},{"astId":48665,"contract":"src/RiftExchange.sol:RiftExchange","label":"swapReservations","offset":0,"slot":"7","type":"t_array(t_struct(SwapReservation)48656_storage)dyn_storage"},{"astId":48669,"contract":"src/RiftExchange.sol:RiftExchange","label":"depositVaults","offset":0,"slot":"8","type":"t_array(t_struct(DepositVault)48618_storage)dyn_storage"},{"astId":48680,"contract":"src/RiftExchange.sol:RiftExchange","label":"protocolAddress","offset":0,"slot":"9","type":"t_address_payable"}],"types":{"t_address":{"encoding":"inplace","label":"address","numberOfBytes":"20"},"t_address_payable":{"encoding":"inplace","label":"address payable","numberOfBytes":"20"},"t_array(t_struct(DepositVault)48618_storage)dyn_storage":{"encoding":"dynamic_array","label":"struct RiftExchange.DepositVault[]","numberOfBytes":"32","base":"t_struct(DepositVault)48618_storage"},"t_array(t_struct(SwapReservation)48656_storage)dyn_storage":{"encoding":"dynamic_array","label":"struct RiftExchange.SwapReservation[]","numberOfBytes":"32","base":"t_struct(SwapReservation)48656_storage"},"t_array(t_uint192)dyn_storage":{"encoding":"dynamic_array","label":"uint192[]","numberOfBytes":"32","base":"t_uint192"},"t_array(t_uint256)dyn_storage":{"encoding":"dynamic_array","label":"uint256[]","numberOfBytes":"32","base":"t_uint256"},"t_bytes22":{"encoding":"inplace","label":"bytes22","numberOfBytes":"22"},"t_bytes32":{"encoding":"inplace","label":"bytes32","numberOfBytes":"32"},"t_enum(ReservationState)48624":{"encoding":"inplace","label":"enum RiftExchange.ReservationState","numberOfBytes":"1"},"t_int256":{"encoding":"inplace","label":"int256","numberOfBytes":"32"},"t_mapping(t_address,t_struct(LiquidityProvider)48607_storage)":{"encoding":"mapping","key":"t_address","label":"mapping(address => struct RiftExchange.LiquidityProvider)","numberOfBytes":"32","value":"t_struct(LiquidityProvider)48607_storage"},"t_mapping(t_uint256,t_bytes32)":{"encoding":"mapping","key":"t_uint256","label":"mapping(uint256 => bytes32)","numberOfBytes":"32","value":"t_bytes32"},"t_struct(DepositVault)48618_storage":{"encoding":"inplace","label":"struct RiftExchange.DepositVault","numberOfBytes":"128","members":[{"astId":48609,"contract":"src/RiftExchange.sol:RiftExchange","label":"initialBalance","offset":0,"slot":"0","type":"t_uint256"},{"astId":48611,"contract":"src/RiftExchange.sol:RiftExchange","label":"unreservedBalance","offset":0,"slot":"1","type":"t_uint256"},{"astId":48613,"contract":"src/RiftExchange.sol:RiftExchange","label":"withdrawnAmount","offset":0,"slot":"2","type":"t_uint256"},{"astId":48615,"contract":"src/RiftExchange.sol:RiftExchange","label":"exchangeRate","offset":0,"slot":"3","type":"t_uint64"},{"astId":48617,"contract":"src/RiftExchange.sol:RiftExchange","label":"btcPayoutLockingScript","offset":8,"slot":"3","type":"t_bytes22"}]},"t_struct(LiquidityProvider)48607_storage":{"encoding":"inplace","label":"struct RiftExchange.LiquidityProvider","numberOfBytes":"32","members":[{"astId":48606,"contract":"src/RiftExchange.sol:RiftExchange","label":"depositVaultIndexes","offset":0,"slot":"0","type":"t_array(t_uint256)dyn_storage"}]},"t_struct(SwapReservation)48656_storage":{"encoding":"inplace","label":"struct RiftExchange.SwapReservation","numberOfBytes":"352","members":[{"astId":48626,"contract":"src/RiftExchange.sol:RiftExchange","label":"confirmationBlockHeight","offset":0,"slot":"0","type":"t_uint32"},{"astId":48628,"contract":"src/RiftExchange.sol:RiftExchange","label":"reservationTimestamp","offset":4,"slot":"0","type":"t_uint32"},{"astId":48630,"contract":"src/RiftExchange.sol:RiftExchange","label":"unlockTimestamp","offset":8,"slot":"0","type":"t_uint32"},{"astId":48633,"contract":"src/RiftExchange.sol:RiftExchange","label":"state","offset":12,"slot":"0","type":"t_enum(ReservationState)48624"},{"astId":48635,"contract":"src/RiftExchange.sol:RiftExchange","label":"ethPayoutAddress","offset":0,"slot":"1","type":"t_address"},{"astId":48637,"contract":"src/RiftExchange.sol:RiftExchange","label":"lpReservationHash","offset":0,"slot":"2","type":"t_bytes32"},{"astId":48639,"contract":"src/RiftExchange.sol:RiftExchange","label":"nonce","offset":0,"slot":"3","type":"t_bytes32"},{"astId":48641,"contract":"src/RiftExchange.sol:RiftExchange","label":"totalSatsInputInlcudingProxyFee","offset":0,"slot":"4","type":"t_uint256"},{"astId":48643,"contract":"src/RiftExchange.sol:RiftExchange","label":"totalSwapOutputAmount","offset":0,"slot":"5","type":"t_uint256"},{"astId":48645,"contract":"src/RiftExchange.sol:RiftExchange","label":"prepaidFeeAmount","offset":0,"slot":"6","type":"t_int256"},{"astId":48647,"contract":"src/RiftExchange.sol:RiftExchange","label":"proposedBlockHeight","offset":0,"slot":"7","type":"t_uint256"},{"astId":48649,"contract":"src/RiftExchange.sol:RiftExchange","label":"proposedBlockHash","offset":0,"slot":"8","type":"t_bytes32"},{"astId":48652,"contract":"src/RiftExchange.sol:RiftExchange","label":"vaultIndexes","offset":0,"slot":"9","type":"t_array(t_uint256)dyn_storage"},{"astId":48655,"contract":"src/RiftExchange.sol:RiftExchange","label":"amountsToReserve","offset":0,"slot":"10","type":"t_array(t_uint192)dyn_storage"}]},"t_uint192":{"encoding":"inplace","label":"uint192","numberOfBytes":"24"},"t_uint256":{"encoding":"inplace","label":"uint256","numberOfBytes":"32"},"t_uint32":{"encoding":"inplace","label":"uint32","numberOfBytes":"4"},"t_uint64":{"encoding":"inplace","label":"uint64","numberOfBytes":"8"},"t_uint8":{"encoding":"inplace","label":"uint8","numberOfBytes":"1"}}},"id":32}