{"abi":[{"type":"constructor","inputs":[{"name":"initialCheckpointHeight","type":"uint256","internalType":"uint256"},{"name":"initialBlockHash","type":"bytes32","internalType":"bytes32"},{"name":"initialRetargetBlockHash","type":"bytes32","internalType":"bytes32"},{"name":"verifierContractAddress","type":"address","internalType":"address"},{"name":"depositTokenAddress","type":"address","internalType":"address"},{"name":"_proverReward","type":"uint256","internalType":"uint256"},{"name":"_releaserReward","type":"uint256","internalType":"uint256"},{"name":"_protocolAddress","type":"address","internalType":"address payable"},{"name":"_owner","type":"address","internalType":"address"},{"name":"_circuitVerificationKey","type":"bytes32","internalType":"bytes32"},{"name":"minimumConfirmationDelta","type":"uint8","internalType":"uint8"}],"stateMutability":"nonpayable"},{"type":"function","name":"CHALLENGE_PERIOD","inputs":[],"outputs":[{"name":"","type":"uint32","internalType":"uint32"}],"stateMutability":"view"},{"type":"function","name":"DEPOSIT_TOKEN","inputs":[],"outputs":[{"name":"","type":"address","internalType":"contract IERC20"}],"stateMutability":"view"},{"type":"function","name":"MAX_DEPOSIT_OUTPUTS","inputs":[],"outputs":[{"name":"","type":"uint16","internalType":"uint16"}],"stateMutability":"view"},{"type":"function","name":"MIN_ORDER_GAS_MULTIPLIER","inputs":[],"outputs":[{"name":"","type":"uint256","internalType":"uint256"}],"stateMutability":"view"},{"type":"function","name":"PROOF_GAS_COST","inputs":[],"outputs":[{"name":"","type":"uint256","internalType":"uint256"}],"stateMutability":"view"},{"type":"function","name":"RELEASE_GAS_COST","inputs":[],"outputs":[{"name":"","type":"uint256","internalType":"uint256"}],"stateMutability":"view"},{"type":"function","name":"RESERVATION_LOCKUP_PERIOD","inputs":[],"outputs":[{"name":"","type":"uint32","internalType":"uint32"}],"stateMutability":"view"},{"type":"function","name":"SAMPLING_SIZE","inputs":[],"outputs":[{"name":"","type":"uint8","internalType":"uint8"}],"stateMutability":"view"},{"type":"function","name":"TOKEN_DECIMALS","inputs":[],"outputs":[{"name":"","type":"uint8","internalType":"uint8"}],"stateMutability":"view"},{"type":"function","name":"buildProofPublicInputs","inputs":[{"name":"inputs","type":"tuple","internalType":"struct RiftExchange.ProofPublicInputs","components":[{"name":"natural_txid","type":"bytes32","internalType":"bytes32"},{"name":"lp_reservation_hash","type":"bytes32","internalType":"bytes32"},{"name":"order_nonce","type":"bytes32","internalType":"bytes32"},{"name":"lp_count","type":"uint64","internalType":"uint64"},{"name":"retarget_block_hash","type":"bytes32","internalType":"bytes32"},{"name":"safe_block_height","type":"uint64","internalType":"uint64"},{"name":"safe_block_height_delta","type":"uint64","internalType":"uint64"},{"name":"confirmation_block_height_delta","type":"uint64","internalType":"uint64"},{"name":"retarget_block_height","type":"uint64","internalType":"uint64"},{"name":"block_hashes","type":"bytes32[]","internalType":"bytes32[]"}]}],"outputs":[{"name":"","type":"bytes","internalType":"bytes"}],"stateMutability":"pure"},{"type":"function","name":"calculateRetargetHeight","inputs":[{"name":"blockHeight","type":"uint64","internalType":"uint64"}],"outputs":[{"name":"","type":"uint64","internalType":"uint64"}],"stateMutability":"pure"},{"type":"function","name":"circuitVerificationKey","inputs":[],"outputs":[{"name":"","type":"bytes32","internalType":"bytes32"}],"stateMutability":"view"},{"type":"function","name":"currentConfirmationHeight","inputs":[],"outputs":[{"name":"","type":"uint256","internalType":"uint256"}],"stateMutability":"view"},{"type":"function","name":"currentHeight","inputs":[],"outputs":[{"name":"","type":"uint256","internalType":"uint256"}],"stateMutability":"view"},{"type":"function","name":"depositLiquidity","inputs":[{"name":"depositAmount","type":"uint256","internalType":"uint256"},{"name":"exchangeRate","type":"uint64","internalType":"uint64"},{"name":"btcPayoutLockingScript","type":"bytes22","internalType":"bytes22"},{"name":"vaultIndexToOverwrite","type":"int256","internalType":"int256"},{"name":"vaultIndexWithSameExchangeRate","type":"int256","internalType":"int256"}],"outputs":[],"stateMutability":"nonpayable"},{"type":"function","name":"depositVaults","inputs":[{"name":"","type":"uint256","internalType":"uint256"}],"outputs":[{"name":"owner","type":"address","internalType":"address"},{"name":"initialBalance","type":"uint256","internalType":"uint256"},{"name":"unreservedBalance","type":"uint256","internalType":"uint256"},{"name":"withdrawnAmount","type":"uint256","internalType":"uint256"},{"name":"exchangeRate","type":"uint64","internalType":"uint64"},{"name":"btcPayoutLockingScript","type":"bytes22","internalType":"bytes22"}],"stateMutability":"view"},{"type":"function","name":"emptyDepositVault","inputs":[{"name":"vaultIndex","type":"uint256","internalType":"uint256"}],"outputs":[],"stateMutability":"nonpayable"},{"type":"function","name":"getAreDepositsPaused","inputs":[],"outputs":[{"name":"","type":"bool","internalType":"bool"}],"stateMutability":"view"},{"type":"function","name":"getBlockHash","inputs":[{"name":"blockHeight","type":"uint256","internalType":"uint256"}],"outputs":[{"name":"","type":"bytes32","internalType":"bytes32"}],"stateMutability":"view"},{"type":"function","name":"getDepositVault","inputs":[{"name":"depositIndex","type":"uint256","internalType":"uint256"}],"outputs":[{"name":"","type":"tuple","internalType":"struct RiftExchange.DepositVault","components":[{"name":"owner","type":"address","internalType":"address"},{"name":"initialBalance","type":"uint256","internalType":"uint256"},{"name":"unreservedBalance","type":"uint256","internalType":"uint256"},{"name":"withdrawnAmount","type":"uint256","internalType":"uint256"},{"name":"exchangeRate","type":"uint64","internalType":"uint64"},{"name":"btcPayoutLockingScript","type":"bytes22","internalType":"bytes22"}]}],"stateMutability":"view"},{"type":"function","name":"getDepositVaultUnreservedBalance","inputs":[{"name":"depositIndex","type":"uint256","internalType":"uint256"}],"outputs":[{"name":"","type":"uint256","internalType":"uint256"}],"stateMutability":"view"},{"type":"function","name":"getDepositVaultsLength","inputs":[],"outputs":[{"name":"","type":"uint256","internalType":"uint256"}],"stateMutability":"view"},{"type":"function","name":"getLiquidityProvider","inputs":[{"name":"lpAddress","type":"address","internalType":"address"}],"outputs":[{"name":"","type":"tuple","internalType":"struct RiftExchange.LiquidityProvider","components":[{"name":"depositVaultIndexes","type":"uint256[]","internalType":"uint256[]"}]}],"stateMutability":"view"},{"type":"function","name":"getReservation","inputs":[{"name":"reservationIndex","type":"uint256","internalType":"uint256"}],"outputs":[{"name":"","type":"tuple","internalType":"struct RiftExchange.SwapReservation","components":[{"name":"owner","type":"address","internalType":"address"},{"name":"confirmationBlockHeight","type":"uint32","internalType":"uint32"},{"name":"reservationTimestamp","type":"uint32","internalType":"uint32"},{"name":"unlockTimestamp","type":"uint32","internalType":"uint32"},{"name":"state","type":"uint8","internalType":"enum RiftExchange.ReservationState"},{"name":"ethPayoutAddress","type":"address","internalType":"address"},{"name":"lpReservationHash","type":"bytes32","internalType":"bytes32"},{"name":"nonce","type":"bytes32","internalType":"bytes32"},{"name":"totalSatsInputInlcudingProxyFee","type":"uint256","internalType":"uint256"},{"name":"totalSwapOutputAmount","type":"uint256","internalType":"uint256"},{"name":"prepaidFeeAmount","type":"int256","internalType":"int256"},{"name":"proposedBlockHeight","type":"uint256","internalType":"uint256"},{"name":"proposedBlockHash","type":"bytes32","internalType":"bytes32"},{"name":"vaultIndexes","type":"uint256[]","internalType":"uint256[]"},{"name":"amountsToReserve","type":"uint192[]","internalType":"uint192[]"},{"name":"expectedSatsOutput","type":"uint64[]","internalType":"uint64[]"}]}],"stateMutability":"view"},{"type":"function","name":"getReservationLength","inputs":[],"outputs":[{"name":"","type":"uint256","internalType":"uint256"}],"stateMutability":"view"},{"type":"function","name":"isDepositNewLiquidityPaused","inputs":[],"outputs":[{"name":"","type":"bool","internalType":"bool"}],"stateMutability":"view"},{"type":"function","name":"owner","inputs":[],"outputs":[{"name":"","type":"address","internalType":"address"}],"stateMutability":"view"},{"type":"function","name":"pauseDepositNewLiquidity","inputs":[],"outputs":[],"stateMutability":"nonpayable"},{"type":"function","name":"proposeTransactionProof","inputs":[{"name":"swapReservationIndex","type":"uint256","internalType":"uint256"},{"name":"bitcoinTxId","type":"bytes32","internalType":"bytes32"},{"name":"safeBlockHeight","type":"uint32","internalType":"uint32"},{"name":"proposedBlockHeight","type":"uint64","internalType":"uint64"},{"name":"confirmationBlockHeight","type":"uint64","internalType":"uint64"},{"name":"blockHashes","type":"bytes32[]","internalType":"bytes32[]"},{"name":"proof","type":"bytes","internalType":"bytes"}],"outputs":[],"stateMutability":"nonpayable"},{"type":"function","name":"protocolFeeBP","inputs":[],"outputs":[{"name":"","type":"uint8","internalType":"uint8"}],"stateMutability":"view"},{"type":"function","name":"proverReward","inputs":[],"outputs":[{"name":"","type":"uint256","internalType":"uint256"}],"stateMutability":"view"},{"type":"function","name":"refundAllLPs","inputs":[{"name":"depositVaultStartIndex","type":"uint256","internalType":"uint256"},{"name":"depositVaultEndIndex","type":"uint256","internalType":"uint256"},{"name":"expiredReservationIndexes","type":"uint256[]","internalType":"uint256[]"}],"outputs":[],"stateMutability":"nonpayable"},{"type":"function","name":"releaseLiquidity","inputs":[{"name":"swapReservationIndex","type":"uint256","internalType":"uint256"}],"outputs":[],"stateMutability":"nonpayable"},{"type":"function","name":"releaserReward","inputs":[],"outputs":[{"name":"","type":"uint256","internalType":"uint256"}],"stateMutability":"view"},{"type":"function","name":"reserveLiquidity","inputs":[{"name":"vaultIndexesToReserve","type":"uint256[]","internalType":"uint256[]"},{"name":"amountsToReserve","type":"uint192[]","internalType":"uint192[]"},{"name":"ethPayoutAddress","type":"address","internalType":"address"},{"name":"totalSatsInputInlcudingProxyFee","type":"uint256","internalType":"uint256"},{"name":"expiredSwapReservationIndexes","type":"uint256[]","internalType":"uint256[]"}],"outputs":[],"stateMutability":"nonpayable"},{"type":"function","name":"setSwapReservationState","inputs":[{"name":"swapReservationIndex","type":"uint256","internalType":"uint256"},{"name":"state","type":"uint8","internalType":"enum RiftExchange.ReservationState"}],"outputs":[],"stateMutability":"nonpayable"},{"type":"function","name":"swapReservations","inputs":[{"name":"","type":"uint256","internalType":"uint256"}],"outputs":[{"name":"owner","type":"address","internalType":"address"},{"name":"confirmationBlockHeight","type":"uint32","internalType":"uint32"},{"name":"reservationTimestamp","type":"uint32","internalType":"uint32"},{"name":"unlockTimestamp","type":"uint32","internalType":"uint32"},{"name":"state","type":"uint8","internalType":"enum RiftExchange.ReservationState"},{"name":"ethPayoutAddress","type":"address","internalType":"address"},{"name":"lpReservationHash","type":"bytes32","internalType":"bytes32"},{"name":"nonce","type":"bytes32","internalType":"bytes32"},{"name":"totalSatsInputInlcudingProxyFee","type":"uint256","internalType":"uint256"},{"name":"totalSwapOutputAmount","type":"uint256","internalType":"uint256"},{"name":"prepaidFeeAmount","type":"int256","internalType":"int256"},{"name":"proposedBlockHeight","type":"uint256","internalType":"uint256"},{"name":"proposedBlockHash","type":"bytes32","internalType":"bytes32"}],"stateMutability":"view"},{"type":"function","name":"transferOwnership","inputs":[{"name":"newOwner","type":"address","internalType":"address"}],"outputs":[],"stateMutability":"nonpayable"},{"type":"function","name":"unpauseDepositNewLiquidity","inputs":[],"outputs":[],"stateMutability":"nonpayable"},{"type":"function","name":"updateExchangeRate","inputs":[{"name":"globalVaultIndex","type":"uint256","internalType":"uint256"},{"name":"localVaultIndex","type":"uint256","internalType":"uint256"},{"name":"newexchangeRate","type":"uint64","internalType":"uint64"},{"name":"expiredReservationIndexes","type":"uint256[]","internalType":"uint256[]"}],"outputs":[],"stateMutability":"nonpayable"},{"type":"function","name":"updateProtocolAddress","inputs":[{"name":"newProtocolAddress","type":"address","internalType":"address payable"}],"outputs":[],"stateMutability":"nonpayable"},{"type":"function","name":"updateProtocolFee","inputs":[{"name":"newProtocolFeeBP","type":"uint8","internalType":"uint8"}],"outputs":[],"stateMutability":"nonpayable"},{"type":"function","name":"updateRewards","inputs":[{"name":"newProverReward","type":"uint256","internalType":"uint256"},{"name":"newReleaserReward","type":"uint256","internalType":"uint256"}],"outputs":[],"stateMutability":"nonpayable"},{"type":"function","name":"validateBlockExists","inputs":[{"name":"blockHeight","type":"uint256","internalType":"uint256"}],"outputs":[],"stateMutability":"view"},{"type":"function","name":"verifierContract","inputs":[],"outputs":[{"name":"","type":"address","internalType":"contract ISP1Verifier"}],"stateMutability":"view"},{"type":"function","name":"withdrawLiquidity","inputs":[{"name":"globalVaultIndex","type":"uint256","internalType":"uint256"},{"name":"localVaultIndex","type":"uint256","internalType":"uint256"},{"name":"amountToWithdraw","type":"uint192","internalType":"uint192"},{"name":"expiredReservationIndexes","type":"uint256[]","internalType":"uint256[]"}],"outputs":[],"stateMutability":"nonpayable"},{"type":"event","name":"BlocksAdded","inputs":[{"name":"startBlockHeight","type":"uint256","indexed":false,"internalType":"uint256"},{"name":"count","type":"uint256","indexed":false,"internalType":"uint256"}],"anonymous":false},{"type":"event","name":"LiquidityReserved","inputs":[{"name":"reserver","type":"address","indexed":true,"internalType":"address"},{"name":"swapReservationIndex","type":"uint256","indexed":false,"internalType":"uint256"},{"name":"orderNonce","type":"bytes32","indexed":false,"internalType":"bytes32"}],"anonymous":false},{"type":"event","name":"OwnershipTransferred","inputs":[{"name":"user","type":"address","indexed":true,"internalType":"address"},{"name":"newOwner","type":"address","indexed":true,"internalType":"address"}],"anonymous":false},{"type":"event","name":"ProofProposed","inputs":[{"name":"prover","type":"address","indexed":true,"internalType":"address"},{"name":"swapReservationIndex","type":"uint256","indexed":false,"internalType":"uint256"},{"name":"orderNonce","type":"bytes32","indexed":false,"internalType":"bytes32"}],"anonymous":false},{"type":"event","name":"SwapComplete","inputs":[{"name":"swapReservationIndex","type":"uint256","indexed":false,"internalType":"uint256"},{"name":"orderNonce","type":"bytes32","indexed":false,"internalType":"bytes32"}],"anonymous":false},{"type":"error","name":"BlockDoesNotExist","inputs":[]},{"type":"error","name":"InvaidSameExchangeRatevaultIndex","inputs":[]},{"type":"error","name":"InvalidConfirmationBlock","inputs":[]},{"type":"error","name":"InvalidProposedBlockOverwrite","inputs":[]},{"type":"error","name":"InvalidSafeBlock","inputs":[]},{"type":"error","name":"InvalidUpdateWithActiveReservations","inputs":[]},{"type":"error","name":"InvalidVaultIndex","inputs":[]},{"type":"error","name":"InvalidVaultUpdate","inputs":[]},{"type":"error","name":"NotEnoughLiquidity","inputs":[]},{"type":"error","name":"NotVaultOwner","inputs":[]},{"type":"error","name":"OverwrittenProposedBlock","inputs":[]},{"type":"error","name":"ReservationNotExpired","inputs":[]},{"type":"error","name":"ReservationNotUnlocked","inputs":[]},{"type":"error","name":"StillInChallengePeriod","inputs":[]},{"type":"error","name":"WithdrawalAmountError","inputs":[]},{"type":"error","name":"exchangeRateZero","inputs":[]}],"bytecode":{"object":"0x61012060405260038054600560a91b61ffff60a01b19909116179055600980546001600160a01b03191673f39fd6e51aad88f6f4ce6ab8827279cfffb9226617905534801561004d57600080fd5b50604051613ffe380380613ffe83398101604081905261006c91610210565b60018b905560008b81526020819052604081208b905583908c908c908c908590829080610098876101c4565b6001600160401b031681526020810191909152604090810160009081209290925560ff909216608052600380546001600160a01b0388166001600160a01b03199091168117909155915191945092507f8be0079c531659141344cd1fd0a4f28419497f9722a3daafe3b4186f6b6457e091508290a3506101008290526001600160a01b0380891660e052871660a08190526040805163313ce56760e01b8152905163313ce567916004808201926020929091908290030181865afa158015610164573d6000803e3d6000fd5b505050506040513d601f19601f8201168201806040525081019061018891906102c1565b60ff1660c052505050600492909255600555600980546001600160a01b0319166001600160a01b039092169190911790555061034d9350505050565b60006101d26107e0836102e3565b6101dc9083610320565b92915050565b6001600160a01b03811681146101f757600080fd5b50565b805160ff8116811461020b57600080fd5b919050565b60008060008060008060008060008060006101608c8e03121561023257600080fd5b8b5160208d015160408e015160608f0151929d50909b509950610254816101e2565b60808d0151909850610265816101e2565b60a08d015160c08e015160e08f01519299509097509550610285816101e2565b6101008d0151909450610297816101e2565b6101208d015190935091506102af6101408d016101fa565b90509295989b509295989b9093969950565b6000602082840312156102d357600080fd5b6102dc826101fa565b9392505050565b60006001600160401b0383168061030a57634e487b7160e01b600052601260045260246000fd5b6001600160401b03929092169190910692915050565b6001600160401b0382811682821603908111156101dc57634e487b7160e01b600052601160045260246000fd5b60805160a05160c05160e05161010051613c196103e560003960008181610395015261208101526000818161066a0152612054015260008181610410015281816108390152611ec30152600081816102c401528181610f0a01528181610fe8015281816116e801528181611ac501528181611c2b01528181611d23015281816121bc01526124db01526000612ad00152613c196000f3fe608060405234801561001057600080fd5b506004361061028a5760003560e01c806389a11f7a1161015c578063b01c27d1116100ce578063ea6fe03e11610087578063ea6fe03e146106d7578063eb6c7522146106df578063ed8b2b32146106e9578063ee82ac5e146106fc578063f2fde38b1461071c578063fba781661461072f57600080fd5b8063b01c27d114610636578063c3a079ed14610648578063c5fba0b814610651578063cf69568814610665578063d34bb7c11461068c578063d57763c3146106b757600080fd5b806398f9e7571161012057806398f9e757146105cd5780639a64279c146105ed5780639cc7eab9146105f75780639cdb8e5a14610600578063ad062e551461061b578063aeacb2e71461062357600080fd5b806389a11f7a146105525780638cc63cdd146105705780638da5cb5b146105945780638f805ac9146105a757806397e50818146105ba57600080fd5b806358e2b676116102005780636dcc17c8116101b95780636dcc17c8146104e857806370c60e8f146104f157806377891907146105045780637b93291f146105175780637dce55501461052a5780637e38d04c1461053257600080fd5b806358e2b676146103f85780635b7f415c1461040b5780635f4d0610146104445780635f5d5b6a146104a15780636512d057146104a95780636b994abb146104bc57600080fd5b8063276d080e11610252578063276d080e1461031a5780633d7b22b3146103905780634491ba54146103b7578063490d4c5f146103bf57806351a7f1cd146103d257806356fe6f86146103e557600080fd5b80630140e1831461028f5780630a7aa293146102a4578063130d1392146102b757806313f66587146102bf578063163de0c514610303575b600080fd5b6102a261029d366004612fbc565b610738565b005b6102a26102b23660046130c9565b6110b5565b6102a2611108565b6102e67f000000000000000000000000000000000000000000000000000000000000000081565b6040516001600160a01b0390911681526020015b60405180910390f35b61030c60015481565b6040519081526020016102fa565b61032d6103283660046130ec565b61119b565b6040516102fa919081516001600160a01b031681526020808301519082015260408083015190820152606080830151908201526080808301516001600160401b03169082015260a0918201516001600160501b0319169181019190915260c00190565b61030c7f000000000000000000000000000000000000000000000000000000000000000081565b6102a261125e565b6102a26103cd3660046130ec565b6112f0565b6102a26103e036600461311c565b611339565b6102a26103f3366004613179565b611766565b6102a26104063660046131d9565b61185b565b6104327f000000000000000000000000000000000000000000000000000000000000000081565b60405160ff90911681526020016102fa565b6104576104523660046130ec565b6118a7565b604080516001600160a01b03909716875260208701959095529385019290925260608401526001600160401b031660808301526001600160501b03191660a082015260c0016102fa565b61030c600281565b61030c6104b73660046130ec565b611907565b6104cf6104ca3660046130ec565b611935565b6040516102fa9d9c9b9a9998979695949392919061322e565b61030c60045481565b6102a26104ff3660046132b6565b6119cb565b6102a26105123660046130ec565b611b46565b6102a2610525366004613305565b611de5565b60085461030c565b610545610540366004613339565b611e34565b6040516102fa919061347a565b61055b61708081565b60405163ffffffff90911681526020016102fa565b60035461058490600160a01b900460ff1681565b60405190151581526020016102fa565b6003546102e6906001600160a01b031681565b6102a26105b53660046134fc565b611e5d565b6102a26105c83660046135b3565b6122da565b6105e06105db3660046131d9565b61230f565b6040516102fa9190613611565b61030c6203345081565b61030c60055481565b610608603281565b60405161ffff90911681526020016102fa565b610432600a81565b6102a2610631366004613634565b612392565b600354600160a01b900460ff16610584565b61055b61025881565b60035461043290600160a81b900460ff1681565b6102e67f000000000000000000000000000000000000000000000000000000000000000081565b61069f61069a366004613661565b612512565b6040516001600160401b0390911681526020016102fa565b6106ca6106c53660046130ec565b612530565b6040516102fa91906136f2565b60075461030c565b61030c620668a081565b6102a26106f73660046130ec565b61282b565b61030c61070a3660046130ec565b60009081526020819052604090205490565b6102a261072a3660046131d9565b61285a565b61030c60025481565b600080600087516001600160401b0381111561075657610756612e81565b60405190808252806020026020018201604052801561077f578160200160208202803683370190505b50905060005b87518110156108b057600060088a83815181106107a4576107a4613828565b6020026020010151815481106107bc576107bc613828565b600091825260209091206004600590920201015489516001600160401b0390911691508990839081106107f1576107f1613828565b60200260200101516001600160c01b03168561080d9190613854565b9450600061085d8a848151811061082657610826613828565b60200260200101516001600160c01b03167f00000000000000000000000000000000000000000000000000000000000000006128d0565b9050600061086b838361387d565b90506108778187613854565b95508085858151811061088c5761088c613828565b6001600160401b039290921660209283029190910190910152505050600101610785565b5060006108c7670de0b6b3a7640000612710613891565b600354600160a81b900460ff166108e6670de0b6b3a764000087613891565b6108f09190613891565b6108fa919061387d565b6004546005549192509061090d8761290c565b610916876129a0565b6000805b8c51811015610a9d57600286828151811061093757610937613828565b602002602001015160088f848151811061095357610953613828565b60200260200101518154811061096b5761096b613828565b600091825260209182902060046005909202010154604080516001600160401b03909416928401929092526001600160501b0319600160401b90910460501b16908201526060810184905260800160408051601f19818403018152908290526109d3916138a8565b602060405180830381855afa1580156109f0573d6000803e3d6000fd5b5050506040513d601f19601f82011682018060405250810190610a1391906138c4565b915060088d8281518110610a2957610a29613828565b602002602001015181548110610a4157610a41613828565b9060005260206000209060050201600201548c8281518110610a6557610a65613828565b60200260200101516001600160c01b03161115610a9557604051634323a55560e01b815260040160405180910390fd5b60010161091a565b50600754604080516001600160a01b038d1660208083019190915242828401524660608301526080820185905260a0808301949094528251808303909401845260c09091019091528151910120885115610c1f57600060078a600081518110610b0857610b08613828565b602002602001015181548110610b2057610b20613828565b60009182526020909120600c9091020180546001600160a01b0319163317815560018082018054929350909160ff191682800217905550600181018054610100600160a81b0319166101006001600160a01b038f160217905580546001600160c01b0316600160c01b4263ffffffff16026001600160e01b0316178155610ba78486613854565b81600601819055508881600501819055508181600301819055508a81600401819055508d816009019080519060200190610be2929190612d1d565b508c81600a019080519060200190610bfb929190612d68565b50600281018390558651610c1890600b83019060208a0190612dbd565b5050610e77565b60408051610200810182523381526000602082018190524263ffffffff1692820192909252606081019190915260079060808101600181526020018d6001600160a01b031681526020018481526020018381526020018c81526020018a81526020018587610c8d9190613854565b8152602001600081526020016000801b81526020018f81526020018e81526020018881525090806001815401808255809150506001900390600052602060002090600c020160009091909190915060008201518160000160006101000a8154816001600160a01b0302191690836001600160a01b0316021790555060208201518160000160146101000a81548163ffffffff021916908363ffffffff16021790555060408201518160000160186101000a81548163ffffffff021916908363ffffffff160217905550606082015181600001601c6101000a81548163ffffffff021916908363ffffffff16021790555060808201518160010160006101000a81548160ff02191690836004811115610da757610da76131f6565b021790555060a0820151600182018054610100600160a81b0319166101006001600160a01b03909316830217905560c0830151600283015560e08301516003830155820151600482015561012082015160058201556101408201516006820155610160820151600782015561018082015160088201556101a08201518051610e39916009840191602090910190612d1d565b506101c08201518051610e5691600a840191602090910190612d68565b506101e08201518051610e7391600b840191602090910190612dbd565b5050505b60005b8d51811015610eff578c8181518110610e9557610e95613828565b60200260200101516001600160c01b031660088f8381518110610eba57610eba613828565b602002602001015181548110610ed257610ed2613828565b90600052602060002090600502016002016000828254610ef291906138dd565b9091555050600101610e7a565b506001600160a01b037f0000000000000000000000000000000000000000000000000000000000000000166323b872dd333086610f3c8a8a613854565b610f469190613854565b6040516001600160e01b031960e086901b1681526001600160a01b03938416600482015292909116602483015260448201526064016020604051808303816000875af1158015610f9a573d6000803e3d6000fd5b505050506040513d601f19601f82011682018060405250810190610fbe91906138f0565b5060095460405163a9059cbb60e01b81526001600160a01b039182166004820152602481018790527f00000000000000000000000000000000000000000000000000000000000000009091169063a9059cbb906044016020604051808303816000875af1158015611033573d6000803e3d6000fd5b505050506040513d601f19601f8201168201806040525081019061105791906138f0565b50337f5956135c9be999a50f7ff4ea49ddf1485bc321ab333dc7a0877633eeb4752893600161108560075490565b61108f91906138dd565b60408051918252602082018590520160405180910390a250505050505050505050505050565b6003546001600160a01b031633146110e85760405162461bcd60e51b81526004016110df90613912565b60405180910390fd5b6003805460ff909216600160a81b0260ff60a81b19909216919091179055565b6003546001600160a01b031633146111325760405162461bcd60e51b81526004016110df90613912565b600354600160a01b900460ff16156111865760405162461bcd60e51b81526020600482015260176024820152761b995dc819195c1bdcda5d1cc8185c99481c185d5cd959604a1b60448201526064016110df565b6003805460ff60a01b1916600160a01b179055565b6040805160c081018252600080825260208201819052918101829052606081018290526080810182905260a0810191909152600882815481106111e0576111e0613828565b60009182526020918290206040805160c081018252600590930290910180546001600160a01b03168352600181015493830193909352600283015490820152600382015460608201526004909101546001600160401b03811660808301526001600160501b0319600160401b90910460501b1660a082015292915050565b6003546001600160a01b031633146112885760405162461bcd60e51b81526004016110df90613912565b600354600160a01b900460ff166112e15760405162461bcd60e51b815260206004820152601b60248201527f6e6577206465706f7369747320617265206e6f7420706175736564000000000060448201526064016110df565b6003805460ff60a01b19169055565b60006008828154811061130557611305613828565b6000918252602082206001600590920201908101829055600281019190915560040180546001600160f01b03191690555050565b600354600160a01b900460ff161561138d5760405162461bcd60e51b81526020600482015260176024820152761b995dc819195c1bdcda5d1cc8185c99481c185d5cd959604a1b60448201526064016110df565b836001600160401b03166000036113b757604051635c4ad48d60e11b815260040160405180910390fd5b336000908152600660205260408120549003611405576040805160006020808301828152838501855283523382526006815292902081518051929391926114019284920190612d1d565b5050505b806000191461149157600081905060006008828154811061142857611428613828565b6000918252602090912060059091020160048101549091506001600160401b0387811691160361147157868160020160008282546114669190613854565b9091555061148a9050565b60405163927ce9e760e01b815260040160405180910390fd5b5050611692565b8160001914611538576000600883815481106114af576114af613828565b9060005260206000209060050201905080600201546000146114e45760405163721e09df60e01b815260040160405180910390fd5b80546001600160a01b031916331781556001810186905560028101869055600060038201556004018054605085901c600160401b026001600160f01b03199091166001600160401b03871617179055611692565b6040805160c081018252338152602081018781529181018781526000606083018181526001600160401b03808a16608086019081526001600160501b03198a1660a08701908152600880546001810182559552955160059094027ff3f7a9fe364faab93b216da50a3214154f22a0a2b415b23a84c8169e8b636ee3810180546001600160a01b03969096166001600160a01b03199096169590951790945595517ff3f7a9fe364faab93b216da50a3214154f22a0a2b415b23a84c8169e8b636ee484015592517ff3f7a9fe364faab93b216da50a3214154f22a0a2b415b23a84c8169e8b636ee5830155517ff3f7a9fe364faab93b216da50a3214154f22a0a2b415b23a84c8169e8b636ee682015592517ff3f7a9fe364faab93b216da50a3214154f22a0a2b415b23a84c8169e8b636ee79093018054925160501c600160401b026001600160f01b031990931693909116929092171790555b3360009081526006602052604090206008546116b0906001906138dd565b815460018101835560009283526020909220909101556040516323b872dd60e01b8152336004820152306024820152604481018690527f00000000000000000000000000000000000000000000000000000000000000006001600160a01b0316906323b872dd906064015b6020604051808303816000875af115801561173a573d6000803e3d6000fd5b505050506040513d601f19601f8201168201806040525081019061175e91906138f0565b505050505050565b33600090815260066020526040902080548591908590811061178a5761178a613828565b9060005260206000200154146117b357604051630e7fea9d60e01b815260040160405180910390fd5b816001600160401b03166000036117dd57604051636e5a187760e11b815260040160405180910390fd5b6000600885815481106117f2576117f2613828565b9060005260206000209060050201905061180b826129a0565b8060010154816002015414611833576040516391bc6cc360e01b815260040160405180910390fd5b600401805467ffffffffffffffff19166001600160401b039390931692909217909155505050565b6003546001600160a01b031633146118855760405162461bcd60e51b81526004016110df90613912565b600980546001600160a01b0319166001600160a01b0392909216919091179055565b600881815481106118b757600080fd5b6000918252602090912060059091020180546001820154600283015460038401546004909401546001600160a01b039093169450909290916001600160401b03811690600160401b900460501b86565b60006008828154811061191c5761191c613828565b9060005260206000209060050201600201549050919050565b6007818154811061194557600080fd5b60009182526020909120600c90910201805460018201546002830154600384015460048501546005860154600687015460078801546008909801546001600160a01b038089169a5063ffffffff600160a01b8a0481169a600160c01b8b0482169a600160e01b90049091169860ff8116986101009091049092169691959194919391928d565b6003546001600160a01b031633146119f55760405162461bcd60e51b81526004016110df90613912565b6008548310611a3c5760405162461bcd60e51b8152602060048201526013602482015272092dcecc2d8d2c840e6e8c2e4e840d2dcc8caf606b1b60448201526064016110df565b611a45816129a0565b600854821115611a555760085491505b825b82811015611b4057600060088281548110611a7457611a74613828565b906000526020600020906005020190506000816002015490506000811115611b365760006002830155815460405163a9059cbb60e01b81526001600160a01b039182166004820152602481018390527f00000000000000000000000000000000000000000000000000000000000000009091169063a9059cbb906044016020604051808303816000875af1158015611b10573d6000803e3d6000fd5b505050506040513d601f19601f82011682018060405250810190611b3491906138f0565b505b5050600101611a57565b50505050565b600060078281548110611b5b57611b5b613828565b60009182526020909120600c9091020190506002600182015460ff166004811115611b8857611b886131f6565b14611ba65760405163b38c767b60e01b815260040160405180910390fd5b8054600160e01b900463ffffffff16421015611bd557604051632d5c37f560e21b815260040160405180910390fd5b6008810154600782015460009081526020819052604090205403611c0c5760405163c1f6fa5160e01b815260040160405180910390fd5b60055460405163a9059cbb60e01b8152336004820152602481018290527f00000000000000000000000000000000000000000000000000000000000000006001600160a01b03169063a9059cbb906044016020604051808303816000875af1158015611c7c573d6000803e3d6000fd5b505050506040513d601f19601f82011682018060405250810190611ca091906138f0565b5080826006016000828254611cb59190613938565b9091555050600682015460001315611cec578160060154826005016000828254611cdf9190613854565b9091555050600060068301555b6001820154600583015460405163a9059cbb60e01b81526101009092046001600160a01b03908116600484015260248301919091527f0000000000000000000000000000000000000000000000000000000000000000169063a9059cbb906044016020604051808303816000875af1158015611d6c573d6000803e3d6000fd5b505050506040513d601f19601f82011682018060405250810190611d9091906138f0565b5060018201805460ff191660039081179091558201546040805185815260208101929092527f12245c00d428a4c558061d2f69fe154a203bd2fb4a65b6c3e73e95ccdc735d18910160405180910390a1505050565b8060078381548110611df957611df9613828565b90600052602060002090600c020160010160006101000a81548160ff02191690836004811115611e2b57611e2b6131f6565b02179055505050565b606081604051602001611e47919061395f565b6040516020818303038152906040529050919050565b600060078881548110611e7257611e72613828565b90600052602060002090600c020190506000805b600a830154811015611f6c576000611ee784600a018381548110611eac57611eac613828565b6000918252602090912001546001600160c01b03167f00000000000000000000000000000000000000000000000000000000000000006128d0565b905060006008856009018481548110611f0257611f02613828565b906000526020600020015481548110611f1d57611f1d613828565b600091825260208220600460059092020101546001600160401b03169150611f458383612aaa565b9050611f518183612abd565b611f5b9086613854565b94505060019092019150611e869050565b50600061203a6040518061014001604052808b8152602001856002015481526020018560030154815260200185600901805490506001600160401b03168152602001611fd5611fba8b612512565b6001600160401b031660009081526020819052604090205490565b815263ffffffff8b1660208201819052604090910190611ff5908b613a1d565b6001600160401b0316815260200161200d8a8a613a1d565b6001600160401b031681526020016120248a612512565b6001600160401b03168152602001879052611e34565b60405163020a49e360e51b81529091506001600160a01b037f000000000000000000000000000000000000000000000000000000000000000016906341493c60906120ad907f00000000000000000000000000000000000000000000000000000000000000009085908990600401613a3c565b60006040518083038186803b1580156120c557600080fd5b505afa1580156120d9573d6000803e3d6000fd5b5061210f9250505063ffffffff89166001600160401b0389811690891688612101848d613a1d565b6001600160401b0316612ac9565b60018301805460ff1916600217905561212a61025842613a71565b83546001600160e01b0316600160e01b63ffffffff928316021784556001600160401b03881660078501558590600190612166908b168a613a1d565b6121709190613a1d565b6001600160401b03168151811061218957612189613828565b602090810291909101015160088401556004805460405163a9059cbb60e01b8152339281019290925260248201819052907f00000000000000000000000000000000000000000000000000000000000000006001600160a01b03169063a9059cbb906044016020604051808303816000875af115801561220d573d6000803e3d6000fd5b505050506040513d601f19601f8201168201806040525081019061223191906138f0565b5061225563ffffffff8a166001600160401b03808b16908a1689612101848e613a1d565b60008460060154121561228757836006015484600501600082825461227a9190613854565b9091555050600060068501555b600384015460405133917f184abe81dc2f02915b1cd93143dc1987a077040f7de69181dd5eaf9b37bb715c916122c5918f8252602082015260400190565b60405180910390a25050505050505050505050565b6003546001600160a01b031633146123045760405162461bcd60e51b81526004016110df90613912565b600491909155600555565b6040805160208082018352606082526001600160a01b0384166000908152600682528390208351815480840282018601865292810183815293949093919284929184919084018282801561238257602002820191906000526020600020905b81548152602001906001019080831161236e575b5050505050815250509050919050565b3360009081526006602052604090208054859190859081106123b6576123b6613828565b9060005260206000200154146123df57604051630e7fea9d60e01b815260040160405180910390fd5b6123e8816129a0565b600854841061240a5760405163721e09df60e01b815260040160405180910390fd5b60006008858154811061241f5761241f613828565b90600052602060002090600502019050826001600160c01b03166000148061245357508060020154836001600160c01b0316115b156124715760405163b4e3d41360e01b815260040160405180910390fd5b826001600160c01b031681600201600082825461248e91906138dd565b92505081905550826001600160c01b03168160030160008282546124b29190613854565b909155505060405163a9059cbb60e01b81523360048201526001600160c01b03841660248201527f00000000000000000000000000000000000000000000000000000000000000006001600160a01b03169063a9059cbb9060440161171b565b60006125206107e083613a8d565b61252a9083613a1d565b92915050565b6125c2604080516102008101825260008082526020820181905291810182905260608101829052906080820190815260200160006001600160a01b03168152602001600080191681526020016000801916815260200160008152602001600081526020016000815260200160008152602001600080191681526020016060815260200160608152602001606081525090565b600782815481106125d5576125d5613828565b60009182526020918290206040805161020081018252600c90930290910180546001600160a01b038116845263ffffffff600160a01b8204811695850195909552600160c01b8104851692840192909252600160e01b90910490921660608201526001820154909190608083019060ff166004811115612657576126576131f6565b6004811115612668576126686131f6565b81526020016001820160019054906101000a90046001600160a01b03166001600160a01b03166001600160a01b03168152602001600282015481526020016003820154815260200160048201548152602001600582015481526020016006820154815260200160078201548152602001600882015481526020016009820180548060200260200160405190810160405280929190818152602001828054801561273057602002820191906000526020600020905b81548152602001906001019080831161271c575b50505050508152602001600a820180548060200260200160405190810160405280929190818152602001828054801561279257602002820191906000526020600020905b81546001600160c01b03168152600190910190602001808311612774575b50505050508152602001600b820180548060200260200160405190810160405280929190818152602001828054801561238257602002820191906000526020600020906000905b82829054906101000a90046001600160401b03166001600160401b0316815260200190600801906020826007010492830192600103820291508084116127d95790505050505050815250509050919050565b6000818152602081905260409020546128575760405163fa4a5e4560e01b815260040160405180910390fd5b50565b6003546001600160a01b031633146128845760405162461bcd60e51b81526004016110df90613912565b600380546001600160a01b0319166001600160a01b03831690811790915560405133907f8be0079c531659141344cd1fd0a4f28419497f9722a3daafe3b4186f6b6457e090600090a350565b600060128260ff161015612905576128e9826012613abb565b6128f490600a613bbb565b6128fe9084613891565b905061252a565b5090919050565b60005b815181101561299c5761708063ffffffff16600783838151811061293557612935613828565b60200260200101518154811061294d5761294d613828565b60009182526020909120600c909102015461297590600160c01b900463ffffffff16426138dd565b1015612994576040516326349d6b60e01b815260040160405180910390fd5b60010161290f565b5050565b60005b815181101561299c576129b58261290c565b600060078383815181106129cb576129cb613828565b6020026020010151815481106129e3576129e3613828565b90600052602060002090600c0201905060005b6009820154811015612a935760006008836009018381548110612a1b57612a1b613828565b906000526020600020015481548110612a3657612a36613828565b9060005260206000209060050201905082600a018281548110612a5b57612a5b613828565b60009182526020822001546002830180546001600160c01b03909216929091612a85908490613854565b9091555050506001016129f6565b506001908101805460ff19166004179055016129a3565b6000612ab6828461387d565b9392505050565b6000612ab68284613891565b60015460ff7f000000000000000000000000000000000000000000000000000000000000000016612afa86866138dd565b1015612b555760008481526020819052604090205483518490612b1f906001906138dd565b81518110612b2f57612b2f613828565b602002602001015114612b55576040516341305f6360e01b815260040160405180910390fd5b80861115612b765760405163575f3da360e01b815260040160405180910390fd5b828281518110612b8857612b88613828565b60200260200101516000808781526020019081526020016000205403612bae5750612d16565b60008581526020819052604090205415801590612bcd57508360025410155b15612beb576040516371e98f3d60e11b815260040160405180910390fd5b80851115612c8f57808603612c2f57828281518110612c0c57612c0c613828565b602002602001015160008087815260200190815260200160002081905550612cc8565b80861015612c8a57855b858111612c885783612c4b88836138dd565b81518110612c5b57612c5b613828565b60209081029190910181015160008381529182905260409091205580612c8081613bca565b915050612c39565b505b612cc8565b80851015612cc857828281518110612ca957612ca9613828565b6020026020010151600080878152602001908152602001600020819055505b600154851115612cd85760018590555b82516040805188815260208101929092527fb68477c768bbb33b4f238a3dfd17c33c499268c59cd042b7936bbc23dc2bdd34910160405180910390a1505b5050505050565b828054828255906000526020600020908101928215612d58579160200282015b82811115612d58578251825591602001919060010190612d3d565b50612d64929150612e6c565b5090565b828054828255906000526020600020908101928215612d58579160200282015b82811115612d5857825182546001600160c01b0319166001600160c01b03909116178255602090920191600190910190612d88565b82805482825590600052602060002090600301600490048101928215612d585791602002820160005b83821115612e3057835183826101000a8154816001600160401b0302191690836001600160401b031602179055509260200192600801602081600701049283019260010302612de6565b8015612e635782816101000a8154906001600160401b030219169055600801602081600701049283019260010302612e30565b5050612d649291505b5b80821115612d645760008155600101612e6d565b634e487b7160e01b600052604160045260246000fd5b60405161014081016001600160401b0381118282101715612eba57612eba612e81565b60405290565b604051601f8201601f191681016001600160401b0381118282101715612ee857612ee8612e81565b604052919050565b60006001600160401b03821115612f0957612f09612e81565b5060051b60200190565b600082601f830112612f2457600080fd5b8135612f37612f3282612ef0565b612ec0565b8082825260208201915060208360051b860101925085831115612f5957600080fd5b602085015b83811015612f76578035835260209283019201612f5e565b5095945050505050565b80356001600160c01b0381168114612f9757600080fd5b919050565b6001600160a01b038116811461285757600080fd5b8035612f9781612f9c565b600080600080600060a08688031215612fd457600080fd5b85356001600160401b03811115612fea57600080fd5b612ff688828901612f13565b95505060208601356001600160401b0381111561301257600080fd5b8601601f8101881361302357600080fd5b8035613031612f3282612ef0565b8082825260208201915060208360051b85010192508a83111561305357600080fd5b6020840193505b8284101561307c5761306b84612f80565b82526020938401939091019061305a565b965061308e9250505060408701612fb1565b92506060860135915060808601356001600160401b038111156130b057600080fd5b6130bc88828901612f13565b9150509295509295909350565b6000602082840312156130db57600080fd5b813560ff81168114612ab657600080fd5b6000602082840312156130fe57600080fd5b5035919050565b80356001600160401b0381168114612f9757600080fd5b600080600080600060a0868803121561313457600080fd5b8535945061314460208701613105565b935060408601356001600160501b03198116811461316157600080fd5b94979396509394606081013594506080013592915050565b6000806000806080858703121561318f57600080fd5b84359350602085013592506131a660408601613105565b915060608501356001600160401b038111156131c157600080fd5b6131cd87828801612f13565b91505092959194509250565b6000602082840312156131eb57600080fd5b8135612ab681612f9c565b634e487b7160e01b600052602160045260246000fd5b6005811061322a57634e487b7160e01b600052602160045260246000fd5b9052565b6001600160a01b038e16815263ffffffff8d811660208301528c811660408301528b1660608201526101a08101613268608083018c61320c565b6001600160a01b038a1660a083015260c082019890985260e0810196909652610100860194909452610120850192909252610140840152610160830152610180909101529695505050505050565b6000806000606084860312156132cb57600080fd5b833592506020840135915060408401356001600160401b038111156132ef57600080fd5b6132fb86828701612f13565b9150509250925092565b6000806040838503121561331857600080fd5b8235915060208301356005811061332e57600080fd5b809150509250929050565b60006020828403121561334b57600080fd5b81356001600160401b0381111561336157600080fd5b8201610140818503121561337457600080fd5b61337c612e97565b8135815260208083013590820152604080830135908201526133a060608301613105565b6060820152608082810135908201526133bb60a08301613105565b60a08201526133cc60c08301613105565b60c08201526133dd60e08301613105565b60e08201526133ef6101008301613105565b6101008201526101208201356001600160401b0381111561340f57600080fd5b61341b86828501612f13565b61012083015250949350505050565b60005b8381101561344557818101518382015260200161342d565b50506000910152565b6000815180845261346681602086016020860161342a565b601f01601f19169290920160200192915050565b602081526000612ab6602083018461344e565b600082601f83011261349e57600080fd5b81356001600160401b038111156134b7576134b7612e81565b6134ca601f8201601f1916602001612ec0565b8181528460208386010111156134df57600080fd5b816020850160208301376000918101602001919091529392505050565b600080600080600080600060e0888a03121561351757600080fd5b8735965060208801359550604088013563ffffffff8116811461353957600080fd5b945061354760608901613105565b935061355560808901613105565b925060a08801356001600160401b0381111561357057600080fd5b61357c8a828b01612f13565b92505060c08801356001600160401b0381111561359857600080fd5b6135a48a828b0161348d565b91505092959891949750929550565b600080604083850312156135c657600080fd5b50508035926020909101359150565b600081518084526020840193506020830160005b828110156136075781518652602095860195909101906001016135e9565b5093949350505050565b602081526000825160208084015261362c60408401826135d5565b949350505050565b6000806000806080858703121561364a57600080fd5b84359350602085013592506131a660408601612f80565b60006020828403121561367357600080fd5b612ab682613105565b600081518084526020840193506020830160005b828110156136075781516001600160c01b0316865260209586019590910190600101613690565b600081518084526020840193506020830160005b828110156136075781516001600160401b03168652602095860195909101906001016136cb565b6020815261370c6020820183516001600160a01b03169052565b60006020830151613725604084018263ffffffff169052565b50604083015163ffffffff8116606084015250606083015163ffffffff8116608084015250608083015161375c60a084018261320c565b5060a08301516001600160a01b03811660c08401525060c083015160e083015260e08301516101008301526101008301516101208301526101208301516101408301526101408301516101608301526101608301516101808301526101808301516101a08301526101a08301516102006101c08401526137e06102208401826135d5565b90506101c0840151601f19848303016101e08501526137ff828261367c565b9150506101e0840151601f198483030161020085015261381f82826136b7565b95945050505050565b634e487b7160e01b600052603260045260246000fd5b634e487b7160e01b600052601160045260246000fd5b8082018082111561252a5761252a61383e565b634e487b7160e01b600052601260045260246000fd5b60008261388c5761388c613867565b500490565b808202811582820484141761252a5761252a61383e565b600082516138ba81846020870161342a565b9190910192915050565b6000602082840312156138d657600080fd5b5051919050565b8181038181111561252a5761252a61383e565b60006020828403121561390257600080fd5b81518015158114612ab657600080fd5b6020808252600c908201526b15539055551213d49256915160a21b604082015260600190565b81810360008312801583831316838312821617156139585761395861383e565b5092915050565b602081528151602082015260208201516040820152604082015160608201526000606083015161399a60808401826001600160401b03169052565b50608083015160a083015260a08301516139bf60c08401826001600160401b03169052565b5060c08301516001600160401b03811660e08401525060e08301516001600160401b038116610100840152506101008301516001600160401b038116610120840152506101208301516101408084015261362c6101608401826135d5565b6001600160401b03828116828216039081111561252a5761252a61383e565b838152606060208201526000613a55606083018561344e565b8281036040840152613a67818561344e565b9695505050505050565b63ffffffff818116838216019081111561252a5761252a61383e565b60006001600160401b03831680613aa657613aa6613867565b806001600160401b0384160691505092915050565b60ff828116828216039081111561252a5761252a61383e565b6001815b6001841115613b0f57808504811115613af357613af361383e565b6001841615613b0157908102905b60019390931c928002613ad8565b935093915050565b600082613b265750600161252a565b81613b335750600061252a565b8160018114613b495760028114613b5357613b6f565b600191505061252a565b60ff841115613b6457613b6461383e565b50506001821b61252a565b5060208310610133831016604e8410600b8410161715613b92575081810a61252a565b613b9f6000198484613ad4565b8060001904821115613bb357613bb361383e565b029392505050565b6000612ab660ff841683613b17565b600060018201613bdc57613bdc61383e565b506001019056fea2646970667358221220d6bab5661229ffe64f4a21818b8259cdcf1ad18a6f9ecd67a272a7978ae5856864736f6c634300081a0033","linkReferences":{}},"methodIdentifiers":{"CHALLENGE_PERIOD()":"c3a079ed","DEPOSIT_TOKEN()":"13f66587","MAX_DEPOSIT_OUTPUTS()":"9cdb8e5a","MIN_ORDER_GAS_MULTIPLIER()":"5f5d5b6a","PROOF_GAS_COST()":"eb6c7522","RELEASE_GAS_COST()":"9a64279c","RESERVATION_LOCKUP_PERIOD()":"89a11f7a","SAMPLING_SIZE()":"ad062e55","TOKEN_DECIMALS()":"5b7f415c","buildProofPublicInputs((bytes32,bytes32,bytes32,uint64,bytes32,uint64,uint64,uint64,uint64,bytes32[]))":"7e38d04c","calculateRetargetHeight(uint64)":"d34bb7c1","circuitVerificationKey()":"3d7b22b3","currentConfirmationHeight()":"fba78166","currentHeight()":"163de0c5","depositLiquidity(uint256,uint64,bytes22,int256,int256)":"51a7f1cd","depositVaults(uint256)":"5f4d0610","emptyDepositVault(uint256)":"490d4c5f","getAreDepositsPaused()":"b01c27d1","getBlockHash(uint256)":"ee82ac5e","getDepositVault(uint256)":"276d080e","getDepositVaultUnreservedBalance(uint256)":"6512d057","getDepositVaultsLength()":"7dce5550","getLiquidityProvider(address)":"98f9e757","getReservation(uint256)":"d57763c3","getReservationLength()":"ea6fe03e","isDepositNewLiquidityPaused()":"8cc63cdd","owner()":"8da5cb5b","pauseDepositNewLiquidity()":"130d1392","proposeTransactionProof(uint256,bytes32,uint32,uint64,uint64,bytes32[],bytes)":"8f805ac9","protocolFeeBP()":"c5fba0b8","proverReward()":"6dcc17c8","refundAllLPs(uint256,uint256,uint256[])":"70c60e8f","releaseLiquidity(uint256)":"77891907","releaserReward()":"9cc7eab9","reserveLiquidity(uint256[],uint192[],address,uint256,uint256[])":"0140e183","setSwapReservationState(uint256,uint8)":"7b93291f","swapReservations(uint256)":"6b994abb","transferOwnership(address)":"f2fde38b","unpauseDepositNewLiquidity()":"4491ba54","updateExchangeRate(uint256,uint256,uint64,uint256[])":"56fe6f86","updateProtocolAddress(address)":"58e2b676","updateProtocolFee(uint8)":"0a7aa293","updateRewards(uint256,uint256)":"97e50818","validateBlockExists(uint256)":"ed8b2b32","verifierContract()":"cf695688","withdrawLiquidity(uint256,uint256,uint192,uint256[])":"aeacb2e7"},"storageLayout":{"storage":[{"astId":47836,"contract":"src/RiftExchange.sol:RiftExchange","label":"blockchain","offset":0,"slot":"0","type":"t_mapping(t_uint256,t_bytes32)"},{"astId":47838,"contract":"src/RiftExchange.sol:RiftExchange","label":"currentHeight","offset":0,"slot":"1","type":"t_uint256"},{"astId":47840,"contract":"src/RiftExchange.sol:RiftExchange","label":"currentConfirmationHeight","offset":0,"slot":"2","type":"t_uint256"},{"astId":46637,"contract":"src/RiftExchange.sol:RiftExchange","label":"owner","offset":0,"slot":"3","type":"t_address"},{"astId":48225,"contract":"src/RiftExchange.sol:RiftExchange","label":"isDepositNewLiquidityPaused","offset":20,"slot":"3","type":"t_bool"},{"astId":48236,"contract":"src/RiftExchange.sol:RiftExchange","label":"protocolFeeBP","offset":21,"slot":"3","type":"t_uint8"},{"astId":48238,"contract":"src/RiftExchange.sol:RiftExchange","label":"proverReward","offset":0,"slot":"4","type":"t_uint256"},{"astId":48240,"contract":"src/RiftExchange.sol:RiftExchange","label":"releaserReward","offset":0,"slot":"5","type":"t_uint256"},{"astId":48332,"contract":"src/RiftExchange.sol:RiftExchange","label":"liquidityProviders","offset":0,"slot":"6","type":"t_mapping(t_address,t_struct(LiquidityProvider)48271_storage)"},{"astId":48336,"contract":"src/RiftExchange.sol:RiftExchange","label":"swapReservations","offset":0,"slot":"7","type":"t_array(t_struct(SwapReservation)48327_storage)dyn_storage"},{"astId":48340,"contract":"src/RiftExchange.sol:RiftExchange","label":"depositVaults","offset":0,"slot":"8","type":"t_array(t_struct(DepositVault)48284_storage)dyn_storage"},{"astId":48351,"contract":"src/RiftExchange.sol:RiftExchange","label":"protocolAddress","offset":0,"slot":"9","type":"t_address_payable"}],"types":{"t_address":{"encoding":"inplace","label":"address","numberOfBytes":"20"},"t_address_payable":{"encoding":"inplace","label":"address payable","numberOfBytes":"20"},"t_array(t_struct(DepositVault)48284_storage)dyn_storage":{"encoding":"dynamic_array","label":"struct RiftExchange.DepositVault[]","numberOfBytes":"32","base":"t_struct(DepositVault)48284_storage"},"t_array(t_struct(SwapReservation)48327_storage)dyn_storage":{"encoding":"dynamic_array","label":"struct RiftExchange.SwapReservation[]","numberOfBytes":"32","base":"t_struct(SwapReservation)48327_storage"},"t_array(t_uint192)dyn_storage":{"encoding":"dynamic_array","label":"uint192[]","numberOfBytes":"32","base":"t_uint192"},"t_array(t_uint256)dyn_storage":{"encoding":"dynamic_array","label":"uint256[]","numberOfBytes":"32","base":"t_uint256"},"t_array(t_uint64)dyn_storage":{"encoding":"dynamic_array","label":"uint64[]","numberOfBytes":"32","base":"t_uint64"},"t_bool":{"encoding":"inplace","label":"bool","numberOfBytes":"1"},"t_bytes22":{"encoding":"inplace","label":"bytes22","numberOfBytes":"22"},"t_bytes32":{"encoding":"inplace","label":"bytes32","numberOfBytes":"32"},"t_enum(ReservationState)48290":{"encoding":"inplace","label":"enum RiftExchange.ReservationState","numberOfBytes":"1"},"t_int256":{"encoding":"inplace","label":"int256","numberOfBytes":"32"},"t_mapping(t_address,t_struct(LiquidityProvider)48271_storage)":{"encoding":"mapping","key":"t_address","label":"mapping(address => struct RiftExchange.LiquidityProvider)","numberOfBytes":"32","value":"t_struct(LiquidityProvider)48271_storage"},"t_mapping(t_uint256,t_bytes32)":{"encoding":"mapping","key":"t_uint256","label":"mapping(uint256 => bytes32)","numberOfBytes":"32","value":"t_bytes32"},"t_struct(DepositVault)48284_storage":{"encoding":"inplace","label":"struct RiftExchange.DepositVault","numberOfBytes":"160","members":[{"astId":48273,"contract":"src/RiftExchange.sol:RiftExchange","label":"owner","offset":0,"slot":"0","type":"t_address"},{"astId":48275,"contract":"src/RiftExchange.sol:RiftExchange","label":"initialBalance","offset":0,"slot":"1","type":"t_uint256"},{"astId":48277,"contract":"src/RiftExchange.sol:RiftExchange","label":"unreservedBalance","offset":0,"slot":"2","type":"t_uint256"},{"astId":48279,"contract":"src/RiftExchange.sol:RiftExchange","label":"withdrawnAmount","offset":0,"slot":"3","type":"t_uint256"},{"astId":48281,"contract":"src/RiftExchange.sol:RiftExchange","label":"exchangeRate","offset":0,"slot":"4","type":"t_uint64"},{"astId":48283,"contract":"src/RiftExchange.sol:RiftExchange","label":"btcPayoutLockingScript","offset":8,"slot":"4","type":"t_bytes22"}]},"t_struct(LiquidityProvider)48271_storage":{"encoding":"inplace","label":"struct RiftExchange.LiquidityProvider","numberOfBytes":"32","members":[{"astId":48270,"contract":"src/RiftExchange.sol:RiftExchange","label":"depositVaultIndexes","offset":0,"slot":"0","type":"t_array(t_uint256)dyn_storage"}]},"t_struct(SwapReservation)48327_storage":{"encoding":"inplace","label":"struct RiftExchange.SwapReservation","numberOfBytes":"384","members":[{"astId":48292,"contract":"src/RiftExchange.sol:RiftExchange","label":"owner","offset":0,"slot":"0","type":"t_address"},{"astId":48294,"contract":"src/RiftExchange.sol:RiftExchange","label":"confirmationBlockHeight","offset":20,"slot":"0","type":"t_uint32"},{"astId":48296,"contract":"src/RiftExchange.sol:RiftExchange","label":"reservationTimestamp","offset":24,"slot":"0","type":"t_uint32"},{"astId":48298,"contract":"src/RiftExchange.sol:RiftExchange","label":"unlockTimestamp","offset":28,"slot":"0","type":"t_uint32"},{"astId":48301,"contract":"src/RiftExchange.sol:RiftExchange","label":"state","offset":0,"slot":"1","type":"t_enum(ReservationState)48290"},{"astId":48303,"contract":"src/RiftExchange.sol:RiftExchange","label":"ethPayoutAddress","offset":1,"slot":"1","type":"t_address"},{"astId":48305,"contract":"src/RiftExchange.sol:RiftExchange","label":"lpReservationHash","offset":0,"slot":"2","type":"t_bytes32"},{"astId":48307,"contract":"src/RiftExchange.sol:RiftExchange","label":"nonce","offset":0,"slot":"3","type":"t_bytes32"},{"astId":48309,"contract":"src/RiftExchange.sol:RiftExchange","label":"totalSatsInputInlcudingProxyFee","offset":0,"slot":"4","type":"t_uint256"},{"astId":48311,"contract":"src/RiftExchange.sol:RiftExchange","label":"totalSwapOutputAmount","offset":0,"slot":"5","type":"t_uint256"},{"astId":48313,"contract":"src/RiftExchange.sol:RiftExchange","label":"prepaidFeeAmount","offset":0,"slot":"6","type":"t_int256"},{"astId":48315,"contract":"src/RiftExchange.sol:RiftExchange","label":"proposedBlockHeight","offset":0,"slot":"7","type":"t_uint256"},{"astId":48317,"contract":"src/RiftExchange.sol:RiftExchange","label":"proposedBlockHash","offset":0,"slot":"8","type":"t_bytes32"},{"astId":48320,"contract":"src/RiftExchange.sol:RiftExchange","label":"vaultIndexes","offset":0,"slot":"9","type":"t_array(t_uint256)dyn_storage"},{"astId":48323,"contract":"src/RiftExchange.sol:RiftExchange","label":"amountsToReserve","offset":0,"slot":"10","type":"t_array(t_uint192)dyn_storage"},{"astId":48326,"contract":"src/RiftExchange.sol:RiftExchange","label":"expectedSatsOutput","offset":0,"slot":"11","type":"t_array(t_uint64)dyn_storage"}]},"t_uint192":{"encoding":"inplace","label":"uint192","numberOfBytes":"24"},"t_uint256":{"encoding":"inplace","label":"uint256","numberOfBytes":"32"},"t_uint32":{"encoding":"inplace","label":"uint32","numberOfBytes":"4"},"t_uint64":{"encoding":"inplace","label":"uint64","numberOfBytes":"8"},"t_uint8":{"encoding":"inplace","label":"uint8","numberOfBytes":"1"}}},"id":31}