{"abi":[{"type":"constructor","inputs":[{"name":"initialCheckpointHeight","type":"uint256","internalType":"uint256"},{"name":"initialBlockHash","type":"bytes32","internalType":"bytes32"},{"name":"initialRetargetBlockHash","type":"bytes32","internalType":"bytes32"},{"name":"initialChainwork","type":"uint256","internalType":"uint256"},{"name":"verifierContractAddress","type":"address","internalType":"address"},{"name":"depositTokenAddress","type":"address","internalType":"address"},{"name":"initialFeeRouterAddress","type":"address","internalType":"address"},{"name":"owner","type":"address","internalType":"address"},{"name":"circuitVerificationKey","type":"bytes32","internalType":"bytes32"},{"name":"minimumConfirmationDelta","type":"uint8","internalType":"uint8"}],"stateMutability":"nonpayable"},{"type":"function","name":"BP_SCALE","inputs":[],"outputs":[{"name":"","type":"uint256","internalType":"uint256"}],"stateMutability":"view"},{"type":"function","name":"CHALLENGE_PERIOD","inputs":[],"outputs":[{"name":"","type":"uint32","internalType":"uint32"}],"stateMutability":"view"},{"type":"function","name":"CIRCUIT_VERIFICATION_KEY","inputs":[],"outputs":[{"name":"","type":"bytes32","internalType":"bytes32"}],"stateMutability":"view"},{"type":"function","name":"DEPOSIT_TOKEN","inputs":[],"outputs":[{"name":"","type":"address","internalType":"contract IERC20"}],"stateMutability":"view"},{"type":"function","name":"RESERVATION_LOCKUP_PERIOD","inputs":[],"outputs":[{"name":"","type":"uint32","internalType":"uint32"}],"stateMutability":"view"},{"type":"function","name":"SCALE","inputs":[],"outputs":[{"name":"","type":"uint256","internalType":"uint256"}],"stateMutability":"view"},{"type":"function","name":"TOKEN_DECIMALS","inputs":[],"outputs":[{"name":"","type":"uint8","internalType":"uint8"}],"stateMutability":"view"},{"type":"function","name":"VERIFIER_CONTRACT","inputs":[],"outputs":[{"name":"","type":"address","internalType":"contract ISP1Verifier"}],"stateMutability":"view"},{"type":"function","name":"buildPublicInputs","inputs":[{"name":"swapReservationIndex","type":"uint256","internalType":"uint256"},{"name":"bitcoinTxId","type":"bytes32","internalType":"bytes32"},{"name":"merkleRoot","type":"bytes32","internalType":"bytes32"},{"name":"safeBlockHeight","type":"uint32","internalType":"uint32"},{"name":"proposedBlockHeight","type":"uint64","internalType":"uint64"},{"name":"confirmationBlockHeight","type":"uint64","internalType":"uint64"},{"name":"blockHashes","type":"bytes32[]","internalType":"bytes32[]"},{"name":"blockChainworks","type":"uint256[]","internalType":"uint256[]"},{"name":"isTransactionProof","type":"bool","internalType":"bool"}],"outputs":[{"name":"","type":"tuple","internalType":"struct RiftExchange.ProofPublicInputs","components":[{"name":"natural_txid","type":"bytes32","internalType":"bytes32"},{"name":"merkle_root","type":"bytes32","internalType":"bytes32"},{"name":"lp_reservation_hash","type":"bytes32","internalType":"bytes32"},{"name":"order_nonce","type":"bytes32","internalType":"bytes32"},{"name":"lp_count","type":"uint64","internalType":"uint64"},{"name":"retarget_block_hash","type":"bytes32","internalType":"bytes32"},{"name":"safe_block_height","type":"uint64","internalType":"uint64"},{"name":"safe_block_height_delta","type":"uint64","internalType":"uint64"},{"name":"confirmation_block_height_delta","type":"uint64","internalType":"uint64"},{"name":"block_hashes","type":"bytes32[]","internalType":"bytes32[]"},{"name":"block_chainworks","type":"uint256[]","internalType":"uint256[]"},{"name":"is_transaction_proof","type":"bool","internalType":"bool"}]}],"stateMutability":"view"},{"type":"function","name":"calculateRetargetHeight","inputs":[{"name":"blockHeight","type":"uint256","internalType":"uint256"}],"outputs":[{"name":"","type":"uint256","internalType":"uint256"}],"stateMutability":"pure"},{"type":"function","name":"currentHeight","inputs":[],"outputs":[{"name":"","type":"uint256","internalType":"uint256"}],"stateMutability":"view"},{"type":"function","name":"depositLiquidity","inputs":[{"name":"depositAmount","type":"uint256","internalType":"uint256"},{"name":"exchangeRate","type":"uint64","internalType":"uint64"},{"name":"btcPayoutLockingScript","type":"bytes22","internalType":"bytes22"}],"outputs":[],"stateMutability":"nonpayable"},{"type":"function","name":"depositVaults","inputs":[{"name":"","type":"uint256","internalType":"uint256"}],"outputs":[{"name":"owner","type":"address","internalType":"address"},{"name":"depositTimestamp","type":"uint64","internalType":"uint64"},{"name":"initialBalance","type":"uint256","internalType":"uint256"},{"name":"unreservedBalance","type":"uint256","internalType":"uint256"},{"name":"withdrawnAmount","type":"uint256","internalType":"uint256"},{"name":"exchangeRate","type":"uint64","internalType":"uint64"},{"name":"btcPayoutLockingScript","type":"bytes22","internalType":"bytes22"}],"stateMutability":"view"},{"type":"function","name":"getAreDepositsPaused","inputs":[],"outputs":[{"name":"","type":"bool","internalType":"bool"}],"stateMutability":"view"},{"type":"function","name":"getBlockHash","inputs":[{"name":"blockHeight","type":"uint256","internalType":"uint256"}],"outputs":[{"name":"","type":"bytes32","internalType":"bytes32"}],"stateMutability":"view"},{"type":"function","name":"getChainwork","inputs":[{"name":"blockHeight","type":"uint256","internalType":"uint256"}],"outputs":[{"name":"","type":"uint256","internalType":"uint256"}],"stateMutability":"view"},{"type":"function","name":"getDepositVault","inputs":[{"name":"depositIndex","type":"uint256","internalType":"uint256"}],"outputs":[{"name":"","type":"tuple","internalType":"struct RiftExchange.DepositVault","components":[{"name":"owner","type":"address","internalType":"address"},{"name":"depositTimestamp","type":"uint64","internalType":"uint64"},{"name":"initialBalance","type":"uint256","internalType":"uint256"},{"name":"unreservedBalance","type":"uint256","internalType":"uint256"},{"name":"withdrawnAmount","type":"uint256","internalType":"uint256"},{"name":"exchangeRate","type":"uint64","internalType":"uint64"},{"name":"btcPayoutLockingScript","type":"bytes22","internalType":"bytes22"}]}],"stateMutability":"view"},{"type":"function","name":"getDepositVaultUnreservedBalance","inputs":[{"name":"depositIndex","type":"uint256","internalType":"uint256"}],"outputs":[{"name":"","type":"uint256","internalType":"uint256"}],"stateMutability":"view"},{"type":"function","name":"getDepositVaultsLength","inputs":[],"outputs":[{"name":"","type":"uint256","internalType":"uint256"}],"stateMutability":"view"},{"type":"function","name":"getLiquidityProvider","inputs":[{"name":"lpAddress","type":"address","internalType":"address"}],"outputs":[{"name":"","type":"tuple","internalType":"struct RiftExchange.LiquidityProvider","components":[{"name":"depositVaultIndexes","type":"uint256[]","internalType":"uint256[]"}]}],"stateMutability":"view"},{"type":"function","name":"getReservation","inputs":[{"name":"reservationIndex","type":"uint256","internalType":"uint256"}],"outputs":[{"name":"","type":"tuple","internalType":"struct RiftExchange.SwapReservation","components":[{"name":"owner","type":"address","internalType":"address"},{"name":"confirmationBlockHeight","type":"uint32","internalType":"uint32"},{"name":"reservationTimestamp","type":"uint64","internalType":"uint64"},{"name":"liquidityUnlockedTimestamp","type":"uint64","internalType":"uint64"},{"name":"state","type":"uint8","internalType":"enum RiftExchange.ReservationState"},{"name":"ethPayoutAddress","type":"address","internalType":"address"},{"name":"lpReservationHash","type":"bytes32","internalType":"bytes32"},{"name":"nonce","type":"bytes32","internalType":"bytes32"},{"name":"totalSatsInputIncludingProxyFee","type":"uint256","internalType":"uint256"},{"name":"protocolFee","type":"uint256","internalType":"uint256"},{"name":"totalSwapOutputAmount","type":"uint256","internalType":"uint256"},{"name":"proposedBlockHeight","type":"uint256","internalType":"uint256"},{"name":"proposedBlockHash","type":"bytes32","internalType":"bytes32"},{"name":"vaultIndexes","type":"uint256[]","internalType":"uint256[]"},{"name":"amountsToReserve","type":"uint192[]","internalType":"uint192[]"},{"name":"expectedSatsOutput","type":"uint64[]","internalType":"uint64[]"}]}],"stateMutability":"view"},{"type":"function","name":"getReservationLength","inputs":[],"outputs":[{"name":"","type":"uint256","internalType":"uint256"}],"stateMutability":"view"},{"type":"function","name":"isDepositNewLiquidityPaused","inputs":[],"outputs":[{"name":"","type":"bool","internalType":"bool"}],"stateMutability":"view"},{"type":"function","name":"owner","inputs":[],"outputs":[{"name":"","type":"address","internalType":"address"}],"stateMutability":"view"},{"type":"function","name":"protocolFeeBP","inputs":[],"outputs":[{"name":"","type":"uint8","internalType":"uint8"}],"stateMutability":"view"},{"type":"function","name":"proveBlocks","inputs":[{"name":"safeBlockHeight","type":"uint32","internalType":"uint32"},{"name":"proposedBlockHeight","type":"uint64","internalType":"uint64"},{"name":"confirmationBlockHeight","type":"uint64","internalType":"uint64"},{"name":"blockHashes","type":"bytes32[]","internalType":"bytes32[]"},{"name":"blockChainworks","type":"uint256[]","internalType":"uint256[]"},{"name":"proof","type":"bytes","internalType":"bytes"}],"outputs":[],"stateMutability":"nonpayable"},{"type":"function","name":"releaseLiquidity","inputs":[{"name":"swapReservationIndex","type":"uint256","internalType":"uint256"}],"outputs":[],"stateMutability":"nonpayable"},{"type":"function","name":"reserveLiquidity","inputs":[{"name":"reservationOwner","type":"address","internalType":"address"},{"name":"vaultIndexesToReserve","type":"uint256[]","internalType":"uint256[]"},{"name":"amountsToReserve","type":"uint192[]","internalType":"uint192[]"},{"name":"ethPayoutAddress","type":"address","internalType":"address"},{"name":"totalSatsInputIncludingProxyFee","type":"uint256","internalType":"uint256"},{"name":"expiredSwapReservationIndexes","type":"uint256[]","internalType":"uint256[]"}],"outputs":[],"stateMutability":"nonpayable"},{"type":"function","name":"submitSwapProof","inputs":[{"name":"swapReservationIndex","type":"uint256","internalType":"uint256"},{"name":"bitcoinTxId","type":"bytes32","internalType":"bytes32"},{"name":"merkleRoot","type":"bytes32","internalType":"bytes32"},{"name":"safeBlockHeight","type":"uint32","internalType":"uint32"},{"name":"proposedBlockHeight","type":"uint64","internalType":"uint64"},{"name":"confirmationBlockHeight","type":"uint64","internalType":"uint64"},{"name":"blockHashes","type":"bytes32[]","internalType":"bytes32[]"},{"name":"blockChainworks","type":"uint256[]","internalType":"uint256[]"},{"name":"proof","type":"bytes","internalType":"bytes"}],"outputs":[],"stateMutability":"nonpayable"},{"type":"function","name":"swapReservations","inputs":[{"name":"","type":"uint256","internalType":"uint256"}],"outputs":[{"name":"owner","type":"address","internalType":"address"},{"name":"confirmationBlockHeight","type":"uint32","internalType":"uint32"},{"name":"reservationTimestamp","type":"uint64","internalType":"uint64"},{"name":"liquidityUnlockedTimestamp","type":"uint64","internalType":"uint64"},{"name":"state","type":"uint8","internalType":"enum RiftExchange.ReservationState"},{"name":"ethPayoutAddress","type":"address","internalType":"address"},{"name":"lpReservationHash","type":"bytes32","internalType":"bytes32"},{"name":"nonce","type":"bytes32","internalType":"bytes32"},{"name":"totalSatsInputIncludingProxyFee","type":"uint256","internalType":"uint256"},{"name":"protocolFee","type":"uint256","internalType":"uint256"},{"name":"totalSwapOutputAmount","type":"uint256","internalType":"uint256"},{"name":"proposedBlockHeight","type":"uint256","internalType":"uint256"},{"name":"proposedBlockHash","type":"bytes32","internalType":"bytes32"}],"stateMutability":"view"},{"type":"function","name":"transferOwnership","inputs":[{"name":"newOwner","type":"address","internalType":"address"}],"outputs":[],"stateMutability":"nonpayable"},{"type":"function","name":"updateExchangeRate","inputs":[{"name":"globalVaultIndex","type":"uint256","internalType":"uint256"},{"name":"newExchangeRate","type":"uint64","internalType":"uint64"},{"name":"expiredSwapReservationIndexes","type":"uint256[]","internalType":"uint256[]"}],"outputs":[],"stateMutability":"nonpayable"},{"type":"function","name":"updateFeeRouter","inputs":[{"name":"newProtocolAddress","type":"address","internalType":"address payable"}],"outputs":[],"stateMutability":"nonpayable"},{"type":"function","name":"updateNewLiquidityDepositsPaused","inputs":[{"name":"newPauseState","type":"bool","internalType":"bool"}],"outputs":[],"stateMutability":"nonpayable"},{"type":"function","name":"updateProtocolFee","inputs":[{"name":"newProtocolFeeBP","type":"uint8","internalType":"uint8"}],"outputs":[],"stateMutability":"nonpayable"},{"type":"function","name":"validateBlockExists","inputs":[{"name":"blockHeight","type":"uint256","internalType":"uint256"}],"outputs":[],"stateMutability":"view"},{"type":"function","name":"withdrawLiquidity","inputs":[{"name":"globalVaultIndex","type":"uint256","internalType":"uint256"},{"name":"amountToWithdraw","type":"uint192","internalType":"uint192"},{"name":"expiredSwapReservationIndexes","type":"uint256[]","internalType":"uint256[]"}],"outputs":[],"stateMutability":"nonpayable"},{"type":"event","name":"BlocksAdded","inputs":[{"name":"startBlockHeight","type":"uint256","indexed":false,"internalType":"uint256"},{"name":"count","type":"uint256","indexed":false,"internalType":"uint256"}],"anonymous":false},{"type":"event","name":"LiquidityDeposited","inputs":[{"name":"depositor","type":"address","indexed":true,"internalType":"address"},{"name":"depositVaultIndex","type":"uint256","indexed":false,"internalType":"uint256"},{"name":"amount","type":"uint256","indexed":false,"internalType":"uint256"},{"name":"exchangeRate","type":"uint64","indexed":false,"internalType":"uint64"}],"anonymous":false},{"type":"event","name":"LiquidityReserved","inputs":[{"name":"reserver","type":"address","indexed":true,"internalType":"address"},{"name":"swapReservationIndex","type":"uint256","indexed":false,"internalType":"uint256"},{"name":"orderNonce","type":"bytes32","indexed":false,"internalType":"bytes32"}],"anonymous":false},{"type":"event","name":"OwnershipTransferred","inputs":[{"name":"user","type":"address","indexed":true,"internalType":"address"},{"name":"newOwner","type":"address","indexed":true,"internalType":"address"}],"anonymous":false},{"type":"event","name":"ProofSubmitted","inputs":[{"name":"prover","type":"address","indexed":true,"internalType":"address"},{"name":"swapReservationIndex","type":"uint256","indexed":false,"internalType":"uint256"},{"name":"orderNonce","type":"bytes32","indexed":false,"internalType":"bytes32"}],"anonymous":false},{"type":"event","name":"SwapComplete","inputs":[{"name":"swapReservationIndex","type":"uint256","indexed":false,"internalType":"uint256"},{"name":"orderNonce","type":"bytes32","indexed":false,"internalType":"bytes32"}],"anonymous":false},{"type":"error","name":"AmountToReserveTooLow","inputs":[{"name":"index","type":"uint256","internalType":"uint256"}]},{"type":"error","name":"BlockArraysMismatch","inputs":[]},{"type":"error","name":"BlockDoesNotExist","inputs":[]},{"type":"error","name":"InvalidBlockHeights","inputs":[]},{"type":"error","name":"InvalidChainwork","inputs":[]},{"type":"error","name":"InvalidConfirmationBlock","inputs":[]},{"type":"error","name":"InvalidExchangeRate","inputs":[]},{"type":"error","name":"InvalidInputArrays","inputs":[]},{"type":"error","name":"InvalidReservationState","inputs":[]},{"type":"error","name":"InvalidSafeBlock","inputs":[]},{"type":"error","name":"NewDepositsPaused","inputs":[]},{"type":"error","name":"NotEnoughLiquidity","inputs":[]},{"type":"error","name":"NotVaultOwner","inputs":[]},{"type":"error","name":"OverwrittenProposedBlock","inputs":[]},{"type":"error","name":"ReservationNotExpired","inputs":[]},{"type":"error","name":"ReservationNotProved","inputs":[]},{"type":"error","name":"StillInChallengePeriod","inputs":[]},{"type":"error","name":"UpdateExchangeRateError","inputs":[]},{"type":"error","name":"WithdrawalAmountError","inputs":[]}],"bytecode":{"object":"0x6101206040526003805461ffff60a01b1916600560a91b17905534801562000025575f80fd5b5060405162003c9338038062003c938339810160408190526200004891620001f0565b60028a90555f8a81526001602090815260408083208a90559082905281208a905583908b9089908c908c9086908290806200008388620001a2565b8152602081019190915260409081015f9081209290925560ff909216608052600380546001600160a01b0389166001600160a01b03199091168117909155915191955093507f8be0079c531659141344cd1fd0a4f28419497f9722a3daafe3b4186f6b6457e09250839150a35060e08290526001600160a01b0380871661010052851660a08190526040805163313ce56760e01b8152905163313ce567916004808201926020929091908290030181865afa15801562000145573d5f803e3d5ffd5b505050506040513d601f19601f820116820180604052508101906200016b91906200028c565b60ff1660c0525050600480546001600160a01b0319166001600160a01b03939093169290921790915550620002ef95505050505050565b5f620001b16107e083620002af565b620001bd9083620002cf565b92915050565b80516001600160a01b0381168114620001da575f80fd5b919050565b805160ff81168114620001da575f80fd5b5f805f805f805f805f806101408b8d0312156200020b575f80fd5b8a51995060208b0151985060408b0151975060608b015196506200023260808c01620001c3565b95506200024260a08c01620001c3565b94506200025260c08c01620001c3565b93506200026260e08c01620001c3565b92506101008b015191506200027b6101208c01620001df565b90509295989b9194979a5092959850565b5f602082840312156200029d575f80fd5b620002a882620001df565b9392505050565b5f82620002ca57634e487b7160e01b5f52601260045260245ffd5b500690565b81810381811115620001bd57634e487b7160e01b5f52601160045260245ffd5b60805160a05160c05160e051610100516139276200036c5f395f8181610526015281816120e7015261224c01525f81816104a701528181612114015261227901525f81816103320152611aac01525f818161023c01528181610df301528181610e62015281816111f3015261146d01525f61270201526139275ff3fe608060405234801561000f575f80fd5b506004361061021e575f3560e01c806398f9e7571161012a578063d57763c3116100b4578063ecdea06f11610079578063ecdea06f1461060e578063eced552614610621578063ed8b2b3214610630578063ee82ac5e14610643578063f2fde38b14610662575f80fd5b8063d57763c3146105b7578063d8418403146105d7578063d8b4cf4e146105ea578063e102f9c1146105f3578063ea6fe03e14610606575f80fd5b8063b9b2a982116100fa578063b9b2a98214610548578063c3a079ed1461055b578063c5fba0b814610564578063c7785af014610578578063cda7d82c14610598575f80fd5b806398f9e757146104dc578063a3db99d9146104fc578063b01c27d11461050f578063b8b2459214610521575f80fd5b806373e149e6116101ab578063803d5f621161017b578063803d5f621461044d57806389a11f7a146104605780638cc63cdd1461047e5780638d5ca052146104a25780638da5cb5b146104c9575f80fd5b806373e149e61461040c578063778919071461041f5780637a9059a2146104325780637dce555014610445575f80fd5b8063505675dd116101f1578063505675dd1461031a5780635b7f415c1461032d5780635f4d0610146103665780636512d057146103cd5780636b994abb146103e0575f80fd5b80630a7aa2931461022257806313f6658714610237578063163de0c51461027b578063276d080e14610292575b5f80fd5b610235610230366004612b87565b610675565b005b61025e7f000000000000000000000000000000000000000000000000000000000000000081565b6040516001600160a01b0390911681526020015b60405180910390f35b61028460025481565b604051908152602001610272565b6102a56102a0366004612bae565b6106c8565b604051610272919081516001600160a01b031681526020808301516001600160401b039081169183019190915260408084015190830152606080840151908301526080808401519083015260a0838101519091169082015260c0918201516001600160501b0319169181019190915260e00190565b610235610328366004612cb2565b6107a3565b6103547f000000000000000000000000000000000000000000000000000000000000000081565b60405160ff9091168152602001610272565b610379610374366004612bae565b610a8f565b604080516001600160a01b0390981688526001600160401b039687166020890152870194909452606086019290925260808501529190911660a08301526001600160501b03191660c082015260e001610272565b6102846103db366004612bae565b610af8565b6103f36103ee366004612bae565b610b23565b6040516102729d9c9b9a99989796959493929190612d38565b61023561041a366004612ddb565b610bbf565b61023561042d366004612bae565b610c0b565b610235610440366004612e03565b610f68565b600554610284565b61023561045b366004612e1e565b610fb0565b61046961384081565b60405163ffffffff9091168152602001610272565b60035461049290600160a01b900460ff1681565b6040519015158152602001610272565b6102847f000000000000000000000000000000000000000000000000000000000000000081565b60035461025e906001600160a01b031681565b6104ef6104ea366004612ddb565b6112c5565b6040516102729190612eac565b61023561050a366004612ee4565b611345565b600354600160a01b900460ff16610492565b61025e7f000000000000000000000000000000000000000000000000000000000000000081565b610284610556366004612bae565b6114df565b61046961012c81565b60035461035490600160a81b900460ff1681565b61058b610586366004612f19565b6114fc565b6040516102729190612fd8565b6102846105a6366004612bae565b5f9081526001602052604090205490565b6105ca6105c5366004612bae565b611639565b604051610272919061313c565b6102356105e5366004613281565b61192a565b61028461271081565b61023561060136600461338a565b61209e565b600654610284565b61023561061c3660046134d7565b61219e565b610284670de0b6b3a764000081565b61023561063e366004612bae565b6123da565b610284610651366004612bae565b5f9081526020819052604090205490565b610235610670366004612ddb565b612408565b6003546001600160a01b031633146106a85760405162461bcd60e51b815260040161069f906135a5565b60405180910390fd5b6003805460ff909216600160a81b0260ff60a81b19909216919091179055565b6040805160e0810182525f80825260208201819052918101829052606081018290526080810182905260a0810182905260c081019190915260058281548110610713576107136135cb565b5f9182526020918290206040805160e08101825260059390930290910180546001600160a01b0381168452600160a01b90046001600160401b039081169484019490945260018101549183019190915260028101546060830152600381015460808301526004015491821660a0820152600160401b90910460501b6001600160501b03191660c082015292915050565b336001600160a01b0316600584815481106107c0576107c06135cb565b5f9182526020909120600590910201546001600160a01b0316146107f757604051630e7fea9d60e01b815260040160405180910390fd5b816001600160401b03165f036108205760405163a2ec3a5560e01b815260040160405180910390fd5b5f60058481548110610834576108346135cb565b905f5260205f20906005020190505f816002015490506108538361247d565b816001015481036108815760048201805467ffffffffffffffff19166001600160401b038616179055610a88565b805f036108a157604051632b5daf8960e01b815260040160405180910390fd5b6040805160e08101825283546001600160a01b0390811682526001600160401b0342811660208401908152938301858152606084018681525f608086018181528b851660a0880190815260048b01546001600160501b0319600160401b91829004605090811b9190911660c08b01908152600580546001810182558188529b519b027f036b6384b5eca791c62761152d0c79bb0604c104a5fb6f4eb0703f3154bb3db0810180549d518b16600160a01b026001600160e01b0319909e169c909b169b909b179b909b1790985594517f036b6384b5eca791c62761152d0c79bb0604c104a5fb6f4eb0703f3154bb3db189015592517f036b6384b5eca791c62761152d0c79bb0604c104a5fb6f4eb0703f3154bb3db2880155517f036b6384b5eca791c62761152d0c79bb0604c104a5fb6f4eb0703f3154bb3db387015590517f036b6384b5eca791c62761152d0c79bb0604c104a5fb6f4eb0703f3154bb3db49095018054965190941c9091026001600160f01b0319909516939091169290921792909217909155600383018054839290610a3d9084906135f3565b90915550505f6002830155600554610a88903390610a5d90600190613606565b6001600160a01b039091165f9081526007602090815260408220805460018101825590835291200155565b5050505050565b60058181548110610a9e575f80fd5b5f918252602090912060059091020180546001820154600283015460038401546004909401546001600160a01b03841695506001600160401b03600160a01b9094048416949293919291811690600160401b900460501b87565b5f60058281548110610b0c57610b0c6135cb565b905f5260205f209060050201600201549050919050565b60068181548110610b32575f80fd5b5f9182526020909120600c90910201805460018201546002830154600384015460048501546005860154600687015460078801546008909801546001600160a01b038089169a5063ffffffff600160a01b8a0416996001600160401b03600160c01b909a048a169989169860ff600160401b82041698600160481b9091049092169691959194919391928d565b6003546001600160a01b03163314610be95760405162461bcd60e51b815260040161069f906135a5565b600480546001600160a01b0319166001600160a01b0392909216919091179055565b5f60068281548110610c1f57610c1f6135cb565b5f9182526020909120600c90910201905060026001820154600160401b900460ff166004811115610c5257610c52612d04565b14610c70576040516320d55f6760e21b815260040160405180910390fd5b60018101546001600160401b0316421015610c9e57604051632d5c37f560e21b815260040160405180910390fd5b610cdc6040518060400160405280601881526020017f70726f706f736564426c6f636b486173682061637475616c000000000000000081525061258b565b610cfd610cf882600701545f9081526020819052604090205490565b6125ce565b610d3b6040518060400160405280601a81526020017f70726f706f736564426c6f636b4861736820657870656374656400000000000081525061258b565b610d4881600801546125ce565b600881015460078201545f9081526020819052604090205414610d7e5760405163c1f6fa5160e01b815260040160405180910390fd5b60018101805460ff60401b19166803000000000000000017905560035460068201545f9161271091610dba91600160a81b900460ff1690613619565b610dc49190613644565b6004805460405163a9059cbb60e01b81526001600160a01b0391821692810192909252602482018390529192507f00000000000000000000000000000000000000000000000000000000000000009091169063a9059cbb906044016020604051808303815f875af1158015610e3b573d5f803e3d5ffd5b505050506040513d601f19601f82011682018060405250810190610e5f9190613657565b507f00000000000000000000000000000000000000000000000000000000000000006001600160a01b031663a9059cbb8360010160099054906101000a90046001600160a01b0316838560060154610eb79190613606565b6040516001600160e01b031960e085901b1681526001600160a01b03909216600483015260248201526044016020604051808303815f875af1158015610eff573d5f803e3d5ffd5b505050506040513d601f19601f82011682018060405250810190610f239190613657565b5060038201546040805185815260208101929092527f12245c00d428a4c558061d2f69fe154a203bd2fb4a65b6c3e73e95ccdc735d18910160405180910390a1505050565b6003546001600160a01b03163314610f925760405162461bcd60e51b815260040161069f906135a5565b60038054911515600160a01b0260ff60a01b19909216919091179055565b600354600160a01b900460ff1615610fdb576040516348010c6560e11b815260040160405180910390fd5b816001600160401b03165f036110045760405163a2ec3a5560e01b815260040160405180910390fd5b335f90815260076020526040812054900361105057604080515f60208083018281528385018552835233825260078152929020815180519293919261104c9284920190612a2b565b5050505b6040805160e081018252338082526001600160401b0342811660208401908152938301878152606084018881525f6080860181815289851660a088019081526001600160501b03198a1660c0890190815260058054600181810183559582905299519981027f036b6384b5eca791c62761152d0c79bb0604c104a5fb6f4eb0703f3154bb3db0810180549c518a16600160a01b026001600160e01b0319909d166001600160a01b039c909c169b909b179b909b1790995594517f036b6384b5eca791c62761152d0c79bb0604c104a5fb6f4eb0703f3154bb3db18a015592517f036b6384b5eca791c62761152d0c79bb0604c104a5fb6f4eb0703f3154bb3db2890155517f036b6384b5eca791c62761152d0c79bb0604c104a5fb6f4eb0703f3154bb3db388015590517f036b6384b5eca791c62761152d0c79bb0604c104a5fb6f4eb0703f3154bb3db49096018054925160501c600160401b026001600160f01b0319909316969093169590951717905590546111d192610a5d91613606565b6040516323b872dd60e01b8152336004820152306024820152604481018490527f00000000000000000000000000000000000000000000000000000000000000006001600160a01b0316906323b872dd906064016020604051808303815f875af1158015611241573d5f803e3d5ffd5b505050506040513d601f19601f820116820180604052508101906112659190613657565b5060055433907ffd5ab8914e1dca355d18ae7fe50627d3afe042f323e1b0ae31f3a9d2cd19de379061129990600190613606565b60408051918252602082018790526001600160401b0386169082015260600160405180910390a2505050565b6040805160208082018352606082526001600160a01b0384165f908152600782528390208351815480840282018601865292810183815293949093919284929184919084018282801561133557602002820191905f5260205f20905b815481526020019060010190808311611321575b5050505050815250509050919050565b336001600160a01b031660058481548110611362576113626135cb565b5f9182526020909120600590910201546001600160a01b03161461139957604051630e7fea9d60e01b815260040160405180910390fd5b6113a28161247d565b5f600584815481106113b6576113b66135cb565b905f5260205f2090600502019050826001600160c01b03165f14806113e757508060020154836001600160c01b0316115b156114055760405163b4e3d41360e01b815260040160405180910390fd5b826001600160c01b0316816002015f8282546114219190613606565b92505081905550826001600160c01b0316816003015f82825461144491906135f3565b909155505060405163a9059cbb60e01b81523360048201526001600160c01b03841660248201527f00000000000000000000000000000000000000000000000000000000000000006001600160a01b03169063a9059cbb906044016020604051808303815f875af11580156114bb573d5f803e3d5ffd5b505050506040513d601f19601f82011682018060405250810190610a889190613657565b5f6114ec6107e083613672565b6114f69083613606565b92915050565b60408051610180810182525f8082526020820181905291810182905260608082018390526080820183905260a0820183905260c0820183905260e08201839052610100820183905261012082018190526101408201526101608101919091525f60068b8154811061156f5761156f6135cb565b905f5260205f2090600c020190506040518061018001604052808b81526020018a8152602001826002015481526020018260030154815260200182600901805490506001600160401b031681526020016115d16106518b63ffffffff166114df565b815263ffffffff8a16602082018190526040909101906115f1908a613685565b6001600160401b031681526020016116098989613685565b6001600160401b031681526020018681526020018581526020018415158152509150509998505050505050505050565b6116c260408051610200810182525f808252602082018190529181018290526060810182905290608082019081526020015f6001600160a01b031681526020015f80191681526020015f80191681526020015f81526020015f81526020015f81526020015f81526020015f80191681526020016060815260200160608152602001606081525090565b600682815481106116d5576116d56135cb565b5f9182526020918290206040805161020081018252600c90930290910180546001600160a01b038116845263ffffffff600160a01b820416948401949094526001600160401b03600160c01b909404841691830191909152600181015492831660608301529091608083019060ff600160401b90910416600481111561175d5761175d612d04565b600481111561176e5761176e612d04565b81526020016001820160099054906101000a90046001600160a01b03166001600160a01b03166001600160a01b03168152602001600282015481526020016003820154815260200160048201548152602001600582015481526020016006820154815260200160078201548152602001600882015481526020016009820180548060200260200160405190810160405280929190818152602001828054801561183457602002820191905f5260205f20905b815481526020019060010190808311611820575b50505050508152602001600a820180548060200260200160405190810160405280929190818152602001828054801561189457602002820191905f5260205f20905b81546001600160c01b03168152600190910190602001808311611876575b50505050508152602001600b820180548060200260200160405190810160405280929190818152602001828054801561133557602002820191905f5260205f20905f905b82829054906101000a90046001600160401b03166001600160401b0316815260200190600801906020826007010492830192600103820291508084116118d85790505050505050815250509050919050565b8451158061193a57508351855114155b156119585760405163744bba7b60e01b815260040160405180910390fd5b5f5b84518110156119b057848181518110611975576119756135cb565b60200260200101516001600160c01b03165f036119a857604051633143436b60e11b81526004810182905260240161069f565b60010161195a565b505f805f87516001600160401b038111156119cd576119cd612be0565b6040519080825280602002602001820160405280156119f6578160200160208202803683370190505b5090505f5b8751811015611b22575f60058a8381518110611a1957611a196135cb565b602002602001015181548110611a3157611a316135cb565b5f91825260209091206004600590920201015489516001600160401b039091169150899083908110611a6557611a656135cb565b60200260200101516001600160c01b031685611a8191906135f3565b94505f611ad08a8481518110611a9957611a996135cb565b60200260200101516001600160c01b03167f0000000000000000000000000000000000000000000000000000000000000000612613565b90505f611add8383613644565b9050611ae981876135f3565b955080858581518110611afe57611afe6135cb565b6001600160401b0392909216602092830291909101909101525050506001016119fb565b50611b2c8461247d565b5f805b8951811015611cad576002838281518110611b4c57611b4c6135cb565b602002602001015160058c8481518110611b6857611b686135cb565b602002602001015181548110611b8057611b806135cb565b5f91825260209182902060046005909202010154604080516001600160401b03909416928401929092526001600160501b0319600160401b90910460501b16908201526060810184905260800160408051601f1981840301815290829052611be7916136ce565b602060405180830381855afa158015611c02573d5f803e3d5ffd5b5050506040513d601f19601f82011682018060405250810190611c2591906136e9565b915060058a8281518110611c3b57611c3b6135cb565b602002602001015181548110611c5357611c536135cb565b905f5260205f20906005020160020154898281518110611c7557611c756135cb565b60200260200101516001600160c01b03161115611ca557604051634323a55560e01b815260040160405180910390fd5b600101611b2f565b50600654604080516001600160a01b038a1660208083019190915242828401524660608301526080820185905260a0808301949094528251808303909401845260c090910190915281519101206003545f9061271090611d1790600160a81b900460ff1688613619565b611d219190613644565b905060066040518061020001604052808e6001600160a01b031681526020015f63ffffffff168152602001426001600160401b031681526020015f6001600160401b0316815260200160016004811115611d7d57611d7d612d04565b81526020018b6001600160a01b031681526020018581526020018481526020018a81526020018381526020018881526020015f81526020015f801b81526020018d81526020018c815260200186815250908060018154018082558091505060019003905f5260205f2090600c02015f909190919091505f820151815f015f6101000a8154816001600160a01b0302191690836001600160a01b031602179055506020820151815f0160146101000a81548163ffffffff021916908363ffffffff1602179055506040820151815f0160186101000a8154816001600160401b0302191690836001600160401b031602179055506060820151816001015f6101000a8154816001600160401b0302191690836001600160401b0316021790555060808201518160010160086101000a81548160ff02191690836004811115611ec557611ec5612d04565b021790555060a08201516001820180546001600160a01b03909216600160481b027fffffff0000000000000000000000000000000000000000ffffffffffffffffff90921691909117905560c0820151600282015560e08201516003820155610100820151600482015561012082015160058201556101408201516006820155610160820151600782015561018082015160088201556101a08201518051611f77916009840191602090910190612a2b565b506101c08201518051611f9491600a840191602090910190612a74565b506101e08201518051611fb191600b840191602090910190612ac7565b5050505f5b8b51811015612038578a8181518110611fd157611fd16135cb565b60200260200101516001600160c01b031660058d8381518110611ff657611ff66135cb565b60200260200101518154811061200e5761200e6135cb565b905f5260205f2090600502016002015f82825461202b9190613606565b9091555050600101611fb6565b508b6001600160a01b03167f5956135c9be999a50f7ff4ea49ddf1485bc321ab333dc7a0877633eeb4752893600161206f60065490565b6120799190613606565b60408051918252602082018690520160405180910390a2505050505050505050505050565b5f6120b08180808b8b8b8b8b856114fc565b6040516020016120c09190612fd8565b60408051601f198184030181529082905263020a49e360e51b825291506001600160a01b037f000000000000000000000000000000000000000000000000000000000000000016906341493c6090612142907f00000000000000000000000000000000000000000000000000000000000000009085908890889060040161372b565b5f6040518083038186803b158015612158575f80fd5b505afa15801561216a573d5f803e3d5ffd5b505050506121938863ffffffff16886001600160401b0316886001600160401b0316888861264e565b505050505050505050565b5f60068a815481106121b2576121b26135cb565b5f9182526020909120600c909102019050600180820154600160401b900460ff1660048111156121e4576121e4612d04565b1461220257604051639085371960e01b815260040160405180910390fd5b5f6122158b8b8b8b8b8b8b8b60016114fc565b6040516020016122259190612fd8565b60408051601f198184030181529082905263020a49e360e51b825291506001600160a01b037f000000000000000000000000000000000000000000000000000000000000000016906341493c60906122a5907f00000000000000000000000000000000000000000000000000000000000000009085908890600401613776565b5f6040518083038186803b1580156122bb575f80fd5b505afa1580156122cd573d5f803e3d5ffd5b505050506122f68863ffffffff16886001600160401b0316886001600160401b0316888861264e565b5060018201805460ff60401b19166802000000000000000017905561231d61012c426137a0565b60018301805467ffffffffffffffff19166001600160401b03928316179055871660078301558461235463ffffffff8a1689613685565b6001600160401b03168151811061236d5761236d6135cb565b60200260200101518260080181905550336001600160a01b03167f8bcdab581a6176f792fa96b0c57d32273bcd8621b0548c15a9c6379dc246e26c8c84600301546040516123c5929190918252602082015260400190565b60405180910390a25050505050505050505050565b5f818152602081905260409020546124055760405163fa4a5e4560e01b815260040160405180910390fd5b50565b6003546001600160a01b031633146124325760405162461bcd60e51b815260040161069f906135a5565b600380546001600160a01b0319166001600160a01b03831690811790915560405133907f8be0079c531659141344cd1fd0a4f28419497f9722a3daafe3b4186f6b6457e0905f90a350565b61248681612915565b5f5b8151811015612587575f60068383815181106124a6576124a66135cb565b6020026020010151815481106124be576124be6135cb565b905f5260205f2090600c020190505f5b6009820154811015612565575f60058360090183815481106124f2576124f26135cb565b905f5260205f2001548154811061250b5761250b6135cb565b905f5260205f209060050201905082600a01828154811061252e5761252e6135cb565b5f9182526020822001546002830180546001600160c01b039092169290916125579084906135f3565b9091555050506001016124ce565b506001908101805460ff60401b19166804000000000000000017905501612488565b5050565b6124058160405160240161259f91906137c0565b60408051601f198184030181529190526020810180516001600160e01b031663104c13eb60e21b179052612a0b565b612405816040516024016125e491815260200190565b60408051601f198184030181529190526020810180516001600160e01b03166327b7cf8560e01b179052612a0b565b5f60128260ff1610156126475761262b8260126137d2565b61263690600a6138cb565b6126409084613619565b90506114f6565b5090919050565b6002545f8181526001602052604081205490919086881015806126715750858710155b1561268f5760405163f198a75d60e01b815260040160405180910390fd5b5f888152602081905260409020546126ba5760405163575f3da360e01b815260040160405180910390fd5b835185511415806126e057506126d08887613606565b6126db9060016135f3565b855114155b156126fe5760405163d4d34e9960e01b815260040160405180910390fd5b60ff7f00000000000000000000000000000000000000000000000000000000000000001661272c8888613606565b101561274b576040516341305f6360e01b815260040160405180910390fd5b5f6001865161275a9190613606565b90505f6127678a8a613606565b905086818151811061277b5761277b6135cb565b60200260200101515f808b81526020019081526020015f2054036127a5575f94505050505061290c565b828683815181106127b8576127b86135cb565b602002602001015111156128f3575f6127d28b60016135f3565b90505b88811161285957876127e78c83613606565b815181106127f7576127f76135cb565b6020908102919091018101515f838152918290526040909120558661281c8c83613606565b8151811061282c5761282c6135cb565b6020908102919091018101515f838152600190925260409091205580612851816138d9565b9150506127d5565b50838810156128a5575f61286e8960016135f3565b90505b8481116128a3575f8181526020818152604080832083905560019091528120558061289b816138d9565b915050612871565b505b60028890558651604080518c815260208101929092527fb68477c768bbb33b4f238a3dfd17c33c499268c59cd042b7936bbc23dc2bdd34910160405180910390a1600194505050505061290c565b604051631f17929160e21b815260040160405180910390fd5b95945050505050565b5f5b81518110156125875761384063ffffffff16600683838151811061293d5761293d6135cb565b602002602001015181548110612955576129556135cb565b5f9182526020909120600c909102015461297f90600160c01b90046001600160401b031642613606565b10806129e557506001600683838151811061299c5761299c6135cb565b6020026020010151815481106129b4576129b46135cb565b905f5260205f2090600c020160010160089054906101000a900460ff1660048111156129e2576129e2612d04565b14155b15612a03576040516326349d6b60e01b815260040160405180910390fd5b600101612917565b80516a636f6e736f6c652e6c6f67602083015f808483855afa5050505050565b828054828255905f5260205f20908101928215612a64579160200282015b82811115612a64578251825591602001919060010190612a49565b50612a70929150612b73565b5090565b828054828255905f5260205f20908101928215612a64579160200282015b82811115612a6457825182546001600160c01b0319166001600160c01b03909116178255602090920191600190910190612a92565b828054828255905f5260205f2090600301600490048101928215612a64579160200282015f5b83821115612b3757835183826101000a8154816001600160401b0302191690836001600160401b031602179055509260200192600801602081600701049283019260010302612aed565b8015612b6a5782816101000a8154906001600160401b030219169055600801602081600701049283019260010302612b37565b5050612a709291505b5b80821115612a70575f8155600101612b74565b5f60208284031215612b97575f80fd5b813560ff81168114612ba7575f80fd5b9392505050565b5f60208284031215612bbe575f80fd5b5035919050565b80356001600160401b0381168114612bdb575f80fd5b919050565b634e487b7160e01b5f52604160045260245ffd5b604051601f8201601f191681016001600160401b0381118282101715612c1c57612c1c612be0565b604052919050565b5f6001600160401b03821115612c3c57612c3c612be0565b5060051b60200190565b5f82601f830112612c55575f80fd5b81356020612c6a612c6583612c24565b612bf4565b8083825260208201915060208460051b870101935086841115612c8b575f80fd5b602086015b84811015612ca75780358352918301918301612c90565b509695505050505050565b5f805f60608486031215612cc4575f80fd5b83359250612cd460208501612bc5565b915060408401356001600160401b03811115612cee575f80fd5b612cfa86828701612c46565b9150509250925092565b634e487b7160e01b5f52602160045260245ffd5b60058110612d3457634e487b7160e01b5f52602160045260245ffd5b9052565b6001600160a01b038e16815263ffffffff8d1660208201526001600160401b038c811660408301528b1660608201526101a08101612d79608083018c612d18565b6001600160a01b038a1660a083015260c082019890985260e0810196909652610100860194909452610120850192909252610140840152610160830152610180909101529695505050505050565b6001600160a01b0381168114612405575f80fd5b5f60208284031215612deb575f80fd5b8135612ba781612dc7565b8015158114612405575f80fd5b5f60208284031215612e13575f80fd5b8135612ba781612df6565b5f805f60608486031215612e30575f80fd5b83359250612e4060208501612bc5565b915060408401356001600160501b031981168114612e5c575f80fd5b809150509250925092565b8035612bdb81612dc7565b5f815180845260208085019450602084015f5b83811015612ea157815187529582019590820190600101612e85565b509495945050505050565b602081525f8251602080840152612ec66040840182612e72565b949350505050565b80356001600160c01b0381168114612bdb575f80fd5b5f805f60608486031215612ef6575f80fd5b83359250612cd460208501612ece565b803563ffffffff81168114612bdb575f80fd5b5f805f805f805f805f6101208a8c031215612f32575f80fd5b8935985060208a0135975060408a01359650612f5060608b01612f06565b9550612f5e60808b01612bc5565b9450612f6c60a08b01612bc5565b935060c08a01356001600160401b0380821115612f87575f80fd5b612f938d838e01612c46565b945060e08c0135915080821115612fa8575f80fd5b50612fb58c828d01612c46565b9250506101008a0135612fc781612df6565b809150509295985092959850929598565b60208152815160208201526020820151604082015260408201516060820152606082015160808201525f608083015161301c60a08401826001600160401b03169052565b5060a083015160c083015260c083015161304160e08401826001600160401b03169052565b5060e083015161010061305e818501836001600160401b03169052565b840151905061012061307a848201836001600160401b03169052565b80850151915050610180610140818186015261309a6101a0860184612e72565b9250808601519050610160601f1986850301818701526130ba8483612e72565b96015115159190940152509192915050565b5f815180845260208085019450602084015f5b83811015612ea15781516001600160c01b0316875295820195908201906001016130df565b5f815180845260208085019450602084015f5b83811015612ea15781516001600160401b031687529582019590820190600101613117565b602081526131566020820183516001600160a01b03169052565b5f602083015161316e604084018263ffffffff169052565b5060408301516001600160401b03811660608401525060608301516001600160401b03811660808401525060808301516131ab60a0840182612d18565b5060a08301516001600160a01b03811660c08401525060c083015160e08381019190915283015161010080840191909152830151610120808401919091528301516101408084019190915283015161016080840191909152830151610180808401919091528301516101a0808401919091528301516102006101c080850182905261323a610220860184612e72565b9250808601519050601f196101e081878603018188015261325b85846130cc565b9088015187820390920184880152935090506132778382613104565b9695505050505050565b5f805f805f8060c08789031215613296575f80fd5b86356132a181612dc7565b95506020878101356001600160401b03808211156132bd575f80fd5b6132c98b838c01612c46565b975060408a01359150808211156132de575f80fd5b818a0191508a601f8301126132f1575f80fd5b81356132ff612c6582612c24565b81815260059190911b8301840190848101908d83111561331d575f80fd5b938501935b828510156133425761333385612ece565b82529385019390850190613322565b985061335391505060608b01612e67565b955060808a0135945060a08a013592508083111561336f575f80fd5b505061337d89828a01612c46565b9150509295509295509295565b5f805f805f805f60c0888a0312156133a0575f80fd5b6133a988612f06565b96506133b760208901612bc5565b95506133c560408901612bc5565b945060608801356001600160401b03808211156133e0575f80fd5b6133ec8b838c01612c46565b955060808a0135915080821115613401575f80fd5b61340d8b838c01612c46565b945060a08a0135915080821115613422575f80fd5b818a0191508a601f830112613435575f80fd5b813581811115613443575f80fd5b8b6020828501011115613454575f80fd5b60208301945080935050505092959891949750929550565b5f82601f83011261347b575f80fd5b81356001600160401b0381111561349457613494612be0565b6134a7601f8201601f1916602001612bf4565b8181528460208386010111156134bb575f80fd5b816020850160208301375f918101602001919091529392505050565b5f805f805f805f805f6101208a8c0312156134f0575f80fd5b8935985060208a0135975060408a0135965061350e60608b01612f06565b955061351c60808b01612bc5565b945061352a60a08b01612bc5565b935060c08a01356001600160401b0380821115613545575f80fd5b6135518d838e01612c46565b945060e08c0135915080821115613566575f80fd5b6135728d838e01612c46565b93506101008c0135915080821115613588575f80fd5b506135958c828d0161346c565b9150509295985092959850929598565b6020808252600c908201526b15539055551213d49256915160a21b604082015260600190565b634e487b7160e01b5f52603260045260245ffd5b634e487b7160e01b5f52601160045260245ffd5b808201808211156114f6576114f66135df565b818103818111156114f6576114f66135df565b80820281158282048414176114f6576114f66135df565b634e487b7160e01b5f52601260045260245ffd5b5f8261365257613652613630565b500490565b5f60208284031215613667575f80fd5b8151612ba781612df6565b5f8261368057613680613630565b500690565b6001600160401b038281168282160390808211156136a5576136a56135df565b5092915050565b5f5b838110156136c65781810151838201526020016136ae565b50505f910152565b5f82516136df8184602087016136ac565b9190910192915050565b5f602082840312156136f9575f80fd5b5051919050565b5f81518084526137178160208601602086016136ac565b601f01601f19169290920160200192915050565b848152606060208201525f6137436060830186613700565b8281036040840152838152838560208301375f602085830101526020601f19601f86011682010191505095945050505050565b838152606060208201525f61378e6060830185613700565b82810360408401526132778185613700565b6001600160401b038181168382160190808211156136a5576136a56135df565b602081525f612ba76020830184613700565b60ff82811682821603908111156114f6576114f66135df565b600181815b8085111561382557815f190482111561380b5761380b6135df565b8085161561381857918102915b93841c93908002906137f0565b509250929050565b5f8261383b575060016114f6565b8161384757505f6114f6565b816001811461385d576002811461386757613883565b60019150506114f6565b60ff841115613878576138786135df565b50506001821b6114f6565b5060208310610133831016604e8410600b84101617156138a6575081810a6114f6565b6138b083836137eb565b805f19048211156138c3576138c36135df565b029392505050565b5f612ba760ff84168361382d565b5f600182016138ea576138ea6135df565b506001019056fea2646970667358221220b45512bb8a2357968bb8361f6a5d7276ba63501ad006285b20af0144a0f7d22364736f6c63430008180033","linkReferences":{}},"methodIdentifiers":{"BP_SCALE()":"d8b4cf4e","CHALLENGE_PERIOD()":"c3a079ed","CIRCUIT_VERIFICATION_KEY()":"8d5ca052","DEPOSIT_TOKEN()":"13f66587","RESERVATION_LOCKUP_PERIOD()":"89a11f7a","SCALE()":"eced5526","TOKEN_DECIMALS()":"5b7f415c","VERIFIER_CONTRACT()":"b8b24592","buildPublicInputs(uint256,bytes32,bytes32,uint32,uint64,uint64,bytes32[],uint256[],bool)":"c7785af0","calculateRetargetHeight(uint256)":"b9b2a982","currentHeight()":"163de0c5","depositLiquidity(uint256,uint64,bytes22)":"803d5f62","depositVaults(uint256)":"5f4d0610","getAreDepositsPaused()":"b01c27d1","getBlockHash(uint256)":"ee82ac5e","getChainwork(uint256)":"cda7d82c","getDepositVault(uint256)":"276d080e","getDepositVaultUnreservedBalance(uint256)":"6512d057","getDepositVaultsLength()":"7dce5550","getLiquidityProvider(address)":"98f9e757","getReservation(uint256)":"d57763c3","getReservationLength()":"ea6fe03e","isDepositNewLiquidityPaused()":"8cc63cdd","owner()":"8da5cb5b","protocolFeeBP()":"c5fba0b8","proveBlocks(uint32,uint64,uint64,bytes32[],uint256[],bytes)":"e102f9c1","releaseLiquidity(uint256)":"77891907","reserveLiquidity(address,uint256[],uint192[],address,uint256,uint256[])":"d8418403","submitSwapProof(uint256,bytes32,bytes32,uint32,uint64,uint64,bytes32[],uint256[],bytes)":"ecdea06f","swapReservations(uint256)":"6b994abb","transferOwnership(address)":"f2fde38b","updateExchangeRate(uint256,uint64,uint256[])":"505675dd","updateFeeRouter(address)":"73e149e6","updateNewLiquidityDepositsPaused(bool)":"7a9059a2","updateProtocolFee(uint8)":"0a7aa293","validateBlockExists(uint256)":"ed8b2b32","withdrawLiquidity(uint256,uint192,uint256[])":"a3db99d9"},"storageLayout":{"storage":[{"astId":47998,"contract":"src/RiftExchange.sol:RiftExchange","label":"blockchain","offset":0,"slot":"0","type":"t_mapping(t_uint256,t_bytes32)"},{"astId":48002,"contract":"src/RiftExchange.sol:RiftExchange","label":"chainworks","offset":0,"slot":"1","type":"t_mapping(t_uint256,t_uint256)"},{"astId":48004,"contract":"src/RiftExchange.sol:RiftExchange","label":"currentHeight","offset":0,"slot":"2","type":"t_uint256"},{"astId":46637,"contract":"src/RiftExchange.sol:RiftExchange","label":"owner","offset":0,"slot":"3","type":"t_address"},{"astId":49399,"contract":"src/RiftExchange.sol:RiftExchange","label":"isDepositNewLiquidityPaused","offset":20,"slot":"3","type":"t_bool"},{"astId":49402,"contract":"src/RiftExchange.sol:RiftExchange","label":"protocolFeeBP","offset":21,"slot":"3","type":"t_uint8"},{"astId":49404,"contract":"src/RiftExchange.sol:RiftExchange","label":"feeRouterAddress","offset":0,"slot":"4","type":"t_address"},{"astId":49408,"contract":"src/RiftExchange.sol:RiftExchange","label":"depositVaults","offset":0,"slot":"5","type":"t_array(t_struct(DepositVault)49347_storage)dyn_storage"},{"astId":49412,"contract":"src/RiftExchange.sol:RiftExchange","label":"swapReservations","offset":0,"slot":"6","type":"t_array(t_struct(SwapReservation)49328_storage)dyn_storage"},{"astId":49417,"contract":"src/RiftExchange.sol:RiftExchange","label":"liquidityProviders","offset":0,"slot":"7","type":"t_mapping(t_address,t_struct(LiquidityProvider)49332_storage)"}],"types":{"t_address":{"encoding":"inplace","label":"address","numberOfBytes":"20"},"t_array(t_struct(DepositVault)49347_storage)dyn_storage":{"encoding":"dynamic_array","label":"struct RiftExchange.DepositVault[]","numberOfBytes":"32","base":"t_struct(DepositVault)49347_storage"},"t_array(t_struct(SwapReservation)49328_storage)dyn_storage":{"encoding":"dynamic_array","label":"struct RiftExchange.SwapReservation[]","numberOfBytes":"32","base":"t_struct(SwapReservation)49328_storage"},"t_array(t_uint192)dyn_storage":{"encoding":"dynamic_array","label":"uint192[]","numberOfBytes":"32","base":"t_uint192"},"t_array(t_uint256)dyn_storage":{"encoding":"dynamic_array","label":"uint256[]","numberOfBytes":"32","base":"t_uint256"},"t_array(t_uint64)dyn_storage":{"encoding":"dynamic_array","label":"uint64[]","numberOfBytes":"32","base":"t_uint64"},"t_bool":{"encoding":"inplace","label":"bool","numberOfBytes":"1"},"t_bytes22":{"encoding":"inplace","label":"bytes22","numberOfBytes":"22"},"t_bytes32":{"encoding":"inplace","label":"bytes32","numberOfBytes":"32"},"t_enum(ReservationState)49291":{"encoding":"inplace","label":"enum RiftExchange.ReservationState","numberOfBytes":"1"},"t_mapping(t_address,t_struct(LiquidityProvider)49332_storage)":{"encoding":"mapping","key":"t_address","label":"mapping(address => struct RiftExchange.LiquidityProvider)","numberOfBytes":"32","value":"t_struct(LiquidityProvider)49332_storage"},"t_mapping(t_uint256,t_bytes32)":{"encoding":"mapping","key":"t_uint256","label":"mapping(uint256 => bytes32)","numberOfBytes":"32","value":"t_bytes32"},"t_mapping(t_uint256,t_uint256)":{"encoding":"mapping","key":"t_uint256","label":"mapping(uint256 => uint256)","numberOfBytes":"32","value":"t_uint256"},"t_struct(DepositVault)49347_storage":{"encoding":"inplace","label":"struct RiftExchange.DepositVault","numberOfBytes":"160","members":[{"astId":49334,"contract":"src/RiftExchange.sol:RiftExchange","label":"owner","offset":0,"slot":"0","type":"t_address"},{"astId":49336,"contract":"src/RiftExchange.sol:RiftExchange","label":"depositTimestamp","offset":20,"slot":"0","type":"t_uint64"},{"astId":49338,"contract":"src/RiftExchange.sol:RiftExchange","label":"initialBalance","offset":0,"slot":"1","type":"t_uint256"},{"astId":49340,"contract":"src/RiftExchange.sol:RiftExchange","label":"unreservedBalance","offset":0,"slot":"2","type":"t_uint256"},{"astId":49342,"contract":"src/RiftExchange.sol:RiftExchange","label":"withdrawnAmount","offset":0,"slot":"3","type":"t_uint256"},{"astId":49344,"contract":"src/RiftExchange.sol:RiftExchange","label":"exchangeRate","offset":0,"slot":"4","type":"t_uint64"},{"astId":49346,"contract":"src/RiftExchange.sol:RiftExchange","label":"btcPayoutLockingScript","offset":8,"slot":"4","type":"t_bytes22"}]},"t_struct(LiquidityProvider)49332_storage":{"encoding":"inplace","label":"struct RiftExchange.LiquidityProvider","numberOfBytes":"32","members":[{"astId":49331,"contract":"src/RiftExchange.sol:RiftExchange","label":"depositVaultIndexes","offset":0,"slot":"0","type":"t_array(t_uint256)dyn_storage"}]},"t_struct(SwapReservation)49328_storage":{"encoding":"inplace","label":"struct RiftExchange.SwapReservation","numberOfBytes":"384","members":[{"astId":49293,"contract":"src/RiftExchange.sol:RiftExchange","label":"owner","offset":0,"slot":"0","type":"t_address"},{"astId":49295,"contract":"src/RiftExchange.sol:RiftExchange","label":"confirmationBlockHeight","offset":20,"slot":"0","type":"t_uint32"},{"astId":49297,"contract":"src/RiftExchange.sol:RiftExchange","label":"reservationTimestamp","offset":24,"slot":"0","type":"t_uint64"},{"astId":49299,"contract":"src/RiftExchange.sol:RiftExchange","label":"liquidityUnlockedTimestamp","offset":0,"slot":"1","type":"t_uint64"},{"astId":49302,"contract":"src/RiftExchange.sol:RiftExchange","label":"state","offset":8,"slot":"1","type":"t_enum(ReservationState)49291"},{"astId":49304,"contract":"src/RiftExchange.sol:RiftExchange","label":"ethPayoutAddress","offset":9,"slot":"1","type":"t_address"},{"astId":49306,"contract":"src/RiftExchange.sol:RiftExchange","label":"lpReservationHash","offset":0,"slot":"2","type":"t_bytes32"},{"astId":49308,"contract":"src/RiftExchange.sol:RiftExchange","label":"nonce","offset":0,"slot":"3","type":"t_bytes32"},{"astId":49310,"contract":"src/RiftExchange.sol:RiftExchange","label":"totalSatsInputIncludingProxyFee","offset":0,"slot":"4","type":"t_uint256"},{"astId":49312,"contract":"src/RiftExchange.sol:RiftExchange","label":"protocolFee","offset":0,"slot":"5","type":"t_uint256"},{"astId":49314,"contract":"src/RiftExchange.sol:RiftExchange","label":"totalSwapOutputAmount","offset":0,"slot":"6","type":"t_uint256"},{"astId":49316,"contract":"src/RiftExchange.sol:RiftExchange","label":"proposedBlockHeight","offset":0,"slot":"7","type":"t_uint256"},{"astId":49318,"contract":"src/RiftExchange.sol:RiftExchange","label":"proposedBlockHash","offset":0,"slot":"8","type":"t_bytes32"},{"astId":49321,"contract":"src/RiftExchange.sol:RiftExchange","label":"vaultIndexes","offset":0,"slot":"9","type":"t_array(t_uint256)dyn_storage"},{"astId":49324,"contract":"src/RiftExchange.sol:RiftExchange","label":"amountsToReserve","offset":0,"slot":"10","type":"t_array(t_uint192)dyn_storage"},{"astId":49327,"contract":"src/RiftExchange.sol:RiftExchange","label":"expectedSatsOutput","offset":0,"slot":"11","type":"t_array(t_uint64)dyn_storage"}]},"t_uint192":{"encoding":"inplace","label":"uint192","numberOfBytes":"24"},"t_uint256":{"encoding":"inplace","label":"uint256","numberOfBytes":"32"},"t_uint32":{"encoding":"inplace","label":"uint32","numberOfBytes":"4"},"t_uint64":{"encoding":"inplace","label":"uint64","numberOfBytes":"8"},"t_uint8":{"encoding":"inplace","label":"uint8","numberOfBytes":"1"}}},"id":32}