{"abi":[{"type":"constructor","inputs":[{"name":"initialCheckpointHeight","type":"uint256","internalType":"uint256"},{"name":"initialBlockHash","type":"bytes32","internalType":"bytes32"},{"name":"initialRetargetBlockHash","type":"bytes32","internalType":"bytes32"},{"name":"initialChainwork","type":"uint256","internalType":"uint256"},{"name":"verifierContractAddress","type":"address","internalType":"address"},{"name":"depositTokenAddress","type":"address","internalType":"address"},{"name":"initialFeeRouterAddress","type":"address","internalType":"address"},{"name":"owner","type":"address","internalType":"address"},{"name":"circuitVerificationKey","type":"bytes32","internalType":"bytes32"},{"name":"initialPermissionedHypernodes","type":"address[]","internalType":"address[]"}],"stateMutability":"nonpayable"},{"type":"function","name":"BP_SCALE","inputs":[],"outputs":[{"name":"","type":"uint256","internalType":"uint256"}],"stateMutability":"view"},{"type":"function","name":"CHALLENGE_PERIOD","inputs":[],"outputs":[{"name":"","type":"uint32","internalType":"uint32"}],"stateMutability":"view"},{"type":"function","name":"CIRCUIT_VERIFICATION_KEY","inputs":[],"outputs":[{"name":"","type":"bytes32","internalType":"bytes32"}],"stateMutability":"view"},{"type":"function","name":"DEPOSIT_TOKEN","inputs":[],"outputs":[{"name":"","type":"address","internalType":"contract IERC20"}],"stateMutability":"view"},{"type":"function","name":"MINIMUM_CONFIRMATION_DELTA","inputs":[],"outputs":[{"name":"","type":"uint8","internalType":"uint8"}],"stateMutability":"view"},{"type":"function","name":"RESERVATION_LOCKUP_PERIOD","inputs":[],"outputs":[{"name":"","type":"uint32","internalType":"uint32"}],"stateMutability":"view"},{"type":"function","name":"SCALE","inputs":[],"outputs":[{"name":"","type":"uint256","internalType":"uint256"}],"stateMutability":"view"},{"type":"function","name":"TOKEN_DECIMALS","inputs":[],"outputs":[{"name":"","type":"uint8","internalType":"uint8"}],"stateMutability":"view"},{"type":"function","name":"VERIFIER_CONTRACT","inputs":[],"outputs":[{"name":"","type":"address","internalType":"contract ISP1Verifier"}],"stateMutability":"view"},{"type":"function","name":"addPermissionedHypernode","inputs":[{"name":"hypernode","type":"address","internalType":"address"}],"outputs":[],"stateMutability":"nonpayable"},{"type":"function","name":"buildPublicInputs","inputs":[{"name":"swapReservationIndex","type":"uint256","internalType":"uint256"},{"name":"bitcoinTxId","type":"bytes32","internalType":"bytes32"},{"name":"merkleRoot","type":"bytes32","internalType":"bytes32"},{"name":"safeBlockHeight","type":"uint32","internalType":"uint32"},{"name":"proposedBlockHeight","type":"uint64","internalType":"uint64"},{"name":"confirmationBlockHeight","type":"uint64","internalType":"uint64"},{"name":"blockHashes","type":"bytes32[]","internalType":"bytes32[]"},{"name":"blockChainworks","type":"uint256[]","internalType":"uint256[]"},{"name":"isTransactionProof","type":"bool","internalType":"bool"}],"outputs":[{"name":"","type":"tuple","internalType":"struct RiftExchange.ProofPublicInputs","components":[{"name":"natural_txid","type":"bytes32","internalType":"bytes32"},{"name":"merkle_root","type":"bytes32","internalType":"bytes32"},{"name":"lp_reservation_hash","type":"bytes32","internalType":"bytes32"},{"name":"order_nonce","type":"bytes32","internalType":"bytes32"},{"name":"lp_count","type":"uint64","internalType":"uint64"},{"name":"retarget_block_hash","type":"bytes32","internalType":"bytes32"},{"name":"safe_block_height","type":"uint64","internalType":"uint64"},{"name":"safe_block_height_delta","type":"uint64","internalType":"uint64"},{"name":"confirmation_block_height_delta","type":"uint64","internalType":"uint64"},{"name":"block_hashes","type":"bytes32[]","internalType":"bytes32[]"},{"name":"block_chainworks","type":"uint256[]","internalType":"uint256[]"},{"name":"is_transaction_proof","type":"bool","internalType":"bool"}]}],"stateMutability":"view"},{"type":"function","name":"calculateRetargetHeight","inputs":[{"name":"blockHeight","type":"uint256","internalType":"uint256"}],"outputs":[{"name":"","type":"uint256","internalType":"uint256"}],"stateMutability":"pure"},{"type":"function","name":"currentHeight","inputs":[],"outputs":[{"name":"","type":"uint256","internalType":"uint256"}],"stateMutability":"view"},{"type":"function","name":"depositLiquidity","inputs":[{"name":"depositAmount","type":"uint256","internalType":"uint256"},{"name":"exchangeRate","type":"uint64","internalType":"uint64"},{"name":"btcPayoutLockingScript","type":"bytes22","internalType":"bytes22"}],"outputs":[],"stateMutability":"nonpayable"},{"type":"function","name":"depositVaults","inputs":[{"name":"","type":"uint256","internalType":"uint256"}],"outputs":[{"name":"owner","type":"address","internalType":"address"},{"name":"depositTimestamp","type":"uint64","internalType":"uint64"},{"name":"initialBalance","type":"uint256","internalType":"uint256"},{"name":"unreservedBalance","type":"uint256","internalType":"uint256"},{"name":"withdrawnAmount","type":"uint256","internalType":"uint256"},{"name":"exchangeRate","type":"uint64","internalType":"uint64"},{"name":"btcPayoutLockingScript","type":"bytes22","internalType":"bytes22"}],"stateMutability":"view"},{"type":"function","name":"getAreDepositsPaused","inputs":[],"outputs":[{"name":"","type":"bool","internalType":"bool"}],"stateMutability":"view"},{"type":"function","name":"getBlockHash","inputs":[{"name":"blockHeight","type":"uint256","internalType":"uint256"}],"outputs":[{"name":"","type":"bytes32","internalType":"bytes32"}],"stateMutability":"view"},{"type":"function","name":"getChainwork","inputs":[{"name":"blockHeight","type":"uint256","internalType":"uint256"}],"outputs":[{"name":"","type":"uint256","internalType":"uint256"}],"stateMutability":"view"},{"type":"function","name":"getDepositVault","inputs":[{"name":"depositIndex","type":"uint256","internalType":"uint256"}],"outputs":[{"name":"","type":"tuple","internalType":"struct RiftExchange.DepositVault","components":[{"name":"owner","type":"address","internalType":"address"},{"name":"depositTimestamp","type":"uint64","internalType":"uint64"},{"name":"initialBalance","type":"uint256","internalType":"uint256"},{"name":"unreservedBalance","type":"uint256","internalType":"uint256"},{"name":"withdrawnAmount","type":"uint256","internalType":"uint256"},{"name":"exchangeRate","type":"uint64","internalType":"uint64"},{"name":"btcPayoutLockingScript","type":"bytes22","internalType":"bytes22"}]}],"stateMutability":"view"},{"type":"function","name":"getDepositVaultUnreservedBalance","inputs":[{"name":"depositIndex","type":"uint256","internalType":"uint256"}],"outputs":[{"name":"","type":"uint256","internalType":"uint256"}],"stateMutability":"view"},{"type":"function","name":"getDepositVaultsLength","inputs":[],"outputs":[{"name":"","type":"uint256","internalType":"uint256"}],"stateMutability":"view"},{"type":"function","name":"getLiquidityProvider","inputs":[{"name":"lpAddress","type":"address","internalType":"address"}],"outputs":[{"name":"","type":"tuple","internalType":"struct RiftExchange.LiquidityProvider","components":[{"name":"depositVaultIndexes","type":"uint256[]","internalType":"uint256[]"}]}],"stateMutability":"view"},{"type":"function","name":"getReservation","inputs":[{"name":"reservationIndex","type":"uint256","internalType":"uint256"}],"outputs":[{"name":"","type":"tuple","internalType":"struct RiftExchange.SwapReservation","components":[{"name":"owner","type":"address","internalType":"address"},{"name":"confirmationBlockHeight","type":"uint32","internalType":"uint32"},{"name":"reservationTimestamp","type":"uint64","internalType":"uint64"},{"name":"liquidityUnlockedTimestamp","type":"uint64","internalType":"uint64"},{"name":"state","type":"uint8","internalType":"enum RiftExchange.ReservationState"},{"name":"ethPayoutAddress","type":"address","internalType":"address"},{"name":"lpReservationHash","type":"bytes32","internalType":"bytes32"},{"name":"nonce","type":"bytes32","internalType":"bytes32"},{"name":"totalSatsInputIncludingProxyFee","type":"uint256","internalType":"uint256"},{"name":"totalSwapOutputAmount","type":"uint256","internalType":"uint256"},{"name":"proposedBlockHeight","type":"uint256","internalType":"uint256"},{"name":"proposedBlockHash","type":"bytes32","internalType":"bytes32"},{"name":"vaultIndexes","type":"uint256[]","internalType":"uint256[]"},{"name":"amountsToReserve","type":"uint192[]","internalType":"uint192[]"},{"name":"expectedSatsOutput","type":"uint64[]","internalType":"uint64[]"}]}],"stateMutability":"view"},{"type":"function","name":"getReservationLength","inputs":[],"outputs":[{"name":"","type":"uint256","internalType":"uint256"}],"stateMutability":"view"},{"type":"function","name":"isDepositNewLiquidityPaused","inputs":[],"outputs":[{"name":"","type":"bool","internalType":"bool"}],"stateMutability":"view"},{"type":"function","name":"owner","inputs":[],"outputs":[{"name":"","type":"address","internalType":"address"}],"stateMutability":"view"},{"type":"function","name":"permissionedHypernodes","inputs":[{"name":"","type":"address","internalType":"address"}],"outputs":[{"name":"","type":"bool","internalType":"bool"}],"stateMutability":"view"},{"type":"function","name":"protocolFeeBP","inputs":[],"outputs":[{"name":"","type":"uint8","internalType":"uint8"}],"stateMutability":"view"},{"type":"function","name":"proveBlocks","inputs":[{"name":"safeBlockHeight","type":"uint32","internalType":"uint32"},{"name":"proposedBlockHeight","type":"uint64","internalType":"uint64"},{"name":"confirmationBlockHeight","type":"uint64","internalType":"uint64"},{"name":"blockHashes","type":"bytes32[]","internalType":"bytes32[]"},{"name":"blockChainworks","type":"uint256[]","internalType":"uint256[]"},{"name":"proof","type":"bytes","internalType":"bytes"}],"outputs":[],"stateMutability":"nonpayable"},{"type":"function","name":"releaseLiquidity","inputs":[{"name":"swapReservationIndex","type":"uint256","internalType":"uint256"}],"outputs":[],"stateMutability":"nonpayable"},{"type":"function","name":"removePermissionedHypernode","inputs":[{"name":"hypernode","type":"address","internalType":"address"}],"outputs":[],"stateMutability":"nonpayable"},{"type":"function","name":"reserveLiquidity","inputs":[{"name":"reservationOwner","type":"address","internalType":"address"},{"name":"vaultIndexesToReserve","type":"uint256[]","internalType":"uint256[]"},{"name":"amountsToReserve","type":"uint192[]","internalType":"uint192[]"},{"name":"ethPayoutAddress","type":"address","internalType":"address"},{"name":"totalSatsInputIncludingProxyFee","type":"uint256","internalType":"uint256"},{"name":"expiredSwapReservationIndexes","type":"uint256[]","internalType":"uint256[]"}],"outputs":[],"stateMutability":"nonpayable"},{"type":"function","name":"submitSwapProof","inputs":[{"name":"swapReservationIndex","type":"uint256","internalType":"uint256"},{"name":"bitcoinTxId","type":"bytes32","internalType":"bytes32"},{"name":"merkleRoot","type":"bytes32","internalType":"bytes32"},{"name":"safeBlockHeight","type":"uint32","internalType":"uint32"},{"name":"proposedBlockHeight","type":"uint64","internalType":"uint64"},{"name":"confirmationBlockHeight","type":"uint64","internalType":"uint64"},{"name":"blockHashes","type":"bytes32[]","internalType":"bytes32[]"},{"name":"blockChainworks","type":"uint256[]","internalType":"uint256[]"},{"name":"proof","type":"bytes","internalType":"bytes"}],"outputs":[],"stateMutability":"nonpayable"},{"type":"function","name":"swapReservations","inputs":[{"name":"","type":"uint256","internalType":"uint256"}],"outputs":[{"name":"owner","type":"address","internalType":"address"},{"name":"confirmationBlockHeight","type":"uint32","internalType":"uint32"},{"name":"reservationTimestamp","type":"uint64","internalType":"uint64"},{"name":"liquidityUnlockedTimestamp","type":"uint64","internalType":"uint64"},{"name":"state","type":"uint8","internalType":"enum RiftExchange.ReservationState"},{"name":"ethPayoutAddress","type":"address","internalType":"address"},{"name":"lpReservationHash","type":"bytes32","internalType":"bytes32"},{"name":"nonce","type":"bytes32","internalType":"bytes32"},{"name":"totalSatsInputIncludingProxyFee","type":"uint256","internalType":"uint256"},{"name":"totalSwapOutputAmount","type":"uint256","internalType":"uint256"},{"name":"proposedBlockHeight","type":"uint256","internalType":"uint256"},{"name":"proposedBlockHash","type":"bytes32","internalType":"bytes32"}],"stateMutability":"view"},{"type":"function","name":"transferOwnership","inputs":[{"name":"newOwner","type":"address","internalType":"address"}],"outputs":[],"stateMutability":"nonpayable"},{"type":"function","name":"updateExchangeRate","inputs":[{"name":"globalVaultIndex","type":"uint256","internalType":"uint256"},{"name":"newExchangeRate","type":"uint64","internalType":"uint64"},{"name":"expiredSwapReservationIndexes","type":"uint256[]","internalType":"uint256[]"}],"outputs":[],"stateMutability":"nonpayable"},{"type":"function","name":"updateFeeRouter","inputs":[{"name":"newProtocolAddress","type":"address","internalType":"address payable"}],"outputs":[],"stateMutability":"nonpayable"},{"type":"function","name":"updateNewLiquidityDepositsPaused","inputs":[{"name":"newPauseState","type":"bool","internalType":"bool"}],"outputs":[],"stateMutability":"nonpayable"},{"type":"function","name":"updateProtocolFee","inputs":[{"name":"newProtocolFeeBP","type":"uint8","internalType":"uint8"}],"outputs":[],"stateMutability":"nonpayable"},{"type":"function","name":"validateBlockExists","inputs":[{"name":"blockHeight","type":"uint256","internalType":"uint256"}],"outputs":[],"stateMutability":"view"},{"type":"function","name":"withdrawLiquidity","inputs":[{"name":"globalVaultIndex","type":"uint256","internalType":"uint256"},{"name":"amountToWithdraw","type":"uint192","internalType":"uint192"},{"name":"expiredSwapReservationIndexes","type":"uint256[]","internalType":"uint256[]"}],"outputs":[],"stateMutability":"nonpayable"},{"type":"event","name":"BlocksAdded","inputs":[{"name":"startBlockHeight","type":"uint256","indexed":false,"internalType":"uint256"},{"name":"count","type":"uint256","indexed":false,"internalType":"uint256"}],"anonymous":false},{"type":"event","name":"ExchangeRateUpdated","inputs":[{"name":"globalVaultIndex","type":"uint256","indexed":true,"internalType":"uint256"},{"name":"newExchangeRate","type":"uint64","indexed":false,"internalType":"uint64"},{"name":"unreservedBalance","type":"uint256","indexed":false,"internalType":"uint256"}],"anonymous":false},{"type":"event","name":"LiquidityDeposited","inputs":[{"name":"depositor","type":"address","indexed":true,"internalType":"address"},{"name":"depositVaultIndex","type":"uint256","indexed":false,"internalType":"uint256"},{"name":"amount","type":"uint256","indexed":false,"internalType":"uint256"},{"name":"exchangeRate","type":"uint64","indexed":false,"internalType":"uint64"}],"anonymous":false},{"type":"event","name":"LiquidityReserved","inputs":[{"name":"reserver","type":"address","indexed":true,"internalType":"address"},{"name":"swapReservationIndex","type":"uint256","indexed":false,"internalType":"uint256"},{"name":"orderNonce","type":"bytes32","indexed":false,"internalType":"bytes32"}],"anonymous":false},{"type":"event","name":"LiquidityWithdrawn","inputs":[{"name":"globalVaultIndex","type":"uint256","indexed":true,"internalType":"uint256"},{"name":"amountWithdrawn","type":"uint192","indexed":false,"internalType":"uint192"},{"name":"remainingBalance","type":"uint256","indexed":false,"internalType":"uint256"}],"anonymous":false},{"type":"event","name":"OwnershipTransferred","inputs":[{"name":"user","type":"address","indexed":true,"internalType":"address"},{"name":"newOwner","type":"address","indexed":true,"internalType":"address"}],"anonymous":false},{"type":"event","name":"ProofSubmitted","inputs":[{"name":"prover","type":"address","indexed":true,"internalType":"address"},{"name":"swapReservationIndex","type":"uint256","indexed":false,"internalType":"uint256"},{"name":"orderNonce","type":"bytes32","indexed":false,"internalType":"bytes32"}],"anonymous":false},{"type":"event","name":"SwapComplete","inputs":[{"name":"swapReservationIndex","type":"uint256","indexed":false,"internalType":"uint256"},{"name":"swapReservation","type":"tuple","indexed":false,"internalType":"struct RiftExchange.SwapReservation","components":[{"name":"owner","type":"address","internalType":"address"},{"name":"confirmationBlockHeight","type":"uint32","internalType":"uint32"},{"name":"reservationTimestamp","type":"uint64","internalType":"uint64"},{"name":"liquidityUnlockedTimestamp","type":"uint64","internalType":"uint64"},{"name":"state","type":"uint8","internalType":"enum RiftExchange.ReservationState"},{"name":"ethPayoutAddress","type":"address","internalType":"address"},{"name":"lpReservationHash","type":"bytes32","internalType":"bytes32"},{"name":"nonce","type":"bytes32","internalType":"bytes32"},{"name":"totalSatsInputIncludingProxyFee","type":"uint256","internalType":"uint256"},{"name":"totalSwapOutputAmount","type":"uint256","internalType":"uint256"},{"name":"proposedBlockHeight","type":"uint256","internalType":"uint256"},{"name":"proposedBlockHash","type":"bytes32","internalType":"bytes32"},{"name":"vaultIndexes","type":"uint256[]","internalType":"uint256[]"},{"name":"amountsToReserve","type":"uint192[]","internalType":"uint192[]"},{"name":"expectedSatsOutput","type":"uint64[]","internalType":"uint64[]"}]},{"name":"protocolFee","type":"uint256","indexed":false,"internalType":"uint256"}],"anonymous":false},{"type":"error","name":"AmountToReserveTooLow","inputs":[{"name":"index","type":"uint256","internalType":"uint256"}]},{"type":"error","name":"BlockArraysMismatch","inputs":[]},{"type":"error","name":"BlockDoesNotExist","inputs":[]},{"type":"error","name":"InvalidBlockHeights","inputs":[]},{"type":"error","name":"InvalidChainwork","inputs":[]},{"type":"error","name":"InvalidConfirmationBlock","inputs":[]},{"type":"error","name":"InvalidExchangeRate","inputs":[]},{"type":"error","name":"InvalidInputArrays","inputs":[]},{"type":"error","name":"InvalidReservationState","inputs":[]},{"type":"error","name":"InvalidSafeBlock","inputs":[]},{"type":"error","name":"NewDepositsPaused","inputs":[]},{"type":"error","name":"NotApprovedHypernode","inputs":[]},{"type":"error","name":"NotEnoughLiquidity","inputs":[]},{"type":"error","name":"NotVaultOwner","inputs":[]},{"type":"error","name":"OverwrittenProposedBlock","inputs":[]},{"type":"error","name":"ReservationNotExpired","inputs":[]},{"type":"error","name":"ReservationNotProved","inputs":[]},{"type":"error","name":"StillInChallengePeriod","inputs":[]},{"type":"error","name":"UpdateExchangeRateError","inputs":[]},{"type":"error","name":"WithdrawalAmountError","inputs":[]}],"bytecode":{"object":"0x6101206040526003805461ffff60a01b1916600560a91b179055348015610024575f5ffd5b5060405161419e38038061419e8339810160408190526100439161023b565b60805160028b90555f8b81526001602090815260408083208b90559082905281208b905584918c918a918d918d919082908061007e886101ef565b8152602081019190915260409081015f9081209290925560ff909216608052600380546001600160a01b0389166001600160a01b03199091168117909155915191955093507f8be0079c531659141344cd1fd0a4f28419497f9722a3daafe3b4186f6b6457e09250839150a35060e08290526001600160a01b0380871661010052851660a08190526040805163313ce56760e01b8152905163313ce567916004808201926020929091908290030181865afa15801561013f573d5f5f3e3d5ffd5b505050506040513d601f19601f82011682018060405250810190610163919061037c565b60ff1660c052600480546001600160a01b0319166001600160a01b0386161790555f5b81518110156101df57600160085f8484815181106101a6576101a66103a3565b6020908102919091018101516001600160a01b031682528101919091526040015f20805460ff1916911515919091179055600101610186565b50505050505050505050506103f5565b5f6101fc6107e0836103b7565b61020690836103d6565b92915050565b80516001600160a01b0381168114610222575f5ffd5b919050565b634e487b7160e01b5f52604160045260245ffd5b5f5f5f5f5f5f5f5f5f5f6101408b8d031215610255575f5ffd5b8a5160208c015160408d015160608e0151929c50909a509850965061027c60808c0161020c565b955061028a60a08c0161020c565b945061029860c08c0161020c565b93506102a660e08c0161020c565b6101008c01516101208d015191945092506001600160401b038111156102ca575f5ffd5b8b01601f81018d136102da575f5ffd5b80516001600160401b038111156102f3576102f3610227565b604051600582901b603f01601f191681016001600160401b038111828210171561031f5761031f610227565b604052818152602060059290921b830182019181018f831115610340575f5ffd5b6020840193505b82841015610366576103588461020c565b815260209384019301610347565b508093505050509295989b9194979a5092959850565b5f6020828403121561038c575f5ffd5b815160ff8116811461039c575f5ffd5b9392505050565b634e487b7160e01b5f52603260045260245ffd5b5f826103d157634e487b7160e01b5f52601260045260245ffd5b500690565b8181038181111561020657634e487b7160e01b5f52601160045260245ffd5b60805160a05160c05160e05161010051613d2d6104715f395f81816105730152818161223d01526123d101525f81816104f40152818161226a01526123fe01525f81816103780152611c5601525f818161026801528181610f1a01528181610f890152818161134101526115bb01525f6128c00152613d2d5ff3fe608060405234801561000f575f5ffd5b506004361061024a575f3560e01c806398f9e75711610140578063d825a692116100bf578063ecdea06f11610084578063ecdea06f1461067d578063eced552614610690578063ed8b2b321461069f578063ee82ac5e146106b2578063f2fde38b146106d1578063f53e31cf146106e4575f5ffd5b8063d825a69214610624578063d841840314610646578063d8b4cf4e14610659578063e102f9c114610662578063ea6fe03e14610675575f5ffd5b8063c3a079ed11610105578063c3a079ed146105a8578063c5fba0b8146105b1578063c7785af0146105c5578063cda7d82c146105e5578063d57763c314610604575f5ffd5b806398f9e75714610529578063a3db99d914610549578063b01c27d11461055c578063b8b245921461056e578063b9b2a98214610595575f5ffd5b80636b994abb116101cc578063803d5f6211610191578063803d5f621461049a57806389a11f7a146104ad5780638cc63cdd146104cb5780638d5ca052146104ef5780638da5cb5b14610516575f5ffd5b80636b994abb1461042e57806373e149e614610459578063778919071461046c5780637a9059a21461047f5780637dce555014610492575f5ffd5b8063505675dd11610212578063505675dd146103605780635b7f415c146103735780635f4d0610146103ac5780636512d057146104135780636922480814610426575f5ffd5b80630a7aa2931461024e57806313f6658714610263578063163de0c5146102a7578063276d080e146102be5780634a8484ea1461034d575b5f5ffd5b61026161025c366004612d38565b6106f7565b005b61028a7f000000000000000000000000000000000000000000000000000000000000000081565b6040516001600160a01b0390911681526020015b60405180910390f35b6102b060025481565b60405190815260200161029e565b6102d16102cc366004612d5f565b61074a565b60405161029e91905f60e08201905060018060a01b0383511682526001600160401b0360208401511660208301526040830151604083015260608301516060830152608083015160808301526001600160401b0360a08401511660a083015269ffffffffffffffffffff1960c08401511660c083015292915050565b61026161035b366004612d9a565b610825565b61026161036e366004612e9b565b61086f565b61039a7f000000000000000000000000000000000000000000000000000000000000000081565b60405160ff909116815260200161029e565b6103bf6103ba366004612d5f565b610bbd565b604080516001600160a01b0390981688526001600160401b039687166020890152870194909452606086019290925260808501529190911660a08301526001600160501b03191660c082015260e00161029e565b6102b0610421366004612d5f565b610c26565b61039a600181565b61044161043c366004612d5f565b610c51565b60405161029e9c9b9a99989796959493929190612f21565b610261610467366004612d9a565b610ce6565b61026161047a366004612d5f565b610d32565b61026161048d366004612fb5565b61108b565b6005546102b0565b6102616104a8366004612fd0565b6110d3565b6104b661384081565b60405163ffffffff909116815260200161029e565b6003546104df90600160a01b900460ff1681565b604051901515815260200161029e565b6102b07f000000000000000000000000000000000000000000000000000000000000000081565b60035461028a906001600160a01b031681565b61053c610537366004612d9a565b611413565b60405161029e9190613053565b61026161055736600461308b565b611493565b600354600160a01b900460ff166104df565b61028a7f000000000000000000000000000000000000000000000000000000000000000081565b6102b06105a3366004612d5f565b61167e565b6104b661012c81565b60035461039a90600160a81b900460ff1681565b6105d86105d33660046130c0565b61169b565b60405161029e9190613183565b6102b06105f3366004612d5f565b5f9081526001602052604090205490565b610617610612366004612d5f565b6117f9565b60405161029e91906132e8565b6104df610632366004612d9a565b60086020525f908152604090205460ff1681565b61026161065436600461340e565b611ad1565b6102b061271081565b610261610670366004613523565b6121f4565b6006546102b0565b61026161068b36600461367e565b6122f4565b6102b0670de0b6b3a764000081565b6102616106ad366004612d5f565b61254a565b6102b06106c0366004612d5f565b5f9081526020819052604090205490565b6102616106df366004612d9a565b612578565b6102616106f2366004612d9a565b6125ed565b6003546001600160a01b0316331461072a5760405162461bcd60e51b815260040161072190613756565b60405180910390fd5b6003805460ff909216600160a81b0260ff60a81b19909216919091179055565b6040805160e0810182525f80825260208201819052918101829052606081018290526080810182905260a0810182905260c0810191909152600582815481106107955761079561377c565b5f9182526020918290206040805160e08101825260059390930290910180546001600160a01b0381168452600160a01b90046001600160401b039081169484019490945260018101549183019190915260028101546060830152600381015460808301526004015491821660a0820152600160401b90910460501b6001600160501b03191660c082015292915050565b6003546001600160a01b0316331461084f5760405162461bcd60e51b815260040161072190613756565b6001600160a01b03165f908152600860205260409020805460ff19169055565b336001600160a01b03166005848154811061088c5761088c61377c565b5f9182526020909120600590910201546001600160a01b0316146108c357604051630e7fea9d60e01b815260040160405180910390fd5b816001600160401b03165f036108ec5760405163a2ec3a5560e01b815260040160405180910390fd5b5f600584815481106109005761090061377c565b905f5260205f20906005020190505f8160020154905061091f8361263a565b8160010154810361098b5760048201805467ffffffffffffffff19166001600160401b038616908117909155604080519182526020820183905286917fbe7a3aef8ec470b9ef629744038f55b7557d10cd672e7a5982f0433e50866ae7910160405180910390a2610bb6565b805f036109ab57604051632b5daf8960e01b815260040160405180910390fd5b600580546040805160e08101825285546001600160a01b0390811682526001600160401b0342811660208401908152938301878152606084018881525f608086018181528d851660a0880190815260048d01546001600160501b0319600160401b91829004605090811b9190911660c08b0190815260018d018e558d865299519c8c027f036b6384b5eca791c62761152d0c79bb0604c104a5fb6f4eb0703f3154bb3db0810180549c518a16600160a01b026001600160e01b0319909d169e909a169d909d179a909a1790975593517f036b6384b5eca791c62761152d0c79bb0604c104a5fb6f4eb0703f3154bb3db18b015591517f036b6384b5eca791c62761152d0c79bb0604c104a5fb6f4eb0703f3154bb3db28a015590517f036b6384b5eca791c62761152d0c79bb0604c104a5fb6f4eb0703f3154bb3db389015590517f036b6384b5eca791c62761152d0c79bb0604c104a5fb6f4eb0703f3154bb3db49097018054945190951c9092026001600160f01b031990931695169490941717905560038401805491928492610b449084906137a4565b90915550505f6002840181905533815260076020908152604082208054600181018255908352912001819055604080516001600160401b03871681526020810184905282917fbe7a3aef8ec470b9ef629744038f55b7557d10cd672e7a5982f0433e50866ae7910160405180910390a2505b5050505050565b60058181548110610bcc575f80fd5b5f918252602090912060059091020180546001820154600283015460038401546004909401546001600160a01b03841695506001600160401b03600160a01b9094048416949293919291811690600160401b900460501b87565b5f60058281548110610c3a57610c3a61377c565b905f5260205f209060050201600201549050919050565b60068181548110610c60575f80fd5b5f9182526020909120600b9091020180546001820154600283015460038401546004850154600586015460068701546007909701546001600160a01b03808816995063ffffffff600160a01b890416986001600160401b03600160c01b90990489169888169760ff600160401b82041697600160481b909104909216959194919391928c565b6003546001600160a01b03163314610d105760405162461bcd60e51b815260040161072190613756565b600480546001600160a01b0319166001600160a01b0392909216919091179055565b5f60068281548110610d4657610d4661377c565b5f9182526020909120600b90910201905060026001820154600160401b900460ff166004811115610d7957610d79612eed565b14610d97576040516320d55f6760e21b815260040160405180910390fd5b60018101546001600160401b0316421015610dc557604051632d5c37f560e21b815260040160405180910390fd5b610e036040518060400160405280601881526020017f70726f706f736564426c6f636b486173682061637475616c0000000000000000815250612749565b610e24610e1f82600601545f9081526020819052604090205490565b61278c565b610e626040518060400160405280601a81526020017f70726f706f736564426c6f636b48617368206578706563746564000000000000815250612749565b610e6f816007015461278c565b600781015460068201545f9081526020819052604090205414610ea55760405163c1f6fa5160e01b815260040160405180910390fd5b60018101805460ff60401b19166803000000000000000017905560035460058201545f9161271091610ee191600160a81b900460ff16906137b7565b610eeb91906137e2565b6004805460405163a9059cbb60e01b81526001600160a01b0391821692810192909252602482018390529192507f00000000000000000000000000000000000000000000000000000000000000009091169063a9059cbb906044016020604051808303815f875af1158015610f62573d5f5f3e3d5ffd5b505050506040513d601f19601f82011682018060405250810190610f8691906137f5565b507f00000000000000000000000000000000000000000000000000000000000000006001600160a01b031663a9059cbb8360010160099054906101000a90046001600160a01b0316838560050154610fde9190613810565b6040516001600160e01b031960e085901b1681526001600160a01b03909216600483015260248201526044016020604051808303815f875af1158015611026573d5f5f3e3d5ffd5b505050506040513d601f19601f8201168201806040525081019061104a91906137f5565b507fdac7ae252b0543041533aaa27934d7c6de253e5e83d68470bbac7e238168876f83838360405161107e93929190613976565b60405180910390a1505050565b6003546001600160a01b031633146110b55760405162461bcd60e51b815260040161072190613756565b60038054911515600160a01b0260ff60a01b19909216919091179055565b600354600160a01b900460ff16156110fe576040516348010c6560e11b815260040160405180910390fd5b816001600160401b03165f036111275760405163a2ec3a5560e01b815260040160405180910390fd5b335f90815260076020526040812054900361117357604080515f60208083018281528385018552835233825260078152929020815180519293919261116f9284920190612bdc565b5050505b6040805160e081018252338082526001600160401b0342811660208401908152938301878152606084018881525f6080860181815289851660a088019081526001600160501b03198a1660c0890190815260058054600181810183559582905299519981027f036b6384b5eca791c62761152d0c79bb0604c104a5fb6f4eb0703f3154bb3db0810180549c518a16600160a01b026001600160e01b0319909d166001600160a01b039c909c169b909b179b909b1790995594517f036b6384b5eca791c62761152d0c79bb0604c104a5fb6f4eb0703f3154bb3db18a015592517f036b6384b5eca791c62761152d0c79bb0604c104a5fb6f4eb0703f3154bb3db2890155517f036b6384b5eca791c62761152d0c79bb0604c104a5fb6f4eb0703f3154bb3db388015590517f036b6384b5eca791c62761152d0c79bb0604c104a5fb6f4eb0703f3154bb3db49096018054925160501c600160401b026001600160f01b03199093169690931695909517179055905461131f926112f491613810565b6001600160a01b039091165f9081526007602090815260408220805460018101825590835291200155565b6040516323b872dd60e01b8152336004820152306024820152604481018490527f00000000000000000000000000000000000000000000000000000000000000006001600160a01b0316906323b872dd906064016020604051808303815f875af115801561138f573d5f5f3e3d5ffd5b505050506040513d601f19601f820116820180604052508101906113b391906137f5565b5060055433907ffd5ab8914e1dca355d18ae7fe50627d3afe042f323e1b0ae31f3a9d2cd19de37906113e790600190613810565b60408051918252602082018790526001600160401b0386169082015260600160405180910390a2505050565b6040805160208082018352606082526001600160a01b0384165f908152600782528390208351815480840282018601865292810183815293949093919284929184919084018282801561148357602002820191905f5260205f20905b81548152602001906001019080831161146f575b5050505050815250509050919050565b336001600160a01b0316600584815481106114b0576114b061377c565b5f9182526020909120600590910201546001600160a01b0316146114e757604051630e7fea9d60e01b815260040160405180910390fd5b6114f08161263a565b5f600584815481106115045761150461377c565b905f5260205f2090600502019050826001600160c01b03165f148061153557508060020154836001600160c01b0316115b156115535760405163b4e3d41360e01b815260040160405180910390fd5b826001600160c01b0316816002015f82825461156f9190613810565b92505081905550826001600160c01b0316816003015f82825461159291906137a4565b909155505060405163a9059cbb60e01b81523360048201526001600160c01b03841660248201527f00000000000000000000000000000000000000000000000000000000000000006001600160a01b03169063a9059cbb906044016020604051808303815f875af1158015611609573d5f5f3e3d5ffd5b505050506040513d601f19601f8201168201806040525081019061162d91906137f5565b506002810154604080516001600160c01b0386168152602081019290925285917f2da2870bb581d5fba8ee536c6bc0062e654302bcee5f5b108193a2c6d2f4a899910160405180910390a250505050565b5f61168b6107e083613a98565b6116959083613810565b92915050565b61171b6040518061018001604052805f81526020015f81526020015f81526020015f81526020015f6001600160401b031681526020015f81526020015f6001600160401b031681526020015f6001600160401b031681526020015f6001600160401b0316815260200160608152602001606081526020015f151581525090565b5f60068b8154811061172f5761172f61377c565b905f5260205f2090600b020190506040518061018001604052808b81526020018a8152602001826002015481526020018260030154815260200182600801805490506001600160401b031681526020016117916106c08b63ffffffff1661167e565b815263ffffffff8a16602082018190526040909101906117b1908a613aab565b6001600160401b031681526020016117c98989613aab565b6001600160401b031681526020018681526020018581526020018415158152509150509998505050505050505050565b611873604080516101e0810182525f808252602082018190529181018290526060810182905290608082019081526020015f6001600160a01b031681526020015f81526020015f81526020015f81526020015f81526020015f81526020015f81526020016060815260200160608152602001606081525090565b600682815481106118865761188661377c565b5f918252602091829020604080516101e081018252600b90930290910180546001600160a01b038116845263ffffffff600160a01b820416948401949094526001600160401b03600160c01b909404841691830191909152600181015492831660608301529091608083019060ff600160401b90910416600481111561190e5761190e612eed565b600481111561191f5761191f612eed565b81526020016001820160099054906101000a90046001600160a01b03166001600160a01b03166001600160a01b03168152602001600282015481526020016003820154815260200160048201548152602001600582015481526020016006820154815260200160078201548152602001600882018054806020026020016040519081016040528092919081815260200182805480156119db57602002820191905f5260205f20905b8154815260200190600101908083116119c7575b5050505050815260200160098201805480602002602001604051908101604052809291908181526020018280548015611a3b57602002820191905f5260205f20905b81546001600160c01b03168152600190910190602001808311611a1d575b50505050508152602001600a820180548060200260200160405190810160405280929190818152602001828054801561148357602002820191905f5260205f20905f905b82829054906101000a90046001600160401b03166001600160401b031681526020019060080190602082600701049283019260010382029150808411611a7f5790505050505050815250509050919050565b84511580611ae157508351855114155b15611aff5760405163744bba7b60e01b815260040160405180910390fd5b5f5b8451811015611b5757848181518110611b1c57611b1c61377c565b60200260200101516001600160c01b03165f03611b4f57604051633143436b60e11b815260048101829052602401610721565b600101611b01565b5084515f90819081906001600160401b03811115611b7757611b77612dcb565b604051908082528060200260200182016040528015611ba0578160200160208202803683370190505b5090505f5b8751811015611ccc575f60058a8381518110611bc357611bc361377c565b602002602001015181548110611bdb57611bdb61377c565b5f91825260209091206004600590920201015489516001600160401b039091169150899083908110611c0f57611c0f61377c565b60200260200101516001600160c01b031685611c2b91906137a4565b94505f611c7a8a8481518110611c4357611c4361377c565b60200260200101516001600160c01b03167f00000000000000000000000000000000000000000000000000000000000000006127d1565b90505f611c8783836137e2565b9050611c9381876137a4565b955080858581518110611ca857611ca861377c565b6001600160401b039290921660209283029190910190910152505050600101611ba5565b50611cd68461263a565b5f805b8951811015611e57576002838281518110611cf657611cf661377c565b602002602001015160058c8481518110611d1257611d1261377c565b602002602001015181548110611d2a57611d2a61377c565b5f91825260209182902060046005909202010154604080516001600160401b03909416928401929092526001600160501b0319600160401b90910460501b16908201526060810184905260800160408051601f1981840301815290829052611d9191613aca565b602060405180830381855afa158015611dac573d5f5f3e3d5ffd5b5050506040513d601f19601f82011682018060405250810190611dcf9190613ae0565b915060058a8281518110611de557611de561377c565b602002602001015181548110611dfd57611dfd61377c565b905f5260205f20906005020160020154898281518110611e1f57611e1f61377c565b60200260200101516001600160c01b03161115611e4f57604051634323a55560e01b815260040160405180910390fd5b600101611cd9565b50600654604080516001600160a01b038a16602082015242918101919091524660608201526080810183905260a08101919091525f9060c00160408051601f1981840301815282825280516020918201206101e0840183526001600160a01b038f1684525f9184018290526001600160401b034216928401929092526060830152915060069060808101600181526020018a6001600160a01b031681526020018481526020018381526020018981526020018781526020015f81526020015f5f1b81526020018c81526020018b815260200185815250908060018154018082558091505060019003905f5260205f2090600b02015f909190919091505f820151815f015f6101000a8154816001600160a01b0302191690836001600160a01b031602179055506020820151815f0160146101000a81548163ffffffff021916908363ffffffff1602179055506040820151815f0160186101000a8154816001600160401b0302191690836001600160401b031602179055506060820151816001015f6101000a8154816001600160401b0302191690836001600160401b0316021790555060808201518160010160086101000a81548160ff0219169083600481111561202557612025612eed565b021790555060a08201516001820180546001600160a01b03909216600160481b027fffffff0000000000000000000000000000000000000000ffffffffffffffffff90921691909117905560c0820151600282015560e08201516003820155610100820151600482015561012082015160058201556101408201516006820155610160820151600782015561018082015180516120cc916008840191602090910190612bdc565b506101a082015180516120e9916009840191602090910190612c25565b506101c0820151805161210691600a840191602090910190612c78565b505f9150505b8a5181101561218e578981815181106121275761212761377c565b60200260200101516001600160c01b031660058c838151811061214c5761214c61377c565b6020026020010151815481106121645761216461377c565b905f5260205f2090600502016002015f8282546121819190613810565b909155505060010161210c565b508a6001600160a01b03167f5956135c9be999a50f7ff4ea49ddf1485bc321ab333dc7a0877633eeb475289360016121c560065490565b6121cf9190613810565b6040805191825260208201859052015b60405180910390a25050505050505050505050565b5f6122068180808b8b8b8b8b8561169b565b6040516020016122169190613183565b60408051601f198184030181529082905263020a49e360e51b825291506001600160a01b037f000000000000000000000000000000000000000000000000000000000000000016906341493c6090612298907f000000000000000000000000000000000000000000000000000000000000000090859088908890600401613b25565b5f6040518083038186803b1580156122ae575f5ffd5b505afa1580156122c0573d5f5f3e3d5ffd5b505050506122e98863ffffffff16886001600160401b0316886001600160401b0316888861280c565b505050505050505050565b335f9081526008602052604090205460ff166123235760405163901924a360e01b815260040160405180910390fd5b5f60068a815481106123375761233761377c565b5f9182526020909120600b909102019050600180820154600160401b900460ff16600481111561236957612369612eed565b1461238757604051639085371960e01b815260040160405180910390fd5b5f61239a8b8b8b8b8b8b8b8b600161169b565b6040516020016123aa9190613183565b60408051601f198184030181529082905263020a49e360e51b825291506001600160a01b037f000000000000000000000000000000000000000000000000000000000000000016906341493c609061242a907f00000000000000000000000000000000000000000000000000000000000000009085908890600401613b70565b5f6040518083038186803b158015612440575f5ffd5b505afa158015612452573d5f5f3e3d5ffd5b5050505061247b8863ffffffff16886001600160401b0316886001600160401b0316888861280c565b5060018201805460ff60401b1916680200000000000000001790556124a261012c42613ba4565b60018301805467ffffffffffffffff19166001600160401b0392831617905587166006830155846124d963ffffffff8a1689613aab565b6001600160401b0316815181106124f2576124f261377c565b60200260200101518260070181905550336001600160a01b03167f8bcdab581a6176f792fa96b0c57d32273bcd8621b0548c15a9c6379dc246e26c8c84600301546040516121df929190918252602082015260400190565b5f818152602081905260409020546125755760405163fa4a5e4560e01b815260040160405180910390fd5b50565b6003546001600160a01b031633146125a25760405162461bcd60e51b815260040161072190613756565b600380546001600160a01b0319166001600160a01b03831690811790915560405133907f8be0079c531659141344cd1fd0a4f28419497f9722a3daafe3b4186f6b6457e0905f90a350565b6003546001600160a01b031633146126175760405162461bcd60e51b815260040161072190613756565b6001600160a01b03165f908152600860205260409020805460ff19166001179055565b61264381612ad3565b5f5b8151811015612745575f60068383815181106126635761266361377c565b60200260200101518154811061267b5761267b61377c565b5f91825260208220600b9091020191505b6008820154811015612723575f60058360080183815481106126b0576126b061377c565b905f5260205f200154815481106126c9576126c961377c565b905f5260205f20906005020190508260090182815481106126ec576126ec61377c565b5f9182526020822001546002830180546001600160c01b039092169290916127159084906137a4565b90915550505060010161268c565b506001908101805460ff60401b19166804000000000000000017905501612645565b5050565b6125758160405160240161275d9190613bc3565b60408051601f198184030181529190526020810180516001600160e01b031663104c13eb60e21b179052612bbc565b612575816040516024016127a291815260200190565b60408051601f198184030181529190526020810180516001600160e01b03166327b7cf8560e01b179052612bbc565b5f60128260ff161015612805576127e9826012613bd5565b6127f490600a613cd1565b6127fe90846137b7565b9050611695565b5090919050565b6002545f81815260016020526040812054909190868810158061282f5750858710155b1561284d5760405163f198a75d60e01b815260040160405180910390fd5b5f888152602081905260409020546128785760405163575f3da360e01b815260040160405180910390fd5b8351855114158061289e575061288e8887613810565b6128999060016137a4565b855114155b156128bc5760405163d4d34e9960e01b815260040160405180910390fd5b60ff7f0000000000000000000000000000000000000000000000000000000000000000166128ea8888613810565b1015612909576040516341305f6360e01b815260040160405180910390fd5b5f600186516129189190613810565b90505f6129258a8a613810565b90508681815181106129395761293961377c565b60200260200101515f5f8b81526020019081526020015f205403612963575f945050505050612aca565b828683815181106129765761297661377c565b60200260200101511115612ab1575f6129908b60016137a4565b90505b888111612a1757876129a58c83613810565b815181106129b5576129b561377c565b6020908102919091018101515f83815291829052604090912055866129da8c83613810565b815181106129ea576129ea61377c565b6020908102919091018101515f838152600190925260409091205580612a0f81613cdf565b915050612993565b5083881015612a63575f612a2c8960016137a4565b90505b848111612a61575f81815260208181526040808320839055600190915281205580612a5981613cdf565b915050612a2f565b505b60028890558651604080518c815260208101929092527fb68477c768bbb33b4f238a3dfd17c33c499268c59cd042b7936bbc23dc2bdd34910160405180910390a16001945050505050612aca565b604051631f17929160e21b815260040160405180910390fd5b95945050505050565b5f5b8151811015612745575f6006838381518110612af357612af361377c565b602002602001015181548110612b0b57612b0b61377c565b5f9182526020909120600b90910201905060046001820154600160401b900460ff166004811115612b3e57612b3e612eed565b03612b495750612bb4565b805461384090612b6990600160c01b90046001600160401b031642613810565b1080612b945750600180820154600160401b900460ff166004811115612b9157612b91612eed565b14155b15612bb2576040516326349d6b60e01b815260040160405180910390fd5b505b600101612ad5565b80516a636f6e736f6c652e6c6f67602083015f808483855afa5050505050565b828054828255905f5260205f20908101928215612c15579160200282015b82811115612c15578251825591602001919060010190612bfa565b50612c21929150612d24565b5090565b828054828255905f5260205f20908101928215612c15579160200282015b82811115612c1557825182546001600160c01b0319166001600160c01b03909116178255602090920191600190910190612c43565b828054828255905f5260205f2090600301600490048101928215612c15579160200282015f5b83821115612ce857835183826101000a8154816001600160401b0302191690836001600160401b031602179055509260200192600801602081600701049283019260010302612c9e565b8015612d1b5782816101000a8154906001600160401b030219169055600801602081600701049283019260010302612ce8565b5050612c219291505b5b80821115612c21575f8155600101612d25565b5f60208284031215612d48575f5ffd5b813560ff81168114612d58575f5ffd5b9392505050565b5f60208284031215612d6f575f5ffd5b5035919050565b6001600160a01b0381168114612575575f5ffd5b8035612d9581612d76565b919050565b5f60208284031215612daa575f5ffd5b8135612d5881612d76565b80356001600160401b0381168114612d95575f5ffd5b634e487b7160e01b5f52604160045260245ffd5b604051601f8201601f191681016001600160401b0381118282101715612e0757612e07612dcb565b604052919050565b5f6001600160401b03821115612e2757612e27612dcb565b5060051b60200190565b5f82601f830112612e40575f5ffd5b8135612e53612e4e82612e0f565b612ddf565b8082825260208201915060208360051b860101925085831115612e74575f5ffd5b602085015b83811015612e91578035835260209283019201612e79565b5095945050505050565b5f5f5f60608486031215612ead575f5ffd5b83359250612ebd60208501612db5565b915060408401356001600160401b03811115612ed7575f5ffd5b612ee386828701612e31565b9150509250925092565b634e487b7160e01b5f52602160045260245ffd5b60058110612f1d57634e487b7160e01b5f52602160045260245ffd5b9052565b6001600160a01b038d16815263ffffffff8c1660208201526001600160401b038b811660408301528a1660608201526101808101612f62608083018b612f01565b6001600160a01b039890981660a082015260c081019690965260e08601949094526101008501929092526101208401526101408301526101609091015295945050505050565b8015158114612575575f5ffd5b5f60208284031215612fc5575f5ffd5b8135612d5881612fa8565b5f5f5f60608486031215612fe2575f5ffd5b83359250612ff260208501612db5565b915060408401356001600160501b03198116811461300e575f5ffd5b809150509250925092565b5f8151808452602084019350602083015f5b8281101561304957815186526020958601959091019060010161302b565b5093949350505050565b602081525f825160208084015261306d6040840182613019565b949350505050565b80356001600160c01b0381168114612d95575f5ffd5b5f5f5f6060848603121561309d575f5ffd5b83359250612ebd60208501613075565b803563ffffffff81168114612d95575f5ffd5b5f5f5f5f5f5f5f5f5f6101208a8c0312156130d9575f5ffd5b8935985060208a0135975060408a013596506130f760608b016130ad565b955061310560808b01612db5565b945061311360a08b01612db5565b935060c08a01356001600160401b0381111561312d575f5ffd5b6131398c828d01612e31565b93505060e08a01356001600160401b03811115613154575f5ffd5b6131608c828d01612e31565b9250506101008a013561317281612fa8565b809150509295985092959850929598565b60208152815160208201526020820151604082015260408201516060820152606082015160808201525f60808301516131c760a08401826001600160401b03169052565b5060a083015160c083015260c08301516131ec60e08401826001600160401b03169052565b5060e08301516001600160401b038116610100840152506101008301516001600160401b038116610120840152506101208301516101806101408401526132376101a0840182613019565b9050610140840151601f19848303016101608501526132568282613019565b91505061016084015161326e61018085018215159052565b509392505050565b5f8151808452602084019350602083015f5b828110156130495781516001600160c01b0316865260209586019590910190600101613288565b5f8151808452602084019350602083015f5b828110156130495781516001600160401b03168652602095860195909101906001016132c1565b602081526133026020820183516001600160a01b03169052565b5f602083015161331a604084018263ffffffff169052565b5060408301516001600160401b03811660608401525060608301516001600160401b038116608084015250608083015161335760a0840182612f01565b5060a08301516001600160a01b03811660c08401525060c083015160e083015260e08301516101008301526101008301516101208301526101208301516101408301526101408301516101608301526101608301516101808301526101808301516101e06101a08401526133cf610200840182613019565b90506101a0840151601f19848303016101c08501526133ee8282613276565b9150506101c0840151601f19848303016101e0850152612aca82826132af565b5f5f5f5f5f5f60c08789031215613423575f5ffd5b863561342e81612d76565b955060208701356001600160401b03811115613448575f5ffd5b61345489828a01612e31565b95505060408701356001600160401b0381111561346f575f5ffd5b8701601f8101891361347f575f5ffd5b803561348d612e4e82612e0f565b8082825260208201915060208360051b85010192508b8311156134ae575f5ffd5b6020840193505b828410156134d7576134c684613075565b8252602093840193909101906134b5565b96506134e99250505060608801612d8a565b92506080870135915060a08701356001600160401b0381111561350a575f5ffd5b61351689828a01612e31565b9150509295509295509295565b5f5f5f5f5f5f5f60c0888a031215613539575f5ffd5b613542886130ad565b965061355060208901612db5565b955061355e60408901612db5565b945060608801356001600160401b03811115613578575f5ffd5b6135848a828b01612e31565b94505060808801356001600160401b0381111561359f575f5ffd5b6135ab8a828b01612e31565b93505060a08801356001600160401b038111156135c6575f5ffd5b8801601f81018a136135d6575f5ffd5b80356001600160401b038111156135eb575f5ffd5b8a60208284010111156135fc575f5ffd5b602082019350809250505092959891949750929550565b5f82601f830112613622575f5ffd5b81356001600160401b0381111561363b5761363b612dcb565b61364e601f8201601f1916602001612ddf565b818152846020838601011115613662575f5ffd5b816020850160208301375f918101602001919091529392505050565b5f5f5f5f5f5f5f5f5f6101208a8c031215613697575f5ffd5b8935985060208a0135975060408a013596506136b560608b016130ad565b95506136c360808b01612db5565b94506136d160a08b01612db5565b935060c08a01356001600160401b038111156136eb575f5ffd5b6136f78c828d01612e31565b93505060e08a01356001600160401b03811115613712575f5ffd5b61371e8c828d01612e31565b9250506101008a01356001600160401b0381111561373a575f5ffd5b6137468c828d01613613565b9150509295985092959850929598565b6020808252600c908201526b15539055551213d49256915160a21b604082015260600190565b634e487b7160e01b5f52603260045260245ffd5b634e487b7160e01b5f52601160045260245ffd5b8082018082111561169557611695613790565b808202811582820484141761169557611695613790565b634e487b7160e01b5f52601260045260245ffd5b5f826137f0576137f06137ce565b500490565b5f60208284031215613805575f5ffd5b8151612d5881612fa8565b8181038181111561169557611695613790565b5f8154808452602084019350825f5260205f205f5b82811015613049578154865260209095019460019182019101613838565b5f8154808452602084019350825f5260205f205f5b828110156130495781546001600160c01b031686526020909501946001918201910161386b565b80548083525f8281526020808220940193909190825b826003820110156138f75781546001600160401b038082168852604082811c821660208a0152608083811c9092169089015260c09190911c6060880152909501946001909101906004016138a8565b90549082811015613918576001600160401b03821686526020909501946001015b8281101561393a576001600160401b03604083901c1686526020909501946001015b8281101561395c576001600160401b03608083901c1686526020909501946001015b82811015613049575060c01c845250506020909101919050565b83815260606020820181905283545f916139a39084016001600160a01b0383166001600160a01b03169052565b60a081901c63ffffffff16608084015260c081901c60a08401525060018401546001600160401b03811660c08401526139e560e0840160ff8360401c16612f01565b60481c6001600160a01b0316610100830152600284015461012083015260038401546101408301526004840154610160830152600584015461018083015260068401546101a083015260078401546101c08301526101e080830152613a51610240830160088601613823565b828103605f1901610200840152613a6b8160098701613856565b838103605f19016102208501529050613a8781600a8701613892565b915050826040830152949350505050565b5f82613aa657613aa66137ce565b500690565b6001600160401b03828116828216039081111561169557611695613790565b5f82518060208501845e5f920191825250919050565b5f60208284031215613af0575f5ffd5b5051919050565b5f81518084528060208401602086015e5f602082860101526020601f19601f83011685010191505092915050565b848152606060208201525f613b3d6060830186613af7565b8281036040840152838152838560208301375f602085830101526020601f19601f86011682010191505095945050505050565b838152606060208201525f613b886060830185613af7565b8281036040840152613b9a8185613af7565b9695505050505050565b6001600160401b03818116838216019081111561169557611695613790565b602081525f612d586020830184613af7565b60ff828116828216039081111561169557611695613790565b6001815b6001841115613c2957808504811115613c0d57613c0d613790565b6001841615613c1b57908102905b60019390931c928002613bf2565b935093915050565b5f82613c3f57506001611695565b81613c4b57505f611695565b8160018114613c615760028114613c6b57613c87565b6001915050611695565b60ff841115613c7c57613c7c613790565b50506001821b611695565b5060208310610133831016604e8410600b8410161715613caa575081810a611695565b613cb65f198484613bee565b805f1904821115613cc957613cc9613790565b029392505050565b5f612d5860ff841683613c31565b5f60018201613cf057613cf0613790565b506001019056fea264697066735822122056f75710010c44f0c534be5846ff292c3e805303a053ca45fc3d163ac76bcc7764736f6c634300081b0033","linkReferences":{}},"methodIdentifiers":{"BP_SCALE()":"d8b4cf4e","CHALLENGE_PERIOD()":"c3a079ed","CIRCUIT_VERIFICATION_KEY()":"8d5ca052","DEPOSIT_TOKEN()":"13f66587","MINIMUM_CONFIRMATION_DELTA()":"69224808","RESERVATION_LOCKUP_PERIOD()":"89a11f7a","SCALE()":"eced5526","TOKEN_DECIMALS()":"5b7f415c","VERIFIER_CONTRACT()":"b8b24592","addPermissionedHypernode(address)":"f53e31cf","buildPublicInputs(uint256,bytes32,bytes32,uint32,uint64,uint64,bytes32[],uint256[],bool)":"c7785af0","calculateRetargetHeight(uint256)":"b9b2a982","currentHeight()":"163de0c5","depositLiquidity(uint256,uint64,bytes22)":"803d5f62","depositVaults(uint256)":"5f4d0610","getAreDepositsPaused()":"b01c27d1","getBlockHash(uint256)":"ee82ac5e","getChainwork(uint256)":"cda7d82c","getDepositVault(uint256)":"276d080e","getDepositVaultUnreservedBalance(uint256)":"6512d057","getDepositVaultsLength()":"7dce5550","getLiquidityProvider(address)":"98f9e757","getReservation(uint256)":"d57763c3","getReservationLength()":"ea6fe03e","isDepositNewLiquidityPaused()":"8cc63cdd","owner()":"8da5cb5b","permissionedHypernodes(address)":"d825a692","protocolFeeBP()":"c5fba0b8","proveBlocks(uint32,uint64,uint64,bytes32[],uint256[],bytes)":"e102f9c1","releaseLiquidity(uint256)":"77891907","removePermissionedHypernode(address)":"4a8484ea","reserveLiquidity(address,uint256[],uint192[],address,uint256,uint256[])":"d8418403","submitSwapProof(uint256,bytes32,bytes32,uint32,uint64,uint64,bytes32[],uint256[],bytes)":"ecdea06f","swapReservations(uint256)":"6b994abb","transferOwnership(address)":"f2fde38b","updateExchangeRate(uint256,uint64,uint256[])":"505675dd","updateFeeRouter(address)":"73e149e6","updateNewLiquidityDepositsPaused(bool)":"7a9059a2","updateProtocolFee(uint8)":"0a7aa293","validateBlockExists(uint256)":"ed8b2b32","withdrawLiquidity(uint256,uint192,uint256[])":"a3db99d9"},"storageLayout":{"storage":[{"astId":47959,"contract":"src/RiftExchange.sol:RiftExchange","label":"blockchain","offset":0,"slot":"0","type":"t_mapping(t_uint256,t_bytes32)"},{"astId":47963,"contract":"src/RiftExchange.sol:RiftExchange","label":"chainworks","offset":0,"slot":"1","type":"t_mapping(t_uint256,t_uint256)"},{"astId":47965,"contract":"src/RiftExchange.sol:RiftExchange","label":"currentHeight","offset":0,"slot":"2","type":"t_uint256"},{"astId":46637,"contract":"src/RiftExchange.sol:RiftExchange","label":"owner","offset":0,"slot":"3","type":"t_address"},{"astId":49363,"contract":"src/RiftExchange.sol:RiftExchange","label":"isDepositNewLiquidityPaused","offset":20,"slot":"3","type":"t_bool"},{"astId":49366,"contract":"src/RiftExchange.sol:RiftExchange","label":"protocolFeeBP","offset":21,"slot":"3","type":"t_uint8"},{"astId":49368,"contract":"src/RiftExchange.sol:RiftExchange","label":"feeRouterAddress","offset":0,"slot":"4","type":"t_address"},{"astId":49372,"contract":"src/RiftExchange.sol:RiftExchange","label":"depositVaults","offset":0,"slot":"5","type":"t_array(t_struct(DepositVault)49308_storage)dyn_storage"},{"astId":49376,"contract":"src/RiftExchange.sol:RiftExchange","label":"swapReservations","offset":0,"slot":"6","type":"t_array(t_struct(SwapReservation)49289_storage)dyn_storage"},{"astId":49381,"contract":"src/RiftExchange.sol:RiftExchange","label":"liquidityProviders","offset":0,"slot":"7","type":"t_mapping(t_address,t_struct(LiquidityProvider)49293_storage)"},{"astId":49385,"contract":"src/RiftExchange.sol:RiftExchange","label":"permissionedHypernodes","offset":0,"slot":"8","type":"t_mapping(t_address,t_bool)"}],"types":{"t_address":{"encoding":"inplace","label":"address","numberOfBytes":"20"},"t_array(t_struct(DepositVault)49308_storage)dyn_storage":{"encoding":"dynamic_array","label":"struct RiftExchange.DepositVault[]","numberOfBytes":"32","base":"t_struct(DepositVault)49308_storage"},"t_array(t_struct(SwapReservation)49289_storage)dyn_storage":{"encoding":"dynamic_array","label":"struct RiftExchange.SwapReservation[]","numberOfBytes":"32","base":"t_struct(SwapReservation)49289_storage"},"t_array(t_uint192)dyn_storage":{"encoding":"dynamic_array","label":"uint192[]","numberOfBytes":"32","base":"t_uint192"},"t_array(t_uint256)dyn_storage":{"encoding":"dynamic_array","label":"uint256[]","numberOfBytes":"32","base":"t_uint256"},"t_array(t_uint64)dyn_storage":{"encoding":"dynamic_array","label":"uint64[]","numberOfBytes":"32","base":"t_uint64"},"t_bool":{"encoding":"inplace","label":"bool","numberOfBytes":"1"},"t_bytes22":{"encoding":"inplace","label":"bytes22","numberOfBytes":"22"},"t_bytes32":{"encoding":"inplace","label":"bytes32","numberOfBytes":"32"},"t_enum(ReservationState)49254":{"encoding":"inplace","label":"enum RiftExchange.ReservationState","numberOfBytes":"1"},"t_mapping(t_address,t_bool)":{"encoding":"mapping","key":"t_address","label":"mapping(address => bool)","numberOfBytes":"32","value":"t_bool"},"t_mapping(t_address,t_struct(LiquidityProvider)49293_storage)":{"encoding":"mapping","key":"t_address","label":"mapping(address => struct RiftExchange.LiquidityProvider)","numberOfBytes":"32","value":"t_struct(LiquidityProvider)49293_storage"},"t_mapping(t_uint256,t_bytes32)":{"encoding":"mapping","key":"t_uint256","label":"mapping(uint256 => bytes32)","numberOfBytes":"32","value":"t_bytes32"},"t_mapping(t_uint256,t_uint256)":{"encoding":"mapping","key":"t_uint256","label":"mapping(uint256 => uint256)","numberOfBytes":"32","value":"t_uint256"},"t_struct(DepositVault)49308_storage":{"encoding":"inplace","label":"struct RiftExchange.DepositVault","numberOfBytes":"160","members":[{"astId":49295,"contract":"src/RiftExchange.sol:RiftExchange","label":"owner","offset":0,"slot":"0","type":"t_address"},{"astId":49297,"contract":"src/RiftExchange.sol:RiftExchange","label":"depositTimestamp","offset":20,"slot":"0","type":"t_uint64"},{"astId":49299,"contract":"src/RiftExchange.sol:RiftExchange","label":"initialBalance","offset":0,"slot":"1","type":"t_uint256"},{"astId":49301,"contract":"src/RiftExchange.sol:RiftExchange","label":"unreservedBalance","offset":0,"slot":"2","type":"t_uint256"},{"astId":49303,"contract":"src/RiftExchange.sol:RiftExchange","label":"withdrawnAmount","offset":0,"slot":"3","type":"t_uint256"},{"astId":49305,"contract":"src/RiftExchange.sol:RiftExchange","label":"exchangeRate","offset":0,"slot":"4","type":"t_uint64"},{"astId":49307,"contract":"src/RiftExchange.sol:RiftExchange","label":"btcPayoutLockingScript","offset":8,"slot":"4","type":"t_bytes22"}]},"t_struct(LiquidityProvider)49293_storage":{"encoding":"inplace","label":"struct RiftExchange.LiquidityProvider","numberOfBytes":"32","members":[{"astId":49292,"contract":"src/RiftExchange.sol:RiftExchange","label":"depositVaultIndexes","offset":0,"slot":"0","type":"t_array(t_uint256)dyn_storage"}]},"t_struct(SwapReservation)49289_storage":{"encoding":"inplace","label":"struct RiftExchange.SwapReservation","numberOfBytes":"352","members":[{"astId":49256,"contract":"src/RiftExchange.sol:RiftExchange","label":"owner","offset":0,"slot":"0","type":"t_address"},{"astId":49258,"contract":"src/RiftExchange.sol:RiftExchange","label":"confirmationBlockHeight","offset":20,"slot":"0","type":"t_uint32"},{"astId":49260,"contract":"src/RiftExchange.sol:RiftExchange","label":"reservationTimestamp","offset":24,"slot":"0","type":"t_uint64"},{"astId":49262,"contract":"src/RiftExchange.sol:RiftExchange","label":"liquidityUnlockedTimestamp","offset":0,"slot":"1","type":"t_uint64"},{"astId":49265,"contract":"src/RiftExchange.sol:RiftExchange","label":"state","offset":8,"slot":"1","type":"t_enum(ReservationState)49254"},{"astId":49267,"contract":"src/RiftExchange.sol:RiftExchange","label":"ethPayoutAddress","offset":9,"slot":"1","type":"t_address"},{"astId":49269,"contract":"src/RiftExchange.sol:RiftExchange","label":"lpReservationHash","offset":0,"slot":"2","type":"t_bytes32"},{"astId":49271,"contract":"src/RiftExchange.sol:RiftExchange","label":"nonce","offset":0,"slot":"3","type":"t_bytes32"},{"astId":49273,"contract":"src/RiftExchange.sol:RiftExchange","label":"totalSatsInputIncludingProxyFee","offset":0,"slot":"4","type":"t_uint256"},{"astId":49275,"contract":"src/RiftExchange.sol:RiftExchange","label":"totalSwapOutputAmount","offset":0,"slot":"5","type":"t_uint256"},{"astId":49277,"contract":"src/RiftExchange.sol:RiftExchange","label":"proposedBlockHeight","offset":0,"slot":"6","type":"t_uint256"},{"astId":49279,"contract":"src/RiftExchange.sol:RiftExchange","label":"proposedBlockHash","offset":0,"slot":"7","type":"t_bytes32"},{"astId":49282,"contract":"src/RiftExchange.sol:RiftExchange","label":"vaultIndexes","offset":0,"slot":"8","type":"t_array(t_uint256)dyn_storage"},{"astId":49285,"contract":"src/RiftExchange.sol:RiftExchange","label":"amountsToReserve","offset":0,"slot":"9","type":"t_array(t_uint192)dyn_storage"},{"astId":49288,"contract":"src/RiftExchange.sol:RiftExchange","label":"expectedSatsOutput","offset":0,"slot":"10","type":"t_array(t_uint64)dyn_storage"}]},"t_uint192":{"encoding":"inplace","label":"uint192","numberOfBytes":"24"},"t_uint256":{"encoding":"inplace","label":"uint256","numberOfBytes":"32"},"t_uint32":{"encoding":"inplace","label":"uint32","numberOfBytes":"4"},"t_uint64":{"encoding":"inplace","label":"uint64","numberOfBytes":"8"},"t_uint8":{"encoding":"inplace","label":"uint8","numberOfBytes":"1"}}},"id":32}