{"abi":[{"type":"constructor","inputs":[{"name":"initialCheckpointHeight","type":"uint256","internalType":"uint256"},{"name":"initialBlockHash","type":"bytes32","internalType":"bytes32"},{"name":"initialRetargetBlockHash","type":"bytes32","internalType":"bytes32"},{"name":"initialChainwork","type":"uint256","internalType":"uint256"},{"name":"verifierContractAddress","type":"address","internalType":"address"},{"name":"depositTokenAddress","type":"address","internalType":"address"},{"name":"_proverReward","type":"uint256","internalType":"uint256"},{"name":"_releaserReward","type":"uint256","internalType":"uint256"},{"name":"_protocolAddress","type":"address","internalType":"address payable"},{"name":"_owner","type":"address","internalType":"address"},{"name":"_circuitVerificationKey","type":"bytes32","internalType":"bytes32"},{"name":"minimumConfirmationDelta","type":"uint8","internalType":"uint8"}],"stateMutability":"nonpayable"},{"type":"function","name":"CHALLENGE_PERIOD","inputs":[],"outputs":[{"name":"","type":"uint32","internalType":"uint32"}],"stateMutability":"view"},{"type":"function","name":"DEPOSIT_TOKEN","inputs":[],"outputs":[{"name":"","type":"address","internalType":"contract IERC20"}],"stateMutability":"view"},{"type":"function","name":"MAX_DEPOSIT_OUTPUTS","inputs":[],"outputs":[{"name":"","type":"uint16","internalType":"uint16"}],"stateMutability":"view"},{"type":"function","name":"MIN_ORDER_GAS_MULTIPLIER","inputs":[],"outputs":[{"name":"","type":"uint256","internalType":"uint256"}],"stateMutability":"view"},{"type":"function","name":"PROOF_GAS_COST","inputs":[],"outputs":[{"name":"","type":"uint256","internalType":"uint256"}],"stateMutability":"view"},{"type":"function","name":"RELEASE_GAS_COST","inputs":[],"outputs":[{"name":"","type":"uint256","internalType":"uint256"}],"stateMutability":"view"},{"type":"function","name":"RESERVATION_LOCKUP_PERIOD","inputs":[],"outputs":[{"name":"","type":"uint32","internalType":"uint32"}],"stateMutability":"view"},{"type":"function","name":"SAMPLING_SIZE","inputs":[],"outputs":[{"name":"","type":"uint8","internalType":"uint8"}],"stateMutability":"view"},{"type":"function","name":"TOKEN_DECIMALS","inputs":[],"outputs":[{"name":"","type":"uint8","internalType":"uint8"}],"stateMutability":"view"},{"type":"function","name":"buildProofPublicInputs","inputs":[{"name":"inputs","type":"tuple","internalType":"struct RiftExchange.ProofPublicInputs","components":[{"name":"natural_txid","type":"bytes32","internalType":"bytes32"},{"name":"merkle_root","type":"bytes32","internalType":"bytes32"},{"name":"lp_reservation_hash","type":"bytes32","internalType":"bytes32"},{"name":"order_nonce","type":"bytes32","internalType":"bytes32"},{"name":"lp_count","type":"uint64","internalType":"uint64"},{"name":"retarget_block_hash","type":"bytes32","internalType":"bytes32"},{"name":"safe_block_height","type":"uint64","internalType":"uint64"},{"name":"safe_block_height_delta","type":"uint64","internalType":"uint64"},{"name":"confirmation_block_height_delta","type":"uint64","internalType":"uint64"},{"name":"block_hashes","type":"bytes32[]","internalType":"bytes32[]"},{"name":"block_chainworks","type":"uint256[]","internalType":"uint256[]"}]}],"outputs":[{"name":"","type":"bytes","internalType":"bytes"}],"stateMutability":"pure"},{"type":"function","name":"calculateRetargetHeight","inputs":[{"name":"blockHeight","type":"uint256","internalType":"uint256"}],"outputs":[{"name":"","type":"uint256","internalType":"uint256"}],"stateMutability":"pure"},{"type":"function","name":"circuitVerificationKey","inputs":[],"outputs":[{"name":"","type":"bytes32","internalType":"bytes32"}],"stateMutability":"view"},{"type":"function","name":"currentConfirmationHeight","inputs":[],"outputs":[{"name":"","type":"uint256","internalType":"uint256"}],"stateMutability":"view"},{"type":"function","name":"currentHeight","inputs":[],"outputs":[{"name":"","type":"uint256","internalType":"uint256"}],"stateMutability":"view"},{"type":"function","name":"depositLiquidity","inputs":[{"name":"depositAmount","type":"uint256","internalType":"uint256"},{"name":"exchangeRate","type":"uint64","internalType":"uint64"},{"name":"btcPayoutLockingScript","type":"bytes22","internalType":"bytes22"},{"name":"vaultIndexToOverwrite","type":"int256","internalType":"int256"},{"name":"vaultIndexWithSameExchangeRate","type":"int256","internalType":"int256"}],"outputs":[],"stateMutability":"nonpayable"},{"type":"function","name":"depositVaults","inputs":[{"name":"","type":"uint256","internalType":"uint256"}],"outputs":[{"name":"owner","type":"address","internalType":"address"},{"name":"initialBalance","type":"uint256","internalType":"uint256"},{"name":"unreservedBalance","type":"uint256","internalType":"uint256"},{"name":"withdrawnAmount","type":"uint256","internalType":"uint256"},{"name":"exchangeRate","type":"uint64","internalType":"uint64"},{"name":"btcPayoutLockingScript","type":"bytes22","internalType":"bytes22"}],"stateMutability":"view"},{"type":"function","name":"emptyDepositVault","inputs":[{"name":"vaultIndex","type":"uint256","internalType":"uint256"}],"outputs":[],"stateMutability":"nonpayable"},{"type":"function","name":"getAreDepositsPaused","inputs":[],"outputs":[{"name":"","type":"bool","internalType":"bool"}],"stateMutability":"view"},{"type":"function","name":"getBlockHash","inputs":[{"name":"blockHeight","type":"uint256","internalType":"uint256"}],"outputs":[{"name":"","type":"bytes32","internalType":"bytes32"}],"stateMutability":"view"},{"type":"function","name":"getChainwork","inputs":[{"name":"blockHeight","type":"uint256","internalType":"uint256"}],"outputs":[{"name":"","type":"uint256","internalType":"uint256"}],"stateMutability":"view"},{"type":"function","name":"getDepositVault","inputs":[{"name":"depositIndex","type":"uint256","internalType":"uint256"}],"outputs":[{"name":"","type":"tuple","internalType":"struct RiftExchange.DepositVault","components":[{"name":"owner","type":"address","internalType":"address"},{"name":"initialBalance","type":"uint256","internalType":"uint256"},{"name":"unreservedBalance","type":"uint256","internalType":"uint256"},{"name":"withdrawnAmount","type":"uint256","internalType":"uint256"},{"name":"exchangeRate","type":"uint64","internalType":"uint64"},{"name":"btcPayoutLockingScript","type":"bytes22","internalType":"bytes22"}]}],"stateMutability":"view"},{"type":"function","name":"getDepositVaultUnreservedBalance","inputs":[{"name":"depositIndex","type":"uint256","internalType":"uint256"}],"outputs":[{"name":"","type":"uint256","internalType":"uint256"}],"stateMutability":"view"},{"type":"function","name":"getDepositVaultsLength","inputs":[],"outputs":[{"name":"","type":"uint256","internalType":"uint256"}],"stateMutability":"view"},{"type":"function","name":"getLiquidityProvider","inputs":[{"name":"lpAddress","type":"address","internalType":"address"}],"outputs":[{"name":"","type":"tuple","internalType":"struct RiftExchange.LiquidityProvider","components":[{"name":"depositVaultIndexes","type":"uint256[]","internalType":"uint256[]"}]}],"stateMutability":"view"},{"type":"function","name":"getReservation","inputs":[{"name":"reservationIndex","type":"uint256","internalType":"uint256"}],"outputs":[{"name":"","type":"tuple","internalType":"struct RiftExchange.SwapReservation","components":[{"name":"owner","type":"address","internalType":"address"},{"name":"confirmationBlockHeight","type":"uint32","internalType":"uint32"},{"name":"reservationTimestamp","type":"uint32","internalType":"uint32"},{"name":"unlockTimestamp","type":"uint32","internalType":"uint32"},{"name":"state","type":"uint8","internalType":"enum RiftExchange.ReservationState"},{"name":"ethPayoutAddress","type":"address","internalType":"address"},{"name":"lpReservationHash","type":"bytes32","internalType":"bytes32"},{"name":"nonce","type":"bytes32","internalType":"bytes32"},{"name":"totalSatsInputInlcudingProxyFee","type":"uint256","internalType":"uint256"},{"name":"totalSwapOutputAmount","type":"uint256","internalType":"uint256"},{"name":"prepaidFeeAmount","type":"int256","internalType":"int256"},{"name":"proposedBlockHeight","type":"uint256","internalType":"uint256"},{"name":"proposedBlockHash","type":"bytes32","internalType":"bytes32"},{"name":"vaultIndexes","type":"uint256[]","internalType":"uint256[]"},{"name":"amountsToReserve","type":"uint192[]","internalType":"uint192[]"},{"name":"expectedSatsOutput","type":"uint64[]","internalType":"uint64[]"}]}],"stateMutability":"view"},{"type":"function","name":"getReservationLength","inputs":[],"outputs":[{"name":"","type":"uint256","internalType":"uint256"}],"stateMutability":"view"},{"type":"function","name":"isDepositNewLiquidityPaused","inputs":[],"outputs":[{"name":"","type":"bool","internalType":"bool"}],"stateMutability":"view"},{"type":"function","name":"owner","inputs":[],"outputs":[{"name":"","type":"address","internalType":"address"}],"stateMutability":"view"},{"type":"function","name":"pauseDepositNewLiquidity","inputs":[],"outputs":[],"stateMutability":"nonpayable"},{"type":"function","name":"proposeTransactionProof","inputs":[{"name":"swapReservationIndex","type":"uint256","internalType":"uint256"},{"name":"bitcoinTxId","type":"bytes32","internalType":"bytes32"},{"name":"merkleRoot","type":"bytes32","internalType":"bytes32"},{"name":"safeBlockHeight","type":"uint32","internalType":"uint32"},{"name":"proposedBlockHeight","type":"uint64","internalType":"uint64"},{"name":"confirmationBlockHeight","type":"uint64","internalType":"uint64"},{"name":"blockHashes","type":"bytes32[]","internalType":"bytes32[]"},{"name":"blockChainworks","type":"uint256[]","internalType":"uint256[]"},{"name":"proof","type":"bytes","internalType":"bytes"}],"outputs":[],"stateMutability":"nonpayable"},{"type":"function","name":"protocolFeeBP","inputs":[],"outputs":[{"name":"","type":"uint8","internalType":"uint8"}],"stateMutability":"view"},{"type":"function","name":"proverReward","inputs":[],"outputs":[{"name":"","type":"uint256","internalType":"uint256"}],"stateMutability":"view"},{"type":"function","name":"refundAllLPs","inputs":[{"name":"depositVaultStartIndex","type":"uint256","internalType":"uint256"},{"name":"depositVaultEndIndex","type":"uint256","internalType":"uint256"},{"name":"expiredReservationIndexes","type":"uint256[]","internalType":"uint256[]"}],"outputs":[],"stateMutability":"nonpayable"},{"type":"function","name":"releaseLiquidity","inputs":[{"name":"swapReservationIndex","type":"uint256","internalType":"uint256"}],"outputs":[],"stateMutability":"nonpayable"},{"type":"function","name":"releaserReward","inputs":[],"outputs":[{"name":"","type":"uint256","internalType":"uint256"}],"stateMutability":"view"},{"type":"function","name":"reserveLiquidity","inputs":[{"name":"vaultIndexesToReserve","type":"uint256[]","internalType":"uint256[]"},{"name":"amountsToReserve","type":"uint192[]","internalType":"uint192[]"},{"name":"ethPayoutAddress","type":"address","internalType":"address"},{"name":"totalSatsInputInlcudingProxyFee","type":"uint256","internalType":"uint256"},{"name":"expiredSwapReservationIndexes","type":"uint256[]","internalType":"uint256[]"}],"outputs":[],"stateMutability":"nonpayable"},{"type":"function","name":"setSwapReservationState","inputs":[{"name":"swapReservationIndex","type":"uint256","internalType":"uint256"},{"name":"state","type":"uint8","internalType":"enum RiftExchange.ReservationState"}],"outputs":[],"stateMutability":"nonpayable"},{"type":"function","name":"swapReservations","inputs":[{"name":"","type":"uint256","internalType":"uint256"}],"outputs":[{"name":"owner","type":"address","internalType":"address"},{"name":"confirmationBlockHeight","type":"uint32","internalType":"uint32"},{"name":"reservationTimestamp","type":"uint32","internalType":"uint32"},{"name":"unlockTimestamp","type":"uint32","internalType":"uint32"},{"name":"state","type":"uint8","internalType":"enum RiftExchange.ReservationState"},{"name":"ethPayoutAddress","type":"address","internalType":"address"},{"name":"lpReservationHash","type":"bytes32","internalType":"bytes32"},{"name":"nonce","type":"bytes32","internalType":"bytes32"},{"name":"totalSatsInputInlcudingProxyFee","type":"uint256","internalType":"uint256"},{"name":"totalSwapOutputAmount","type":"uint256","internalType":"uint256"},{"name":"prepaidFeeAmount","type":"int256","internalType":"int256"},{"name":"proposedBlockHeight","type":"uint256","internalType":"uint256"},{"name":"proposedBlockHash","type":"bytes32","internalType":"bytes32"}],"stateMutability":"view"},{"type":"function","name":"transferOwnership","inputs":[{"name":"newOwner","type":"address","internalType":"address"}],"outputs":[],"stateMutability":"nonpayable"},{"type":"function","name":"unpauseDepositNewLiquidity","inputs":[],"outputs":[],"stateMutability":"nonpayable"},{"type":"function","name":"updateExchangeRate","inputs":[{"name":"globalVaultIndex","type":"uint256","internalType":"uint256"},{"name":"localVaultIndex","type":"uint256","internalType":"uint256"},{"name":"newexchangeRate","type":"uint64","internalType":"uint64"},{"name":"expiredReservationIndexes","type":"uint256[]","internalType":"uint256[]"}],"outputs":[],"stateMutability":"nonpayable"},{"type":"function","name":"updateProtocolAddress","inputs":[{"name":"newProtocolAddress","type":"address","internalType":"address payable"}],"outputs":[],"stateMutability":"nonpayable"},{"type":"function","name":"updateProtocolFee","inputs":[{"name":"newProtocolFeeBP","type":"uint8","internalType":"uint8"}],"outputs":[],"stateMutability":"nonpayable"},{"type":"function","name":"updateRewards","inputs":[{"name":"newProverReward","type":"uint256","internalType":"uint256"},{"name":"newReleaserReward","type":"uint256","internalType":"uint256"}],"outputs":[],"stateMutability":"nonpayable"},{"type":"function","name":"validateBlockExists","inputs":[{"name":"blockHeight","type":"uint256","internalType":"uint256"}],"outputs":[],"stateMutability":"view"},{"type":"function","name":"verifierContract","inputs":[],"outputs":[{"name":"","type":"address","internalType":"contract ISP1Verifier"}],"stateMutability":"view"},{"type":"function","name":"withdrawLiquidity","inputs":[{"name":"globalVaultIndex","type":"uint256","internalType":"uint256"},{"name":"localVaultIndex","type":"uint256","internalType":"uint256"},{"name":"amountToWithdraw","type":"uint192","internalType":"uint192"},{"name":"expiredReservationIndexes","type":"uint256[]","internalType":"uint256[]"}],"outputs":[],"stateMutability":"nonpayable"},{"type":"event","name":"BlocksAdded","inputs":[{"name":"startBlockHeight","type":"uint256","indexed":false,"internalType":"uint256"},{"name":"count","type":"uint256","indexed":false,"internalType":"uint256"}],"anonymous":false},{"type":"event","name":"LiquidityReserved","inputs":[{"name":"reserver","type":"address","indexed":true,"internalType":"address"},{"name":"swapReservationIndex","type":"uint256","indexed":false,"internalType":"uint256"},{"name":"orderNonce","type":"bytes32","indexed":false,"internalType":"bytes32"}],"anonymous":false},{"type":"event","name":"OwnershipTransferred","inputs":[{"name":"user","type":"address","indexed":true,"internalType":"address"},{"name":"newOwner","type":"address","indexed":true,"internalType":"address"}],"anonymous":false},{"type":"event","name":"ProofProposed","inputs":[{"name":"prover","type":"address","indexed":true,"internalType":"address"},{"name":"swapReservationIndex","type":"uint256","indexed":false,"internalType":"uint256"},{"name":"orderNonce","type":"bytes32","indexed":false,"internalType":"bytes32"}],"anonymous":false},{"type":"event","name":"SwapComplete","inputs":[{"name":"swapReservationIndex","type":"uint256","indexed":false,"internalType":"uint256"},{"name":"orderNonce","type":"bytes32","indexed":false,"internalType":"bytes32"}],"anonymous":false},{"type":"error","name":"BlockDoesNotExist","inputs":[]},{"type":"error","name":"InvaidSameExchangeRatevaultIndex","inputs":[]},{"type":"error","name":"InvalidConfirmationBlock","inputs":[]},{"type":"error","name":"InvalidProposedBlockOverwrite","inputs":[]},{"type":"error","name":"InvalidSafeBlock","inputs":[]},{"type":"error","name":"InvalidUpdateWithActiveReservations","inputs":[]},{"type":"error","name":"InvalidVaultIndex","inputs":[]},{"type":"error","name":"InvalidVaultUpdate","inputs":[]},{"type":"error","name":"NotEnoughLiquidity","inputs":[]},{"type":"error","name":"NotVaultOwner","inputs":[]},{"type":"error","name":"OverwrittenProposedBlock","inputs":[]},{"type":"error","name":"ReservationNotExpired","inputs":[]},{"type":"error","name":"ReservationNotUnlocked","inputs":[]},{"type":"error","name":"StillInChallengePeriod","inputs":[]},{"type":"error","name":"WithdrawalAmountError","inputs":[]},{"type":"error","name":"exchangeRateZero","inputs":[]}],"bytecode":{"object":"0x61012060405260048054600560a91b61ffff60a01b19909116179055600a80546001600160a01b03191673f39fd6e51aad88f6f4ce6ab8827279cfffb922661790553480156200004e57600080fd5b50604051620040bd380380620040bd833981016040819052620000719162000228565b60028c905560008c81526001602090815260408083208c90559082905281208c905583908d908b908e908e908690829080620000ad88620001d6565b81526020810191909152604090810160009081209290925560ff909216608052600480546001600160a01b0389166001600160a01b03199091168117909155915191955093507f8be0079c531659141344cd1fd0a4f28419497f9722a3daafe3b4186f6b6457e09250839150a3506101008290526001600160a01b0380891660e052871660a08190526040805163313ce56760e01b8152905163313ce567916004808201926020929091908290030181865afa15801562000172573d6000803e3d6000fd5b505050506040513d601f19601f82011682018060405250810190620001989190620002eb565b60ff1660c052505050600592909255600655600a80546001600160a01b0319166001600160a01b039092169190911790555062000355945050505050565b6000620001e66107e08362000310565b620001f2908362000333565b92915050565b6001600160a01b03811681146200020e57600080fd5b50565b805160ff811681146200022357600080fd5b919050565b6000806000806000806000806000806000806101808d8f0312156200024c57600080fd5b8c519b5060208d01519a5060408d0151995060608d0151985060808d01516200027581620001f8565b60a08e01519098506200028881620001f8565b8097505060c08d0151955060e08d015194506101008d0151620002ab81620001f8565b6101208e0151909450620002bf81620001f8565b6101408e01519093509150620002d96101608e0162000211565b90509295989b509295989b509295989b565b600060208284031215620002fe57600080fd5b620003098262000211565b9392505050565b6000826200032e57634e487b7160e01b600052601260045260246000fd5b500690565b81810381811115620001f257634e487b7160e01b600052601160045260246000fd5b60805160a05160c05160e05161010051613ccf620003ee600039600081816103a001526125f601526000818161069501526125c901526000818161041b0152818161084c01526124570152600081816102cf01528181610f1d01528181610ffb015281816116fc01528181611ad901528181611c3f01528181611d3701528181612072015261272e01526000612a990152613ccf6000f3fe608060405234801561001057600080fd5b50600436106102955760003560e01c80638cc63cdd11610167578063c3a079ed116100ce578063eb6c752211610087578063eb6c7522146106df578063ed8b2b32146106e9578063edd67b72146106fc578063ee82ac5e1461070f578063f2fde38b1461072f578063fba781661461074257600080fd5b8063c3a079ed14610653578063c5fba0b81461065c578063cda7d82c14610670578063cf69568814610690578063d57763c3146106b7578063ea6fe03e146106d757600080fd5b80639cc7eab9116101205780639cc7eab9146105ef5780639cdb8e5a146105f8578063ad062e5514610613578063aeacb2e71461061b578063b01c27d11461062e578063b9b2a9821461064057600080fd5b80638cc63cdd1461055b5780638da5cb5b1461057f5780638f1546b41461059257806397e50818146105b257806398f9e757146105c55780639a64279c146105e557600080fd5b806358e2b6761161020b5780636dcc17c8116101c45780636dcc17c8146104f357806370c60e8f146104fc578063778919071461050f5780637b93291f146105225780637dce55501461053557806389a11f7a1461053d57600080fd5b806358e2b676146104035780635b7f415c146104165780635f4d06101461044f5780635f5d5b6a146104ac5780636512d057146104b45780636b994abb146104c757600080fd5b8063276d080e1161025d578063276d080e146103255780633d7b22b31461039b5780634491ba54146103c2578063490d4c5f146103ca57806351a7f1cd146103dd57806356fe6f86146103f057600080fd5b80630140e1831461029a5780630a7aa293146102af578063130d1392146102c257806313f66587146102ca578063163de0c51461030e575b600080fd5b6102ad6102a8366004613046565b61074b565b005b6102ad6102bd366004613144565b6110c9565b6102ad61111c565b6102f17f000000000000000000000000000000000000000000000000000000000000000081565b6040516001600160a01b0390911681526020015b60405180910390f35b61031760025481565b604051908152602001610305565b610338610333366004613167565b6111af565b604051610305919081516001600160a01b031681526020808301519082015260408083015190820152606080830151908201526080808301516001600160401b03169082015260a0918201516001600160501b0319169181019190915260c00190565b6103177f000000000000000000000000000000000000000000000000000000000000000081565b6102ad611272565b6102ad6103d8366004613167565b611304565b6102ad6103eb366004613197565b61134d565b6102ad6103fe3660046131f4565b61177a565b6102ad610411366004613254565b61186f565b61043d7f000000000000000000000000000000000000000000000000000000000000000081565b60405160ff9091168152602001610305565b61046261045d366004613167565b6118bb565b604080516001600160a01b03909716875260208701959095529385019290925260608401526001600160401b031660808301526001600160501b03191660a082015260c001610305565b610317600281565b6103176104c2366004613167565b61191b565b6104da6104d5366004613167565b611949565b6040516103059d9c9b9a999897969594939291906132a9565b61031760055481565b6102ad61050a366004613332565b6119df565b6102ad61051d366004613167565b611b5a565b6102ad610530366004613381565b611df9565b600954610317565b61054661708081565b60405163ffffffff9091168152602001610305565b60045461056f90600160a01b900460ff1681565b6040519015158152602001610305565b6004546102f1906001600160a01b031681565b6105a56105a03660046133b5565b611e48565b6040516103059190613513565b6102ad6105c0366004613526565b611e71565b6105d86105d3366004613254565b611ea6565b6040516103059190613584565b6103176203345081565b61031760065481565b610600603281565b60405161ffff9091168152602001610305565b61043d600a81565b6102ad6106293660046135a7565b611f29565b600454600160a01b900460ff1661056f565b61031761064e366004613167565b6120a9565b61054661025881565b60045461043d90600160a81b900460ff1681565b61031761067e366004613167565b60009081526001602052604090205490565b6102f17f000000000000000000000000000000000000000000000000000000000000000081565b6106ca6106c5366004613167565b6120c7565b6040516103059190613648565b600854610317565b610317620668a081565b6102ad6106f7366004613167565b6123c2565b6102ad61070a36600461380b565b6123f1565b61031761071d366004613167565b60009081526020819052604090205490565b6102ad61073d366004613254565b612814565b61031760035481565b600080600087516001600160401b0381111561076957610769612f09565b604051908082528060200260200182016040528015610792578160200160208202803683370190505b50905060005b87518110156108c357600060098a83815181106107b7576107b76138e2565b6020026020010151815481106107cf576107cf6138e2565b600091825260209091206004600590920201015489516001600160401b039091169150899083908110610804576108046138e2565b60200260200101516001600160c01b031685610820919061390e565b945060006108708a8481518110610839576108396138e2565b60200260200101516001600160c01b03167f000000000000000000000000000000000000000000000000000000000000000061288a565b9050600061087e8383613937565b905061088a818761390e565b95508085858151811061089f5761089f6138e2565b6001600160401b039290921660209283029190910190910152505050600101610798565b5060006108da670de0b6b3a764000061271061394b565b600454600160a81b900460ff166108f9670de0b6b3a76400008761394b565b610903919061394b565b61090d9190613937565b60055460065491925090610920876128c6565b6109298761295a565b6000805b8c51811015610ab057600286828151811061094a5761094a6138e2565b602002602001015160098f8481518110610966576109666138e2565b60200260200101518154811061097e5761097e6138e2565b600091825260209182902060046005909202010154604080516001600160401b03909416928401929092526001600160501b0319600160401b90910460501b16908201526060810184905260800160408051601f19818403018152908290526109e691613962565b602060405180830381855afa158015610a03573d6000803e3d6000fd5b5050506040513d601f19601f82011682018060405250810190610a26919061397e565b915060098d8281518110610a3c57610a3c6138e2565b602002602001015181548110610a5457610a546138e2565b9060005260206000209060050201600201548c8281518110610a7857610a786138e2565b60200260200101516001600160c01b03161115610aa857604051634323a55560e01b815260040160405180910390fd5b60010161092d565b50600854604080516001600160a01b038d1660208083019190915242828401524660608301526080820185905260a0808301949094528251808303909401845260c09091019091528151910120885115610c3257600060088a600081518110610b1b57610b1b6138e2565b602002602001015181548110610b3357610b336138e2565b60009182526020909120600c9091020180546001600160a01b0319163317815560018082018054929350909160ff191682800217905550600181018054610100600160a81b0319166101006001600160a01b038f160217905580546001600160c01b0316600160c01b4263ffffffff16026001600160e01b0316178155610bba848661390e565b81600601819055508881600501819055508181600301819055508a81600401819055508d816009019080519060200190610bf5929190612da5565b508c81600a019080519060200190610c0e929190612df0565b50600281018390558651610c2b90600b83019060208a0190612e45565b5050610e8a565b60408051610200810182523381526000602082018190524263ffffffff1692820192909252606081019190915260089060808101600181526020018d6001600160a01b031681526020018481526020018381526020018c81526020018a81526020018587610ca0919061390e565b8152602001600081526020016000801b81526020018f81526020018e81526020018881525090806001815401808255809150506001900390600052602060002090600c020160009091909190915060008201518160000160006101000a8154816001600160a01b0302191690836001600160a01b0316021790555060208201518160000160146101000a81548163ffffffff021916908363ffffffff16021790555060408201518160000160186101000a81548163ffffffff021916908363ffffffff160217905550606082015181600001601c6101000a81548163ffffffff021916908363ffffffff16021790555060808201518160010160006101000a81548160ff02191690836004811115610dba57610dba613271565b021790555060a0820151600182018054610100600160a81b0319166101006001600160a01b03909316830217905560c0830151600283015560e08301516003830155820151600482015561012082015160058201556101408201516006820155610160820151600782015561018082015160088201556101a08201518051610e4c916009840191602090910190612da5565b506101c08201518051610e6991600a840191602090910190612df0565b506101e08201518051610e8691600b840191602090910190612e45565b5050505b60005b8d51811015610f12578c8181518110610ea857610ea86138e2565b60200260200101516001600160c01b031660098f8381518110610ecd57610ecd6138e2565b602002602001015181548110610ee557610ee56138e2565b90600052602060002090600502016002016000828254610f059190613997565b9091555050600101610e8d565b506001600160a01b037f0000000000000000000000000000000000000000000000000000000000000000166323b872dd333086610f4f8a8a61390e565b610f59919061390e565b6040516001600160e01b031960e086901b1681526001600160a01b03938416600482015292909116602483015260448201526064016020604051808303816000875af1158015610fad573d6000803e3d6000fd5b505050506040513d601f19601f82011682018060405250810190610fd191906139aa565b50600a5460405163a9059cbb60e01b81526001600160a01b039182166004820152602481018790527f00000000000000000000000000000000000000000000000000000000000000009091169063a9059cbb906044016020604051808303816000875af1158015611046573d6000803e3d6000fd5b505050506040513d601f19601f8201168201806040525081019061106a91906139aa565b50337f5956135c9be999a50f7ff4ea49ddf1485bc321ab333dc7a0877633eeb4752893600161109860085490565b6110a29190613997565b6040805191825260208201859052015b60405180910390a250505050505050505050505050565b6004546001600160a01b031633146110fc5760405162461bcd60e51b81526004016110f3906139cc565b60405180910390fd5b6004805460ff909216600160a81b0260ff60a81b19909216919091179055565b6004546001600160a01b031633146111465760405162461bcd60e51b81526004016110f3906139cc565b600454600160a01b900460ff161561119a5760405162461bcd60e51b81526020600482015260176024820152761b995dc819195c1bdcda5d1cc8185c99481c185d5cd959604a1b60448201526064016110f3565b6004805460ff60a01b1916600160a01b179055565b6040805160c081018252600080825260208201819052918101829052606081018290526080810182905260a0810191909152600982815481106111f4576111f46138e2565b60009182526020918290206040805160c081018252600590930290910180546001600160a01b03168352600181015493830193909352600283015490820152600382015460608201526004909101546001600160401b03811660808301526001600160501b0319600160401b90910460501b1660a082015292915050565b6004546001600160a01b0316331461129c5760405162461bcd60e51b81526004016110f3906139cc565b600454600160a01b900460ff166112f55760405162461bcd60e51b815260206004820152601b60248201527f6e6577206465706f7369747320617265206e6f7420706175736564000000000060448201526064016110f3565b6004805460ff60a01b19169055565b600060098281548110611319576113196138e2565b6000918252602082206001600590920201908101829055600281019190915560040180546001600160f01b03191690555050565b600454600160a01b900460ff16156113a15760405162461bcd60e51b81526020600482015260176024820152761b995dc819195c1bdcda5d1cc8185c99481c185d5cd959604a1b60448201526064016110f3565b836001600160401b03166000036113cb57604051635c4ad48d60e11b815260040160405180910390fd5b336000908152600760205260408120549003611419576040805160006020808301828152838501855283523382526007815292902081518051929391926114159284920190612da5565b5050505b80600019146114a557600081905060006009828154811061143c5761143c6138e2565b6000918252602090912060059091020160048101549091506001600160401b03878116911603611485578681600201600082825461147a919061390e565b9091555061149e9050565b60405163927ce9e760e01b815260040160405180910390fd5b50506116a6565b816000191461154c576000600983815481106114c3576114c36138e2565b9060005260206000209060050201905080600201546000146114f85760405163721e09df60e01b815260040160405180910390fd5b80546001600160a01b031916331781556001810186905560028101869055600060038201556004018054605085901c600160401b026001600160f01b03199091166001600160401b038716171790556116a6565b6040805160c081018252338152602081018781529181018781526000606083018181526001600160401b03808a16608086019081526001600160501b03198a1660a08701908152600980546001810182559552955160059094027f6e1540171b6c0c960b71a7020d9f60077f6af931a8bbf590da0223dacf75c7af810180546001600160a01b03969096166001600160a01b03199096169590951790945595517f6e1540171b6c0c960b71a7020d9f60077f6af931a8bbf590da0223dacf75c7b084015592517f6e1540171b6c0c960b71a7020d9f60077f6af931a8bbf590da0223dacf75c7b1830155517f6e1540171b6c0c960b71a7020d9f60077f6af931a8bbf590da0223dacf75c7b282015592517f6e1540171b6c0c960b71a7020d9f60077f6af931a8bbf590da0223dacf75c7b39093018054925160501c600160401b026001600160f01b031990931693909116929092171790555b3360009081526007602052604090206009546116c490600190613997565b815460018101835560009283526020909220909101556040516323b872dd60e01b8152336004820152306024820152604481018690527f00000000000000000000000000000000000000000000000000000000000000006001600160a01b0316906323b872dd906064015b6020604051808303816000875af115801561174e573d6000803e3d6000fd5b505050506040513d601f19601f8201168201806040525081019061177291906139aa565b505050505050565b33600090815260076020526040902080548591908590811061179e5761179e6138e2565b9060005260206000200154146117c757604051630e7fea9d60e01b815260040160405180910390fd5b816001600160401b03166000036117f157604051636e5a187760e11b815260040160405180910390fd5b600060098581548110611806576118066138e2565b9060005260206000209060050201905061181f8261295a565b8060010154816002015414611847576040516391bc6cc360e01b815260040160405180910390fd5b600401805467ffffffffffffffff19166001600160401b039390931692909217909155505050565b6004546001600160a01b031633146118995760405162461bcd60e51b81526004016110f3906139cc565b600a80546001600160a01b0319166001600160a01b0392909216919091179055565b600981815481106118cb57600080fd5b6000918252602090912060059091020180546001820154600283015460038401546004909401546001600160a01b039093169450909290916001600160401b03811690600160401b900460501b86565b600060098281548110611930576119306138e2565b9060005260206000209060050201600201549050919050565b6008818154811061195957600080fd5b60009182526020909120600c90910201805460018201546002830154600384015460048501546005860154600687015460078801546008909801546001600160a01b038089169a5063ffffffff600160a01b8a0481169a600160c01b8b0482169a600160e01b90049091169860ff8116986101009091049092169691959194919391928d565b6004546001600160a01b03163314611a095760405162461bcd60e51b81526004016110f3906139cc565b6009548310611a505760405162461bcd60e51b8152602060048201526013602482015272092dcecc2d8d2c840e6e8c2e4e840d2dcc8caf606b1b60448201526064016110f3565b611a598161295a565b600954821115611a695760095491505b825b82811015611b5457600060098281548110611a8857611a886138e2565b906000526020600020906005020190506000816002015490506000811115611b4a5760006002830155815460405163a9059cbb60e01b81526001600160a01b039182166004820152602481018390527f00000000000000000000000000000000000000000000000000000000000000009091169063a9059cbb906044016020604051808303816000875af1158015611b24573d6000803e3d6000fd5b505050506040513d601f19601f82011682018060405250810190611b4891906139aa565b505b5050600101611a6b565b50505050565b600060088281548110611b6f57611b6f6138e2565b60009182526020909120600c9091020190506002600182015460ff166004811115611b9c57611b9c613271565b14611bba5760405163b38c767b60e01b815260040160405180910390fd5b8054600160e01b900463ffffffff16421015611be957604051632d5c37f560e21b815260040160405180910390fd5b6008810154600782015460009081526020819052604090205403611c205760405163c1f6fa5160e01b815260040160405180910390fd5b60065460405163a9059cbb60e01b8152336004820152602481018290527f00000000000000000000000000000000000000000000000000000000000000006001600160a01b03169063a9059cbb906044016020604051808303816000875af1158015611c90573d6000803e3d6000fd5b505050506040513d601f19601f82011682018060405250810190611cb491906139aa565b5080826006016000828254611cc991906139f2565b9091555050600682015460001315611d00578160060154826005016000828254611cf3919061390e565b9091555050600060068301555b6001820154600583015460405163a9059cbb60e01b81526101009092046001600160a01b03908116600484015260248301919091527f0000000000000000000000000000000000000000000000000000000000000000169063a9059cbb906044016020604051808303816000875af1158015611d80573d6000803e3d6000fd5b505050506040513d601f19601f82011682018060405250810190611da491906139aa565b5060018201805460ff191660039081179091558201546040805185815260208101929092527f12245c00d428a4c558061d2f69fe154a203bd2fb4a65b6c3e73e95ccdc735d18910160405180910390a1505050565b8060088381548110611e0d57611e0d6138e2565b90600052602060002090600c020160010160006101000a81548160ff02191690836004811115611e3f57611e3f613271565b02179055505050565b606081604051602001611e5b9190613a19565b6040516020818303038152906040529050919050565b6004546001600160a01b03163314611e9b5760405162461bcd60e51b81526004016110f3906139cc565b600591909155600655565b6040805160208082018352606082526001600160a01b03841660009081526007825283902083518154808402820186018652928101838152939490939192849291849190840182828015611f1957602002820191906000526020600020905b815481526020019060010190808311611f05575b5050505050815250509050919050565b336000908152600760205260409020805485919085908110611f4d57611f4d6138e2565b906000526020600020015414611f7657604051630e7fea9d60e01b815260040160405180910390fd5b611f7f8161295a565b6009548410611fa15760405163721e09df60e01b815260040160405180910390fd5b600060098581548110611fb657611fb66138e2565b90600052602060002090600502019050826001600160c01b031660001480611fea57508060020154836001600160c01b0316115b156120085760405163b4e3d41360e01b815260040160405180910390fd5b826001600160c01b03168160020160008282546120259190613997565b92505081905550826001600160c01b0316816003016000828254612049919061390e565b909155505060405163a9059cbb60e01b81523360048201526001600160c01b03841660248201527f00000000000000000000000000000000000000000000000000000000000000006001600160a01b03169063a9059cbb9060440161172f565b60006120b76107e083613af8565b6120c19083613997565b92915050565b612159604080516102008101825260008082526020820181905291810182905260608101829052906080820190815260200160006001600160a01b03168152602001600080191681526020016000801916815260200160008152602001600081526020016000815260200160008152602001600080191681526020016060815260200160608152602001606081525090565b6008828154811061216c5761216c6138e2565b60009182526020918290206040805161020081018252600c90930290910180546001600160a01b038116845263ffffffff600160a01b8204811695850195909552600160c01b8104851692840192909252600160e01b90910490921660608201526001820154909190608083019060ff1660048111156121ee576121ee613271565b60048111156121ff576121ff613271565b81526020016001820160019054906101000a90046001600160a01b03166001600160a01b03166001600160a01b0316815260200160028201548152602001600382015481526020016004820154815260200160058201548152602001600682015481526020016007820154815260200160088201548152602001600982018054806020026020016040519081016040528092919081815260200182805480156122c757602002820191906000526020600020905b8154815260200190600101908083116122b3575b50505050508152602001600a820180548060200260200160405190810160405280929190818152602001828054801561232957602002820191906000526020600020905b81546001600160c01b0316815260019091019060200180831161230b575b50505050508152602001600b8201805480602002602001604051908101604052809291908181526020018280548015611f1957602002820191906000526020600020906000905b82829054906101000a90046001600160401b03166001600160401b0316815260200190600801906020826007010492830192600103820291508084116123705790505050505050815250509050919050565b6000818152602081905260409020546123ee5760405163fa4a5e4560e01b815260040160405180910390fd5b50565b600060088a81548110612406576124066138e2565b90600052602060002090600c020190506000805b600a83015481101561250057600061247b84600a018381548110612440576124406138e2565b6000918252602090912001546001600160c01b03167f000000000000000000000000000000000000000000000000000000000000000061288a565b905060006009856009018481548110612496576124966138e2565b9060005260206000200154815481106124b1576124b16138e2565b600091825260208220600460059092020101546001600160401b031691506124d98383612a64565b90506124e58183612a77565b6124ef908661390e565b9450506001909201915061241a9050565b5060006125af6040518061016001604052808d81526020018c8152602001856002015481526020018560030154815260200185600901805490506001600160401b0316815260200161255a61071d8d63ffffffff166120a9565b815263ffffffff8c166020820181905260409091019061257a908c613b0c565b6001600160401b031681526020016125928b8b613b0c565b6001600160401b0316815260200188815260200187815250611e48565b60405163020a49e360e51b81529091506001600160a01b037f000000000000000000000000000000000000000000000000000000000000000016906341493c6090612622907f00000000000000000000000000000000000000000000000000000000000000009085908990600401613b2c565b60006040518083038186803b15801561263a57600080fd5b505afa15801561264e573d6000803e3d6000fd5b506126859250505063ffffffff8a166001600160401b038a8116908a168989612677858f613b0c565b6001600160401b0316612a83565b60018301805460ff191660021790556126a061025842613b57565b83546001600160e01b0316600160e01b63ffffffff928316021784556001600160401b038916600785015586906001906126dc908c168b613b0c565b6126e69190613b0c565b6001600160401b0316815181106126ff576126ff6138e2565b6020908102919091010151600884015560055460405163a9059cbb60e01b8152336004820152602481018290527f00000000000000000000000000000000000000000000000000000000000000006001600160a01b03169063a9059cbb906044016020604051808303816000875af115801561277f573d6000803e3d6000fd5b505050506040513d601f19601f820116820180604052508101906127a391906139aa565b506000846006015412156127d65783600601548460050160008282546127c9919061390e565b9091555050600060068501555b6003840154604080518f8152602081019290925233917f184abe81dc2f02915b1cd93143dc1987a077040f7de69181dd5eaf9b37bb715c91016110b2565b6004546001600160a01b0316331461283e5760405162461bcd60e51b81526004016110f3906139cc565b600480546001600160a01b0319166001600160a01b03831690811790915560405133907f8be0079c531659141344cd1fd0a4f28419497f9722a3daafe3b4186f6b6457e090600090a350565b600060128260ff1610156128bf576128a3826012613b74565b6128ae90600a613c71565b6128b8908461394b565b90506120c1565b5090919050565b60005b81518110156129565761708063ffffffff1660088383815181106128ef576128ef6138e2565b602002602001015181548110612907576129076138e2565b60009182526020909120600c909102015461292f90600160c01b900463ffffffff1642613997565b101561294e576040516326349d6b60e01b815260040160405180910390fd5b6001016128c9565b5050565b60005b81518110156129565761296f826128c6565b60006008838381518110612985576129856138e2565b60200260200101518154811061299d5761299d6138e2565b90600052602060002090600c0201905060005b6009820154811015612a4d57600060098360090183815481106129d5576129d56138e2565b9060005260206000200154815481106129f0576129f06138e2565b9060005260206000209060050201905082600a018281548110612a1557612a156138e2565b60009182526020822001546002830180546001600160c01b03909216929091612a3f90849061390e565b9091555050506001016129b0565b506001908101805460ff191660041790550161295d565b6000612a708284613937565b9392505050565b6000612a70828461394b565b60025460008181526001602052604090205460ff7f000000000000000000000000000000000000000000000000000000000000000016612ac38888613997565b1015612b1e5760008681526020819052604090205485518690612ae890600190613997565b81518110612af857612af86138e2565b602002602001015114612b1e576040516341305f6360e01b815260040160405180910390fd5b81881115612b3f5760405163575f3da360e01b815260040160405180910390fd5b848381518110612b5157612b516138e2565b60200260200101516000808981526020019081526020016000205403612b78575050611772565b60008781526020819052604090205415801590612bbb57508360018551612b9f9190613997565b81518110612baf57612baf6138e2565b60200260200101518110155b15612bd9576040516371e98f3d60e11b815260040160405180910390fd5b81871115612ce557818803612c4e57848381518110612bfa57612bfa6138e2565b602002602001015160008089815260200190815260200160002081905550838381518110612c2a57612c2a6138e2565b60200260200101516001600089815260200190815260200160002081905550612d4f565b81881015612ce057875b878111612cde5785612c6a8a83613997565b81518110612c7a57612c7a6138e2565b60209081029190910181015160008381529182905260409091205584612ca08a83613997565b81518110612cb057612cb06138e2565b6020908102919091018101516000838152600190925260409091205580612cd681613c80565b915050612c58565b505b612d4f565b81871015612d4f57848381518110612cff57612cff6138e2565b602002602001015160008089815260200190815260200160002081905550838381518110612d2f57612d2f6138e2565b602002602001015160016000898152602001908152602001600020819055505b600254871115612d5f5760028790555b8451604080518a815260208101929092527fb68477c768bbb33b4f238a3dfd17c33c499268c59cd042b7936bbc23dc2bdd34910160405180910390a15050505050505050565b828054828255906000526020600020908101928215612de0579160200282015b82811115612de0578251825591602001919060010190612dc5565b50612dec929150612ef4565b5090565b828054828255906000526020600020908101928215612de0579160200282015b82811115612de057825182546001600160c01b0319166001600160c01b03909116178255602090920191600190910190612e10565b82805482825590600052602060002090600301600490048101928215612de05791602002820160005b83821115612eb857835183826101000a8154816001600160401b0302191690836001600160401b031602179055509260200192600801602081600701049283019260010302612e6e565b8015612eeb5782816101000a8154906001600160401b030219169055600801602081600701049283019260010302612eb8565b5050612dec9291505b5b80821115612dec5760008155600101612ef5565b634e487b7160e01b600052604160045260246000fd5b60405161016081016001600160401b0381118282101715612f4257612f42612f09565b60405290565b604051601f8201601f191681016001600160401b0381118282101715612f7057612f70612f09565b604052919050565b60006001600160401b03821115612f9157612f91612f09565b5060051b60200190565b600082601f830112612fac57600080fd5b81356020612fc1612fbc83612f78565b612f48565b8083825260208201915060208460051b870101935086841115612fe357600080fd5b602086015b84811015612fff5780358352918301918301612fe8565b509695505050505050565b80356001600160c01b038116811461302157600080fd5b919050565b6001600160a01b03811681146123ee57600080fd5b803561302181613026565b600080600080600060a0868803121561305e57600080fd5b85356001600160401b038082111561307557600080fd5b61308189838a01612f9b565b965060209150818801358181111561309857600080fd5b8801601f81018a136130a957600080fd5b80356130b7612fbc82612f78565b81815260059190911b8201840190848101908c8311156130d657600080fd5b928501925b828410156130fb576130ec8461300a565b825292850192908501906130db565b985061310d925050506040890161303b565b945060608801359350608088013591508082111561312a57600080fd5b5061313788828901612f9b565b9150509295509295909350565b60006020828403121561315657600080fd5b813560ff81168114612a7057600080fd5b60006020828403121561317957600080fd5b5035919050565b80356001600160401b038116811461302157600080fd5b600080600080600060a086880312156131af57600080fd5b853594506131bf60208701613180565b935060408601356001600160501b0319811681146131dc57600080fd5b94979396509394606081013594506080013592915050565b6000806000806080858703121561320a57600080fd5b843593506020850135925061322160408601613180565b915060608501356001600160401b0381111561323c57600080fd5b61324887828801612f9b565b91505092959194509250565b60006020828403121561326657600080fd5b8135612a7081613026565b634e487b7160e01b600052602160045260246000fd5b600581106132a557634e487b7160e01b600052602160045260246000fd5b9052565b6001600160a01b038e16815263ffffffff8d811660208301528c811660408301528b1660608201526101a081016132e3608083018c613287565b6001600160a01b039990991660a082015260c081019790975260e08701959095526101008601939093526101208501919091526101408401526101608301526101809091015295945050505050565b60008060006060848603121561334757600080fd5b833592506020840135915060408401356001600160401b0381111561336b57600080fd5b61337786828701612f9b565b9150509250925092565b6000806040838503121561339457600080fd5b823591506020830135600581106133aa57600080fd5b809150509250929050565b6000602082840312156133c757600080fd5b81356001600160401b03808211156133de57600080fd5b9083019061016082860312156133f357600080fd5b6133fb612f1f565b8235815260208301356020820152604083013560408201526060830135606082015261342960808401613180565b608082015260a083013560a082015261344460c08401613180565b60c082015261345560e08401613180565b60e0820152610100613468818501613180565b90820152610120838101358381111561348057600080fd5b61348c88828701612f9b565b82840152505061014080840135838111156134a657600080fd5b6134b288828701612f9b565b918301919091525095945050505050565b60005b838110156134de5781810151838201526020016134c6565b50506000910152565b600081518084526134ff8160208601602086016134c3565b601f01601f19169290920160200192915050565b602081526000612a7060208301846134e7565b6000806040838503121561353957600080fd5b50508035926020909101359150565b60008151808452602080850194506020840160005b838110156135795781518752958201959082019060010161355d565b509495945050505050565b602081526000825160208084015261359f6040840182613548565b949350505050565b600080600080608085870312156135bd57600080fd5b84359350602085013592506132216040860161300a565b60008151808452602080850194506020840160005b838110156135795781516001600160c01b0316875295820195908201906001016135e9565b60008151808452602080850194506020840160005b838110156135795781516001600160401b031687529582019590820190600101613623565b602081526136626020820183516001600160a01b03169052565b6000602083015161367b604084018263ffffffff169052565b50604083015163ffffffff8116606084015250606083015163ffffffff811660808401525060808301516136b260a0840182613287565b5060a08301516001600160a01b03811660c08401525060c083015160e08381019190915283015161010080840191909152830151610120808401919091528301516101408084019190915283015161016080840191909152830151610180808401919091528301516101a0808401919091528301516102006101c0808501829052613741610220860184613548565b9250808601519050601f196101e081878603018188015261376285846135d4565b90880151878203909201848801529350905061377e838261360e565b9695505050505050565b803563ffffffff8116811461302157600080fd5b600082601f8301126137ad57600080fd5b81356001600160401b038111156137c6576137c6612f09565b6137d9601f8201601f1916602001612f48565b8181528460208386010111156137ee57600080fd5b816020850160208301376000918101602001919091529392505050565b60008060008060008060008060006101208a8c03121561382a57600080fd5b8935985060208a0135975060408a0135965061384860608b01613788565b955061385660808b01613180565b945061386460a08b01613180565b935060c08a01356001600160401b038082111561388057600080fd5b61388c8d838e01612f9b565b945060e08c01359150808211156138a257600080fd5b6138ae8d838e01612f9b565b93506101008c01359150808211156138c557600080fd5b506138d28c828d0161379c565b9150509295985092959850929598565b634e487b7160e01b600052603260045260246000fd5b634e487b7160e01b600052601160045260246000fd5b808201808211156120c1576120c16138f8565b634e487b7160e01b600052601260045260246000fd5b60008261394657613946613921565b500490565b80820281158282048414176120c1576120c16138f8565b600082516139748184602087016134c3565b9190910192915050565b60006020828403121561399057600080fd5b5051919050565b818103818111156120c1576120c16138f8565b6000602082840312156139bc57600080fd5b81518015158114612a7057600080fd5b6020808252600c908201526b15539055551213d49256915160a21b604082015260600190565b8181036000831280158383131683831282161715613a1257613a126138f8565b5092915050565b602081528151602082015260208201516040820152604082015160608201526060820151608082015260006080830151613a5e60a08401826001600160401b03169052565b5060a083015160c083015260c0830151613a8360e08401826001600160401b03169052565b5060e0830151610100613aa0818501836001600160401b03169052565b8401519050610120613abc848201836001600160401b03169052565b808501519150506101606101408181860152613adc610180860184613548565b90860151858203601f19018387015290925061377e8382613548565b600082613b0757613b07613921565b500690565b6001600160401b03828116828216039080821115613a1257613a126138f8565b838152606060208201526000613b4560608301856134e7565b828103604084015261377e81856134e7565b63ffffffff818116838216019080821115613a1257613a126138f8565b60ff82811682821603908111156120c1576120c16138f8565b600181815b80851115613bc8578160001904821115613bae57613bae6138f8565b80851615613bbb57918102915b93841c9390800290613b92565b509250929050565b600082613bdf575060016120c1565b81613bec575060006120c1565b8160018114613c025760028114613c0c57613c28565b60019150506120c1565b60ff841115613c1d57613c1d6138f8565b50506001821b6120c1565b5060208310610133831016604e8410600b8410161715613c4b575081810a6120c1565b613c558383613b8d565b8060001904821115613c6957613c696138f8565b029392505050565b6000612a7060ff841683613bd0565b600060018201613c9257613c926138f8565b506001019056fea26469706673582212200f2737de396f012aa6faa498f9c5d7d9a7bfe40a3c80c89f22cddc79f3dfb12c64736f6c63430008180033","linkReferences":{}},"methodIdentifiers":{"CHALLENGE_PERIOD()":"c3a079ed","DEPOSIT_TOKEN()":"13f66587","MAX_DEPOSIT_OUTPUTS()":"9cdb8e5a","MIN_ORDER_GAS_MULTIPLIER()":"5f5d5b6a","PROOF_GAS_COST()":"eb6c7522","RELEASE_GAS_COST()":"9a64279c","RESERVATION_LOCKUP_PERIOD()":"89a11f7a","SAMPLING_SIZE()":"ad062e55","TOKEN_DECIMALS()":"5b7f415c","buildProofPublicInputs((bytes32,bytes32,bytes32,bytes32,uint64,bytes32,uint64,uint64,uint64,bytes32[],uint256[]))":"8f1546b4","calculateRetargetHeight(uint256)":"b9b2a982","circuitVerificationKey()":"3d7b22b3","currentConfirmationHeight()":"fba78166","currentHeight()":"163de0c5","depositLiquidity(uint256,uint64,bytes22,int256,int256)":"51a7f1cd","depositVaults(uint256)":"5f4d0610","emptyDepositVault(uint256)":"490d4c5f","getAreDepositsPaused()":"b01c27d1","getBlockHash(uint256)":"ee82ac5e","getChainwork(uint256)":"cda7d82c","getDepositVault(uint256)":"276d080e","getDepositVaultUnreservedBalance(uint256)":"6512d057","getDepositVaultsLength()":"7dce5550","getLiquidityProvider(address)":"98f9e757","getReservation(uint256)":"d57763c3","getReservationLength()":"ea6fe03e","isDepositNewLiquidityPaused()":"8cc63cdd","owner()":"8da5cb5b","pauseDepositNewLiquidity()":"130d1392","proposeTransactionProof(uint256,bytes32,bytes32,uint32,uint64,uint64,bytes32[],uint256[],bytes)":"edd67b72","protocolFeeBP()":"c5fba0b8","proverReward()":"6dcc17c8","refundAllLPs(uint256,uint256,uint256[])":"70c60e8f","releaseLiquidity(uint256)":"77891907","releaserReward()":"9cc7eab9","reserveLiquidity(uint256[],uint192[],address,uint256,uint256[])":"0140e183","setSwapReservationState(uint256,uint8)":"7b93291f","swapReservations(uint256)":"6b994abb","transferOwnership(address)":"f2fde38b","unpauseDepositNewLiquidity()":"4491ba54","updateExchangeRate(uint256,uint256,uint64,uint256[])":"56fe6f86","updateProtocolAddress(address)":"58e2b676","updateProtocolFee(uint8)":"0a7aa293","updateRewards(uint256,uint256)":"97e50818","validateBlockExists(uint256)":"ed8b2b32","verifierContract()":"cf695688","withdrawLiquidity(uint256,uint256,uint192,uint256[])":"aeacb2e7"},"storageLayout":{"storage":[{"astId":47958,"contract":"src/RiftExchange.sol:RiftExchange","label":"blockchain","offset":0,"slot":"0","type":"t_mapping(t_uint256,t_bytes32)"},{"astId":47962,"contract":"src/RiftExchange.sol:RiftExchange","label":"chainworks","offset":0,"slot":"1","type":"t_mapping(t_uint256,t_uint256)"},{"astId":47964,"contract":"src/RiftExchange.sol:RiftExchange","label":"currentHeight","offset":0,"slot":"2","type":"t_uint256"},{"astId":47966,"contract":"src/RiftExchange.sol:RiftExchange","label":"currentConfirmationHeight","offset":0,"slot":"3","type":"t_uint256"},{"astId":46637,"contract":"src/RiftExchange.sol:RiftExchange","label":"owner","offset":0,"slot":"4","type":"t_address"},{"astId":49276,"contract":"src/RiftExchange.sol:RiftExchange","label":"isDepositNewLiquidityPaused","offset":20,"slot":"4","type":"t_bool"},{"astId":49287,"contract":"src/RiftExchange.sol:RiftExchange","label":"protocolFeeBP","offset":21,"slot":"4","type":"t_uint8"},{"astId":49289,"contract":"src/RiftExchange.sol:RiftExchange","label":"proverReward","offset":0,"slot":"5","type":"t_uint256"},{"astId":49291,"contract":"src/RiftExchange.sol:RiftExchange","label":"releaserReward","offset":0,"slot":"6","type":"t_uint256"},{"astId":49383,"contract":"src/RiftExchange.sol:RiftExchange","label":"liquidityProviders","offset":0,"slot":"7","type":"t_mapping(t_address,t_struct(LiquidityProvider)49322_storage)"},{"astId":49387,"contract":"src/RiftExchange.sol:RiftExchange","label":"swapReservations","offset":0,"slot":"8","type":"t_array(t_struct(SwapReservation)49378_storage)dyn_storage"},{"astId":49391,"contract":"src/RiftExchange.sol:RiftExchange","label":"depositVaults","offset":0,"slot":"9","type":"t_array(t_struct(DepositVault)49335_storage)dyn_storage"},{"astId":49402,"contract":"src/RiftExchange.sol:RiftExchange","label":"protocolAddress","offset":0,"slot":"10","type":"t_address_payable"}],"types":{"t_address":{"encoding":"inplace","label":"address","numberOfBytes":"20"},"t_address_payable":{"encoding":"inplace","label":"address payable","numberOfBytes":"20"},"t_array(t_struct(DepositVault)49335_storage)dyn_storage":{"encoding":"dynamic_array","label":"struct RiftExchange.DepositVault[]","numberOfBytes":"32","base":"t_struct(DepositVault)49335_storage"},"t_array(t_struct(SwapReservation)49378_storage)dyn_storage":{"encoding":"dynamic_array","label":"struct RiftExchange.SwapReservation[]","numberOfBytes":"32","base":"t_struct(SwapReservation)49378_storage"},"t_array(t_uint192)dyn_storage":{"encoding":"dynamic_array","label":"uint192[]","numberOfBytes":"32","base":"t_uint192"},"t_array(t_uint256)dyn_storage":{"encoding":"dynamic_array","label":"uint256[]","numberOfBytes":"32","base":"t_uint256"},"t_array(t_uint64)dyn_storage":{"encoding":"dynamic_array","label":"uint64[]","numberOfBytes":"32","base":"t_uint64"},"t_bool":{"encoding":"inplace","label":"bool","numberOfBytes":"1"},"t_bytes22":{"encoding":"inplace","label":"bytes22","numberOfBytes":"22"},"t_bytes32":{"encoding":"inplace","label":"bytes32","numberOfBytes":"32"},"t_enum(ReservationState)49341":{"encoding":"inplace","label":"enum RiftExchange.ReservationState","numberOfBytes":"1"},"t_int256":{"encoding":"inplace","label":"int256","numberOfBytes":"32"},"t_mapping(t_address,t_struct(LiquidityProvider)49322_storage)":{"encoding":"mapping","key":"t_address","label":"mapping(address => struct RiftExchange.LiquidityProvider)","numberOfBytes":"32","value":"t_struct(LiquidityProvider)49322_storage"},"t_mapping(t_uint256,t_bytes32)":{"encoding":"mapping","key":"t_uint256","label":"mapping(uint256 => bytes32)","numberOfBytes":"32","value":"t_bytes32"},"t_mapping(t_uint256,t_uint256)":{"encoding":"mapping","key":"t_uint256","label":"mapping(uint256 => uint256)","numberOfBytes":"32","value":"t_uint256"},"t_struct(DepositVault)49335_storage":{"encoding":"inplace","label":"struct RiftExchange.DepositVault","numberOfBytes":"160","members":[{"astId":49324,"contract":"src/RiftExchange.sol:RiftExchange","label":"owner","offset":0,"slot":"0","type":"t_address"},{"astId":49326,"contract":"src/RiftExchange.sol:RiftExchange","label":"initialBalance","offset":0,"slot":"1","type":"t_uint256"},{"astId":49328,"contract":"src/RiftExchange.sol:RiftExchange","label":"unreservedBalance","offset":0,"slot":"2","type":"t_uint256"},{"astId":49330,"contract":"src/RiftExchange.sol:RiftExchange","label":"withdrawnAmount","offset":0,"slot":"3","type":"t_uint256"},{"astId":49332,"contract":"src/RiftExchange.sol:RiftExchange","label":"exchangeRate","offset":0,"slot":"4","type":"t_uint64"},{"astId":49334,"contract":"src/RiftExchange.sol:RiftExchange","label":"btcPayoutLockingScript","offset":8,"slot":"4","type":"t_bytes22"}]},"t_struct(LiquidityProvider)49322_storage":{"encoding":"inplace","label":"struct RiftExchange.LiquidityProvider","numberOfBytes":"32","members":[{"astId":49321,"contract":"src/RiftExchange.sol:RiftExchange","label":"depositVaultIndexes","offset":0,"slot":"0","type":"t_array(t_uint256)dyn_storage"}]},"t_struct(SwapReservation)49378_storage":{"encoding":"inplace","label":"struct RiftExchange.SwapReservation","numberOfBytes":"384","members":[{"astId":49343,"contract":"src/RiftExchange.sol:RiftExchange","label":"owner","offset":0,"slot":"0","type":"t_address"},{"astId":49345,"contract":"src/RiftExchange.sol:RiftExchange","label":"confirmationBlockHeight","offset":20,"slot":"0","type":"t_uint32"},{"astId":49347,"contract":"src/RiftExchange.sol:RiftExchange","label":"reservationTimestamp","offset":24,"slot":"0","type":"t_uint32"},{"astId":49349,"contract":"src/RiftExchange.sol:RiftExchange","label":"unlockTimestamp","offset":28,"slot":"0","type":"t_uint32"},{"astId":49352,"contract":"src/RiftExchange.sol:RiftExchange","label":"state","offset":0,"slot":"1","type":"t_enum(ReservationState)49341"},{"astId":49354,"contract":"src/RiftExchange.sol:RiftExchange","label":"ethPayoutAddress","offset":1,"slot":"1","type":"t_address"},{"astId":49356,"contract":"src/RiftExchange.sol:RiftExchange","label":"lpReservationHash","offset":0,"slot":"2","type":"t_bytes32"},{"astId":49358,"contract":"src/RiftExchange.sol:RiftExchange","label":"nonce","offset":0,"slot":"3","type":"t_bytes32"},{"astId":49360,"contract":"src/RiftExchange.sol:RiftExchange","label":"totalSatsInputInlcudingProxyFee","offset":0,"slot":"4","type":"t_uint256"},{"astId":49362,"contract":"src/RiftExchange.sol:RiftExchange","label":"totalSwapOutputAmount","offset":0,"slot":"5","type":"t_uint256"},{"astId":49364,"contract":"src/RiftExchange.sol:RiftExchange","label":"prepaidFeeAmount","offset":0,"slot":"6","type":"t_int256"},{"astId":49366,"contract":"src/RiftExchange.sol:RiftExchange","label":"proposedBlockHeight","offset":0,"slot":"7","type":"t_uint256"},{"astId":49368,"contract":"src/RiftExchange.sol:RiftExchange","label":"proposedBlockHash","offset":0,"slot":"8","type":"t_bytes32"},{"astId":49371,"contract":"src/RiftExchange.sol:RiftExchange","label":"vaultIndexes","offset":0,"slot":"9","type":"t_array(t_uint256)dyn_storage"},{"astId":49374,"contract":"src/RiftExchange.sol:RiftExchange","label":"amountsToReserve","offset":0,"slot":"10","type":"t_array(t_uint192)dyn_storage"},{"astId":49377,"contract":"src/RiftExchange.sol:RiftExchange","label":"expectedSatsOutput","offset":0,"slot":"11","type":"t_array(t_uint64)dyn_storage"}]},"t_uint192":{"encoding":"inplace","label":"uint192","numberOfBytes":"24"},"t_uint256":{"encoding":"inplace","label":"uint256","numberOfBytes":"32"},"t_uint32":{"encoding":"inplace","label":"uint32","numberOfBytes":"4"},"t_uint64":{"encoding":"inplace","label":"uint64","numberOfBytes":"8"},"t_uint8":{"encoding":"inplace","label":"uint8","numberOfBytes":"1"}}},"id":32}