{"abi":[{"type":"receive","stateMutability":"payable"},{"type":"function","name":"DOMAIN_SEPARATOR","inputs":[],"outputs":[{"name":"","type":"bytes32","internalType":"bytes32"}],"stateMutability":"view"},{"type":"function","name":"allowance","inputs":[{"name":"","type":"address","internalType":"address"},{"name":"","type":"address","internalType":"address"}],"outputs":[{"name":"","type":"uint256","internalType":"uint256"}],"stateMutability":"view"},{"type":"function","name":"approve","inputs":[{"name":"spender","type":"address","internalType":"address"},{"name":"amount","type":"uint256","internalType":"uint256"}],"outputs":[{"name":"","type":"bool","internalType":"bool"}],"stateMutability":"nonpayable"},{"type":"function","name":"balanceOf","inputs":[{"name":"","type":"address","internalType":"address"}],"outputs":[{"name":"","type":"uint256","internalType":"uint256"}],"stateMutability":"view"},{"type":"function","name":"decimals","inputs":[],"outputs":[{"name":"","type":"uint8","internalType":"uint8"}],"stateMutability":"view"},{"type":"function","name":"deposit","inputs":[],"outputs":[],"stateMutability":"payable"},{"type":"function","name":"name","inputs":[],"outputs":[{"name":"","type":"string","internalType":"string"}],"stateMutability":"view"},{"type":"function","name":"nonces","inputs":[{"name":"","type":"address","internalType":"address"}],"outputs":[{"name":"","type":"uint256","internalType":"uint256"}],"stateMutability":"view"},{"type":"function","name":"permit","inputs":[{"name":"owner","type":"address","internalType":"address"},{"name":"spender","type":"address","internalType":"address"},{"name":"value","type":"uint256","internalType":"uint256"},{"name":"deadline","type":"uint256","internalType":"uint256"},{"name":"v","type":"uint8","internalType":"uint8"},{"name":"r","type":"bytes32","internalType":"bytes32"},{"name":"s","type":"bytes32","internalType":"bytes32"}],"outputs":[],"stateMutability":"nonpayable"},{"type":"function","name":"symbol","inputs":[],"outputs":[{"name":"","type":"string","internalType":"string"}],"stateMutability":"view"},{"type":"function","name":"totalSupply","inputs":[],"outputs":[{"name":"","type":"uint256","internalType":"uint256"}],"stateMutability":"view"},{"type":"function","name":"transfer","inputs":[{"name":"to","type":"address","internalType":"address"},{"name":"amount","type":"uint256","internalType":"uint256"}],"outputs":[{"name":"","type":"bool","internalType":"bool"}],"stateMutability":"nonpayable"},{"type":"function","name":"transferFrom","inputs":[{"name":"from","type":"address","internalType":"address"},{"name":"to","type":"address","internalType":"address"},{"name":"amount","type":"uint256","internalType":"uint256"}],"outputs":[{"name":"","type":"bool","internalType":"bool"}],"stateMutability":"nonpayable"},{"type":"function","name":"withdraw","inputs":[{"name":"amount","type":"uint256","internalType":"uint256"}],"outputs":[],"stateMutability":"nonpayable"},{"type":"event","name":"Approval","inputs":[{"name":"owner","type":"address","indexed":true,"internalType":"address"},{"name":"spender","type":"address","indexed":true,"internalType":"address"},{"name":"amount","type":"uint256","indexed":false,"internalType":"uint256"}],"anonymous":false},{"type":"event","name":"Deposit","inputs":[{"name":"from","type":"address","indexed":true,"internalType":"address"},{"name":"amount","type":"uint256","indexed":false,"internalType":"uint256"}],"anonymous":false},{"type":"event","name":"Transfer","inputs":[{"name":"from","type":"address","indexed":true,"internalType":"address"},{"name":"to","type":"address","indexed":true,"internalType":"address"},{"name":"amount","type":"uint256","indexed":false,"internalType":"uint256"}],"anonymous":false},{"type":"event","name":"Withdrawal","inputs":[{"name":"to","type":"address","indexed":true,"internalType":"address"},{"name":"amount","type":"uint256","indexed":false,"internalType":"uint256"}],"anonymous":false}],"bytecode":{"object":"0x60e06040523480156200001157600080fd5b506040518060400160405280600d81526020016c2bb930b83832b21022ba3432b960991b815250604051806040016040528060048152602001630ae8aa8960e31b81525060128260009081620000689190620001dd565b506001620000778382620001dd565b5060ff81166080524660a0526200008d6200009a565b60c0525062000327915050565b60007f8b73c3c69bb8fe3d512ecc4cf759cc79239f7b179b0ffacaa9a75d522b39400f6000604051620000ce9190620002a9565b6040805191829003822060208301939093528101919091527fc89efdaa54c0f20c7adf612882df0950f5a951637e0307cdcb4c672f298b8bc660608201524660808201523060a082015260c00160405160208183030381529060405280519060200120905090565b634e487b7160e01b600052604160045260246000fd5b600181811c908216806200016157607f821691505b6020821081036200018257634e487b7160e01b600052602260045260246000fd5b50919050565b601f821115620001d8576000816000526020600020601f850160051c81016020861015620001b35750805b601f850160051c820191505b81811015620001d457828155600101620001bf565b5050505b505050565b81516001600160401b03811115620001f957620001f962000136565b62000211816200020a84546200014c565b8462000188565b602080601f831160018114620002495760008415620002305750858301515b600019600386901b1c1916600185901b178555620001d4565b600085815260208120601f198616915b828110156200027a5788860151825594840194600190910190840162000259565b5085821015620002995787850151600019600388901b60f8161c191681555b5050505050600190811b01905550565b6000808354620002b9816200014c565b60018281168015620002d45760018114620002ea576200031b565b60ff19841687528215158302870194506200031b565b8760005260208060002060005b85811015620003125781548a820152908401908201620002f7565b50505082870194505b50929695505050505050565b60805160a05160c051610d4862000357600039600061059f0152600061056a015260006101c60152610d486000f3fe6080604052600436106100e15760003560e01c806370a082311161007f578063a9059cbb11610059578063a9059cbb1461027e578063d0e30db01461029e578063d505accf146102a6578063dd62ed3e146102c657600080fd5b806370a082311461020f5780637ecebe001461023c57806395d89b411461026957600080fd5b806323b872dd116100bb57806323b872dd146101745780632e1a7d4d14610194578063313ce567146101b45780633644e515146101fa57600080fd5b806306fdde03146100f5578063095ea7b31461012057806318160ddd1461015057600080fd5b366100f0576100ee6102fe565b005b600080fd5b34801561010157600080fd5b5061010a61033f565b6040516101179190610a29565b60405180910390f35b34801561012c57600080fd5b5061014061013b366004610a94565b6103cd565b6040519015158152602001610117565b34801561015c57600080fd5b5061016660025481565b604051908152602001610117565b34801561018057600080fd5b5061014061018f366004610abe565b61043a565b3480156101a057600080fd5b506100ee6101af366004610afa565b61051a565b3480156101c057600080fd5b506101e87f000000000000000000000000000000000000000000000000000000000000000081565b60405160ff9091168152602001610117565b34801561020657600080fd5b50610166610566565b34801561021b57600080fd5b5061016661022a366004610b13565b60036020526000908152604090205481565b34801561024857600080fd5b50610166610257366004610b13565b60056020526000908152604090205481565b34801561027557600080fd5b5061010a6105c1565b34801561028a57600080fd5b50610140610299366004610a94565b6105ce565b6100ee6102fe565b3480156102b257600080fd5b506100ee6102c1366004610b35565b610634565b3480156102d257600080fd5b506101666102e1366004610ba8565b600460209081526000928352604080842090915290825290205481565b610308333461087d565b60405134815233907fe1fffcc4923d04b559f4d29a8bfc6cda04eb5b0d3c460751c2402c5c5cc9109c9060200160405180910390a2565b6000805461034c90610bdb565b80601f016020809104026020016040519081016040528092919081815260200182805461037890610bdb565b80156103c55780601f1061039a576101008083540402835291602001916103c5565b820191906000526020600020905b8154815290600101906020018083116103a857829003601f168201915b505050505081565b3360008181526004602090815260408083206001600160a01b038716808552925280832085905551919290917f8c5be1e5ebec7d5bd14f71427d1e84f3dd0314c0f7b2291e5b200ac8c7c3b925906104289086815260200190565b60405180910390a35060015b92915050565b6001600160a01b03831660009081526004602090815260408083203384529091528120546000198114610496576104718382610c2b565b6001600160a01b03861660009081526004602090815260408083203384529091529020555b6001600160a01b038516600090815260036020526040812080548592906104be908490610c2b565b90915550506001600160a01b0380851660008181526003602052604090819020805487019055519091871690600080516020610cf3833981519152906105079087815260200190565b60405180910390a3506001949350505050565b61052433826108d7565b60405181815233907f7fcf532c15f0a6db0bd6d0e038bea71d30d808c7d98cb3bf7268a95bf5081b659060200160405180910390a26105633382610939565b50565b60007f0000000000000000000000000000000000000000000000000000000000000000461461059c5761059761098f565b905090565b507f000000000000000000000000000000000000000000000000000000000000000090565b6001805461034c90610bdb565b336000908152600360205260408120805483919083906105ef908490610c2b565b90915550506001600160a01b03831660008181526003602052604090819020805485019055513390600080516020610cf3833981519152906104289086815260200190565b428410156106895760405162461bcd60e51b815260206004820152601760248201527f5045524d49545f444541444c494e455f4558504952454400000000000000000060448201526064015b60405180910390fd5b60006001610695610566565b6001600160a01b038a811660008181526005602090815260409182902080546001810190915582517f6e71edae12b1b97f4d1f60370fef10105fa2faae0126114a169c64845d6126c98184015280840194909452938d166060840152608083018c905260a083019390935260c08083018b90528151808403909101815260e08301909152805192019190912061190160f01b6101008301526101028201929092526101228101919091526101420160408051601f198184030181528282528051602091820120600084529083018083525260ff871690820152606081018590526080810184905260a0016020604051602081039080840390855afa1580156107a1573d6000803e3d6000fd5b5050604051601f1901519150506001600160a01b038116158015906107d75750876001600160a01b0316816001600160a01b0316145b6108145760405162461bcd60e51b815260206004820152600e60248201526d24a72b20a624a22fa9a4a3a722a960911b6044820152606401610680565b6001600160a01b0390811660009081526004602090815260408083208a8516808552908352928190208990555188815291928a16917f8c5be1e5ebec7d5bd14f71427d1e84f3dd0314c0f7b2291e5b200ac8c7c3b925910160405180910390a350505050505050565b806002600082825461088f9190610c3e565b90915550506001600160a01b038216600081815260036020908152604080832080548601905551848152600080516020610cf383398151915291015b60405180910390a35050565b6001600160a01b038216600090815260036020526040812080548392906108ff908490610c2b565b90915550506002805482900390556040518181526000906001600160a01b03841690600080516020610cf3833981519152906020016108cb565b600080600080600085875af190508061098a5760405162461bcd60e51b815260206004820152601360248201527211551217d514905394d1915497d19052531151606a1b6044820152606401610680565b505050565b60007f8b73c3c69bb8fe3d512ecc4cf759cc79239f7b179b0ffacaa9a75d522b39400f60006040516109c19190610c51565b6040805191829003822060208301939093528101919091527fc89efdaa54c0f20c7adf612882df0950f5a951637e0307cdcb4c672f298b8bc660608201524660808201523060a082015260c00160405160208183030381529060405280519060200120905090565b60006020808352835180602085015260005b81811015610a5757858101830151858201604001528201610a3b565b506000604082860101526040601f19601f8301168501019250505092915050565b80356001600160a01b0381168114610a8f57600080fd5b919050565b60008060408385031215610aa757600080fd5b610ab083610a78565b946020939093013593505050565b600080600060608486031215610ad357600080fd5b610adc84610a78565b9250610aea60208501610a78565b9150604084013590509250925092565b600060208284031215610b0c57600080fd5b5035919050565b600060208284031215610b2557600080fd5b610b2e82610a78565b9392505050565b600080600080600080600060e0888a031215610b5057600080fd5b610b5988610a78565b9650610b6760208901610a78565b95506040880135945060608801359350608088013560ff81168114610b8b57600080fd5b9699959850939692959460a0840135945060c09093013592915050565b60008060408385031215610bbb57600080fd5b610bc483610a78565b9150610bd260208401610a78565b90509250929050565b600181811c90821680610bef57607f821691505b602082108103610c0f57634e487b7160e01b600052602260045260246000fd5b50919050565b634e487b7160e01b600052601160045260246000fd5b8181038181111561043457610434610c15565b8082018082111561043457610434610c15565b60008083548160018260011c91506001831680610c6f57607f831692505b60208084108203610c8e57634e487b7160e01b86526022600452602486fd5b818015610ca25760018114610cb757610ce4565b60ff1986168952841515850289019650610ce4565b60008a81526020902060005b86811015610cdc5781548b820152908501908301610cc3565b505084890196505b50949897505050505050505056feddf252ad1be2c89b69c2b068fc378daa952ba7f163c4a11628f55a4df523b3efa264697066735822122045887c6735f4dff904a8998d40a94b8b306d3c366dd1a20cb0cac6768de4d94264736f6c63430008180033","linkReferences":{}},"methodIdentifiers":{"DOMAIN_SEPARATOR()":"3644e515","allowance(address,address)":"dd62ed3e","approve(address,uint256)":"095ea7b3","balanceOf(address)":"70a08231","decimals()":"313ce567","deposit()":"d0e30db0","name()":"06fdde03","nonces(address)":"7ecebe00","permit(address,address,uint256,uint256,uint8,bytes32,bytes32)":"d505accf","symbol()":"95d89b41","totalSupply()":"18160ddd","transfer(address,uint256)":"a9059cbb","transferFrom(address,address,uint256)":"23b872dd","withdraw(uint256)":"2e1a7d4d"},"storageLayout":{"storage":[{"astId":46707,"contract":"lib/solmate/src/tokens/WETH.sol:WETH","label":"name","offset":0,"slot":"0","type":"t_string_storage"},{"astId":46709,"contract":"lib/solmate/src/tokens/WETH.sol:WETH","label":"symbol","offset":0,"slot":"1","type":"t_string_storage"},{"astId":46713,"contract":"lib/solmate/src/tokens/WETH.sol:WETH","label":"totalSupply","offset":0,"slot":"2","type":"t_uint256"},{"astId":46717,"contract":"lib/solmate/src/tokens/WETH.sol:WETH","label":"balanceOf","offset":0,"slot":"3","type":"t_mapping(t_address,t_uint256)"},{"astId":46723,"contract":"lib/solmate/src/tokens/WETH.sol:WETH","label":"allowance","offset":0,"slot":"4","type":"t_mapping(t_address,t_mapping(t_address,t_uint256))"},{"astId":46731,"contract":"lib/solmate/src/tokens/WETH.sol:WETH","label":"nonces","offset":0,"slot":"5","type":"t_mapping(t_address,t_uint256)"}],"types":{"t_address":{"encoding":"inplace","label":"address","numberOfBytes":"20"},"t_mapping(t_address,t_mapping(t_address,t_uint256))":{"encoding":"mapping","key":"t_address","label":"mapping(address => mapping(address => uint256))","numberOfBytes":"32","value":"t_mapping(t_address,t_uint256)"},"t_mapping(t_address,t_uint256)":{"encoding":"mapping","key":"t_address","label":"mapping(address => uint256)","numberOfBytes":"32","value":"t_uint256"},"t_string_storage":{"encoding":"bytes","label":"string","numberOfBytes":"32"},"t_uint256":{"encoding":"inplace","label":"uint256","numberOfBytes":"32"}}},"id":26}